{
	"Interface.sol": {
		"UserRegistry": {
			"abi": [
				{
					"anonymous": false,
					"inputs": [
						{
							"indexed": true,
							"internalType": "string",
							"name": "userAddress",
							"type": "string"
						},
						{
							"indexed": false,
							"internalType": "string",
							"name": "newContact",
							"type": "string"
						},
						{
							"indexed": false,
							"internalType": "bool",
							"name": "success",
							"type": "bool"
						}
					],
					"name": "ContactUpdated",
					"type": "event"
				},
				{
					"anonymous": false,
					"inputs": [
						{
							"indexed": true,
							"internalType": "string",
							"name": "userAddress",
							"type": "string"
						},
						{
							"indexed": false,
							"internalType": "string",
							"name": "newDOB",
							"type": "string"
						},
						{
							"indexed": false,
							"internalType": "bool",
							"name": "success",
							"type": "bool"
						}
					],
					"name": "DOBUpdated",
					"type": "event"
				},
				{
					"anonymous": false,
					"inputs": [
						{
							"indexed": true,
							"internalType": "string",
							"name": "userAddress",
							"type": "string"
						},
						{
							"indexed": false,
							"internalType": "string",
							"name": "newEmail",
							"type": "string"
						},
						{
							"indexed": false,
							"internalType": "bool",
							"name": "success",
							"type": "bool"
						}
					],
					"name": "EmailUpdated",
					"type": "event"
				},
				{
					"anonymous": false,
					"inputs": [
						{
							"indexed": true,
							"internalType": "string",
							"name": "userAddress",
							"type": "string"
						},
						{
							"indexed": false,
							"internalType": "string",
							"name": "newUsername",
							"type": "string"
						},
						{
							"indexed": false,
							"internalType": "bool",
							"name": "success",
							"type": "bool"
						}
					],
					"name": "UsernameUpdated",
					"type": "event"
				},
				{
					"inputs": [
						{
							"internalType": "string",
							"name": "_userAddress",
							"type": "string"
						},
						{
							"internalType": "string",
							"name": "_email",
							"type": "string"
						},
						{
							"internalType": "string",
							"name": "_username",
							"type": "string"
						},
						{
							"internalType": "string",
							"name": "_contact",
							"type": "string"
						},
						{
							"internalType": "string",
							"name": "_dob",
							"type": "string"
						},
						{
							"internalType": "string",
							"name": "_privateKey",
							"type": "string"
						}
					],
					"name": "createUser",
					"outputs": [],
					"stateMutability": "nonpayable",
					"type": "function"
				},
				{
					"inputs": [
						{
							"internalType": "string",
							"name": "_userAddress",
							"type": "string"
						}
					],
					"name": "getContactByAddress",
					"outputs": [
						{
							"internalType": "string",
							"name": "",
							"type": "string"
						}
					],
					"stateMutability": "view",
					"type": "function"
				},
				{
					"inputs": [
						{
							"internalType": "string",
							"name": "_userAddress",
							"type": "string"
						}
					],
					"name": "getDOBByAddress",
					"outputs": [
						{
							"internalType": "string",
							"name": "",
							"type": "string"
						}
					],
					"stateMutability": "view",
					"type": "function"
				},
				{
					"inputs": [
						{
							"internalType": "string",
							"name": "_userAddress",
							"type": "string"
						}
					],
					"name": "getEmailByAddress",
					"outputs": [
						{
							"internalType": "string",
							"name": "",
							"type": "string"
						}
					],
					"stateMutability": "view",
					"type": "function"
				},
				{
					"inputs": [
						{
							"internalType": "string",
							"name": "_userAddress",
							"type": "string"
						}
					],
					"name": "getUsernameByAddress",
					"outputs": [
						{
							"internalType": "string",
							"name": "",
							"type": "string"
						}
					],
					"stateMutability": "view",
					"type": "function"
				},
				{
					"inputs": [
						{
							"internalType": "string",
							"name": "_privateKey",
							"type": "string"
						},
						{
							"internalType": "string",
							"name": "_userAddress",
							"type": "string"
						}
					],
					"name": "mapPrivateKeyToPublicKey",
					"outputs": [],
					"stateMutability": "nonpayable",
					"type": "function"
				},
				{
					"inputs": [
						{
							"internalType": "string",
							"name": "",
							"type": "string"
						}
					],
					"name": "privateKeyToPublicKey",
					"outputs": [
						{
							"internalType": "string",
							"name": "",
							"type": "string"
						}
					],
					"stateMutability": "view",
					"type": "function"
				},
				{
					"inputs": [
						{
							"internalType": "string",
							"name": "_userAddress",
							"type": "string"
						},
						{
							"internalType": "string",
							"name": "_newContact",
							"type": "string"
						}
					],
					"name": "updateContact",
					"outputs": [],
					"stateMutability": "nonpayable",
					"type": "function"
				},
				{
					"inputs": [
						{
							"internalType": "string",
							"name": "_userAddress",
							"type": "string"
						},
						{
							"internalType": "string",
							"name": "_newDOB",
							"type": "string"
						}
					],
					"name": "updateDOB",
					"outputs": [],
					"stateMutability": "nonpayable",
					"type": "function"
				},
				{
					"inputs": [
						{
							"internalType": "string",
							"name": "_userAddress",
							"type": "string"
						},
						{
							"internalType": "string",
							"name": "_newEmail",
							"type": "string"
						}
					],
					"name": "updateEmail",
					"outputs": [],
					"stateMutability": "nonpayable",
					"type": "function"
				},
				{
					"inputs": [
						{
							"internalType": "string",
							"name": "_userAddress",
							"type": "string"
						},
						{
							"internalType": "string",
							"name": "_newUsername",
							"type": "string"
						}
					],
					"name": "updateUsername",
					"outputs": [],
					"stateMutability": "nonpayable",
					"type": "function"
				},
				{
					"inputs": [
						{
							"internalType": "string",
							"name": "",
							"type": "string"
						}
					],
					"name": "users",
					"outputs": [
						{
							"internalType": "string",
							"name": "userAddress",
							"type": "string"
						},
						{
							"internalType": "string",
							"name": "email",
							"type": "string"
						},
						{
							"internalType": "string",
							"name": "username",
							"type": "string"
						},
						{
							"internalType": "string",
							"name": "contact",
							"type": "string"
						},
						{
							"internalType": "string",
							"name": "dob",
							"type": "string"
						}
					],
					"stateMutability": "view",
					"type": "function"
				}
			],
			"devdoc": {
				"kind": "dev",
				"methods": {},
				"version": 1
			},
			"evm": {
				"assembly": "    /* \"Interface.sol\":60:3383  contract UserRegistry {... */\n  mstore(0x40, 0x80)\n  callvalue\n  dup1\n  iszero\n  tag_1\n  jumpi\n  0x00\n  dup1\n  revert\ntag_1:\n  pop\n  dataSize(sub_0)\n  dup1\n  dataOffset(sub_0)\n  0x00\n  codecopy\n  0x00\n  return\nstop\n\nsub_0: assembly {\n        /* \"Interface.sol\":60:3383  contract UserRegistry {... */\n      mstore(0x40, 0x80)\n      callvalue\n      dup1\n      iszero\n      tag_1\n      jumpi\n      0x00\n      dup1\n      revert\n    tag_1:\n      pop\n      jumpi(tag_2, lt(calldatasize, 0x04))\n      shr(0xe0, calldataload(0x00))\n      dup1\n      0x8c9a2e92\n      gt\n      tag_15\n      jumpi\n      dup1\n      0x8c9a2e92\n      eq\n      tag_9\n      jumpi\n      dup1\n      0xbeb8727f\n      eq\n      tag_10\n      jumpi\n      dup1\n      0xbf501844\n      eq\n      tag_11\n      jumpi\n      dup1\n      0xccca8f22\n      eq\n      tag_12\n      jumpi\n      dup1\n      0xee7476d5\n      eq\n      tag_13\n      jumpi\n      dup1\n      0xf7ffd625\n      eq\n      tag_14\n      jumpi\n      jump(tag_2)\n    tag_15:\n      dup1\n      0x01dadb2b\n      eq\n      tag_3\n      jumpi\n      dup1\n      0x0d60fafd\n      eq\n      tag_4\n      jumpi\n      dup1\n      0x27897557\n      eq\n      tag_5\n      jumpi\n      dup1\n      0x5a7fb9d7\n      eq\n      tag_6\n      jumpi\n      dup1\n      0x689e1c03\n      eq\n      tag_7\n      jumpi\n      dup1\n      0x892d069c\n      eq\n      tag_8\n      jumpi\n    tag_2:\n      0x00\n      dup1\n      revert\n        /* \"Interface.sol\":774:1526  function createUser(... */\n    tag_3:\n      tag_16\n      0x04\n      dup1\n      calldatasize\n      sub\n      dup2\n      add\n      swap1\n      tag_17\n      swap2\n      swap1\n      tag_18\n      jump\t// in\n    tag_17:\n      tag_19\n      jump\t// in\n    tag_16:\n      stop\n        /* \"Interface.sol\":3147:3380  function updateContact(... */\n    tag_4:\n      tag_20\n      0x04\n      dup1\n      calldatasize\n      sub\n      dup2\n      add\n      swap1\n      tag_21\n      swap2\n      swap1\n      tag_22\n      jump\t// in\n    tag_21:\n      tag_23\n      jump\t// in\n    tag_20:\n      stop\n        /* \"Interface.sol\":2419:2615  function updateEmail(string memory _userAddress, string memory _newEmail) public {... */\n    tag_5:\n      tag_24\n      0x04\n      dup1\n      calldatasize\n      sub\n      dup2\n      add\n      swap1\n      tag_25\n      swap2\n      swap1\n      tag_22\n      jump\t// in\n    tag_25:\n      tag_26\n      jump\t// in\n    tag_24:\n      stop\n        /* \"Interface.sol\":1534:1826  function mapPrivateKeyToPublicKey(... */\n    tag_6:\n      tag_27\n      0x04\n      dup1\n      calldatasize\n      sub\n      dup2\n      add\n      swap1\n      tag_28\n      swap2\n      swap1\n      tag_22\n      jump\t// in\n    tag_28:\n      tag_29\n      jump\t// in\n    tag_27:\n      stop\n        /* \"Interface.sol\":288:324  mapping(string => User) public users */\n    tag_7:\n      tag_30\n      0x04\n      dup1\n      calldatasize\n      sub\n      dup2\n      add\n      swap1\n      tag_31\n      swap2\n      swap1\n      tag_32\n      jump\t// in\n    tag_31:\n      tag_33\n      jump\t// in\n    tag_30:\n      mload(0x40)\n      tag_34\n      swap6\n      swap5\n      swap4\n      swap3\n      swap2\n      swap1\n      tag_35\n      jump\t// in\n    tag_34:\n      mload(0x40)\n      dup1\n      swap2\n      sub\n      swap1\n      return\n        /* \"Interface.sol\":2006:2245  function updateUsername(... */\n    tag_8:\n      tag_36\n      0x04\n      dup1\n      calldatasize\n      sub\n      dup2\n      add\n      swap1\n      tag_37\n      swap2\n      swap1\n      tag_22\n      jump\t// in\n    tag_37:\n      tag_38\n      jump\t// in\n    tag_36:\n      stop\n        /* \"Interface.sol\":2253:2411  function getEmailByAddress(... */\n    tag_9:\n      tag_39\n      0x04\n      dup1\n      calldatasize\n      sub\n      dup2\n      add\n      swap1\n      tag_40\n      swap2\n      swap1\n      tag_32\n      jump\t// in\n    tag_40:\n      tag_41\n      jump\t// in\n    tag_39:\n      mload(0x40)\n      tag_42\n      swap2\n      swap1\n      tag_43\n      jump\t// in\n    tag_42:\n      mload(0x40)\n      dup1\n      swap2\n      sub\n      swap1\n      return\n        /* \"Interface.sol\":2623:2777  function getDOBByAddress(... */\n    tag_10:\n      tag_44\n      0x04\n      dup1\n      calldatasize\n      sub\n      dup2\n      add\n      swap1\n      tag_45\n      swap2\n      swap1\n      tag_32\n      jump\t// in\n    tag_45:\n      tag_46\n      jump\t// in\n    tag_44:\n      mload(0x40)\n      tag_47\n      swap2\n      swap1\n      tag_43\n      jump\t// in\n    tag_47:\n      mload(0x40)\n      dup1\n      swap2\n      sub\n      swap1\n      return\n        /* \"Interface.sol\":367:421  mapping(string => string) public privateKeyToPublicKey */\n    tag_11:\n      tag_48\n      0x04\n      dup1\n      calldatasize\n      sub\n      dup2\n      add\n      swap1\n      tag_49\n      swap2\n      swap1\n      tag_32\n      jump\t// in\n    tag_49:\n      tag_50\n      jump\t// in\n    tag_48:\n      mload(0x40)\n      tag_51\n      swap2\n      swap1\n      tag_43\n      jump\t// in\n    tag_51:\n      mload(0x40)\n      dup1\n      swap2\n      sub\n      swap1\n      return\n        /* \"Interface.sol\":2977:3139  function getContactByAddress(... */\n    tag_12:\n      tag_52\n      0x04\n      dup1\n      calldatasize\n      sub\n      dup2\n      add\n      swap1\n      tag_53\n      swap2\n      swap1\n      tag_32\n      jump\t// in\n    tag_53:\n      tag_54\n      jump\t// in\n    tag_52:\n      mload(0x40)\n      tag_55\n      swap2\n      swap1\n      tag_43\n      jump\t// in\n    tag_55:\n      mload(0x40)\n      dup1\n      swap2\n      sub\n      swap1\n      return\n        /* \"Interface.sol\":2785:2969  function updateDOB(string memory _userAddress, string memory _newDOB) public {... */\n    tag_13:\n      tag_56\n      0x04\n      dup1\n      calldatasize\n      sub\n      dup2\n      add\n      swap1\n      tag_57\n      swap2\n      swap1\n      tag_22\n      jump\t// in\n    tag_57:\n      tag_58\n      jump\t// in\n    tag_56:\n      stop\n        /* \"Interface.sol\":1834:1998  function getUsernameByAddress(... */\n    tag_14:\n      tag_59\n      0x04\n      dup1\n      calldatasize\n      sub\n      dup2\n      add\n      swap1\n      tag_60\n      swap2\n      swap1\n      tag_32\n      jump\t// in\n    tag_60:\n      tag_61\n      jump\t// in\n    tag_59:\n      mload(0x40)\n      tag_62\n      swap2\n      swap1\n      tag_43\n      jump\t// in\n    tag_62:\n      mload(0x40)\n      dup1\n      swap2\n      sub\n      swap1\n      return\n        /* \"Interface.sol\":774:1526  function createUser(... */\n    tag_19:\n        /* \"Interface.sol\":1076:1077  0 */\n      0x00\n        /* \"Interface.sol\":1033:1038  users */\n      dup1\n        /* \"Interface.sol\":1039:1051  _userAddress */\n      dup8\n        /* \"Interface.sol\":1033:1052  users[_userAddress] */\n      mload(0x40)\n      tag_64\n      swap2\n      swap1\n      tag_65\n      jump\t// in\n    tag_64:\n      swap1\n      dup2\n      mstore\n      0x20\n      add\n      mload(0x40)\n      dup1\n      swap2\n      sub\n      swap1\n      keccak256\n        /* \"Interface.sol\":1033:1064  users[_userAddress].userAddress */\n      0x00\n      add\n        /* \"Interface.sol\":1027:1072  bytes(users[_userAddress].userAddress).length */\n      dup1\n      sload\n      tag_66\n      swap1\n      tag_67\n      jump\t// in\n    tag_66:\n      swap1\n      pop\n        /* \"Interface.sol\":1027:1077  bytes(users[_userAddress].userAddress).length == 0 */\n      eq\n        /* \"Interface.sol\":1019:1101  require(bytes(users[_userAddress].userAddress).length == 0, \"User already exists\") */\n      tag_68\n      jumpi\n      mload(0x40)\n      0x08c379a000000000000000000000000000000000000000000000000000000000\n      dup2\n      mstore\n      0x04\n      add\n      tag_69\n      swap1\n      tag_70\n      jump\t// in\n    tag_69:\n      mload(0x40)\n      dup1\n      swap2\n      sub\n      swap1\n      revert\n    tag_68:\n        /* \"Interface.sol\":1172:1173  0 */\n      0x00\n        /* \"Interface.sol\":1126:1147  privateKeyToPublicKey */\n      0x01\n        /* \"Interface.sol\":1148:1159  _privateKey */\n      dup3\n        /* \"Interface.sol\":1126:1160  privateKeyToPublicKey[_privateKey] */\n      mload(0x40)\n      tag_71\n      swap2\n      swap1\n      tag_65\n      jump\t// in\n    tag_71:\n      swap1\n      dup2\n      mstore\n      0x20\n      add\n      mload(0x40)\n      dup1\n      swap2\n      sub\n      swap1\n      keccak256\n        /* \"Interface.sol\":1120:1168  bytes(privateKeyToPublicKey[_privateKey]).length */\n      dup1\n      sload\n      tag_72\n      swap1\n      tag_67\n      jump\t// in\n    tag_72:\n      swap1\n      pop\n        /* \"Interface.sol\":1120:1173  bytes(privateKeyToPublicKey[_privateKey]).length == 0 */\n      eq\n        /* \"Interface.sol\":1112:1204  require(bytes(privateKeyToPublicKey[_privateKey]).length == 0, \"Private key already in use\") */\n      tag_73\n      jumpi\n      mload(0x40)\n      0x08c379a000000000000000000000000000000000000000000000000000000000\n      dup2\n      mstore\n      0x04\n      add\n      tag_74\n      swap1\n      tag_75\n      jump\t// in\n    tag_74:\n      mload(0x40)\n      dup1\n      swap2\n      sub\n      swap1\n      revert\n    tag_73:\n        /* \"Interface.sol\":1217:1236  User memory newUser */\n      0x00\n        /* \"Interface.sol\":1239:1414  User({... */\n      mload(0x40)\n      dup1\n      0xa0\n      add\n      0x40\n      mstore\n      dup1\n        /* \"Interface.sol\":1272:1284  _userAddress */\n      dup9\n        /* \"Interface.sol\":1239:1414  User({... */\n      dup2\n      mstore\n      0x20\n      add\n        /* \"Interface.sol\":1306:1312  _email */\n      dup8\n        /* \"Interface.sol\":1239:1414  User({... */\n      dup2\n      mstore\n      0x20\n      add\n        /* \"Interface.sol\":1337:1346  _username */\n      dup7\n        /* \"Interface.sol\":1239:1414  User({... */\n      dup2\n      mstore\n      0x20\n      add\n        /* \"Interface.sol\":1370:1378  _contact */\n      dup6\n        /* \"Interface.sol\":1239:1414  User({... */\n      dup2\n      mstore\n      0x20\n      add\n        /* \"Interface.sol\":1398:1402  _dob */\n      dup5\n        /* \"Interface.sol\":1239:1414  User({... */\n      dup2\n      mstore\n      pop\n        /* \"Interface.sol\":1217:1414  User memory newUser = User({... */\n      swap1\n      pop\n        /* \"Interface.sol\":1449:1456  newUser */\n      dup1\n        /* \"Interface.sol\":1427:1432  users */\n      0x00\n        /* \"Interface.sol\":1433:1445  _userAddress */\n      dup9\n        /* \"Interface.sol\":1427:1446  users[_userAddress] */\n      mload(0x40)\n      tag_76\n      swap2\n      swap1\n      tag_65\n      jump\t// in\n    tag_76:\n      swap1\n      dup2\n      mstore\n      0x20\n      add\n      mload(0x40)\n      dup1\n      swap2\n      sub\n      swap1\n      keccak256\n        /* \"Interface.sol\":1427:1456  users[_userAddress] = newUser */\n      0x00\n      dup3\n      add\n      mload\n      dup2\n      0x00\n      add\n      swap1\n      dup2\n      tag_77\n      swap2\n      swap1\n      tag_78\n      jump\t// in\n    tag_77:\n      pop\n      0x20\n      dup3\n      add\n      mload\n      dup2\n      0x01\n      add\n      swap1\n      dup2\n      tag_79\n      swap2\n      swap1\n      tag_78\n      jump\t// in\n    tag_79:\n      pop\n      0x40\n      dup3\n      add\n      mload\n      dup2\n      0x02\n      add\n      swap1\n      dup2\n      tag_80\n      swap2\n      swap1\n      tag_78\n      jump\t// in\n    tag_80:\n      pop\n      0x60\n      dup3\n      add\n      mload\n      dup2\n      0x03\n      add\n      swap1\n      dup2\n      tag_81\n      swap2\n      swap1\n      tag_78\n      jump\t// in\n    tag_81:\n      pop\n      0x80\n      dup3\n      add\n      mload\n      dup2\n      0x04\n      add\n      swap1\n      dup2\n      tag_82\n      swap2\n      swap1\n      tag_78\n      jump\t// in\n    tag_82:\n      pop\n      swap1\n      pop\n      pop\n        /* \"Interface.sol\":1467:1518  mapPrivateKeyToPublicKey(_privateKey, _userAddress) */\n      tag_83\n        /* \"Interface.sol\":1492:1503  _privateKey */\n      dup3\n        /* \"Interface.sol\":1505:1517  _userAddress */\n      dup9\n        /* \"Interface.sol\":1467:1491  mapPrivateKeyToPublicKey */\n      tag_29\n        /* \"Interface.sol\":1467:1518  mapPrivateKeyToPublicKey(_privateKey, _userAddress) */\n      jump\t// in\n    tag_83:\n        /* \"Interface.sol\":1008:1526  {... */\n      pop\n        /* \"Interface.sol\":774:1526  function createUser(... */\n      pop\n      pop\n      pop\n      pop\n      pop\n      pop\n      jump\t// out\n        /* \"Interface.sol\":3147:3380  function updateContact(... */\n    tag_23:\n        /* \"Interface.sol\":3298:3309  _newContact */\n      dup1\n        /* \"Interface.sol\":3268:3273  users */\n      0x00\n        /* \"Interface.sol\":3274:3286  _userAddress */\n      dup4\n        /* \"Interface.sol\":3268:3287  users[_userAddress] */\n      mload(0x40)\n      tag_85\n      swap2\n      swap1\n      tag_65\n      jump\t// in\n    tag_85:\n      swap1\n      dup2\n      mstore\n      0x20\n      add\n      mload(0x40)\n      dup1\n      swap2\n      sub\n      swap1\n      keccak256\n        /* \"Interface.sol\":3268:3295  users[_userAddress].contact */\n      0x03\n      add\n        /* \"Interface.sol\":3268:3309  users[_userAddress].contact = _newContact */\n      swap1\n      dup2\n      tag_86\n      swap2\n      swap1\n      tag_78\n      jump\t// in\n    tag_86:\n      pop\n        /* \"Interface.sol\":3340:3352  _userAddress */\n      dup2\n        /* \"Interface.sol\":3325:3372  ContactUpdated(_userAddress, _newContact, true) */\n      mload(0x40)\n      tag_87\n      swap2\n      swap1\n      tag_65\n      jump\t// in\n    tag_87:\n      mload(0x40)\n      dup1\n      swap2\n      sub\n      swap1\n      keccak256\n      0xa44feca31ca2b9cda9b6dec473fbbc131c350db90a2f95915bcd051cdc5e10ba\n        /* \"Interface.sol\":3354:3365  _newContact */\n      dup3\n        /* \"Interface.sol\":3367:3371  true */\n      0x01\n        /* \"Interface.sol\":3325:3372  ContactUpdated(_userAddress, _newContact, true) */\n      mload(0x40)\n      tag_88\n      swap3\n      swap2\n      swap1\n      tag_89\n      jump\t// in\n    tag_88:\n      mload(0x40)\n      dup1\n      swap2\n      sub\n      swap1\n      log2\n        /* \"Interface.sol\":3147:3380  function updateContact(... */\n      pop\n      pop\n      jump\t// out\n        /* \"Interface.sol\":2419:2615  function updateEmail(string memory _userAddress, string memory _newEmail) public {... */\n    tag_26:\n        /* \"Interface.sol\":2539:2548  _newEmail */\n      dup1\n        /* \"Interface.sol\":2511:2516  users */\n      0x00\n        /* \"Interface.sol\":2517:2529  _userAddress */\n      dup4\n        /* \"Interface.sol\":2511:2530  users[_userAddress] */\n      mload(0x40)\n      tag_91\n      swap2\n      swap1\n      tag_65\n      jump\t// in\n    tag_91:\n      swap1\n      dup2\n      mstore\n      0x20\n      add\n      mload(0x40)\n      dup1\n      swap2\n      sub\n      swap1\n      keccak256\n        /* \"Interface.sol\":2511:2536  users[_userAddress].email */\n      0x01\n      add\n        /* \"Interface.sol\":2511:2548  users[_userAddress].email = _newEmail */\n      swap1\n      dup2\n      tag_92\n      swap2\n      swap1\n      tag_78\n      jump\t// in\n    tag_92:\n      pop\n        /* \"Interface.sol\":2577:2589  _userAddress */\n      dup2\n        /* \"Interface.sol\":2564:2607  EmailUpdated(_userAddress, _newEmail, true) */\n      mload(0x40)\n      tag_93\n      swap2\n      swap1\n      tag_65\n      jump\t// in\n    tag_93:\n      mload(0x40)\n      dup1\n      swap2\n      sub\n      swap1\n      keccak256\n      0xa76f1708714ecb5aed9ae4c006eafbf67941b726bb287f861c599f2286fdf778\n        /* \"Interface.sol\":2591:2600  _newEmail */\n      dup3\n        /* \"Interface.sol\":2602:2606  true */\n      0x01\n        /* \"Interface.sol\":2564:2607  EmailUpdated(_userAddress, _newEmail, true) */\n      mload(0x40)\n      tag_94\n      swap3\n      swap2\n      swap1\n      tag_89\n      jump\t// in\n    tag_94:\n      mload(0x40)\n      dup1\n      swap2\n      sub\n      swap1\n      log2\n        /* \"Interface.sol\":2419:2615  function updateEmail(string memory _userAddress, string memory _newEmail) public {... */\n      pop\n      pop\n      jump\t// out\n        /* \"Interface.sol\":1534:1826  function mapPrivateKeyToPublicKey(... */\n    tag_29:\n        /* \"Interface.sol\":1726:1727  0 */\n      0x00\n        /* \"Interface.sol\":1680:1701  privateKeyToPublicKey */\n      0x01\n        /* \"Interface.sol\":1702:1713  _privateKey */\n      dup4\n        /* \"Interface.sol\":1680:1714  privateKeyToPublicKey[_privateKey] */\n      mload(0x40)\n      tag_96\n      swap2\n      swap1\n      tag_65\n      jump\t// in\n    tag_96:\n      swap1\n      dup2\n      mstore\n      0x20\n      add\n      mload(0x40)\n      dup1\n      swap2\n      sub\n      swap1\n      keccak256\n        /* \"Interface.sol\":1674:1722  bytes(privateKeyToPublicKey[_privateKey]).length */\n      dup1\n      sload\n      tag_97\n      swap1\n      tag_67\n      jump\t// in\n    tag_97:\n      swap1\n      pop\n        /* \"Interface.sol\":1674:1727  bytes(privateKeyToPublicKey[_privateKey]).length == 0 */\n      eq\n        /* \"Interface.sol\":1666:1758  require(bytes(privateKeyToPublicKey[_privateKey]).length == 0, \"Private key already mapped\") */\n      tag_98\n      jumpi\n      mload(0x40)\n      0x08c379a000000000000000000000000000000000000000000000000000000000\n      dup2\n      mstore\n      0x04\n      add\n      tag_99\n      swap1\n      tag_100\n      jump\t// in\n    tag_99:\n      mload(0x40)\n      dup1\n      swap2\n      sub\n      swap1\n      revert\n    tag_98:\n        /* \"Interface.sol\":1806:1818  _userAddress */\n      dup1\n        /* \"Interface.sol\":1769:1790  privateKeyToPublicKey */\n      0x01\n        /* \"Interface.sol\":1791:1802  _privateKey */\n      dup4\n        /* \"Interface.sol\":1769:1803  privateKeyToPublicKey[_privateKey] */\n      mload(0x40)\n      tag_101\n      swap2\n      swap1\n      tag_65\n      jump\t// in\n    tag_101:\n      swap1\n      dup2\n      mstore\n      0x20\n      add\n      mload(0x40)\n      dup1\n      swap2\n      sub\n      swap1\n      keccak256\n        /* \"Interface.sol\":1769:1818  privateKeyToPublicKey[_privateKey] = _userAddress */\n      swap1\n      dup2\n      tag_102\n      swap2\n      swap1\n      tag_78\n      jump\t// in\n    tag_102:\n      pop\n        /* \"Interface.sol\":1534:1826  function mapPrivateKeyToPublicKey(... */\n      pop\n      pop\n      jump\t// out\n        /* \"Interface.sol\":288:324  mapping(string => User) public users */\n    tag_33:\n      0x00\n      dup2\n      dup1\n      mload\n      0x20\n      dup2\n      add\n      dup3\n      add\n      dup1\n      mload\n      dup5\n      dup3\n      mstore\n      0x20\n      dup4\n      add\n      0x20\n      dup6\n      add\n      keccak256\n      dup2\n      dup4\n      mstore\n      dup1\n      swap6\n      pop\n      pop\n      pop\n      pop\n      pop\n      pop\n      0x00\n      swap2\n      pop\n      swap1\n      pop\n      dup1\n      0x00\n      add\n      dup1\n      sload\n      tag_103\n      swap1\n      tag_67\n      jump\t// in\n    tag_103:\n      dup1\n      0x1f\n      add\n      0x20\n      dup1\n      swap2\n      div\n      mul\n      0x20\n      add\n      mload(0x40)\n      swap1\n      dup2\n      add\n      0x40\n      mstore\n      dup1\n      swap3\n      swap2\n      swap1\n      dup2\n      dup2\n      mstore\n      0x20\n      add\n      dup3\n      dup1\n      sload\n      tag_104\n      swap1\n      tag_67\n      jump\t// in\n    tag_104:\n      dup1\n      iszero\n      tag_105\n      jumpi\n      dup1\n      0x1f\n      lt\n      tag_106\n      jumpi\n      0x0100\n      dup1\n      dup4\n      sload\n      div\n      mul\n      dup4\n      mstore\n      swap2\n      0x20\n      add\n      swap2\n      jump(tag_105)\n    tag_106:\n      dup3\n      add\n      swap2\n      swap1\n      0x00\n      mstore\n      keccak256(0x00, 0x20)\n      swap1\n    tag_107:\n      dup2\n      sload\n      dup2\n      mstore\n      swap1\n      0x01\n      add\n      swap1\n      0x20\n      add\n      dup1\n      dup4\n      gt\n      tag_107\n      jumpi\n      dup3\n      swap1\n      sub\n      0x1f\n      and\n      dup3\n      add\n      swap2\n    tag_105:\n      pop\n      pop\n      pop\n      pop\n      pop\n      swap1\n      dup1\n      0x01\n      add\n      dup1\n      sload\n      tag_108\n      swap1\n      tag_67\n      jump\t// in\n    tag_108:\n      dup1\n      0x1f\n      add\n      0x20\n      dup1\n      swap2\n      div\n      mul\n      0x20\n      add\n      mload(0x40)\n      swap1\n      dup2\n      add\n      0x40\n      mstore\n      dup1\n      swap3\n      swap2\n      swap1\n      dup2\n      dup2\n      mstore\n      0x20\n      add\n      dup3\n      dup1\n      sload\n      tag_109\n      swap1\n      tag_67\n      jump\t// in\n    tag_109:\n      dup1\n      iszero\n      tag_110\n      jumpi\n      dup1\n      0x1f\n      lt\n      tag_111\n      jumpi\n      0x0100\n      dup1\n      dup4\n      sload\n      div\n      mul\n      dup4\n      mstore\n      swap2\n      0x20\n      add\n      swap2\n      jump(tag_110)\n    tag_111:\n      dup3\n      add\n      swap2\n      swap1\n      0x00\n      mstore\n      keccak256(0x00, 0x20)\n      swap1\n    tag_112:\n      dup2\n      sload\n      dup2\n      mstore\n      swap1\n      0x01\n      add\n      swap1\n      0x20\n      add\n      dup1\n      dup4\n      gt\n      tag_112\n      jumpi\n      dup3\n      swap1\n      sub\n      0x1f\n      and\n      dup3\n      add\n      swap2\n    tag_110:\n      pop\n      pop\n      pop\n      pop\n      pop\n      swap1\n      dup1\n      0x02\n      add\n      dup1\n      sload\n      tag_113\n      swap1\n      tag_67\n      jump\t// in\n    tag_113:\n      dup1\n      0x1f\n      add\n      0x20\n      dup1\n      swap2\n      div\n      mul\n      0x20\n      add\n      mload(0x40)\n      swap1\n      dup2\n      add\n      0x40\n      mstore\n      dup1\n      swap3\n      swap2\n      swap1\n      dup2\n      dup2\n      mstore\n      0x20\n      add\n      dup3\n      dup1\n      sload\n      tag_114\n      swap1\n      tag_67\n      jump\t// in\n    tag_114:\n      dup1\n      iszero\n      tag_115\n      jumpi\n      dup1\n      0x1f\n      lt\n      tag_116\n      jumpi\n      0x0100\n      dup1\n      dup4\n      sload\n      div\n      mul\n      dup4\n      mstore\n      swap2\n      0x20\n      add\n      swap2\n      jump(tag_115)\n    tag_116:\n      dup3\n      add\n      swap2\n      swap1\n      0x00\n      mstore\n      keccak256(0x00, 0x20)\n      swap1\n    tag_117:\n      dup2\n      sload\n      dup2\n      mstore\n      swap1\n      0x01\n      add\n      swap1\n      0x20\n      add\n      dup1\n      dup4\n      gt\n      tag_117\n      jumpi\n      dup3\n      swap1\n      sub\n      0x1f\n      and\n      dup3\n      add\n      swap2\n    tag_115:\n      pop\n      pop\n      pop\n      pop\n      pop\n      swap1\n      dup1\n      0x03\n      add\n      dup1\n      sload\n      tag_118\n      swap1\n      tag_67\n      jump\t// in\n    tag_118:\n      dup1\n      0x1f\n      add\n      0x20\n      dup1\n      swap2\n      div\n      mul\n      0x20\n      add\n      mload(0x40)\n      swap1\n      dup2\n      add\n      0x40\n      mstore\n      dup1\n      swap3\n      swap2\n      swap1\n      dup2\n      dup2\n      mstore\n      0x20\n      add\n      dup3\n      dup1\n      sload\n      tag_119\n      swap1\n      tag_67\n      jump\t// in\n    tag_119:\n      dup1\n      iszero\n      tag_120\n      jumpi\n      dup1\n      0x1f\n      lt\n      tag_121\n      jumpi\n      0x0100\n      dup1\n      dup4\n      sload\n      div\n      mul\n      dup4\n      mstore\n      swap2\n      0x20\n      add\n      swap2\n      jump(tag_120)\n    tag_121:\n      dup3\n      add\n      swap2\n      swap1\n      0x00\n      mstore\n      keccak256(0x00, 0x20)\n      swap1\n    tag_122:\n      dup2\n      sload\n      dup2\n      mstore\n      swap1\n      0x01\n      add\n      swap1\n      0x20\n      add\n      dup1\n      dup4\n      gt\n      tag_122\n      jumpi\n      dup3\n      swap1\n      sub\n      0x1f\n      and\n      dup3\n      add\n      swap2\n    tag_120:\n      pop\n      pop\n      pop\n      pop\n      pop\n      swap1\n      dup1\n      0x04\n      add\n      dup1\n      sload\n      tag_123\n      swap1\n      tag_67\n      jump\t// in\n    tag_123:\n      dup1\n      0x1f\n      add\n      0x20\n      dup1\n      swap2\n      div\n      mul\n      0x20\n      add\n      mload(0x40)\n      swap1\n      dup2\n      add\n      0x40\n      mstore\n      dup1\n      swap3\n      swap2\n      swap1\n      dup2\n      dup2\n      mstore\n      0x20\n      add\n      dup3\n      dup1\n      sload\n      tag_124\n      swap1\n      tag_67\n      jump\t// in\n    tag_124:\n      dup1\n      iszero\n      tag_125\n      jumpi\n      dup1\n      0x1f\n      lt\n      tag_126\n      jumpi\n      0x0100\n      dup1\n      dup4\n      sload\n      div\n      mul\n      dup4\n      mstore\n      swap2\n      0x20\n      add\n      swap2\n      jump(tag_125)\n    tag_126:\n      dup3\n      add\n      swap2\n      swap1\n      0x00\n      mstore\n      keccak256(0x00, 0x20)\n      swap1\n    tag_127:\n      dup2\n      sload\n      dup2\n      mstore\n      swap1\n      0x01\n      add\n      swap1\n      0x20\n      add\n      dup1\n      dup4\n      gt\n      tag_127\n      jumpi\n      dup3\n      swap1\n      sub\n      0x1f\n      and\n      dup3\n      add\n      swap2\n    tag_125:\n      pop\n      pop\n      pop\n      pop\n      pop\n      swap1\n      pop\n      dup6\n      jump\t// out\n        /* \"Interface.sol\":2006:2245  function updateUsername(... */\n    tag_38:\n        /* \"Interface.sol\":2160:2172  _newUsername */\n      dup1\n        /* \"Interface.sol\":2129:2134  users */\n      0x00\n        /* \"Interface.sol\":2135:2147  _userAddress */\n      dup4\n        /* \"Interface.sol\":2129:2148  users[_userAddress] */\n      mload(0x40)\n      tag_129\n      swap2\n      swap1\n      tag_65\n      jump\t// in\n    tag_129:\n      swap1\n      dup2\n      mstore\n      0x20\n      add\n      mload(0x40)\n      dup1\n      swap2\n      sub\n      swap1\n      keccak256\n        /* \"Interface.sol\":2129:2157  users[_userAddress].username */\n      0x02\n      add\n        /* \"Interface.sol\":2129:2172  users[_userAddress].username = _newUsername */\n      swap1\n      dup2\n      tag_130\n      swap2\n      swap1\n      tag_78\n      jump\t// in\n    tag_130:\n      pop\n        /* \"Interface.sol\":2204:2216  _userAddress */\n      dup2\n        /* \"Interface.sol\":2188:2237  UsernameUpdated(_userAddress, _newUsername, true) */\n      mload(0x40)\n      tag_131\n      swap2\n      swap1\n      tag_65\n      jump\t// in\n    tag_131:\n      mload(0x40)\n      dup1\n      swap2\n      sub\n      swap1\n      keccak256\n      0x480bdec02bf73c6c075a8db62d725863401ec6d719a3ff0c25b87ac13569c5f2\n        /* \"Interface.sol\":2218:2230  _newUsername */\n      dup3\n        /* \"Interface.sol\":2232:2236  true */\n      0x01\n        /* \"Interface.sol\":2188:2237  UsernameUpdated(_userAddress, _newUsername, true) */\n      mload(0x40)\n      tag_132\n      swap3\n      swap2\n      swap1\n      tag_89\n      jump\t// in\n    tag_132:\n      mload(0x40)\n      dup1\n      swap2\n      sub\n      swap1\n      log2\n        /* \"Interface.sol\":2006:2245  function updateUsername(... */\n      pop\n      pop\n      jump\t// out\n        /* \"Interface.sol\":2253:2411  function getEmailByAddress(... */\n    tag_41:\n        /* \"Interface.sol\":2345:2358  string memory */\n      0x60\n        /* \"Interface.sol\":2378:2383  users */\n      0x00\n        /* \"Interface.sol\":2384:2396  _userAddress */\n      dup3\n        /* \"Interface.sol\":2378:2397  users[_userAddress] */\n      mload(0x40)\n      tag_134\n      swap2\n      swap1\n      tag_65\n      jump\t// in\n    tag_134:\n      swap1\n      dup2\n      mstore\n      0x20\n      add\n      mload(0x40)\n      dup1\n      swap2\n      sub\n      swap1\n      keccak256\n        /* \"Interface.sol\":2378:2403  users[_userAddress].email */\n      0x01\n      add\n        /* \"Interface.sol\":2371:2403  return users[_userAddress].email */\n      dup1\n      sload\n      tag_135\n      swap1\n      tag_67\n      jump\t// in\n    tag_135:\n      dup1\n      0x1f\n      add\n      0x20\n      dup1\n      swap2\n      div\n      mul\n      0x20\n      add\n      mload(0x40)\n      swap1\n      dup2\n      add\n      0x40\n      mstore\n      dup1\n      swap3\n      swap2\n      swap1\n      dup2\n      dup2\n      mstore\n      0x20\n      add\n      dup3\n      dup1\n      sload\n      tag_136\n      swap1\n      tag_67\n      jump\t// in\n    tag_136:\n      dup1\n      iszero\n      tag_137\n      jumpi\n      dup1\n      0x1f\n      lt\n      tag_138\n      jumpi\n      0x0100\n      dup1\n      dup4\n      sload\n      div\n      mul\n      dup4\n      mstore\n      swap2\n      0x20\n      add\n      swap2\n      jump(tag_137)\n    tag_138:\n      dup3\n      add\n      swap2\n      swap1\n      0x00\n      mstore\n      keccak256(0x00, 0x20)\n      swap1\n    tag_139:\n      dup2\n      sload\n      dup2\n      mstore\n      swap1\n      0x01\n      add\n      swap1\n      0x20\n      add\n      dup1\n      dup4\n      gt\n      tag_139\n      jumpi\n      dup3\n      swap1\n      sub\n      0x1f\n      and\n      dup3\n      add\n      swap2\n    tag_137:\n      pop\n      pop\n      pop\n      pop\n      pop\n      swap1\n      pop\n        /* \"Interface.sol\":2253:2411  function getEmailByAddress(... */\n      swap2\n      swap1\n      pop\n      jump\t// out\n        /* \"Interface.sol\":2623:2777  function getDOBByAddress(... */\n    tag_46:\n        /* \"Interface.sol\":2713:2726  string memory */\n      0x60\n        /* \"Interface.sol\":2746:2751  users */\n      0x00\n        /* \"Interface.sol\":2752:2764  _userAddress */\n      dup3\n        /* \"Interface.sol\":2746:2765  users[_userAddress] */\n      mload(0x40)\n      tag_141\n      swap2\n      swap1\n      tag_65\n      jump\t// in\n    tag_141:\n      swap1\n      dup2\n      mstore\n      0x20\n      add\n      mload(0x40)\n      dup1\n      swap2\n      sub\n      swap1\n      keccak256\n        /* \"Interface.sol\":2746:2769  users[_userAddress].dob */\n      0x04\n      add\n        /* \"Interface.sol\":2739:2769  return users[_userAddress].dob */\n      dup1\n      sload\n      tag_142\n      swap1\n      tag_67\n      jump\t// in\n    tag_142:\n      dup1\n      0x1f\n      add\n      0x20\n      dup1\n      swap2\n      div\n      mul\n      0x20\n      add\n      mload(0x40)\n      swap1\n      dup2\n      add\n      0x40\n      mstore\n      dup1\n      swap3\n      swap2\n      swap1\n      dup2\n      dup2\n      mstore\n      0x20\n      add\n      dup3\n      dup1\n      sload\n      tag_143\n      swap1\n      tag_67\n      jump\t// in\n    tag_143:\n      dup1\n      iszero\n      tag_144\n      jumpi\n      dup1\n      0x1f\n      lt\n      tag_145\n      jumpi\n      0x0100\n      dup1\n      dup4\n      sload\n      div\n      mul\n      dup4\n      mstore\n      swap2\n      0x20\n      add\n      swap2\n      jump(tag_144)\n    tag_145:\n      dup3\n      add\n      swap2\n      swap1\n      0x00\n      mstore\n      keccak256(0x00, 0x20)\n      swap1\n    tag_146:\n      dup2\n      sload\n      dup2\n      mstore\n      swap1\n      0x01\n      add\n      swap1\n      0x20\n      add\n      dup1\n      dup4\n      gt\n      tag_146\n      jumpi\n      dup3\n      swap1\n      sub\n      0x1f\n      and\n      dup3\n      add\n      swap2\n    tag_144:\n      pop\n      pop\n      pop\n      pop\n      pop\n      swap1\n      pop\n        /* \"Interface.sol\":2623:2777  function getDOBByAddress(... */\n      swap2\n      swap1\n      pop\n      jump\t// out\n        /* \"Interface.sol\":367:421  mapping(string => string) public privateKeyToPublicKey */\n    tag_50:\n      0x01\n      dup2\n      dup1\n      mload\n      0x20\n      dup2\n      add\n      dup3\n      add\n      dup1\n      mload\n      dup5\n      dup3\n      mstore\n      0x20\n      dup4\n      add\n      0x20\n      dup6\n      add\n      keccak256\n      dup2\n      dup4\n      mstore\n      dup1\n      swap6\n      pop\n      pop\n      pop\n      pop\n      pop\n      pop\n      0x00\n      swap2\n      pop\n      swap1\n      pop\n      dup1\n      sload\n      tag_147\n      swap1\n      tag_67\n      jump\t// in\n    tag_147:\n      dup1\n      0x1f\n      add\n      0x20\n      dup1\n      swap2\n      div\n      mul\n      0x20\n      add\n      mload(0x40)\n      swap1\n      dup2\n      add\n      0x40\n      mstore\n      dup1\n      swap3\n      swap2\n      swap1\n      dup2\n      dup2\n      mstore\n      0x20\n      add\n      dup3\n      dup1\n      sload\n      tag_148\n      swap1\n      tag_67\n      jump\t// in\n    tag_148:\n      dup1\n      iszero\n      tag_149\n      jumpi\n      dup1\n      0x1f\n      lt\n      tag_150\n      jumpi\n      0x0100\n      dup1\n      dup4\n      sload\n      div\n      mul\n      dup4\n      mstore\n      swap2\n      0x20\n      add\n      swap2\n      jump(tag_149)\n    tag_150:\n      dup3\n      add\n      swap2\n      swap1\n      0x00\n      mstore\n      keccak256(0x00, 0x20)\n      swap1\n    tag_151:\n      dup2\n      sload\n      dup2\n      mstore\n      swap1\n      0x01\n      add\n      swap1\n      0x20\n      add\n      dup1\n      dup4\n      gt\n      tag_151\n      jumpi\n      dup3\n      swap1\n      sub\n      0x1f\n      and\n      dup3\n      add\n      swap2\n    tag_149:\n      pop\n      pop\n      pop\n      pop\n      pop\n      dup2\n      jump\t// out\n        /* \"Interface.sol\":2977:3139  function getContactByAddress(... */\n    tag_54:\n        /* \"Interface.sol\":3071:3084  string memory */\n      0x60\n        /* \"Interface.sol\":3104:3109  users */\n      0x00\n        /* \"Interface.sol\":3110:3122  _userAddress */\n      dup3\n        /* \"Interface.sol\":3104:3123  users[_userAddress] */\n      mload(0x40)\n      tag_153\n      swap2\n      swap1\n      tag_65\n      jump\t// in\n    tag_153:\n      swap1\n      dup2\n      mstore\n      0x20\n      add\n      mload(0x40)\n      dup1\n      swap2\n      sub\n      swap1\n      keccak256\n        /* \"Interface.sol\":3104:3131  users[_userAddress].contact */\n      0x03\n      add\n        /* \"Interface.sol\":3097:3131  return users[_userAddress].contact */\n      dup1\n      sload\n      tag_154\n      swap1\n      tag_67\n      jump\t// in\n    tag_154:\n      dup1\n      0x1f\n      add\n      0x20\n      dup1\n      swap2\n      div\n      mul\n      0x20\n      add\n      mload(0x40)\n      swap1\n      dup2\n      add\n      0x40\n      mstore\n      dup1\n      swap3\n      swap2\n      swap1\n      dup2\n      dup2\n      mstore\n      0x20\n      add\n      dup3\n      dup1\n      sload\n      tag_155\n      swap1\n      tag_67\n      jump\t// in\n    tag_155:\n      dup1\n      iszero\n      tag_156\n      jumpi\n      dup1\n      0x1f\n      lt\n      tag_157\n      jumpi\n      0x0100\n      dup1\n      dup4\n      sload\n      div\n      mul\n      dup4\n      mstore\n      swap2\n      0x20\n      add\n      swap2\n      jump(tag_156)\n    tag_157:\n      dup3\n      add\n      swap2\n      swap1\n      0x00\n      mstore\n      keccak256(0x00, 0x20)\n      swap1\n    tag_158:\n      dup2\n      sload\n      dup2\n      mstore\n      swap1\n      0x01\n      add\n      swap1\n      0x20\n      add\n      dup1\n      dup4\n      gt\n      tag_158\n      jumpi\n      dup3\n      swap1\n      sub\n      0x1f\n      and\n      dup3\n      add\n      swap2\n    tag_156:\n      pop\n      pop\n      pop\n      pop\n      pop\n      swap1\n      pop\n        /* \"Interface.sol\":2977:3139  function getContactByAddress(... */\n      swap2\n      swap1\n      pop\n      jump\t// out\n        /* \"Interface.sol\":2785:2969  function updateDOB(string memory _userAddress, string memory _newDOB) public {... */\n    tag_58:\n        /* \"Interface.sol\":2899:2906  _newDOB */\n      dup1\n        /* \"Interface.sol\":2873:2878  users */\n      0x00\n        /* \"Interface.sol\":2879:2891  _userAddress */\n      dup4\n        /* \"Interface.sol\":2873:2892  users[_userAddress] */\n      mload(0x40)\n      tag_160\n      swap2\n      swap1\n      tag_65\n      jump\t// in\n    tag_160:\n      swap1\n      dup2\n      mstore\n      0x20\n      add\n      mload(0x40)\n      dup1\n      swap2\n      sub\n      swap1\n      keccak256\n        /* \"Interface.sol\":2873:2896  users[_userAddress].dob */\n      0x04\n      add\n        /* \"Interface.sol\":2873:2906  users[_userAddress].dob = _newDOB */\n      swap1\n      dup2\n      tag_161\n      swap2\n      swap1\n      tag_78\n      jump\t// in\n    tag_161:\n      pop\n        /* \"Interface.sol\":2933:2945  _userAddress */\n      dup2\n        /* \"Interface.sol\":2922:2961  DOBUpdated(_userAddress, _newDOB, true) */\n      mload(0x40)\n      tag_162\n      swap2\n      swap1\n      tag_65\n      jump\t// in\n    tag_162:\n      mload(0x40)\n      dup1\n      swap2\n      sub\n      swap1\n      keccak256\n      0xae584fab5e8f7cfd659e7b4c2d09184ef8d88c791a136a070039ae4c135b8ec7\n        /* \"Interface.sol\":2947:2954  _newDOB */\n      dup3\n        /* \"Interface.sol\":2956:2960  true */\n      0x01\n        /* \"Interface.sol\":2922:2961  DOBUpdated(_userAddress, _newDOB, true) */\n      mload(0x40)\n      tag_163\n      swap3\n      swap2\n      swap1\n      tag_89\n      jump\t// in\n    tag_163:\n      mload(0x40)\n      dup1\n      swap2\n      sub\n      swap1\n      log2\n        /* \"Interface.sol\":2785:2969  function updateDOB(string memory _userAddress, string memory _newDOB) public {... */\n      pop\n      pop\n      jump\t// out\n        /* \"Interface.sol\":1834:1998  function getUsernameByAddress(... */\n    tag_61:\n        /* \"Interface.sol\":1929:1942  string memory */\n      0x60\n        /* \"Interface.sol\":1962:1967  users */\n      0x00\n        /* \"Interface.sol\":1968:1980  _userAddress */\n      dup3\n        /* \"Interface.sol\":1962:1981  users[_userAddress] */\n      mload(0x40)\n      tag_165\n      swap2\n      swap1\n      tag_65\n      jump\t// in\n    tag_165:\n      swap1\n      dup2\n      mstore\n      0x20\n      add\n      mload(0x40)\n      dup1\n      swap2\n      sub\n      swap1\n      keccak256\n        /* \"Interface.sol\":1962:1990  users[_userAddress].username */\n      0x02\n      add\n        /* \"Interface.sol\":1955:1990  return users[_userAddress].username */\n      dup1\n      sload\n      tag_166\n      swap1\n      tag_67\n      jump\t// in\n    tag_166:\n      dup1\n      0x1f\n      add\n      0x20\n      dup1\n      swap2\n      div\n      mul\n      0x20\n      add\n      mload(0x40)\n      swap1\n      dup2\n      add\n      0x40\n      mstore\n      dup1\n      swap3\n      swap2\n      swap1\n      dup2\n      dup2\n      mstore\n      0x20\n      add\n      dup3\n      dup1\n      sload\n      tag_167\n      swap1\n      tag_67\n      jump\t// in\n    tag_167:\n      dup1\n      iszero\n      tag_168\n      jumpi\n      dup1\n      0x1f\n      lt\n      tag_169\n      jumpi\n      0x0100\n      dup1\n      dup4\n      sload\n      div\n      mul\n      dup4\n      mstore\n      swap2\n      0x20\n      add\n      swap2\n      jump(tag_168)\n    tag_169:\n      dup3\n      add\n      swap2\n      swap1\n      0x00\n      mstore\n      keccak256(0x00, 0x20)\n      swap1\n    tag_170:\n      dup2\n      sload\n      dup2\n      mstore\n      swap1\n      0x01\n      add\n      swap1\n      0x20\n      add\n      dup1\n      dup4\n      gt\n      tag_170\n      jumpi\n      dup3\n      swap1\n      sub\n      0x1f\n      and\n      dup3\n      add\n      swap2\n    tag_168:\n      pop\n      pop\n      pop\n      pop\n      pop\n      swap1\n      pop\n        /* \"Interface.sol\":1834:1998  function getUsernameByAddress(... */\n      swap2\n      swap1\n      pop\n      jump\t// out\n        /* \"#utility.yul\":7:82   */\n    tag_171:\n        /* \"#utility.yul\":40:46   */\n      0x00\n        /* \"#utility.yul\":73:75   */\n      0x40\n        /* \"#utility.yul\":67:76   */\n      mload\n        /* \"#utility.yul\":57:76   */\n      swap1\n      pop\n        /* \"#utility.yul\":7:82   */\n      swap1\n      jump\t// out\n        /* \"#utility.yul\":88:205   */\n    tag_172:\n        /* \"#utility.yul\":197:198   */\n      0x00\n        /* \"#utility.yul\":194:195   */\n      dup1\n        /* \"#utility.yul\":187:199   */\n      revert\n        /* \"#utility.yul\":211:328   */\n    tag_173:\n        /* \"#utility.yul\":320:321   */\n      0x00\n        /* \"#utility.yul\":317:318   */\n      dup1\n        /* \"#utility.yul\":310:322   */\n      revert\n        /* \"#utility.yul\":334:451   */\n    tag_174:\n        /* \"#utility.yul\":443:444   */\n      0x00\n        /* \"#utility.yul\":440:441   */\n      dup1\n        /* \"#utility.yul\":433:445   */\n      revert\n        /* \"#utility.yul\":457:574   */\n    tag_175:\n        /* \"#utility.yul\":566:567   */\n      0x00\n        /* \"#utility.yul\":563:564   */\n      dup1\n        /* \"#utility.yul\":556:568   */\n      revert\n        /* \"#utility.yul\":580:682   */\n    tag_176:\n        /* \"#utility.yul\":621:627   */\n      0x00\n        /* \"#utility.yul\":672:674   */\n      0x1f\n        /* \"#utility.yul\":668:675   */\n      not\n        /* \"#utility.yul\":663:665   */\n      0x1f\n        /* \"#utility.yul\":656:661   */\n      dup4\n        /* \"#utility.yul\":652:666   */\n      add\n        /* \"#utility.yul\":648:676   */\n      and\n        /* \"#utility.yul\":638:676   */\n      swap1\n      pop\n        /* \"#utility.yul\":580:682   */\n      swap2\n      swap1\n      pop\n      jump\t// out\n        /* \"#utility.yul\":688:868   */\n    tag_177:\n        /* \"#utility.yul\":736:813   */\n      0x4e487b7100000000000000000000000000000000000000000000000000000000\n        /* \"#utility.yul\":733:734   */\n      0x00\n        /* \"#utility.yul\":726:814   */\n      mstore\n        /* \"#utility.yul\":833:837   */\n      0x41\n        /* \"#utility.yul\":830:831   */\n      0x04\n        /* \"#utility.yul\":823:838   */\n      mstore\n        /* \"#utility.yul\":857:861   */\n      0x24\n        /* \"#utility.yul\":854:855   */\n      0x00\n        /* \"#utility.yul\":847:862   */\n      revert\n        /* \"#utility.yul\":874:1155   */\n    tag_178:\n        /* \"#utility.yul\":957:984   */\n      tag_224\n        /* \"#utility.yul\":979:983   */\n      dup3\n        /* \"#utility.yul\":957:984   */\n      tag_176\n      jump\t// in\n    tag_224:\n        /* \"#utility.yul\":949:955   */\n      dup2\n        /* \"#utility.yul\":945:985   */\n      add\n        /* \"#utility.yul\":1087:1093   */\n      dup2\n        /* \"#utility.yul\":1075:1085   */\n      dup2\n        /* \"#utility.yul\":1072:1094   */\n      lt\n        /* \"#utility.yul\":1051:1069   */\n      0xffffffffffffffff\n        /* \"#utility.yul\":1039:1049   */\n      dup3\n        /* \"#utility.yul\":1036:1070   */\n      gt\n        /* \"#utility.yul\":1033:1095   */\n      or\n        /* \"#utility.yul\":1030:1118   */\n      iszero\n      tag_225\n      jumpi\n        /* \"#utility.yul\":1098:1116   */\n      tag_226\n      tag_177\n      jump\t// in\n    tag_226:\n        /* \"#utility.yul\":1030:1118   */\n    tag_225:\n        /* \"#utility.yul\":1138:1148   */\n      dup1\n        /* \"#utility.yul\":1134:1136   */\n      0x40\n        /* \"#utility.yul\":1127:1149   */\n      mstore\n        /* \"#utility.yul\":917:1155   */\n      pop\n        /* \"#utility.yul\":874:1155   */\n      pop\n      pop\n      jump\t// out\n        /* \"#utility.yul\":1161:1290   */\n    tag_179:\n        /* \"#utility.yul\":1195:1201   */\n      0x00\n        /* \"#utility.yul\":1222:1242   */\n      tag_228\n      tag_171\n      jump\t// in\n    tag_228:\n        /* \"#utility.yul\":1212:1242   */\n      swap1\n      pop\n        /* \"#utility.yul\":1251:1284   */\n      tag_229\n        /* \"#utility.yul\":1279:1283   */\n      dup3\n        /* \"#utility.yul\":1271:1277   */\n      dup3\n        /* \"#utility.yul\":1251:1284   */\n      tag_178\n      jump\t// in\n    tag_229:\n        /* \"#utility.yul\":1161:1290   */\n      swap2\n      swap1\n      pop\n      jump\t// out\n        /* \"#utility.yul\":1296:1604   */\n    tag_180:\n        /* \"#utility.yul\":1358:1362   */\n      0x00\n        /* \"#utility.yul\":1448:1466   */\n      0xffffffffffffffff\n        /* \"#utility.yul\":1440:1446   */\n      dup3\n        /* \"#utility.yul\":1437:1467   */\n      gt\n        /* \"#utility.yul\":1434:1490   */\n      iszero\n      tag_231\n      jumpi\n        /* \"#utility.yul\":1470:1488   */\n      tag_232\n      tag_177\n      jump\t// in\n    tag_232:\n        /* \"#utility.yul\":1434:1490   */\n    tag_231:\n        /* \"#utility.yul\":1508:1537   */\n      tag_233\n        /* \"#utility.yul\":1530:1536   */\n      dup3\n        /* \"#utility.yul\":1508:1537   */\n      tag_176\n      jump\t// in\n    tag_233:\n        /* \"#utility.yul\":1500:1537   */\n      swap1\n      pop\n        /* \"#utility.yul\":1592:1596   */\n      0x20\n        /* \"#utility.yul\":1586:1590   */\n      dup2\n        /* \"#utility.yul\":1582:1597   */\n      add\n        /* \"#utility.yul\":1574:1597   */\n      swap1\n      pop\n        /* \"#utility.yul\":1296:1604   */\n      swap2\n      swap1\n      pop\n      jump\t// out\n        /* \"#utility.yul\":1610:1756   */\n    tag_181:\n        /* \"#utility.yul\":1707:1713   */\n      dup3\n        /* \"#utility.yul\":1702:1705   */\n      dup2\n        /* \"#utility.yul\":1697:1700   */\n      dup4\n        /* \"#utility.yul\":1684:1714   */\n      calldatacopy\n        /* \"#utility.yul\":1748:1749   */\n      0x00\n        /* \"#utility.yul\":1739:1745   */\n      dup4\n        /* \"#utility.yul\":1734:1737   */\n      dup4\n        /* \"#utility.yul\":1730:1746   */\n      add\n        /* \"#utility.yul\":1723:1750   */\n      mstore\n        /* \"#utility.yul\":1610:1756   */\n      pop\n      pop\n      pop\n      jump\t// out\n        /* \"#utility.yul\":1762:2187   */\n    tag_182:\n        /* \"#utility.yul\":1840:1845   */\n      0x00\n        /* \"#utility.yul\":1865:1931   */\n      tag_236\n        /* \"#utility.yul\":1881:1930   */\n      tag_237\n        /* \"#utility.yul\":1923:1929   */\n      dup5\n        /* \"#utility.yul\":1881:1930   */\n      tag_180\n      jump\t// in\n    tag_237:\n        /* \"#utility.yul\":1865:1931   */\n      tag_179\n      jump\t// in\n    tag_236:\n        /* \"#utility.yul\":1856:1931   */\n      swap1\n      pop\n        /* \"#utility.yul\":1954:1960   */\n      dup3\n        /* \"#utility.yul\":1947:1952   */\n      dup2\n        /* \"#utility.yul\":1940:1961   */\n      mstore\n        /* \"#utility.yul\":1992:1996   */\n      0x20\n        /* \"#utility.yul\":1985:1990   */\n      dup2\n        /* \"#utility.yul\":1981:1997   */\n      add\n        /* \"#utility.yul\":2030:2033   */\n      dup5\n        /* \"#utility.yul\":2021:2027   */\n      dup5\n        /* \"#utility.yul\":2016:2019   */\n      dup5\n        /* \"#utility.yul\":2012:2028   */\n      add\n        /* \"#utility.yul\":2009:2034   */\n      gt\n        /* \"#utility.yul\":2006:2118   */\n      iszero\n      tag_238\n      jumpi\n        /* \"#utility.yul\":2037:2116   */\n      tag_239\n      tag_175\n      jump\t// in\n    tag_239:\n        /* \"#utility.yul\":2006:2118   */\n    tag_238:\n        /* \"#utility.yul\":2127:2181   */\n      tag_240\n        /* \"#utility.yul\":2174:2180   */\n      dup5\n        /* \"#utility.yul\":2169:2172   */\n      dup3\n        /* \"#utility.yul\":2164:2167   */\n      dup6\n        /* \"#utility.yul\":2127:2181   */\n      tag_181\n      jump\t// in\n    tag_240:\n        /* \"#utility.yul\":1846:2187   */\n      pop\n        /* \"#utility.yul\":1762:2187   */\n      swap4\n      swap3\n      pop\n      pop\n      pop\n      jump\t// out\n        /* \"#utility.yul\":2207:2547   */\n    tag_183:\n        /* \"#utility.yul\":2263:2268   */\n      0x00\n        /* \"#utility.yul\":2312:2315   */\n      dup3\n        /* \"#utility.yul\":2305:2309   */\n      0x1f\n        /* \"#utility.yul\":2297:2303   */\n      dup4\n        /* \"#utility.yul\":2293:2310   */\n      add\n        /* \"#utility.yul\":2289:2316   */\n      slt\n        /* \"#utility.yul\":2279:2401   */\n      tag_242\n      jumpi\n        /* \"#utility.yul\":2320:2399   */\n      tag_243\n      tag_174\n      jump\t// in\n    tag_243:\n        /* \"#utility.yul\":2279:2401   */\n    tag_242:\n        /* \"#utility.yul\":2437:2443   */\n      dup2\n        /* \"#utility.yul\":2424:2444   */\n      calldataload\n        /* \"#utility.yul\":2462:2541   */\n      tag_244\n        /* \"#utility.yul\":2537:2540   */\n      dup5\n        /* \"#utility.yul\":2529:2535   */\n      dup3\n        /* \"#utility.yul\":2522:2526   */\n      0x20\n        /* \"#utility.yul\":2514:2520   */\n      dup7\n        /* \"#utility.yul\":2510:2527   */\n      add\n        /* \"#utility.yul\":2462:2541   */\n      tag_182\n      jump\t// in\n    tag_244:\n        /* \"#utility.yul\":2453:2541   */\n      swap2\n      pop\n        /* \"#utility.yul\":2269:2547   */\n      pop\n        /* \"#utility.yul\":2207:2547   */\n      swap3\n      swap2\n      pop\n      pop\n      jump\t// out\n        /* \"#utility.yul\":2553:4690   */\n    tag_18:\n        /* \"#utility.yul\":2717:2723   */\n      0x00\n        /* \"#utility.yul\":2725:2731   */\n      dup1\n        /* \"#utility.yul\":2733:2739   */\n      0x00\n        /* \"#utility.yul\":2741:2747   */\n      dup1\n        /* \"#utility.yul\":2749:2755   */\n      0x00\n        /* \"#utility.yul\":2757:2763   */\n      dup1\n        /* \"#utility.yul\":2806:2809   */\n      0xc0\n        /* \"#utility.yul\":2794:2803   */\n      dup8\n        /* \"#utility.yul\":2785:2792   */\n      dup10\n        /* \"#utility.yul\":2781:2804   */\n      sub\n        /* \"#utility.yul\":2777:2810   */\n      slt\n        /* \"#utility.yul\":2774:2894   */\n      iszero\n      tag_246\n      jumpi\n        /* \"#utility.yul\":2813:2892   */\n      tag_247\n      tag_172\n      jump\t// in\n    tag_247:\n        /* \"#utility.yul\":2774:2894   */\n    tag_246:\n        /* \"#utility.yul\":2961:2962   */\n      0x00\n        /* \"#utility.yul\":2950:2959   */\n      dup8\n        /* \"#utility.yul\":2946:2963   */\n      add\n        /* \"#utility.yul\":2933:2964   */\n      calldataload\n        /* \"#utility.yul\":2991:3009   */\n      0xffffffffffffffff\n        /* \"#utility.yul\":2983:2989   */\n      dup2\n        /* \"#utility.yul\":2980:3010   */\n      gt\n        /* \"#utility.yul\":2977:3094   */\n      iszero\n      tag_248\n      jumpi\n        /* \"#utility.yul\":3013:3092   */\n      tag_249\n      tag_173\n      jump\t// in\n    tag_249:\n        /* \"#utility.yul\":2977:3094   */\n    tag_248:\n        /* \"#utility.yul\":3118:3181   */\n      tag_250\n        /* \"#utility.yul\":3173:3180   */\n      dup10\n        /* \"#utility.yul\":3164:3170   */\n      dup3\n        /* \"#utility.yul\":3153:3162   */\n      dup11\n        /* \"#utility.yul\":3149:3171   */\n      add\n        /* \"#utility.yul\":3118:3181   */\n      tag_183\n      jump\t// in\n    tag_250:\n        /* \"#utility.yul\":3108:3181   */\n      swap7\n      pop\n        /* \"#utility.yul\":2904:3191   */\n      pop\n        /* \"#utility.yul\":3258:3260   */\n      0x20\n        /* \"#utility.yul\":3247:3256   */\n      dup8\n        /* \"#utility.yul\":3243:3261   */\n      add\n        /* \"#utility.yul\":3230:3262   */\n      calldataload\n        /* \"#utility.yul\":3289:3307   */\n      0xffffffffffffffff\n        /* \"#utility.yul\":3281:3287   */\n      dup2\n        /* \"#utility.yul\":3278:3308   */\n      gt\n        /* \"#utility.yul\":3275:3392   */\n      iszero\n      tag_251\n      jumpi\n        /* \"#utility.yul\":3311:3390   */\n      tag_252\n      tag_173\n      jump\t// in\n    tag_252:\n        /* \"#utility.yul\":3275:3392   */\n    tag_251:\n        /* \"#utility.yul\":3416:3479   */\n      tag_253\n        /* \"#utility.yul\":3471:3478   */\n      dup10\n        /* \"#utility.yul\":3462:3468   */\n      dup3\n        /* \"#utility.yul\":3451:3460   */\n      dup11\n        /* \"#utility.yul\":3447:3469   */\n      add\n        /* \"#utility.yul\":3416:3479   */\n      tag_183\n      jump\t// in\n    tag_253:\n        /* \"#utility.yul\":3406:3479   */\n      swap6\n      pop\n        /* \"#utility.yul\":3201:3489   */\n      pop\n        /* \"#utility.yul\":3556:3558   */\n      0x40\n        /* \"#utility.yul\":3545:3554   */\n      dup8\n        /* \"#utility.yul\":3541:3559   */\n      add\n        /* \"#utility.yul\":3528:3560   */\n      calldataload\n        /* \"#utility.yul\":3587:3605   */\n      0xffffffffffffffff\n        /* \"#utility.yul\":3579:3585   */\n      dup2\n        /* \"#utility.yul\":3576:3606   */\n      gt\n        /* \"#utility.yul\":3573:3690   */\n      iszero\n      tag_254\n      jumpi\n        /* \"#utility.yul\":3609:3688   */\n      tag_255\n      tag_173\n      jump\t// in\n    tag_255:\n        /* \"#utility.yul\":3573:3690   */\n    tag_254:\n        /* \"#utility.yul\":3714:3777   */\n      tag_256\n        /* \"#utility.yul\":3769:3776   */\n      dup10\n        /* \"#utility.yul\":3760:3766   */\n      dup3\n        /* \"#utility.yul\":3749:3758   */\n      dup11\n        /* \"#utility.yul\":3745:3767   */\n      add\n        /* \"#utility.yul\":3714:3777   */\n      tag_183\n      jump\t// in\n    tag_256:\n        /* \"#utility.yul\":3704:3777   */\n      swap5\n      pop\n        /* \"#utility.yul\":3499:3787   */\n      pop\n        /* \"#utility.yul\":3854:3856   */\n      0x60\n        /* \"#utility.yul\":3843:3852   */\n      dup8\n        /* \"#utility.yul\":3839:3857   */\n      add\n        /* \"#utility.yul\":3826:3858   */\n      calldataload\n        /* \"#utility.yul\":3885:3903   */\n      0xffffffffffffffff\n        /* \"#utility.yul\":3877:3883   */\n      dup2\n        /* \"#utility.yul\":3874:3904   */\n      gt\n        /* \"#utility.yul\":3871:3988   */\n      iszero\n      tag_257\n      jumpi\n        /* \"#utility.yul\":3907:3986   */\n      tag_258\n      tag_173\n      jump\t// in\n    tag_258:\n        /* \"#utility.yul\":3871:3988   */\n    tag_257:\n        /* \"#utility.yul\":4012:4075   */\n      tag_259\n        /* \"#utility.yul\":4067:4074   */\n      dup10\n        /* \"#utility.yul\":4058:4064   */\n      dup3\n        /* \"#utility.yul\":4047:4056   */\n      dup11\n        /* \"#utility.yul\":4043:4065   */\n      add\n        /* \"#utility.yul\":4012:4075   */\n      tag_183\n      jump\t// in\n    tag_259:\n        /* \"#utility.yul\":4002:4075   */\n      swap4\n      pop\n        /* \"#utility.yul\":3797:4085   */\n      pop\n        /* \"#utility.yul\":4152:4155   */\n      0x80\n        /* \"#utility.yul\":4141:4150   */\n      dup8\n        /* \"#utility.yul\":4137:4156   */\n      add\n        /* \"#utility.yul\":4124:4157   */\n      calldataload\n        /* \"#utility.yul\":4184:4202   */\n      0xffffffffffffffff\n        /* \"#utility.yul\":4176:4182   */\n      dup2\n        /* \"#utility.yul\":4173:4203   */\n      gt\n        /* \"#utility.yul\":4170:4287   */\n      iszero\n      tag_260\n      jumpi\n        /* \"#utility.yul\":4206:4285   */\n      tag_261\n      tag_173\n      jump\t// in\n    tag_261:\n        /* \"#utility.yul\":4170:4287   */\n    tag_260:\n        /* \"#utility.yul\":4311:4374   */\n      tag_262\n        /* \"#utility.yul\":4366:4373   */\n      dup10\n        /* \"#utility.yul\":4357:4363   */\n      dup3\n        /* \"#utility.yul\":4346:4355   */\n      dup11\n        /* \"#utility.yul\":4342:4364   */\n      add\n        /* \"#utility.yul\":4311:4374   */\n      tag_183\n      jump\t// in\n    tag_262:\n        /* \"#utility.yul\":4301:4374   */\n      swap3\n      pop\n        /* \"#utility.yul\":4095:4384   */\n      pop\n        /* \"#utility.yul\":4451:4454   */\n      0xa0\n        /* \"#utility.yul\":4440:4449   */\n      dup8\n        /* \"#utility.yul\":4436:4455   */\n      add\n        /* \"#utility.yul\":4423:4456   */\n      calldataload\n        /* \"#utility.yul\":4483:4501   */\n      0xffffffffffffffff\n        /* \"#utility.yul\":4475:4481   */\n      dup2\n        /* \"#utility.yul\":4472:4502   */\n      gt\n        /* \"#utility.yul\":4469:4586   */\n      iszero\n      tag_263\n      jumpi\n        /* \"#utility.yul\":4505:4584   */\n      tag_264\n      tag_173\n      jump\t// in\n    tag_264:\n        /* \"#utility.yul\":4469:4586   */\n    tag_263:\n        /* \"#utility.yul\":4610:4673   */\n      tag_265\n        /* \"#utility.yul\":4665:4672   */\n      dup10\n        /* \"#utility.yul\":4656:4662   */\n      dup3\n        /* \"#utility.yul\":4645:4654   */\n      dup11\n        /* \"#utility.yul\":4641:4663   */\n      add\n        /* \"#utility.yul\":4610:4673   */\n      tag_183\n      jump\t// in\n    tag_265:\n        /* \"#utility.yul\":4600:4673   */\n      swap2\n      pop\n        /* \"#utility.yul\":4394:4683   */\n      pop\n        /* \"#utility.yul\":2553:4690   */\n      swap3\n      swap6\n      pop\n      swap3\n      swap6\n      pop\n      swap3\n      swap6\n      jump\t// out\n        /* \"#utility.yul\":4696:5530   */\n    tag_22:\n        /* \"#utility.yul\":4784:4790   */\n      0x00\n        /* \"#utility.yul\":4792:4798   */\n      dup1\n        /* \"#utility.yul\":4841:4843   */\n      0x40\n        /* \"#utility.yul\":4829:4838   */\n      dup4\n        /* \"#utility.yul\":4820:4827   */\n      dup6\n        /* \"#utility.yul\":4816:4839   */\n      sub\n        /* \"#utility.yul\":4812:4844   */\n      slt\n        /* \"#utility.yul\":4809:4928   */\n      iszero\n      tag_267\n      jumpi\n        /* \"#utility.yul\":4847:4926   */\n      tag_268\n      tag_172\n      jump\t// in\n    tag_268:\n        /* \"#utility.yul\":4809:4928   */\n    tag_267:\n        /* \"#utility.yul\":4995:4996   */\n      0x00\n        /* \"#utility.yul\":4984:4993   */\n      dup4\n        /* \"#utility.yul\":4980:4997   */\n      add\n        /* \"#utility.yul\":4967:4998   */\n      calldataload\n        /* \"#utility.yul\":5025:5043   */\n      0xffffffffffffffff\n        /* \"#utility.yul\":5017:5023   */\n      dup2\n        /* \"#utility.yul\":5014:5044   */\n      gt\n        /* \"#utility.yul\":5011:5128   */\n      iszero\n      tag_269\n      jumpi\n        /* \"#utility.yul\":5047:5126   */\n      tag_270\n      tag_173\n      jump\t// in\n    tag_270:\n        /* \"#utility.yul\":5011:5128   */\n    tag_269:\n        /* \"#utility.yul\":5152:5215   */\n      tag_271\n        /* \"#utility.yul\":5207:5214   */\n      dup6\n        /* \"#utility.yul\":5198:5204   */\n      dup3\n        /* \"#utility.yul\":5187:5196   */\n      dup7\n        /* \"#utility.yul\":5183:5205   */\n      add\n        /* \"#utility.yul\":5152:5215   */\n      tag_183\n      jump\t// in\n    tag_271:\n        /* \"#utility.yul\":5142:5215   */\n      swap3\n      pop\n        /* \"#utility.yul\":4938:5225   */\n      pop\n        /* \"#utility.yul\":5292:5294   */\n      0x20\n        /* \"#utility.yul\":5281:5290   */\n      dup4\n        /* \"#utility.yul\":5277:5295   */\n      add\n        /* \"#utility.yul\":5264:5296   */\n      calldataload\n        /* \"#utility.yul\":5323:5341   */\n      0xffffffffffffffff\n        /* \"#utility.yul\":5315:5321   */\n      dup2\n        /* \"#utility.yul\":5312:5342   */\n      gt\n        /* \"#utility.yul\":5309:5426   */\n      iszero\n      tag_272\n      jumpi\n        /* \"#utility.yul\":5345:5424   */\n      tag_273\n      tag_173\n      jump\t// in\n    tag_273:\n        /* \"#utility.yul\":5309:5426   */\n    tag_272:\n        /* \"#utility.yul\":5450:5513   */\n      tag_274\n        /* \"#utility.yul\":5505:5512   */\n      dup6\n        /* \"#utility.yul\":5496:5502   */\n      dup3\n        /* \"#utility.yul\":5485:5494   */\n      dup7\n        /* \"#utility.yul\":5481:5503   */\n      add\n        /* \"#utility.yul\":5450:5513   */\n      tag_183\n      jump\t// in\n    tag_274:\n        /* \"#utility.yul\":5440:5513   */\n      swap2\n      pop\n        /* \"#utility.yul\":5235:5523   */\n      pop\n        /* \"#utility.yul\":4696:5530   */\n      swap3\n      pop\n      swap3\n      swap1\n      pop\n      jump\t// out\n        /* \"#utility.yul\":5536:6045   */\n    tag_32:\n        /* \"#utility.yul\":5605:5611   */\n      0x00\n        /* \"#utility.yul\":5654:5656   */\n      0x20\n        /* \"#utility.yul\":5642:5651   */\n      dup3\n        /* \"#utility.yul\":5633:5640   */\n      dup5\n        /* \"#utility.yul\":5629:5652   */\n      sub\n        /* \"#utility.yul\":5625:5657   */\n      slt\n        /* \"#utility.yul\":5622:5741   */\n      iszero\n      tag_276\n      jumpi\n        /* \"#utility.yul\":5660:5739   */\n      tag_277\n      tag_172\n      jump\t// in\n    tag_277:\n        /* \"#utility.yul\":5622:5741   */\n    tag_276:\n        /* \"#utility.yul\":5808:5809   */\n      0x00\n        /* \"#utility.yul\":5797:5806   */\n      dup3\n        /* \"#utility.yul\":5793:5810   */\n      add\n        /* \"#utility.yul\":5780:5811   */\n      calldataload\n        /* \"#utility.yul\":5838:5856   */\n      0xffffffffffffffff\n        /* \"#utility.yul\":5830:5836   */\n      dup2\n        /* \"#utility.yul\":5827:5857   */\n      gt\n        /* \"#utility.yul\":5824:5941   */\n      iszero\n      tag_278\n      jumpi\n        /* \"#utility.yul\":5860:5939   */\n      tag_279\n      tag_173\n      jump\t// in\n    tag_279:\n        /* \"#utility.yul\":5824:5941   */\n    tag_278:\n        /* \"#utility.yul\":5965:6028   */\n      tag_280\n        /* \"#utility.yul\":6020:6027   */\n      dup5\n        /* \"#utility.yul\":6011:6017   */\n      dup3\n        /* \"#utility.yul\":6000:6009   */\n      dup6\n        /* \"#utility.yul\":5996:6018   */\n      add\n        /* \"#utility.yul\":5965:6028   */\n      tag_183\n      jump\t// in\n    tag_280:\n        /* \"#utility.yul\":5955:6028   */\n      swap2\n      pop\n        /* \"#utility.yul\":5751:6038   */\n      pop\n        /* \"#utility.yul\":5536:6045   */\n      swap3\n      swap2\n      pop\n      pop\n      jump\t// out\n        /* \"#utility.yul\":6051:6150   */\n    tag_184:\n        /* \"#utility.yul\":6103:6109   */\n      0x00\n        /* \"#utility.yul\":6137:6142   */\n      dup2\n        /* \"#utility.yul\":6131:6143   */\n      mload\n        /* \"#utility.yul\":6121:6143   */\n      swap1\n      pop\n        /* \"#utility.yul\":6051:6150   */\n      swap2\n      swap1\n      pop\n      jump\t// out\n        /* \"#utility.yul\":6156:6325   */\n    tag_185:\n        /* \"#utility.yul\":6240:6251   */\n      0x00\n        /* \"#utility.yul\":6274:6280   */\n      dup3\n        /* \"#utility.yul\":6269:6272   */\n      dup3\n        /* \"#utility.yul\":6262:6281   */\n      mstore\n        /* \"#utility.yul\":6314:6318   */\n      0x20\n        /* \"#utility.yul\":6309:6312   */\n      dup3\n        /* \"#utility.yul\":6305:6319   */\n      add\n        /* \"#utility.yul\":6290:6319   */\n      swap1\n      pop\n        /* \"#utility.yul\":6156:6325   */\n      swap3\n      swap2\n      pop\n      pop\n      jump\t// out\n        /* \"#utility.yul\":6331:6577   */\n    tag_186:\n        /* \"#utility.yul\":6412:6413   */\n      0x00\n        /* \"#utility.yul\":6422:6535   */\n    tag_284:\n        /* \"#utility.yul\":6436:6442   */\n      dup4\n        /* \"#utility.yul\":6433:6434   */\n      dup2\n        /* \"#utility.yul\":6430:6443   */\n      lt\n        /* \"#utility.yul\":6422:6535   */\n      iszero\n      tag_286\n      jumpi\n        /* \"#utility.yul\":6521:6522   */\n      dup1\n        /* \"#utility.yul\":6516:6519   */\n      dup3\n        /* \"#utility.yul\":6512:6523   */\n      add\n        /* \"#utility.yul\":6506:6524   */\n      mload\n        /* \"#utility.yul\":6502:6503   */\n      dup2\n        /* \"#utility.yul\":6497:6500   */\n      dup5\n        /* \"#utility.yul\":6493:6504   */\n      add\n        /* \"#utility.yul\":6486:6525   */\n      mstore\n        /* \"#utility.yul\":6458:6460   */\n      0x20\n        /* \"#utility.yul\":6455:6456   */\n      dup2\n        /* \"#utility.yul\":6451:6461   */\n      add\n        /* \"#utility.yul\":6446:6461   */\n      swap1\n      pop\n        /* \"#utility.yul\":6422:6535   */\n      jump(tag_284)\n    tag_286:\n        /* \"#utility.yul\":6569:6570   */\n      0x00\n        /* \"#utility.yul\":6560:6566   */\n      dup5\n        /* \"#utility.yul\":6555:6558   */\n      dup5\n        /* \"#utility.yul\":6551:6567   */\n      add\n        /* \"#utility.yul\":6544:6571   */\n      mstore\n        /* \"#utility.yul\":6393:6577   */\n      pop\n        /* \"#utility.yul\":6331:6577   */\n      pop\n      pop\n      pop\n      jump\t// out\n        /* \"#utility.yul\":6583:6960   */\n    tag_187:\n        /* \"#utility.yul\":6671:6674   */\n      0x00\n        /* \"#utility.yul\":6699:6738   */\n      tag_288\n        /* \"#utility.yul\":6732:6737   */\n      dup3\n        /* \"#utility.yul\":6699:6738   */\n      tag_184\n      jump\t// in\n    tag_288:\n        /* \"#utility.yul\":6754:6825   */\n      tag_289\n        /* \"#utility.yul\":6818:6824   */\n      dup2\n        /* \"#utility.yul\":6813:6816   */\n      dup6\n        /* \"#utility.yul\":6754:6825   */\n      tag_185\n      jump\t// in\n    tag_289:\n        /* \"#utility.yul\":6747:6825   */\n      swap4\n      pop\n        /* \"#utility.yul\":6834:6899   */\n      tag_290\n        /* \"#utility.yul\":6892:6898   */\n      dup2\n        /* \"#utility.yul\":6887:6890   */\n      dup6\n        /* \"#utility.yul\":6880:6884   */\n      0x20\n        /* \"#utility.yul\":6873:6878   */\n      dup7\n        /* \"#utility.yul\":6869:6885   */\n      add\n        /* \"#utility.yul\":6834:6899   */\n      tag_186\n      jump\t// in\n    tag_290:\n        /* \"#utility.yul\":6924:6953   */\n      tag_291\n        /* \"#utility.yul\":6946:6952   */\n      dup2\n        /* \"#utility.yul\":6924:6953   */\n      tag_176\n      jump\t// in\n    tag_291:\n        /* \"#utility.yul\":6919:6922   */\n      dup5\n        /* \"#utility.yul\":6915:6954   */\n      add\n        /* \"#utility.yul\":6908:6954   */\n      swap2\n      pop\n        /* \"#utility.yul\":6675:6960   */\n      pop\n        /* \"#utility.yul\":6583:6960   */\n      swap3\n      swap2\n      pop\n      pop\n      jump\t// out\n        /* \"#utility.yul\":6966:8085   */\n    tag_35:\n        /* \"#utility.yul\":7271:7275   */\n      0x00\n        /* \"#utility.yul\":7309:7312   */\n      0xa0\n        /* \"#utility.yul\":7298:7307   */\n      dup3\n        /* \"#utility.yul\":7294:7313   */\n      add\n        /* \"#utility.yul\":7286:7313   */\n      swap1\n      pop\n        /* \"#utility.yul\":7359:7368   */\n      dup2\n        /* \"#utility.yul\":7353:7357   */\n      dup2\n        /* \"#utility.yul\":7349:7369   */\n      sub\n        /* \"#utility.yul\":7345:7346   */\n      0x00\n        /* \"#utility.yul\":7334:7343   */\n      dup4\n        /* \"#utility.yul\":7330:7347   */\n      add\n        /* \"#utility.yul\":7323:7370   */\n      mstore\n        /* \"#utility.yul\":7387:7465   */\n      tag_293\n        /* \"#utility.yul\":7460:7464   */\n      dup2\n        /* \"#utility.yul\":7451:7457   */\n      dup9\n        /* \"#utility.yul\":7387:7465   */\n      tag_187\n      jump\t// in\n    tag_293:\n        /* \"#utility.yul\":7379:7465   */\n      swap1\n      pop\n        /* \"#utility.yul\":7512:7521   */\n      dup2\n        /* \"#utility.yul\":7506:7510   */\n      dup2\n        /* \"#utility.yul\":7502:7522   */\n      sub\n        /* \"#utility.yul\":7497:7499   */\n      0x20\n        /* \"#utility.yul\":7486:7495   */\n      dup4\n        /* \"#utility.yul\":7482:7500   */\n      add\n        /* \"#utility.yul\":7475:7523   */\n      mstore\n        /* \"#utility.yul\":7540:7618   */\n      tag_294\n        /* \"#utility.yul\":7613:7617   */\n      dup2\n        /* \"#utility.yul\":7604:7610   */\n      dup8\n        /* \"#utility.yul\":7540:7618   */\n      tag_187\n      jump\t// in\n    tag_294:\n        /* \"#utility.yul\":7532:7618   */\n      swap1\n      pop\n        /* \"#utility.yul\":7665:7674   */\n      dup2\n        /* \"#utility.yul\":7659:7663   */\n      dup2\n        /* \"#utility.yul\":7655:7675   */\n      sub\n        /* \"#utility.yul\":7650:7652   */\n      0x40\n        /* \"#utility.yul\":7639:7648   */\n      dup4\n        /* \"#utility.yul\":7635:7653   */\n      add\n        /* \"#utility.yul\":7628:7676   */\n      mstore\n        /* \"#utility.yul\":7693:7771   */\n      tag_295\n        /* \"#utility.yul\":7766:7770   */\n      dup2\n        /* \"#utility.yul\":7757:7763   */\n      dup7\n        /* \"#utility.yul\":7693:7771   */\n      tag_187\n      jump\t// in\n    tag_295:\n        /* \"#utility.yul\":7685:7771   */\n      swap1\n      pop\n        /* \"#utility.yul\":7818:7827   */\n      dup2\n        /* \"#utility.yul\":7812:7816   */\n      dup2\n        /* \"#utility.yul\":7808:7828   */\n      sub\n        /* \"#utility.yul\":7803:7805   */\n      0x60\n        /* \"#utility.yul\":7792:7801   */\n      dup4\n        /* \"#utility.yul\":7788:7806   */\n      add\n        /* \"#utility.yul\":7781:7829   */\n      mstore\n        /* \"#utility.yul\":7846:7924   */\n      tag_296\n        /* \"#utility.yul\":7919:7923   */\n      dup2\n        /* \"#utility.yul\":7910:7916   */\n      dup6\n        /* \"#utility.yul\":7846:7924   */\n      tag_187\n      jump\t// in\n    tag_296:\n        /* \"#utility.yul\":7838:7924   */\n      swap1\n      pop\n        /* \"#utility.yul\":7972:7981   */\n      dup2\n        /* \"#utility.yul\":7966:7970   */\n      dup2\n        /* \"#utility.yul\":7962:7982   */\n      sub\n        /* \"#utility.yul\":7956:7959   */\n      0x80\n        /* \"#utility.yul\":7945:7954   */\n      dup4\n        /* \"#utility.yul\":7941:7960   */\n      add\n        /* \"#utility.yul\":7934:7983   */\n      mstore\n        /* \"#utility.yul\":8000:8078   */\n      tag_297\n        /* \"#utility.yul\":8073:8077   */\n      dup2\n        /* \"#utility.yul\":8064:8070   */\n      dup5\n        /* \"#utility.yul\":8000:8078   */\n      tag_187\n      jump\t// in\n    tag_297:\n        /* \"#utility.yul\":7992:8078   */\n      swap1\n      pop\n        /* \"#utility.yul\":6966:8085   */\n      swap7\n      swap6\n      pop\n      pop\n      pop\n      pop\n      pop\n      pop\n      jump\t// out\n        /* \"#utility.yul\":8091:8404   */\n    tag_43:\n        /* \"#utility.yul\":8204:8208   */\n      0x00\n        /* \"#utility.yul\":8242:8244   */\n      0x20\n        /* \"#utility.yul\":8231:8240   */\n      dup3\n        /* \"#utility.yul\":8227:8245   */\n      add\n        /* \"#utility.yul\":8219:8245   */\n      swap1\n      pop\n        /* \"#utility.yul\":8291:8300   */\n      dup2\n        /* \"#utility.yul\":8285:8289   */\n      dup2\n        /* \"#utility.yul\":8281:8301   */\n      sub\n        /* \"#utility.yul\":8277:8278   */\n      0x00\n        /* \"#utility.yul\":8266:8275   */\n      dup4\n        /* \"#utility.yul\":8262:8279   */\n      add\n        /* \"#utility.yul\":8255:8302   */\n      mstore\n        /* \"#utility.yul\":8319:8397   */\n      tag_299\n        /* \"#utility.yul\":8392:8396   */\n      dup2\n        /* \"#utility.yul\":8383:8389   */\n      dup5\n        /* \"#utility.yul\":8319:8397   */\n      tag_187\n      jump\t// in\n    tag_299:\n        /* \"#utility.yul\":8311:8397   */\n      swap1\n      pop\n        /* \"#utility.yul\":8091:8404   */\n      swap3\n      swap2\n      pop\n      pop\n      jump\t// out\n        /* \"#utility.yul\":8410:8558   */\n    tag_188:\n        /* \"#utility.yul\":8512:8523   */\n      0x00\n        /* \"#utility.yul\":8549:8552   */\n      dup2\n        /* \"#utility.yul\":8534:8552   */\n      swap1\n      pop\n        /* \"#utility.yul\":8410:8558   */\n      swap3\n      swap2\n      pop\n      pop\n      jump\t// out\n        /* \"#utility.yul\":8564:8954   */\n    tag_189:\n        /* \"#utility.yul\":8670:8673   */\n      0x00\n        /* \"#utility.yul\":8698:8737   */\n      tag_302\n        /* \"#utility.yul\":8731:8736   */\n      dup3\n        /* \"#utility.yul\":8698:8737   */\n      tag_184\n      jump\t// in\n    tag_302:\n        /* \"#utility.yul\":8753:8842   */\n      tag_303\n        /* \"#utility.yul\":8835:8841   */\n      dup2\n        /* \"#utility.yul\":8830:8833   */\n      dup6\n        /* \"#utility.yul\":8753:8842   */\n      tag_188\n      jump\t// in\n    tag_303:\n        /* \"#utility.yul\":8746:8842   */\n      swap4\n      pop\n        /* \"#utility.yul\":8851:8916   */\n      tag_304\n        /* \"#utility.yul\":8909:8915   */\n      dup2\n        /* \"#utility.yul\":8904:8907   */\n      dup6\n        /* \"#utility.yul\":8897:8901   */\n      0x20\n        /* \"#utility.yul\":8890:8895   */\n      dup7\n        /* \"#utility.yul\":8886:8902   */\n      add\n        /* \"#utility.yul\":8851:8916   */\n      tag_186\n      jump\t// in\n    tag_304:\n        /* \"#utility.yul\":8941:8947   */\n      dup1\n        /* \"#utility.yul\":8936:8939   */\n      dup5\n        /* \"#utility.yul\":8932:8948   */\n      add\n        /* \"#utility.yul\":8925:8948   */\n      swap2\n      pop\n        /* \"#utility.yul\":8674:8954   */\n      pop\n        /* \"#utility.yul\":8564:8954   */\n      swap3\n      swap2\n      pop\n      pop\n      jump\t// out\n        /* \"#utility.yul\":8960:9235   */\n    tag_65:\n        /* \"#utility.yul\":9092:9095   */\n      0x00\n        /* \"#utility.yul\":9114:9209   */\n      tag_306\n        /* \"#utility.yul\":9205:9208   */\n      dup3\n        /* \"#utility.yul\":9196:9202   */\n      dup5\n        /* \"#utility.yul\":9114:9209   */\n      tag_189\n      jump\t// in\n    tag_306:\n        /* \"#utility.yul\":9107:9209   */\n      swap2\n      pop\n        /* \"#utility.yul\":9226:9229   */\n      dup2\n        /* \"#utility.yul\":9219:9229   */\n      swap1\n      pop\n        /* \"#utility.yul\":8960:9235   */\n      swap3\n      swap2\n      pop\n      pop\n      jump\t// out\n        /* \"#utility.yul\":9241:9421   */\n    tag_190:\n        /* \"#utility.yul\":9289:9366   */\n      0x4e487b7100000000000000000000000000000000000000000000000000000000\n        /* \"#utility.yul\":9286:9287   */\n      0x00\n        /* \"#utility.yul\":9279:9367   */\n      mstore\n        /* \"#utility.yul\":9386:9390   */\n      0x22\n        /* \"#utility.yul\":9383:9384   */\n      0x04\n        /* \"#utility.yul\":9376:9391   */\n      mstore\n        /* \"#utility.yul\":9410:9414   */\n      0x24\n        /* \"#utility.yul\":9407:9408   */\n      0x00\n        /* \"#utility.yul\":9400:9415   */\n      revert\n        /* \"#utility.yul\":9427:9747   */\n    tag_67:\n        /* \"#utility.yul\":9471:9477   */\n      0x00\n        /* \"#utility.yul\":9508:9509   */\n      0x02\n        /* \"#utility.yul\":9502:9506   */\n      dup3\n        /* \"#utility.yul\":9498:9510   */\n      div\n        /* \"#utility.yul\":9488:9510   */\n      swap1\n      pop\n        /* \"#utility.yul\":9555:9556   */\n      0x01\n        /* \"#utility.yul\":9549:9553   */\n      dup3\n        /* \"#utility.yul\":9545:9557   */\n      and\n        /* \"#utility.yul\":9576:9594   */\n      dup1\n        /* \"#utility.yul\":9566:9647   */\n      tag_309\n      jumpi\n        /* \"#utility.yul\":9632:9636   */\n      0x7f\n        /* \"#utility.yul\":9624:9630   */\n      dup3\n        /* \"#utility.yul\":9620:9637   */\n      and\n        /* \"#utility.yul\":9610:9637   */\n      swap2\n      pop\n        /* \"#utility.yul\":9566:9647   */\n    tag_309:\n        /* \"#utility.yul\":9694:9696   */\n      0x20\n        /* \"#utility.yul\":9686:9692   */\n      dup3\n        /* \"#utility.yul\":9683:9697   */\n      lt\n        /* \"#utility.yul\":9663:9681   */\n      dup2\n        /* \"#utility.yul\":9660:9698   */\n      sub\n        /* \"#utility.yul\":9657:9741   */\n      tag_310\n      jumpi\n        /* \"#utility.yul\":9713:9731   */\n      tag_311\n      tag_190\n      jump\t// in\n    tag_311:\n        /* \"#utility.yul\":9657:9741   */\n    tag_310:\n        /* \"#utility.yul\":9478:9747   */\n      pop\n        /* \"#utility.yul\":9427:9747   */\n      swap2\n      swap1\n      pop\n      jump\t// out\n        /* \"#utility.yul\":9753:9922   */\n    tag_191:\n        /* \"#utility.yul\":9893:9914   */\n      0x5573657220616c72656164792065786973747300000000000000000000000000\n        /* \"#utility.yul\":9889:9890   */\n      0x00\n        /* \"#utility.yul\":9881:9887   */\n      dup3\n        /* \"#utility.yul\":9877:9891   */\n      add\n        /* \"#utility.yul\":9870:9915   */\n      mstore\n        /* \"#utility.yul\":9753:9922   */\n      pop\n      jump\t// out\n        /* \"#utility.yul\":9928:10294   */\n    tag_192:\n        /* \"#utility.yul\":10070:10073   */\n      0x00\n        /* \"#utility.yul\":10091:10158   */\n      tag_314\n        /* \"#utility.yul\":10155:10157   */\n      0x13\n        /* \"#utility.yul\":10150:10153   */\n      dup4\n        /* \"#utility.yul\":10091:10158   */\n      tag_185\n      jump\t// in\n    tag_314:\n        /* \"#utility.yul\":10084:10158   */\n      swap2\n      pop\n        /* \"#utility.yul\":10167:10260   */\n      tag_315\n        /* \"#utility.yul\":10256:10259   */\n      dup3\n        /* \"#utility.yul\":10167:10260   */\n      tag_191\n      jump\t// in\n    tag_315:\n        /* \"#utility.yul\":10285:10287   */\n      0x20\n        /* \"#utility.yul\":10280:10283   */\n      dup3\n        /* \"#utility.yul\":10276:10288   */\n      add\n        /* \"#utility.yul\":10269:10288   */\n      swap1\n      pop\n        /* \"#utility.yul\":9928:10294   */\n      swap2\n      swap1\n      pop\n      jump\t// out\n        /* \"#utility.yul\":10300:10719   */\n    tag_70:\n        /* \"#utility.yul\":10466:10470   */\n      0x00\n        /* \"#utility.yul\":10504:10506   */\n      0x20\n        /* \"#utility.yul\":10493:10502   */\n      dup3\n        /* \"#utility.yul\":10489:10507   */\n      add\n        /* \"#utility.yul\":10481:10507   */\n      swap1\n      pop\n        /* \"#utility.yul\":10553:10562   */\n      dup2\n        /* \"#utility.yul\":10547:10551   */\n      dup2\n        /* \"#utility.yul\":10543:10563   */\n      sub\n        /* \"#utility.yul\":10539:10540   */\n      0x00\n        /* \"#utility.yul\":10528:10537   */\n      dup4\n        /* \"#utility.yul\":10524:10541   */\n      add\n        /* \"#utility.yul\":10517:10564   */\n      mstore\n        /* \"#utility.yul\":10581:10712   */\n      tag_317\n        /* \"#utility.yul\":10707:10711   */\n      dup2\n        /* \"#utility.yul\":10581:10712   */\n      tag_192\n      jump\t// in\n    tag_317:\n        /* \"#utility.yul\":10573:10712   */\n      swap1\n      pop\n        /* \"#utility.yul\":10300:10719   */\n      swap2\n      swap1\n      pop\n      jump\t// out\n        /* \"#utility.yul\":10725:10901   */\n    tag_193:\n        /* \"#utility.yul\":10865:10893   */\n      0x50726976617465206b657920616c726561647920696e20757365000000000000\n        /* \"#utility.yul\":10861:10862   */\n      0x00\n        /* \"#utility.yul\":10853:10859   */\n      dup3\n        /* \"#utility.yul\":10849:10863   */\n      add\n        /* \"#utility.yul\":10842:10894   */\n      mstore\n        /* \"#utility.yul\":10725:10901   */\n      pop\n      jump\t// out\n        /* \"#utility.yul\":10907:11273   */\n    tag_194:\n        /* \"#utility.yul\":11049:11052   */\n      0x00\n        /* \"#utility.yul\":11070:11137   */\n      tag_320\n        /* \"#utility.yul\":11134:11136   */\n      0x1a\n        /* \"#utility.yul\":11129:11132   */\n      dup4\n        /* \"#utility.yul\":11070:11137   */\n      tag_185\n      jump\t// in\n    tag_320:\n        /* \"#utility.yul\":11063:11137   */\n      swap2\n      pop\n        /* \"#utility.yul\":11146:11239   */\n      tag_321\n        /* \"#utility.yul\":11235:11238   */\n      dup3\n        /* \"#utility.yul\":11146:11239   */\n      tag_193\n      jump\t// in\n    tag_321:\n        /* \"#utility.yul\":11264:11266   */\n      0x20\n        /* \"#utility.yul\":11259:11262   */\n      dup3\n        /* \"#utility.yul\":11255:11267   */\n      add\n        /* \"#utility.yul\":11248:11267   */\n      swap1\n      pop\n        /* \"#utility.yul\":10907:11273   */\n      swap2\n      swap1\n      pop\n      jump\t// out\n        /* \"#utility.yul\":11279:11698   */\n    tag_75:\n        /* \"#utility.yul\":11445:11449   */\n      0x00\n        /* \"#utility.yul\":11483:11485   */\n      0x20\n        /* \"#utility.yul\":11472:11481   */\n      dup3\n        /* \"#utility.yul\":11468:11486   */\n      add\n        /* \"#utility.yul\":11460:11486   */\n      swap1\n      pop\n        /* \"#utility.yul\":11532:11541   */\n      dup2\n        /* \"#utility.yul\":11526:11530   */\n      dup2\n        /* \"#utility.yul\":11522:11542   */\n      sub\n        /* \"#utility.yul\":11518:11519   */\n      0x00\n        /* \"#utility.yul\":11507:11516   */\n      dup4\n        /* \"#utility.yul\":11503:11520   */\n      add\n        /* \"#utility.yul\":11496:11543   */\n      mstore\n        /* \"#utility.yul\":11560:11691   */\n      tag_323\n        /* \"#utility.yul\":11686:11690   */\n      dup2\n        /* \"#utility.yul\":11560:11691   */\n      tag_194\n      jump\t// in\n    tag_323:\n        /* \"#utility.yul\":11552:11691   */\n      swap1\n      pop\n        /* \"#utility.yul\":11279:11698   */\n      swap2\n      swap1\n      pop\n      jump\t// out\n        /* \"#utility.yul\":11704:11845   */\n    tag_195:\n        /* \"#utility.yul\":11753:11757   */\n      0x00\n        /* \"#utility.yul\":11776:11779   */\n      dup2\n        /* \"#utility.yul\":11768:11779   */\n      swap1\n      pop\n        /* \"#utility.yul\":11799:11802   */\n      dup2\n        /* \"#utility.yul\":11796:11797   */\n      0x00\n        /* \"#utility.yul\":11789:11803   */\n      mstore\n        /* \"#utility.yul\":11833:11837   */\n      0x20\n        /* \"#utility.yul\":11830:11831   */\n      0x00\n        /* \"#utility.yul\":11820:11838   */\n      keccak256\n        /* \"#utility.yul\":11812:11838   */\n      swap1\n      pop\n        /* \"#utility.yul\":11704:11845   */\n      swap2\n      swap1\n      pop\n      jump\t// out\n        /* \"#utility.yul\":11851:11944   */\n    tag_196:\n        /* \"#utility.yul\":11888:11894   */\n      0x00\n        /* \"#utility.yul\":11935:11937   */\n      0x20\n        /* \"#utility.yul\":11930:11932   */\n      0x1f\n        /* \"#utility.yul\":11923:11928   */\n      dup4\n        /* \"#utility.yul\":11919:11933   */\n      add\n        /* \"#utility.yul\":11915:11938   */\n      div\n        /* \"#utility.yul\":11905:11938   */\n      swap1\n      pop\n        /* \"#utility.yul\":11851:11944   */\n      swap2\n      swap1\n      pop\n      jump\t// out\n        /* \"#utility.yul\":11950:12057   */\n    tag_197:\n        /* \"#utility.yul\":11994:12002   */\n      0x00\n        /* \"#utility.yul\":12044:12049   */\n      dup3\n        /* \"#utility.yul\":12038:12042   */\n      dup3\n        /* \"#utility.yul\":12034:12050   */\n      shl\n        /* \"#utility.yul\":12013:12050   */\n      swap1\n      pop\n        /* \"#utility.yul\":11950:12057   */\n      swap3\n      swap2\n      pop\n      pop\n      jump\t// out\n        /* \"#utility.yul\":12063:12456   */\n    tag_198:\n        /* \"#utility.yul\":12132:12138   */\n      0x00\n        /* \"#utility.yul\":12182:12183   */\n      0x08\n        /* \"#utility.yul\":12170:12180   */\n      dup4\n        /* \"#utility.yul\":12166:12184   */\n      mul\n        /* \"#utility.yul\":12205:12302   */\n      tag_328\n        /* \"#utility.yul\":12235:12301   */\n      0xffffffffffffffffffffffffffffffffffffffffffffffffffffffffffffffff\n        /* \"#utility.yul\":12224:12233   */\n      dup3\n        /* \"#utility.yul\":12205:12302   */\n      tag_197\n      jump\t// in\n    tag_328:\n        /* \"#utility.yul\":12323:12362   */\n      tag_329\n        /* \"#utility.yul\":12353:12361   */\n      dup7\n        /* \"#utility.yul\":12342:12351   */\n      dup4\n        /* \"#utility.yul\":12323:12362   */\n      tag_197\n      jump\t// in\n    tag_329:\n        /* \"#utility.yul\":12311:12362   */\n      swap6\n      pop\n        /* \"#utility.yul\":12395:12399   */\n      dup1\n        /* \"#utility.yul\":12391:12400   */\n      not\n        /* \"#utility.yul\":12384:12389   */\n      dup5\n        /* \"#utility.yul\":12380:12401   */\n      and\n        /* \"#utility.yul\":12371:12401   */\n      swap4\n      pop\n        /* \"#utility.yul\":12444:12448   */\n      dup1\n        /* \"#utility.yul\":12434:12442   */\n      dup7\n        /* \"#utility.yul\":12430:12449   */\n      and\n        /* \"#utility.yul\":12423:12428   */\n      dup5\n        /* \"#utility.yul\":12420:12450   */\n      or\n        /* \"#utility.yul\":12410:12450   */\n      swap3\n      pop\n        /* \"#utility.yul\":12139:12456   */\n      pop\n      pop\n        /* \"#utility.yul\":12063:12456   */\n      swap4\n      swap3\n      pop\n      pop\n      pop\n      jump\t// out\n        /* \"#utility.yul\":12462:12539   */\n    tag_199:\n        /* \"#utility.yul\":12499:12506   */\n      0x00\n        /* \"#utility.yul\":12528:12533   */\n      dup2\n        /* \"#utility.yul\":12517:12533   */\n      swap1\n      pop\n        /* \"#utility.yul\":12462:12539   */\n      swap2\n      swap1\n      pop\n      jump\t// out\n        /* \"#utility.yul\":12545:12605   */\n    tag_200:\n        /* \"#utility.yul\":12573:12576   */\n      0x00\n        /* \"#utility.yul\":12594:12599   */\n      dup2\n        /* \"#utility.yul\":12587:12599   */\n      swap1\n      pop\n        /* \"#utility.yul\":12545:12605   */\n      swap2\n      swap1\n      pop\n      jump\t// out\n        /* \"#utility.yul\":12611:12753   */\n    tag_201:\n        /* \"#utility.yul\":12661:12670   */\n      0x00\n        /* \"#utility.yul\":12694:12747   */\n      tag_333\n        /* \"#utility.yul\":12712:12746   */\n      tag_334\n        /* \"#utility.yul\":12721:12745   */\n      tag_335\n        /* \"#utility.yul\":12739:12744   */\n      dup5\n        /* \"#utility.yul\":12721:12745   */\n      tag_199\n      jump\t// in\n    tag_335:\n        /* \"#utility.yul\":12712:12746   */\n      tag_200\n      jump\t// in\n    tag_334:\n        /* \"#utility.yul\":12694:12747   */\n      tag_199\n      jump\t// in\n    tag_333:\n        /* \"#utility.yul\":12681:12747   */\n      swap1\n      pop\n        /* \"#utility.yul\":12611:12753   */\n      swap2\n      swap1\n      pop\n      jump\t// out\n        /* \"#utility.yul\":12759:12834   */\n    tag_202:\n        /* \"#utility.yul\":12802:12805   */\n      0x00\n        /* \"#utility.yul\":12823:12828   */\n      dup2\n        /* \"#utility.yul\":12816:12828   */\n      swap1\n      pop\n        /* \"#utility.yul\":12759:12834   */\n      swap2\n      swap1\n      pop\n      jump\t// out\n        /* \"#utility.yul\":12840:13109   */\n    tag_203:\n        /* \"#utility.yul\":12950:12989   */\n      tag_338\n        /* \"#utility.yul\":12981:12988   */\n      dup4\n        /* \"#utility.yul\":12950:12989   */\n      tag_201\n      jump\t// in\n    tag_338:\n        /* \"#utility.yul\":13011:13102   */\n      tag_339\n        /* \"#utility.yul\":13060:13101   */\n      tag_340\n        /* \"#utility.yul\":13084:13100   */\n      dup3\n        /* \"#utility.yul\":13060:13101   */\n      tag_202\n      jump\t// in\n    tag_340:\n        /* \"#utility.yul\":13052:13058   */\n      dup5\n        /* \"#utility.yul\":13045:13049   */\n      dup5\n        /* \"#utility.yul\":13039:13050   */\n      sload\n        /* \"#utility.yul\":13011:13102   */\n      tag_198\n      jump\t// in\n    tag_339:\n        /* \"#utility.yul\":13005:13009   */\n      dup3\n        /* \"#utility.yul\":12998:13103   */\n      sstore\n        /* \"#utility.yul\":12916:13109   */\n      pop\n        /* \"#utility.yul\":12840:13109   */\n      pop\n      pop\n      pop\n      jump\t// out\n        /* \"#utility.yul\":13115:13188   */\n    tag_204:\n        /* \"#utility.yul\":13160:13163   */\n      0x00\n        /* \"#utility.yul\":13115:13188   */\n      swap1\n      jump\t// out\n        /* \"#utility.yul\":13194:13383   */\n    tag_205:\n        /* \"#utility.yul\":13271:13303   */\n      tag_343\n      tag_204\n      jump\t// in\n    tag_343:\n        /* \"#utility.yul\":13312:13377   */\n      tag_344\n        /* \"#utility.yul\":13370:13376   */\n      dup2\n        /* \"#utility.yul\":13362:13368   */\n      dup5\n        /* \"#utility.yul\":13356:13360   */\n      dup5\n        /* \"#utility.yul\":13312:13377   */\n      tag_203\n      jump\t// in\n    tag_344:\n        /* \"#utility.yul\":13247:13383   */\n      pop\n        /* \"#utility.yul\":13194:13383   */\n      pop\n      pop\n      jump\t// out\n        /* \"#utility.yul\":13389:13575   */\n    tag_206:\n        /* \"#utility.yul\":13449:13569   */\n    tag_346:\n        /* \"#utility.yul\":13466:13469   */\n      dup2\n        /* \"#utility.yul\":13459:13464   */\n      dup2\n        /* \"#utility.yul\":13456:13470   */\n      lt\n        /* \"#utility.yul\":13449:13569   */\n      iszero\n      tag_348\n      jumpi\n        /* \"#utility.yul\":13520:13559   */\n      tag_349\n        /* \"#utility.yul\":13557:13558   */\n      0x00\n        /* \"#utility.yul\":13550:13555   */\n      dup3\n        /* \"#utility.yul\":13520:13559   */\n      tag_205\n      jump\t// in\n    tag_349:\n        /* \"#utility.yul\":13493:13494   */\n      0x01\n        /* \"#utility.yul\":13486:13491   */\n      dup2\n        /* \"#utility.yul\":13482:13495   */\n      add\n        /* \"#utility.yul\":13473:13495   */\n      swap1\n      pop\n        /* \"#utility.yul\":13449:13569   */\n      jump(tag_346)\n    tag_348:\n        /* \"#utility.yul\":13389:13575   */\n      pop\n      pop\n      jump\t// out\n        /* \"#utility.yul\":13581:14124   */\n    tag_207:\n        /* \"#utility.yul\":13682:13684   */\n      0x1f\n        /* \"#utility.yul\":13677:13680   */\n      dup3\n        /* \"#utility.yul\":13674:13685   */\n      gt\n        /* \"#utility.yul\":13671:14117   */\n      iszero\n      tag_351\n      jumpi\n        /* \"#utility.yul\":13716:13754   */\n      tag_352\n        /* \"#utility.yul\":13748:13753   */\n      dup2\n        /* \"#utility.yul\":13716:13754   */\n      tag_195\n      jump\t// in\n    tag_352:\n        /* \"#utility.yul\":13800:13829   */\n      tag_353\n        /* \"#utility.yul\":13818:13828   */\n      dup5\n        /* \"#utility.yul\":13800:13829   */\n      tag_196\n      jump\t// in\n    tag_353:\n        /* \"#utility.yul\":13790:13798   */\n      dup2\n        /* \"#utility.yul\":13786:13830   */\n      add\n        /* \"#utility.yul\":13983:13985   */\n      0x20\n        /* \"#utility.yul\":13971:13981   */\n      dup6\n        /* \"#utility.yul\":13968:13986   */\n      lt\n        /* \"#utility.yul\":13965:14014   */\n      iszero\n      tag_354\n      jumpi\n        /* \"#utility.yul\":14004:14012   */\n      dup2\n        /* \"#utility.yul\":13989:14012   */\n      swap1\n      pop\n        /* \"#utility.yul\":13965:14014   */\n    tag_354:\n        /* \"#utility.yul\":14027:14107   */\n      tag_355\n        /* \"#utility.yul\":14083:14105   */\n      tag_356\n        /* \"#utility.yul\":14101:14104   */\n      dup6\n        /* \"#utility.yul\":14083:14105   */\n      tag_196\n      jump\t// in\n    tag_356:\n        /* \"#utility.yul\":14073:14081   */\n      dup4\n        /* \"#utility.yul\":14069:14106   */\n      add\n        /* \"#utility.yul\":14056:14067   */\n      dup3\n        /* \"#utility.yul\":14027:14107   */\n      tag_206\n      jump\t// in\n    tag_355:\n        /* \"#utility.yul\":13686:14117   */\n      pop\n      pop\n        /* \"#utility.yul\":13671:14117   */\n    tag_351:\n        /* \"#utility.yul\":13581:14124   */\n      pop\n      pop\n      pop\n      jump\t// out\n        /* \"#utility.yul\":14130:14247   */\n    tag_208:\n        /* \"#utility.yul\":14184:14192   */\n      0x00\n        /* \"#utility.yul\":14234:14239   */\n      dup3\n        /* \"#utility.yul\":14228:14232   */\n      dup3\n        /* \"#utility.yul\":14224:14240   */\n      shr\n        /* \"#utility.yul\":14203:14240   */\n      swap1\n      pop\n        /* \"#utility.yul\":14130:14247   */\n      swap3\n      swap2\n      pop\n      pop\n      jump\t// out\n        /* \"#utility.yul\":14253:14422   */\n    tag_209:\n        /* \"#utility.yul\":14297:14303   */\n      0x00\n        /* \"#utility.yul\":14330:14381   */\n      tag_359\n        /* \"#utility.yul\":14378:14379   */\n      0x00\n        /* \"#utility.yul\":14374:14380   */\n      not\n        /* \"#utility.yul\":14366:14371   */\n      dup5\n        /* \"#utility.yul\":14363:14364   */\n      0x08\n        /* \"#utility.yul\":14359:14372   */\n      mul\n        /* \"#utility.yul\":14330:14381   */\n      tag_208\n      jump\t// in\n    tag_359:\n        /* \"#utility.yul\":14326:14382   */\n      not\n        /* \"#utility.yul\":14411:14415   */\n      dup1\n        /* \"#utility.yul\":14405:14409   */\n      dup4\n        /* \"#utility.yul\":14401:14416   */\n      and\n        /* \"#utility.yul\":14391:14416   */\n      swap2\n      pop\n        /* \"#utility.yul\":14304:14422   */\n      pop\n        /* \"#utility.yul\":14253:14422   */\n      swap3\n      swap2\n      pop\n      pop\n      jump\t// out\n        /* \"#utility.yul\":14427:14722   */\n    tag_210:\n        /* \"#utility.yul\":14503:14507   */\n      0x00\n        /* \"#utility.yul\":14649:14678   */\n      tag_361\n        /* \"#utility.yul\":14674:14677   */\n      dup4\n        /* \"#utility.yul\":14668:14672   */\n      dup4\n        /* \"#utility.yul\":14649:14678   */\n      tag_209\n      jump\t// in\n    tag_361:\n        /* \"#utility.yul\":14641:14678   */\n      swap2\n      pop\n        /* \"#utility.yul\":14711:14714   */\n      dup3\n        /* \"#utility.yul\":14708:14709   */\n      0x02\n        /* \"#utility.yul\":14704:14715   */\n      mul\n        /* \"#utility.yul\":14698:14702   */\n      dup3\n        /* \"#utility.yul\":14695:14716   */\n      or\n        /* \"#utility.yul\":14687:14716   */\n      swap1\n      pop\n        /* \"#utility.yul\":14427:14722   */\n      swap3\n      swap2\n      pop\n      pop\n      jump\t// out\n        /* \"#utility.yul\":14727:16122   */\n    tag_78:\n        /* \"#utility.yul\":14844:14881   */\n      tag_363\n        /* \"#utility.yul\":14877:14880   */\n      dup3\n        /* \"#utility.yul\":14844:14881   */\n      tag_184\n      jump\t// in\n    tag_363:\n        /* \"#utility.yul\":14946:14964   */\n      0xffffffffffffffff\n        /* \"#utility.yul\":14938:14944   */\n      dup2\n        /* \"#utility.yul\":14935:14965   */\n      gt\n        /* \"#utility.yul\":14932:14988   */\n      iszero\n      tag_364\n      jumpi\n        /* \"#utility.yul\":14968:14986   */\n      tag_365\n      tag_177\n      jump\t// in\n    tag_365:\n        /* \"#utility.yul\":14932:14988   */\n    tag_364:\n        /* \"#utility.yul\":15012:15050   */\n      tag_366\n        /* \"#utility.yul\":15044:15048   */\n      dup3\n        /* \"#utility.yul\":15038:15049   */\n      sload\n        /* \"#utility.yul\":15012:15050   */\n      tag_67\n      jump\t// in\n    tag_366:\n        /* \"#utility.yul\":15097:15164   */\n      tag_367\n        /* \"#utility.yul\":15157:15163   */\n      dup3\n        /* \"#utility.yul\":15149:15155   */\n      dup3\n        /* \"#utility.yul\":15143:15147   */\n      dup6\n        /* \"#utility.yul\":15097:15164   */\n      tag_207\n      jump\t// in\n    tag_367:\n        /* \"#utility.yul\":15191:15192   */\n      0x00\n        /* \"#utility.yul\":15215:15219   */\n      0x20\n        /* \"#utility.yul\":15202:15219   */\n      swap1\n      pop\n        /* \"#utility.yul\":15247:15249   */\n      0x1f\n        /* \"#utility.yul\":15239:15245   */\n      dup4\n        /* \"#utility.yul\":15236:15250   */\n      gt\n        /* \"#utility.yul\":15264:15265   */\n      0x01\n        /* \"#utility.yul\":15259:15877   */\n      dup2\n      eq\n      tag_369\n      jumpi\n        /* \"#utility.yul\":15921:15922   */\n      0x00\n        /* \"#utility.yul\":15938:15944   */\n      dup5\n        /* \"#utility.yul\":15935:16012   */\n      iszero\n      tag_370\n      jumpi\n        /* \"#utility.yul\":15987:15996   */\n      dup3\n        /* \"#utility.yul\":15982:15985   */\n      dup8\n        /* \"#utility.yul\":15978:15997   */\n      add\n        /* \"#utility.yul\":15972:15998   */\n      mload\n        /* \"#utility.yul\":15963:15998   */\n      swap1\n      pop\n        /* \"#utility.yul\":15935:16012   */\n    tag_370:\n        /* \"#utility.yul\":16038:16105   */\n      tag_371\n        /* \"#utility.yul\":16098:16104   */\n      dup6\n        /* \"#utility.yul\":16091:16096   */\n      dup3\n        /* \"#utility.yul\":16038:16105   */\n      tag_210\n      jump\t// in\n    tag_371:\n        /* \"#utility.yul\":16032:16036   */\n      dup7\n        /* \"#utility.yul\":16025:16106   */\n      sstore\n        /* \"#utility.yul\":15894:16116   */\n      pop\n        /* \"#utility.yul\":15229:16116   */\n      jump(tag_368)\n        /* \"#utility.yul\":15259:15877   */\n    tag_369:\n        /* \"#utility.yul\":15311:15315   */\n      0x1f\n        /* \"#utility.yul\":15307:15316   */\n      not\n        /* \"#utility.yul\":15299:15305   */\n      dup5\n        /* \"#utility.yul\":15295:15317   */\n      and\n        /* \"#utility.yul\":15345:15382   */\n      tag_372\n        /* \"#utility.yul\":15377:15381   */\n      dup7\n        /* \"#utility.yul\":15345:15382   */\n      tag_195\n      jump\t// in\n    tag_372:\n        /* \"#utility.yul\":15404:15405   */\n      0x00\n        /* \"#utility.yul\":15418:15626   */\n    tag_373:\n        /* \"#utility.yul\":15432:15439   */\n      dup3\n        /* \"#utility.yul\":15429:15430   */\n      dup2\n        /* \"#utility.yul\":15426:15440   */\n      lt\n        /* \"#utility.yul\":15418:15626   */\n      iszero\n      tag_375\n      jumpi\n        /* \"#utility.yul\":15511:15520   */\n      dup5\n        /* \"#utility.yul\":15506:15509   */\n      dup10\n        /* \"#utility.yul\":15502:15521   */\n      add\n        /* \"#utility.yul\":15496:15522   */\n      mload\n        /* \"#utility.yul\":15488:15494   */\n      dup3\n        /* \"#utility.yul\":15481:15523   */\n      sstore\n        /* \"#utility.yul\":15562:15563   */\n      0x01\n        /* \"#utility.yul\":15554:15560   */\n      dup3\n        /* \"#utility.yul\":15550:15564   */\n      add\n        /* \"#utility.yul\":15540:15564   */\n      swap2\n      pop\n        /* \"#utility.yul\":15609:15611   */\n      0x20\n        /* \"#utility.yul\":15598:15607   */\n      dup6\n        /* \"#utility.yul\":15594:15612   */\n      add\n        /* \"#utility.yul\":15581:15612   */\n      swap5\n      pop\n        /* \"#utility.yul\":15455:15459   */\n      0x20\n        /* \"#utility.yul\":15452:15453   */\n      dup2\n        /* \"#utility.yul\":15448:15460   */\n      add\n        /* \"#utility.yul\":15443:15460   */\n      swap1\n      pop\n        /* \"#utility.yul\":15418:15626   */\n      jump(tag_373)\n    tag_375:\n        /* \"#utility.yul\":15654:15660   */\n      dup7\n        /* \"#utility.yul\":15645:15652   */\n      dup4\n        /* \"#utility.yul\":15642:15661   */\n      lt\n        /* \"#utility.yul\":15639:15818   */\n      iszero\n      tag_376\n      jumpi\n        /* \"#utility.yul\":15712:15721   */\n      dup5\n        /* \"#utility.yul\":15707:15710   */\n      dup10\n        /* \"#utility.yul\":15703:15722   */\n      add\n        /* \"#utility.yul\":15697:15723   */\n      mload\n        /* \"#utility.yul\":15755:15803   */\n      tag_377\n        /* \"#utility.yul\":15797:15801   */\n      0x1f\n        /* \"#utility.yul\":15789:15795   */\n      dup10\n        /* \"#utility.yul\":15785:15802   */\n      and\n        /* \"#utility.yul\":15774:15783   */\n      dup3\n        /* \"#utility.yul\":15755:15803   */\n      tag_209\n      jump\t// in\n    tag_377:\n        /* \"#utility.yul\":15747:15753   */\n      dup4\n        /* \"#utility.yul\":15740:15804   */\n      sstore\n        /* \"#utility.yul\":15662:15818   */\n      pop\n        /* \"#utility.yul\":15639:15818   */\n    tag_376:\n        /* \"#utility.yul\":15864:15865   */\n      0x01\n        /* \"#utility.yul\":15860:15861   */\n      0x02\n        /* \"#utility.yul\":15852:15858   */\n      dup9\n        /* \"#utility.yul\":15848:15862   */\n      mul\n        /* \"#utility.yul\":15844:15866   */\n      add\n        /* \"#utility.yul\":15838:15842   */\n      dup9\n        /* \"#utility.yul\":15831:15867   */\n      sstore\n        /* \"#utility.yul\":15266:15877   */\n      pop\n      pop\n      pop\n        /* \"#utility.yul\":15229:16116   */\n    tag_368:\n      pop\n        /* \"#utility.yul\":14819:16122   */\n      pop\n      pop\n      pop\n        /* \"#utility.yul\":14727:16122   */\n      pop\n      pop\n      jump\t// out\n        /* \"#utility.yul\":16128:16218   */\n    tag_211:\n        /* \"#utility.yul\":16162:16169   */\n      0x00\n        /* \"#utility.yul\":16205:16210   */\n      dup2\n        /* \"#utility.yul\":16198:16211   */\n      iszero\n        /* \"#utility.yul\":16191:16212   */\n      iszero\n        /* \"#utility.yul\":16180:16212   */\n      swap1\n      pop\n        /* \"#utility.yul\":16128:16218   */\n      swap2\n      swap1\n      pop\n      jump\t// out\n        /* \"#utility.yul\":16224:16333   */\n    tag_212:\n        /* \"#utility.yul\":16305:16326   */\n      tag_380\n        /* \"#utility.yul\":16320:16325   */\n      dup2\n        /* \"#utility.yul\":16305:16326   */\n      tag_211\n      jump\t// in\n    tag_380:\n        /* \"#utility.yul\":16300:16303   */\n      dup3\n        /* \"#utility.yul\":16293:16327   */\n      mstore\n        /* \"#utility.yul\":16224:16333   */\n      pop\n      pop\n      jump\t// out\n        /* \"#utility.yul\":16339:16750   */\n    tag_89:\n        /* \"#utility.yul\":16474:16478   */\n      0x00\n        /* \"#utility.yul\":16512:16514   */\n      0x40\n        /* \"#utility.yul\":16501:16510   */\n      dup3\n        /* \"#utility.yul\":16497:16515   */\n      add\n        /* \"#utility.yul\":16489:16515   */\n      swap1\n      pop\n        /* \"#utility.yul\":16561:16570   */\n      dup2\n        /* \"#utility.yul\":16555:16559   */\n      dup2\n        /* \"#utility.yul\":16551:16571   */\n      sub\n        /* \"#utility.yul\":16547:16548   */\n      0x00\n        /* \"#utility.yul\":16536:16545   */\n      dup4\n        /* \"#utility.yul\":16532:16549   */\n      add\n        /* \"#utility.yul\":16525:16572   */\n      mstore\n        /* \"#utility.yul\":16589:16667   */\n      tag_382\n        /* \"#utility.yul\":16662:16666   */\n      dup2\n        /* \"#utility.yul\":16653:16659   */\n      dup6\n        /* \"#utility.yul\":16589:16667   */\n      tag_187\n      jump\t// in\n    tag_382:\n        /* \"#utility.yul\":16581:16667   */\n      swap1\n      pop\n        /* \"#utility.yul\":16677:16743   */\n      tag_383\n        /* \"#utility.yul\":16739:16741   */\n      0x20\n        /* \"#utility.yul\":16728:16737   */\n      dup4\n        /* \"#utility.yul\":16724:16742   */\n      add\n        /* \"#utility.yul\":16715:16721   */\n      dup5\n        /* \"#utility.yul\":16677:16743   */\n      tag_212\n      jump\t// in\n    tag_383:\n        /* \"#utility.yul\":16339:16750   */\n      swap4\n      swap3\n      pop\n      pop\n      pop\n      jump\t// out\n        /* \"#utility.yul\":16756:16932   */\n    tag_213:\n        /* \"#utility.yul\":16896:16924   */\n      0x50726976617465206b657920616c7265616479206d6170706564000000000000\n        /* \"#utility.yul\":16892:16893   */\n      0x00\n        /* \"#utility.yul\":16884:16890   */\n      dup3\n        /* \"#utility.yul\":16880:16894   */\n      add\n        /* \"#utility.yul\":16873:16925   */\n      mstore\n        /* \"#utility.yul\":16756:16932   */\n      pop\n      jump\t// out\n        /* \"#utility.yul\":16938:17304   */\n    tag_214:\n        /* \"#utility.yul\":17080:17083   */\n      0x00\n        /* \"#utility.yul\":17101:17168   */\n      tag_386\n        /* \"#utility.yul\":17165:17167   */\n      0x1a\n        /* \"#utility.yul\":17160:17163   */\n      dup4\n        /* \"#utility.yul\":17101:17168   */\n      tag_185\n      jump\t// in\n    tag_386:\n        /* \"#utility.yul\":17094:17168   */\n      swap2\n      pop\n        /* \"#utility.yul\":17177:17270   */\n      tag_387\n        /* \"#utility.yul\":17266:17269   */\n      dup3\n        /* \"#utility.yul\":17177:17270   */\n      tag_213\n      jump\t// in\n    tag_387:\n        /* \"#utility.yul\":17295:17297   */\n      0x20\n        /* \"#utility.yul\":17290:17293   */\n      dup3\n        /* \"#utility.yul\":17286:17298   */\n      add\n        /* \"#utility.yul\":17279:17298   */\n      swap1\n      pop\n        /* \"#utility.yul\":16938:17304   */\n      swap2\n      swap1\n      pop\n      jump\t// out\n        /* \"#utility.yul\":17310:17729   */\n    tag_100:\n        /* \"#utility.yul\":17476:17480   */\n      0x00\n        /* \"#utility.yul\":17514:17516   */\n      0x20\n        /* \"#utility.yul\":17503:17512   */\n      dup3\n        /* \"#utility.yul\":17499:17517   */\n      add\n        /* \"#utility.yul\":17491:17517   */\n      swap1\n      pop\n        /* \"#utility.yul\":17563:17572   */\n      dup2\n        /* \"#utility.yul\":17557:17561   */\n      dup2\n        /* \"#utility.yul\":17553:17573   */\n      sub\n        /* \"#utility.yul\":17549:17550   */\n      0x00\n        /* \"#utility.yul\":17538:17547   */\n      dup4\n        /* \"#utility.yul\":17534:17551   */\n      add\n        /* \"#utility.yul\":17527:17574   */\n      mstore\n        /* \"#utility.yul\":17591:17722   */\n      tag_389\n        /* \"#utility.yul\":17717:17721   */\n      dup2\n        /* \"#utility.yul\":17591:17722   */\n      tag_214\n      jump\t// in\n    tag_389:\n        /* \"#utility.yul\":17583:17722   */\n      swap1\n      pop\n        /* \"#utility.yul\":17310:17729   */\n      swap2\n      swap1\n      pop\n      jump\t// out\n\n    auxdata: 0xa264697066735822122074e4791819ec038e196e6759a5efa9b4fe56773b1570191f86ccce072d45484e64736f6c63430008160033\n}\n",
				"bytecode": {
					"linkReferences": {},
					"object": "608060405234801561000f575f80fd5b506116448061001d5f395ff3fe608060405234801561000f575f80fd5b50600436106100b2575f3560e01c80638c9a2e921161006f5780638c9a2e9214610176578063beb8727f146101a6578063bf501844146101d6578063ccca8f2214610206578063ee7476d514610236578063f7ffd62514610252576100b2565b806301dadb2b146100b65780630d60fafd146100d257806327897557146100ee5780635a7fb9d71461010a578063689e1c0314610126578063892d069c1461015a575b5f80fd5b6100d060048036038101906100cb9190610e70565b610282565b005b6100ec60048036038101906100e79190610fa1565b610425565b005b61010860048036038101906101039190610fa1565b6104a7565b005b610124600480360381019061011f9190610fa1565b610529565b005b610140600480360381019061013b9190611017565b6105c5565b6040516101519594939291906110d8565b60405180910390f35b610174600480360381019061016f9190610fa1565b6108ac565b005b610190600480360381019061018b9190611017565b61092e565b60405161019d919061114c565b60405180910390f35b6101c060048036038101906101bb9190611017565b6109de565b6040516101cd919061114c565b60405180910390f35b6101f060048036038101906101eb9190611017565b610a8e565b6040516101fd919061114c565b60405180910390f35b610220600480360381019061021b9190611017565b610b41565b60405161022d919061114c565b60405180910390f35b610250600480360381019061024b9190610fa1565b610bf1565b005b61026c60048036038101906102679190611017565b610c73565b604051610279919061114c565b60405180910390f35b5f808760405161029291906111a6565b90815260200160405180910390205f0180546102ad906111e9565b9050146102ef576040517f08c379a00000000000000000000000000000000000000000000000000000000081526004016102e690611263565b60405180910390fd5b5f60018260405161030091906111a6565b90815260200160405180910390208054610319906111e9565b90501461035b576040517f08c379a0000000000000000000000000000000000000000000000000000000008152600401610352906112cb565b60405180910390fd5b5f6040518060a00160405280888152602001878152602001868152602001858152602001848152509050805f8860405161039591906111a6565b90815260200160405180910390205f820151815f0190816103b6919061148f565b5060208201518160010190816103cc919061148f565b5060408201518160020190816103e2919061148f565b5060608201518160030190816103f8919061148f565b50608082015181600401908161040e919061148f565b5090505061041c8288610529565b50505050505050565b805f8360405161043591906111a6565b90815260200160405180910390206003019081610452919061148f565b508160405161046191906111a6565b60405180910390207fa44feca31ca2b9cda9b6dec473fbbc131c350db90a2f95915bcd051cdc5e10ba82600160405161049b929190611578565b60405180910390a25050565b805f836040516104b791906111a6565b908152602001604051809103902060010190816104d4919061148f565b50816040516104e391906111a6565b60405180910390207fa76f1708714ecb5aed9ae4c006eafbf67941b726bb287f861c599f2286fdf77882600160405161051d929190611578565b60405180910390a25050565b5f60018360405161053a91906111a6565b90815260200160405180910390208054610553906111e9565b905014610595576040517f08c379a000000000000000000000000000000000000000000000000000000000815260040161058c906115f0565b60405180910390fd5b806001836040516105a691906111a6565b908152602001604051809103902090816105c0919061148f565b505050565b5f818051602081018201805184825260208301602085012081835280955050505050505f91509050805f0180546105fb906111e9565b80601f0160208091040260200160405190810160405280929190818152602001828054610627906111e9565b80156106725780601f1061064957610100808354040283529160200191610672565b820191905f5260205f20905b81548152906001019060200180831161065557829003601f168201915b505050505090806001018054610687906111e9565b80601f01602080910402602001604051908101604052809291908181526020018280546106b3906111e9565b80156106fe5780601f106106d5576101008083540402835291602001916106fe565b820191905f5260205f20905b8154815290600101906020018083116106e157829003601f168201915b505050505090806002018054610713906111e9565b80601f016020809104026020016040519081016040528092919081815260200182805461073f906111e9565b801561078a5780601f106107615761010080835404028352916020019161078a565b820191905f5260205f20905b81548152906001019060200180831161076d57829003601f168201915b50505050509080600301805461079f906111e9565b80601f01602080910402602001604051908101604052809291908181526020018280546107cb906111e9565b80156108165780601f106107ed57610100808354040283529160200191610816565b820191905f5260205f20905b8154815290600101906020018083116107f957829003601f168201915b50505050509080600401805461082b906111e9565b80601f0160208091040260200160405190810160405280929190818152602001828054610857906111e9565b80156108a25780601f10610879576101008083540402835291602001916108a2565b820191905f5260205f20905b81548152906001019060200180831161088557829003601f168201915b5050505050905085565b805f836040516108bc91906111a6565b908152602001604051809103902060020190816108d9919061148f565b50816040516108e891906111a6565b60405180910390207f480bdec02bf73c6c075a8db62d725863401ec6d719a3ff0c25b87ac13569c5f2826001604051610922929190611578565b60405180910390a25050565b60605f8260405161093f91906111a6565b9081526020016040518091039020600101805461095b906111e9565b80601f0160208091040260200160405190810160405280929190818152602001828054610987906111e9565b80156109d25780601f106109a9576101008083540402835291602001916109d2565b820191905f5260205f20905b8154815290600101906020018083116109b557829003601f168201915b50505050509050919050565b60605f826040516109ef91906111a6565b90815260200160405180910390206004018054610a0b906111e9565b80601f0160208091040260200160405190810160405280929190818152602001828054610a37906111e9565b8015610a825780601f10610a5957610100808354040283529160200191610a82565b820191905f5260205f20905b815481529060010190602001808311610a6557829003601f168201915b50505050509050919050565b6001818051602081018201805184825260208301602085012081835280955050505050505f915090508054610ac2906111e9565b80601f0160208091040260200160405190810160405280929190818152602001828054610aee906111e9565b8015610b395780601f10610b1057610100808354040283529160200191610b39565b820191905f5260205f20905b815481529060010190602001808311610b1c57829003601f168201915b505050505081565b60605f82604051610b5291906111a6565b90815260200160405180910390206003018054610b6e906111e9565b80601f0160208091040260200160405190810160405280929190818152602001828054610b9a906111e9565b8015610be55780601f10610bbc57610100808354040283529160200191610be5565b820191905f5260205f20905b815481529060010190602001808311610bc857829003601f168201915b50505050509050919050565b805f83604051610c0191906111a6565b90815260200160405180910390206004019081610c1e919061148f565b5081604051610c2d91906111a6565b60405180910390207fae584fab5e8f7cfd659e7b4c2d09184ef8d88c791a136a070039ae4c135b8ec7826001604051610c67929190611578565b60405180910390a25050565b60605f82604051610c8491906111a6565b90815260200160405180910390206002018054610ca0906111e9565b80601f0160208091040260200160405190810160405280929190818152602001828054610ccc906111e9565b8015610d175780601f10610cee57610100808354040283529160200191610d17565b820191905f5260205f20905b815481529060010190602001808311610cfa57829003601f168201915b50505050509050919050565b5f604051905090565b5f80fd5b5f80fd5b5f80fd5b5f80fd5b5f601f19601f8301169050919050565b7f4e487b71000000000000000000000000000000000000000000000000000000005f52604160045260245ffd5b610d8282610d3c565b810181811067ffffffffffffffff82111715610da157610da0610d4c565b5b80604052505050565b5f610db3610d23565b9050610dbf8282610d79565b919050565b5f67ffffffffffffffff821115610dde57610ddd610d4c565b5b610de782610d3c565b9050602081019050919050565b828183375f83830152505050565b5f610e14610e0f84610dc4565b610daa565b905082815260208101848484011115610e3057610e2f610d38565b5b610e3b848285610df4565b509392505050565b5f82601f830112610e5757610e56610d34565b5b8135610e67848260208601610e02565b91505092915050565b5f805f805f8060c08789031215610e8a57610e89610d2c565b5b5f87013567ffffffffffffffff811115610ea757610ea6610d30565b5b610eb389828a01610e43565b965050602087013567ffffffffffffffff811115610ed457610ed3610d30565b5b610ee089828a01610e43565b955050604087013567ffffffffffffffff811115610f0157610f00610d30565b5b610f0d89828a01610e43565b945050606087013567ffffffffffffffff811115610f2e57610f2d610d30565b5b610f3a89828a01610e43565b935050608087013567ffffffffffffffff811115610f5b57610f5a610d30565b5b610f6789828a01610e43565b92505060a087013567ffffffffffffffff811115610f8857610f87610d30565b5b610f9489828a01610e43565b9150509295509295509295565b5f8060408385031215610fb757610fb6610d2c565b5b5f83013567ffffffffffffffff811115610fd457610fd3610d30565b5b610fe085828601610e43565b925050602083013567ffffffffffffffff81111561100157611000610d30565b5b61100d85828601610e43565b9150509250929050565b5f6020828403121561102c5761102b610d2c565b5b5f82013567ffffffffffffffff81111561104957611048610d30565b5b61105584828501610e43565b91505092915050565b5f81519050919050565b5f82825260208201905092915050565b5f5b8381101561109557808201518184015260208101905061107a565b5f8484015250505050565b5f6110aa8261105e565b6110b48185611068565b93506110c4818560208601611078565b6110cd81610d3c565b840191505092915050565b5f60a0820190508181035f8301526110f081886110a0565b9050818103602083015261110481876110a0565b9050818103604083015261111881866110a0565b9050818103606083015261112c81856110a0565b9050818103608083015261114081846110a0565b90509695505050505050565b5f6020820190508181035f83015261116481846110a0565b905092915050565b5f81905092915050565b5f6111808261105e565b61118a818561116c565b935061119a818560208601611078565b80840191505092915050565b5f6111b18284611176565b915081905092915050565b7f4e487b71000000000000000000000000000000000000000000000000000000005f52602260045260245ffd5b5f600282049050600182168061120057607f821691505b602082108103611213576112126111bc565b5b50919050565b7f5573657220616c726561647920657869737473000000000000000000000000005f82015250565b5f61124d601383611068565b915061125882611219565b602082019050919050565b5f6020820190508181035f83015261127a81611241565b9050919050565b7f50726976617465206b657920616c726561647920696e207573650000000000005f82015250565b5f6112b5601a83611068565b91506112c082611281565b602082019050919050565b5f6020820190508181035f8301526112e2816112a9565b9050919050565b5f819050815f5260205f209050919050565b5f6020601f8301049050919050565b5f82821b905092915050565b5f600883026113457fffffffffffffffffffffffffffffffffffffffffffffffffffffffffffffffff8261130a565b61134f868361130a565b95508019841693508086168417925050509392505050565b5f819050919050565b5f819050919050565b5f61139361138e61138984611367565b611370565b611367565b9050919050565b5f819050919050565b6113ac83611379565b6113c06113b88261139a565b848454611316565b825550505050565b5f90565b6113d46113c8565b6113df8184846113a3565b505050565b5b81811015611402576113f75f826113cc565b6001810190506113e5565b5050565b601f82111561144757611418816112e9565b611421846112fb565b81016020851015611430578190505b61144461143c856112fb565b8301826113e4565b50505b505050565b5f82821c905092915050565b5f6114675f198460080261144c565b1980831691505092915050565b5f61147f8383611458565b9150826002028217905092915050565b6114988261105e565b67ffffffffffffffff8111156114b1576114b0610d4c565b5b6114bb82546111e9565b6114c6828285611406565b5f60209050601f8311600181146114f7575f84156114e5578287015190505b6114ef8582611474565b865550611556565b601f198416611505866112e9565b5f5b8281101561152c57848901518255600182019150602085019450602081019050611507565b868310156115495784890151611545601f891682611458565b8355505b6001600288020188555050505b505050505050565b5f8115159050919050565b6115728161155e565b82525050565b5f6040820190508181035f83015261159081856110a0565b905061159f6020830184611569565b9392505050565b7f50726976617465206b657920616c7265616479206d61707065640000000000005f82015250565b5f6115da601a83611068565b91506115e5826115a6565b602082019050919050565b5f6020820190508181035f830152611607816115ce565b905091905056fea264697066735822122074e4791819ec038e196e6759a5efa9b4fe56773b1570191f86ccce072d45484e64736f6c63430008160033",
					"opcodes": "PUSH1 0x80 PUSH1 0x40 MSTORE CALLVALUE DUP1 ISZERO PUSH2 0xF JUMPI PUSH0 DUP1 REVERT JUMPDEST POP PUSH2 0x1644 DUP1 PUSH2 0x1D PUSH0 CODECOPY PUSH0 RETURN INVALID PUSH1 0x80 PUSH1 0x40 MSTORE CALLVALUE DUP1 ISZERO PUSH2 0xF JUMPI PUSH0 DUP1 REVERT JUMPDEST POP PUSH1 0x4 CALLDATASIZE LT PUSH2 0xB2 JUMPI PUSH0 CALLDATALOAD PUSH1 0xE0 SHR DUP1 PUSH4 0x8C9A2E92 GT PUSH2 0x6F JUMPI DUP1 PUSH4 0x8C9A2E92 EQ PUSH2 0x176 JUMPI DUP1 PUSH4 0xBEB8727F EQ PUSH2 0x1A6 JUMPI DUP1 PUSH4 0xBF501844 EQ PUSH2 0x1D6 JUMPI DUP1 PUSH4 0xCCCA8F22 EQ PUSH2 0x206 JUMPI DUP1 PUSH4 0xEE7476D5 EQ PUSH2 0x236 JUMPI DUP1 PUSH4 0xF7FFD625 EQ PUSH2 0x252 JUMPI PUSH2 0xB2 JUMP JUMPDEST DUP1 PUSH4 0x1DADB2B EQ PUSH2 0xB6 JUMPI DUP1 PUSH4 0xD60FAFD EQ PUSH2 0xD2 JUMPI DUP1 PUSH4 0x27897557 EQ PUSH2 0xEE JUMPI DUP1 PUSH4 0x5A7FB9D7 EQ PUSH2 0x10A JUMPI DUP1 PUSH4 0x689E1C03 EQ PUSH2 0x126 JUMPI DUP1 PUSH4 0x892D069C EQ PUSH2 0x15A JUMPI JUMPDEST PUSH0 DUP1 REVERT JUMPDEST PUSH2 0xD0 PUSH1 0x4 DUP1 CALLDATASIZE SUB DUP2 ADD SWAP1 PUSH2 0xCB SWAP2 SWAP1 PUSH2 0xE70 JUMP JUMPDEST PUSH2 0x282 JUMP JUMPDEST STOP JUMPDEST PUSH2 0xEC PUSH1 0x4 DUP1 CALLDATASIZE SUB DUP2 ADD SWAP1 PUSH2 0xE7 SWAP2 SWAP1 PUSH2 0xFA1 JUMP JUMPDEST PUSH2 0x425 JUMP JUMPDEST STOP JUMPDEST PUSH2 0x108 PUSH1 0x4 DUP1 CALLDATASIZE SUB DUP2 ADD SWAP1 PUSH2 0x103 SWAP2 SWAP1 PUSH2 0xFA1 JUMP JUMPDEST PUSH2 0x4A7 JUMP JUMPDEST STOP JUMPDEST PUSH2 0x124 PUSH1 0x4 DUP1 CALLDATASIZE SUB DUP2 ADD SWAP1 PUSH2 0x11F SWAP2 SWAP1 PUSH2 0xFA1 JUMP JUMPDEST PUSH2 0x529 JUMP JUMPDEST STOP JUMPDEST PUSH2 0x140 PUSH1 0x4 DUP1 CALLDATASIZE SUB DUP2 ADD SWAP1 PUSH2 0x13B SWAP2 SWAP1 PUSH2 0x1017 JUMP JUMPDEST PUSH2 0x5C5 JUMP JUMPDEST PUSH1 0x40 MLOAD PUSH2 0x151 SWAP6 SWAP5 SWAP4 SWAP3 SWAP2 SWAP1 PUSH2 0x10D8 JUMP JUMPDEST PUSH1 0x40 MLOAD DUP1 SWAP2 SUB SWAP1 RETURN JUMPDEST PUSH2 0x174 PUSH1 0x4 DUP1 CALLDATASIZE SUB DUP2 ADD SWAP1 PUSH2 0x16F SWAP2 SWAP1 PUSH2 0xFA1 JUMP JUMPDEST PUSH2 0x8AC JUMP JUMPDEST STOP JUMPDEST PUSH2 0x190 PUSH1 0x4 DUP1 CALLDATASIZE SUB DUP2 ADD SWAP1 PUSH2 0x18B SWAP2 SWAP1 PUSH2 0x1017 JUMP JUMPDEST PUSH2 0x92E JUMP JUMPDEST PUSH1 0x40 MLOAD PUSH2 0x19D SWAP2 SWAP1 PUSH2 0x114C JUMP JUMPDEST PUSH1 0x40 MLOAD DUP1 SWAP2 SUB SWAP1 RETURN JUMPDEST PUSH2 0x1C0 PUSH1 0x4 DUP1 CALLDATASIZE SUB DUP2 ADD SWAP1 PUSH2 0x1BB SWAP2 SWAP1 PUSH2 0x1017 JUMP JUMPDEST PUSH2 0x9DE JUMP JUMPDEST PUSH1 0x40 MLOAD PUSH2 0x1CD SWAP2 SWAP1 PUSH2 0x114C JUMP JUMPDEST PUSH1 0x40 MLOAD DUP1 SWAP2 SUB SWAP1 RETURN JUMPDEST PUSH2 0x1F0 PUSH1 0x4 DUP1 CALLDATASIZE SUB DUP2 ADD SWAP1 PUSH2 0x1EB SWAP2 SWAP1 PUSH2 0x1017 JUMP JUMPDEST PUSH2 0xA8E JUMP JUMPDEST PUSH1 0x40 MLOAD PUSH2 0x1FD SWAP2 SWAP1 PUSH2 0x114C JUMP JUMPDEST PUSH1 0x40 MLOAD DUP1 SWAP2 SUB SWAP1 RETURN JUMPDEST PUSH2 0x220 PUSH1 0x4 DUP1 CALLDATASIZE SUB DUP2 ADD SWAP1 PUSH2 0x21B SWAP2 SWAP1 PUSH2 0x1017 JUMP JUMPDEST PUSH2 0xB41 JUMP JUMPDEST PUSH1 0x40 MLOAD PUSH2 0x22D SWAP2 SWAP1 PUSH2 0x114C JUMP JUMPDEST PUSH1 0x40 MLOAD DUP1 SWAP2 SUB SWAP1 RETURN JUMPDEST PUSH2 0x250 PUSH1 0x4 DUP1 CALLDATASIZE SUB DUP2 ADD SWAP1 PUSH2 0x24B SWAP2 SWAP1 PUSH2 0xFA1 JUMP JUMPDEST PUSH2 0xBF1 JUMP JUMPDEST STOP JUMPDEST PUSH2 0x26C PUSH1 0x4 DUP1 CALLDATASIZE SUB DUP2 ADD SWAP1 PUSH2 0x267 SWAP2 SWAP1 PUSH2 0x1017 JUMP JUMPDEST PUSH2 0xC73 JUMP JUMPDEST PUSH1 0x40 MLOAD PUSH2 0x279 SWAP2 SWAP1 PUSH2 0x114C JUMP JUMPDEST PUSH1 0x40 MLOAD DUP1 SWAP2 SUB SWAP1 RETURN JUMPDEST PUSH0 DUP1 DUP8 PUSH1 0x40 MLOAD PUSH2 0x292 SWAP2 SWAP1 PUSH2 0x11A6 JUMP JUMPDEST SWAP1 DUP2 MSTORE PUSH1 0x20 ADD PUSH1 0x40 MLOAD DUP1 SWAP2 SUB SWAP1 KECCAK256 PUSH0 ADD DUP1 SLOAD PUSH2 0x2AD SWAP1 PUSH2 0x11E9 JUMP JUMPDEST SWAP1 POP EQ PUSH2 0x2EF JUMPI PUSH1 0x40 MLOAD PUSH32 0x8C379A000000000000000000000000000000000000000000000000000000000 DUP2 MSTORE PUSH1 0x4 ADD PUSH2 0x2E6 SWAP1 PUSH2 0x1263 JUMP JUMPDEST PUSH1 0x40 MLOAD DUP1 SWAP2 SUB SWAP1 REVERT JUMPDEST PUSH0 PUSH1 0x1 DUP3 PUSH1 0x40 MLOAD PUSH2 0x300 SWAP2 SWAP1 PUSH2 0x11A6 JUMP JUMPDEST SWAP1 DUP2 MSTORE PUSH1 0x20 ADD PUSH1 0x40 MLOAD DUP1 SWAP2 SUB SWAP1 KECCAK256 DUP1 SLOAD PUSH2 0x319 SWAP1 PUSH2 0x11E9 JUMP JUMPDEST SWAP1 POP EQ PUSH2 0x35B JUMPI PUSH1 0x40 MLOAD PUSH32 0x8C379A000000000000000000000000000000000000000000000000000000000 DUP2 MSTORE PUSH1 0x4 ADD PUSH2 0x352 SWAP1 PUSH2 0x12CB JUMP JUMPDEST PUSH1 0x40 MLOAD DUP1 SWAP2 SUB SWAP1 REVERT JUMPDEST PUSH0 PUSH1 0x40 MLOAD DUP1 PUSH1 0xA0 ADD PUSH1 0x40 MSTORE DUP1 DUP9 DUP2 MSTORE PUSH1 0x20 ADD DUP8 DUP2 MSTORE PUSH1 0x20 ADD DUP7 DUP2 MSTORE PUSH1 0x20 ADD DUP6 DUP2 MSTORE PUSH1 0x20 ADD DUP5 DUP2 MSTORE POP SWAP1 POP DUP1 PUSH0 DUP9 PUSH1 0x40 MLOAD PUSH2 0x395 SWAP2 SWAP1 PUSH2 0x11A6 JUMP JUMPDEST SWAP1 DUP2 MSTORE PUSH1 0x20 ADD PUSH1 0x40 MLOAD DUP1 SWAP2 SUB SWAP1 KECCAK256 PUSH0 DUP3 ADD MLOAD DUP2 PUSH0 ADD SWAP1 DUP2 PUSH2 0x3B6 SWAP2 SWAP1 PUSH2 0x148F JUMP JUMPDEST POP PUSH1 0x20 DUP3 ADD MLOAD DUP2 PUSH1 0x1 ADD SWAP1 DUP2 PUSH2 0x3CC SWAP2 SWAP1 PUSH2 0x148F JUMP JUMPDEST POP PUSH1 0x40 DUP3 ADD MLOAD DUP2 PUSH1 0x2 ADD SWAP1 DUP2 PUSH2 0x3E2 SWAP2 SWAP1 PUSH2 0x148F JUMP JUMPDEST POP PUSH1 0x60 DUP3 ADD MLOAD DUP2 PUSH1 0x3 ADD SWAP1 DUP2 PUSH2 0x3F8 SWAP2 SWAP1 PUSH2 0x148F JUMP JUMPDEST POP PUSH1 0x80 DUP3 ADD MLOAD DUP2 PUSH1 0x4 ADD SWAP1 DUP2 PUSH2 0x40E SWAP2 SWAP1 PUSH2 0x148F JUMP JUMPDEST POP SWAP1 POP POP PUSH2 0x41C DUP3 DUP9 PUSH2 0x529 JUMP JUMPDEST POP POP POP POP POP POP POP JUMP JUMPDEST DUP1 PUSH0 DUP4 PUSH1 0x40 MLOAD PUSH2 0x435 SWAP2 SWAP1 PUSH2 0x11A6 JUMP JUMPDEST SWAP1 DUP2 MSTORE PUSH1 0x20 ADD PUSH1 0x40 MLOAD DUP1 SWAP2 SUB SWAP1 KECCAK256 PUSH1 0x3 ADD SWAP1 DUP2 PUSH2 0x452 SWAP2 SWAP1 PUSH2 0x148F JUMP JUMPDEST POP DUP2 PUSH1 0x40 MLOAD PUSH2 0x461 SWAP2 SWAP1 PUSH2 0x11A6 JUMP JUMPDEST PUSH1 0x40 MLOAD DUP1 SWAP2 SUB SWAP1 KECCAK256 PUSH32 0xA44FECA31CA2B9CDA9B6DEC473FBBC131C350DB90A2F95915BCD051CDC5E10BA DUP3 PUSH1 0x1 PUSH1 0x40 MLOAD PUSH2 0x49B SWAP3 SWAP2 SWAP1 PUSH2 0x1578 JUMP JUMPDEST PUSH1 0x40 MLOAD DUP1 SWAP2 SUB SWAP1 LOG2 POP POP JUMP JUMPDEST DUP1 PUSH0 DUP4 PUSH1 0x40 MLOAD PUSH2 0x4B7 SWAP2 SWAP1 PUSH2 0x11A6 JUMP JUMPDEST SWAP1 DUP2 MSTORE PUSH1 0x20 ADD PUSH1 0x40 MLOAD DUP1 SWAP2 SUB SWAP1 KECCAK256 PUSH1 0x1 ADD SWAP1 DUP2 PUSH2 0x4D4 SWAP2 SWAP1 PUSH2 0x148F JUMP JUMPDEST POP DUP2 PUSH1 0x40 MLOAD PUSH2 0x4E3 SWAP2 SWAP1 PUSH2 0x11A6 JUMP JUMPDEST PUSH1 0x40 MLOAD DUP1 SWAP2 SUB SWAP1 KECCAK256 PUSH32 0xA76F1708714ECB5AED9AE4C006EAFBF67941B726BB287F861C599F2286FDF778 DUP3 PUSH1 0x1 PUSH1 0x40 MLOAD PUSH2 0x51D SWAP3 SWAP2 SWAP1 PUSH2 0x1578 JUMP JUMPDEST PUSH1 0x40 MLOAD DUP1 SWAP2 SUB SWAP1 LOG2 POP POP JUMP JUMPDEST PUSH0 PUSH1 0x1 DUP4 PUSH1 0x40 MLOAD PUSH2 0x53A SWAP2 SWAP1 PUSH2 0x11A6 JUMP JUMPDEST SWAP1 DUP2 MSTORE PUSH1 0x20 ADD PUSH1 0x40 MLOAD DUP1 SWAP2 SUB SWAP1 KECCAK256 DUP1 SLOAD PUSH2 0x553 SWAP1 PUSH2 0x11E9 JUMP JUMPDEST SWAP1 POP EQ PUSH2 0x595 JUMPI PUSH1 0x40 MLOAD PUSH32 0x8C379A000000000000000000000000000000000000000000000000000000000 DUP2 MSTORE PUSH1 0x4 ADD PUSH2 0x58C SWAP1 PUSH2 0x15F0 JUMP JUMPDEST PUSH1 0x40 MLOAD DUP1 SWAP2 SUB SWAP1 REVERT JUMPDEST DUP1 PUSH1 0x1 DUP4 PUSH1 0x40 MLOAD PUSH2 0x5A6 SWAP2 SWAP1 PUSH2 0x11A6 JUMP JUMPDEST SWAP1 DUP2 MSTORE PUSH1 0x20 ADD PUSH1 0x40 MLOAD DUP1 SWAP2 SUB SWAP1 KECCAK256 SWAP1 DUP2 PUSH2 0x5C0 SWAP2 SWAP1 PUSH2 0x148F JUMP JUMPDEST POP POP POP JUMP JUMPDEST PUSH0 DUP2 DUP1 MLOAD PUSH1 0x20 DUP2 ADD DUP3 ADD DUP1 MLOAD DUP5 DUP3 MSTORE PUSH1 0x20 DUP4 ADD PUSH1 0x20 DUP6 ADD KECCAK256 DUP2 DUP4 MSTORE DUP1 SWAP6 POP POP POP POP POP POP PUSH0 SWAP2 POP SWAP1 POP DUP1 PUSH0 ADD DUP1 SLOAD PUSH2 0x5FB SWAP1 PUSH2 0x11E9 JUMP JUMPDEST DUP1 PUSH1 0x1F ADD PUSH1 0x20 DUP1 SWAP2 DIV MUL PUSH1 0x20 ADD PUSH1 0x40 MLOAD SWAP1 DUP2 ADD PUSH1 0x40 MSTORE DUP1 SWAP3 SWAP2 SWAP1 DUP2 DUP2 MSTORE PUSH1 0x20 ADD DUP3 DUP1 SLOAD PUSH2 0x627 SWAP1 PUSH2 0x11E9 JUMP JUMPDEST DUP1 ISZERO PUSH2 0x672 JUMPI DUP1 PUSH1 0x1F LT PUSH2 0x649 JUMPI PUSH2 0x100 DUP1 DUP4 SLOAD DIV MUL DUP4 MSTORE SWAP2 PUSH1 0x20 ADD SWAP2 PUSH2 0x672 JUMP JUMPDEST DUP3 ADD SWAP2 SWAP1 PUSH0 MSTORE PUSH1 0x20 PUSH0 KECCAK256 SWAP1 JUMPDEST DUP2 SLOAD DUP2 MSTORE SWAP1 PUSH1 0x1 ADD SWAP1 PUSH1 0x20 ADD DUP1 DUP4 GT PUSH2 0x655 JUMPI DUP3 SWAP1 SUB PUSH1 0x1F AND DUP3 ADD SWAP2 JUMPDEST POP POP POP POP POP SWAP1 DUP1 PUSH1 0x1 ADD DUP1 SLOAD PUSH2 0x687 SWAP1 PUSH2 0x11E9 JUMP JUMPDEST DUP1 PUSH1 0x1F ADD PUSH1 0x20 DUP1 SWAP2 DIV MUL PUSH1 0x20 ADD PUSH1 0x40 MLOAD SWAP1 DUP2 ADD PUSH1 0x40 MSTORE DUP1 SWAP3 SWAP2 SWAP1 DUP2 DUP2 MSTORE PUSH1 0x20 ADD DUP3 DUP1 SLOAD PUSH2 0x6B3 SWAP1 PUSH2 0x11E9 JUMP JUMPDEST DUP1 ISZERO PUSH2 0x6FE JUMPI DUP1 PUSH1 0x1F LT PUSH2 0x6D5 JUMPI PUSH2 0x100 DUP1 DUP4 SLOAD DIV MUL DUP4 MSTORE SWAP2 PUSH1 0x20 ADD SWAP2 PUSH2 0x6FE JUMP JUMPDEST DUP3 ADD SWAP2 SWAP1 PUSH0 MSTORE PUSH1 0x20 PUSH0 KECCAK256 SWAP1 JUMPDEST DUP2 SLOAD DUP2 MSTORE SWAP1 PUSH1 0x1 ADD SWAP1 PUSH1 0x20 ADD DUP1 DUP4 GT PUSH2 0x6E1 JUMPI DUP3 SWAP1 SUB PUSH1 0x1F AND DUP3 ADD SWAP2 JUMPDEST POP POP POP POP POP SWAP1 DUP1 PUSH1 0x2 ADD DUP1 SLOAD PUSH2 0x713 SWAP1 PUSH2 0x11E9 JUMP JUMPDEST DUP1 PUSH1 0x1F ADD PUSH1 0x20 DUP1 SWAP2 DIV MUL PUSH1 0x20 ADD PUSH1 0x40 MLOAD SWAP1 DUP2 ADD PUSH1 0x40 MSTORE DUP1 SWAP3 SWAP2 SWAP1 DUP2 DUP2 MSTORE PUSH1 0x20 ADD DUP3 DUP1 SLOAD PUSH2 0x73F SWAP1 PUSH2 0x11E9 JUMP JUMPDEST DUP1 ISZERO PUSH2 0x78A JUMPI DUP1 PUSH1 0x1F LT PUSH2 0x761 JUMPI PUSH2 0x100 DUP1 DUP4 SLOAD DIV MUL DUP4 MSTORE SWAP2 PUSH1 0x20 ADD SWAP2 PUSH2 0x78A JUMP JUMPDEST DUP3 ADD SWAP2 SWAP1 PUSH0 MSTORE PUSH1 0x20 PUSH0 KECCAK256 SWAP1 JUMPDEST DUP2 SLOAD DUP2 MSTORE SWAP1 PUSH1 0x1 ADD SWAP1 PUSH1 0x20 ADD DUP1 DUP4 GT PUSH2 0x76D JUMPI DUP3 SWAP1 SUB PUSH1 0x1F AND DUP3 ADD SWAP2 JUMPDEST POP POP POP POP POP SWAP1 DUP1 PUSH1 0x3 ADD DUP1 SLOAD PUSH2 0x79F SWAP1 PUSH2 0x11E9 JUMP JUMPDEST DUP1 PUSH1 0x1F ADD PUSH1 0x20 DUP1 SWAP2 DIV MUL PUSH1 0x20 ADD PUSH1 0x40 MLOAD SWAP1 DUP2 ADD PUSH1 0x40 MSTORE DUP1 SWAP3 SWAP2 SWAP1 DUP2 DUP2 MSTORE PUSH1 0x20 ADD DUP3 DUP1 SLOAD PUSH2 0x7CB SWAP1 PUSH2 0x11E9 JUMP JUMPDEST DUP1 ISZERO PUSH2 0x816 JUMPI DUP1 PUSH1 0x1F LT PUSH2 0x7ED JUMPI PUSH2 0x100 DUP1 DUP4 SLOAD DIV MUL DUP4 MSTORE SWAP2 PUSH1 0x20 ADD SWAP2 PUSH2 0x816 JUMP JUMPDEST DUP3 ADD SWAP2 SWAP1 PUSH0 MSTORE PUSH1 0x20 PUSH0 KECCAK256 SWAP1 JUMPDEST DUP2 SLOAD DUP2 MSTORE SWAP1 PUSH1 0x1 ADD SWAP1 PUSH1 0x20 ADD DUP1 DUP4 GT PUSH2 0x7F9 JUMPI DUP3 SWAP1 SUB PUSH1 0x1F AND DUP3 ADD SWAP2 JUMPDEST POP POP POP POP POP SWAP1 DUP1 PUSH1 0x4 ADD DUP1 SLOAD PUSH2 0x82B SWAP1 PUSH2 0x11E9 JUMP JUMPDEST DUP1 PUSH1 0x1F ADD PUSH1 0x20 DUP1 SWAP2 DIV MUL PUSH1 0x20 ADD PUSH1 0x40 MLOAD SWAP1 DUP2 ADD PUSH1 0x40 MSTORE DUP1 SWAP3 SWAP2 SWAP1 DUP2 DUP2 MSTORE PUSH1 0x20 ADD DUP3 DUP1 SLOAD PUSH2 0x857 SWAP1 PUSH2 0x11E9 JUMP JUMPDEST DUP1 ISZERO PUSH2 0x8A2 JUMPI DUP1 PUSH1 0x1F LT PUSH2 0x879 JUMPI PUSH2 0x100 DUP1 DUP4 SLOAD DIV MUL DUP4 MSTORE SWAP2 PUSH1 0x20 ADD SWAP2 PUSH2 0x8A2 JUMP JUMPDEST DUP3 ADD SWAP2 SWAP1 PUSH0 MSTORE PUSH1 0x20 PUSH0 KECCAK256 SWAP1 JUMPDEST DUP2 SLOAD DUP2 MSTORE SWAP1 PUSH1 0x1 ADD SWAP1 PUSH1 0x20 ADD DUP1 DUP4 GT PUSH2 0x885 JUMPI DUP3 SWAP1 SUB PUSH1 0x1F AND DUP3 ADD SWAP2 JUMPDEST POP POP POP POP POP SWAP1 POP DUP6 JUMP JUMPDEST DUP1 PUSH0 DUP4 PUSH1 0x40 MLOAD PUSH2 0x8BC SWAP2 SWAP1 PUSH2 0x11A6 JUMP JUMPDEST SWAP1 DUP2 MSTORE PUSH1 0x20 ADD PUSH1 0x40 MLOAD DUP1 SWAP2 SUB SWAP1 KECCAK256 PUSH1 0x2 ADD SWAP1 DUP2 PUSH2 0x8D9 SWAP2 SWAP1 PUSH2 0x148F JUMP JUMPDEST POP DUP2 PUSH1 0x40 MLOAD PUSH2 0x8E8 SWAP2 SWAP1 PUSH2 0x11A6 JUMP JUMPDEST PUSH1 0x40 MLOAD DUP1 SWAP2 SUB SWAP1 KECCAK256 PUSH32 0x480BDEC02BF73C6C075A8DB62D725863401EC6D719A3FF0C25B87AC13569C5F2 DUP3 PUSH1 0x1 PUSH1 0x40 MLOAD PUSH2 0x922 SWAP3 SWAP2 SWAP1 PUSH2 0x1578 JUMP JUMPDEST PUSH1 0x40 MLOAD DUP1 SWAP2 SUB SWAP1 LOG2 POP POP JUMP JUMPDEST PUSH1 0x60 PUSH0 DUP3 PUSH1 0x40 MLOAD PUSH2 0x93F SWAP2 SWAP1 PUSH2 0x11A6 JUMP JUMPDEST SWAP1 DUP2 MSTORE PUSH1 0x20 ADD PUSH1 0x40 MLOAD DUP1 SWAP2 SUB SWAP1 KECCAK256 PUSH1 0x1 ADD DUP1 SLOAD PUSH2 0x95B SWAP1 PUSH2 0x11E9 JUMP JUMPDEST DUP1 PUSH1 0x1F ADD PUSH1 0x20 DUP1 SWAP2 DIV MUL PUSH1 0x20 ADD PUSH1 0x40 MLOAD SWAP1 DUP2 ADD PUSH1 0x40 MSTORE DUP1 SWAP3 SWAP2 SWAP1 DUP2 DUP2 MSTORE PUSH1 0x20 ADD DUP3 DUP1 SLOAD PUSH2 0x987 SWAP1 PUSH2 0x11E9 JUMP JUMPDEST DUP1 ISZERO PUSH2 0x9D2 JUMPI DUP1 PUSH1 0x1F LT PUSH2 0x9A9 JUMPI PUSH2 0x100 DUP1 DUP4 SLOAD DIV MUL DUP4 MSTORE SWAP2 PUSH1 0x20 ADD SWAP2 PUSH2 0x9D2 JUMP JUMPDEST DUP3 ADD SWAP2 SWAP1 PUSH0 MSTORE PUSH1 0x20 PUSH0 KECCAK256 SWAP1 JUMPDEST DUP2 SLOAD DUP2 MSTORE SWAP1 PUSH1 0x1 ADD SWAP1 PUSH1 0x20 ADD DUP1 DUP4 GT PUSH2 0x9B5 JUMPI DUP3 SWAP1 SUB PUSH1 0x1F AND DUP3 ADD SWAP2 JUMPDEST POP POP POP POP POP SWAP1 POP SWAP2 SWAP1 POP JUMP JUMPDEST PUSH1 0x60 PUSH0 DUP3 PUSH1 0x40 MLOAD PUSH2 0x9EF SWAP2 SWAP1 PUSH2 0x11A6 JUMP JUMPDEST SWAP1 DUP2 MSTORE PUSH1 0x20 ADD PUSH1 0x40 MLOAD DUP1 SWAP2 SUB SWAP1 KECCAK256 PUSH1 0x4 ADD DUP1 SLOAD PUSH2 0xA0B SWAP1 PUSH2 0x11E9 JUMP JUMPDEST DUP1 PUSH1 0x1F ADD PUSH1 0x20 DUP1 SWAP2 DIV MUL PUSH1 0x20 ADD PUSH1 0x40 MLOAD SWAP1 DUP2 ADD PUSH1 0x40 MSTORE DUP1 SWAP3 SWAP2 SWAP1 DUP2 DUP2 MSTORE PUSH1 0x20 ADD DUP3 DUP1 SLOAD PUSH2 0xA37 SWAP1 PUSH2 0x11E9 JUMP JUMPDEST DUP1 ISZERO PUSH2 0xA82 JUMPI DUP1 PUSH1 0x1F LT PUSH2 0xA59 JUMPI PUSH2 0x100 DUP1 DUP4 SLOAD DIV MUL DUP4 MSTORE SWAP2 PUSH1 0x20 ADD SWAP2 PUSH2 0xA82 JUMP JUMPDEST DUP3 ADD SWAP2 SWAP1 PUSH0 MSTORE PUSH1 0x20 PUSH0 KECCAK256 SWAP1 JUMPDEST DUP2 SLOAD DUP2 MSTORE SWAP1 PUSH1 0x1 ADD SWAP1 PUSH1 0x20 ADD DUP1 DUP4 GT PUSH2 0xA65 JUMPI DUP3 SWAP1 SUB PUSH1 0x1F AND DUP3 ADD SWAP2 JUMPDEST POP POP POP POP POP SWAP1 POP SWAP2 SWAP1 POP JUMP JUMPDEST PUSH1 0x1 DUP2 DUP1 MLOAD PUSH1 0x20 DUP2 ADD DUP3 ADD DUP1 MLOAD DUP5 DUP3 MSTORE PUSH1 0x20 DUP4 ADD PUSH1 0x20 DUP6 ADD KECCAK256 DUP2 DUP4 MSTORE DUP1 SWAP6 POP POP POP POP POP POP PUSH0 SWAP2 POP SWAP1 POP DUP1 SLOAD PUSH2 0xAC2 SWAP1 PUSH2 0x11E9 JUMP JUMPDEST DUP1 PUSH1 0x1F ADD PUSH1 0x20 DUP1 SWAP2 DIV MUL PUSH1 0x20 ADD PUSH1 0x40 MLOAD SWAP1 DUP2 ADD PUSH1 0x40 MSTORE DUP1 SWAP3 SWAP2 SWAP1 DUP2 DUP2 MSTORE PUSH1 0x20 ADD DUP3 DUP1 SLOAD PUSH2 0xAEE SWAP1 PUSH2 0x11E9 JUMP JUMPDEST DUP1 ISZERO PUSH2 0xB39 JUMPI DUP1 PUSH1 0x1F LT PUSH2 0xB10 JUMPI PUSH2 0x100 DUP1 DUP4 SLOAD DIV MUL DUP4 MSTORE SWAP2 PUSH1 0x20 ADD SWAP2 PUSH2 0xB39 JUMP JUMPDEST DUP3 ADD SWAP2 SWAP1 PUSH0 MSTORE PUSH1 0x20 PUSH0 KECCAK256 SWAP1 JUMPDEST DUP2 SLOAD DUP2 MSTORE SWAP1 PUSH1 0x1 ADD SWAP1 PUSH1 0x20 ADD DUP1 DUP4 GT PUSH2 0xB1C JUMPI DUP3 SWAP1 SUB PUSH1 0x1F AND DUP3 ADD SWAP2 JUMPDEST POP POP POP POP POP DUP2 JUMP JUMPDEST PUSH1 0x60 PUSH0 DUP3 PUSH1 0x40 MLOAD PUSH2 0xB52 SWAP2 SWAP1 PUSH2 0x11A6 JUMP JUMPDEST SWAP1 DUP2 MSTORE PUSH1 0x20 ADD PUSH1 0x40 MLOAD DUP1 SWAP2 SUB SWAP1 KECCAK256 PUSH1 0x3 ADD DUP1 SLOAD PUSH2 0xB6E SWAP1 PUSH2 0x11E9 JUMP JUMPDEST DUP1 PUSH1 0x1F ADD PUSH1 0x20 DUP1 SWAP2 DIV MUL PUSH1 0x20 ADD PUSH1 0x40 MLOAD SWAP1 DUP2 ADD PUSH1 0x40 MSTORE DUP1 SWAP3 SWAP2 SWAP1 DUP2 DUP2 MSTORE PUSH1 0x20 ADD DUP3 DUP1 SLOAD PUSH2 0xB9A SWAP1 PUSH2 0x11E9 JUMP JUMPDEST DUP1 ISZERO PUSH2 0xBE5 JUMPI DUP1 PUSH1 0x1F LT PUSH2 0xBBC JUMPI PUSH2 0x100 DUP1 DUP4 SLOAD DIV MUL DUP4 MSTORE SWAP2 PUSH1 0x20 ADD SWAP2 PUSH2 0xBE5 JUMP JUMPDEST DUP3 ADD SWAP2 SWAP1 PUSH0 MSTORE PUSH1 0x20 PUSH0 KECCAK256 SWAP1 JUMPDEST DUP2 SLOAD DUP2 MSTORE SWAP1 PUSH1 0x1 ADD SWAP1 PUSH1 0x20 ADD DUP1 DUP4 GT PUSH2 0xBC8 JUMPI DUP3 SWAP1 SUB PUSH1 0x1F AND DUP3 ADD SWAP2 JUMPDEST POP POP POP POP POP SWAP1 POP SWAP2 SWAP1 POP JUMP JUMPDEST DUP1 PUSH0 DUP4 PUSH1 0x40 MLOAD PUSH2 0xC01 SWAP2 SWAP1 PUSH2 0x11A6 JUMP JUMPDEST SWAP1 DUP2 MSTORE PUSH1 0x20 ADD PUSH1 0x40 MLOAD DUP1 SWAP2 SUB SWAP1 KECCAK256 PUSH1 0x4 ADD SWAP1 DUP2 PUSH2 0xC1E SWAP2 SWAP1 PUSH2 0x148F JUMP JUMPDEST POP DUP2 PUSH1 0x40 MLOAD PUSH2 0xC2D SWAP2 SWAP1 PUSH2 0x11A6 JUMP JUMPDEST PUSH1 0x40 MLOAD DUP1 SWAP2 SUB SWAP1 KECCAK256 PUSH32 0xAE584FAB5E8F7CFD659E7B4C2D09184EF8D88C791A136A070039AE4C135B8EC7 DUP3 PUSH1 0x1 PUSH1 0x40 MLOAD PUSH2 0xC67 SWAP3 SWAP2 SWAP1 PUSH2 0x1578 JUMP JUMPDEST PUSH1 0x40 MLOAD DUP1 SWAP2 SUB SWAP1 LOG2 POP POP JUMP JUMPDEST PUSH1 0x60 PUSH0 DUP3 PUSH1 0x40 MLOAD PUSH2 0xC84 SWAP2 SWAP1 PUSH2 0x11A6 JUMP JUMPDEST SWAP1 DUP2 MSTORE PUSH1 0x20 ADD PUSH1 0x40 MLOAD DUP1 SWAP2 SUB SWAP1 KECCAK256 PUSH1 0x2 ADD DUP1 SLOAD PUSH2 0xCA0 SWAP1 PUSH2 0x11E9 JUMP JUMPDEST DUP1 PUSH1 0x1F ADD PUSH1 0x20 DUP1 SWAP2 DIV MUL PUSH1 0x20 ADD PUSH1 0x40 MLOAD SWAP1 DUP2 ADD PUSH1 0x40 MSTORE DUP1 SWAP3 SWAP2 SWAP1 DUP2 DUP2 MSTORE PUSH1 0x20 ADD DUP3 DUP1 SLOAD PUSH2 0xCCC SWAP1 PUSH2 0x11E9 JUMP JUMPDEST DUP1 ISZERO PUSH2 0xD17 JUMPI DUP1 PUSH1 0x1F LT PUSH2 0xCEE JUMPI PUSH2 0x100 DUP1 DUP4 SLOAD DIV MUL DUP4 MSTORE SWAP2 PUSH1 0x20 ADD SWAP2 PUSH2 0xD17 JUMP JUMPDEST DUP3 ADD SWAP2 SWAP1 PUSH0 MSTORE PUSH1 0x20 PUSH0 KECCAK256 SWAP1 JUMPDEST DUP2 SLOAD DUP2 MSTORE SWAP1 PUSH1 0x1 ADD SWAP1 PUSH1 0x20 ADD DUP1 DUP4 GT PUSH2 0xCFA JUMPI DUP3 SWAP1 SUB PUSH1 0x1F AND DUP3 ADD SWAP2 JUMPDEST POP POP POP POP POP SWAP1 POP SWAP2 SWAP1 POP JUMP JUMPDEST PUSH0 PUSH1 0x40 MLOAD SWAP1 POP SWAP1 JUMP JUMPDEST PUSH0 DUP1 REVERT JUMPDEST PUSH0 DUP1 REVERT JUMPDEST PUSH0 DUP1 REVERT JUMPDEST PUSH0 DUP1 REVERT JUMPDEST PUSH0 PUSH1 0x1F NOT PUSH1 0x1F DUP4 ADD AND SWAP1 POP SWAP2 SWAP1 POP JUMP JUMPDEST PUSH32 0x4E487B7100000000000000000000000000000000000000000000000000000000 PUSH0 MSTORE PUSH1 0x41 PUSH1 0x4 MSTORE PUSH1 0x24 PUSH0 REVERT JUMPDEST PUSH2 0xD82 DUP3 PUSH2 0xD3C JUMP JUMPDEST DUP2 ADD DUP2 DUP2 LT PUSH8 0xFFFFFFFFFFFFFFFF DUP3 GT OR ISZERO PUSH2 0xDA1 JUMPI PUSH2 0xDA0 PUSH2 0xD4C JUMP JUMPDEST JUMPDEST DUP1 PUSH1 0x40 MSTORE POP POP POP JUMP JUMPDEST PUSH0 PUSH2 0xDB3 PUSH2 0xD23 JUMP JUMPDEST SWAP1 POP PUSH2 0xDBF DUP3 DUP3 PUSH2 0xD79 JUMP JUMPDEST SWAP2 SWAP1 POP JUMP JUMPDEST PUSH0 PUSH8 0xFFFFFFFFFFFFFFFF DUP3 GT ISZERO PUSH2 0xDDE JUMPI PUSH2 0xDDD PUSH2 0xD4C JUMP JUMPDEST JUMPDEST PUSH2 0xDE7 DUP3 PUSH2 0xD3C JUMP JUMPDEST SWAP1 POP PUSH1 0x20 DUP2 ADD SWAP1 POP SWAP2 SWAP1 POP JUMP JUMPDEST DUP3 DUP2 DUP4 CALLDATACOPY PUSH0 DUP4 DUP4 ADD MSTORE POP POP POP JUMP JUMPDEST PUSH0 PUSH2 0xE14 PUSH2 0xE0F DUP5 PUSH2 0xDC4 JUMP JUMPDEST PUSH2 0xDAA JUMP JUMPDEST SWAP1 POP DUP3 DUP2 MSTORE PUSH1 0x20 DUP2 ADD DUP5 DUP5 DUP5 ADD GT ISZERO PUSH2 0xE30 JUMPI PUSH2 0xE2F PUSH2 0xD38 JUMP JUMPDEST JUMPDEST PUSH2 0xE3B DUP5 DUP3 DUP6 PUSH2 0xDF4 JUMP JUMPDEST POP SWAP4 SWAP3 POP POP POP JUMP JUMPDEST PUSH0 DUP3 PUSH1 0x1F DUP4 ADD SLT PUSH2 0xE57 JUMPI PUSH2 0xE56 PUSH2 0xD34 JUMP JUMPDEST JUMPDEST DUP2 CALLDATALOAD PUSH2 0xE67 DUP5 DUP3 PUSH1 0x20 DUP7 ADD PUSH2 0xE02 JUMP JUMPDEST SWAP2 POP POP SWAP3 SWAP2 POP POP JUMP JUMPDEST PUSH0 DUP1 PUSH0 DUP1 PUSH0 DUP1 PUSH1 0xC0 DUP8 DUP10 SUB SLT ISZERO PUSH2 0xE8A JUMPI PUSH2 0xE89 PUSH2 0xD2C JUMP JUMPDEST JUMPDEST PUSH0 DUP8 ADD CALLDATALOAD PUSH8 0xFFFFFFFFFFFFFFFF DUP2 GT ISZERO PUSH2 0xEA7 JUMPI PUSH2 0xEA6 PUSH2 0xD30 JUMP JUMPDEST JUMPDEST PUSH2 0xEB3 DUP10 DUP3 DUP11 ADD PUSH2 0xE43 JUMP JUMPDEST SWAP7 POP POP PUSH1 0x20 DUP8 ADD CALLDATALOAD PUSH8 0xFFFFFFFFFFFFFFFF DUP2 GT ISZERO PUSH2 0xED4 JUMPI PUSH2 0xED3 PUSH2 0xD30 JUMP JUMPDEST JUMPDEST PUSH2 0xEE0 DUP10 DUP3 DUP11 ADD PUSH2 0xE43 JUMP JUMPDEST SWAP6 POP POP PUSH1 0x40 DUP8 ADD CALLDATALOAD PUSH8 0xFFFFFFFFFFFFFFFF DUP2 GT ISZERO PUSH2 0xF01 JUMPI PUSH2 0xF00 PUSH2 0xD30 JUMP JUMPDEST JUMPDEST PUSH2 0xF0D DUP10 DUP3 DUP11 ADD PUSH2 0xE43 JUMP JUMPDEST SWAP5 POP POP PUSH1 0x60 DUP8 ADD CALLDATALOAD PUSH8 0xFFFFFFFFFFFFFFFF DUP2 GT ISZERO PUSH2 0xF2E JUMPI PUSH2 0xF2D PUSH2 0xD30 JUMP JUMPDEST JUMPDEST PUSH2 0xF3A DUP10 DUP3 DUP11 ADD PUSH2 0xE43 JUMP JUMPDEST SWAP4 POP POP PUSH1 0x80 DUP8 ADD CALLDATALOAD PUSH8 0xFFFFFFFFFFFFFFFF DUP2 GT ISZERO PUSH2 0xF5B JUMPI PUSH2 0xF5A PUSH2 0xD30 JUMP JUMPDEST JUMPDEST PUSH2 0xF67 DUP10 DUP3 DUP11 ADD PUSH2 0xE43 JUMP JUMPDEST SWAP3 POP POP PUSH1 0xA0 DUP8 ADD CALLDATALOAD PUSH8 0xFFFFFFFFFFFFFFFF DUP2 GT ISZERO PUSH2 0xF88 JUMPI PUSH2 0xF87 PUSH2 0xD30 JUMP JUMPDEST JUMPDEST PUSH2 0xF94 DUP10 DUP3 DUP11 ADD PUSH2 0xE43 JUMP JUMPDEST SWAP2 POP POP SWAP3 SWAP6 POP SWAP3 SWAP6 POP SWAP3 SWAP6 JUMP JUMPDEST PUSH0 DUP1 PUSH1 0x40 DUP4 DUP6 SUB SLT ISZERO PUSH2 0xFB7 JUMPI PUSH2 0xFB6 PUSH2 0xD2C JUMP JUMPDEST JUMPDEST PUSH0 DUP4 ADD CALLDATALOAD PUSH8 0xFFFFFFFFFFFFFFFF DUP2 GT ISZERO PUSH2 0xFD4 JUMPI PUSH2 0xFD3 PUSH2 0xD30 JUMP JUMPDEST JUMPDEST PUSH2 0xFE0 DUP6 DUP3 DUP7 ADD PUSH2 0xE43 JUMP JUMPDEST SWAP3 POP POP PUSH1 0x20 DUP4 ADD CALLDATALOAD PUSH8 0xFFFFFFFFFFFFFFFF DUP2 GT ISZERO PUSH2 0x1001 JUMPI PUSH2 0x1000 PUSH2 0xD30 JUMP JUMPDEST JUMPDEST PUSH2 0x100D DUP6 DUP3 DUP7 ADD PUSH2 0xE43 JUMP JUMPDEST SWAP2 POP POP SWAP3 POP SWAP3 SWAP1 POP JUMP JUMPDEST PUSH0 PUSH1 0x20 DUP3 DUP5 SUB SLT ISZERO PUSH2 0x102C JUMPI PUSH2 0x102B PUSH2 0xD2C JUMP JUMPDEST JUMPDEST PUSH0 DUP3 ADD CALLDATALOAD PUSH8 0xFFFFFFFFFFFFFFFF DUP2 GT ISZERO PUSH2 0x1049 JUMPI PUSH2 0x1048 PUSH2 0xD30 JUMP JUMPDEST JUMPDEST PUSH2 0x1055 DUP5 DUP3 DUP6 ADD PUSH2 0xE43 JUMP JUMPDEST SWAP2 POP POP SWAP3 SWAP2 POP POP JUMP JUMPDEST PUSH0 DUP2 MLOAD SWAP1 POP SWAP2 SWAP1 POP JUMP JUMPDEST PUSH0 DUP3 DUP3 MSTORE PUSH1 0x20 DUP3 ADD SWAP1 POP SWAP3 SWAP2 POP POP JUMP JUMPDEST PUSH0 JUMPDEST DUP4 DUP2 LT ISZERO PUSH2 0x1095 JUMPI DUP1 DUP3 ADD MLOAD DUP2 DUP5 ADD MSTORE PUSH1 0x20 DUP2 ADD SWAP1 POP PUSH2 0x107A JUMP JUMPDEST PUSH0 DUP5 DUP5 ADD MSTORE POP POP POP POP JUMP JUMPDEST PUSH0 PUSH2 0x10AA DUP3 PUSH2 0x105E JUMP JUMPDEST PUSH2 0x10B4 DUP2 DUP6 PUSH2 0x1068 JUMP JUMPDEST SWAP4 POP PUSH2 0x10C4 DUP2 DUP6 PUSH1 0x20 DUP7 ADD PUSH2 0x1078 JUMP JUMPDEST PUSH2 0x10CD DUP2 PUSH2 0xD3C JUMP JUMPDEST DUP5 ADD SWAP2 POP POP SWAP3 SWAP2 POP POP JUMP JUMPDEST PUSH0 PUSH1 0xA0 DUP3 ADD SWAP1 POP DUP2 DUP2 SUB PUSH0 DUP4 ADD MSTORE PUSH2 0x10F0 DUP2 DUP9 PUSH2 0x10A0 JUMP JUMPDEST SWAP1 POP DUP2 DUP2 SUB PUSH1 0x20 DUP4 ADD MSTORE PUSH2 0x1104 DUP2 DUP8 PUSH2 0x10A0 JUMP JUMPDEST SWAP1 POP DUP2 DUP2 SUB PUSH1 0x40 DUP4 ADD MSTORE PUSH2 0x1118 DUP2 DUP7 PUSH2 0x10A0 JUMP JUMPDEST SWAP1 POP DUP2 DUP2 SUB PUSH1 0x60 DUP4 ADD MSTORE PUSH2 0x112C DUP2 DUP6 PUSH2 0x10A0 JUMP JUMPDEST SWAP1 POP DUP2 DUP2 SUB PUSH1 0x80 DUP4 ADD MSTORE PUSH2 0x1140 DUP2 DUP5 PUSH2 0x10A0 JUMP JUMPDEST SWAP1 POP SWAP7 SWAP6 POP POP POP POP POP POP JUMP JUMPDEST PUSH0 PUSH1 0x20 DUP3 ADD SWAP1 POP DUP2 DUP2 SUB PUSH0 DUP4 ADD MSTORE PUSH2 0x1164 DUP2 DUP5 PUSH2 0x10A0 JUMP JUMPDEST SWAP1 POP SWAP3 SWAP2 POP POP JUMP JUMPDEST PUSH0 DUP2 SWAP1 POP SWAP3 SWAP2 POP POP JUMP JUMPDEST PUSH0 PUSH2 0x1180 DUP3 PUSH2 0x105E JUMP JUMPDEST PUSH2 0x118A DUP2 DUP6 PUSH2 0x116C JUMP JUMPDEST SWAP4 POP PUSH2 0x119A DUP2 DUP6 PUSH1 0x20 DUP7 ADD PUSH2 0x1078 JUMP JUMPDEST DUP1 DUP5 ADD SWAP2 POP POP SWAP3 SWAP2 POP POP JUMP JUMPDEST PUSH0 PUSH2 0x11B1 DUP3 DUP5 PUSH2 0x1176 JUMP JUMPDEST SWAP2 POP DUP2 SWAP1 POP SWAP3 SWAP2 POP POP JUMP JUMPDEST PUSH32 0x4E487B7100000000000000000000000000000000000000000000000000000000 PUSH0 MSTORE PUSH1 0x22 PUSH1 0x4 MSTORE PUSH1 0x24 PUSH0 REVERT JUMPDEST PUSH0 PUSH1 0x2 DUP3 DIV SWAP1 POP PUSH1 0x1 DUP3 AND DUP1 PUSH2 0x1200 JUMPI PUSH1 0x7F DUP3 AND SWAP2 POP JUMPDEST PUSH1 0x20 DUP3 LT DUP2 SUB PUSH2 0x1213 JUMPI PUSH2 0x1212 PUSH2 0x11BC JUMP JUMPDEST JUMPDEST POP SWAP2 SWAP1 POP JUMP JUMPDEST PUSH32 0x5573657220616C72656164792065786973747300000000000000000000000000 PUSH0 DUP3 ADD MSTORE POP JUMP JUMPDEST PUSH0 PUSH2 0x124D PUSH1 0x13 DUP4 PUSH2 0x1068 JUMP JUMPDEST SWAP2 POP PUSH2 0x1258 DUP3 PUSH2 0x1219 JUMP JUMPDEST PUSH1 0x20 DUP3 ADD SWAP1 POP SWAP2 SWAP1 POP JUMP JUMPDEST PUSH0 PUSH1 0x20 DUP3 ADD SWAP1 POP DUP2 DUP2 SUB PUSH0 DUP4 ADD MSTORE PUSH2 0x127A DUP2 PUSH2 0x1241 JUMP JUMPDEST SWAP1 POP SWAP2 SWAP1 POP JUMP JUMPDEST PUSH32 0x50726976617465206B657920616C726561647920696E20757365000000000000 PUSH0 DUP3 ADD MSTORE POP JUMP JUMPDEST PUSH0 PUSH2 0x12B5 PUSH1 0x1A DUP4 PUSH2 0x1068 JUMP JUMPDEST SWAP2 POP PUSH2 0x12C0 DUP3 PUSH2 0x1281 JUMP JUMPDEST PUSH1 0x20 DUP3 ADD SWAP1 POP SWAP2 SWAP1 POP JUMP JUMPDEST PUSH0 PUSH1 0x20 DUP3 ADD SWAP1 POP DUP2 DUP2 SUB PUSH0 DUP4 ADD MSTORE PUSH2 0x12E2 DUP2 PUSH2 0x12A9 JUMP JUMPDEST SWAP1 POP SWAP2 SWAP1 POP JUMP JUMPDEST PUSH0 DUP2 SWAP1 POP DUP2 PUSH0 MSTORE PUSH1 0x20 PUSH0 KECCAK256 SWAP1 POP SWAP2 SWAP1 POP JUMP JUMPDEST PUSH0 PUSH1 0x20 PUSH1 0x1F DUP4 ADD DIV SWAP1 POP SWAP2 SWAP1 POP JUMP JUMPDEST PUSH0 DUP3 DUP3 SHL SWAP1 POP SWAP3 SWAP2 POP POP JUMP JUMPDEST PUSH0 PUSH1 0x8 DUP4 MUL PUSH2 0x1345 PUSH32 0xFFFFFFFFFFFFFFFFFFFFFFFFFFFFFFFFFFFFFFFFFFFFFFFFFFFFFFFFFFFFFFFF DUP3 PUSH2 0x130A JUMP JUMPDEST PUSH2 0x134F DUP7 DUP4 PUSH2 0x130A JUMP JUMPDEST SWAP6 POP DUP1 NOT DUP5 AND SWAP4 POP DUP1 DUP7 AND DUP5 OR SWAP3 POP POP POP SWAP4 SWAP3 POP POP POP JUMP JUMPDEST PUSH0 DUP2 SWAP1 POP SWAP2 SWAP1 POP JUMP JUMPDEST PUSH0 DUP2 SWAP1 POP SWAP2 SWAP1 POP JUMP JUMPDEST PUSH0 PUSH2 0x1393 PUSH2 0x138E PUSH2 0x1389 DUP5 PUSH2 0x1367 JUMP JUMPDEST PUSH2 0x1370 JUMP JUMPDEST PUSH2 0x1367 JUMP JUMPDEST SWAP1 POP SWAP2 SWAP1 POP JUMP JUMPDEST PUSH0 DUP2 SWAP1 POP SWAP2 SWAP1 POP JUMP JUMPDEST PUSH2 0x13AC DUP4 PUSH2 0x1379 JUMP JUMPDEST PUSH2 0x13C0 PUSH2 0x13B8 DUP3 PUSH2 0x139A JUMP JUMPDEST DUP5 DUP5 SLOAD PUSH2 0x1316 JUMP JUMPDEST DUP3 SSTORE POP POP POP POP JUMP JUMPDEST PUSH0 SWAP1 JUMP JUMPDEST PUSH2 0x13D4 PUSH2 0x13C8 JUMP JUMPDEST PUSH2 0x13DF DUP2 DUP5 DUP5 PUSH2 0x13A3 JUMP JUMPDEST POP POP POP JUMP JUMPDEST JUMPDEST DUP2 DUP2 LT ISZERO PUSH2 0x1402 JUMPI PUSH2 0x13F7 PUSH0 DUP3 PUSH2 0x13CC JUMP JUMPDEST PUSH1 0x1 DUP2 ADD SWAP1 POP PUSH2 0x13E5 JUMP JUMPDEST POP POP JUMP JUMPDEST PUSH1 0x1F DUP3 GT ISZERO PUSH2 0x1447 JUMPI PUSH2 0x1418 DUP2 PUSH2 0x12E9 JUMP JUMPDEST PUSH2 0x1421 DUP5 PUSH2 0x12FB JUMP JUMPDEST DUP2 ADD PUSH1 0x20 DUP6 LT ISZERO PUSH2 0x1430 JUMPI DUP2 SWAP1 POP JUMPDEST PUSH2 0x1444 PUSH2 0x143C DUP6 PUSH2 0x12FB JUMP JUMPDEST DUP4 ADD DUP3 PUSH2 0x13E4 JUMP JUMPDEST POP POP JUMPDEST POP POP POP JUMP JUMPDEST PUSH0 DUP3 DUP3 SHR SWAP1 POP SWAP3 SWAP2 POP POP JUMP JUMPDEST PUSH0 PUSH2 0x1467 PUSH0 NOT DUP5 PUSH1 0x8 MUL PUSH2 0x144C JUMP JUMPDEST NOT DUP1 DUP4 AND SWAP2 POP POP SWAP3 SWAP2 POP POP JUMP JUMPDEST PUSH0 PUSH2 0x147F DUP4 DUP4 PUSH2 0x1458 JUMP JUMPDEST SWAP2 POP DUP3 PUSH1 0x2 MUL DUP3 OR SWAP1 POP SWAP3 SWAP2 POP POP JUMP JUMPDEST PUSH2 0x1498 DUP3 PUSH2 0x105E JUMP JUMPDEST PUSH8 0xFFFFFFFFFFFFFFFF DUP2 GT ISZERO PUSH2 0x14B1 JUMPI PUSH2 0x14B0 PUSH2 0xD4C JUMP JUMPDEST JUMPDEST PUSH2 0x14BB DUP3 SLOAD PUSH2 0x11E9 JUMP JUMPDEST PUSH2 0x14C6 DUP3 DUP3 DUP6 PUSH2 0x1406 JUMP JUMPDEST PUSH0 PUSH1 0x20 SWAP1 POP PUSH1 0x1F DUP4 GT PUSH1 0x1 DUP2 EQ PUSH2 0x14F7 JUMPI PUSH0 DUP5 ISZERO PUSH2 0x14E5 JUMPI DUP3 DUP8 ADD MLOAD SWAP1 POP JUMPDEST PUSH2 0x14EF DUP6 DUP3 PUSH2 0x1474 JUMP JUMPDEST DUP7 SSTORE POP PUSH2 0x1556 JUMP JUMPDEST PUSH1 0x1F NOT DUP5 AND PUSH2 0x1505 DUP7 PUSH2 0x12E9 JUMP JUMPDEST PUSH0 JUMPDEST DUP3 DUP2 LT ISZERO PUSH2 0x152C JUMPI DUP5 DUP10 ADD MLOAD DUP3 SSTORE PUSH1 0x1 DUP3 ADD SWAP2 POP PUSH1 0x20 DUP6 ADD SWAP5 POP PUSH1 0x20 DUP2 ADD SWAP1 POP PUSH2 0x1507 JUMP JUMPDEST DUP7 DUP4 LT ISZERO PUSH2 0x1549 JUMPI DUP5 DUP10 ADD MLOAD PUSH2 0x1545 PUSH1 0x1F DUP10 AND DUP3 PUSH2 0x1458 JUMP JUMPDEST DUP4 SSTORE POP JUMPDEST PUSH1 0x1 PUSH1 0x2 DUP9 MUL ADD DUP9 SSTORE POP POP POP JUMPDEST POP POP POP POP POP POP JUMP JUMPDEST PUSH0 DUP2 ISZERO ISZERO SWAP1 POP SWAP2 SWAP1 POP JUMP JUMPDEST PUSH2 0x1572 DUP2 PUSH2 0x155E JUMP JUMPDEST DUP3 MSTORE POP POP JUMP JUMPDEST PUSH0 PUSH1 0x40 DUP3 ADD SWAP1 POP DUP2 DUP2 SUB PUSH0 DUP4 ADD MSTORE PUSH2 0x1590 DUP2 DUP6 PUSH2 0x10A0 JUMP JUMPDEST SWAP1 POP PUSH2 0x159F PUSH1 0x20 DUP4 ADD DUP5 PUSH2 0x1569 JUMP JUMPDEST SWAP4 SWAP3 POP POP POP JUMP JUMPDEST PUSH32 0x50726976617465206B657920616C7265616479206D6170706564000000000000 PUSH0 DUP3 ADD MSTORE POP JUMP JUMPDEST PUSH0 PUSH2 0x15DA PUSH1 0x1A DUP4 PUSH2 0x1068 JUMP JUMPDEST SWAP2 POP PUSH2 0x15E5 DUP3 PUSH2 0x15A6 JUMP JUMPDEST PUSH1 0x20 DUP3 ADD SWAP1 POP SWAP2 SWAP1 POP JUMP JUMPDEST PUSH0 PUSH1 0x20 DUP3 ADD SWAP1 POP DUP2 DUP2 SUB PUSH0 DUP4 ADD MSTORE PUSH2 0x1607 DUP2 PUSH2 0x15CE JUMP JUMPDEST SWAP1 POP SWAP2 SWAP1 POP JUMP INVALID LOG2 PUSH5 0x6970667358 0x22 SLT KECCAK256 PUSH21 0xE4791819EC038E196E6759A5EFA9B4FE56773B1570 NOT 0x1F DUP7 0xCC 0xCE SMOD 0x2D GASLIMIT BASEFEE 0x4E PUSH5 0x736F6C6343 STOP ADDMOD AND STOP CALLER "
				},
				"gasEstimates": {
					"creation": {
						"codeDepositCost": "1140000",
						"executionCost": "1185",
						"totalCost": "1141185"
					},
					"external": {
						"createUser(string,string,string,string,string,string)": "infinite",
						"getContactByAddress(string)": "infinite",
						"getDOBByAddress(string)": "infinite",
						"getEmailByAddress(string)": "infinite",
						"getUsernameByAddress(string)": "infinite",
						"mapPrivateKeyToPublicKey(string,string)": "infinite",
						"privateKeyToPublicKey(string)": "infinite",
						"updateContact(string,string)": "infinite",
						"updateDOB(string,string)": "infinite",
						"updateEmail(string,string)": "infinite",
						"updateUsername(string,string)": "infinite",
						"users(string)": "infinite"
					}
				},
				"methodIdentifiers": {
					"createUser(string,string,string,string,string,string)": "01dadb2b",
					"getContactByAddress(string)": "ccca8f22",
					"getDOBByAddress(string)": "beb8727f",
					"getEmailByAddress(string)": "8c9a2e92",
					"getUsernameByAddress(string)": "f7ffd625",
					"mapPrivateKeyToPublicKey(string,string)": "5a7fb9d7",
					"privateKeyToPublicKey(string)": "bf501844",
					"updateContact(string,string)": "0d60fafd",
					"updateDOB(string,string)": "ee7476d5",
					"updateEmail(string,string)": "27897557",
					"updateUsername(string,string)": "892d069c",
					"users(string)": "689e1c03"
				}
			},
			"storageLayout": {
				"storage": [
					{
						"astId": 17,
						"contract": "Interface.sol:UserRegistry",
						"label": "users",
						"offset": 0,
						"slot": "0",
						"type": "t_mapping(t_string_memory_ptr,t_struct(User)12_storage)"
					},
					{
						"astId": 21,
						"contract": "Interface.sol:UserRegistry",
						"label": "privateKeyToPublicKey",
						"offset": 0,
						"slot": "1",
						"type": "t_mapping(t_string_memory_ptr,t_string_storage)"
					}
				],
				"types": {
					"t_mapping(t_string_memory_ptr,t_string_storage)": {
						"encoding": "mapping",
						"key": "t_string_memory_ptr",
						"label": "mapping(string => string)",
						"numberOfBytes": "32",
						"value": "t_string_storage"
					},
					"t_mapping(t_string_memory_ptr,t_struct(User)12_storage)": {
						"encoding": "mapping",
						"key": "t_string_memory_ptr",
						"label": "mapping(string => struct UserRegistry.User)",
						"numberOfBytes": "32",
						"value": "t_struct(User)12_storage"
					},
					"t_string_memory_ptr": {
						"encoding": "bytes",
						"label": "string",
						"numberOfBytes": "32"
					},
					"t_string_storage": {
						"encoding": "bytes",
						"label": "string",
						"numberOfBytes": "32"
					},
					"t_struct(User)12_storage": {
						"encoding": "inplace",
						"label": "struct UserRegistry.User",
						"members": [
							{
								"astId": 3,
								"contract": "Interface.sol:UserRegistry",
								"label": "userAddress",
								"offset": 0,
								"slot": "0",
								"type": "t_string_storage"
							},
							{
								"astId": 5,
								"contract": "Interface.sol:UserRegistry",
								"label": "email",
								"offset": 0,
								"slot": "1",
								"type": "t_string_storage"
							},
							{
								"astId": 7,
								"contract": "Interface.sol:UserRegistry",
								"label": "username",
								"offset": 0,
								"slot": "2",
								"type": "t_string_storage"
							},
							{
								"astId": 9,
								"contract": "Interface.sol:UserRegistry",
								"label": "contact",
								"offset": 0,
								"slot": "3",
								"type": "t_string_storage"
							},
							{
								"astId": 11,
								"contract": "Interface.sol:UserRegistry",
								"label": "dob",
								"offset": 0,
								"slot": "4",
								"type": "t_string_storage"
							}
						],
						"numberOfBytes": "160"
					}
				}
			},
			"userdoc": {
				"kind": "user",
				"methods": {},
				"version": 1
			}
		}
	}
}