{
	"Interface.sol": {
		"UserRegistry": {
			"abi": [
				{
					"anonymous": false,
					"inputs": [
						{
							"indexed": true,
							"internalType": "address",
							"name": "userAddress",
							"type": "address"
						},
						{
							"indexed": false,
							"internalType": "string",
							"name": "newContact",
							"type": "string"
						},
						{
							"indexed": false,
							"internalType": "bool",
							"name": "success",
							"type": "bool"
						}
					],
					"name": "ContactUpdated",
					"type": "event"
				},
				{
					"anonymous": false,
					"inputs": [
						{
							"indexed": true,
							"internalType": "address",
							"name": "userAddress",
							"type": "address"
						},
						{
							"indexed": false,
							"internalType": "string",
							"name": "newDOB",
							"type": "string"
						},
						{
							"indexed": false,
							"internalType": "bool",
							"name": "success",
							"type": "bool"
						}
					],
					"name": "DOBUpdated",
					"type": "event"
				},
				{
					"anonymous": false,
					"inputs": [
						{
							"indexed": true,
							"internalType": "address",
							"name": "userAddress",
							"type": "address"
						},
						{
							"indexed": false,
							"internalType": "string",
							"name": "newEmail",
							"type": "string"
						},
						{
							"indexed": false,
							"internalType": "bool",
							"name": "success",
							"type": "bool"
						}
					],
					"name": "EmailUpdated",
					"type": "event"
				},
				{
					"anonymous": false,
					"inputs": [
						{
							"indexed": true,
							"internalType": "address",
							"name": "userAddress",
							"type": "address"
						},
						{
							"indexed": false,
							"internalType": "string",
							"name": "newImage",
							"type": "string"
						},
						{
							"indexed": false,
							"internalType": "bool",
							"name": "success",
							"type": "bool"
						}
					],
					"name": "ImageUpdated",
					"type": "event"
				},
				{
					"anonymous": false,
					"inputs": [
						{
							"indexed": true,
							"internalType": "address",
							"name": "userAddress",
							"type": "address"
						},
						{
							"indexed": false,
							"internalType": "string",
							"name": "newUsername",
							"type": "string"
						},
						{
							"indexed": false,
							"internalType": "bool",
							"name": "success",
							"type": "bool"
						}
					],
					"name": "UsernameUpdated",
					"type": "event"
				},
				{
					"inputs": [
						{
							"internalType": "address",
							"name": "_userAddress",
							"type": "address"
						},
						{
							"internalType": "string",
							"name": "_email",
							"type": "string"
						},
						{
							"internalType": "string",
							"name": "_username",
							"type": "string"
						},
						{
							"internalType": "string",
							"name": "_image",
							"type": "string"
						},
						{
							"internalType": "string",
							"name": "_contact",
							"type": "string"
						},
						{
							"internalType": "string",
							"name": "_dob",
							"type": "string"
						},
						{
							"internalType": "string",
							"name": "_privateKey",
							"type": "string"
						}
					],
					"name": "createUser",
					"outputs": [],
					"stateMutability": "nonpayable",
					"type": "function"
				},
				{
					"inputs": [
						{
							"internalType": "address",
							"name": "_userAddress",
							"type": "address"
						}
					],
					"name": "getContactByAddress",
					"outputs": [
						{
							"internalType": "string",
							"name": "",
							"type": "string"
						}
					],
					"stateMutability": "view",
					"type": "function"
				},
				{
					"inputs": [
						{
							"internalType": "address",
							"name": "_userAddress",
							"type": "address"
						}
					],
					"name": "getDOBByAddress",
					"outputs": [
						{
							"internalType": "string",
							"name": "",
							"type": "string"
						}
					],
					"stateMutability": "view",
					"type": "function"
				},
				{
					"inputs": [
						{
							"internalType": "address",
							"name": "_userAddress",
							"type": "address"
						}
					],
					"name": "getEmailByAddress",
					"outputs": [
						{
							"internalType": "string",
							"name": "",
							"type": "string"
						}
					],
					"stateMutability": "view",
					"type": "function"
				},
				{
					"inputs": [
						{
							"internalType": "address",
							"name": "_userAddress",
							"type": "address"
						}
					],
					"name": "getImageByAddress",
					"outputs": [
						{
							"internalType": "string",
							"name": "",
							"type": "string"
						}
					],
					"stateMutability": "view",
					"type": "function"
				},
				{
					"inputs": [
						{
							"internalType": "address",
							"name": "_userAddress",
							"type": "address"
						}
					],
					"name": "getUsernameByAddress",
					"outputs": [
						{
							"internalType": "string",
							"name": "",
							"type": "string"
						}
					],
					"stateMutability": "view",
					"type": "function"
				},
				{
					"inputs": [
						{
							"internalType": "string",
							"name": "_privateKey",
							"type": "string"
						},
						{
							"internalType": "string",
							"name": "_userAddress",
							"type": "string"
						}
					],
					"name": "mapPrivateKeyToPublicKey",
					"outputs": [],
					"stateMutability": "nonpayable",
					"type": "function"
				},
				{
					"inputs": [
						{
							"internalType": "string",
							"name": "",
							"type": "string"
						}
					],
					"name": "privateKeyToPublicKey",
					"outputs": [
						{
							"internalType": "string",
							"name": "",
							"type": "string"
						}
					],
					"stateMutability": "view",
					"type": "function"
				},
				{
					"inputs": [
						{
							"internalType": "address",
							"name": "_userAddress",
							"type": "address"
						},
						{
							"internalType": "string",
							"name": "_newContact",
							"type": "string"
						}
					],
					"name": "updateContact",
					"outputs": [],
					"stateMutability": "nonpayable",
					"type": "function"
				},
				{
					"inputs": [
						{
							"internalType": "address",
							"name": "_userAddress",
							"type": "address"
						},
						{
							"internalType": "string",
							"name": "_newDOB",
							"type": "string"
						}
					],
					"name": "updateDOB",
					"outputs": [],
					"stateMutability": "nonpayable",
					"type": "function"
				},
				{
					"inputs": [
						{
							"internalType": "address",
							"name": "_userAddress",
							"type": "address"
						},
						{
							"internalType": "string",
							"name": "_newEmail",
							"type": "string"
						}
					],
					"name": "updateEmail",
					"outputs": [],
					"stateMutability": "nonpayable",
					"type": "function"
				},
				{
					"inputs": [
						{
							"internalType": "address",
							"name": "_userAddress",
							"type": "address"
						},
						{
							"internalType": "string",
							"name": "_newImage",
							"type": "string"
						}
					],
					"name": "updateImage",
					"outputs": [],
					"stateMutability": "nonpayable",
					"type": "function"
				},
				{
					"inputs": [
						{
							"internalType": "address",
							"name": "_userAddress",
							"type": "address"
						},
						{
							"internalType": "string",
							"name": "_newUsername",
							"type": "string"
						}
					],
					"name": "updateUsername",
					"outputs": [],
					"stateMutability": "nonpayable",
					"type": "function"
				},
				{
					"inputs": [
						{
							"internalType": "address",
							"name": "",
							"type": "address"
						}
					],
					"name": "users",
					"outputs": [
						{
							"internalType": "address",
							"name": "userAddress",
							"type": "address"
						},
						{
							"internalType": "string",
							"name": "email",
							"type": "string"
						},
						{
							"internalType": "string",
							"name": "username",
							"type": "string"
						},
						{
							"internalType": "string",
							"name": "image",
							"type": "string"
						},
						{
							"internalType": "string",
							"name": "contact",
							"type": "string"
						},
						{
							"internalType": "string",
							"name": "dob",
							"type": "string"
						}
					],
					"stateMutability": "view",
					"type": "function"
				}
			],
			"devdoc": {
				"kind": "dev",
				"methods": {},
				"version": 1
			},
			"evm": {
				"assembly": "    /* \"Interface.sol\":60:5765  contract UserRegistry {... */\n  mstore(0x40, 0x80)\n  callvalue\n  dup1\n  iszero\n  tag_1\n  jumpi\n  0x00\n  dup1\n  revert\ntag_1:\n  pop\n  dataSize(sub_0)\n  dup1\n  dataOffset(sub_0)\n  0x00\n  codecopy\n  0x00\n  return\nstop\n\nsub_0: assembly {\n        /* \"Interface.sol\":60:5765  contract UserRegistry {... */\n      mstore(0x40, 0x80)\n      callvalue\n      dup1\n      iszero\n      tag_1\n      jumpi\n      0x00\n      dup1\n      revert\n    tag_1:\n      pop\n      jumpi(tag_2, lt(calldatasize, 0x04))\n      shr(0xe0, calldataload(0x00))\n      dup1\n      0x5a7fb9d7\n      gt\n      tag_17\n      jumpi\n      dup1\n      0xa87430ba\n      gt\n      tag_18\n      jumpi\n      dup1\n      0xa87430ba\n      eq\n      tag_13\n      jumpi\n      dup1\n      0xbf501844\n      eq\n      tag_14\n      jumpi\n      dup1\n      0xed1a998d\n      eq\n      tag_15\n      jumpi\n      dup1\n      0xfb73bc64\n      eq\n      tag_16\n      jumpi\n      jump(tag_2)\n    tag_18:\n      dup1\n      0x5a7fb9d7\n      eq\n      tag_10\n      jumpi\n      dup1\n      0x91382b57\n      eq\n      tag_11\n      jumpi\n      dup1\n      0xa7ca9615\n      eq\n      tag_12\n      jumpi\n      jump(tag_2)\n    tag_17:\n      dup1\n      0x2b946252\n      gt\n      tag_19\n      jumpi\n      dup1\n      0x2b946252\n      eq\n      tag_6\n      jumpi\n      dup1\n      0x5110063b\n      eq\n      tag_7\n      jumpi\n      dup1\n      0x51dad8ae\n      eq\n      tag_8\n      jumpi\n      dup1\n      0x56abb5d9\n      eq\n      tag_9\n      jumpi\n      jump(tag_2)\n    tag_19:\n      dup1\n      0x022e9066\n      eq\n      tag_3\n      jumpi\n      dup1\n      0x0ea5e419\n      eq\n      tag_4\n      jumpi\n      dup1\n      0x26e0ad03\n      eq\n      tag_5\n      jumpi\n    tag_2:\n      0x00\n      dup1\n      revert\n        /* \"Interface.sol\":4923:5185  function updateDOB(address _userAddress, string memory _newDOB) public {... */\n    tag_3:\n      tag_20\n      0x04\n      dup1\n      calldatasize\n      sub\n      dup2\n      add\n      swap1\n      tag_21\n      swap2\n      swap1\n      tag_22\n      jump\t// in\n    tag_21:\n      tag_23\n      jump\t// in\n    tag_20:\n      stop\n        /* \"Interface.sol\":4413:4681  function updateEmail(address _userAddress, string memory _newEmail) public {... */\n    tag_4:\n      tag_24\n      0x04\n      dup1\n      calldatasize\n      sub\n      dup2\n      add\n      swap1\n      tag_25\n      swap2\n      swap1\n      tag_22\n      jump\t// in\n    tag_25:\n      tag_26\n      jump\t// in\n    tag_24:\n      stop\n        /* \"Interface.sol\":3343:3611  function updateImage(address _userAddress, string memory _newImage) public {... */\n    tag_5:\n      tag_27\n      0x04\n      dup1\n      calldatasize\n      sub\n      dup2\n      add\n      swap1\n      tag_28\n      swap2\n      swap1\n      tag_22\n      jump\t// in\n    tag_28:\n      tag_29\n      jump\t// in\n    tag_27:\n      stop\n        /* \"Interface.sol\":990:2201  function createUser(... */\n    tag_6:\n      tag_30\n      0x04\n      dup1\n      calldatasize\n      sub\n      dup2\n      add\n      swap1\n      tag_31\n      swap2\n      swap1\n      tag_32\n      jump\t// in\n    tag_31:\n      tag_33\n      jump\t// in\n    tag_30:\n      stop\n        /* \"Interface.sol\":3858:4175  function updateUsername(... */\n    tag_7:\n      tag_34\n      0x04\n      dup1\n      calldatasize\n      sub\n      dup2\n      add\n      swap1\n      tag_35\n      swap2\n      swap1\n      tag_22\n      jump\t// in\n    tag_35:\n      tag_36\n      jump\t// in\n    tag_34:\n      stop\n        /* \"Interface.sol\":4689:4915  function getDOBByAddress(... */\n    tag_8:\n      tag_37\n      0x04\n      dup1\n      calldatasize\n      sub\n      dup2\n      add\n      swap1\n      tag_38\n      swap2\n      swap1\n      tag_39\n      jump\t// in\n    tag_38:\n      tag_40\n      jump\t// in\n    tag_37:\n      mload(0x40)\n      tag_41\n      swap2\n      swap1\n      tag_42\n      jump\t// in\n    tag_41:\n      mload(0x40)\n      dup1\n      swap2\n      sub\n      swap1\n      return\n        /* \"Interface.sol\":3113:3335  function getImageByAddress(... */\n    tag_9:\n      tag_43\n      0x04\n      dup1\n      calldatasize\n      sub\n      dup2\n      add\n      swap1\n      tag_44\n      swap2\n      swap1\n      tag_39\n      jump\t// in\n    tag_44:\n      tag_45\n      jump\t// in\n    tag_43:\n      mload(0x40)\n      tag_46\n      swap2\n      swap1\n      tag_42\n      jump\t// in\n    tag_46:\n      mload(0x40)\n      dup1\n      swap2\n      sub\n      swap1\n      return\n        /* \"Interface.sol\":2695:3105  function mapPrivateKeyToPublicKey(... */\n    tag_10:\n      tag_47\n      0x04\n      dup1\n      calldatasize\n      sub\n      dup2\n      add\n      swap1\n      tag_48\n      swap2\n      swap1\n      tag_49\n      jump\t// in\n    tag_48:\n      tag_50\n      jump\t// in\n    tag_47:\n      stop\n        /* \"Interface.sol\":5441:5762  function updateContact(... */\n    tag_11:\n      tag_51\n      0x04\n      dup1\n      calldatasize\n      sub\n      dup2\n      add\n      swap1\n      tag_52\n      swap2\n      swap1\n      tag_22\n      jump\t// in\n    tag_52:\n      tag_53\n      jump\t// in\n    tag_51:\n      stop\n        /* \"Interface.sol\":5193:5433  function getContactByAddress(... */\n    tag_12:\n      tag_54\n      0x04\n      dup1\n      calldatasize\n      sub\n      dup2\n      add\n      swap1\n      tag_55\n      swap2\n      swap1\n      tag_39\n      jump\t// in\n    tag_55:\n      tag_56\n      jump\t// in\n    tag_54:\n      mload(0x40)\n      tag_57\n      swap2\n      swap1\n      tag_42\n      jump\t// in\n    tag_57:\n      mload(0x40)\n      dup1\n      swap2\n      sub\n      swap1\n      return\n        /* \"Interface.sol\":375:412  mapping(address => User) public users */\n    tag_13:\n      tag_58\n      0x04\n      dup1\n      calldatasize\n      sub\n      dup2\n      add\n      swap1\n      tag_59\n      swap2\n      swap1\n      tag_39\n      jump\t// in\n    tag_59:\n      tag_60\n      jump\t// in\n    tag_58:\n      mload(0x40)\n      tag_61\n      swap7\n      swap6\n      swap5\n      swap4\n      swap3\n      swap2\n      swap1\n      tag_62\n      jump\t// in\n    tag_61:\n      mload(0x40)\n      dup1\n      swap2\n      sub\n      swap1\n      return\n        /* \"Interface.sol\":460:514  mapping(string => string) public privateKeyToPublicKey */\n    tag_14:\n      tag_63\n      0x04\n      dup1\n      calldatasize\n      sub\n      dup2\n      add\n      swap1\n      tag_64\n      swap2\n      swap1\n      tag_65\n      jump\t// in\n    tag_64:\n      tag_66\n      jump\t// in\n    tag_63:\n      mload(0x40)\n      tag_67\n      swap2\n      swap1\n      tag_42\n      jump\t// in\n    tag_67:\n      mload(0x40)\n      dup1\n      swap2\n      sub\n      swap1\n      return\n        /* \"Interface.sol\":3619:3850  function getUsernameByAddress(... */\n    tag_15:\n      tag_68\n      0x04\n      dup1\n      calldatasize\n      sub\n      dup2\n      add\n      swap1\n      tag_69\n      swap2\n      swap1\n      tag_39\n      jump\t// in\n    tag_69:\n      tag_70\n      jump\t// in\n    tag_68:\n      mload(0x40)\n      tag_71\n      swap2\n      swap1\n      tag_42\n      jump\t// in\n    tag_71:\n      mload(0x40)\n      dup1\n      swap2\n      sub\n      swap1\n      return\n        /* \"Interface.sol\":4183:4405  function getEmailByAddress(... */\n    tag_16:\n      tag_72\n      0x04\n      dup1\n      calldatasize\n      sub\n      dup2\n      add\n      swap1\n      tag_73\n      swap2\n      swap1\n      tag_39\n      jump\t// in\n    tag_73:\n      tag_74\n      jump\t// in\n    tag_72:\n      mload(0x40)\n      tag_75\n      swap2\n      swap1\n      tag_42\n      jump\t// in\n    tag_75:\n      mload(0x40)\n      dup1\n      swap2\n      sub\n      swap1\n      return\n        /* \"Interface.sol\":4923:5185  function updateDOB(address _userAddress, string memory _newDOB) public {... */\n    tag_23:\n        /* \"Interface.sol\":5081:5088  _newDOB */\n      dup1\n        /* \"Interface.sol\":5055:5060  users */\n      0x00\n        /* \"Interface.sol\":5055:5074  users[_userAddress] */\n      dup1\n        /* \"Interface.sol\":5061:5073  _userAddress */\n      dup5\n        /* \"Interface.sol\":5055:5074  users[_userAddress] */\n      0xffffffffffffffffffffffffffffffffffffffff\n      and\n      0xffffffffffffffffffffffffffffffffffffffff\n      and\n      dup2\n      mstore\n      0x20\n      add\n      swap1\n      dup2\n      mstore\n      0x20\n      add\n      0x00\n      keccak256\n        /* \"Interface.sol\":5055:5078  users[_userAddress].dob */\n      0x05\n      add\n        /* \"Interface.sol\":5055:5088  users[_userAddress].dob = _newDOB */\n      swap1\n      dup2\n      tag_77\n      swap2\n      swap1\n      tag_78\n      jump\t// in\n    tag_77:\n      pop\n        /* \"Interface.sol\":5149:5161  _userAddress */\n      dup2\n        /* \"Interface.sol\":5138:5177  DOBUpdated(_userAddress, _newDOB, true) */\n      0xffffffffffffffffffffffffffffffffffffffff\n      and\n      0xf5465bf5342a4f1925a69b8034c58851a693a41d6687efd81d7519a92239058f\n        /* \"Interface.sol\":5163:5170  _newDOB */\n      dup3\n        /* \"Interface.sol\":5172:5176  true */\n      0x01\n        /* \"Interface.sol\":5138:5177  DOBUpdated(_userAddress, _newDOB, true) */\n      mload(0x40)\n      tag_79\n      swap3\n      swap2\n      swap1\n      tag_80\n      jump\t// in\n    tag_79:\n      mload(0x40)\n      dup1\n      swap2\n      sub\n      swap1\n      log2\n        /* \"Interface.sol\":4923:5185  function updateDOB(address _userAddress, string memory _newDOB) public {... */\n      pop\n      pop\n      jump\t// out\n        /* \"Interface.sol\":4413:4681  function updateEmail(address _userAddress, string memory _newEmail) public {... */\n    tag_26:\n        /* \"Interface.sol\":4569:4578  _newEmail */\n      dup1\n        /* \"Interface.sol\":4541:4546  users */\n      0x00\n        /* \"Interface.sol\":4541:4560  users[_userAddress] */\n      dup1\n        /* \"Interface.sol\":4547:4559  _userAddress */\n      dup5\n        /* \"Interface.sol\":4541:4560  users[_userAddress] */\n      0xffffffffffffffffffffffffffffffffffffffff\n      and\n      0xffffffffffffffffffffffffffffffffffffffff\n      and\n      dup2\n      mstore\n      0x20\n      add\n      swap1\n      dup2\n      mstore\n      0x20\n      add\n      0x00\n      keccak256\n        /* \"Interface.sol\":4541:4566  users[_userAddress].email */\n      0x01\n      add\n        /* \"Interface.sol\":4541:4578  users[_userAddress].email = _newEmail */\n      swap1\n      dup2\n      tag_82\n      swap2\n      swap1\n      tag_78\n      jump\t// in\n    tag_82:\n      pop\n        /* \"Interface.sol\":4643:4655  _userAddress */\n      dup2\n        /* \"Interface.sol\":4630:4673  EmailUpdated(_userAddress, _newEmail, true) */\n      0xffffffffffffffffffffffffffffffffffffffff\n      and\n      0xb18109d56de47f8f3fb67ef94c48b15b5bb4a6fdde6dcac27a00857b71665093\n        /* \"Interface.sol\":4657:4666  _newEmail */\n      dup3\n        /* \"Interface.sol\":4668:4672  true */\n      0x01\n        /* \"Interface.sol\":4630:4673  EmailUpdated(_userAddress, _newEmail, true) */\n      mload(0x40)\n      tag_83\n      swap3\n      swap2\n      swap1\n      tag_80\n      jump\t// in\n    tag_83:\n      mload(0x40)\n      dup1\n      swap2\n      sub\n      swap1\n      log2\n        /* \"Interface.sol\":4413:4681  function updateEmail(address _userAddress, string memory _newEmail) public {... */\n      pop\n      pop\n      jump\t// out\n        /* \"Interface.sol\":3343:3611  function updateImage(address _userAddress, string memory _newImage) public {... */\n    tag_29:\n        /* \"Interface.sol\":3499:3508  _newImage */\n      dup1\n        /* \"Interface.sol\":3471:3476  users */\n      0x00\n        /* \"Interface.sol\":3471:3490  users[_userAddress] */\n      dup1\n        /* \"Interface.sol\":3477:3489  _userAddress */\n      dup5\n        /* \"Interface.sol\":3471:3490  users[_userAddress] */\n      0xffffffffffffffffffffffffffffffffffffffff\n      and\n      0xffffffffffffffffffffffffffffffffffffffff\n      and\n      dup2\n      mstore\n      0x20\n      add\n      swap1\n      dup2\n      mstore\n      0x20\n      add\n      0x00\n      keccak256\n        /* \"Interface.sol\":3471:3496  users[_userAddress].image */\n      0x03\n      add\n        /* \"Interface.sol\":3471:3508  users[_userAddress].image = _newImage */\n      swap1\n      dup2\n      tag_85\n      swap2\n      swap1\n      tag_78\n      jump\t// in\n    tag_85:\n      pop\n        /* \"Interface.sol\":3573:3585  _userAddress */\n      dup2\n        /* \"Interface.sol\":3560:3603  ImageUpdated(_userAddress, _newImage, true) */\n      0xffffffffffffffffffffffffffffffffffffffff\n      and\n      0x11367dad338e86b55574e55dbad877633c889d17456c7fb3ae4ea1a89c18cf23\n        /* \"Interface.sol\":3587:3596  _newImage */\n      dup3\n        /* \"Interface.sol\":3598:3602  true */\n      0x01\n        /* \"Interface.sol\":3560:3603  ImageUpdated(_userAddress, _newImage, true) */\n      mload(0x40)\n      tag_86\n      swap3\n      swap2\n      swap1\n      tag_80\n      jump\t// in\n    tag_86:\n      mload(0x40)\n      dup1\n      swap2\n      sub\n      swap1\n      log2\n        /* \"Interface.sol\":3343:3611  function updateImage(address _userAddress, string memory _newImage) public {... */\n      pop\n      pop\n      jump\t// out\n        /* \"Interface.sol\":990:2201  function createUser(... */\n    tag_33:\n        /* \"Interface.sol\":1375:1376  0 */\n      0x00\n        /* \"Interface.sol\":1332:1377  users[_userAddress].userAddress == address(0) */\n      0xffffffffffffffffffffffffffffffffffffffff\n      and\n        /* \"Interface.sol\":1332:1337  users */\n      0x00\n        /* \"Interface.sol\":1332:1351  users[_userAddress] */\n      dup1\n        /* \"Interface.sol\":1338:1350  _userAddress */\n      dup10\n        /* \"Interface.sol\":1332:1351  users[_userAddress] */\n      0xffffffffffffffffffffffffffffffffffffffff\n      and\n      0xffffffffffffffffffffffffffffffffffffffff\n      and\n      dup2\n      mstore\n      0x20\n      add\n      swap1\n      dup2\n      mstore\n      0x20\n      add\n      0x00\n      keccak256\n        /* \"Interface.sol\":1332:1363  users[_userAddress].userAddress */\n      0x00\n      add\n      0x00\n      swap1\n      sload\n      swap1\n      0x0100\n      exp\n      swap1\n      div\n      0xffffffffffffffffffffffffffffffffffffffff\n      and\n        /* \"Interface.sol\":1332:1377  users[_userAddress].userAddress == address(0) */\n      0xffffffffffffffffffffffffffffffffffffffff\n      and\n      eq\n        /* \"Interface.sol\":1310:1424  require(... */\n      tag_88\n      jumpi\n      mload(0x40)\n      0x08c379a000000000000000000000000000000000000000000000000000000000\n      dup2\n      mstore\n      0x04\n      add\n      tag_89\n      swap1\n      tag_90\n      jump\t// in\n    tag_89:\n      mload(0x40)\n      dup1\n      swap2\n      sub\n      swap1\n      revert\n    tag_88:\n        /* \"Interface.sol\":1590:1591  0 */\n      0x00\n        /* \"Interface.sol\":1544:1565  privateKeyToPublicKey */\n      0x01\n        /* \"Interface.sol\":1566:1577  _privateKey */\n      dup3\n        /* \"Interface.sol\":1544:1578  privateKeyToPublicKey[_privateKey] */\n      mload(0x40)\n      tag_91\n      swap2\n      swap1\n      tag_92\n      jump\t// in\n    tag_91:\n      swap1\n      dup2\n      mstore\n      0x20\n      add\n      mload(0x40)\n      dup1\n      swap2\n      sub\n      swap1\n      keccak256\n        /* \"Interface.sol\":1538:1586  bytes(privateKeyToPublicKey[_privateKey]).length */\n      dup1\n      sload\n      tag_93\n      swap1\n      tag_94\n      jump\t// in\n    tag_93:\n      swap1\n      pop\n        /* \"Interface.sol\":1538:1591  bytes(privateKeyToPublicKey[_privateKey]).length == 0 */\n      eq\n        /* \"Interface.sol\":1516:1645  require(... */\n      tag_95\n      jumpi\n      mload(0x40)\n      0x08c379a000000000000000000000000000000000000000000000000000000000\n      dup2\n      mstore\n      0x04\n      add\n      tag_96\n      swap1\n      tag_97\n      jump\t// in\n    tag_96:\n      mload(0x40)\n      dup1\n      swap2\n      sub\n      swap1\n      revert\n    tag_95:\n        /* \"Interface.sol\":1658:1677  User memory newUser */\n      0x00\n        /* \"Interface.sol\":1680:1883  User({... */\n      mload(0x40)\n      dup1\n      0xc0\n      add\n      0x40\n      mstore\n      dup1\n        /* \"Interface.sol\":1713:1725  _userAddress */\n      dup10\n        /* \"Interface.sol\":1680:1883  User({... */\n      0xffffffffffffffffffffffffffffffffffffffff\n      and\n      dup2\n      mstore\n      0x20\n      add\n        /* \"Interface.sol\":1747:1753  _email */\n      dup9\n        /* \"Interface.sol\":1680:1883  User({... */\n      dup2\n      mstore\n      0x20\n      add\n        /* \"Interface.sol\":1778:1787  _username */\n      dup8\n        /* \"Interface.sol\":1680:1883  User({... */\n      dup2\n      mstore\n      0x20\n      add\n        /* \"Interface.sol\":1809:1815  _image */\n      dup7\n        /* \"Interface.sol\":1680:1883  User({... */\n      dup2\n      mstore\n      0x20\n      add\n        /* \"Interface.sol\":1839:1847  _contact */\n      dup6\n        /* \"Interface.sol\":1680:1883  User({... */\n      dup2\n      mstore\n      0x20\n      add\n        /* \"Interface.sol\":1867:1871  _dob */\n      dup5\n        /* \"Interface.sol\":1680:1883  User({... */\n      dup2\n      mstore\n      pop\n        /* \"Interface.sol\":1658:1883  User memory newUser = User({... */\n      swap1\n      pop\n        /* \"Interface.sol\":1951:1958  newUser */\n      dup1\n        /* \"Interface.sol\":1929:1934  users */\n      0x00\n        /* \"Interface.sol\":1929:1948  users[_userAddress] */\n      dup1\n        /* \"Interface.sol\":1935:1947  _userAddress */\n      dup11\n        /* \"Interface.sol\":1929:1948  users[_userAddress] */\n      0xffffffffffffffffffffffffffffffffffffffff\n      and\n      0xffffffffffffffffffffffffffffffffffffffff\n      and\n      dup2\n      mstore\n      0x20\n      add\n      swap1\n      dup2\n      mstore\n      0x20\n      add\n      0x00\n      keccak256\n        /* \"Interface.sol\":1929:1958  users[_userAddress] = newUser */\n      0x00\n      dup3\n      add\n      mload\n      dup2\n      0x00\n      add\n      exp(0x0100, 0x00)\n      dup2\n      sload\n      dup2\n      0xffffffffffffffffffffffffffffffffffffffff\n      mul\n      not\n      and\n      swap1\n      dup4\n      0xffffffffffffffffffffffffffffffffffffffff\n      and\n      mul\n      or\n      swap1\n      sstore\n      pop\n      0x20\n      dup3\n      add\n      mload\n      dup2\n      0x01\n      add\n      swap1\n      dup2\n      tag_98\n      swap2\n      swap1\n      tag_78\n      jump\t// in\n    tag_98:\n      pop\n      0x40\n      dup3\n      add\n      mload\n      dup2\n      0x02\n      add\n      swap1\n      dup2\n      tag_99\n      swap2\n      swap1\n      tag_78\n      jump\t// in\n    tag_99:\n      pop\n      0x60\n      dup3\n      add\n      mload\n      dup2\n      0x03\n      add\n      swap1\n      dup2\n      tag_100\n      swap2\n      swap1\n      tag_78\n      jump\t// in\n    tag_100:\n      pop\n      0x80\n      dup3\n      add\n      mload\n      dup2\n      0x04\n      add\n      swap1\n      dup2\n      tag_101\n      swap2\n      swap1\n      tag_78\n      jump\t// in\n    tag_101:\n      pop\n      0xa0\n      dup3\n      add\n      mload\n      dup2\n      0x05\n      add\n      swap1\n      dup2\n      tag_102\n      swap2\n      swap1\n      tag_78\n      jump\t// in\n    tag_102:\n      pop\n      swap1\n      pop\n      pop\n        /* \"Interface.sol\":2013:2041  string memory userAddressStr */\n      0x00\n        /* \"Interface.sol\":2044:2073  addressToString(_userAddress) */\n      tag_103\n        /* \"Interface.sol\":2060:2072  _userAddress */\n      dup10\n        /* \"Interface.sol\":2044:2059  addressToString */\n      tag_104\n        /* \"Interface.sol\":2044:2073  addressToString(_userAddress) */\n      jump\t// in\n    tag_103:\n        /* \"Interface.sol\":2013:2073  string memory userAddressStr = addressToString(_userAddress) */\n      swap1\n      pop\n        /* \"Interface.sol\":2140:2193  mapPrivateKeyToPublicKey(_privateKey, userAddressStr) */\n      tag_105\n        /* \"Interface.sol\":2165:2176  _privateKey */\n      dup4\n        /* \"Interface.sol\":2178:2192  userAddressStr */\n      dup3\n        /* \"Interface.sol\":2140:2164  mapPrivateKeyToPublicKey */\n      tag_50\n        /* \"Interface.sol\":2140:2193  mapPrivateKeyToPublicKey(_privateKey, userAddressStr) */\n      jump\t// in\n    tag_105:\n        /* \"Interface.sol\":1249:2201  {... */\n      pop\n      pop\n        /* \"Interface.sol\":990:2201  function createUser(... */\n      pop\n      pop\n      pop\n      pop\n      pop\n      pop\n      pop\n      jump\t// out\n        /* \"Interface.sol\":3858:4175  function updateUsername(... */\n    tag_36:\n        /* \"Interface.sol\":4051:4063  _newUsername */\n      dup1\n        /* \"Interface.sol\":4020:4025  users */\n      0x00\n        /* \"Interface.sol\":4020:4039  users[_userAddress] */\n      dup1\n        /* \"Interface.sol\":4026:4038  _userAddress */\n      dup5\n        /* \"Interface.sol\":4020:4039  users[_userAddress] */\n      0xffffffffffffffffffffffffffffffffffffffff\n      and\n      0xffffffffffffffffffffffffffffffffffffffff\n      and\n      dup2\n      mstore\n      0x20\n      add\n      swap1\n      dup2\n      mstore\n      0x20\n      add\n      0x00\n      keccak256\n        /* \"Interface.sol\":4020:4048  users[_userAddress].username */\n      0x02\n      add\n        /* \"Interface.sol\":4020:4063  users[_userAddress].username = _newUsername */\n      swap1\n      dup2\n      tag_107\n      swap2\n      swap1\n      tag_78\n      jump\t// in\n    tag_107:\n      pop\n        /* \"Interface.sol\":4134:4146  _userAddress */\n      dup2\n        /* \"Interface.sol\":4118:4167  UsernameUpdated(_userAddress, _newUsername, true) */\n      0xffffffffffffffffffffffffffffffffffffffff\n      and\n      0x476add05a5729fa7ac341833a53b4e6bafa9fce7e320778009a503c27acb9740\n        /* \"Interface.sol\":4148:4160  _newUsername */\n      dup3\n        /* \"Interface.sol\":4162:4166  true */\n      0x01\n        /* \"Interface.sol\":4118:4167  UsernameUpdated(_userAddress, _newUsername, true) */\n      mload(0x40)\n      tag_108\n      swap3\n      swap2\n      swap1\n      tag_80\n      jump\t// in\n    tag_108:\n      mload(0x40)\n      dup1\n      swap2\n      sub\n      swap1\n      log2\n        /* \"Interface.sol\":3858:4175  function updateUsername(... */\n      pop\n      pop\n      jump\t// out\n        /* \"Interface.sol\":4689:4915  function getDOBByAddress(... */\n    tag_40:\n        /* \"Interface.sol\":4773:4786  string memory */\n      0x60\n        /* \"Interface.sol\":4884:4889  users */\n      0x00\n        /* \"Interface.sol\":4884:4903  users[_userAddress] */\n      dup1\n        /* \"Interface.sol\":4890:4902  _userAddress */\n      dup4\n        /* \"Interface.sol\":4884:4903  users[_userAddress] */\n      0xffffffffffffffffffffffffffffffffffffffff\n      and\n      0xffffffffffffffffffffffffffffffffffffffff\n      and\n      dup2\n      mstore\n      0x20\n      add\n      swap1\n      dup2\n      mstore\n      0x20\n      add\n      0x00\n      keccak256\n        /* \"Interface.sol\":4884:4907  users[_userAddress].dob */\n      0x05\n      add\n        /* \"Interface.sol\":4877:4907  return users[_userAddress].dob */\n      dup1\n      sload\n      tag_110\n      swap1\n      tag_94\n      jump\t// in\n    tag_110:\n      dup1\n      0x1f\n      add\n      0x20\n      dup1\n      swap2\n      div\n      mul\n      0x20\n      add\n      mload(0x40)\n      swap1\n      dup2\n      add\n      0x40\n      mstore\n      dup1\n      swap3\n      swap2\n      swap1\n      dup2\n      dup2\n      mstore\n      0x20\n      add\n      dup3\n      dup1\n      sload\n      tag_111\n      swap1\n      tag_94\n      jump\t// in\n    tag_111:\n      dup1\n      iszero\n      tag_112\n      jumpi\n      dup1\n      0x1f\n      lt\n      tag_113\n      jumpi\n      0x0100\n      dup1\n      dup4\n      sload\n      div\n      mul\n      dup4\n      mstore\n      swap2\n      0x20\n      add\n      swap2\n      jump(tag_112)\n    tag_113:\n      dup3\n      add\n      swap2\n      swap1\n      0x00\n      mstore\n      keccak256(0x00, 0x20)\n      swap1\n    tag_114:\n      dup2\n      sload\n      dup2\n      mstore\n      swap1\n      0x01\n      add\n      swap1\n      0x20\n      add\n      dup1\n      dup4\n      gt\n      tag_114\n      jumpi\n      dup3\n      swap1\n      sub\n      0x1f\n      and\n      dup3\n      add\n      swap2\n    tag_112:\n      pop\n      pop\n      pop\n      pop\n      pop\n      swap1\n      pop\n        /* \"Interface.sol\":4689:4915  function getDOBByAddress(... */\n      swap2\n      swap1\n      pop\n      jump\t// out\n        /* \"Interface.sol\":3113:3335  function getImageByAddress(... */\n    tag_45:\n        /* \"Interface.sol\":3199:3212  string memory */\n      0x60\n        /* \"Interface.sol\":3302:3307  users */\n      0x00\n        /* \"Interface.sol\":3302:3321  users[_userAddress] */\n      dup1\n        /* \"Interface.sol\":3308:3320  _userAddress */\n      dup4\n        /* \"Interface.sol\":3302:3321  users[_userAddress] */\n      0xffffffffffffffffffffffffffffffffffffffff\n      and\n      0xffffffffffffffffffffffffffffffffffffffff\n      and\n      dup2\n      mstore\n      0x20\n      add\n      swap1\n      dup2\n      mstore\n      0x20\n      add\n      0x00\n      keccak256\n        /* \"Interface.sol\":3302:3327  users[_userAddress].image */\n      0x03\n      add\n        /* \"Interface.sol\":3295:3327  return users[_userAddress].image */\n      dup1\n      sload\n      tag_116\n      swap1\n      tag_94\n      jump\t// in\n    tag_116:\n      dup1\n      0x1f\n      add\n      0x20\n      dup1\n      swap2\n      div\n      mul\n      0x20\n      add\n      mload(0x40)\n      swap1\n      dup2\n      add\n      0x40\n      mstore\n      dup1\n      swap3\n      swap2\n      swap1\n      dup2\n      dup2\n      mstore\n      0x20\n      add\n      dup3\n      dup1\n      sload\n      tag_117\n      swap1\n      tag_94\n      jump\t// in\n    tag_117:\n      dup1\n      iszero\n      tag_118\n      jumpi\n      dup1\n      0x1f\n      lt\n      tag_119\n      jumpi\n      0x0100\n      dup1\n      dup4\n      sload\n      div\n      mul\n      dup4\n      mstore\n      swap2\n      0x20\n      add\n      swap2\n      jump(tag_118)\n    tag_119:\n      dup3\n      add\n      swap2\n      swap1\n      0x00\n      mstore\n      keccak256(0x00, 0x20)\n      swap1\n    tag_120:\n      dup2\n      sload\n      dup2\n      mstore\n      swap1\n      0x01\n      add\n      swap1\n      0x20\n      add\n      dup1\n      dup4\n      gt\n      tag_120\n      jumpi\n      dup3\n      swap1\n      sub\n      0x1f\n      and\n      dup3\n      add\n      swap2\n    tag_118:\n      pop\n      pop\n      pop\n      pop\n      pop\n      swap1\n      pop\n        /* \"Interface.sol\":3113:3335  function getImageByAddress(... */\n      swap2\n      swap1\n      pop\n      jump\t// out\n        /* \"Interface.sol\":2695:3105  function mapPrivateKeyToPublicKey(... */\n    tag_50:\n        /* \"Interface.sol\":2980:2981  0 */\n      0x00\n        /* \"Interface.sol\":2934:2955  privateKeyToPublicKey */\n      0x01\n        /* \"Interface.sol\":2956:2967  _privateKey */\n      dup4\n        /* \"Interface.sol\":2934:2968  privateKeyToPublicKey[_privateKey] */\n      mload(0x40)\n      tag_122\n      swap2\n      swap1\n      tag_92\n      jump\t// in\n    tag_122:\n      swap1\n      dup2\n      mstore\n      0x20\n      add\n      mload(0x40)\n      dup1\n      swap2\n      sub\n      swap1\n      keccak256\n        /* \"Interface.sol\":2928:2976  bytes(privateKeyToPublicKey[_privateKey]).length */\n      dup1\n      sload\n      tag_123\n      swap1\n      tag_94\n      jump\t// in\n    tag_123:\n      swap1\n      pop\n        /* \"Interface.sol\":2928:2981  bytes(privateKeyToPublicKey[_privateKey]).length == 0 */\n      eq\n        /* \"Interface.sol\":2906:3035  require(... */\n      tag_124\n      jumpi\n      mload(0x40)\n      0x08c379a000000000000000000000000000000000000000000000000000000000\n      dup2\n      mstore\n      0x04\n      add\n      tag_125\n      swap1\n      tag_126\n      jump\t// in\n    tag_125:\n      mload(0x40)\n      dup1\n      swap2\n      sub\n      swap1\n      revert\n    tag_124:\n        /* \"Interface.sol\":3085:3097  _userAddress */\n      dup1\n        /* \"Interface.sol\":3048:3069  privateKeyToPublicKey */\n      0x01\n        /* \"Interface.sol\":3070:3081  _privateKey */\n      dup4\n        /* \"Interface.sol\":3048:3082  privateKeyToPublicKey[_privateKey] */\n      mload(0x40)\n      tag_127\n      swap2\n      swap1\n      tag_92\n      jump\t// in\n    tag_127:\n      swap1\n      dup2\n      mstore\n      0x20\n      add\n      mload(0x40)\n      dup1\n      swap2\n      sub\n      swap1\n      keccak256\n        /* \"Interface.sol\":3048:3097  privateKeyToPublicKey[_privateKey] = _userAddress */\n      swap1\n      dup2\n      tag_128\n      swap2\n      swap1\n      tag_78\n      jump\t// in\n    tag_128:\n      pop\n        /* \"Interface.sol\":2695:3105  function mapPrivateKeyToPublicKey(... */\n      pop\n      pop\n      jump\t// out\n        /* \"Interface.sol\":5441:5762  function updateContact(... */\n    tag_53:\n        /* \"Interface.sol\":5642:5653  _newContact */\n      dup1\n        /* \"Interface.sol\":5612:5617  users */\n      0x00\n        /* \"Interface.sol\":5612:5631  users[_userAddress] */\n      dup1\n        /* \"Interface.sol\":5618:5630  _userAddress */\n      dup5\n        /* \"Interface.sol\":5612:5631  users[_userAddress] */\n      0xffffffffffffffffffffffffffffffffffffffff\n      and\n      0xffffffffffffffffffffffffffffffffffffffff\n      and\n      dup2\n      mstore\n      0x20\n      add\n      swap1\n      dup2\n      mstore\n      0x20\n      add\n      0x00\n      keccak256\n        /* \"Interface.sol\":5612:5639  users[_userAddress].contact */\n      0x04\n      add\n        /* \"Interface.sol\":5612:5653  users[_userAddress].contact = _newContact */\n      swap1\n      dup2\n      tag_130\n      swap2\n      swap1\n      tag_78\n      jump\t// in\n    tag_130:\n      pop\n        /* \"Interface.sol\":5722:5734  _userAddress */\n      dup2\n        /* \"Interface.sol\":5707:5754  ContactUpdated(_userAddress, _newContact, true) */\n      0xffffffffffffffffffffffffffffffffffffffff\n      and\n      0xfe7de045050b107eac8e27cb35d4d684535c55b2f8e008c4d8771a771f789b08\n        /* \"Interface.sol\":5736:5747  _newContact */\n      dup3\n        /* \"Interface.sol\":5749:5753  true */\n      0x01\n        /* \"Interface.sol\":5707:5754  ContactUpdated(_userAddress, _newContact, true) */\n      mload(0x40)\n      tag_131\n      swap3\n      swap2\n      swap1\n      tag_80\n      jump\t// in\n    tag_131:\n      mload(0x40)\n      dup1\n      swap2\n      sub\n      swap1\n      log2\n        /* \"Interface.sol\":5441:5762  function updateContact(... */\n      pop\n      pop\n      jump\t// out\n        /* \"Interface.sol\":5193:5433  function getContactByAddress(... */\n    tag_56:\n        /* \"Interface.sol\":5281:5294  string memory */\n      0x60\n        /* \"Interface.sol\":5398:5403  users */\n      0x00\n        /* \"Interface.sol\":5398:5417  users[_userAddress] */\n      dup1\n        /* \"Interface.sol\":5404:5416  _userAddress */\n      dup4\n        /* \"Interface.sol\":5398:5417  users[_userAddress] */\n      0xffffffffffffffffffffffffffffffffffffffff\n      and\n      0xffffffffffffffffffffffffffffffffffffffff\n      and\n      dup2\n      mstore\n      0x20\n      add\n      swap1\n      dup2\n      mstore\n      0x20\n      add\n      0x00\n      keccak256\n        /* \"Interface.sol\":5398:5425  users[_userAddress].contact */\n      0x04\n      add\n        /* \"Interface.sol\":5391:5425  return users[_userAddress].contact */\n      dup1\n      sload\n      tag_133\n      swap1\n      tag_94\n      jump\t// in\n    tag_133:\n      dup1\n      0x1f\n      add\n      0x20\n      dup1\n      swap2\n      div\n      mul\n      0x20\n      add\n      mload(0x40)\n      swap1\n      dup2\n      add\n      0x40\n      mstore\n      dup1\n      swap3\n      swap2\n      swap1\n      dup2\n      dup2\n      mstore\n      0x20\n      add\n      dup3\n      dup1\n      sload\n      tag_134\n      swap1\n      tag_94\n      jump\t// in\n    tag_134:\n      dup1\n      iszero\n      tag_135\n      jumpi\n      dup1\n      0x1f\n      lt\n      tag_136\n      jumpi\n      0x0100\n      dup1\n      dup4\n      sload\n      div\n      mul\n      dup4\n      mstore\n      swap2\n      0x20\n      add\n      swap2\n      jump(tag_135)\n    tag_136:\n      dup3\n      add\n      swap2\n      swap1\n      0x00\n      mstore\n      keccak256(0x00, 0x20)\n      swap1\n    tag_137:\n      dup2\n      sload\n      dup2\n      mstore\n      swap1\n      0x01\n      add\n      swap1\n      0x20\n      add\n      dup1\n      dup4\n      gt\n      tag_137\n      jumpi\n      dup3\n      swap1\n      sub\n      0x1f\n      and\n      dup3\n      add\n      swap2\n    tag_135:\n      pop\n      pop\n      pop\n      pop\n      pop\n      swap1\n      pop\n        /* \"Interface.sol\":5193:5433  function getContactByAddress(... */\n      swap2\n      swap1\n      pop\n      jump\t// out\n        /* \"Interface.sol\":375:412  mapping(address => User) public users */\n    tag_60:\n      mstore(0x20, 0x00)\n      dup1\n      0x00\n      mstore\n      keccak256(0x00, 0x40)\n      0x00\n      swap2\n      pop\n      swap1\n      pop\n      dup1\n      0x00\n      add\n      0x00\n      swap1\n      sload\n      swap1\n      0x0100\n      exp\n      swap1\n      div\n      0xffffffffffffffffffffffffffffffffffffffff\n      and\n      swap1\n      dup1\n      0x01\n      add\n      dup1\n      sload\n      tag_138\n      swap1\n      tag_94\n      jump\t// in\n    tag_138:\n      dup1\n      0x1f\n      add\n      0x20\n      dup1\n      swap2\n      div\n      mul\n      0x20\n      add\n      mload(0x40)\n      swap1\n      dup2\n      add\n      0x40\n      mstore\n      dup1\n      swap3\n      swap2\n      swap1\n      dup2\n      dup2\n      mstore\n      0x20\n      add\n      dup3\n      dup1\n      sload\n      tag_139\n      swap1\n      tag_94\n      jump\t// in\n    tag_139:\n      dup1\n      iszero\n      tag_140\n      jumpi\n      dup1\n      0x1f\n      lt\n      tag_141\n      jumpi\n      0x0100\n      dup1\n      dup4\n      sload\n      div\n      mul\n      dup4\n      mstore\n      swap2\n      0x20\n      add\n      swap2\n      jump(tag_140)\n    tag_141:\n      dup3\n      add\n      swap2\n      swap1\n      0x00\n      mstore\n      keccak256(0x00, 0x20)\n      swap1\n    tag_142:\n      dup2\n      sload\n      dup2\n      mstore\n      swap1\n      0x01\n      add\n      swap1\n      0x20\n      add\n      dup1\n      dup4\n      gt\n      tag_142\n      jumpi\n      dup3\n      swap1\n      sub\n      0x1f\n      and\n      dup3\n      add\n      swap2\n    tag_140:\n      pop\n      pop\n      pop\n      pop\n      pop\n      swap1\n      dup1\n      0x02\n      add\n      dup1\n      sload\n      tag_143\n      swap1\n      tag_94\n      jump\t// in\n    tag_143:\n      dup1\n      0x1f\n      add\n      0x20\n      dup1\n      swap2\n      div\n      mul\n      0x20\n      add\n      mload(0x40)\n      swap1\n      dup2\n      add\n      0x40\n      mstore\n      dup1\n      swap3\n      swap2\n      swap1\n      dup2\n      dup2\n      mstore\n      0x20\n      add\n      dup3\n      dup1\n      sload\n      tag_144\n      swap1\n      tag_94\n      jump\t// in\n    tag_144:\n      dup1\n      iszero\n      tag_145\n      jumpi\n      dup1\n      0x1f\n      lt\n      tag_146\n      jumpi\n      0x0100\n      dup1\n      dup4\n      sload\n      div\n      mul\n      dup4\n      mstore\n      swap2\n      0x20\n      add\n      swap2\n      jump(tag_145)\n    tag_146:\n      dup3\n      add\n      swap2\n      swap1\n      0x00\n      mstore\n      keccak256(0x00, 0x20)\n      swap1\n    tag_147:\n      dup2\n      sload\n      dup2\n      mstore\n      swap1\n      0x01\n      add\n      swap1\n      0x20\n      add\n      dup1\n      dup4\n      gt\n      tag_147\n      jumpi\n      dup3\n      swap1\n      sub\n      0x1f\n      and\n      dup3\n      add\n      swap2\n    tag_145:\n      pop\n      pop\n      pop\n      pop\n      pop\n      swap1\n      dup1\n      0x03\n      add\n      dup1\n      sload\n      tag_148\n      swap1\n      tag_94\n      jump\t// in\n    tag_148:\n      dup1\n      0x1f\n      add\n      0x20\n      dup1\n      swap2\n      div\n      mul\n      0x20\n      add\n      mload(0x40)\n      swap1\n      dup2\n      add\n      0x40\n      mstore\n      dup1\n      swap3\n      swap2\n      swap1\n      dup2\n      dup2\n      mstore\n      0x20\n      add\n      dup3\n      dup1\n      sload\n      tag_149\n      swap1\n      tag_94\n      jump\t// in\n    tag_149:\n      dup1\n      iszero\n      tag_150\n      jumpi\n      dup1\n      0x1f\n      lt\n      tag_151\n      jumpi\n      0x0100\n      dup1\n      dup4\n      sload\n      div\n      mul\n      dup4\n      mstore\n      swap2\n      0x20\n      add\n      swap2\n      jump(tag_150)\n    tag_151:\n      dup3\n      add\n      swap2\n      swap1\n      0x00\n      mstore\n      keccak256(0x00, 0x20)\n      swap1\n    tag_152:\n      dup2\n      sload\n      dup2\n      mstore\n      swap1\n      0x01\n      add\n      swap1\n      0x20\n      add\n      dup1\n      dup4\n      gt\n      tag_152\n      jumpi\n      dup3\n      swap1\n      sub\n      0x1f\n      and\n      dup3\n      add\n      swap2\n    tag_150:\n      pop\n      pop\n      pop\n      pop\n      pop\n      swap1\n      dup1\n      0x04\n      add\n      dup1\n      sload\n      tag_153\n      swap1\n      tag_94\n      jump\t// in\n    tag_153:\n      dup1\n      0x1f\n      add\n      0x20\n      dup1\n      swap2\n      div\n      mul\n      0x20\n      add\n      mload(0x40)\n      swap1\n      dup2\n      add\n      0x40\n      mstore\n      dup1\n      swap3\n      swap2\n      swap1\n      dup2\n      dup2\n      mstore\n      0x20\n      add\n      dup3\n      dup1\n      sload\n      tag_154\n      swap1\n      tag_94\n      jump\t// in\n    tag_154:\n      dup1\n      iszero\n      tag_155\n      jumpi\n      dup1\n      0x1f\n      lt\n      tag_156\n      jumpi\n      0x0100\n      dup1\n      dup4\n      sload\n      div\n      mul\n      dup4\n      mstore\n      swap2\n      0x20\n      add\n      swap2\n      jump(tag_155)\n    tag_156:\n      dup3\n      add\n      swap2\n      swap1\n      0x00\n      mstore\n      keccak256(0x00, 0x20)\n      swap1\n    tag_157:\n      dup2\n      sload\n      dup2\n      mstore\n      swap1\n      0x01\n      add\n      swap1\n      0x20\n      add\n      dup1\n      dup4\n      gt\n      tag_157\n      jumpi\n      dup3\n      swap1\n      sub\n      0x1f\n      and\n      dup3\n      add\n      swap2\n    tag_155:\n      pop\n      pop\n      pop\n      pop\n      pop\n      swap1\n      dup1\n      0x05\n      add\n      dup1\n      sload\n      tag_158\n      swap1\n      tag_94\n      jump\t// in\n    tag_158:\n      dup1\n      0x1f\n      add\n      0x20\n      dup1\n      swap2\n      div\n      mul\n      0x20\n      add\n      mload(0x40)\n      swap1\n      dup2\n      add\n      0x40\n      mstore\n      dup1\n      swap3\n      swap2\n      swap1\n      dup2\n      dup2\n      mstore\n      0x20\n      add\n      dup3\n      dup1\n      sload\n      tag_159\n      swap1\n      tag_94\n      jump\t// in\n    tag_159:\n      dup1\n      iszero\n      tag_160\n      jumpi\n      dup1\n      0x1f\n      lt\n      tag_161\n      jumpi\n      0x0100\n      dup1\n      dup4\n      sload\n      div\n      mul\n      dup4\n      mstore\n      swap2\n      0x20\n      add\n      swap2\n      jump(tag_160)\n    tag_161:\n      dup3\n      add\n      swap2\n      swap1\n      0x00\n      mstore\n      keccak256(0x00, 0x20)\n      swap1\n    tag_162:\n      dup2\n      sload\n      dup2\n      mstore\n      swap1\n      0x01\n      add\n      swap1\n      0x20\n      add\n      dup1\n      dup4\n      gt\n      tag_162\n      jumpi\n      dup3\n      swap1\n      sub\n      0x1f\n      and\n      dup3\n      add\n      swap2\n    tag_160:\n      pop\n      pop\n      pop\n      pop\n      pop\n      swap1\n      pop\n      dup7\n      jump\t// out\n        /* \"Interface.sol\":460:514  mapping(string => string) public privateKeyToPublicKey */\n    tag_66:\n      0x01\n      dup2\n      dup1\n      mload\n      0x20\n      dup2\n      add\n      dup3\n      add\n      dup1\n      mload\n      dup5\n      dup3\n      mstore\n      0x20\n      dup4\n      add\n      0x20\n      dup6\n      add\n      keccak256\n      dup2\n      dup4\n      mstore\n      dup1\n      swap6\n      pop\n      pop\n      pop\n      pop\n      pop\n      pop\n      0x00\n      swap2\n      pop\n      swap1\n      pop\n      dup1\n      sload\n      tag_163\n      swap1\n      tag_94\n      jump\t// in\n    tag_163:\n      dup1\n      0x1f\n      add\n      0x20\n      dup1\n      swap2\n      div\n      mul\n      0x20\n      add\n      mload(0x40)\n      swap1\n      dup2\n      add\n      0x40\n      mstore\n      dup1\n      swap3\n      swap2\n      swap1\n      dup2\n      dup2\n      mstore\n      0x20\n      add\n      dup3\n      dup1\n      sload\n      tag_164\n      swap1\n      tag_94\n      jump\t// in\n    tag_164:\n      dup1\n      iszero\n      tag_165\n      jumpi\n      dup1\n      0x1f\n      lt\n      tag_166\n      jumpi\n      0x0100\n      dup1\n      dup4\n      sload\n      div\n      mul\n      dup4\n      mstore\n      swap2\n      0x20\n      add\n      swap2\n      jump(tag_165)\n    tag_166:\n      dup3\n      add\n      swap2\n      swap1\n      0x00\n      mstore\n      keccak256(0x00, 0x20)\n      swap1\n    tag_167:\n      dup2\n      sload\n      dup2\n      mstore\n      swap1\n      0x01\n      add\n      swap1\n      0x20\n      add\n      dup1\n      dup4\n      gt\n      tag_167\n      jumpi\n      dup3\n      swap1\n      sub\n      0x1f\n      and\n      dup3\n      add\n      swap2\n    tag_165:\n      pop\n      pop\n      pop\n      pop\n      pop\n      dup2\n      jump\t// out\n        /* \"Interface.sol\":3619:3850  function getUsernameByAddress(... */\n    tag_70:\n        /* \"Interface.sol\":3708:3721  string memory */\n      0x60\n        /* \"Interface.sol\":3814:3819  users */\n      0x00\n        /* \"Interface.sol\":3814:3833  users[_userAddress] */\n      dup1\n        /* \"Interface.sol\":3820:3832  _userAddress */\n      dup4\n        /* \"Interface.sol\":3814:3833  users[_userAddress] */\n      0xffffffffffffffffffffffffffffffffffffffff\n      and\n      0xffffffffffffffffffffffffffffffffffffffff\n      and\n      dup2\n      mstore\n      0x20\n      add\n      swap1\n      dup2\n      mstore\n      0x20\n      add\n      0x00\n      keccak256\n        /* \"Interface.sol\":3814:3842  users[_userAddress].username */\n      0x02\n      add\n        /* \"Interface.sol\":3807:3842  return users[_userAddress].username */\n      dup1\n      sload\n      tag_169\n      swap1\n      tag_94\n      jump\t// in\n    tag_169:\n      dup1\n      0x1f\n      add\n      0x20\n      dup1\n      swap2\n      div\n      mul\n      0x20\n      add\n      mload(0x40)\n      swap1\n      dup2\n      add\n      0x40\n      mstore\n      dup1\n      swap3\n      swap2\n      swap1\n      dup2\n      dup2\n      mstore\n      0x20\n      add\n      dup3\n      dup1\n      sload\n      tag_170\n      swap1\n      tag_94\n      jump\t// in\n    tag_170:\n      dup1\n      iszero\n      tag_171\n      jumpi\n      dup1\n      0x1f\n      lt\n      tag_172\n      jumpi\n      0x0100\n      dup1\n      dup4\n      sload\n      div\n      mul\n      dup4\n      mstore\n      swap2\n      0x20\n      add\n      swap2\n      jump(tag_171)\n    tag_172:\n      dup3\n      add\n      swap2\n      swap1\n      0x00\n      mstore\n      keccak256(0x00, 0x20)\n      swap1\n    tag_173:\n      dup2\n      sload\n      dup2\n      mstore\n      swap1\n      0x01\n      add\n      swap1\n      0x20\n      add\n      dup1\n      dup4\n      gt\n      tag_173\n      jumpi\n      dup3\n      swap1\n      sub\n      0x1f\n      and\n      dup3\n      add\n      swap2\n    tag_171:\n      pop\n      pop\n      pop\n      pop\n      pop\n      swap1\n      pop\n        /* \"Interface.sol\":3619:3850  function getUsernameByAddress(... */\n      swap2\n      swap1\n      pop\n      jump\t// out\n        /* \"Interface.sol\":4183:4405  function getEmailByAddress(... */\n    tag_74:\n        /* \"Interface.sol\":4269:4282  string memory */\n      0x60\n        /* \"Interface.sol\":4372:4377  users */\n      0x00\n        /* \"Interface.sol\":4372:4391  users[_userAddress] */\n      dup1\n        /* \"Interface.sol\":4378:4390  _userAddress */\n      dup4\n        /* \"Interface.sol\":4372:4391  users[_userAddress] */\n      0xffffffffffffffffffffffffffffffffffffffff\n      and\n      0xffffffffffffffffffffffffffffffffffffffff\n      and\n      dup2\n      mstore\n      0x20\n      add\n      swap1\n      dup2\n      mstore\n      0x20\n      add\n      0x00\n      keccak256\n        /* \"Interface.sol\":4372:4397  users[_userAddress].email */\n      0x01\n      add\n        /* \"Interface.sol\":4365:4397  return users[_userAddress].email */\n      dup1\n      sload\n      tag_175\n      swap1\n      tag_94\n      jump\t// in\n    tag_175:\n      dup1\n      0x1f\n      add\n      0x20\n      dup1\n      swap2\n      div\n      mul\n      0x20\n      add\n      mload(0x40)\n      swap1\n      dup2\n      add\n      0x40\n      mstore\n      dup1\n      swap3\n      swap2\n      swap1\n      dup2\n      dup2\n      mstore\n      0x20\n      add\n      dup3\n      dup1\n      sload\n      tag_176\n      swap1\n      tag_94\n      jump\t// in\n    tag_176:\n      dup1\n      iszero\n      tag_177\n      jumpi\n      dup1\n      0x1f\n      lt\n      tag_178\n      jumpi\n      0x0100\n      dup1\n      dup4\n      sload\n      div\n      mul\n      dup4\n      mstore\n      swap2\n      0x20\n      add\n      swap2\n      jump(tag_177)\n    tag_178:\n      dup3\n      add\n      swap2\n      swap1\n      0x00\n      mstore\n      keccak256(0x00, 0x20)\n      swap1\n    tag_179:\n      dup2\n      sload\n      dup2\n      mstore\n      swap1\n      0x01\n      add\n      swap1\n      0x20\n      add\n      dup1\n      dup4\n      gt\n      tag_179\n      jumpi\n      dup3\n      swap1\n      sub\n      0x1f\n      and\n      dup3\n      add\n      swap2\n    tag_177:\n      pop\n      pop\n      pop\n      pop\n      pop\n      swap1\n      pop\n        /* \"Interface.sol\":4183:4405  function getEmailByAddress(... */\n      swap2\n      swap1\n      pop\n      jump\t// out\n        /* \"Interface.sol\":2260:2687  function addressToString(... */\n    tag_104:\n        /* \"Interface.sol\":2342:2355  string memory */\n      0x60\n        /* \"Interface.sol\":2368:2380  bytes32 data */\n      0x00\n        /* \"Interface.sol\":2407:2415  _address */\n      dup3\n        /* \"Interface.sol\":2391:2417  uint256(uint160(_address)) */\n      0xffffffffffffffffffffffffffffffffffffffff\n      and\n        /* \"Interface.sol\":2383:2418  bytes32(uint256(uint160(_address))) */\n      0x00\n      shl\n        /* \"Interface.sol\":2368:2418  bytes32 data = bytes32(uint256(uint160(_address))) */\n      swap1\n      pop\n        /* \"Interface.sol\":2429:2453  bytes memory bytesString */\n      0x00\n        /* \"Interface.sol\":2466:2468  42 */\n      0x2a\n        /* \"Interface.sol\":2456:2469  new bytes(42) */\n      0xffffffffffffffff\n      dup2\n      gt\n      iszero\n      tag_181\n      jumpi\n      tag_182\n      tag_183\n      jump\t// in\n    tag_182:\n    tag_181:\n      mload(0x40)\n      swap1\n      dup1\n      dup3\n      mstore\n      dup1\n      0x1f\n      add\n      not(0x1f)\n      and\n      0x20\n      add\n      dup3\n      add\n      0x40\n      mstore\n      dup1\n      iszero\n      tag_184\n      jumpi\n      dup2\n      0x20\n      add\n      0x01\n      dup3\n      mul\n      dup1\n      calldatasize\n      dup4\n      calldatacopy\n      dup1\n      dup3\n      add\n      swap2\n      pop\n      pop\n      swap1\n      pop\n    tag_184:\n      pop\n        /* \"Interface.sol\":2429:2469  bytes memory bytesString = new bytes(42) */\n      swap1\n      pop\n        /* \"Interface.sol\":2487:2496  uint256 i */\n      0x00\n        /* \"Interface.sol\":2482:2641  for (uint256 i = 0; i < 20; i++) {... */\n    tag_185:\n        /* \"Interface.sol\":2506:2508  20 */\n      0x14\n        /* \"Interface.sol\":2502:2503  i */\n      dup2\n        /* \"Interface.sol\":2502:2508  i < 20 */\n      lt\n        /* \"Interface.sol\":2482:2641  for (uint256 i = 0; i < 20; i++) {... */\n      iszero\n      tag_186\n      jumpi\n        /* \"Interface.sol\":2530:2541  bytes1 char */\n      0x00\n        /* \"Interface.sol\":2585:2586  i */\n      dup2\n        /* \"Interface.sol\":2581:2582  8 */\n      0x08\n        /* \"Interface.sol\":2581:2586  8 * i */\n      tag_188\n      swap2\n      swap1\n      tag_189\n      jump\t// in\n    tag_188:\n        /* \"Interface.sol\":2575:2576  2 */\n      0x02\n        /* \"Interface.sol\":2575:2587  2 ** (8 * i) */\n      tag_190\n      swap2\n      swap1\n      tag_191\n      jump\t// in\n    tag_190:\n        /* \"Interface.sol\":2567:2571  data */\n      dup5\n        /* \"Interface.sol\":2559:2572  uint256(data) */\n      0x00\n      shr\n        /* \"Interface.sol\":2559:2587  uint256(data) * 2 ** (8 * i) */\n      tag_192\n      swap2\n      swap1\n      tag_189\n      jump\t// in\n    tag_192:\n        /* \"Interface.sol\":2551:2588  bytes32(uint256(data) * 2 ** (8 * i)) */\n      0x00\n      shl\n        /* \"Interface.sol\":2530:2589  bytes1 char = bytes1(bytes32(uint256(data) * 2 ** (8 * i))) */\n      swap1\n      pop\n        /* \"Interface.sol\":2625:2629  char */\n      dup1\n        /* \"Interface.sol\":2604:2615  bytesString */\n      dup4\n        /* \"Interface.sol\":2620:2621  2 */\n      0x02\n        /* \"Interface.sol\":2616:2617  i */\n      dup5\n        /* \"Interface.sol\":2616:2621  i * 2 */\n      tag_193\n      swap2\n      swap1\n      tag_189\n      jump\t// in\n    tag_193:\n        /* \"Interface.sol\":2604:2622  bytesString[i * 2] */\n      dup2\n      mload\n      dup2\n      lt\n      tag_194\n      jumpi\n      tag_195\n      tag_196\n      jump\t// in\n    tag_195:\n    tag_194:\n      0x20\n      add\n      add\n        /* \"Interface.sol\":2604:2629  bytesString[i * 2] = char */\n      swap1\n      not(0xffffffffffffffffffffffffffffffffffffffffffffffffffffffffffffff)\n      and\n      swap1\n      dup2\n      0x00\n      byte\n      swap1\n      mstore8\n      pop\n        /* \"Interface.sol\":2515:2641  {... */\n      pop\n        /* \"Interface.sol\":2510:2513  i++ */\n      dup1\n      dup1\n      0x01\n      add\n      swap2\n      pop\n      pop\n        /* \"Interface.sol\":2482:2641  for (uint256 i = 0; i < 20; i++) {... */\n      jump(tag_185)\n    tag_186:\n      pop\n        /* \"Interface.sol\":2667:2678  bytesString */\n      dup1\n        /* \"Interface.sol\":2653:2679  return string(bytesString) */\n      swap3\n      pop\n      pop\n      pop\n        /* \"Interface.sol\":2260:2687  function addressToString(... */\n      swap2\n      swap1\n      pop\n      jump\t// out\n        /* \"#utility.yul\":7:82   */\n    tag_197:\n        /* \"#utility.yul\":40:46   */\n      0x00\n        /* \"#utility.yul\":73:75   */\n      0x40\n        /* \"#utility.yul\":67:76   */\n      mload\n        /* \"#utility.yul\":57:76   */\n      swap1\n      pop\n        /* \"#utility.yul\":7:82   */\n      swap1\n      jump\t// out\n        /* \"#utility.yul\":88:205   */\n    tag_198:\n        /* \"#utility.yul\":197:198   */\n      0x00\n        /* \"#utility.yul\":194:195   */\n      dup1\n        /* \"#utility.yul\":187:199   */\n      revert\n        /* \"#utility.yul\":211:328   */\n    tag_199:\n        /* \"#utility.yul\":320:321   */\n      0x00\n        /* \"#utility.yul\":317:318   */\n      dup1\n        /* \"#utility.yul\":310:322   */\n      revert\n        /* \"#utility.yul\":334:460   */\n    tag_200:\n        /* \"#utility.yul\":371:378   */\n      0x00\n        /* \"#utility.yul\":411:453   */\n      0xffffffffffffffffffffffffffffffffffffffff\n        /* \"#utility.yul\":404:409   */\n      dup3\n        /* \"#utility.yul\":400:454   */\n      and\n        /* \"#utility.yul\":389:454   */\n      swap1\n      pop\n        /* \"#utility.yul\":334:460   */\n      swap2\n      swap1\n      pop\n      jump\t// out\n        /* \"#utility.yul\":466:562   */\n    tag_201:\n        /* \"#utility.yul\":503:510   */\n      0x00\n        /* \"#utility.yul\":532:556   */\n      tag_255\n        /* \"#utility.yul\":550:555   */\n      dup3\n        /* \"#utility.yul\":532:556   */\n      tag_200\n      jump\t// in\n    tag_255:\n        /* \"#utility.yul\":521:556   */\n      swap1\n      pop\n        /* \"#utility.yul\":466:562   */\n      swap2\n      swap1\n      pop\n      jump\t// out\n        /* \"#utility.yul\":568:690   */\n    tag_202:\n        /* \"#utility.yul\":641:665   */\n      tag_257\n        /* \"#utility.yul\":659:664   */\n      dup2\n        /* \"#utility.yul\":641:665   */\n      tag_201\n      jump\t// in\n    tag_257:\n        /* \"#utility.yul\":634:639   */\n      dup2\n        /* \"#utility.yul\":631:666   */\n      eq\n        /* \"#utility.yul\":621:684   */\n      tag_258\n      jumpi\n        /* \"#utility.yul\":680:681   */\n      0x00\n        /* \"#utility.yul\":677:678   */\n      dup1\n        /* \"#utility.yul\":670:682   */\n      revert\n        /* \"#utility.yul\":621:684   */\n    tag_258:\n        /* \"#utility.yul\":568:690   */\n      pop\n      jump\t// out\n        /* \"#utility.yul\":696:835   */\n    tag_203:\n        /* \"#utility.yul\":742:747   */\n      0x00\n        /* \"#utility.yul\":780:786   */\n      dup2\n        /* \"#utility.yul\":767:787   */\n      calldataload\n        /* \"#utility.yul\":758:787   */\n      swap1\n      pop\n        /* \"#utility.yul\":796:829   */\n      tag_260\n        /* \"#utility.yul\":823:828   */\n      dup2\n        /* \"#utility.yul\":796:829   */\n      tag_202\n      jump\t// in\n    tag_260:\n        /* \"#utility.yul\":696:835   */\n      swap3\n      swap2\n      pop\n      pop\n      jump\t// out\n        /* \"#utility.yul\":841:958   */\n    tag_204:\n        /* \"#utility.yul\":950:951   */\n      0x00\n        /* \"#utility.yul\":947:948   */\n      dup1\n        /* \"#utility.yul\":940:952   */\n      revert\n        /* \"#utility.yul\":964:1081   */\n    tag_205:\n        /* \"#utility.yul\":1073:1074   */\n      0x00\n        /* \"#utility.yul\":1070:1071   */\n      dup1\n        /* \"#utility.yul\":1063:1075   */\n      revert\n        /* \"#utility.yul\":1087:1189   */\n    tag_206:\n        /* \"#utility.yul\":1128:1134   */\n      0x00\n        /* \"#utility.yul\":1179:1181   */\n      0x1f\n        /* \"#utility.yul\":1175:1182   */\n      not\n        /* \"#utility.yul\":1170:1172   */\n      0x1f\n        /* \"#utility.yul\":1163:1168   */\n      dup4\n        /* \"#utility.yul\":1159:1173   */\n      add\n        /* \"#utility.yul\":1155:1183   */\n      and\n        /* \"#utility.yul\":1145:1183   */\n      swap1\n      pop\n        /* \"#utility.yul\":1087:1189   */\n      swap2\n      swap1\n      pop\n      jump\t// out\n        /* \"#utility.yul\":1195:1375   */\n    tag_183:\n        /* \"#utility.yul\":1243:1320   */\n      0x4e487b7100000000000000000000000000000000000000000000000000000000\n        /* \"#utility.yul\":1240:1241   */\n      0x00\n        /* \"#utility.yul\":1233:1321   */\n      mstore\n        /* \"#utility.yul\":1340:1344   */\n      0x41\n        /* \"#utility.yul\":1337:1338   */\n      0x04\n        /* \"#utility.yul\":1330:1345   */\n      mstore\n        /* \"#utility.yul\":1364:1368   */\n      0x24\n        /* \"#utility.yul\":1361:1362   */\n      0x00\n        /* \"#utility.yul\":1354:1369   */\n      revert\n        /* \"#utility.yul\":1381:1662   */\n    tag_207:\n        /* \"#utility.yul\":1464:1491   */\n      tag_266\n        /* \"#utility.yul\":1486:1490   */\n      dup3\n        /* \"#utility.yul\":1464:1491   */\n      tag_206\n      jump\t// in\n    tag_266:\n        /* \"#utility.yul\":1456:1462   */\n      dup2\n        /* \"#utility.yul\":1452:1492   */\n      add\n        /* \"#utility.yul\":1594:1600   */\n      dup2\n        /* \"#utility.yul\":1582:1592   */\n      dup2\n        /* \"#utility.yul\":1579:1601   */\n      lt\n        /* \"#utility.yul\":1558:1576   */\n      0xffffffffffffffff\n        /* \"#utility.yul\":1546:1556   */\n      dup3\n        /* \"#utility.yul\":1543:1577   */\n      gt\n        /* \"#utility.yul\":1540:1602   */\n      or\n        /* \"#utility.yul\":1537:1625   */\n      iszero\n      tag_267\n      jumpi\n        /* \"#utility.yul\":1605:1623   */\n      tag_268\n      tag_183\n      jump\t// in\n    tag_268:\n        /* \"#utility.yul\":1537:1625   */\n    tag_267:\n        /* \"#utility.yul\":1645:1655   */\n      dup1\n        /* \"#utility.yul\":1641:1643   */\n      0x40\n        /* \"#utility.yul\":1634:1656   */\n      mstore\n        /* \"#utility.yul\":1424:1662   */\n      pop\n        /* \"#utility.yul\":1381:1662   */\n      pop\n      pop\n      jump\t// out\n        /* \"#utility.yul\":1668:1797   */\n    tag_208:\n        /* \"#utility.yul\":1702:1708   */\n      0x00\n        /* \"#utility.yul\":1729:1749   */\n      tag_270\n      tag_197\n      jump\t// in\n    tag_270:\n        /* \"#utility.yul\":1719:1749   */\n      swap1\n      pop\n        /* \"#utility.yul\":1758:1791   */\n      tag_271\n        /* \"#utility.yul\":1786:1790   */\n      dup3\n        /* \"#utility.yul\":1778:1784   */\n      dup3\n        /* \"#utility.yul\":1758:1791   */\n      tag_207\n      jump\t// in\n    tag_271:\n        /* \"#utility.yul\":1668:1797   */\n      swap2\n      swap1\n      pop\n      jump\t// out\n        /* \"#utility.yul\":1803:2111   */\n    tag_209:\n        /* \"#utility.yul\":1865:1869   */\n      0x00\n        /* \"#utility.yul\":1955:1973   */\n      0xffffffffffffffff\n        /* \"#utility.yul\":1947:1953   */\n      dup3\n        /* \"#utility.yul\":1944:1974   */\n      gt\n        /* \"#utility.yul\":1941:1997   */\n      iszero\n      tag_273\n      jumpi\n        /* \"#utility.yul\":1977:1995   */\n      tag_274\n      tag_183\n      jump\t// in\n    tag_274:\n        /* \"#utility.yul\":1941:1997   */\n    tag_273:\n        /* \"#utility.yul\":2015:2044   */\n      tag_275\n        /* \"#utility.yul\":2037:2043   */\n      dup3\n        /* \"#utility.yul\":2015:2044   */\n      tag_206\n      jump\t// in\n    tag_275:\n        /* \"#utility.yul\":2007:2044   */\n      swap1\n      pop\n        /* \"#utility.yul\":2099:2103   */\n      0x20\n        /* \"#utility.yul\":2093:2097   */\n      dup2\n        /* \"#utility.yul\":2089:2104   */\n      add\n        /* \"#utility.yul\":2081:2104   */\n      swap1\n      pop\n        /* \"#utility.yul\":1803:2111   */\n      swap2\n      swap1\n      pop\n      jump\t// out\n        /* \"#utility.yul\":2117:2263   */\n    tag_210:\n        /* \"#utility.yul\":2214:2220   */\n      dup3\n        /* \"#utility.yul\":2209:2212   */\n      dup2\n        /* \"#utility.yul\":2204:2207   */\n      dup4\n        /* \"#utility.yul\":2191:2221   */\n      calldatacopy\n        /* \"#utility.yul\":2255:2256   */\n      0x00\n        /* \"#utility.yul\":2246:2252   */\n      dup4\n        /* \"#utility.yul\":2241:2244   */\n      dup4\n        /* \"#utility.yul\":2237:2253   */\n      add\n        /* \"#utility.yul\":2230:2257   */\n      mstore\n        /* \"#utility.yul\":2117:2263   */\n      pop\n      pop\n      pop\n      jump\t// out\n        /* \"#utility.yul\":2269:2694   */\n    tag_211:\n        /* \"#utility.yul\":2347:2352   */\n      0x00\n        /* \"#utility.yul\":2372:2438   */\n      tag_278\n        /* \"#utility.yul\":2388:2437   */\n      tag_279\n        /* \"#utility.yul\":2430:2436   */\n      dup5\n        /* \"#utility.yul\":2388:2437   */\n      tag_209\n      jump\t// in\n    tag_279:\n        /* \"#utility.yul\":2372:2438   */\n      tag_208\n      jump\t// in\n    tag_278:\n        /* \"#utility.yul\":2363:2438   */\n      swap1\n      pop\n        /* \"#utility.yul\":2461:2467   */\n      dup3\n        /* \"#utility.yul\":2454:2459   */\n      dup2\n        /* \"#utility.yul\":2447:2468   */\n      mstore\n        /* \"#utility.yul\":2499:2503   */\n      0x20\n        /* \"#utility.yul\":2492:2497   */\n      dup2\n        /* \"#utility.yul\":2488:2504   */\n      add\n        /* \"#utility.yul\":2537:2540   */\n      dup5\n        /* \"#utility.yul\":2528:2534   */\n      dup5\n        /* \"#utility.yul\":2523:2526   */\n      dup5\n        /* \"#utility.yul\":2519:2535   */\n      add\n        /* \"#utility.yul\":2516:2541   */\n      gt\n        /* \"#utility.yul\":2513:2625   */\n      iszero\n      tag_280\n      jumpi\n        /* \"#utility.yul\":2544:2623   */\n      tag_281\n      tag_205\n      jump\t// in\n    tag_281:\n        /* \"#utility.yul\":2513:2625   */\n    tag_280:\n        /* \"#utility.yul\":2634:2688   */\n      tag_282\n        /* \"#utility.yul\":2681:2687   */\n      dup5\n        /* \"#utility.yul\":2676:2679   */\n      dup3\n        /* \"#utility.yul\":2671:2674   */\n      dup6\n        /* \"#utility.yul\":2634:2688   */\n      tag_210\n      jump\t// in\n    tag_282:\n        /* \"#utility.yul\":2353:2694   */\n      pop\n        /* \"#utility.yul\":2269:2694   */\n      swap4\n      swap3\n      pop\n      pop\n      pop\n      jump\t// out\n        /* \"#utility.yul\":2714:3054   */\n    tag_212:\n        /* \"#utility.yul\":2770:2775   */\n      0x00\n        /* \"#utility.yul\":2819:2822   */\n      dup3\n        /* \"#utility.yul\":2812:2816   */\n      0x1f\n        /* \"#utility.yul\":2804:2810   */\n      dup4\n        /* \"#utility.yul\":2800:2817   */\n      add\n        /* \"#utility.yul\":2796:2823   */\n      slt\n        /* \"#utility.yul\":2786:2908   */\n      tag_284\n      jumpi\n        /* \"#utility.yul\":2827:2906   */\n      tag_285\n      tag_204\n      jump\t// in\n    tag_285:\n        /* \"#utility.yul\":2786:2908   */\n    tag_284:\n        /* \"#utility.yul\":2944:2950   */\n      dup2\n        /* \"#utility.yul\":2931:2951   */\n      calldataload\n        /* \"#utility.yul\":2969:3048   */\n      tag_286\n        /* \"#utility.yul\":3044:3047   */\n      dup5\n        /* \"#utility.yul\":3036:3042   */\n      dup3\n        /* \"#utility.yul\":3029:3033   */\n      0x20\n        /* \"#utility.yul\":3021:3027   */\n      dup7\n        /* \"#utility.yul\":3017:3034   */\n      add\n        /* \"#utility.yul\":2969:3048   */\n      tag_211\n      jump\t// in\n    tag_286:\n        /* \"#utility.yul\":2960:3048   */\n      swap2\n      pop\n        /* \"#utility.yul\":2776:3054   */\n      pop\n        /* \"#utility.yul\":2714:3054   */\n      swap3\n      swap2\n      pop\n      pop\n      jump\t// out\n        /* \"#utility.yul\":3060:3714   */\n    tag_22:\n        /* \"#utility.yul\":3138:3144   */\n      0x00\n        /* \"#utility.yul\":3146:3152   */\n      dup1\n        /* \"#utility.yul\":3195:3197   */\n      0x40\n        /* \"#utility.yul\":3183:3192   */\n      dup4\n        /* \"#utility.yul\":3174:3181   */\n      dup6\n        /* \"#utility.yul\":3170:3193   */\n      sub\n        /* \"#utility.yul\":3166:3198   */\n      slt\n        /* \"#utility.yul\":3163:3282   */\n      iszero\n      tag_288\n      jumpi\n        /* \"#utility.yul\":3201:3280   */\n      tag_289\n      tag_198\n      jump\t// in\n    tag_289:\n        /* \"#utility.yul\":3163:3282   */\n    tag_288:\n        /* \"#utility.yul\":3321:3322   */\n      0x00\n        /* \"#utility.yul\":3346:3399   */\n      tag_290\n        /* \"#utility.yul\":3391:3398   */\n      dup6\n        /* \"#utility.yul\":3382:3388   */\n      dup3\n        /* \"#utility.yul\":3371:3380   */\n      dup7\n        /* \"#utility.yul\":3367:3389   */\n      add\n        /* \"#utility.yul\":3346:3399   */\n      tag_203\n      jump\t// in\n    tag_290:\n        /* \"#utility.yul\":3336:3399   */\n      swap3\n      pop\n        /* \"#utility.yul\":3292:3409   */\n      pop\n        /* \"#utility.yul\":3476:3478   */\n      0x20\n        /* \"#utility.yul\":3465:3474   */\n      dup4\n        /* \"#utility.yul\":3461:3479   */\n      add\n        /* \"#utility.yul\":3448:3480   */\n      calldataload\n        /* \"#utility.yul\":3507:3525   */\n      0xffffffffffffffff\n        /* \"#utility.yul\":3499:3505   */\n      dup2\n        /* \"#utility.yul\":3496:3526   */\n      gt\n        /* \"#utility.yul\":3493:3610   */\n      iszero\n      tag_291\n      jumpi\n        /* \"#utility.yul\":3529:3608   */\n      tag_292\n      tag_199\n      jump\t// in\n    tag_292:\n        /* \"#utility.yul\":3493:3610   */\n    tag_291:\n        /* \"#utility.yul\":3634:3697   */\n      tag_293\n        /* \"#utility.yul\":3689:3696   */\n      dup6\n        /* \"#utility.yul\":3680:3686   */\n      dup3\n        /* \"#utility.yul\":3669:3678   */\n      dup7\n        /* \"#utility.yul\":3665:3687   */\n      add\n        /* \"#utility.yul\":3634:3697   */\n      tag_212\n      jump\t// in\n    tag_293:\n        /* \"#utility.yul\":3624:3697   */\n      swap2\n      pop\n        /* \"#utility.yul\":3419:3707   */\n      pop\n        /* \"#utility.yul\":3060:3714   */\n      swap3\n      pop\n      swap3\n      swap1\n      pop\n      jump\t// out\n        /* \"#utility.yul\":3720:6003   */\n    tag_32:\n        /* \"#utility.yul\":3893:3899   */\n      0x00\n        /* \"#utility.yul\":3901:3907   */\n      dup1\n        /* \"#utility.yul\":3909:3915   */\n      0x00\n        /* \"#utility.yul\":3917:3923   */\n      dup1\n        /* \"#utility.yul\":3925:3931   */\n      0x00\n        /* \"#utility.yul\":3933:3939   */\n      dup1\n        /* \"#utility.yul\":3941:3947   */\n      0x00\n        /* \"#utility.yul\":3990:3993   */\n      0xe0\n        /* \"#utility.yul\":3978:3987   */\n      dup9\n        /* \"#utility.yul\":3969:3976   */\n      dup11\n        /* \"#utility.yul\":3965:3988   */\n      sub\n        /* \"#utility.yul\":3961:3994   */\n      slt\n        /* \"#utility.yul\":3958:4078   */\n      iszero\n      tag_295\n      jumpi\n        /* \"#utility.yul\":3997:4076   */\n      tag_296\n      tag_198\n      jump\t// in\n    tag_296:\n        /* \"#utility.yul\":3958:4078   */\n    tag_295:\n        /* \"#utility.yul\":4117:4118   */\n      0x00\n        /* \"#utility.yul\":4142:4195   */\n      tag_297\n        /* \"#utility.yul\":4187:4194   */\n      dup11\n        /* \"#utility.yul\":4178:4184   */\n      dup3\n        /* \"#utility.yul\":4167:4176   */\n      dup12\n        /* \"#utility.yul\":4163:4185   */\n      add\n        /* \"#utility.yul\":4142:4195   */\n      tag_203\n      jump\t// in\n    tag_297:\n        /* \"#utility.yul\":4132:4195   */\n      swap8\n      pop\n        /* \"#utility.yul\":4088:4205   */\n      pop\n        /* \"#utility.yul\":4272:4274   */\n      0x20\n        /* \"#utility.yul\":4261:4270   */\n      dup9\n        /* \"#utility.yul\":4257:4275   */\n      add\n        /* \"#utility.yul\":4244:4276   */\n      calldataload\n        /* \"#utility.yul\":4303:4321   */\n      0xffffffffffffffff\n        /* \"#utility.yul\":4295:4301   */\n      dup2\n        /* \"#utility.yul\":4292:4322   */\n      gt\n        /* \"#utility.yul\":4289:4406   */\n      iszero\n      tag_298\n      jumpi\n        /* \"#utility.yul\":4325:4404   */\n      tag_299\n      tag_199\n      jump\t// in\n    tag_299:\n        /* \"#utility.yul\":4289:4406   */\n    tag_298:\n        /* \"#utility.yul\":4430:4493   */\n      tag_300\n        /* \"#utility.yul\":4485:4492   */\n      dup11\n        /* \"#utility.yul\":4476:4482   */\n      dup3\n        /* \"#utility.yul\":4465:4474   */\n      dup12\n        /* \"#utility.yul\":4461:4483   */\n      add\n        /* \"#utility.yul\":4430:4493   */\n      tag_212\n      jump\t// in\n    tag_300:\n        /* \"#utility.yul\":4420:4493   */\n      swap7\n      pop\n        /* \"#utility.yul\":4215:4503   */\n      pop\n        /* \"#utility.yul\":4570:4572   */\n      0x40\n        /* \"#utility.yul\":4559:4568   */\n      dup9\n        /* \"#utility.yul\":4555:4573   */\n      add\n        /* \"#utility.yul\":4542:4574   */\n      calldataload\n        /* \"#utility.yul\":4601:4619   */\n      0xffffffffffffffff\n        /* \"#utility.yul\":4593:4599   */\n      dup2\n        /* \"#utility.yul\":4590:4620   */\n      gt\n        /* \"#utility.yul\":4587:4704   */\n      iszero\n      tag_301\n      jumpi\n        /* \"#utility.yul\":4623:4702   */\n      tag_302\n      tag_199\n      jump\t// in\n    tag_302:\n        /* \"#utility.yul\":4587:4704   */\n    tag_301:\n        /* \"#utility.yul\":4728:4791   */\n      tag_303\n        /* \"#utility.yul\":4783:4790   */\n      dup11\n        /* \"#utility.yul\":4774:4780   */\n      dup3\n        /* \"#utility.yul\":4763:4772   */\n      dup12\n        /* \"#utility.yul\":4759:4781   */\n      add\n        /* \"#utility.yul\":4728:4791   */\n      tag_212\n      jump\t// in\n    tag_303:\n        /* \"#utility.yul\":4718:4791   */\n      swap6\n      pop\n        /* \"#utility.yul\":4513:4801   */\n      pop\n        /* \"#utility.yul\":4868:4870   */\n      0x60\n        /* \"#utility.yul\":4857:4866   */\n      dup9\n        /* \"#utility.yul\":4853:4871   */\n      add\n        /* \"#utility.yul\":4840:4872   */\n      calldataload\n        /* \"#utility.yul\":4899:4917   */\n      0xffffffffffffffff\n        /* \"#utility.yul\":4891:4897   */\n      dup2\n        /* \"#utility.yul\":4888:4918   */\n      gt\n        /* \"#utility.yul\":4885:5002   */\n      iszero\n      tag_304\n      jumpi\n        /* \"#utility.yul\":4921:5000   */\n      tag_305\n      tag_199\n      jump\t// in\n    tag_305:\n        /* \"#utility.yul\":4885:5002   */\n    tag_304:\n        /* \"#utility.yul\":5026:5089   */\n      tag_306\n        /* \"#utility.yul\":5081:5088   */\n      dup11\n        /* \"#utility.yul\":5072:5078   */\n      dup3\n        /* \"#utility.yul\":5061:5070   */\n      dup12\n        /* \"#utility.yul\":5057:5079   */\n      add\n        /* \"#utility.yul\":5026:5089   */\n      tag_212\n      jump\t// in\n    tag_306:\n        /* \"#utility.yul\":5016:5089   */\n      swap5\n      pop\n        /* \"#utility.yul\":4811:5099   */\n      pop\n        /* \"#utility.yul\":5166:5169   */\n      0x80\n        /* \"#utility.yul\":5155:5164   */\n      dup9\n        /* \"#utility.yul\":5151:5170   */\n      add\n        /* \"#utility.yul\":5138:5171   */\n      calldataload\n        /* \"#utility.yul\":5198:5216   */\n      0xffffffffffffffff\n        /* \"#utility.yul\":5190:5196   */\n      dup2\n        /* \"#utility.yul\":5187:5217   */\n      gt\n        /* \"#utility.yul\":5184:5301   */\n      iszero\n      tag_307\n      jumpi\n        /* \"#utility.yul\":5220:5299   */\n      tag_308\n      tag_199\n      jump\t// in\n    tag_308:\n        /* \"#utility.yul\":5184:5301   */\n    tag_307:\n        /* \"#utility.yul\":5325:5388   */\n      tag_309\n        /* \"#utility.yul\":5380:5387   */\n      dup11\n        /* \"#utility.yul\":5371:5377   */\n      dup3\n        /* \"#utility.yul\":5360:5369   */\n      dup12\n        /* \"#utility.yul\":5356:5378   */\n      add\n        /* \"#utility.yul\":5325:5388   */\n      tag_212\n      jump\t// in\n    tag_309:\n        /* \"#utility.yul\":5315:5388   */\n      swap4\n      pop\n        /* \"#utility.yul\":5109:5398   */\n      pop\n        /* \"#utility.yul\":5465:5468   */\n      0xa0\n        /* \"#utility.yul\":5454:5463   */\n      dup9\n        /* \"#utility.yul\":5450:5469   */\n      add\n        /* \"#utility.yul\":5437:5470   */\n      calldataload\n        /* \"#utility.yul\":5497:5515   */\n      0xffffffffffffffff\n        /* \"#utility.yul\":5489:5495   */\n      dup2\n        /* \"#utility.yul\":5486:5516   */\n      gt\n        /* \"#utility.yul\":5483:5600   */\n      iszero\n      tag_310\n      jumpi\n        /* \"#utility.yul\":5519:5598   */\n      tag_311\n      tag_199\n      jump\t// in\n    tag_311:\n        /* \"#utility.yul\":5483:5600   */\n    tag_310:\n        /* \"#utility.yul\":5624:5687   */\n      tag_312\n        /* \"#utility.yul\":5679:5686   */\n      dup11\n        /* \"#utility.yul\":5670:5676   */\n      dup3\n        /* \"#utility.yul\":5659:5668   */\n      dup12\n        /* \"#utility.yul\":5655:5677   */\n      add\n        /* \"#utility.yul\":5624:5687   */\n      tag_212\n      jump\t// in\n    tag_312:\n        /* \"#utility.yul\":5614:5687   */\n      swap3\n      pop\n        /* \"#utility.yul\":5408:5697   */\n      pop\n        /* \"#utility.yul\":5764:5767   */\n      0xc0\n        /* \"#utility.yul\":5753:5762   */\n      dup9\n        /* \"#utility.yul\":5749:5768   */\n      add\n        /* \"#utility.yul\":5736:5769   */\n      calldataload\n        /* \"#utility.yul\":5796:5814   */\n      0xffffffffffffffff\n        /* \"#utility.yul\":5788:5794   */\n      dup2\n        /* \"#utility.yul\":5785:5815   */\n      gt\n        /* \"#utility.yul\":5782:5899   */\n      iszero\n      tag_313\n      jumpi\n        /* \"#utility.yul\":5818:5897   */\n      tag_314\n      tag_199\n      jump\t// in\n    tag_314:\n        /* \"#utility.yul\":5782:5899   */\n    tag_313:\n        /* \"#utility.yul\":5923:5986   */\n      tag_315\n        /* \"#utility.yul\":5978:5985   */\n      dup11\n        /* \"#utility.yul\":5969:5975   */\n      dup3\n        /* \"#utility.yul\":5958:5967   */\n      dup12\n        /* \"#utility.yul\":5954:5976   */\n      add\n        /* \"#utility.yul\":5923:5986   */\n      tag_212\n      jump\t// in\n    tag_315:\n        /* \"#utility.yul\":5913:5986   */\n      swap2\n      pop\n        /* \"#utility.yul\":5707:5996   */\n      pop\n        /* \"#utility.yul\":3720:6003   */\n      swap3\n      swap6\n      swap9\n      swap2\n      swap5\n      swap8\n      pop\n      swap3\n      swap6\n      pop\n      jump\t// out\n        /* \"#utility.yul\":6009:6338   */\n    tag_39:\n        /* \"#utility.yul\":6068:6074   */\n      0x00\n        /* \"#utility.yul\":6117:6119   */\n      0x20\n        /* \"#utility.yul\":6105:6114   */\n      dup3\n        /* \"#utility.yul\":6096:6103   */\n      dup5\n        /* \"#utility.yul\":6092:6115   */\n      sub\n        /* \"#utility.yul\":6088:6120   */\n      slt\n        /* \"#utility.yul\":6085:6204   */\n      iszero\n      tag_317\n      jumpi\n        /* \"#utility.yul\":6123:6202   */\n      tag_318\n      tag_198\n      jump\t// in\n    tag_318:\n        /* \"#utility.yul\":6085:6204   */\n    tag_317:\n        /* \"#utility.yul\":6243:6244   */\n      0x00\n        /* \"#utility.yul\":6268:6321   */\n      tag_319\n        /* \"#utility.yul\":6313:6320   */\n      dup5\n        /* \"#utility.yul\":6304:6310   */\n      dup3\n        /* \"#utility.yul\":6293:6302   */\n      dup6\n        /* \"#utility.yul\":6289:6311   */\n      add\n        /* \"#utility.yul\":6268:6321   */\n      tag_203\n      jump\t// in\n    tag_319:\n        /* \"#utility.yul\":6258:6321   */\n      swap2\n      pop\n        /* \"#utility.yul\":6214:6331   */\n      pop\n        /* \"#utility.yul\":6009:6338   */\n      swap3\n      swap2\n      pop\n      pop\n      jump\t// out\n        /* \"#utility.yul\":6344:6443   */\n    tag_213:\n        /* \"#utility.yul\":6396:6402   */\n      0x00\n        /* \"#utility.yul\":6430:6435   */\n      dup2\n        /* \"#utility.yul\":6424:6436   */\n      mload\n        /* \"#utility.yul\":6414:6436   */\n      swap1\n      pop\n        /* \"#utility.yul\":6344:6443   */\n      swap2\n      swap1\n      pop\n      jump\t// out\n        /* \"#utility.yul\":6449:6618   */\n    tag_214:\n        /* \"#utility.yul\":6533:6544   */\n      0x00\n        /* \"#utility.yul\":6567:6573   */\n      dup3\n        /* \"#utility.yul\":6562:6565   */\n      dup3\n        /* \"#utility.yul\":6555:6574   */\n      mstore\n        /* \"#utility.yul\":6607:6611   */\n      0x20\n        /* \"#utility.yul\":6602:6605   */\n      dup3\n        /* \"#utility.yul\":6598:6612   */\n      add\n        /* \"#utility.yul\":6583:6612   */\n      swap1\n      pop\n        /* \"#utility.yul\":6449:6618   */\n      swap3\n      swap2\n      pop\n      pop\n      jump\t// out\n        /* \"#utility.yul\":6624:6870   */\n    tag_215:\n        /* \"#utility.yul\":6705:6706   */\n      0x00\n        /* \"#utility.yul\":6715:6828   */\n    tag_323:\n        /* \"#utility.yul\":6729:6735   */\n      dup4\n        /* \"#utility.yul\":6726:6727   */\n      dup2\n        /* \"#utility.yul\":6723:6736   */\n      lt\n        /* \"#utility.yul\":6715:6828   */\n      iszero\n      tag_325\n      jumpi\n        /* \"#utility.yul\":6814:6815   */\n      dup1\n        /* \"#utility.yul\":6809:6812   */\n      dup3\n        /* \"#utility.yul\":6805:6816   */\n      add\n        /* \"#utility.yul\":6799:6817   */\n      mload\n        /* \"#utility.yul\":6795:6796   */\n      dup2\n        /* \"#utility.yul\":6790:6793   */\n      dup5\n        /* \"#utility.yul\":6786:6797   */\n      add\n        /* \"#utility.yul\":6779:6818   */\n      mstore\n        /* \"#utility.yul\":6751:6753   */\n      0x20\n        /* \"#utility.yul\":6748:6749   */\n      dup2\n        /* \"#utility.yul\":6744:6754   */\n      add\n        /* \"#utility.yul\":6739:6754   */\n      swap1\n      pop\n        /* \"#utility.yul\":6715:6828   */\n      jump(tag_323)\n    tag_325:\n        /* \"#utility.yul\":6862:6863   */\n      0x00\n        /* \"#utility.yul\":6853:6859   */\n      dup5\n        /* \"#utility.yul\":6848:6851   */\n      dup5\n        /* \"#utility.yul\":6844:6860   */\n      add\n        /* \"#utility.yul\":6837:6864   */\n      mstore\n        /* \"#utility.yul\":6686:6870   */\n      pop\n        /* \"#utility.yul\":6624:6870   */\n      pop\n      pop\n      pop\n      jump\t// out\n        /* \"#utility.yul\":6876:7253   */\n    tag_216:\n        /* \"#utility.yul\":6964:6967   */\n      0x00\n        /* \"#utility.yul\":6992:7031   */\n      tag_327\n        /* \"#utility.yul\":7025:7030   */\n      dup3\n        /* \"#utility.yul\":6992:7031   */\n      tag_213\n      jump\t// in\n    tag_327:\n        /* \"#utility.yul\":7047:7118   */\n      tag_328\n        /* \"#utility.yul\":7111:7117   */\n      dup2\n        /* \"#utility.yul\":7106:7109   */\n      dup6\n        /* \"#utility.yul\":7047:7118   */\n      tag_214\n      jump\t// in\n    tag_328:\n        /* \"#utility.yul\":7040:7118   */\n      swap4\n      pop\n        /* \"#utility.yul\":7127:7192   */\n      tag_329\n        /* \"#utility.yul\":7185:7191   */\n      dup2\n        /* \"#utility.yul\":7180:7183   */\n      dup6\n        /* \"#utility.yul\":7173:7177   */\n      0x20\n        /* \"#utility.yul\":7166:7171   */\n      dup7\n        /* \"#utility.yul\":7162:7178   */\n      add\n        /* \"#utility.yul\":7127:7192   */\n      tag_215\n      jump\t// in\n    tag_329:\n        /* \"#utility.yul\":7217:7246   */\n      tag_330\n        /* \"#utility.yul\":7239:7245   */\n      dup2\n        /* \"#utility.yul\":7217:7246   */\n      tag_206\n      jump\t// in\n    tag_330:\n        /* \"#utility.yul\":7212:7215   */\n      dup5\n        /* \"#utility.yul\":7208:7247   */\n      add\n        /* \"#utility.yul\":7201:7247   */\n      swap2\n      pop\n        /* \"#utility.yul\":6968:7253   */\n      pop\n        /* \"#utility.yul\":6876:7253   */\n      swap3\n      swap2\n      pop\n      pop\n      jump\t// out\n        /* \"#utility.yul\":7259:7572   */\n    tag_42:\n        /* \"#utility.yul\":7372:7376   */\n      0x00\n        /* \"#utility.yul\":7410:7412   */\n      0x20\n        /* \"#utility.yul\":7399:7408   */\n      dup3\n        /* \"#utility.yul\":7395:7413   */\n      add\n        /* \"#utility.yul\":7387:7413   */\n      swap1\n      pop\n        /* \"#utility.yul\":7459:7468   */\n      dup2\n        /* \"#utility.yul\":7453:7457   */\n      dup2\n        /* \"#utility.yul\":7449:7469   */\n      sub\n        /* \"#utility.yul\":7445:7446   */\n      0x00\n        /* \"#utility.yul\":7434:7443   */\n      dup4\n        /* \"#utility.yul\":7430:7447   */\n      add\n        /* \"#utility.yul\":7423:7470   */\n      mstore\n        /* \"#utility.yul\":7487:7565   */\n      tag_332\n        /* \"#utility.yul\":7560:7564   */\n      dup2\n        /* \"#utility.yul\":7551:7557   */\n      dup5\n        /* \"#utility.yul\":7487:7565   */\n      tag_216\n      jump\t// in\n    tag_332:\n        /* \"#utility.yul\":7479:7565   */\n      swap1\n      pop\n        /* \"#utility.yul\":7259:7572   */\n      swap3\n      swap2\n      pop\n      pop\n      jump\t// out\n        /* \"#utility.yul\":7578:8412   */\n    tag_49:\n        /* \"#utility.yul\":7666:7672   */\n      0x00\n        /* \"#utility.yul\":7674:7680   */\n      dup1\n        /* \"#utility.yul\":7723:7725   */\n      0x40\n        /* \"#utility.yul\":7711:7720   */\n      dup4\n        /* \"#utility.yul\":7702:7709   */\n      dup6\n        /* \"#utility.yul\":7698:7721   */\n      sub\n        /* \"#utility.yul\":7694:7726   */\n      slt\n        /* \"#utility.yul\":7691:7810   */\n      iszero\n      tag_334\n      jumpi\n        /* \"#utility.yul\":7729:7808   */\n      tag_335\n      tag_198\n      jump\t// in\n    tag_335:\n        /* \"#utility.yul\":7691:7810   */\n    tag_334:\n        /* \"#utility.yul\":7877:7878   */\n      0x00\n        /* \"#utility.yul\":7866:7875   */\n      dup4\n        /* \"#utility.yul\":7862:7879   */\n      add\n        /* \"#utility.yul\":7849:7880   */\n      calldataload\n        /* \"#utility.yul\":7907:7925   */\n      0xffffffffffffffff\n        /* \"#utility.yul\":7899:7905   */\n      dup2\n        /* \"#utility.yul\":7896:7926   */\n      gt\n        /* \"#utility.yul\":7893:8010   */\n      iszero\n      tag_336\n      jumpi\n        /* \"#utility.yul\":7929:8008   */\n      tag_337\n      tag_199\n      jump\t// in\n    tag_337:\n        /* \"#utility.yul\":7893:8010   */\n    tag_336:\n        /* \"#utility.yul\":8034:8097   */\n      tag_338\n        /* \"#utility.yul\":8089:8096   */\n      dup6\n        /* \"#utility.yul\":8080:8086   */\n      dup3\n        /* \"#utility.yul\":8069:8078   */\n      dup7\n        /* \"#utility.yul\":8065:8087   */\n      add\n        /* \"#utility.yul\":8034:8097   */\n      tag_212\n      jump\t// in\n    tag_338:\n        /* \"#utility.yul\":8024:8097   */\n      swap3\n      pop\n        /* \"#utility.yul\":7820:8107   */\n      pop\n        /* \"#utility.yul\":8174:8176   */\n      0x20\n        /* \"#utility.yul\":8163:8172   */\n      dup4\n        /* \"#utility.yul\":8159:8177   */\n      add\n        /* \"#utility.yul\":8146:8178   */\n      calldataload\n        /* \"#utility.yul\":8205:8223   */\n      0xffffffffffffffff\n        /* \"#utility.yul\":8197:8203   */\n      dup2\n        /* \"#utility.yul\":8194:8224   */\n      gt\n        /* \"#utility.yul\":8191:8308   */\n      iszero\n      tag_339\n      jumpi\n        /* \"#utility.yul\":8227:8306   */\n      tag_340\n      tag_199\n      jump\t// in\n    tag_340:\n        /* \"#utility.yul\":8191:8308   */\n    tag_339:\n        /* \"#utility.yul\":8332:8395   */\n      tag_341\n        /* \"#utility.yul\":8387:8394   */\n      dup6\n        /* \"#utility.yul\":8378:8384   */\n      dup3\n        /* \"#utility.yul\":8367:8376   */\n      dup7\n        /* \"#utility.yul\":8363:8385   */\n      add\n        /* \"#utility.yul\":8332:8395   */\n      tag_212\n      jump\t// in\n    tag_341:\n        /* \"#utility.yul\":8322:8395   */\n      swap2\n      pop\n        /* \"#utility.yul\":8117:8405   */\n      pop\n        /* \"#utility.yul\":7578:8412   */\n      swap3\n      pop\n      swap3\n      swap1\n      pop\n      jump\t// out\n        /* \"#utility.yul\":8418:8536   */\n    tag_217:\n        /* \"#utility.yul\":8505:8529   */\n      tag_343\n        /* \"#utility.yul\":8523:8528   */\n      dup2\n        /* \"#utility.yul\":8505:8529   */\n      tag_201\n      jump\t// in\n    tag_343:\n        /* \"#utility.yul\":8500:8503   */\n      dup3\n        /* \"#utility.yul\":8493:8530   */\n      mstore\n        /* \"#utility.yul\":8418:8536   */\n      pop\n      pop\n      jump\t// out\n        /* \"#utility.yul\":8542:9772   */\n    tag_62:\n        /* \"#utility.yul\":8875:8879   */\n      0x00\n        /* \"#utility.yul\":8913:8916   */\n      0xc0\n        /* \"#utility.yul\":8902:8911   */\n      dup3\n        /* \"#utility.yul\":8898:8917   */\n      add\n        /* \"#utility.yul\":8890:8917   */\n      swap1\n      pop\n        /* \"#utility.yul\":8927:8998   */\n      tag_345\n        /* \"#utility.yul\":8995:8996   */\n      0x00\n        /* \"#utility.yul\":8984:8993   */\n      dup4\n        /* \"#utility.yul\":8980:8997   */\n      add\n        /* \"#utility.yul\":8971:8977   */\n      dup10\n        /* \"#utility.yul\":8927:8998   */\n      tag_217\n      jump\t// in\n    tag_345:\n        /* \"#utility.yul\":9045:9054   */\n      dup2\n        /* \"#utility.yul\":9039:9043   */\n      dup2\n        /* \"#utility.yul\":9035:9055   */\n      sub\n        /* \"#utility.yul\":9030:9032   */\n      0x20\n        /* \"#utility.yul\":9019:9028   */\n      dup4\n        /* \"#utility.yul\":9015:9033   */\n      add\n        /* \"#utility.yul\":9008:9056   */\n      mstore\n        /* \"#utility.yul\":9073:9151   */\n      tag_346\n        /* \"#utility.yul\":9146:9150   */\n      dup2\n        /* \"#utility.yul\":9137:9143   */\n      dup9\n        /* \"#utility.yul\":9073:9151   */\n      tag_216\n      jump\t// in\n    tag_346:\n        /* \"#utility.yul\":9065:9151   */\n      swap1\n      pop\n        /* \"#utility.yul\":9198:9207   */\n      dup2\n        /* \"#utility.yul\":9192:9196   */\n      dup2\n        /* \"#utility.yul\":9188:9208   */\n      sub\n        /* \"#utility.yul\":9183:9185   */\n      0x40\n        /* \"#utility.yul\":9172:9181   */\n      dup4\n        /* \"#utility.yul\":9168:9186   */\n      add\n        /* \"#utility.yul\":9161:9209   */\n      mstore\n        /* \"#utility.yul\":9226:9304   */\n      tag_347\n        /* \"#utility.yul\":9299:9303   */\n      dup2\n        /* \"#utility.yul\":9290:9296   */\n      dup8\n        /* \"#utility.yul\":9226:9304   */\n      tag_216\n      jump\t// in\n    tag_347:\n        /* \"#utility.yul\":9218:9304   */\n      swap1\n      pop\n        /* \"#utility.yul\":9351:9360   */\n      dup2\n        /* \"#utility.yul\":9345:9349   */\n      dup2\n        /* \"#utility.yul\":9341:9361   */\n      sub\n        /* \"#utility.yul\":9336:9338   */\n      0x60\n        /* \"#utility.yul\":9325:9334   */\n      dup4\n        /* \"#utility.yul\":9321:9339   */\n      add\n        /* \"#utility.yul\":9314:9362   */\n      mstore\n        /* \"#utility.yul\":9379:9457   */\n      tag_348\n        /* \"#utility.yul\":9452:9456   */\n      dup2\n        /* \"#utility.yul\":9443:9449   */\n      dup7\n        /* \"#utility.yul\":9379:9457   */\n      tag_216\n      jump\t// in\n    tag_348:\n        /* \"#utility.yul\":9371:9457   */\n      swap1\n      pop\n        /* \"#utility.yul\":9505:9514   */\n      dup2\n        /* \"#utility.yul\":9499:9503   */\n      dup2\n        /* \"#utility.yul\":9495:9515   */\n      sub\n        /* \"#utility.yul\":9489:9492   */\n      0x80\n        /* \"#utility.yul\":9478:9487   */\n      dup4\n        /* \"#utility.yul\":9474:9493   */\n      add\n        /* \"#utility.yul\":9467:9516   */\n      mstore\n        /* \"#utility.yul\":9533:9611   */\n      tag_349\n        /* \"#utility.yul\":9606:9610   */\n      dup2\n        /* \"#utility.yul\":9597:9603   */\n      dup6\n        /* \"#utility.yul\":9533:9611   */\n      tag_216\n      jump\t// in\n    tag_349:\n        /* \"#utility.yul\":9525:9611   */\n      swap1\n      pop\n        /* \"#utility.yul\":9659:9668   */\n      dup2\n        /* \"#utility.yul\":9653:9657   */\n      dup2\n        /* \"#utility.yul\":9649:9669   */\n      sub\n        /* \"#utility.yul\":9643:9646   */\n      0xa0\n        /* \"#utility.yul\":9632:9641   */\n      dup4\n        /* \"#utility.yul\":9628:9647   */\n      add\n        /* \"#utility.yul\":9621:9670   */\n      mstore\n        /* \"#utility.yul\":9687:9765   */\n      tag_350\n        /* \"#utility.yul\":9760:9764   */\n      dup2\n        /* \"#utility.yul\":9751:9757   */\n      dup5\n        /* \"#utility.yul\":9687:9765   */\n      tag_216\n      jump\t// in\n    tag_350:\n        /* \"#utility.yul\":9679:9765   */\n      swap1\n      pop\n        /* \"#utility.yul\":8542:9772   */\n      swap8\n      swap7\n      pop\n      pop\n      pop\n      pop\n      pop\n      pop\n      pop\n      jump\t// out\n        /* \"#utility.yul\":9778:10287   */\n    tag_65:\n        /* \"#utility.yul\":9847:9853   */\n      0x00\n        /* \"#utility.yul\":9896:9898   */\n      0x20\n        /* \"#utility.yul\":9884:9893   */\n      dup3\n        /* \"#utility.yul\":9875:9882   */\n      dup5\n        /* \"#utility.yul\":9871:9894   */\n      sub\n        /* \"#utility.yul\":9867:9899   */\n      slt\n        /* \"#utility.yul\":9864:9983   */\n      iszero\n      tag_352\n      jumpi\n        /* \"#utility.yul\":9902:9981   */\n      tag_353\n      tag_198\n      jump\t// in\n    tag_353:\n        /* \"#utility.yul\":9864:9983   */\n    tag_352:\n        /* \"#utility.yul\":10050:10051   */\n      0x00\n        /* \"#utility.yul\":10039:10048   */\n      dup3\n        /* \"#utility.yul\":10035:10052   */\n      add\n        /* \"#utility.yul\":10022:10053   */\n      calldataload\n        /* \"#utility.yul\":10080:10098   */\n      0xffffffffffffffff\n        /* \"#utility.yul\":10072:10078   */\n      dup2\n        /* \"#utility.yul\":10069:10099   */\n      gt\n        /* \"#utility.yul\":10066:10183   */\n      iszero\n      tag_354\n      jumpi\n        /* \"#utility.yul\":10102:10181   */\n      tag_355\n      tag_199\n      jump\t// in\n    tag_355:\n        /* \"#utility.yul\":10066:10183   */\n    tag_354:\n        /* \"#utility.yul\":10207:10270   */\n      tag_356\n        /* \"#utility.yul\":10262:10269   */\n      dup5\n        /* \"#utility.yul\":10253:10259   */\n      dup3\n        /* \"#utility.yul\":10242:10251   */\n      dup6\n        /* \"#utility.yul\":10238:10260   */\n      add\n        /* \"#utility.yul\":10207:10270   */\n      tag_212\n      jump\t// in\n    tag_356:\n        /* \"#utility.yul\":10197:10270   */\n      swap2\n      pop\n        /* \"#utility.yul\":9993:10280   */\n      pop\n        /* \"#utility.yul\":9778:10287   */\n      swap3\n      swap2\n      pop\n      pop\n      jump\t// out\n        /* \"#utility.yul\":10293:10473   */\n    tag_218:\n        /* \"#utility.yul\":10341:10418   */\n      0x4e487b7100000000000000000000000000000000000000000000000000000000\n        /* \"#utility.yul\":10338:10339   */\n      0x00\n        /* \"#utility.yul\":10331:10419   */\n      mstore\n        /* \"#utility.yul\":10438:10442   */\n      0x22\n        /* \"#utility.yul\":10435:10436   */\n      0x04\n        /* \"#utility.yul\":10428:10443   */\n      mstore\n        /* \"#utility.yul\":10462:10466   */\n      0x24\n        /* \"#utility.yul\":10459:10460   */\n      0x00\n        /* \"#utility.yul\":10452:10467   */\n      revert\n        /* \"#utility.yul\":10479:10799   */\n    tag_94:\n        /* \"#utility.yul\":10523:10529   */\n      0x00\n        /* \"#utility.yul\":10560:10561   */\n      0x02\n        /* \"#utility.yul\":10554:10558   */\n      dup3\n        /* \"#utility.yul\":10550:10562   */\n      div\n        /* \"#utility.yul\":10540:10562   */\n      swap1\n      pop\n        /* \"#utility.yul\":10607:10608   */\n      0x01\n        /* \"#utility.yul\":10601:10605   */\n      dup3\n        /* \"#utility.yul\":10597:10609   */\n      and\n        /* \"#utility.yul\":10628:10646   */\n      dup1\n        /* \"#utility.yul\":10618:10699   */\n      tag_359\n      jumpi\n        /* \"#utility.yul\":10684:10688   */\n      0x7f\n        /* \"#utility.yul\":10676:10682   */\n      dup3\n        /* \"#utility.yul\":10672:10689   */\n      and\n        /* \"#utility.yul\":10662:10689   */\n      swap2\n      pop\n        /* \"#utility.yul\":10618:10699   */\n    tag_359:\n        /* \"#utility.yul\":10746:10748   */\n      0x20\n        /* \"#utility.yul\":10738:10744   */\n      dup3\n        /* \"#utility.yul\":10735:10749   */\n      lt\n        /* \"#utility.yul\":10715:10733   */\n      dup2\n        /* \"#utility.yul\":10712:10750   */\n      sub\n        /* \"#utility.yul\":10709:10793   */\n      tag_360\n      jumpi\n        /* \"#utility.yul\":10765:10783   */\n      tag_361\n      tag_218\n      jump\t// in\n    tag_361:\n        /* \"#utility.yul\":10709:10793   */\n    tag_360:\n        /* \"#utility.yul\":10530:10799   */\n      pop\n        /* \"#utility.yul\":10479:10799   */\n      swap2\n      swap1\n      pop\n      jump\t// out\n        /* \"#utility.yul\":10805:10946   */\n    tag_219:\n        /* \"#utility.yul\":10854:10858   */\n      0x00\n        /* \"#utility.yul\":10877:10880   */\n      dup2\n        /* \"#utility.yul\":10869:10880   */\n      swap1\n      pop\n        /* \"#utility.yul\":10900:10903   */\n      dup2\n        /* \"#utility.yul\":10897:10898   */\n      0x00\n        /* \"#utility.yul\":10890:10904   */\n      mstore\n        /* \"#utility.yul\":10934:10938   */\n      0x20\n        /* \"#utility.yul\":10931:10932   */\n      0x00\n        /* \"#utility.yul\":10921:10939   */\n      keccak256\n        /* \"#utility.yul\":10913:10939   */\n      swap1\n      pop\n        /* \"#utility.yul\":10805:10946   */\n      swap2\n      swap1\n      pop\n      jump\t// out\n        /* \"#utility.yul\":10952:11045   */\n    tag_220:\n        /* \"#utility.yul\":10989:10995   */\n      0x00\n        /* \"#utility.yul\":11036:11038   */\n      0x20\n        /* \"#utility.yul\":11031:11033   */\n      0x1f\n        /* \"#utility.yul\":11024:11029   */\n      dup4\n        /* \"#utility.yul\":11020:11034   */\n      add\n        /* \"#utility.yul\":11016:11039   */\n      div\n        /* \"#utility.yul\":11006:11039   */\n      swap1\n      pop\n        /* \"#utility.yul\":10952:11045   */\n      swap2\n      swap1\n      pop\n      jump\t// out\n        /* \"#utility.yul\":11051:11158   */\n    tag_221:\n        /* \"#utility.yul\":11095:11103   */\n      0x00\n        /* \"#utility.yul\":11145:11150   */\n      dup3\n        /* \"#utility.yul\":11139:11143   */\n      dup3\n        /* \"#utility.yul\":11135:11151   */\n      shl\n        /* \"#utility.yul\":11114:11151   */\n      swap1\n      pop\n        /* \"#utility.yul\":11051:11158   */\n      swap3\n      swap2\n      pop\n      pop\n      jump\t// out\n        /* \"#utility.yul\":11164:11557   */\n    tag_222:\n        /* \"#utility.yul\":11233:11239   */\n      0x00\n        /* \"#utility.yul\":11283:11284   */\n      0x08\n        /* \"#utility.yul\":11271:11281   */\n      dup4\n        /* \"#utility.yul\":11267:11285   */\n      mul\n        /* \"#utility.yul\":11306:11403   */\n      tag_366\n        /* \"#utility.yul\":11336:11402   */\n      0xffffffffffffffffffffffffffffffffffffffffffffffffffffffffffffffff\n        /* \"#utility.yul\":11325:11334   */\n      dup3\n        /* \"#utility.yul\":11306:11403   */\n      tag_221\n      jump\t// in\n    tag_366:\n        /* \"#utility.yul\":11424:11463   */\n      tag_367\n        /* \"#utility.yul\":11454:11462   */\n      dup7\n        /* \"#utility.yul\":11443:11452   */\n      dup4\n        /* \"#utility.yul\":11424:11463   */\n      tag_221\n      jump\t// in\n    tag_367:\n        /* \"#utility.yul\":11412:11463   */\n      swap6\n      pop\n        /* \"#utility.yul\":11496:11500   */\n      dup1\n        /* \"#utility.yul\":11492:11501   */\n      not\n        /* \"#utility.yul\":11485:11490   */\n      dup5\n        /* \"#utility.yul\":11481:11502   */\n      and\n        /* \"#utility.yul\":11472:11502   */\n      swap4\n      pop\n        /* \"#utility.yul\":11545:11549   */\n      dup1\n        /* \"#utility.yul\":11535:11543   */\n      dup7\n        /* \"#utility.yul\":11531:11550   */\n      and\n        /* \"#utility.yul\":11524:11529   */\n      dup5\n        /* \"#utility.yul\":11521:11551   */\n      or\n        /* \"#utility.yul\":11511:11551   */\n      swap3\n      pop\n        /* \"#utility.yul\":11240:11557   */\n      pop\n      pop\n        /* \"#utility.yul\":11164:11557   */\n      swap4\n      swap3\n      pop\n      pop\n      pop\n      jump\t// out\n        /* \"#utility.yul\":11563:11640   */\n    tag_223:\n        /* \"#utility.yul\":11600:11607   */\n      0x00\n        /* \"#utility.yul\":11629:11634   */\n      dup2\n        /* \"#utility.yul\":11618:11634   */\n      swap1\n      pop\n        /* \"#utility.yul\":11563:11640   */\n      swap2\n      swap1\n      pop\n      jump\t// out\n        /* \"#utility.yul\":11646:11706   */\n    tag_224:\n        /* \"#utility.yul\":11674:11677   */\n      0x00\n        /* \"#utility.yul\":11695:11700   */\n      dup2\n        /* \"#utility.yul\":11688:11700   */\n      swap1\n      pop\n        /* \"#utility.yul\":11646:11706   */\n      swap2\n      swap1\n      pop\n      jump\t// out\n        /* \"#utility.yul\":11712:11854   */\n    tag_225:\n        /* \"#utility.yul\":11762:11771   */\n      0x00\n        /* \"#utility.yul\":11795:11848   */\n      tag_371\n        /* \"#utility.yul\":11813:11847   */\n      tag_372\n        /* \"#utility.yul\":11822:11846   */\n      tag_373\n        /* \"#utility.yul\":11840:11845   */\n      dup5\n        /* \"#utility.yul\":11822:11846   */\n      tag_223\n      jump\t// in\n    tag_373:\n        /* \"#utility.yul\":11813:11847   */\n      tag_224\n      jump\t// in\n    tag_372:\n        /* \"#utility.yul\":11795:11848   */\n      tag_223\n      jump\t// in\n    tag_371:\n        /* \"#utility.yul\":11782:11848   */\n      swap1\n      pop\n        /* \"#utility.yul\":11712:11854   */\n      swap2\n      swap1\n      pop\n      jump\t// out\n        /* \"#utility.yul\":11860:11935   */\n    tag_226:\n        /* \"#utility.yul\":11903:11906   */\n      0x00\n        /* \"#utility.yul\":11924:11929   */\n      dup2\n        /* \"#utility.yul\":11917:11929   */\n      swap1\n      pop\n        /* \"#utility.yul\":11860:11935   */\n      swap2\n      swap1\n      pop\n      jump\t// out\n        /* \"#utility.yul\":11941:12210   */\n    tag_227:\n        /* \"#utility.yul\":12051:12090   */\n      tag_376\n        /* \"#utility.yul\":12082:12089   */\n      dup4\n        /* \"#utility.yul\":12051:12090   */\n      tag_225\n      jump\t// in\n    tag_376:\n        /* \"#utility.yul\":12112:12203   */\n      tag_377\n        /* \"#utility.yul\":12161:12202   */\n      tag_378\n        /* \"#utility.yul\":12185:12201   */\n      dup3\n        /* \"#utility.yul\":12161:12202   */\n      tag_226\n      jump\t// in\n    tag_378:\n        /* \"#utility.yul\":12153:12159   */\n      dup5\n        /* \"#utility.yul\":12146:12150   */\n      dup5\n        /* \"#utility.yul\":12140:12151   */\n      sload\n        /* \"#utility.yul\":12112:12203   */\n      tag_222\n      jump\t// in\n    tag_377:\n        /* \"#utility.yul\":12106:12110   */\n      dup3\n        /* \"#utility.yul\":12099:12204   */\n      sstore\n        /* \"#utility.yul\":12017:12210   */\n      pop\n        /* \"#utility.yul\":11941:12210   */\n      pop\n      pop\n      pop\n      jump\t// out\n        /* \"#utility.yul\":12216:12289   */\n    tag_228:\n        /* \"#utility.yul\":12261:12264   */\n      0x00\n        /* \"#utility.yul\":12216:12289   */\n      swap1\n      jump\t// out\n        /* \"#utility.yul\":12295:12484   */\n    tag_229:\n        /* \"#utility.yul\":12372:12404   */\n      tag_381\n      tag_228\n      jump\t// in\n    tag_381:\n        /* \"#utility.yul\":12413:12478   */\n      tag_382\n        /* \"#utility.yul\":12471:12477   */\n      dup2\n        /* \"#utility.yul\":12463:12469   */\n      dup5\n        /* \"#utility.yul\":12457:12461   */\n      dup5\n        /* \"#utility.yul\":12413:12478   */\n      tag_227\n      jump\t// in\n    tag_382:\n        /* \"#utility.yul\":12348:12484   */\n      pop\n        /* \"#utility.yul\":12295:12484   */\n      pop\n      pop\n      jump\t// out\n        /* \"#utility.yul\":12490:12676   */\n    tag_230:\n        /* \"#utility.yul\":12550:12670   */\n    tag_384:\n        /* \"#utility.yul\":12567:12570   */\n      dup2\n        /* \"#utility.yul\":12560:12565   */\n      dup2\n        /* \"#utility.yul\":12557:12571   */\n      lt\n        /* \"#utility.yul\":12550:12670   */\n      iszero\n      tag_386\n      jumpi\n        /* \"#utility.yul\":12621:12660   */\n      tag_387\n        /* \"#utility.yul\":12658:12659   */\n      0x00\n        /* \"#utility.yul\":12651:12656   */\n      dup3\n        /* \"#utility.yul\":12621:12660   */\n      tag_229\n      jump\t// in\n    tag_387:\n        /* \"#utility.yul\":12594:12595   */\n      0x01\n        /* \"#utility.yul\":12587:12592   */\n      dup2\n        /* \"#utility.yul\":12583:12596   */\n      add\n        /* \"#utility.yul\":12574:12596   */\n      swap1\n      pop\n        /* \"#utility.yul\":12550:12670   */\n      jump(tag_384)\n    tag_386:\n        /* \"#utility.yul\":12490:12676   */\n      pop\n      pop\n      jump\t// out\n        /* \"#utility.yul\":12682:13225   */\n    tag_231:\n        /* \"#utility.yul\":12783:12785   */\n      0x1f\n        /* \"#utility.yul\":12778:12781   */\n      dup3\n        /* \"#utility.yul\":12775:12786   */\n      gt\n        /* \"#utility.yul\":12772:13218   */\n      iszero\n      tag_389\n      jumpi\n        /* \"#utility.yul\":12817:12855   */\n      tag_390\n        /* \"#utility.yul\":12849:12854   */\n      dup2\n        /* \"#utility.yul\":12817:12855   */\n      tag_219\n      jump\t// in\n    tag_390:\n        /* \"#utility.yul\":12901:12930   */\n      tag_391\n        /* \"#utility.yul\":12919:12929   */\n      dup5\n        /* \"#utility.yul\":12901:12930   */\n      tag_220\n      jump\t// in\n    tag_391:\n        /* \"#utility.yul\":12891:12899   */\n      dup2\n        /* \"#utility.yul\":12887:12931   */\n      add\n        /* \"#utility.yul\":13084:13086   */\n      0x20\n        /* \"#utility.yul\":13072:13082   */\n      dup6\n        /* \"#utility.yul\":13069:13087   */\n      lt\n        /* \"#utility.yul\":13066:13115   */\n      iszero\n      tag_392\n      jumpi\n        /* \"#utility.yul\":13105:13113   */\n      dup2\n        /* \"#utility.yul\":13090:13113   */\n      swap1\n      pop\n        /* \"#utility.yul\":13066:13115   */\n    tag_392:\n        /* \"#utility.yul\":13128:13208   */\n      tag_393\n        /* \"#utility.yul\":13184:13206   */\n      tag_394\n        /* \"#utility.yul\":13202:13205   */\n      dup6\n        /* \"#utility.yul\":13184:13206   */\n      tag_220\n      jump\t// in\n    tag_394:\n        /* \"#utility.yul\":13174:13182   */\n      dup4\n        /* \"#utility.yul\":13170:13207   */\n      add\n        /* \"#utility.yul\":13157:13168   */\n      dup3\n        /* \"#utility.yul\":13128:13208   */\n      tag_230\n      jump\t// in\n    tag_393:\n        /* \"#utility.yul\":12787:13218   */\n      pop\n      pop\n        /* \"#utility.yul\":12772:13218   */\n    tag_389:\n        /* \"#utility.yul\":12682:13225   */\n      pop\n      pop\n      pop\n      jump\t// out\n        /* \"#utility.yul\":13231:13348   */\n    tag_232:\n        /* \"#utility.yul\":13285:13293   */\n      0x00\n        /* \"#utility.yul\":13335:13340   */\n      dup3\n        /* \"#utility.yul\":13329:13333   */\n      dup3\n        /* \"#utility.yul\":13325:13341   */\n      shr\n        /* \"#utility.yul\":13304:13341   */\n      swap1\n      pop\n        /* \"#utility.yul\":13231:13348   */\n      swap3\n      swap2\n      pop\n      pop\n      jump\t// out\n        /* \"#utility.yul\":13354:13523   */\n    tag_233:\n        /* \"#utility.yul\":13398:13404   */\n      0x00\n        /* \"#utility.yul\":13431:13482   */\n      tag_397\n        /* \"#utility.yul\":13479:13480   */\n      0x00\n        /* \"#utility.yul\":13475:13481   */\n      not\n        /* \"#utility.yul\":13467:13472   */\n      dup5\n        /* \"#utility.yul\":13464:13465   */\n      0x08\n        /* \"#utility.yul\":13460:13473   */\n      mul\n        /* \"#utility.yul\":13431:13482   */\n      tag_232\n      jump\t// in\n    tag_397:\n        /* \"#utility.yul\":13427:13483   */\n      not\n        /* \"#utility.yul\":13512:13516   */\n      dup1\n        /* \"#utility.yul\":13506:13510   */\n      dup4\n        /* \"#utility.yul\":13502:13517   */\n      and\n        /* \"#utility.yul\":13492:13517   */\n      swap2\n      pop\n        /* \"#utility.yul\":13405:13523   */\n      pop\n        /* \"#utility.yul\":13354:13523   */\n      swap3\n      swap2\n      pop\n      pop\n      jump\t// out\n        /* \"#utility.yul\":13528:13823   */\n    tag_234:\n        /* \"#utility.yul\":13604:13608   */\n      0x00\n        /* \"#utility.yul\":13750:13779   */\n      tag_399\n        /* \"#utility.yul\":13775:13778   */\n      dup4\n        /* \"#utility.yul\":13769:13773   */\n      dup4\n        /* \"#utility.yul\":13750:13779   */\n      tag_233\n      jump\t// in\n    tag_399:\n        /* \"#utility.yul\":13742:13779   */\n      swap2\n      pop\n        /* \"#utility.yul\":13812:13815   */\n      dup3\n        /* \"#utility.yul\":13809:13810   */\n      0x02\n        /* \"#utility.yul\":13805:13816   */\n      mul\n        /* \"#utility.yul\":13799:13803   */\n      dup3\n        /* \"#utility.yul\":13796:13817   */\n      or\n        /* \"#utility.yul\":13788:13817   */\n      swap1\n      pop\n        /* \"#utility.yul\":13528:13823   */\n      swap3\n      swap2\n      pop\n      pop\n      jump\t// out\n        /* \"#utility.yul\":13828:15223   */\n    tag_78:\n        /* \"#utility.yul\":13945:13982   */\n      tag_401\n        /* \"#utility.yul\":13978:13981   */\n      dup3\n        /* \"#utility.yul\":13945:13982   */\n      tag_213\n      jump\t// in\n    tag_401:\n        /* \"#utility.yul\":14047:14065   */\n      0xffffffffffffffff\n        /* \"#utility.yul\":14039:14045   */\n      dup2\n        /* \"#utility.yul\":14036:14066   */\n      gt\n        /* \"#utility.yul\":14033:14089   */\n      iszero\n      tag_402\n      jumpi\n        /* \"#utility.yul\":14069:14087   */\n      tag_403\n      tag_183\n      jump\t// in\n    tag_403:\n        /* \"#utility.yul\":14033:14089   */\n    tag_402:\n        /* \"#utility.yul\":14113:14151   */\n      tag_404\n        /* \"#utility.yul\":14145:14149   */\n      dup3\n        /* \"#utility.yul\":14139:14150   */\n      sload\n        /* \"#utility.yul\":14113:14151   */\n      tag_94\n      jump\t// in\n    tag_404:\n        /* \"#utility.yul\":14198:14265   */\n      tag_405\n        /* \"#utility.yul\":14258:14264   */\n      dup3\n        /* \"#utility.yul\":14250:14256   */\n      dup3\n        /* \"#utility.yul\":14244:14248   */\n      dup6\n        /* \"#utility.yul\":14198:14265   */\n      tag_231\n      jump\t// in\n    tag_405:\n        /* \"#utility.yul\":14292:14293   */\n      0x00\n        /* \"#utility.yul\":14316:14320   */\n      0x20\n        /* \"#utility.yul\":14303:14320   */\n      swap1\n      pop\n        /* \"#utility.yul\":14348:14350   */\n      0x1f\n        /* \"#utility.yul\":14340:14346   */\n      dup4\n        /* \"#utility.yul\":14337:14351   */\n      gt\n        /* \"#utility.yul\":14365:14366   */\n      0x01\n        /* \"#utility.yul\":14360:14978   */\n      dup2\n      eq\n      tag_407\n      jumpi\n        /* \"#utility.yul\":15022:15023   */\n      0x00\n        /* \"#utility.yul\":15039:15045   */\n      dup5\n        /* \"#utility.yul\":15036:15113   */\n      iszero\n      tag_408\n      jumpi\n        /* \"#utility.yul\":15088:15097   */\n      dup3\n        /* \"#utility.yul\":15083:15086   */\n      dup8\n        /* \"#utility.yul\":15079:15098   */\n      add\n        /* \"#utility.yul\":15073:15099   */\n      mload\n        /* \"#utility.yul\":15064:15099   */\n      swap1\n      pop\n        /* \"#utility.yul\":15036:15113   */\n    tag_408:\n        /* \"#utility.yul\":15139:15206   */\n      tag_409\n        /* \"#utility.yul\":15199:15205   */\n      dup6\n        /* \"#utility.yul\":15192:15197   */\n      dup3\n        /* \"#utility.yul\":15139:15206   */\n      tag_234\n      jump\t// in\n    tag_409:\n        /* \"#utility.yul\":15133:15137   */\n      dup7\n        /* \"#utility.yul\":15126:15207   */\n      sstore\n        /* \"#utility.yul\":14995:15217   */\n      pop\n        /* \"#utility.yul\":14330:15217   */\n      jump(tag_406)\n        /* \"#utility.yul\":14360:14978   */\n    tag_407:\n        /* \"#utility.yul\":14412:14416   */\n      0x1f\n        /* \"#utility.yul\":14408:14417   */\n      not\n        /* \"#utility.yul\":14400:14406   */\n      dup5\n        /* \"#utility.yul\":14396:14418   */\n      and\n        /* \"#utility.yul\":14446:14483   */\n      tag_410\n        /* \"#utility.yul\":14478:14482   */\n      dup7\n        /* \"#utility.yul\":14446:14483   */\n      tag_219\n      jump\t// in\n    tag_410:\n        /* \"#utility.yul\":14505:14506   */\n      0x00\n        /* \"#utility.yul\":14519:14727   */\n    tag_411:\n        /* \"#utility.yul\":14533:14540   */\n      dup3\n        /* \"#utility.yul\":14530:14531   */\n      dup2\n        /* \"#utility.yul\":14527:14541   */\n      lt\n        /* \"#utility.yul\":14519:14727   */\n      iszero\n      tag_413\n      jumpi\n        /* \"#utility.yul\":14612:14621   */\n      dup5\n        /* \"#utility.yul\":14607:14610   */\n      dup10\n        /* \"#utility.yul\":14603:14622   */\n      add\n        /* \"#utility.yul\":14597:14623   */\n      mload\n        /* \"#utility.yul\":14589:14595   */\n      dup3\n        /* \"#utility.yul\":14582:14624   */\n      sstore\n        /* \"#utility.yul\":14663:14664   */\n      0x01\n        /* \"#utility.yul\":14655:14661   */\n      dup3\n        /* \"#utility.yul\":14651:14665   */\n      add\n        /* \"#utility.yul\":14641:14665   */\n      swap2\n      pop\n        /* \"#utility.yul\":14710:14712   */\n      0x20\n        /* \"#utility.yul\":14699:14708   */\n      dup6\n        /* \"#utility.yul\":14695:14713   */\n      add\n        /* \"#utility.yul\":14682:14713   */\n      swap5\n      pop\n        /* \"#utility.yul\":14556:14560   */\n      0x20\n        /* \"#utility.yul\":14553:14554   */\n      dup2\n        /* \"#utility.yul\":14549:14561   */\n      add\n        /* \"#utility.yul\":14544:14561   */\n      swap1\n      pop\n        /* \"#utility.yul\":14519:14727   */\n      jump(tag_411)\n    tag_413:\n        /* \"#utility.yul\":14755:14761   */\n      dup7\n        /* \"#utility.yul\":14746:14753   */\n      dup4\n        /* \"#utility.yul\":14743:14762   */\n      lt\n        /* \"#utility.yul\":14740:14919   */\n      iszero\n      tag_414\n      jumpi\n        /* \"#utility.yul\":14813:14822   */\n      dup5\n        /* \"#utility.yul\":14808:14811   */\n      dup10\n        /* \"#utility.yul\":14804:14823   */\n      add\n        /* \"#utility.yul\":14798:14824   */\n      mload\n        /* \"#utility.yul\":14856:14904   */\n      tag_415\n        /* \"#utility.yul\":14898:14902   */\n      0x1f\n        /* \"#utility.yul\":14890:14896   */\n      dup10\n        /* \"#utility.yul\":14886:14903   */\n      and\n        /* \"#utility.yul\":14875:14884   */\n      dup3\n        /* \"#utility.yul\":14856:14904   */\n      tag_233\n      jump\t// in\n    tag_415:\n        /* \"#utility.yul\":14848:14854   */\n      dup4\n        /* \"#utility.yul\":14841:14905   */\n      sstore\n        /* \"#utility.yul\":14763:14919   */\n      pop\n        /* \"#utility.yul\":14740:14919   */\n    tag_414:\n        /* \"#utility.yul\":14965:14966   */\n      0x01\n        /* \"#utility.yul\":14961:14962   */\n      0x02\n        /* \"#utility.yul\":14953:14959   */\n      dup9\n        /* \"#utility.yul\":14949:14963   */\n      mul\n        /* \"#utility.yul\":14945:14967   */\n      add\n        /* \"#utility.yul\":14939:14943   */\n      dup9\n        /* \"#utility.yul\":14932:14968   */\n      sstore\n        /* \"#utility.yul\":14367:14978   */\n      pop\n      pop\n      pop\n        /* \"#utility.yul\":14330:15217   */\n    tag_406:\n      pop\n        /* \"#utility.yul\":13920:15223   */\n      pop\n      pop\n      pop\n        /* \"#utility.yul\":13828:15223   */\n      pop\n      pop\n      jump\t// out\n        /* \"#utility.yul\":15229:15319   */\n    tag_235:\n        /* \"#utility.yul\":15263:15270   */\n      0x00\n        /* \"#utility.yul\":15306:15311   */\n      dup2\n        /* \"#utility.yul\":15299:15312   */\n      iszero\n        /* \"#utility.yul\":15292:15313   */\n      iszero\n        /* \"#utility.yul\":15281:15313   */\n      swap1\n      pop\n        /* \"#utility.yul\":15229:15319   */\n      swap2\n      swap1\n      pop\n      jump\t// out\n        /* \"#utility.yul\":15325:15434   */\n    tag_236:\n        /* \"#utility.yul\":15406:15427   */\n      tag_418\n        /* \"#utility.yul\":15421:15426   */\n      dup2\n        /* \"#utility.yul\":15406:15427   */\n      tag_235\n      jump\t// in\n    tag_418:\n        /* \"#utility.yul\":15401:15404   */\n      dup3\n        /* \"#utility.yul\":15394:15428   */\n      mstore\n        /* \"#utility.yul\":15325:15434   */\n      pop\n      pop\n      jump\t// out\n        /* \"#utility.yul\":15440:15851   */\n    tag_80:\n        /* \"#utility.yul\":15575:15579   */\n      0x00\n        /* \"#utility.yul\":15613:15615   */\n      0x40\n        /* \"#utility.yul\":15602:15611   */\n      dup3\n        /* \"#utility.yul\":15598:15616   */\n      add\n        /* \"#utility.yul\":15590:15616   */\n      swap1\n      pop\n        /* \"#utility.yul\":15662:15671   */\n      dup2\n        /* \"#utility.yul\":15656:15660   */\n      dup2\n        /* \"#utility.yul\":15652:15672   */\n      sub\n        /* \"#utility.yul\":15648:15649   */\n      0x00\n        /* \"#utility.yul\":15637:15646   */\n      dup4\n        /* \"#utility.yul\":15633:15650   */\n      add\n        /* \"#utility.yul\":15626:15673   */\n      mstore\n        /* \"#utility.yul\":15690:15768   */\n      tag_420\n        /* \"#utility.yul\":15763:15767   */\n      dup2\n        /* \"#utility.yul\":15754:15760   */\n      dup6\n        /* \"#utility.yul\":15690:15768   */\n      tag_216\n      jump\t// in\n    tag_420:\n        /* \"#utility.yul\":15682:15768   */\n      swap1\n      pop\n        /* \"#utility.yul\":15778:15844   */\n      tag_421\n        /* \"#utility.yul\":15840:15842   */\n      0x20\n        /* \"#utility.yul\":15829:15838   */\n      dup4\n        /* \"#utility.yul\":15825:15843   */\n      add\n        /* \"#utility.yul\":15816:15822   */\n      dup5\n        /* \"#utility.yul\":15778:15844   */\n      tag_236\n      jump\t// in\n    tag_421:\n        /* \"#utility.yul\":15440:15851   */\n      swap4\n      swap3\n      pop\n      pop\n      pop\n      jump\t// out\n        /* \"#utility.yul\":15857:16026   */\n    tag_237:\n        /* \"#utility.yul\":15997:16018   */\n      0x5573657220616c72656164792065786973747300000000000000000000000000\n        /* \"#utility.yul\":15993:15994   */\n      0x00\n        /* \"#utility.yul\":15985:15991   */\n      dup3\n        /* \"#utility.yul\":15981:15995   */\n      add\n        /* \"#utility.yul\":15974:16019   */\n      mstore\n        /* \"#utility.yul\":15857:16026   */\n      pop\n      jump\t// out\n        /* \"#utility.yul\":16032:16398   */\n    tag_238:\n        /* \"#utility.yul\":16174:16177   */\n      0x00\n        /* \"#utility.yul\":16195:16262   */\n      tag_424\n        /* \"#utility.yul\":16259:16261   */\n      0x13\n        /* \"#utility.yul\":16254:16257   */\n      dup4\n        /* \"#utility.yul\":16195:16262   */\n      tag_214\n      jump\t// in\n    tag_424:\n        /* \"#utility.yul\":16188:16262   */\n      swap2\n      pop\n        /* \"#utility.yul\":16271:16364   */\n      tag_425\n        /* \"#utility.yul\":16360:16363   */\n      dup3\n        /* \"#utility.yul\":16271:16364   */\n      tag_237\n      jump\t// in\n    tag_425:\n        /* \"#utility.yul\":16389:16391   */\n      0x20\n        /* \"#utility.yul\":16384:16387   */\n      dup3\n        /* \"#utility.yul\":16380:16392   */\n      add\n        /* \"#utility.yul\":16373:16392   */\n      swap1\n      pop\n        /* \"#utility.yul\":16032:16398   */\n      swap2\n      swap1\n      pop\n      jump\t// out\n        /* \"#utility.yul\":16404:16823   */\n    tag_90:\n        /* \"#utility.yul\":16570:16574   */\n      0x00\n        /* \"#utility.yul\":16608:16610   */\n      0x20\n        /* \"#utility.yul\":16597:16606   */\n      dup3\n        /* \"#utility.yul\":16593:16611   */\n      add\n        /* \"#utility.yul\":16585:16611   */\n      swap1\n      pop\n        /* \"#utility.yul\":16657:16666   */\n      dup2\n        /* \"#utility.yul\":16651:16655   */\n      dup2\n        /* \"#utility.yul\":16647:16667   */\n      sub\n        /* \"#utility.yul\":16643:16644   */\n      0x00\n        /* \"#utility.yul\":16632:16641   */\n      dup4\n        /* \"#utility.yul\":16628:16645   */\n      add\n        /* \"#utility.yul\":16621:16668   */\n      mstore\n        /* \"#utility.yul\":16685:16816   */\n      tag_427\n        /* \"#utility.yul\":16811:16815   */\n      dup2\n        /* \"#utility.yul\":16685:16816   */\n      tag_238\n      jump\t// in\n    tag_427:\n        /* \"#utility.yul\":16677:16816   */\n      swap1\n      pop\n        /* \"#utility.yul\":16404:16823   */\n      swap2\n      swap1\n      pop\n      jump\t// out\n        /* \"#utility.yul\":16829:16977   */\n    tag_239:\n        /* \"#utility.yul\":16931:16942   */\n      0x00\n        /* \"#utility.yul\":16968:16971   */\n      dup2\n        /* \"#utility.yul\":16953:16971   */\n      swap1\n      pop\n        /* \"#utility.yul\":16829:16977   */\n      swap3\n      swap2\n      pop\n      pop\n      jump\t// out\n        /* \"#utility.yul\":16983:17373   */\n    tag_240:\n        /* \"#utility.yul\":17089:17092   */\n      0x00\n        /* \"#utility.yul\":17117:17156   */\n      tag_430\n        /* \"#utility.yul\":17150:17155   */\n      dup3\n        /* \"#utility.yul\":17117:17156   */\n      tag_213\n      jump\t// in\n    tag_430:\n        /* \"#utility.yul\":17172:17261   */\n      tag_431\n        /* \"#utility.yul\":17254:17260   */\n      dup2\n        /* \"#utility.yul\":17249:17252   */\n      dup6\n        /* \"#utility.yul\":17172:17261   */\n      tag_239\n      jump\t// in\n    tag_431:\n        /* \"#utility.yul\":17165:17261   */\n      swap4\n      pop\n        /* \"#utility.yul\":17270:17335   */\n      tag_432\n        /* \"#utility.yul\":17328:17334   */\n      dup2\n        /* \"#utility.yul\":17323:17326   */\n      dup6\n        /* \"#utility.yul\":17316:17320   */\n      0x20\n        /* \"#utility.yul\":17309:17314   */\n      dup7\n        /* \"#utility.yul\":17305:17321   */\n      add\n        /* \"#utility.yul\":17270:17335   */\n      tag_215\n      jump\t// in\n    tag_432:\n        /* \"#utility.yul\":17360:17366   */\n      dup1\n        /* \"#utility.yul\":17355:17358   */\n      dup5\n        /* \"#utility.yul\":17351:17367   */\n      add\n        /* \"#utility.yul\":17344:17367   */\n      swap2\n      pop\n        /* \"#utility.yul\":17093:17373   */\n      pop\n        /* \"#utility.yul\":16983:17373   */\n      swap3\n      swap2\n      pop\n      pop\n      jump\t// out\n        /* \"#utility.yul\":17379:17654   */\n    tag_92:\n        /* \"#utility.yul\":17511:17514   */\n      0x00\n        /* \"#utility.yul\":17533:17628   */\n      tag_434\n        /* \"#utility.yul\":17624:17627   */\n      dup3\n        /* \"#utility.yul\":17615:17621   */\n      dup5\n        /* \"#utility.yul\":17533:17628   */\n      tag_240\n      jump\t// in\n    tag_434:\n        /* \"#utility.yul\":17526:17628   */\n      swap2\n      pop\n        /* \"#utility.yul\":17645:17648   */\n      dup2\n        /* \"#utility.yul\":17638:17648   */\n      swap1\n      pop\n        /* \"#utility.yul\":17379:17654   */\n      swap3\n      swap2\n      pop\n      pop\n      jump\t// out\n        /* \"#utility.yul\":17660:17836   */\n    tag_241:\n        /* \"#utility.yul\":17800:17828   */\n      0x50726976617465206b657920616c726561647920696e20757365000000000000\n        /* \"#utility.yul\":17796:17797   */\n      0x00\n        /* \"#utility.yul\":17788:17794   */\n      dup3\n        /* \"#utility.yul\":17784:17798   */\n      add\n        /* \"#utility.yul\":17777:17829   */\n      mstore\n        /* \"#utility.yul\":17660:17836   */\n      pop\n      jump\t// out\n        /* \"#utility.yul\":17842:18208   */\n    tag_242:\n        /* \"#utility.yul\":17984:17987   */\n      0x00\n        /* \"#utility.yul\":18005:18072   */\n      tag_437\n        /* \"#utility.yul\":18069:18071   */\n      0x1a\n        /* \"#utility.yul\":18064:18067   */\n      dup4\n        /* \"#utility.yul\":18005:18072   */\n      tag_214\n      jump\t// in\n    tag_437:\n        /* \"#utility.yul\":17998:18072   */\n      swap2\n      pop\n        /* \"#utility.yul\":18081:18174   */\n      tag_438\n        /* \"#utility.yul\":18170:18173   */\n      dup3\n        /* \"#utility.yul\":18081:18174   */\n      tag_241\n      jump\t// in\n    tag_438:\n        /* \"#utility.yul\":18199:18201   */\n      0x20\n        /* \"#utility.yul\":18194:18197   */\n      dup3\n        /* \"#utility.yul\":18190:18202   */\n      add\n        /* \"#utility.yul\":18183:18202   */\n      swap1\n      pop\n        /* \"#utility.yul\":17842:18208   */\n      swap2\n      swap1\n      pop\n      jump\t// out\n        /* \"#utility.yul\":18214:18633   */\n    tag_97:\n        /* \"#utility.yul\":18380:18384   */\n      0x00\n        /* \"#utility.yul\":18418:18420   */\n      0x20\n        /* \"#utility.yul\":18407:18416   */\n      dup3\n        /* \"#utility.yul\":18403:18421   */\n      add\n        /* \"#utility.yul\":18395:18421   */\n      swap1\n      pop\n        /* \"#utility.yul\":18467:18476   */\n      dup2\n        /* \"#utility.yul\":18461:18465   */\n      dup2\n        /* \"#utility.yul\":18457:18477   */\n      sub\n        /* \"#utility.yul\":18453:18454   */\n      0x00\n        /* \"#utility.yul\":18442:18451   */\n      dup4\n        /* \"#utility.yul\":18438:18455   */\n      add\n        /* \"#utility.yul\":18431:18478   */\n      mstore\n        /* \"#utility.yul\":18495:18626   */\n      tag_440\n        /* \"#utility.yul\":18621:18625   */\n      dup2\n        /* \"#utility.yul\":18495:18626   */\n      tag_242\n      jump\t// in\n    tag_440:\n        /* \"#utility.yul\":18487:18626   */\n      swap1\n      pop\n        /* \"#utility.yul\":18214:18633   */\n      swap2\n      swap1\n      pop\n      jump\t// out\n        /* \"#utility.yul\":18639:18815   */\n    tag_243:\n        /* \"#utility.yul\":18779:18807   */\n      0x50726976617465206b657920616c7265616479206d6170706564000000000000\n        /* \"#utility.yul\":18775:18776   */\n      0x00\n        /* \"#utility.yul\":18767:18773   */\n      dup3\n        /* \"#utility.yul\":18763:18777   */\n      add\n        /* \"#utility.yul\":18756:18808   */\n      mstore\n        /* \"#utility.yul\":18639:18815   */\n      pop\n      jump\t// out\n        /* \"#utility.yul\":18821:19187   */\n    tag_244:\n        /* \"#utility.yul\":18963:18966   */\n      0x00\n        /* \"#utility.yul\":18984:19051   */\n      tag_443\n        /* \"#utility.yul\":19048:19050   */\n      0x1a\n        /* \"#utility.yul\":19043:19046   */\n      dup4\n        /* \"#utility.yul\":18984:19051   */\n      tag_214\n      jump\t// in\n    tag_443:\n        /* \"#utility.yul\":18977:19051   */\n      swap2\n      pop\n        /* \"#utility.yul\":19060:19153   */\n      tag_444\n        /* \"#utility.yul\":19149:19152   */\n      dup3\n        /* \"#utility.yul\":19060:19153   */\n      tag_243\n      jump\t// in\n    tag_444:\n        /* \"#utility.yul\":19178:19180   */\n      0x20\n        /* \"#utility.yul\":19173:19176   */\n      dup3\n        /* \"#utility.yul\":19169:19181   */\n      add\n        /* \"#utility.yul\":19162:19181   */\n      swap1\n      pop\n        /* \"#utility.yul\":18821:19187   */\n      swap2\n      swap1\n      pop\n      jump\t// out\n        /* \"#utility.yul\":19193:19612   */\n    tag_126:\n        /* \"#utility.yul\":19359:19363   */\n      0x00\n        /* \"#utility.yul\":19397:19399   */\n      0x20\n        /* \"#utility.yul\":19386:19395   */\n      dup3\n        /* \"#utility.yul\":19382:19400   */\n      add\n        /* \"#utility.yul\":19374:19400   */\n      swap1\n      pop\n        /* \"#utility.yul\":19446:19455   */\n      dup2\n        /* \"#utility.yul\":19440:19444   */\n      dup2\n        /* \"#utility.yul\":19436:19456   */\n      sub\n        /* \"#utility.yul\":19432:19433   */\n      0x00\n        /* \"#utility.yul\":19421:19430   */\n      dup4\n        /* \"#utility.yul\":19417:19434   */\n      add\n        /* \"#utility.yul\":19410:19457   */\n      mstore\n        /* \"#utility.yul\":19474:19605   */\n      tag_446\n        /* \"#utility.yul\":19600:19604   */\n      dup2\n        /* \"#utility.yul\":19474:19605   */\n      tag_244\n      jump\t// in\n    tag_446:\n        /* \"#utility.yul\":19466:19605   */\n      swap1\n      pop\n        /* \"#utility.yul\":19193:19612   */\n      swap2\n      swap1\n      pop\n      jump\t// out\n        /* \"#utility.yul\":19618:19798   */\n    tag_245:\n        /* \"#utility.yul\":19666:19743   */\n      0x4e487b7100000000000000000000000000000000000000000000000000000000\n        /* \"#utility.yul\":19663:19664   */\n      0x00\n        /* \"#utility.yul\":19656:19744   */\n      mstore\n        /* \"#utility.yul\":19763:19767   */\n      0x11\n        /* \"#utility.yul\":19760:19761   */\n      0x04\n        /* \"#utility.yul\":19753:19768   */\n      mstore\n        /* \"#utility.yul\":19787:19791   */\n      0x24\n        /* \"#utility.yul\":19784:19785   */\n      0x00\n        /* \"#utility.yul\":19777:19792   */\n      revert\n        /* \"#utility.yul\":19804:20214   */\n    tag_189:\n        /* \"#utility.yul\":19844:19851   */\n      0x00\n        /* \"#utility.yul\":19867:19887   */\n      tag_449\n        /* \"#utility.yul\":19885:19886   */\n      dup3\n        /* \"#utility.yul\":19867:19887   */\n      tag_223\n      jump\t// in\n    tag_449:\n        /* \"#utility.yul\":19862:19887   */\n      swap2\n      pop\n        /* \"#utility.yul\":19901:19921   */\n      tag_450\n        /* \"#utility.yul\":19919:19920   */\n      dup4\n        /* \"#utility.yul\":19901:19921   */\n      tag_223\n      jump\t// in\n    tag_450:\n        /* \"#utility.yul\":19896:19921   */\n      swap3\n      pop\n        /* \"#utility.yul\":19956:19957   */\n      dup3\n        /* \"#utility.yul\":19953:19954   */\n      dup3\n        /* \"#utility.yul\":19949:19958   */\n      mul\n        /* \"#utility.yul\":19978:20008   */\n      tag_451\n        /* \"#utility.yul\":19996:20007   */\n      dup2\n        /* \"#utility.yul\":19978:20008   */\n      tag_223\n      jump\t// in\n    tag_451:\n        /* \"#utility.yul\":19967:20008   */\n      swap2\n      pop\n        /* \"#utility.yul\":20157:20158   */\n      dup3\n        /* \"#utility.yul\":20148:20155   */\n      dup3\n        /* \"#utility.yul\":20144:20159   */\n      div\n        /* \"#utility.yul\":20141:20142   */\n      dup5\n        /* \"#utility.yul\":20138:20160   */\n      eq\n        /* \"#utility.yul\":20118:20119   */\n      dup4\n        /* \"#utility.yul\":20111:20120   */\n      iszero\n        /* \"#utility.yul\":20091:20174   */\n      or\n        /* \"#utility.yul\":20068:20207   */\n      tag_452\n      jumpi\n        /* \"#utility.yul\":20187:20205   */\n      tag_453\n      tag_245\n      jump\t// in\n    tag_453:\n        /* \"#utility.yul\":20068:20207   */\n    tag_452:\n        /* \"#utility.yul\":19852:20214   */\n      pop\n        /* \"#utility.yul\":19804:20214   */\n      swap3\n      swap2\n      pop\n      pop\n      jump\t// out\n        /* \"#utility.yul\":20220:20322   */\n    tag_246:\n        /* \"#utility.yul\":20262:20270   */\n      0x00\n        /* \"#utility.yul\":20309:20314   */\n      dup2\n        /* \"#utility.yul\":20306:20307   */\n      0x01\n        /* \"#utility.yul\":20302:20315   */\n      shr\n        /* \"#utility.yul\":20281:20315   */\n      swap1\n      pop\n        /* \"#utility.yul\":20220:20322   */\n      swap2\n      swap1\n      pop\n      jump\t// out\n        /* \"#utility.yul\":20328:21176   */\n    tag_247:\n        /* \"#utility.yul\":20389:20394   */\n      0x00\n        /* \"#utility.yul\":20396:20400   */\n      dup1\n        /* \"#utility.yul\":20420:20426   */\n      dup3\n        /* \"#utility.yul\":20411:20426   */\n      swap2\n      pop\n        /* \"#utility.yul\":20444:20449   */\n      dup4\n        /* \"#utility.yul\":20435:20449   */\n      swap1\n      pop\n        /* \"#utility.yul\":20458:21170   */\n    tag_456:\n        /* \"#utility.yul\":20479:20480   */\n      0x01\n        /* \"#utility.yul\":20469:20477   */\n      dup6\n        /* \"#utility.yul\":20466:20481   */\n      gt\n        /* \"#utility.yul\":20458:21170   */\n      iszero\n      tag_458\n      jumpi\n        /* \"#utility.yul\":20574:20578   */\n      dup1\n        /* \"#utility.yul\":20569:20572   */\n      dup7\n        /* \"#utility.yul\":20565:20579   */\n      div\n        /* \"#utility.yul\":20559:20563   */\n      dup2\n        /* \"#utility.yul\":20556:20580   */\n      gt\n        /* \"#utility.yul\":20553:20603   */\n      iszero\n      tag_459\n      jumpi\n        /* \"#utility.yul\":20583:20601   */\n      tag_460\n      tag_245\n      jump\t// in\n    tag_460:\n        /* \"#utility.yul\":20553:20603   */\n    tag_459:\n        /* \"#utility.yul\":20633:20634   */\n      0x01\n        /* \"#utility.yul\":20623:20631   */\n      dup6\n        /* \"#utility.yul\":20619:20635   */\n      and\n        /* \"#utility.yul\":20616:21067   */\n      iszero\n      tag_461\n      jumpi\n        /* \"#utility.yul\":21048:21052   */\n      dup1\n        /* \"#utility.yul\":21041:21046   */\n      dup3\n        /* \"#utility.yul\":21037:21053   */\n      mul\n        /* \"#utility.yul\":21028:21053   */\n      swap2\n      pop\n        /* \"#utility.yul\":20616:21067   */\n    tag_461:\n        /* \"#utility.yul\":21098:21102   */\n      dup1\n        /* \"#utility.yul\":21092:21096   */\n      dup2\n        /* \"#utility.yul\":21088:21103   */\n      mul\n        /* \"#utility.yul\":21080:21103   */\n      swap1\n      pop\n        /* \"#utility.yul\":21128:21160   */\n      tag_462\n        /* \"#utility.yul\":21151:21159   */\n      dup6\n        /* \"#utility.yul\":21128:21160   */\n      tag_246\n      jump\t// in\n    tag_462:\n        /* \"#utility.yul\":21116:21160   */\n      swap5\n      pop\n        /* \"#utility.yul\":20458:21170   */\n      jump(tag_456)\n    tag_458:\n        /* \"#utility.yul\":20328:21176   */\n      swap5\n      pop\n      swap5\n      swap3\n      pop\n      pop\n      pop\n      jump\t// out\n        /* \"#utility.yul\":21182:22255   */\n    tag_248:\n        /* \"#utility.yul\":21236:21241   */\n      0x00\n        /* \"#utility.yul\":21427:21435   */\n      dup3\n        /* \"#utility.yul\":21417:21457   */\n      tag_464\n      jumpi\n        /* \"#utility.yul\":21448:21449   */\n      0x01\n        /* \"#utility.yul\":21439:21449   */\n      swap1\n      pop\n        /* \"#utility.yul\":21450:21455   */\n      jump(tag_463)\n        /* \"#utility.yul\":21417:21457   */\n    tag_464:\n        /* \"#utility.yul\":21476:21480   */\n      dup2\n        /* \"#utility.yul\":21466:21502   */\n      tag_465\n      jumpi\n        /* \"#utility.yul\":21493:21494   */\n      0x00\n        /* \"#utility.yul\":21484:21494   */\n      swap1\n      pop\n        /* \"#utility.yul\":21495:21500   */\n      jump(tag_463)\n        /* \"#utility.yul\":21466:21502   */\n    tag_465:\n        /* \"#utility.yul\":21562:21566   */\n      dup2\n        /* \"#utility.yul\":21610:21611   */\n      0x01\n        /* \"#utility.yul\":21605:21632   */\n      dup2\n      eq\n      tag_467\n      jumpi\n        /* \"#utility.yul\":21646:21647   */\n      0x02\n        /* \"#utility.yul\":21641:21832   */\n      dup2\n      eq\n      tag_468\n      jumpi\n        /* \"#utility.yul\":21555:21832   */\n      jump(tag_466)\n        /* \"#utility.yul\":21605:21632   */\n    tag_467:\n        /* \"#utility.yul\":21623:21624   */\n      0x01\n        /* \"#utility.yul\":21614:21624   */\n      swap2\n      pop\n        /* \"#utility.yul\":21625:21630   */\n      pop\n      jump(tag_463)\n        /* \"#utility.yul\":21641:21832   */\n    tag_468:\n        /* \"#utility.yul\":21686:21689   */\n      0xff\n        /* \"#utility.yul\":21676:21684   */\n      dup5\n        /* \"#utility.yul\":21673:21690   */\n      gt\n        /* \"#utility.yul\":21670:21713   */\n      iszero\n      tag_469\n      jumpi\n        /* \"#utility.yul\":21693:21711   */\n      tag_470\n      tag_245\n      jump\t// in\n    tag_470:\n        /* \"#utility.yul\":21670:21713   */\n    tag_469:\n        /* \"#utility.yul\":21742:21750   */\n      dup4\n        /* \"#utility.yul\":21739:21740   */\n      0x02\n        /* \"#utility.yul\":21735:21751   */\n      exp\n        /* \"#utility.yul\":21726:21751   */\n      swap2\n      pop\n        /* \"#utility.yul\":21777:21780   */\n      dup5\n        /* \"#utility.yul\":21770:21775   */\n      dup3\n        /* \"#utility.yul\":21767:21781   */\n      gt\n        /* \"#utility.yul\":21764:21804   */\n      iszero\n      tag_471\n      jumpi\n        /* \"#utility.yul\":21784:21802   */\n      tag_472\n      tag_245\n      jump\t// in\n    tag_472:\n        /* \"#utility.yul\":21764:21804   */\n    tag_471:\n        /* \"#utility.yul\":21817:21822   */\n      pop\n      jump(tag_463)\n        /* \"#utility.yul\":21555:21832   */\n    tag_466:\n      pop\n        /* \"#utility.yul\":21941:21943   */\n      0x20\n        /* \"#utility.yul\":21931:21939   */\n      dup4\n        /* \"#utility.yul\":21928:21944   */\n      lt\n        /* \"#utility.yul\":21922:21925   */\n      0x0133\n        /* \"#utility.yul\":21916:21920   */\n      dup4\n        /* \"#utility.yul\":21913:21926   */\n      lt\n        /* \"#utility.yul\":21909:21945   */\n      and\n        /* \"#utility.yul\":21891:21893   */\n      0x4e\n        /* \"#utility.yul\":21881:21889   */\n      dup5\n        /* \"#utility.yul\":21878:21894   */\n      lt\n        /* \"#utility.yul\":21873:21875   */\n      0x0b\n        /* \"#utility.yul\":21867:21871   */\n      dup5\n        /* \"#utility.yul\":21864:21876   */\n      lt\n        /* \"#utility.yul\":21860:21895   */\n      and\n        /* \"#utility.yul\":21844:21955   */\n      or\n        /* \"#utility.yul\":21841:22087   */\n      iszero\n      tag_473\n      jumpi\n        /* \"#utility.yul\":21997:22005   */\n      dup3\n        /* \"#utility.yul\":21991:21995   */\n      dup3\n        /* \"#utility.yul\":21987:22006   */\n      exp\n        /* \"#utility.yul\":21978:22006   */\n      swap1\n      pop\n        /* \"#utility.yul\":22032:22035   */\n      dup4\n        /* \"#utility.yul\":22025:22030   */\n      dup2\n        /* \"#utility.yul\":22022:22036   */\n      gt\n        /* \"#utility.yul\":22019:22059   */\n      iszero\n      tag_474\n      jumpi\n        /* \"#utility.yul\":22039:22057   */\n      tag_475\n      tag_245\n      jump\t// in\n    tag_475:\n        /* \"#utility.yul\":22019:22059   */\n    tag_474:\n        /* \"#utility.yul\":22072:22077   */\n      jump(tag_463)\n        /* \"#utility.yul\":21841:22087   */\n    tag_473:\n        /* \"#utility.yul\":22112:22154   */\n      tag_476\n        /* \"#utility.yul\":22150:22153   */\n      dup5\n        /* \"#utility.yul\":22140:22148   */\n      dup5\n        /* \"#utility.yul\":22134:22138   */\n      dup5\n        /* \"#utility.yul\":22131:22132   */\n      0x01\n        /* \"#utility.yul\":22112:22154   */\n      tag_247\n      jump\t// in\n    tag_476:\n        /* \"#utility.yul\":22097:22154   */\n      swap3\n      pop\n      swap1\n      pop\n        /* \"#utility.yul\":22186:22190   */\n      dup2\n        /* \"#utility.yul\":22181:22184   */\n      dup5\n        /* \"#utility.yul\":22177:22191   */\n      div\n        /* \"#utility.yul\":22170:22175   */\n      dup2\n        /* \"#utility.yul\":22167:22192   */\n      gt\n        /* \"#utility.yul\":22164:22215   */\n      iszero\n      tag_477\n      jumpi\n        /* \"#utility.yul\":22195:22213   */\n      tag_478\n      tag_245\n      jump\t// in\n    tag_478:\n        /* \"#utility.yul\":22164:22215   */\n    tag_477:\n        /* \"#utility.yul\":22244:22248   */\n      dup2\n        /* \"#utility.yul\":22237:22242   */\n      dup2\n        /* \"#utility.yul\":22233:22249   */\n      mul\n        /* \"#utility.yul\":22224:22249   */\n      swap1\n      pop\n        /* \"#utility.yul\":21182:22255   */\n    tag_463:\n      swap4\n      swap3\n      pop\n      pop\n      pop\n      jump\t// out\n        /* \"#utility.yul\":22261:22546   */\n    tag_191:\n        /* \"#utility.yul\":22321:22326   */\n      0x00\n        /* \"#utility.yul\":22345:22368   */\n      tag_480\n        /* \"#utility.yul\":22363:22367   */\n      dup3\n        /* \"#utility.yul\":22345:22368   */\n      tag_223\n      jump\t// in\n    tag_480:\n        /* \"#utility.yul\":22337:22368   */\n      swap2\n      pop\n        /* \"#utility.yul\":22389:22416   */\n      tag_481\n        /* \"#utility.yul\":22407:22415   */\n      dup4\n        /* \"#utility.yul\":22389:22416   */\n      tag_223\n      jump\t// in\n    tag_481:\n        /* \"#utility.yul\":22377:22416   */\n      swap3\n      pop\n        /* \"#utility.yul\":22435:22539   */\n      tag_482\n        /* \"#utility.yul\":22472:22538   */\n      0xffffffffffffffffffffffffffffffffffffffffffffffffffffffffffffffff\n        /* \"#utility.yul\":22462:22470   */\n      dup5\n        /* \"#utility.yul\":22456:22460   */\n      dup5\n        /* \"#utility.yul\":22435:22539   */\n      tag_248\n      jump\t// in\n    tag_482:\n        /* \"#utility.yul\":22426:22539   */\n      swap1\n      pop\n        /* \"#utility.yul\":22261:22546   */\n      swap3\n      swap2\n      pop\n      pop\n      jump\t// out\n        /* \"#utility.yul\":22552:22732   */\n    tag_196:\n        /* \"#utility.yul\":22600:22677   */\n      0x4e487b7100000000000000000000000000000000000000000000000000000000\n        /* \"#utility.yul\":22597:22598   */\n      0x00\n        /* \"#utility.yul\":22590:22678   */\n      mstore\n        /* \"#utility.yul\":22697:22701   */\n      0x32\n        /* \"#utility.yul\":22694:22695   */\n      0x04\n        /* \"#utility.yul\":22687:22702   */\n      mstore\n        /* \"#utility.yul\":22721:22725   */\n      0x24\n        /* \"#utility.yul\":22718:22719   */\n      0x00\n        /* \"#utility.yul\":22711:22726   */\n      revert\n\n    auxdata: 0xa2646970667358221220fd6e3fe2e84304e6bd050a573b288c52de751cecad971afd9579b404373e6cb264736f6c63430008160033\n}\n",
				"bytecode": {
					"linkReferences": {},
					"object": "608060405234801561000f575f80fd5b50611e5e8061001d5f395ff3fe608060405234801561000f575f80fd5b50600436106100e8575f3560e01c80635a7fb9d71161008a578063a87430ba11610064578063a87430ba14610240578063bf50184414610275578063ed1a998d146102a5578063fb73bc64146102d5576100e8565b80635a7fb9d7146101d857806391382b57146101f4578063a7ca961514610210576100e8565b80632b946252116100c65780632b946252146101405780635110063b1461015c57806351dad8ae1461017857806356abb5d9146101a8576100e8565b8063022e9066146100ec5780630ea5e4191461010857806326e0ad0314610124575b5f80fd5b610106600480360381019061010191906113c0565b610305565b005b610122600480360381019061011d91906113c0565b6103a7565b005b61013e600480360381019061013991906113c0565b610449565b005b61015a6004803603810190610155919061141a565b6104eb565b005b610176600480360381019061017191906113c0565b61077b565b005b610192600480360381019061018d919061155f565b61081d565b60405161019f9190611604565b60405180910390f35b6101c260048036038101906101bd919061155f565b6108ec565b6040516101cf9190611604565b60405180910390f35b6101f260048036038101906101ed9190611624565b6109bb565b005b61020e600480360381019061020991906113c0565b610a57565b005b61022a6004803603810190610225919061155f565b610af9565b6040516102379190611604565b60405180910390f35b61025a6004803603810190610255919061155f565b610bc8565b60405161026c969594939291906116a9565b60405180910390f35b61028f600480360381019061028a919061172b565b610ebc565b60405161029c9190611604565b60405180910390f35b6102bf60048036038101906102ba919061155f565b610f6f565b6040516102cc9190611604565b60405180910390f35b6102ef60048036038101906102ea919061155f565b61103e565b6040516102fc9190611604565b60405180910390f35b805f808473ffffffffffffffffffffffffffffffffffffffff1673ffffffffffffffffffffffffffffffffffffffff1681526020019081526020015f2060050190816103519190611975565b508173ffffffffffffffffffffffffffffffffffffffff167ff5465bf5342a4f1925a69b8034c58851a693a41d6687efd81d7519a92239058f82600160405161039b929190611a5e565b60405180910390a25050565b805f808473ffffffffffffffffffffffffffffffffffffffff1673ffffffffffffffffffffffffffffffffffffffff1681526020019081526020015f2060010190816103f39190611975565b508173ffffffffffffffffffffffffffffffffffffffff167fb18109d56de47f8f3fb67ef94c48b15b5bb4a6fdde6dcac27a00857b7166509382600160405161043d929190611a5e565b60405180910390a25050565b805f808473ffffffffffffffffffffffffffffffffffffffff1673ffffffffffffffffffffffffffffffffffffffff1681526020019081526020015f2060030190816104959190611975565b508173ffffffffffffffffffffffffffffffffffffffff167f11367dad338e86b55574e55dbad877633c889d17456c7fb3ae4ea1a89c18cf238260016040516104df929190611a5e565b60405180910390a25050565b5f73ffffffffffffffffffffffffffffffffffffffff165f808973ffffffffffffffffffffffffffffffffffffffff1673ffffffffffffffffffffffffffffffffffffffff1681526020019081526020015f205f015f9054906101000a900473ffffffffffffffffffffffffffffffffffffffff1673ffffffffffffffffffffffffffffffffffffffff16146105b6576040517f08c379a00000000000000000000000000000000000000000000000000000000081526004016105ad90611ad6565b60405180910390fd5b5f6001826040516105c79190611b2e565b908152602001604051809103902080546105e09061179f565b905014610622576040517f08c379a000000000000000000000000000000000000000000000000000000000815260040161061990611b8e565b60405180910390fd5b5f6040518060c001604052808973ffffffffffffffffffffffffffffffffffffffff168152602001888152602001878152602001868152602001858152602001848152509050805f808a73ffffffffffffffffffffffffffffffffffffffff1673ffffffffffffffffffffffffffffffffffffffff1681526020019081526020015f205f820151815f015f6101000a81548173ffffffffffffffffffffffffffffffffffffffff021916908373ffffffffffffffffffffffffffffffffffffffff16021790555060208201518160010190816106fe9190611975565b5060408201518160020190816107149190611975565b50606082015181600301908161072a9190611975565b5060808201518160040190816107409190611975565b5060a08201518160050190816107569190611975565b509050505f6107648961110d565b905061077083826109bb565b505050505050505050565b805f808473ffffffffffffffffffffffffffffffffffffffff1673ffffffffffffffffffffffffffffffffffffffff1681526020019081526020015f2060020190816107c79190611975565b508173ffffffffffffffffffffffffffffffffffffffff167f476add05a5729fa7ac341833a53b4e6bafa9fce7e320778009a503c27acb9740826001604051610811929190611a5e565b60405180910390a25050565b60605f808373ffffffffffffffffffffffffffffffffffffffff1673ffffffffffffffffffffffffffffffffffffffff1681526020019081526020015f2060050180546108699061179f565b80601f01602080910402602001604051908101604052809291908181526020018280546108959061179f565b80156108e05780601f106108b7576101008083540402835291602001916108e0565b820191905f5260205f20905b8154815290600101906020018083116108c357829003601f168201915b50505050509050919050565b60605f808373ffffffffffffffffffffffffffffffffffffffff1673ffffffffffffffffffffffffffffffffffffffff1681526020019081526020015f2060030180546109389061179f565b80601f01602080910402602001604051908101604052809291908181526020018280546109649061179f565b80156109af5780601f10610986576101008083540402835291602001916109af565b820191905f5260205f20905b81548152906001019060200180831161099257829003601f168201915b50505050509050919050565b5f6001836040516109cc9190611b2e565b908152602001604051809103902080546109e59061179f565b905014610a27576040517f08c379a0000000000000000000000000000000000000000000000000000000008152600401610a1e90611bf6565b60405180910390fd5b80600183604051610a389190611b2e565b90815260200160405180910390209081610a529190611975565b505050565b805f808473ffffffffffffffffffffffffffffffffffffffff1673ffffffffffffffffffffffffffffffffffffffff1681526020019081526020015f206004019081610aa39190611975565b508173ffffffffffffffffffffffffffffffffffffffff167ffe7de045050b107eac8e27cb35d4d684535c55b2f8e008c4d8771a771f789b08826001604051610aed929190611a5e565b60405180910390a25050565b60605f808373ffffffffffffffffffffffffffffffffffffffff1673ffffffffffffffffffffffffffffffffffffffff1681526020019081526020015f206004018054610b459061179f565b80601f0160208091040260200160405190810160405280929190818152602001828054610b719061179f565b8015610bbc5780601f10610b9357610100808354040283529160200191610bbc565b820191905f5260205f20905b815481529060010190602001808311610b9f57829003601f168201915b50505050509050919050565b5f602052805f5260405f205f91509050805f015f9054906101000a900473ffffffffffffffffffffffffffffffffffffffff1690806001018054610c0b9061179f565b80601f0160208091040260200160405190810160405280929190818152602001828054610c379061179f565b8015610c825780601f10610c5957610100808354040283529160200191610c82565b820191905f5260205f20905b815481529060010190602001808311610c6557829003601f168201915b505050505090806002018054610c979061179f565b80601f0160208091040260200160405190810160405280929190818152602001828054610cc39061179f565b8015610d0e5780601f10610ce557610100808354040283529160200191610d0e565b820191905f5260205f20905b815481529060010190602001808311610cf157829003601f168201915b505050505090806003018054610d239061179f565b80601f0160208091040260200160405190810160405280929190818152602001828054610d4f9061179f565b8015610d9a5780601f10610d7157610100808354040283529160200191610d9a565b820191905f5260205f20905b815481529060010190602001808311610d7d57829003601f168201915b505050505090806004018054610daf9061179f565b80601f0160208091040260200160405190810160405280929190818152602001828054610ddb9061179f565b8015610e265780601f10610dfd57610100808354040283529160200191610e26565b820191905f5260205f20905b815481529060010190602001808311610e0957829003601f168201915b505050505090806005018054610e3b9061179f565b80601f0160208091040260200160405190810160405280929190818152602001828054610e679061179f565b8015610eb25780601f10610e8957610100808354040283529160200191610eb2565b820191905f5260205f20905b815481529060010190602001808311610e9557829003601f168201915b5050505050905086565b6001818051602081018201805184825260208301602085012081835280955050505050505f915090508054610ef09061179f565b80601f0160208091040260200160405190810160405280929190818152602001828054610f1c9061179f565b8015610f675780601f10610f3e57610100808354040283529160200191610f67565b820191905f5260205f20905b815481529060010190602001808311610f4a57829003601f168201915b505050505081565b60605f808373ffffffffffffffffffffffffffffffffffffffff1673ffffffffffffffffffffffffffffffffffffffff1681526020019081526020015f206002018054610fbb9061179f565b80601f0160208091040260200160405190810160405280929190818152602001828054610fe79061179f565b80156110325780601f1061100957610100808354040283529160200191611032565b820191905f5260205f20905b81548152906001019060200180831161101557829003601f168201915b50505050509050919050565b60605f808373ffffffffffffffffffffffffffffffffffffffff1673ffffffffffffffffffffffffffffffffffffffff1681526020019081526020015f20600101805461108a9061179f565b80601f01602080910402602001604051908101604052809291908181526020018280546110b69061179f565b80156111015780601f106110d857610100808354040283529160200191611101565b820191905f5260205f20905b8154815290600101906020018083116110e457829003601f168201915b50505050509050919050565b60605f8273ffffffffffffffffffffffffffffffffffffffff165f1b90505f602a67ffffffffffffffff8111156111475761114661129c565b5b6040519080825280601f01601f1916602001820160405280156111795781602001600182028036833780820191505090505b5090505f5b601481101561120e575f8160086111959190611c41565b60026111a19190611db1565b845f1c6111ae9190611c41565b5f1b905080836002846111c19190611c41565b815181106111d2576111d1611dfb565b5b60200101907effffffffffffffffffffffffffffffffffffffffffffffffffffffffffffff191690815f1a90535050808060010191505061117e565b508092505050919050565b5f604051905090565b5f80fd5b5f80fd5b5f73ffffffffffffffffffffffffffffffffffffffff82169050919050565b5f6112538261122a565b9050919050565b61126381611249565b811461126d575f80fd5b50565b5f8135905061127e8161125a565b92915050565b5f80fd5b5f80fd5b5f601f19601f8301169050919050565b7f4e487b71000000000000000000000000000000000000000000000000000000005f52604160045260245ffd5b6112d28261128c565b810181811067ffffffffffffffff821117156112f1576112f061129c565b5b80604052505050565b5f611303611219565b905061130f82826112c9565b919050565b5f67ffffffffffffffff82111561132e5761132d61129c565b5b6113378261128c565b9050602081019050919050565b828183375f83830152505050565b5f61136461135f84611314565b6112fa565b9050828152602081018484840111156113805761137f611288565b5b61138b848285611344565b509392505050565b5f82601f8301126113a7576113a6611284565b5b81356113b7848260208601611352565b91505092915050565b5f80604083850312156113d6576113d5611222565b5b5f6113e385828601611270565b925050602083013567ffffffffffffffff81111561140457611403611226565b5b61141085828601611393565b9150509250929050565b5f805f805f805f60e0888a03121561143557611434611222565b5b5f6114428a828b01611270565b975050602088013567ffffffffffffffff81111561146357611462611226565b5b61146f8a828b01611393565b965050604088013567ffffffffffffffff8111156114905761148f611226565b5b61149c8a828b01611393565b955050606088013567ffffffffffffffff8111156114bd576114bc611226565b5b6114c98a828b01611393565b945050608088013567ffffffffffffffff8111156114ea576114e9611226565b5b6114f68a828b01611393565b93505060a088013567ffffffffffffffff81111561151757611516611226565b5b6115238a828b01611393565b92505060c088013567ffffffffffffffff81111561154457611543611226565b5b6115508a828b01611393565b91505092959891949750929550565b5f6020828403121561157457611573611222565b5b5f61158184828501611270565b91505092915050565b5f81519050919050565b5f82825260208201905092915050565b5f5b838110156115c15780820151818401526020810190506115a6565b5f8484015250505050565b5f6115d68261158a565b6115e08185611594565b93506115f08185602086016115a4565b6115f98161128c565b840191505092915050565b5f6020820190508181035f83015261161c81846115cc565b905092915050565b5f806040838503121561163a57611639611222565b5b5f83013567ffffffffffffffff81111561165757611656611226565b5b61166385828601611393565b925050602083013567ffffffffffffffff81111561168457611683611226565b5b61169085828601611393565b9150509250929050565b6116a381611249565b82525050565b5f60c0820190506116bc5f83018961169a565b81810360208301526116ce81886115cc565b905081810360408301526116e281876115cc565b905081810360608301526116f681866115cc565b9050818103608083015261170a81856115cc565b905081810360a083015261171e81846115cc565b9050979650505050505050565b5f602082840312156117405761173f611222565b5b5f82013567ffffffffffffffff81111561175d5761175c611226565b5b61176984828501611393565b91505092915050565b7f4e487b71000000000000000000000000000000000000000000000000000000005f52602260045260245ffd5b5f60028204905060018216806117b657607f821691505b6020821081036117c9576117c8611772565b5b50919050565b5f819050815f5260205f209050919050565b5f6020601f8301049050919050565b5f82821b905092915050565b5f6008830261182b7fffffffffffffffffffffffffffffffffffffffffffffffffffffffffffffffff826117f0565b61183586836117f0565b95508019841693508086168417925050509392505050565b5f819050919050565b5f819050919050565b5f61187961187461186f8461184d565b611856565b61184d565b9050919050565b5f819050919050565b6118928361185f565b6118a661189e82611880565b8484546117fc565b825550505050565b5f90565b6118ba6118ae565b6118c5818484611889565b505050565b5b818110156118e8576118dd5f826118b2565b6001810190506118cb565b5050565b601f82111561192d576118fe816117cf565b611907846117e1565b81016020851015611916578190505b61192a611922856117e1565b8301826118ca565b50505b505050565b5f82821c905092915050565b5f61194d5f1984600802611932565b1980831691505092915050565b5f611965838361193e565b9150826002028217905092915050565b61197e8261158a565b67ffffffffffffffff8111156119975761199661129c565b5b6119a1825461179f565b6119ac8282856118ec565b5f60209050601f8311600181146119dd575f84156119cb578287015190505b6119d5858261195a565b865550611a3c565b601f1984166119eb866117cf565b5f5b82811015611a12578489015182556001820191506020850194506020810190506119ed565b86831015611a2f5784890151611a2b601f89168261193e565b8355505b6001600288020188555050505b505050505050565b5f8115159050919050565b611a5881611a44565b82525050565b5f6040820190508181035f830152611a7681856115cc565b9050611a856020830184611a4f565b9392505050565b7f5573657220616c726561647920657869737473000000000000000000000000005f82015250565b5f611ac0601383611594565b9150611acb82611a8c565b602082019050919050565b5f6020820190508181035f830152611aed81611ab4565b9050919050565b5f81905092915050565b5f611b088261158a565b611b128185611af4565b9350611b228185602086016115a4565b80840191505092915050565b5f611b398284611afe565b915081905092915050565b7f50726976617465206b657920616c726561647920696e207573650000000000005f82015250565b5f611b78601a83611594565b9150611b8382611b44565b602082019050919050565b5f6020820190508181035f830152611ba581611b6c565b9050919050565b7f50726976617465206b657920616c7265616479206d61707065640000000000005f82015250565b5f611be0601a83611594565b9150611beb82611bac565b602082019050919050565b5f6020820190508181035f830152611c0d81611bd4565b9050919050565b7f4e487b71000000000000000000000000000000000000000000000000000000005f52601160045260245ffd5b5f611c4b8261184d565b9150611c568361184d565b9250828202611c648161184d565b91508282048414831517611c7b57611c7a611c14565b5b5092915050565b5f8160011c9050919050565b5f808291508390505b6001851115611cd757808604811115611cb357611cb2611c14565b5b6001851615611cc25780820291505b8081029050611cd085611c82565b9450611c97565b94509492505050565b5f82611cef5760019050611daa565b81611cfc575f9050611daa565b8160018114611d125760028114611d1c57611d4b565b6001915050611daa565b60ff841115611d2e57611d2d611c14565b5b8360020a915084821115611d4557611d44611c14565b5b50611daa565b5060208310610133831016604e8410600b8410161715611d805782820a905083811115611d7b57611d7a611c14565b5b611daa565b611d8d8484846001611c8e565b92509050818404811115611da457611da3611c14565b5b81810290505b9392505050565b5f611dbb8261184d565b9150611dc68361184d565b9250611df37fffffffffffffffffffffffffffffffffffffffffffffffffffffffffffffffff8484611ce0565b905092915050565b7f4e487b71000000000000000000000000000000000000000000000000000000005f52603260045260245ffdfea2646970667358221220fd6e3fe2e84304e6bd050a573b288c52de751cecad971afd9579b404373e6cb264736f6c63430008160033",
					"opcodes": "PUSH1 0x80 PUSH1 0x40 MSTORE CALLVALUE DUP1 ISZERO PUSH2 0xF JUMPI PUSH0 DUP1 REVERT JUMPDEST POP PUSH2 0x1E5E DUP1 PUSH2 0x1D PUSH0 CODECOPY PUSH0 RETURN INVALID PUSH1 0x80 PUSH1 0x40 MSTORE CALLVALUE DUP1 ISZERO PUSH2 0xF JUMPI PUSH0 DUP1 REVERT JUMPDEST POP PUSH1 0x4 CALLDATASIZE LT PUSH2 0xE8 JUMPI PUSH0 CALLDATALOAD PUSH1 0xE0 SHR DUP1 PUSH4 0x5A7FB9D7 GT PUSH2 0x8A JUMPI DUP1 PUSH4 0xA87430BA GT PUSH2 0x64 JUMPI DUP1 PUSH4 0xA87430BA EQ PUSH2 0x240 JUMPI DUP1 PUSH4 0xBF501844 EQ PUSH2 0x275 JUMPI DUP1 PUSH4 0xED1A998D EQ PUSH2 0x2A5 JUMPI DUP1 PUSH4 0xFB73BC64 EQ PUSH2 0x2D5 JUMPI PUSH2 0xE8 JUMP JUMPDEST DUP1 PUSH4 0x5A7FB9D7 EQ PUSH2 0x1D8 JUMPI DUP1 PUSH4 0x91382B57 EQ PUSH2 0x1F4 JUMPI DUP1 PUSH4 0xA7CA9615 EQ PUSH2 0x210 JUMPI PUSH2 0xE8 JUMP JUMPDEST DUP1 PUSH4 0x2B946252 GT PUSH2 0xC6 JUMPI DUP1 PUSH4 0x2B946252 EQ PUSH2 0x140 JUMPI DUP1 PUSH4 0x5110063B EQ PUSH2 0x15C JUMPI DUP1 PUSH4 0x51DAD8AE EQ PUSH2 0x178 JUMPI DUP1 PUSH4 0x56ABB5D9 EQ PUSH2 0x1A8 JUMPI PUSH2 0xE8 JUMP JUMPDEST DUP1 PUSH4 0x22E9066 EQ PUSH2 0xEC JUMPI DUP1 PUSH4 0xEA5E419 EQ PUSH2 0x108 JUMPI DUP1 PUSH4 0x26E0AD03 EQ PUSH2 0x124 JUMPI JUMPDEST PUSH0 DUP1 REVERT JUMPDEST PUSH2 0x106 PUSH1 0x4 DUP1 CALLDATASIZE SUB DUP2 ADD SWAP1 PUSH2 0x101 SWAP2 SWAP1 PUSH2 0x13C0 JUMP JUMPDEST PUSH2 0x305 JUMP JUMPDEST STOP JUMPDEST PUSH2 0x122 PUSH1 0x4 DUP1 CALLDATASIZE SUB DUP2 ADD SWAP1 PUSH2 0x11D SWAP2 SWAP1 PUSH2 0x13C0 JUMP JUMPDEST PUSH2 0x3A7 JUMP JUMPDEST STOP JUMPDEST PUSH2 0x13E PUSH1 0x4 DUP1 CALLDATASIZE SUB DUP2 ADD SWAP1 PUSH2 0x139 SWAP2 SWAP1 PUSH2 0x13C0 JUMP JUMPDEST PUSH2 0x449 JUMP JUMPDEST STOP JUMPDEST PUSH2 0x15A PUSH1 0x4 DUP1 CALLDATASIZE SUB DUP2 ADD SWAP1 PUSH2 0x155 SWAP2 SWAP1 PUSH2 0x141A JUMP JUMPDEST PUSH2 0x4EB JUMP JUMPDEST STOP JUMPDEST PUSH2 0x176 PUSH1 0x4 DUP1 CALLDATASIZE SUB DUP2 ADD SWAP1 PUSH2 0x171 SWAP2 SWAP1 PUSH2 0x13C0 JUMP JUMPDEST PUSH2 0x77B JUMP JUMPDEST STOP JUMPDEST PUSH2 0x192 PUSH1 0x4 DUP1 CALLDATASIZE SUB DUP2 ADD SWAP1 PUSH2 0x18D SWAP2 SWAP1 PUSH2 0x155F JUMP JUMPDEST PUSH2 0x81D JUMP JUMPDEST PUSH1 0x40 MLOAD PUSH2 0x19F SWAP2 SWAP1 PUSH2 0x1604 JUMP JUMPDEST PUSH1 0x40 MLOAD DUP1 SWAP2 SUB SWAP1 RETURN JUMPDEST PUSH2 0x1C2 PUSH1 0x4 DUP1 CALLDATASIZE SUB DUP2 ADD SWAP1 PUSH2 0x1BD SWAP2 SWAP1 PUSH2 0x155F JUMP JUMPDEST PUSH2 0x8EC JUMP JUMPDEST PUSH1 0x40 MLOAD PUSH2 0x1CF SWAP2 SWAP1 PUSH2 0x1604 JUMP JUMPDEST PUSH1 0x40 MLOAD DUP1 SWAP2 SUB SWAP1 RETURN JUMPDEST PUSH2 0x1F2 PUSH1 0x4 DUP1 CALLDATASIZE SUB DUP2 ADD SWAP1 PUSH2 0x1ED SWAP2 SWAP1 PUSH2 0x1624 JUMP JUMPDEST PUSH2 0x9BB JUMP JUMPDEST STOP JUMPDEST PUSH2 0x20E PUSH1 0x4 DUP1 CALLDATASIZE SUB DUP2 ADD SWAP1 PUSH2 0x209 SWAP2 SWAP1 PUSH2 0x13C0 JUMP JUMPDEST PUSH2 0xA57 JUMP JUMPDEST STOP JUMPDEST PUSH2 0x22A PUSH1 0x4 DUP1 CALLDATASIZE SUB DUP2 ADD SWAP1 PUSH2 0x225 SWAP2 SWAP1 PUSH2 0x155F JUMP JUMPDEST PUSH2 0xAF9 JUMP JUMPDEST PUSH1 0x40 MLOAD PUSH2 0x237 SWAP2 SWAP1 PUSH2 0x1604 JUMP JUMPDEST PUSH1 0x40 MLOAD DUP1 SWAP2 SUB SWAP1 RETURN JUMPDEST PUSH2 0x25A PUSH1 0x4 DUP1 CALLDATASIZE SUB DUP2 ADD SWAP1 PUSH2 0x255 SWAP2 SWAP1 PUSH2 0x155F JUMP JUMPDEST PUSH2 0xBC8 JUMP JUMPDEST PUSH1 0x40 MLOAD PUSH2 0x26C SWAP7 SWAP6 SWAP5 SWAP4 SWAP3 SWAP2 SWAP1 PUSH2 0x16A9 JUMP JUMPDEST PUSH1 0x40 MLOAD DUP1 SWAP2 SUB SWAP1 RETURN JUMPDEST PUSH2 0x28F PUSH1 0x4 DUP1 CALLDATASIZE SUB DUP2 ADD SWAP1 PUSH2 0x28A SWAP2 SWAP1 PUSH2 0x172B JUMP JUMPDEST PUSH2 0xEBC JUMP JUMPDEST PUSH1 0x40 MLOAD PUSH2 0x29C SWAP2 SWAP1 PUSH2 0x1604 JUMP JUMPDEST PUSH1 0x40 MLOAD DUP1 SWAP2 SUB SWAP1 RETURN JUMPDEST PUSH2 0x2BF PUSH1 0x4 DUP1 CALLDATASIZE SUB DUP2 ADD SWAP1 PUSH2 0x2BA SWAP2 SWAP1 PUSH2 0x155F JUMP JUMPDEST PUSH2 0xF6F JUMP JUMPDEST PUSH1 0x40 MLOAD PUSH2 0x2CC SWAP2 SWAP1 PUSH2 0x1604 JUMP JUMPDEST PUSH1 0x40 MLOAD DUP1 SWAP2 SUB SWAP1 RETURN JUMPDEST PUSH2 0x2EF PUSH1 0x4 DUP1 CALLDATASIZE SUB DUP2 ADD SWAP1 PUSH2 0x2EA SWAP2 SWAP1 PUSH2 0x155F JUMP JUMPDEST PUSH2 0x103E JUMP JUMPDEST PUSH1 0x40 MLOAD PUSH2 0x2FC SWAP2 SWAP1 PUSH2 0x1604 JUMP JUMPDEST PUSH1 0x40 MLOAD DUP1 SWAP2 SUB SWAP1 RETURN JUMPDEST DUP1 PUSH0 DUP1 DUP5 PUSH20 0xFFFFFFFFFFFFFFFFFFFFFFFFFFFFFFFFFFFFFFFF AND PUSH20 0xFFFFFFFFFFFFFFFFFFFFFFFFFFFFFFFFFFFFFFFF AND DUP2 MSTORE PUSH1 0x20 ADD SWAP1 DUP2 MSTORE PUSH1 0x20 ADD PUSH0 KECCAK256 PUSH1 0x5 ADD SWAP1 DUP2 PUSH2 0x351 SWAP2 SWAP1 PUSH2 0x1975 JUMP JUMPDEST POP DUP2 PUSH20 0xFFFFFFFFFFFFFFFFFFFFFFFFFFFFFFFFFFFFFFFF AND PUSH32 0xF5465BF5342A4F1925A69B8034C58851A693A41D6687EFD81D7519A92239058F DUP3 PUSH1 0x1 PUSH1 0x40 MLOAD PUSH2 0x39B SWAP3 SWAP2 SWAP1 PUSH2 0x1A5E JUMP JUMPDEST PUSH1 0x40 MLOAD DUP1 SWAP2 SUB SWAP1 LOG2 POP POP JUMP JUMPDEST DUP1 PUSH0 DUP1 DUP5 PUSH20 0xFFFFFFFFFFFFFFFFFFFFFFFFFFFFFFFFFFFFFFFF AND PUSH20 0xFFFFFFFFFFFFFFFFFFFFFFFFFFFFFFFFFFFFFFFF AND DUP2 MSTORE PUSH1 0x20 ADD SWAP1 DUP2 MSTORE PUSH1 0x20 ADD PUSH0 KECCAK256 PUSH1 0x1 ADD SWAP1 DUP2 PUSH2 0x3F3 SWAP2 SWAP1 PUSH2 0x1975 JUMP JUMPDEST POP DUP2 PUSH20 0xFFFFFFFFFFFFFFFFFFFFFFFFFFFFFFFFFFFFFFFF AND PUSH32 0xB18109D56DE47F8F3FB67EF94C48B15B5BB4A6FDDE6DCAC27A00857B71665093 DUP3 PUSH1 0x1 PUSH1 0x40 MLOAD PUSH2 0x43D SWAP3 SWAP2 SWAP1 PUSH2 0x1A5E JUMP JUMPDEST PUSH1 0x40 MLOAD DUP1 SWAP2 SUB SWAP1 LOG2 POP POP JUMP JUMPDEST DUP1 PUSH0 DUP1 DUP5 PUSH20 0xFFFFFFFFFFFFFFFFFFFFFFFFFFFFFFFFFFFFFFFF AND PUSH20 0xFFFFFFFFFFFFFFFFFFFFFFFFFFFFFFFFFFFFFFFF AND DUP2 MSTORE PUSH1 0x20 ADD SWAP1 DUP2 MSTORE PUSH1 0x20 ADD PUSH0 KECCAK256 PUSH1 0x3 ADD SWAP1 DUP2 PUSH2 0x495 SWAP2 SWAP1 PUSH2 0x1975 JUMP JUMPDEST POP DUP2 PUSH20 0xFFFFFFFFFFFFFFFFFFFFFFFFFFFFFFFFFFFFFFFF AND PUSH32 0x11367DAD338E86B55574E55DBAD877633C889D17456C7FB3AE4EA1A89C18CF23 DUP3 PUSH1 0x1 PUSH1 0x40 MLOAD PUSH2 0x4DF SWAP3 SWAP2 SWAP1 PUSH2 0x1A5E JUMP JUMPDEST PUSH1 0x40 MLOAD DUP1 SWAP2 SUB SWAP1 LOG2 POP POP JUMP JUMPDEST PUSH0 PUSH20 0xFFFFFFFFFFFFFFFFFFFFFFFFFFFFFFFFFFFFFFFF AND PUSH0 DUP1 DUP10 PUSH20 0xFFFFFFFFFFFFFFFFFFFFFFFFFFFFFFFFFFFFFFFF AND PUSH20 0xFFFFFFFFFFFFFFFFFFFFFFFFFFFFFFFFFFFFFFFF AND DUP2 MSTORE PUSH1 0x20 ADD SWAP1 DUP2 MSTORE PUSH1 0x20 ADD PUSH0 KECCAK256 PUSH0 ADD PUSH0 SWAP1 SLOAD SWAP1 PUSH2 0x100 EXP SWAP1 DIV PUSH20 0xFFFFFFFFFFFFFFFFFFFFFFFFFFFFFFFFFFFFFFFF AND PUSH20 0xFFFFFFFFFFFFFFFFFFFFFFFFFFFFFFFFFFFFFFFF AND EQ PUSH2 0x5B6 JUMPI PUSH1 0x40 MLOAD PUSH32 0x8C379A000000000000000000000000000000000000000000000000000000000 DUP2 MSTORE PUSH1 0x4 ADD PUSH2 0x5AD SWAP1 PUSH2 0x1AD6 JUMP JUMPDEST PUSH1 0x40 MLOAD DUP1 SWAP2 SUB SWAP1 REVERT JUMPDEST PUSH0 PUSH1 0x1 DUP3 PUSH1 0x40 MLOAD PUSH2 0x5C7 SWAP2 SWAP1 PUSH2 0x1B2E JUMP JUMPDEST SWAP1 DUP2 MSTORE PUSH1 0x20 ADD PUSH1 0x40 MLOAD DUP1 SWAP2 SUB SWAP1 KECCAK256 DUP1 SLOAD PUSH2 0x5E0 SWAP1 PUSH2 0x179F JUMP JUMPDEST SWAP1 POP EQ PUSH2 0x622 JUMPI PUSH1 0x40 MLOAD PUSH32 0x8C379A000000000000000000000000000000000000000000000000000000000 DUP2 MSTORE PUSH1 0x4 ADD PUSH2 0x619 SWAP1 PUSH2 0x1B8E JUMP JUMPDEST PUSH1 0x40 MLOAD DUP1 SWAP2 SUB SWAP1 REVERT JUMPDEST PUSH0 PUSH1 0x40 MLOAD DUP1 PUSH1 0xC0 ADD PUSH1 0x40 MSTORE DUP1 DUP10 PUSH20 0xFFFFFFFFFFFFFFFFFFFFFFFFFFFFFFFFFFFFFFFF AND DUP2 MSTORE PUSH1 0x20 ADD DUP9 DUP2 MSTORE PUSH1 0x20 ADD DUP8 DUP2 MSTORE PUSH1 0x20 ADD DUP7 DUP2 MSTORE PUSH1 0x20 ADD DUP6 DUP2 MSTORE PUSH1 0x20 ADD DUP5 DUP2 MSTORE POP SWAP1 POP DUP1 PUSH0 DUP1 DUP11 PUSH20 0xFFFFFFFFFFFFFFFFFFFFFFFFFFFFFFFFFFFFFFFF AND PUSH20 0xFFFFFFFFFFFFFFFFFFFFFFFFFFFFFFFFFFFFFFFF AND DUP2 MSTORE PUSH1 0x20 ADD SWAP1 DUP2 MSTORE PUSH1 0x20 ADD PUSH0 KECCAK256 PUSH0 DUP3 ADD MLOAD DUP2 PUSH0 ADD PUSH0 PUSH2 0x100 EXP DUP2 SLOAD DUP2 PUSH20 0xFFFFFFFFFFFFFFFFFFFFFFFFFFFFFFFFFFFFFFFF MUL NOT AND SWAP1 DUP4 PUSH20 0xFFFFFFFFFFFFFFFFFFFFFFFFFFFFFFFFFFFFFFFF AND MUL OR SWAP1 SSTORE POP PUSH1 0x20 DUP3 ADD MLOAD DUP2 PUSH1 0x1 ADD SWAP1 DUP2 PUSH2 0x6FE SWAP2 SWAP1 PUSH2 0x1975 JUMP JUMPDEST POP PUSH1 0x40 DUP3 ADD MLOAD DUP2 PUSH1 0x2 ADD SWAP1 DUP2 PUSH2 0x714 SWAP2 SWAP1 PUSH2 0x1975 JUMP JUMPDEST POP PUSH1 0x60 DUP3 ADD MLOAD DUP2 PUSH1 0x3 ADD SWAP1 DUP2 PUSH2 0x72A SWAP2 SWAP1 PUSH2 0x1975 JUMP JUMPDEST POP PUSH1 0x80 DUP3 ADD MLOAD DUP2 PUSH1 0x4 ADD SWAP1 DUP2 PUSH2 0x740 SWAP2 SWAP1 PUSH2 0x1975 JUMP JUMPDEST POP PUSH1 0xA0 DUP3 ADD MLOAD DUP2 PUSH1 0x5 ADD SWAP1 DUP2 PUSH2 0x756 SWAP2 SWAP1 PUSH2 0x1975 JUMP JUMPDEST POP SWAP1 POP POP PUSH0 PUSH2 0x764 DUP10 PUSH2 0x110D JUMP JUMPDEST SWAP1 POP PUSH2 0x770 DUP4 DUP3 PUSH2 0x9BB JUMP JUMPDEST POP POP POP POP POP POP POP POP POP JUMP JUMPDEST DUP1 PUSH0 DUP1 DUP5 PUSH20 0xFFFFFFFFFFFFFFFFFFFFFFFFFFFFFFFFFFFFFFFF AND PUSH20 0xFFFFFFFFFFFFFFFFFFFFFFFFFFFFFFFFFFFFFFFF AND DUP2 MSTORE PUSH1 0x20 ADD SWAP1 DUP2 MSTORE PUSH1 0x20 ADD PUSH0 KECCAK256 PUSH1 0x2 ADD SWAP1 DUP2 PUSH2 0x7C7 SWAP2 SWAP1 PUSH2 0x1975 JUMP JUMPDEST POP DUP2 PUSH20 0xFFFFFFFFFFFFFFFFFFFFFFFFFFFFFFFFFFFFFFFF AND PUSH32 0x476ADD05A5729FA7AC341833A53B4E6BAFA9FCE7E320778009A503C27ACB9740 DUP3 PUSH1 0x1 PUSH1 0x40 MLOAD PUSH2 0x811 SWAP3 SWAP2 SWAP1 PUSH2 0x1A5E JUMP JUMPDEST PUSH1 0x40 MLOAD DUP1 SWAP2 SUB SWAP1 LOG2 POP POP JUMP JUMPDEST PUSH1 0x60 PUSH0 DUP1 DUP4 PUSH20 0xFFFFFFFFFFFFFFFFFFFFFFFFFFFFFFFFFFFFFFFF AND PUSH20 0xFFFFFFFFFFFFFFFFFFFFFFFFFFFFFFFFFFFFFFFF AND DUP2 MSTORE PUSH1 0x20 ADD SWAP1 DUP2 MSTORE PUSH1 0x20 ADD PUSH0 KECCAK256 PUSH1 0x5 ADD DUP1 SLOAD PUSH2 0x869 SWAP1 PUSH2 0x179F JUMP JUMPDEST DUP1 PUSH1 0x1F ADD PUSH1 0x20 DUP1 SWAP2 DIV MUL PUSH1 0x20 ADD PUSH1 0x40 MLOAD SWAP1 DUP2 ADD PUSH1 0x40 MSTORE DUP1 SWAP3 SWAP2 SWAP1 DUP2 DUP2 MSTORE PUSH1 0x20 ADD DUP3 DUP1 SLOAD PUSH2 0x895 SWAP1 PUSH2 0x179F JUMP JUMPDEST DUP1 ISZERO PUSH2 0x8E0 JUMPI DUP1 PUSH1 0x1F LT PUSH2 0x8B7 JUMPI PUSH2 0x100 DUP1 DUP4 SLOAD DIV MUL DUP4 MSTORE SWAP2 PUSH1 0x20 ADD SWAP2 PUSH2 0x8E0 JUMP JUMPDEST DUP3 ADD SWAP2 SWAP1 PUSH0 MSTORE PUSH1 0x20 PUSH0 KECCAK256 SWAP1 JUMPDEST DUP2 SLOAD DUP2 MSTORE SWAP1 PUSH1 0x1 ADD SWAP1 PUSH1 0x20 ADD DUP1 DUP4 GT PUSH2 0x8C3 JUMPI DUP3 SWAP1 SUB PUSH1 0x1F AND DUP3 ADD SWAP2 JUMPDEST POP POP POP POP POP SWAP1 POP SWAP2 SWAP1 POP JUMP JUMPDEST PUSH1 0x60 PUSH0 DUP1 DUP4 PUSH20 0xFFFFFFFFFFFFFFFFFFFFFFFFFFFFFFFFFFFFFFFF AND PUSH20 0xFFFFFFFFFFFFFFFFFFFFFFFFFFFFFFFFFFFFFFFF AND DUP2 MSTORE PUSH1 0x20 ADD SWAP1 DUP2 MSTORE PUSH1 0x20 ADD PUSH0 KECCAK256 PUSH1 0x3 ADD DUP1 SLOAD PUSH2 0x938 SWAP1 PUSH2 0x179F JUMP JUMPDEST DUP1 PUSH1 0x1F ADD PUSH1 0x20 DUP1 SWAP2 DIV MUL PUSH1 0x20 ADD PUSH1 0x40 MLOAD SWAP1 DUP2 ADD PUSH1 0x40 MSTORE DUP1 SWAP3 SWAP2 SWAP1 DUP2 DUP2 MSTORE PUSH1 0x20 ADD DUP3 DUP1 SLOAD PUSH2 0x964 SWAP1 PUSH2 0x179F JUMP JUMPDEST DUP1 ISZERO PUSH2 0x9AF JUMPI DUP1 PUSH1 0x1F LT PUSH2 0x986 JUMPI PUSH2 0x100 DUP1 DUP4 SLOAD DIV MUL DUP4 MSTORE SWAP2 PUSH1 0x20 ADD SWAP2 PUSH2 0x9AF JUMP JUMPDEST DUP3 ADD SWAP2 SWAP1 PUSH0 MSTORE PUSH1 0x20 PUSH0 KECCAK256 SWAP1 JUMPDEST DUP2 SLOAD DUP2 MSTORE SWAP1 PUSH1 0x1 ADD SWAP1 PUSH1 0x20 ADD DUP1 DUP4 GT PUSH2 0x992 JUMPI DUP3 SWAP1 SUB PUSH1 0x1F AND DUP3 ADD SWAP2 JUMPDEST POP POP POP POP POP SWAP1 POP SWAP2 SWAP1 POP JUMP JUMPDEST PUSH0 PUSH1 0x1 DUP4 PUSH1 0x40 MLOAD PUSH2 0x9CC SWAP2 SWAP1 PUSH2 0x1B2E JUMP JUMPDEST SWAP1 DUP2 MSTORE PUSH1 0x20 ADD PUSH1 0x40 MLOAD DUP1 SWAP2 SUB SWAP1 KECCAK256 DUP1 SLOAD PUSH2 0x9E5 SWAP1 PUSH2 0x179F JUMP JUMPDEST SWAP1 POP EQ PUSH2 0xA27 JUMPI PUSH1 0x40 MLOAD PUSH32 0x8C379A000000000000000000000000000000000000000000000000000000000 DUP2 MSTORE PUSH1 0x4 ADD PUSH2 0xA1E SWAP1 PUSH2 0x1BF6 JUMP JUMPDEST PUSH1 0x40 MLOAD DUP1 SWAP2 SUB SWAP1 REVERT JUMPDEST DUP1 PUSH1 0x1 DUP4 PUSH1 0x40 MLOAD PUSH2 0xA38 SWAP2 SWAP1 PUSH2 0x1B2E JUMP JUMPDEST SWAP1 DUP2 MSTORE PUSH1 0x20 ADD PUSH1 0x40 MLOAD DUP1 SWAP2 SUB SWAP1 KECCAK256 SWAP1 DUP2 PUSH2 0xA52 SWAP2 SWAP1 PUSH2 0x1975 JUMP JUMPDEST POP POP POP JUMP JUMPDEST DUP1 PUSH0 DUP1 DUP5 PUSH20 0xFFFFFFFFFFFFFFFFFFFFFFFFFFFFFFFFFFFFFFFF AND PUSH20 0xFFFFFFFFFFFFFFFFFFFFFFFFFFFFFFFFFFFFFFFF AND DUP2 MSTORE PUSH1 0x20 ADD SWAP1 DUP2 MSTORE PUSH1 0x20 ADD PUSH0 KECCAK256 PUSH1 0x4 ADD SWAP1 DUP2 PUSH2 0xAA3 SWAP2 SWAP1 PUSH2 0x1975 JUMP JUMPDEST POP DUP2 PUSH20 0xFFFFFFFFFFFFFFFFFFFFFFFFFFFFFFFFFFFFFFFF AND PUSH32 0xFE7DE045050B107EAC8E27CB35D4D684535C55B2F8E008C4D8771A771F789B08 DUP3 PUSH1 0x1 PUSH1 0x40 MLOAD PUSH2 0xAED SWAP3 SWAP2 SWAP1 PUSH2 0x1A5E JUMP JUMPDEST PUSH1 0x40 MLOAD DUP1 SWAP2 SUB SWAP1 LOG2 POP POP JUMP JUMPDEST PUSH1 0x60 PUSH0 DUP1 DUP4 PUSH20 0xFFFFFFFFFFFFFFFFFFFFFFFFFFFFFFFFFFFFFFFF AND PUSH20 0xFFFFFFFFFFFFFFFFFFFFFFFFFFFFFFFFFFFFFFFF AND DUP2 MSTORE PUSH1 0x20 ADD SWAP1 DUP2 MSTORE PUSH1 0x20 ADD PUSH0 KECCAK256 PUSH1 0x4 ADD DUP1 SLOAD PUSH2 0xB45 SWAP1 PUSH2 0x179F JUMP JUMPDEST DUP1 PUSH1 0x1F ADD PUSH1 0x20 DUP1 SWAP2 DIV MUL PUSH1 0x20 ADD PUSH1 0x40 MLOAD SWAP1 DUP2 ADD PUSH1 0x40 MSTORE DUP1 SWAP3 SWAP2 SWAP1 DUP2 DUP2 MSTORE PUSH1 0x20 ADD DUP3 DUP1 SLOAD PUSH2 0xB71 SWAP1 PUSH2 0x179F JUMP JUMPDEST DUP1 ISZERO PUSH2 0xBBC JUMPI DUP1 PUSH1 0x1F LT PUSH2 0xB93 JUMPI PUSH2 0x100 DUP1 DUP4 SLOAD DIV MUL DUP4 MSTORE SWAP2 PUSH1 0x20 ADD SWAP2 PUSH2 0xBBC JUMP JUMPDEST DUP3 ADD SWAP2 SWAP1 PUSH0 MSTORE PUSH1 0x20 PUSH0 KECCAK256 SWAP1 JUMPDEST DUP2 SLOAD DUP2 MSTORE SWAP1 PUSH1 0x1 ADD SWAP1 PUSH1 0x20 ADD DUP1 DUP4 GT PUSH2 0xB9F JUMPI DUP3 SWAP1 SUB PUSH1 0x1F AND DUP3 ADD SWAP2 JUMPDEST POP POP POP POP POP SWAP1 POP SWAP2 SWAP1 POP JUMP JUMPDEST PUSH0 PUSH1 0x20 MSTORE DUP1 PUSH0 MSTORE PUSH1 0x40 PUSH0 KECCAK256 PUSH0 SWAP2 POP SWAP1 POP DUP1 PUSH0 ADD PUSH0 SWAP1 SLOAD SWAP1 PUSH2 0x100 EXP SWAP1 DIV PUSH20 0xFFFFFFFFFFFFFFFFFFFFFFFFFFFFFFFFFFFFFFFF AND SWAP1 DUP1 PUSH1 0x1 ADD DUP1 SLOAD PUSH2 0xC0B SWAP1 PUSH2 0x179F JUMP JUMPDEST DUP1 PUSH1 0x1F ADD PUSH1 0x20 DUP1 SWAP2 DIV MUL PUSH1 0x20 ADD PUSH1 0x40 MLOAD SWAP1 DUP2 ADD PUSH1 0x40 MSTORE DUP1 SWAP3 SWAP2 SWAP1 DUP2 DUP2 MSTORE PUSH1 0x20 ADD DUP3 DUP1 SLOAD PUSH2 0xC37 SWAP1 PUSH2 0x179F JUMP JUMPDEST DUP1 ISZERO PUSH2 0xC82 JUMPI DUP1 PUSH1 0x1F LT PUSH2 0xC59 JUMPI PUSH2 0x100 DUP1 DUP4 SLOAD DIV MUL DUP4 MSTORE SWAP2 PUSH1 0x20 ADD SWAP2 PUSH2 0xC82 JUMP JUMPDEST DUP3 ADD SWAP2 SWAP1 PUSH0 MSTORE PUSH1 0x20 PUSH0 KECCAK256 SWAP1 JUMPDEST DUP2 SLOAD DUP2 MSTORE SWAP1 PUSH1 0x1 ADD SWAP1 PUSH1 0x20 ADD DUP1 DUP4 GT PUSH2 0xC65 JUMPI DUP3 SWAP1 SUB PUSH1 0x1F AND DUP3 ADD SWAP2 JUMPDEST POP POP POP POP POP SWAP1 DUP1 PUSH1 0x2 ADD DUP1 SLOAD PUSH2 0xC97 SWAP1 PUSH2 0x179F JUMP JUMPDEST DUP1 PUSH1 0x1F ADD PUSH1 0x20 DUP1 SWAP2 DIV MUL PUSH1 0x20 ADD PUSH1 0x40 MLOAD SWAP1 DUP2 ADD PUSH1 0x40 MSTORE DUP1 SWAP3 SWAP2 SWAP1 DUP2 DUP2 MSTORE PUSH1 0x20 ADD DUP3 DUP1 SLOAD PUSH2 0xCC3 SWAP1 PUSH2 0x179F JUMP JUMPDEST DUP1 ISZERO PUSH2 0xD0E JUMPI DUP1 PUSH1 0x1F LT PUSH2 0xCE5 JUMPI PUSH2 0x100 DUP1 DUP4 SLOAD DIV MUL DUP4 MSTORE SWAP2 PUSH1 0x20 ADD SWAP2 PUSH2 0xD0E JUMP JUMPDEST DUP3 ADD SWAP2 SWAP1 PUSH0 MSTORE PUSH1 0x20 PUSH0 KECCAK256 SWAP1 JUMPDEST DUP2 SLOAD DUP2 MSTORE SWAP1 PUSH1 0x1 ADD SWAP1 PUSH1 0x20 ADD DUP1 DUP4 GT PUSH2 0xCF1 JUMPI DUP3 SWAP1 SUB PUSH1 0x1F AND DUP3 ADD SWAP2 JUMPDEST POP POP POP POP POP SWAP1 DUP1 PUSH1 0x3 ADD DUP1 SLOAD PUSH2 0xD23 SWAP1 PUSH2 0x179F JUMP JUMPDEST DUP1 PUSH1 0x1F ADD PUSH1 0x20 DUP1 SWAP2 DIV MUL PUSH1 0x20 ADD PUSH1 0x40 MLOAD SWAP1 DUP2 ADD PUSH1 0x40 MSTORE DUP1 SWAP3 SWAP2 SWAP1 DUP2 DUP2 MSTORE PUSH1 0x20 ADD DUP3 DUP1 SLOAD PUSH2 0xD4F SWAP1 PUSH2 0x179F JUMP JUMPDEST DUP1 ISZERO PUSH2 0xD9A JUMPI DUP1 PUSH1 0x1F LT PUSH2 0xD71 JUMPI PUSH2 0x100 DUP1 DUP4 SLOAD DIV MUL DUP4 MSTORE SWAP2 PUSH1 0x20 ADD SWAP2 PUSH2 0xD9A JUMP JUMPDEST DUP3 ADD SWAP2 SWAP1 PUSH0 MSTORE PUSH1 0x20 PUSH0 KECCAK256 SWAP1 JUMPDEST DUP2 SLOAD DUP2 MSTORE SWAP1 PUSH1 0x1 ADD SWAP1 PUSH1 0x20 ADD DUP1 DUP4 GT PUSH2 0xD7D JUMPI DUP3 SWAP1 SUB PUSH1 0x1F AND DUP3 ADD SWAP2 JUMPDEST POP POP POP POP POP SWAP1 DUP1 PUSH1 0x4 ADD DUP1 SLOAD PUSH2 0xDAF SWAP1 PUSH2 0x179F JUMP JUMPDEST DUP1 PUSH1 0x1F ADD PUSH1 0x20 DUP1 SWAP2 DIV MUL PUSH1 0x20 ADD PUSH1 0x40 MLOAD SWAP1 DUP2 ADD PUSH1 0x40 MSTORE DUP1 SWAP3 SWAP2 SWAP1 DUP2 DUP2 MSTORE PUSH1 0x20 ADD DUP3 DUP1 SLOAD PUSH2 0xDDB SWAP1 PUSH2 0x179F JUMP JUMPDEST DUP1 ISZERO PUSH2 0xE26 JUMPI DUP1 PUSH1 0x1F LT PUSH2 0xDFD JUMPI PUSH2 0x100 DUP1 DUP4 SLOAD DIV MUL DUP4 MSTORE SWAP2 PUSH1 0x20 ADD SWAP2 PUSH2 0xE26 JUMP JUMPDEST DUP3 ADD SWAP2 SWAP1 PUSH0 MSTORE PUSH1 0x20 PUSH0 KECCAK256 SWAP1 JUMPDEST DUP2 SLOAD DUP2 MSTORE SWAP1 PUSH1 0x1 ADD SWAP1 PUSH1 0x20 ADD DUP1 DUP4 GT PUSH2 0xE09 JUMPI DUP3 SWAP1 SUB PUSH1 0x1F AND DUP3 ADD SWAP2 JUMPDEST POP POP POP POP POP SWAP1 DUP1 PUSH1 0x5 ADD DUP1 SLOAD PUSH2 0xE3B SWAP1 PUSH2 0x179F JUMP JUMPDEST DUP1 PUSH1 0x1F ADD PUSH1 0x20 DUP1 SWAP2 DIV MUL PUSH1 0x20 ADD PUSH1 0x40 MLOAD SWAP1 DUP2 ADD PUSH1 0x40 MSTORE DUP1 SWAP3 SWAP2 SWAP1 DUP2 DUP2 MSTORE PUSH1 0x20 ADD DUP3 DUP1 SLOAD PUSH2 0xE67 SWAP1 PUSH2 0x179F JUMP JUMPDEST DUP1 ISZERO PUSH2 0xEB2 JUMPI DUP1 PUSH1 0x1F LT PUSH2 0xE89 JUMPI PUSH2 0x100 DUP1 DUP4 SLOAD DIV MUL DUP4 MSTORE SWAP2 PUSH1 0x20 ADD SWAP2 PUSH2 0xEB2 JUMP JUMPDEST DUP3 ADD SWAP2 SWAP1 PUSH0 MSTORE PUSH1 0x20 PUSH0 KECCAK256 SWAP1 JUMPDEST DUP2 SLOAD DUP2 MSTORE SWAP1 PUSH1 0x1 ADD SWAP1 PUSH1 0x20 ADD DUP1 DUP4 GT PUSH2 0xE95 JUMPI DUP3 SWAP1 SUB PUSH1 0x1F AND DUP3 ADD SWAP2 JUMPDEST POP POP POP POP POP SWAP1 POP DUP7 JUMP JUMPDEST PUSH1 0x1 DUP2 DUP1 MLOAD PUSH1 0x20 DUP2 ADD DUP3 ADD DUP1 MLOAD DUP5 DUP3 MSTORE PUSH1 0x20 DUP4 ADD PUSH1 0x20 DUP6 ADD KECCAK256 DUP2 DUP4 MSTORE DUP1 SWAP6 POP POP POP POP POP POP PUSH0 SWAP2 POP SWAP1 POP DUP1 SLOAD PUSH2 0xEF0 SWAP1 PUSH2 0x179F JUMP JUMPDEST DUP1 PUSH1 0x1F ADD PUSH1 0x20 DUP1 SWAP2 DIV MUL PUSH1 0x20 ADD PUSH1 0x40 MLOAD SWAP1 DUP2 ADD PUSH1 0x40 MSTORE DUP1 SWAP3 SWAP2 SWAP1 DUP2 DUP2 MSTORE PUSH1 0x20 ADD DUP3 DUP1 SLOAD PUSH2 0xF1C SWAP1 PUSH2 0x179F JUMP JUMPDEST DUP1 ISZERO PUSH2 0xF67 JUMPI DUP1 PUSH1 0x1F LT PUSH2 0xF3E JUMPI PUSH2 0x100 DUP1 DUP4 SLOAD DIV MUL DUP4 MSTORE SWAP2 PUSH1 0x20 ADD SWAP2 PUSH2 0xF67 JUMP JUMPDEST DUP3 ADD SWAP2 SWAP1 PUSH0 MSTORE PUSH1 0x20 PUSH0 KECCAK256 SWAP1 JUMPDEST DUP2 SLOAD DUP2 MSTORE SWAP1 PUSH1 0x1 ADD SWAP1 PUSH1 0x20 ADD DUP1 DUP4 GT PUSH2 0xF4A JUMPI DUP3 SWAP1 SUB PUSH1 0x1F AND DUP3 ADD SWAP2 JUMPDEST POP POP POP POP POP DUP2 JUMP JUMPDEST PUSH1 0x60 PUSH0 DUP1 DUP4 PUSH20 0xFFFFFFFFFFFFFFFFFFFFFFFFFFFFFFFFFFFFFFFF AND PUSH20 0xFFFFFFFFFFFFFFFFFFFFFFFFFFFFFFFFFFFFFFFF AND DUP2 MSTORE PUSH1 0x20 ADD SWAP1 DUP2 MSTORE PUSH1 0x20 ADD PUSH0 KECCAK256 PUSH1 0x2 ADD DUP1 SLOAD PUSH2 0xFBB SWAP1 PUSH2 0x179F JUMP JUMPDEST DUP1 PUSH1 0x1F ADD PUSH1 0x20 DUP1 SWAP2 DIV MUL PUSH1 0x20 ADD PUSH1 0x40 MLOAD SWAP1 DUP2 ADD PUSH1 0x40 MSTORE DUP1 SWAP3 SWAP2 SWAP1 DUP2 DUP2 MSTORE PUSH1 0x20 ADD DUP3 DUP1 SLOAD PUSH2 0xFE7 SWAP1 PUSH2 0x179F JUMP JUMPDEST DUP1 ISZERO PUSH2 0x1032 JUMPI DUP1 PUSH1 0x1F LT PUSH2 0x1009 JUMPI PUSH2 0x100 DUP1 DUP4 SLOAD DIV MUL DUP4 MSTORE SWAP2 PUSH1 0x20 ADD SWAP2 PUSH2 0x1032 JUMP JUMPDEST DUP3 ADD SWAP2 SWAP1 PUSH0 MSTORE PUSH1 0x20 PUSH0 KECCAK256 SWAP1 JUMPDEST DUP2 SLOAD DUP2 MSTORE SWAP1 PUSH1 0x1 ADD SWAP1 PUSH1 0x20 ADD DUP1 DUP4 GT PUSH2 0x1015 JUMPI DUP3 SWAP1 SUB PUSH1 0x1F AND DUP3 ADD SWAP2 JUMPDEST POP POP POP POP POP SWAP1 POP SWAP2 SWAP1 POP JUMP JUMPDEST PUSH1 0x60 PUSH0 DUP1 DUP4 PUSH20 0xFFFFFFFFFFFFFFFFFFFFFFFFFFFFFFFFFFFFFFFF AND PUSH20 0xFFFFFFFFFFFFFFFFFFFFFFFFFFFFFFFFFFFFFFFF AND DUP2 MSTORE PUSH1 0x20 ADD SWAP1 DUP2 MSTORE PUSH1 0x20 ADD PUSH0 KECCAK256 PUSH1 0x1 ADD DUP1 SLOAD PUSH2 0x108A SWAP1 PUSH2 0x179F JUMP JUMPDEST DUP1 PUSH1 0x1F ADD PUSH1 0x20 DUP1 SWAP2 DIV MUL PUSH1 0x20 ADD PUSH1 0x40 MLOAD SWAP1 DUP2 ADD PUSH1 0x40 MSTORE DUP1 SWAP3 SWAP2 SWAP1 DUP2 DUP2 MSTORE PUSH1 0x20 ADD DUP3 DUP1 SLOAD PUSH2 0x10B6 SWAP1 PUSH2 0x179F JUMP JUMPDEST DUP1 ISZERO PUSH2 0x1101 JUMPI DUP1 PUSH1 0x1F LT PUSH2 0x10D8 JUMPI PUSH2 0x100 DUP1 DUP4 SLOAD DIV MUL DUP4 MSTORE SWAP2 PUSH1 0x20 ADD SWAP2 PUSH2 0x1101 JUMP JUMPDEST DUP3 ADD SWAP2 SWAP1 PUSH0 MSTORE PUSH1 0x20 PUSH0 KECCAK256 SWAP1 JUMPDEST DUP2 SLOAD DUP2 MSTORE SWAP1 PUSH1 0x1 ADD SWAP1 PUSH1 0x20 ADD DUP1 DUP4 GT PUSH2 0x10E4 JUMPI DUP3 SWAP1 SUB PUSH1 0x1F AND DUP3 ADD SWAP2 JUMPDEST POP POP POP POP POP SWAP1 POP SWAP2 SWAP1 POP JUMP JUMPDEST PUSH1 0x60 PUSH0 DUP3 PUSH20 0xFFFFFFFFFFFFFFFFFFFFFFFFFFFFFFFFFFFFFFFF AND PUSH0 SHL SWAP1 POP PUSH0 PUSH1 0x2A PUSH8 0xFFFFFFFFFFFFFFFF DUP2 GT ISZERO PUSH2 0x1147 JUMPI PUSH2 0x1146 PUSH2 0x129C JUMP JUMPDEST JUMPDEST PUSH1 0x40 MLOAD SWAP1 DUP1 DUP3 MSTORE DUP1 PUSH1 0x1F ADD PUSH1 0x1F NOT AND PUSH1 0x20 ADD DUP3 ADD PUSH1 0x40 MSTORE DUP1 ISZERO PUSH2 0x1179 JUMPI DUP2 PUSH1 0x20 ADD PUSH1 0x1 DUP3 MUL DUP1 CALLDATASIZE DUP4 CALLDATACOPY DUP1 DUP3 ADD SWAP2 POP POP SWAP1 POP JUMPDEST POP SWAP1 POP PUSH0 JUMPDEST PUSH1 0x14 DUP2 LT ISZERO PUSH2 0x120E JUMPI PUSH0 DUP2 PUSH1 0x8 PUSH2 0x1195 SWAP2 SWAP1 PUSH2 0x1C41 JUMP JUMPDEST PUSH1 0x2 PUSH2 0x11A1 SWAP2 SWAP1 PUSH2 0x1DB1 JUMP JUMPDEST DUP5 PUSH0 SHR PUSH2 0x11AE SWAP2 SWAP1 PUSH2 0x1C41 JUMP JUMPDEST PUSH0 SHL SWAP1 POP DUP1 DUP4 PUSH1 0x2 DUP5 PUSH2 0x11C1 SWAP2 SWAP1 PUSH2 0x1C41 JUMP JUMPDEST DUP2 MLOAD DUP2 LT PUSH2 0x11D2 JUMPI PUSH2 0x11D1 PUSH2 0x1DFB JUMP JUMPDEST JUMPDEST PUSH1 0x20 ADD ADD SWAP1 PUSH31 0xFFFFFFFFFFFFFFFFFFFFFFFFFFFFFFFFFFFFFFFFFFFFFFFFFFFFFFFFFFFFFF NOT AND SWAP1 DUP2 PUSH0 BYTE SWAP1 MSTORE8 POP POP DUP1 DUP1 PUSH1 0x1 ADD SWAP2 POP POP PUSH2 0x117E JUMP JUMPDEST POP DUP1 SWAP3 POP POP POP SWAP2 SWAP1 POP JUMP JUMPDEST PUSH0 PUSH1 0x40 MLOAD SWAP1 POP SWAP1 JUMP JUMPDEST PUSH0 DUP1 REVERT JUMPDEST PUSH0 DUP1 REVERT JUMPDEST PUSH0 PUSH20 0xFFFFFFFFFFFFFFFFFFFFFFFFFFFFFFFFFFFFFFFF DUP3 AND SWAP1 POP SWAP2 SWAP1 POP JUMP JUMPDEST PUSH0 PUSH2 0x1253 DUP3 PUSH2 0x122A JUMP JUMPDEST SWAP1 POP SWAP2 SWAP1 POP JUMP JUMPDEST PUSH2 0x1263 DUP2 PUSH2 0x1249 JUMP JUMPDEST DUP2 EQ PUSH2 0x126D JUMPI PUSH0 DUP1 REVERT JUMPDEST POP JUMP JUMPDEST PUSH0 DUP2 CALLDATALOAD SWAP1 POP PUSH2 0x127E DUP2 PUSH2 0x125A JUMP JUMPDEST SWAP3 SWAP2 POP POP JUMP JUMPDEST PUSH0 DUP1 REVERT JUMPDEST PUSH0 DUP1 REVERT JUMPDEST PUSH0 PUSH1 0x1F NOT PUSH1 0x1F DUP4 ADD AND SWAP1 POP SWAP2 SWAP1 POP JUMP JUMPDEST PUSH32 0x4E487B7100000000000000000000000000000000000000000000000000000000 PUSH0 MSTORE PUSH1 0x41 PUSH1 0x4 MSTORE PUSH1 0x24 PUSH0 REVERT JUMPDEST PUSH2 0x12D2 DUP3 PUSH2 0x128C JUMP JUMPDEST DUP2 ADD DUP2 DUP2 LT PUSH8 0xFFFFFFFFFFFFFFFF DUP3 GT OR ISZERO PUSH2 0x12F1 JUMPI PUSH2 0x12F0 PUSH2 0x129C JUMP JUMPDEST JUMPDEST DUP1 PUSH1 0x40 MSTORE POP POP POP JUMP JUMPDEST PUSH0 PUSH2 0x1303 PUSH2 0x1219 JUMP JUMPDEST SWAP1 POP PUSH2 0x130F DUP3 DUP3 PUSH2 0x12C9 JUMP JUMPDEST SWAP2 SWAP1 POP JUMP JUMPDEST PUSH0 PUSH8 0xFFFFFFFFFFFFFFFF DUP3 GT ISZERO PUSH2 0x132E JUMPI PUSH2 0x132D PUSH2 0x129C JUMP JUMPDEST JUMPDEST PUSH2 0x1337 DUP3 PUSH2 0x128C JUMP JUMPDEST SWAP1 POP PUSH1 0x20 DUP2 ADD SWAP1 POP SWAP2 SWAP1 POP JUMP JUMPDEST DUP3 DUP2 DUP4 CALLDATACOPY PUSH0 DUP4 DUP4 ADD MSTORE POP POP POP JUMP JUMPDEST PUSH0 PUSH2 0x1364 PUSH2 0x135F DUP5 PUSH2 0x1314 JUMP JUMPDEST PUSH2 0x12FA JUMP JUMPDEST SWAP1 POP DUP3 DUP2 MSTORE PUSH1 0x20 DUP2 ADD DUP5 DUP5 DUP5 ADD GT ISZERO PUSH2 0x1380 JUMPI PUSH2 0x137F PUSH2 0x1288 JUMP JUMPDEST JUMPDEST PUSH2 0x138B DUP5 DUP3 DUP6 PUSH2 0x1344 JUMP JUMPDEST POP SWAP4 SWAP3 POP POP POP JUMP JUMPDEST PUSH0 DUP3 PUSH1 0x1F DUP4 ADD SLT PUSH2 0x13A7 JUMPI PUSH2 0x13A6 PUSH2 0x1284 JUMP JUMPDEST JUMPDEST DUP2 CALLDATALOAD PUSH2 0x13B7 DUP5 DUP3 PUSH1 0x20 DUP7 ADD PUSH2 0x1352 JUMP JUMPDEST SWAP2 POP POP SWAP3 SWAP2 POP POP JUMP JUMPDEST PUSH0 DUP1 PUSH1 0x40 DUP4 DUP6 SUB SLT ISZERO PUSH2 0x13D6 JUMPI PUSH2 0x13D5 PUSH2 0x1222 JUMP JUMPDEST JUMPDEST PUSH0 PUSH2 0x13E3 DUP6 DUP3 DUP7 ADD PUSH2 0x1270 JUMP JUMPDEST SWAP3 POP POP PUSH1 0x20 DUP4 ADD CALLDATALOAD PUSH8 0xFFFFFFFFFFFFFFFF DUP2 GT ISZERO PUSH2 0x1404 JUMPI PUSH2 0x1403 PUSH2 0x1226 JUMP JUMPDEST JUMPDEST PUSH2 0x1410 DUP6 DUP3 DUP7 ADD PUSH2 0x1393 JUMP JUMPDEST SWAP2 POP POP SWAP3 POP SWAP3 SWAP1 POP JUMP JUMPDEST PUSH0 DUP1 PUSH0 DUP1 PUSH0 DUP1 PUSH0 PUSH1 0xE0 DUP9 DUP11 SUB SLT ISZERO PUSH2 0x1435 JUMPI PUSH2 0x1434 PUSH2 0x1222 JUMP JUMPDEST JUMPDEST PUSH0 PUSH2 0x1442 DUP11 DUP3 DUP12 ADD PUSH2 0x1270 JUMP JUMPDEST SWAP8 POP POP PUSH1 0x20 DUP9 ADD CALLDATALOAD PUSH8 0xFFFFFFFFFFFFFFFF DUP2 GT ISZERO PUSH2 0x1463 JUMPI PUSH2 0x1462 PUSH2 0x1226 JUMP JUMPDEST JUMPDEST PUSH2 0x146F DUP11 DUP3 DUP12 ADD PUSH2 0x1393 JUMP JUMPDEST SWAP7 POP POP PUSH1 0x40 DUP9 ADD CALLDATALOAD PUSH8 0xFFFFFFFFFFFFFFFF DUP2 GT ISZERO PUSH2 0x1490 JUMPI PUSH2 0x148F PUSH2 0x1226 JUMP JUMPDEST JUMPDEST PUSH2 0x149C DUP11 DUP3 DUP12 ADD PUSH2 0x1393 JUMP JUMPDEST SWAP6 POP POP PUSH1 0x60 DUP9 ADD CALLDATALOAD PUSH8 0xFFFFFFFFFFFFFFFF DUP2 GT ISZERO PUSH2 0x14BD JUMPI PUSH2 0x14BC PUSH2 0x1226 JUMP JUMPDEST JUMPDEST PUSH2 0x14C9 DUP11 DUP3 DUP12 ADD PUSH2 0x1393 JUMP JUMPDEST SWAP5 POP POP PUSH1 0x80 DUP9 ADD CALLDATALOAD PUSH8 0xFFFFFFFFFFFFFFFF DUP2 GT ISZERO PUSH2 0x14EA JUMPI PUSH2 0x14E9 PUSH2 0x1226 JUMP JUMPDEST JUMPDEST PUSH2 0x14F6 DUP11 DUP3 DUP12 ADD PUSH2 0x1393 JUMP JUMPDEST SWAP4 POP POP PUSH1 0xA0 DUP9 ADD CALLDATALOAD PUSH8 0xFFFFFFFFFFFFFFFF DUP2 GT ISZERO PUSH2 0x1517 JUMPI PUSH2 0x1516 PUSH2 0x1226 JUMP JUMPDEST JUMPDEST PUSH2 0x1523 DUP11 DUP3 DUP12 ADD PUSH2 0x1393 JUMP JUMPDEST SWAP3 POP POP PUSH1 0xC0 DUP9 ADD CALLDATALOAD PUSH8 0xFFFFFFFFFFFFFFFF DUP2 GT ISZERO PUSH2 0x1544 JUMPI PUSH2 0x1543 PUSH2 0x1226 JUMP JUMPDEST JUMPDEST PUSH2 0x1550 DUP11 DUP3 DUP12 ADD PUSH2 0x1393 JUMP JUMPDEST SWAP2 POP POP SWAP3 SWAP6 SWAP9 SWAP2 SWAP5 SWAP8 POP SWAP3 SWAP6 POP JUMP JUMPDEST PUSH0 PUSH1 0x20 DUP3 DUP5 SUB SLT ISZERO PUSH2 0x1574 JUMPI PUSH2 0x1573 PUSH2 0x1222 JUMP JUMPDEST JUMPDEST PUSH0 PUSH2 0x1581 DUP5 DUP3 DUP6 ADD PUSH2 0x1270 JUMP JUMPDEST SWAP2 POP POP SWAP3 SWAP2 POP POP JUMP JUMPDEST PUSH0 DUP2 MLOAD SWAP1 POP SWAP2 SWAP1 POP JUMP JUMPDEST PUSH0 DUP3 DUP3 MSTORE PUSH1 0x20 DUP3 ADD SWAP1 POP SWAP3 SWAP2 POP POP JUMP JUMPDEST PUSH0 JUMPDEST DUP4 DUP2 LT ISZERO PUSH2 0x15C1 JUMPI DUP1 DUP3 ADD MLOAD DUP2 DUP5 ADD MSTORE PUSH1 0x20 DUP2 ADD SWAP1 POP PUSH2 0x15A6 JUMP JUMPDEST PUSH0 DUP5 DUP5 ADD MSTORE POP POP POP POP JUMP JUMPDEST PUSH0 PUSH2 0x15D6 DUP3 PUSH2 0x158A JUMP JUMPDEST PUSH2 0x15E0 DUP2 DUP6 PUSH2 0x1594 JUMP JUMPDEST SWAP4 POP PUSH2 0x15F0 DUP2 DUP6 PUSH1 0x20 DUP7 ADD PUSH2 0x15A4 JUMP JUMPDEST PUSH2 0x15F9 DUP2 PUSH2 0x128C JUMP JUMPDEST DUP5 ADD SWAP2 POP POP SWAP3 SWAP2 POP POP JUMP JUMPDEST PUSH0 PUSH1 0x20 DUP3 ADD SWAP1 POP DUP2 DUP2 SUB PUSH0 DUP4 ADD MSTORE PUSH2 0x161C DUP2 DUP5 PUSH2 0x15CC JUMP JUMPDEST SWAP1 POP SWAP3 SWAP2 POP POP JUMP JUMPDEST PUSH0 DUP1 PUSH1 0x40 DUP4 DUP6 SUB SLT ISZERO PUSH2 0x163A JUMPI PUSH2 0x1639 PUSH2 0x1222 JUMP JUMPDEST JUMPDEST PUSH0 DUP4 ADD CALLDATALOAD PUSH8 0xFFFFFFFFFFFFFFFF DUP2 GT ISZERO PUSH2 0x1657 JUMPI PUSH2 0x1656 PUSH2 0x1226 JUMP JUMPDEST JUMPDEST PUSH2 0x1663 DUP6 DUP3 DUP7 ADD PUSH2 0x1393 JUMP JUMPDEST SWAP3 POP POP PUSH1 0x20 DUP4 ADD CALLDATALOAD PUSH8 0xFFFFFFFFFFFFFFFF DUP2 GT ISZERO PUSH2 0x1684 JUMPI PUSH2 0x1683 PUSH2 0x1226 JUMP JUMPDEST JUMPDEST PUSH2 0x1690 DUP6 DUP3 DUP7 ADD PUSH2 0x1393 JUMP JUMPDEST SWAP2 POP POP SWAP3 POP SWAP3 SWAP1 POP JUMP JUMPDEST PUSH2 0x16A3 DUP2 PUSH2 0x1249 JUMP JUMPDEST DUP3 MSTORE POP POP JUMP JUMPDEST PUSH0 PUSH1 0xC0 DUP3 ADD SWAP1 POP PUSH2 0x16BC PUSH0 DUP4 ADD DUP10 PUSH2 0x169A JUMP JUMPDEST DUP2 DUP2 SUB PUSH1 0x20 DUP4 ADD MSTORE PUSH2 0x16CE DUP2 DUP9 PUSH2 0x15CC JUMP JUMPDEST SWAP1 POP DUP2 DUP2 SUB PUSH1 0x40 DUP4 ADD MSTORE PUSH2 0x16E2 DUP2 DUP8 PUSH2 0x15CC JUMP JUMPDEST SWAP1 POP DUP2 DUP2 SUB PUSH1 0x60 DUP4 ADD MSTORE PUSH2 0x16F6 DUP2 DUP7 PUSH2 0x15CC JUMP JUMPDEST SWAP1 POP DUP2 DUP2 SUB PUSH1 0x80 DUP4 ADD MSTORE PUSH2 0x170A DUP2 DUP6 PUSH2 0x15CC JUMP JUMPDEST SWAP1 POP DUP2 DUP2 SUB PUSH1 0xA0 DUP4 ADD MSTORE PUSH2 0x171E DUP2 DUP5 PUSH2 0x15CC JUMP JUMPDEST SWAP1 POP SWAP8 SWAP7 POP POP POP POP POP POP POP JUMP JUMPDEST PUSH0 PUSH1 0x20 DUP3 DUP5 SUB SLT ISZERO PUSH2 0x1740 JUMPI PUSH2 0x173F PUSH2 0x1222 JUMP JUMPDEST JUMPDEST PUSH0 DUP3 ADD CALLDATALOAD PUSH8 0xFFFFFFFFFFFFFFFF DUP2 GT ISZERO PUSH2 0x175D JUMPI PUSH2 0x175C PUSH2 0x1226 JUMP JUMPDEST JUMPDEST PUSH2 0x1769 DUP5 DUP3 DUP6 ADD PUSH2 0x1393 JUMP JUMPDEST SWAP2 POP POP SWAP3 SWAP2 POP POP JUMP JUMPDEST PUSH32 0x4E487B7100000000000000000000000000000000000000000000000000000000 PUSH0 MSTORE PUSH1 0x22 PUSH1 0x4 MSTORE PUSH1 0x24 PUSH0 REVERT JUMPDEST PUSH0 PUSH1 0x2 DUP3 DIV SWAP1 POP PUSH1 0x1 DUP3 AND DUP1 PUSH2 0x17B6 JUMPI PUSH1 0x7F DUP3 AND SWAP2 POP JUMPDEST PUSH1 0x20 DUP3 LT DUP2 SUB PUSH2 0x17C9 JUMPI PUSH2 0x17C8 PUSH2 0x1772 JUMP JUMPDEST JUMPDEST POP SWAP2 SWAP1 POP JUMP JUMPDEST PUSH0 DUP2 SWAP1 POP DUP2 PUSH0 MSTORE PUSH1 0x20 PUSH0 KECCAK256 SWAP1 POP SWAP2 SWAP1 POP JUMP JUMPDEST PUSH0 PUSH1 0x20 PUSH1 0x1F DUP4 ADD DIV SWAP1 POP SWAP2 SWAP1 POP JUMP JUMPDEST PUSH0 DUP3 DUP3 SHL SWAP1 POP SWAP3 SWAP2 POP POP JUMP JUMPDEST PUSH0 PUSH1 0x8 DUP4 MUL PUSH2 0x182B PUSH32 0xFFFFFFFFFFFFFFFFFFFFFFFFFFFFFFFFFFFFFFFFFFFFFFFFFFFFFFFFFFFFFFFF DUP3 PUSH2 0x17F0 JUMP JUMPDEST PUSH2 0x1835 DUP7 DUP4 PUSH2 0x17F0 JUMP JUMPDEST SWAP6 POP DUP1 NOT DUP5 AND SWAP4 POP DUP1 DUP7 AND DUP5 OR SWAP3 POP POP POP SWAP4 SWAP3 POP POP POP JUMP JUMPDEST PUSH0 DUP2 SWAP1 POP SWAP2 SWAP1 POP JUMP JUMPDEST PUSH0 DUP2 SWAP1 POP SWAP2 SWAP1 POP JUMP JUMPDEST PUSH0 PUSH2 0x1879 PUSH2 0x1874 PUSH2 0x186F DUP5 PUSH2 0x184D JUMP JUMPDEST PUSH2 0x1856 JUMP JUMPDEST PUSH2 0x184D JUMP JUMPDEST SWAP1 POP SWAP2 SWAP1 POP JUMP JUMPDEST PUSH0 DUP2 SWAP1 POP SWAP2 SWAP1 POP JUMP JUMPDEST PUSH2 0x1892 DUP4 PUSH2 0x185F JUMP JUMPDEST PUSH2 0x18A6 PUSH2 0x189E DUP3 PUSH2 0x1880 JUMP JUMPDEST DUP5 DUP5 SLOAD PUSH2 0x17FC JUMP JUMPDEST DUP3 SSTORE POP POP POP POP JUMP JUMPDEST PUSH0 SWAP1 JUMP JUMPDEST PUSH2 0x18BA PUSH2 0x18AE JUMP JUMPDEST PUSH2 0x18C5 DUP2 DUP5 DUP5 PUSH2 0x1889 JUMP JUMPDEST POP POP POP JUMP JUMPDEST JUMPDEST DUP2 DUP2 LT ISZERO PUSH2 0x18E8 JUMPI PUSH2 0x18DD PUSH0 DUP3 PUSH2 0x18B2 JUMP JUMPDEST PUSH1 0x1 DUP2 ADD SWAP1 POP PUSH2 0x18CB JUMP JUMPDEST POP POP JUMP JUMPDEST PUSH1 0x1F DUP3 GT ISZERO PUSH2 0x192D JUMPI PUSH2 0x18FE DUP2 PUSH2 0x17CF JUMP JUMPDEST PUSH2 0x1907 DUP5 PUSH2 0x17E1 JUMP JUMPDEST DUP2 ADD PUSH1 0x20 DUP6 LT ISZERO PUSH2 0x1916 JUMPI DUP2 SWAP1 POP JUMPDEST PUSH2 0x192A PUSH2 0x1922 DUP6 PUSH2 0x17E1 JUMP JUMPDEST DUP4 ADD DUP3 PUSH2 0x18CA JUMP JUMPDEST POP POP JUMPDEST POP POP POP JUMP JUMPDEST PUSH0 DUP3 DUP3 SHR SWAP1 POP SWAP3 SWAP2 POP POP JUMP JUMPDEST PUSH0 PUSH2 0x194D PUSH0 NOT DUP5 PUSH1 0x8 MUL PUSH2 0x1932 JUMP JUMPDEST NOT DUP1 DUP4 AND SWAP2 POP POP SWAP3 SWAP2 POP POP JUMP JUMPDEST PUSH0 PUSH2 0x1965 DUP4 DUP4 PUSH2 0x193E JUMP JUMPDEST SWAP2 POP DUP3 PUSH1 0x2 MUL DUP3 OR SWAP1 POP SWAP3 SWAP2 POP POP JUMP JUMPDEST PUSH2 0x197E DUP3 PUSH2 0x158A JUMP JUMPDEST PUSH8 0xFFFFFFFFFFFFFFFF DUP2 GT ISZERO PUSH2 0x1997 JUMPI PUSH2 0x1996 PUSH2 0x129C JUMP JUMPDEST JUMPDEST PUSH2 0x19A1 DUP3 SLOAD PUSH2 0x179F JUMP JUMPDEST PUSH2 0x19AC DUP3 DUP3 DUP6 PUSH2 0x18EC JUMP JUMPDEST PUSH0 PUSH1 0x20 SWAP1 POP PUSH1 0x1F DUP4 GT PUSH1 0x1 DUP2 EQ PUSH2 0x19DD JUMPI PUSH0 DUP5 ISZERO PUSH2 0x19CB JUMPI DUP3 DUP8 ADD MLOAD SWAP1 POP JUMPDEST PUSH2 0x19D5 DUP6 DUP3 PUSH2 0x195A JUMP JUMPDEST DUP7 SSTORE POP PUSH2 0x1A3C JUMP JUMPDEST PUSH1 0x1F NOT DUP5 AND PUSH2 0x19EB DUP7 PUSH2 0x17CF JUMP JUMPDEST PUSH0 JUMPDEST DUP3 DUP2 LT ISZERO PUSH2 0x1A12 JUMPI DUP5 DUP10 ADD MLOAD DUP3 SSTORE PUSH1 0x1 DUP3 ADD SWAP2 POP PUSH1 0x20 DUP6 ADD SWAP5 POP PUSH1 0x20 DUP2 ADD SWAP1 POP PUSH2 0x19ED JUMP JUMPDEST DUP7 DUP4 LT ISZERO PUSH2 0x1A2F JUMPI DUP5 DUP10 ADD MLOAD PUSH2 0x1A2B PUSH1 0x1F DUP10 AND DUP3 PUSH2 0x193E JUMP JUMPDEST DUP4 SSTORE POP JUMPDEST PUSH1 0x1 PUSH1 0x2 DUP9 MUL ADD DUP9 SSTORE POP POP POP JUMPDEST POP POP POP POP POP POP JUMP JUMPDEST PUSH0 DUP2 ISZERO ISZERO SWAP1 POP SWAP2 SWAP1 POP JUMP JUMPDEST PUSH2 0x1A58 DUP2 PUSH2 0x1A44 JUMP JUMPDEST DUP3 MSTORE POP POP JUMP JUMPDEST PUSH0 PUSH1 0x40 DUP3 ADD SWAP1 POP DUP2 DUP2 SUB PUSH0 DUP4 ADD MSTORE PUSH2 0x1A76 DUP2 DUP6 PUSH2 0x15CC JUMP JUMPDEST SWAP1 POP PUSH2 0x1A85 PUSH1 0x20 DUP4 ADD DUP5 PUSH2 0x1A4F JUMP JUMPDEST SWAP4 SWAP3 POP POP POP JUMP JUMPDEST PUSH32 0x5573657220616C72656164792065786973747300000000000000000000000000 PUSH0 DUP3 ADD MSTORE POP JUMP JUMPDEST PUSH0 PUSH2 0x1AC0 PUSH1 0x13 DUP4 PUSH2 0x1594 JUMP JUMPDEST SWAP2 POP PUSH2 0x1ACB DUP3 PUSH2 0x1A8C JUMP JUMPDEST PUSH1 0x20 DUP3 ADD SWAP1 POP SWAP2 SWAP1 POP JUMP JUMPDEST PUSH0 PUSH1 0x20 DUP3 ADD SWAP1 POP DUP2 DUP2 SUB PUSH0 DUP4 ADD MSTORE PUSH2 0x1AED DUP2 PUSH2 0x1AB4 JUMP JUMPDEST SWAP1 POP SWAP2 SWAP1 POP JUMP JUMPDEST PUSH0 DUP2 SWAP1 POP SWAP3 SWAP2 POP POP JUMP JUMPDEST PUSH0 PUSH2 0x1B08 DUP3 PUSH2 0x158A JUMP JUMPDEST PUSH2 0x1B12 DUP2 DUP6 PUSH2 0x1AF4 JUMP JUMPDEST SWAP4 POP PUSH2 0x1B22 DUP2 DUP6 PUSH1 0x20 DUP7 ADD PUSH2 0x15A4 JUMP JUMPDEST DUP1 DUP5 ADD SWAP2 POP POP SWAP3 SWAP2 POP POP JUMP JUMPDEST PUSH0 PUSH2 0x1B39 DUP3 DUP5 PUSH2 0x1AFE JUMP JUMPDEST SWAP2 POP DUP2 SWAP1 POP SWAP3 SWAP2 POP POP JUMP JUMPDEST PUSH32 0x50726976617465206B657920616C726561647920696E20757365000000000000 PUSH0 DUP3 ADD MSTORE POP JUMP JUMPDEST PUSH0 PUSH2 0x1B78 PUSH1 0x1A DUP4 PUSH2 0x1594 JUMP JUMPDEST SWAP2 POP PUSH2 0x1B83 DUP3 PUSH2 0x1B44 JUMP JUMPDEST PUSH1 0x20 DUP3 ADD SWAP1 POP SWAP2 SWAP1 POP JUMP JUMPDEST PUSH0 PUSH1 0x20 DUP3 ADD SWAP1 POP DUP2 DUP2 SUB PUSH0 DUP4 ADD MSTORE PUSH2 0x1BA5 DUP2 PUSH2 0x1B6C JUMP JUMPDEST SWAP1 POP SWAP2 SWAP1 POP JUMP JUMPDEST PUSH32 0x50726976617465206B657920616C7265616479206D6170706564000000000000 PUSH0 DUP3 ADD MSTORE POP JUMP JUMPDEST PUSH0 PUSH2 0x1BE0 PUSH1 0x1A DUP4 PUSH2 0x1594 JUMP JUMPDEST SWAP2 POP PUSH2 0x1BEB DUP3 PUSH2 0x1BAC JUMP JUMPDEST PUSH1 0x20 DUP3 ADD SWAP1 POP SWAP2 SWAP1 POP JUMP JUMPDEST PUSH0 PUSH1 0x20 DUP3 ADD SWAP1 POP DUP2 DUP2 SUB PUSH0 DUP4 ADD MSTORE PUSH2 0x1C0D DUP2 PUSH2 0x1BD4 JUMP JUMPDEST SWAP1 POP SWAP2 SWAP1 POP JUMP JUMPDEST PUSH32 0x4E487B7100000000000000000000000000000000000000000000000000000000 PUSH0 MSTORE PUSH1 0x11 PUSH1 0x4 MSTORE PUSH1 0x24 PUSH0 REVERT JUMPDEST PUSH0 PUSH2 0x1C4B DUP3 PUSH2 0x184D JUMP JUMPDEST SWAP2 POP PUSH2 0x1C56 DUP4 PUSH2 0x184D JUMP JUMPDEST SWAP3 POP DUP3 DUP3 MUL PUSH2 0x1C64 DUP2 PUSH2 0x184D JUMP JUMPDEST SWAP2 POP DUP3 DUP3 DIV DUP5 EQ DUP4 ISZERO OR PUSH2 0x1C7B JUMPI PUSH2 0x1C7A PUSH2 0x1C14 JUMP JUMPDEST JUMPDEST POP SWAP3 SWAP2 POP POP JUMP JUMPDEST PUSH0 DUP2 PUSH1 0x1 SHR SWAP1 POP SWAP2 SWAP1 POP JUMP JUMPDEST PUSH0 DUP1 DUP3 SWAP2 POP DUP4 SWAP1 POP JUMPDEST PUSH1 0x1 DUP6 GT ISZERO PUSH2 0x1CD7 JUMPI DUP1 DUP7 DIV DUP2 GT ISZERO PUSH2 0x1CB3 JUMPI PUSH2 0x1CB2 PUSH2 0x1C14 JUMP JUMPDEST JUMPDEST PUSH1 0x1 DUP6 AND ISZERO PUSH2 0x1CC2 JUMPI DUP1 DUP3 MUL SWAP2 POP JUMPDEST DUP1 DUP2 MUL SWAP1 POP PUSH2 0x1CD0 DUP6 PUSH2 0x1C82 JUMP JUMPDEST SWAP5 POP PUSH2 0x1C97 JUMP JUMPDEST SWAP5 POP SWAP5 SWAP3 POP POP POP JUMP JUMPDEST PUSH0 DUP3 PUSH2 0x1CEF JUMPI PUSH1 0x1 SWAP1 POP PUSH2 0x1DAA JUMP JUMPDEST DUP2 PUSH2 0x1CFC JUMPI PUSH0 SWAP1 POP PUSH2 0x1DAA JUMP JUMPDEST DUP2 PUSH1 0x1 DUP2 EQ PUSH2 0x1D12 JUMPI PUSH1 0x2 DUP2 EQ PUSH2 0x1D1C JUMPI PUSH2 0x1D4B JUMP JUMPDEST PUSH1 0x1 SWAP2 POP POP PUSH2 0x1DAA JUMP JUMPDEST PUSH1 0xFF DUP5 GT ISZERO PUSH2 0x1D2E JUMPI PUSH2 0x1D2D PUSH2 0x1C14 JUMP JUMPDEST JUMPDEST DUP4 PUSH1 0x2 EXP SWAP2 POP DUP5 DUP3 GT ISZERO PUSH2 0x1D45 JUMPI PUSH2 0x1D44 PUSH2 0x1C14 JUMP JUMPDEST JUMPDEST POP PUSH2 0x1DAA JUMP JUMPDEST POP PUSH1 0x20 DUP4 LT PUSH2 0x133 DUP4 LT AND PUSH1 0x4E DUP5 LT PUSH1 0xB DUP5 LT AND OR ISZERO PUSH2 0x1D80 JUMPI DUP3 DUP3 EXP SWAP1 POP DUP4 DUP2 GT ISZERO PUSH2 0x1D7B JUMPI PUSH2 0x1D7A PUSH2 0x1C14 JUMP JUMPDEST JUMPDEST PUSH2 0x1DAA JUMP JUMPDEST PUSH2 0x1D8D DUP5 DUP5 DUP5 PUSH1 0x1 PUSH2 0x1C8E JUMP JUMPDEST SWAP3 POP SWAP1 POP DUP2 DUP5 DIV DUP2 GT ISZERO PUSH2 0x1DA4 JUMPI PUSH2 0x1DA3 PUSH2 0x1C14 JUMP JUMPDEST JUMPDEST DUP2 DUP2 MUL SWAP1 POP JUMPDEST SWAP4 SWAP3 POP POP POP JUMP JUMPDEST PUSH0 PUSH2 0x1DBB DUP3 PUSH2 0x184D JUMP JUMPDEST SWAP2 POP PUSH2 0x1DC6 DUP4 PUSH2 0x184D JUMP JUMPDEST SWAP3 POP PUSH2 0x1DF3 PUSH32 0xFFFFFFFFFFFFFFFFFFFFFFFFFFFFFFFFFFFFFFFFFFFFFFFFFFFFFFFFFFFFFFFF DUP5 DUP5 PUSH2 0x1CE0 JUMP JUMPDEST SWAP1 POP SWAP3 SWAP2 POP POP JUMP JUMPDEST PUSH32 0x4E487B7100000000000000000000000000000000000000000000000000000000 PUSH0 MSTORE PUSH1 0x32 PUSH1 0x4 MSTORE PUSH1 0x24 PUSH0 REVERT INVALID LOG2 PUSH5 0x6970667358 0x22 SLT KECCAK256 REVERT PUSH15 0x3FE2E84304E6BD050A573B288C52DE PUSH22 0x1CECAD971AFD9579B404373E6CB264736F6C63430008 AND STOP CALLER "
				},
				"gasEstimates": {
					"creation": {
						"codeDepositCost": "1554800",
						"executionCost": "1622",
						"totalCost": "1556422"
					},
					"external": {
						"createUser(address,string,string,string,string,string,string)": "infinite",
						"getContactByAddress(address)": "infinite",
						"getDOBByAddress(address)": "infinite",
						"getEmailByAddress(address)": "infinite",
						"getImageByAddress(address)": "infinite",
						"getUsernameByAddress(address)": "infinite",
						"mapPrivateKeyToPublicKey(string,string)": "infinite",
						"privateKeyToPublicKey(string)": "infinite",
						"updateContact(address,string)": "infinite",
						"updateDOB(address,string)": "infinite",
						"updateEmail(address,string)": "infinite",
						"updateImage(address,string)": "infinite",
						"updateUsername(address,string)": "infinite",
						"users(address)": "infinite"
					},
					"internal": {
						"addressToString(address)": "infinite"
					}
				},
				"methodIdentifiers": {
					"createUser(address,string,string,string,string,string,string)": "2b946252",
					"getContactByAddress(address)": "a7ca9615",
					"getDOBByAddress(address)": "51dad8ae",
					"getEmailByAddress(address)": "fb73bc64",
					"getImageByAddress(address)": "56abb5d9",
					"getUsernameByAddress(address)": "ed1a998d",
					"mapPrivateKeyToPublicKey(string,string)": "5a7fb9d7",
					"privateKeyToPublicKey(string)": "bf501844",
					"updateContact(address,string)": "91382b57",
					"updateDOB(address,string)": "022e9066",
					"updateEmail(address,string)": "0ea5e419",
					"updateImage(address,string)": "26e0ad03",
					"updateUsername(address,string)": "5110063b",
					"users(address)": "a87430ba"
				}
			},
			"storageLayout": {
				"storage": [
					{
						"astId": 19,
						"contract": "Interface.sol:UserRegistry",
						"label": "users",
						"offset": 0,
						"slot": "0",
						"type": "t_mapping(t_address,t_struct(User)14_storage)"
					},
					{
						"astId": 23,
						"contract": "Interface.sol:UserRegistry",
						"label": "privateKeyToPublicKey",
						"offset": 0,
						"slot": "1",
						"type": "t_mapping(t_string_memory_ptr,t_string_storage)"
					}
				],
				"types": {
					"t_address": {
						"encoding": "inplace",
						"label": "address",
						"numberOfBytes": "20"
					},
					"t_mapping(t_address,t_struct(User)14_storage)": {
						"encoding": "mapping",
						"key": "t_address",
						"label": "mapping(address => struct UserRegistry.User)",
						"numberOfBytes": "32",
						"value": "t_struct(User)14_storage"
					},
					"t_mapping(t_string_memory_ptr,t_string_storage)": {
						"encoding": "mapping",
						"key": "t_string_memory_ptr",
						"label": "mapping(string => string)",
						"numberOfBytes": "32",
						"value": "t_string_storage"
					},
					"t_string_memory_ptr": {
						"encoding": "bytes",
						"label": "string",
						"numberOfBytes": "32"
					},
					"t_string_storage": {
						"encoding": "bytes",
						"label": "string",
						"numberOfBytes": "32"
					},
					"t_struct(User)14_storage": {
						"encoding": "inplace",
						"label": "struct UserRegistry.User",
						"members": [
							{
								"astId": 3,
								"contract": "Interface.sol:UserRegistry",
								"label": "userAddress",
								"offset": 0,
								"slot": "0",
								"type": "t_address"
							},
							{
								"astId": 5,
								"contract": "Interface.sol:UserRegistry",
								"label": "email",
								"offset": 0,
								"slot": "1",
								"type": "t_string_storage"
							},
							{
								"astId": 7,
								"contract": "Interface.sol:UserRegistry",
								"label": "username",
								"offset": 0,
								"slot": "2",
								"type": "t_string_storage"
							},
							{
								"astId": 9,
								"contract": "Interface.sol:UserRegistry",
								"label": "image",
								"offset": 0,
								"slot": "3",
								"type": "t_string_storage"
							},
							{
								"astId": 11,
								"contract": "Interface.sol:UserRegistry",
								"label": "contact",
								"offset": 0,
								"slot": "4",
								"type": "t_string_storage"
							},
							{
								"astId": 13,
								"contract": "Interface.sol:UserRegistry",
								"label": "dob",
								"offset": 0,
								"slot": "5",
								"type": "t_string_storage"
							}
						],
						"numberOfBytes": "192"
					}
				}
			},
			"userdoc": {
				"kind": "user",
				"methods": {},
				"version": 1
			}
		}
	}
}