{
	"Email.sol": {
		"EmailVerification": {
			"abi": [
				{
					"inputs": [
						{
							"internalType": "string",
							"name": "",
							"type": "string"
						}
					],
					"name": "CheckEmail",
					"outputs": [
						{
							"internalType": "string",
							"name": "",
							"type": "string"
						}
					],
					"stateMutability": "view",
					"type": "function"
				},
				{
					"inputs": [
						{
							"internalType": "string",
							"name": "privateKey",
							"type": "string"
						}
					],
					"name": "FinalCheckEmailMapping",
					"outputs": [
						{
							"internalType": "string",
							"name": "",
							"type": "string"
						}
					],
					"stateMutability": "view",
					"type": "function"
				},
				{
					"inputs": [
						{
							"internalType": "string",
							"name": "email",
							"type": "string"
						}
					],
					"name": "InitialCheckEmailMapping",
					"outputs": [
						{
							"internalType": "bool",
							"name": "",
							"type": "bool"
						}
					],
					"stateMutability": "view",
					"type": "function"
				},
				{
					"inputs": [
						{
							"internalType": "string",
							"name": "",
							"type": "string"
						}
					],
					"name": "SaveEmail",
					"outputs": [
						{
							"internalType": "string",
							"name": "",
							"type": "string"
						}
					],
					"stateMutability": "view",
					"type": "function"
				},
				{
					"inputs": [
						{
							"internalType": "string",
							"name": "privateKey",
							"type": "string"
						},
						{
							"internalType": "string",
							"name": "email",
							"type": "string"
						}
					],
					"name": "SaveEmailMapping",
					"outputs": [],
					"stateMutability": "nonpayable",
					"type": "function"
				}
			],
			"devdoc": {
				"kind": "dev",
				"methods": {},
				"version": 1
			},
			"evm": {
				"assembly": "    /* \"Email.sol\":60:1233  contract EmailVerification {... */\n  mstore(0x40, 0x80)\n  callvalue\n  dup1\n  iszero\n  tag_1\n  jumpi\n  0x00\n  dup1\n  revert\ntag_1:\n  pop\n  dataSize(sub_0)\n  dup1\n  dataOffset(sub_0)\n  0x00\n  codecopy\n  0x00\n  return\nstop\n\nsub_0: assembly {\n        /* \"Email.sol\":60:1233  contract EmailVerification {... */\n      mstore(0x40, 0x80)\n      callvalue\n      dup1\n      iszero\n      tag_1\n      jumpi\n      0x00\n      dup1\n      revert\n    tag_1:\n      pop\n      jumpi(tag_2, lt(calldatasize, 0x04))\n      shr(0xe0, calldataload(0x00))\n      dup1\n      0x0e52f48a\n      eq\n      tag_3\n      jumpi\n      dup1\n      0x0f9cc7b9\n      eq\n      tag_4\n      jumpi\n      dup1\n      0x46dd4bef\n      eq\n      tag_5\n      jumpi\n      dup1\n      0xb6d7bd37\n      eq\n      tag_6\n      jumpi\n      dup1\n      0xf8b7800f\n      eq\n      tag_7\n      jumpi\n    tag_2:\n      0x00\n      dup1\n      revert\n        /* \"Email.sol\":705:915  function FinalCheckEmailMapping(string memory privateKey) public view returns (string memory) {... */\n    tag_3:\n      tag_8\n      0x04\n      dup1\n      calldatasize\n      sub\n      dup2\n      add\n      swap1\n      tag_9\n      swap2\n      swap1\n      tag_10\n      jump\t// in\n    tag_9:\n      tag_11\n      jump\t// in\n    tag_8:\n      mload(0x40)\n      tag_12\n      swap2\n      swap1\n      tag_13\n      jump\t// in\n    tag_12:\n      mload(0x40)\n      dup1\n      swap2\n      sub\n      swap1\n      return\n        /* \"Email.sol\":974:1230  function SaveEmailMapping(string memory privateKey, string memory email) public {... */\n    tag_4:\n      tag_14\n      0x04\n      dup1\n      calldatasize\n      sub\n      dup2\n      add\n      swap1\n      tag_15\n      swap2\n      swap1\n      tag_16\n      jump\t// in\n    tag_15:\n      tag_17\n      jump\t// in\n    tag_14:\n      stop\n        /* \"Email.sol\":393:600  function InitialCheckEmailMapping(string memory email) public view returns (bool) {... */\n    tag_5:\n      tag_18\n      0x04\n      dup1\n      calldatasize\n      sub\n      dup2\n      add\n      swap1\n      tag_19\n      swap2\n      swap1\n      tag_10\n      jump\t// in\n    tag_19:\n      tag_20\n      jump\t// in\n    tag_18:\n      mload(0x40)\n      tag_21\n      swap2\n      swap1\n      tag_22\n      jump\t// in\n    tag_21:\n      mload(0x40)\n      dup1\n      swap2\n      sub\n      swap1\n      return\n        /* \"Email.sol\":165:207  mapping(string => string) public SaveEmail */\n    tag_6:\n      tag_23\n      0x04\n      dup1\n      calldatasize\n      sub\n      dup2\n      add\n      swap1\n      tag_24\n      swap2\n      swap1\n      tag_10\n      jump\t// in\n    tag_24:\n      tag_25\n      jump\t// in\n    tag_23:\n      mload(0x40)\n      tag_26\n      swap2\n      swap1\n      tag_13\n      jump\t// in\n    tag_26:\n      mload(0x40)\n      dup1\n      swap2\n      sub\n      swap1\n      return\n        /* \"Email.sol\":287:330  mapping(string => string) public CheckEmail */\n    tag_7:\n      tag_27\n      0x04\n      dup1\n      calldatasize\n      sub\n      dup2\n      add\n      swap1\n      tag_28\n      swap2\n      swap1\n      tag_10\n      jump\t// in\n    tag_28:\n      tag_29\n      jump\t// in\n    tag_27:\n      mload(0x40)\n      tag_30\n      swap2\n      swap1\n      tag_13\n      jump\t// in\n    tag_30:\n      mload(0x40)\n      dup1\n      swap2\n      sub\n      swap1\n      return\n        /* \"Email.sol\":705:915  function FinalCheckEmailMapping(string memory privateKey) public view returns (string memory) {... */\n    tag_11:\n        /* \"Email.sol\":784:797  string memory */\n      0x60\n        /* \"Email.sol\":886:895  SaveEmail */\n      0x00\n        /* \"Email.sol\":896:906  privateKey */\n      dup3\n        /* \"Email.sol\":886:907  SaveEmail[privateKey] */\n      mload(0x40)\n      tag_32\n      swap2\n      swap1\n      tag_33\n      jump\t// in\n    tag_32:\n      swap1\n      dup2\n      mstore\n      0x20\n      add\n      mload(0x40)\n      dup1\n      swap2\n      sub\n      swap1\n      keccak256\n        /* \"Email.sol\":879:907  return SaveEmail[privateKey] */\n      dup1\n      sload\n      tag_34\n      swap1\n      tag_35\n      jump\t// in\n    tag_34:\n      dup1\n      0x1f\n      add\n      0x20\n      dup1\n      swap2\n      div\n      mul\n      0x20\n      add\n      mload(0x40)\n      swap1\n      dup2\n      add\n      0x40\n      mstore\n      dup1\n      swap3\n      swap2\n      swap1\n      dup2\n      dup2\n      mstore\n      0x20\n      add\n      dup3\n      dup1\n      sload\n      tag_36\n      swap1\n      tag_35\n      jump\t// in\n    tag_36:\n      dup1\n      iszero\n      tag_37\n      jumpi\n      dup1\n      0x1f\n      lt\n      tag_38\n      jumpi\n      0x0100\n      dup1\n      dup4\n      sload\n      div\n      mul\n      dup4\n      mstore\n      swap2\n      0x20\n      add\n      swap2\n      jump(tag_37)\n    tag_38:\n      dup3\n      add\n      swap2\n      swap1\n      0x00\n      mstore\n      keccak256(0x00, 0x20)\n      swap1\n    tag_39:\n      dup2\n      sload\n      dup2\n      mstore\n      swap1\n      0x01\n      add\n      swap1\n      0x20\n      add\n      dup1\n      dup4\n      gt\n      tag_39\n      jumpi\n      dup3\n      swap1\n      sub\n      0x1f\n      and\n      dup3\n      add\n      swap2\n    tag_37:\n      pop\n      pop\n      pop\n      pop\n      pop\n      swap1\n      pop\n        /* \"Email.sol\":705:915  function FinalCheckEmailMapping(string memory privateKey) public view returns (string memory) {... */\n      swap2\n      swap1\n      pop\n      jump\t// out\n        /* \"Email.sol\":974:1230  function SaveEmailMapping(string memory privateKey, string memory email) public {... */\n    tag_17:\n        /* \"Email.sol\":1131:1136  email */\n      dup1\n        /* \"Email.sol\":1107:1116  SaveEmail */\n      0x00\n        /* \"Email.sol\":1117:1127  privateKey */\n      dup4\n        /* \"Email.sol\":1107:1128  SaveEmail[privateKey] */\n      mload(0x40)\n      tag_41\n      swap2\n      swap1\n      tag_33\n      jump\t// in\n    tag_41:\n      swap1\n      dup2\n      mstore\n      0x20\n      add\n      mload(0x40)\n      dup1\n      swap2\n      sub\n      swap1\n      keccak256\n        /* \"Email.sol\":1107:1136  SaveEmail[privateKey] = email */\n      swap1\n      dup2\n      tag_42\n      swap2\n      swap1\n      tag_43\n      jump\t// in\n    tag_42:\n      pop\n        /* \"Email.sol\":1212:1222  privateKey */\n      dup2\n        /* \"Email.sol\":1192:1202  CheckEmail */\n      0x01\n        /* \"Email.sol\":1203:1208  email */\n      dup3\n        /* \"Email.sol\":1192:1209  CheckEmail[email] */\n      mload(0x40)\n      tag_44\n      swap2\n      swap1\n      tag_33\n      jump\t// in\n    tag_44:\n      swap1\n      dup2\n      mstore\n      0x20\n      add\n      mload(0x40)\n      dup1\n      swap2\n      sub\n      swap1\n      keccak256\n        /* \"Email.sol\":1192:1222  CheckEmail[email] = privateKey */\n      swap1\n      dup2\n      tag_45\n      swap2\n      swap1\n      tag_43\n      jump\t// in\n    tag_45:\n      pop\n        /* \"Email.sol\":974:1230  function SaveEmailMapping(string memory privateKey, string memory email) public {... */\n      pop\n      pop\n      jump\t// out\n        /* \"Email.sol\":393:600  function InitialCheckEmailMapping(string memory email) public view returns (bool) {... */\n    tag_20:\n        /* \"Email.sol\":469:473  bool */\n      0x00\n        /* \"Email.sol\":591:592  0 */\n      dup1\n        /* \"Email.sol\":563:573  CheckEmail */\n      0x01\n        /* \"Email.sol\":574:579  email */\n      dup4\n        /* \"Email.sol\":563:580  CheckEmail[email] */\n      mload(0x40)\n      tag_47\n      swap2\n      swap1\n      tag_33\n      jump\t// in\n    tag_47:\n      swap1\n      dup2\n      mstore\n      0x20\n      add\n      mload(0x40)\n      dup1\n      swap2\n      sub\n      swap1\n      keccak256\n        /* \"Email.sol\":557:588  bytes(CheckEmail[email]).length */\n      dup1\n      sload\n      tag_48\n      swap1\n      tag_35\n      jump\t// in\n    tag_48:\n      swap1\n      pop\n        /* \"Email.sol\":557:592  bytes(CheckEmail[email]).length > 0 */\n      gt\n        /* \"Email.sol\":550:592  return bytes(CheckEmail[email]).length > 0 */\n      swap1\n      pop\n        /* \"Email.sol\":393:600  function InitialCheckEmailMapping(string memory email) public view returns (bool) {... */\n      swap2\n      swap1\n      pop\n      jump\t// out\n        /* \"Email.sol\":165:207  mapping(string => string) public SaveEmail */\n    tag_25:\n      0x00\n      dup2\n      dup1\n      mload\n      0x20\n      dup2\n      add\n      dup3\n      add\n      dup1\n      mload\n      dup5\n      dup3\n      mstore\n      0x20\n      dup4\n      add\n      0x20\n      dup6\n      add\n      keccak256\n      dup2\n      dup4\n      mstore\n      dup1\n      swap6\n      pop\n      pop\n      pop\n      pop\n      pop\n      pop\n      0x00\n      swap2\n      pop\n      swap1\n      pop\n      dup1\n      sload\n      tag_49\n      swap1\n      tag_35\n      jump\t// in\n    tag_49:\n      dup1\n      0x1f\n      add\n      0x20\n      dup1\n      swap2\n      div\n      mul\n      0x20\n      add\n      mload(0x40)\n      swap1\n      dup2\n      add\n      0x40\n      mstore\n      dup1\n      swap3\n      swap2\n      swap1\n      dup2\n      dup2\n      mstore\n      0x20\n      add\n      dup3\n      dup1\n      sload\n      tag_50\n      swap1\n      tag_35\n      jump\t// in\n    tag_50:\n      dup1\n      iszero\n      tag_51\n      jumpi\n      dup1\n      0x1f\n      lt\n      tag_52\n      jumpi\n      0x0100\n      dup1\n      dup4\n      sload\n      div\n      mul\n      dup4\n      mstore\n      swap2\n      0x20\n      add\n      swap2\n      jump(tag_51)\n    tag_52:\n      dup3\n      add\n      swap2\n      swap1\n      0x00\n      mstore\n      keccak256(0x00, 0x20)\n      swap1\n    tag_53:\n      dup2\n      sload\n      dup2\n      mstore\n      swap1\n      0x01\n      add\n      swap1\n      0x20\n      add\n      dup1\n      dup4\n      gt\n      tag_53\n      jumpi\n      dup3\n      swap1\n      sub\n      0x1f\n      and\n      dup3\n      add\n      swap2\n    tag_51:\n      pop\n      pop\n      pop\n      pop\n      pop\n      dup2\n      jump\t// out\n        /* \"Email.sol\":287:330  mapping(string => string) public CheckEmail */\n    tag_29:\n      0x01\n      dup2\n      dup1\n      mload\n      0x20\n      dup2\n      add\n      dup3\n      add\n      dup1\n      mload\n      dup5\n      dup3\n      mstore\n      0x20\n      dup4\n      add\n      0x20\n      dup6\n      add\n      keccak256\n      dup2\n      dup4\n      mstore\n      dup1\n      swap6\n      pop\n      pop\n      pop\n      pop\n      pop\n      pop\n      0x00\n      swap2\n      pop\n      swap1\n      pop\n      dup1\n      sload\n      tag_54\n      swap1\n      tag_35\n      jump\t// in\n    tag_54:\n      dup1\n      0x1f\n      add\n      0x20\n      dup1\n      swap2\n      div\n      mul\n      0x20\n      add\n      mload(0x40)\n      swap1\n      dup2\n      add\n      0x40\n      mstore\n      dup1\n      swap3\n      swap2\n      swap1\n      dup2\n      dup2\n      mstore\n      0x20\n      add\n      dup3\n      dup1\n      sload\n      tag_55\n      swap1\n      tag_35\n      jump\t// in\n    tag_55:\n      dup1\n      iszero\n      tag_56\n      jumpi\n      dup1\n      0x1f\n      lt\n      tag_57\n      jumpi\n      0x0100\n      dup1\n      dup4\n      sload\n      div\n      mul\n      dup4\n      mstore\n      swap2\n      0x20\n      add\n      swap2\n      jump(tag_56)\n    tag_57:\n      dup3\n      add\n      swap2\n      swap1\n      0x00\n      mstore\n      keccak256(0x00, 0x20)\n      swap1\n    tag_58:\n      dup2\n      sload\n      dup2\n      mstore\n      swap1\n      0x01\n      add\n      swap1\n      0x20\n      add\n      dup1\n      dup4\n      gt\n      tag_58\n      jumpi\n      dup3\n      swap1\n      sub\n      0x1f\n      and\n      dup3\n      add\n      swap2\n    tag_56:\n      pop\n      pop\n      pop\n      pop\n      pop\n      dup2\n      jump\t// out\n        /* \"#utility.yul\":7:82   */\n    tag_59:\n        /* \"#utility.yul\":40:46   */\n      0x00\n        /* \"#utility.yul\":73:75   */\n      0x40\n        /* \"#utility.yul\":67:76   */\n      mload\n        /* \"#utility.yul\":57:76   */\n      swap1\n      pop\n        /* \"#utility.yul\":7:82   */\n      swap1\n      jump\t// out\n        /* \"#utility.yul\":88:205   */\n    tag_60:\n        /* \"#utility.yul\":197:198   */\n      0x00\n        /* \"#utility.yul\":194:195   */\n      dup1\n        /* \"#utility.yul\":187:199   */\n      revert\n        /* \"#utility.yul\":211:328   */\n    tag_61:\n        /* \"#utility.yul\":320:321   */\n      0x00\n        /* \"#utility.yul\":317:318   */\n      dup1\n        /* \"#utility.yul\":310:322   */\n      revert\n        /* \"#utility.yul\":334:451   */\n    tag_62:\n        /* \"#utility.yul\":443:444   */\n      0x00\n        /* \"#utility.yul\":440:441   */\n      dup1\n        /* \"#utility.yul\":433:445   */\n      revert\n        /* \"#utility.yul\":457:574   */\n    tag_63:\n        /* \"#utility.yul\":566:567   */\n      0x00\n        /* \"#utility.yul\":563:564   */\n      dup1\n        /* \"#utility.yul\":556:568   */\n      revert\n        /* \"#utility.yul\":580:682   */\n    tag_64:\n        /* \"#utility.yul\":621:627   */\n      0x00\n        /* \"#utility.yul\":672:674   */\n      0x1f\n        /* \"#utility.yul\":668:675   */\n      not\n        /* \"#utility.yul\":663:665   */\n      0x1f\n        /* \"#utility.yul\":656:661   */\n      dup4\n        /* \"#utility.yul\":652:666   */\n      add\n        /* \"#utility.yul\":648:676   */\n      and\n        /* \"#utility.yul\":638:676   */\n      swap1\n      pop\n        /* \"#utility.yul\":580:682   */\n      swap2\n      swap1\n      pop\n      jump\t// out\n        /* \"#utility.yul\":688:868   */\n    tag_65:\n        /* \"#utility.yul\":736:813   */\n      0x4e487b7100000000000000000000000000000000000000000000000000000000\n        /* \"#utility.yul\":733:734   */\n      0x00\n        /* \"#utility.yul\":726:814   */\n      mstore\n        /* \"#utility.yul\":833:837   */\n      0x41\n        /* \"#utility.yul\":830:831   */\n      0x04\n        /* \"#utility.yul\":823:838   */\n      mstore\n        /* \"#utility.yul\":857:861   */\n      0x24\n        /* \"#utility.yul\":854:855   */\n      0x00\n        /* \"#utility.yul\":847:862   */\n      revert\n        /* \"#utility.yul\":874:1155   */\n    tag_66:\n        /* \"#utility.yul\":957:984   */\n      tag_106\n        /* \"#utility.yul\":979:983   */\n      dup3\n        /* \"#utility.yul\":957:984   */\n      tag_64\n      jump\t// in\n    tag_106:\n        /* \"#utility.yul\":949:955   */\n      dup2\n        /* \"#utility.yul\":945:985   */\n      add\n        /* \"#utility.yul\":1087:1093   */\n      dup2\n        /* \"#utility.yul\":1075:1085   */\n      dup2\n        /* \"#utility.yul\":1072:1094   */\n      lt\n        /* \"#utility.yul\":1051:1069   */\n      0xffffffffffffffff\n        /* \"#utility.yul\":1039:1049   */\n      dup3\n        /* \"#utility.yul\":1036:1070   */\n      gt\n        /* \"#utility.yul\":1033:1095   */\n      or\n        /* \"#utility.yul\":1030:1118   */\n      iszero\n      tag_107\n      jumpi\n        /* \"#utility.yul\":1098:1116   */\n      tag_108\n      tag_65\n      jump\t// in\n    tag_108:\n        /* \"#utility.yul\":1030:1118   */\n    tag_107:\n        /* \"#utility.yul\":1138:1148   */\n      dup1\n        /* \"#utility.yul\":1134:1136   */\n      0x40\n        /* \"#utility.yul\":1127:1149   */\n      mstore\n        /* \"#utility.yul\":917:1155   */\n      pop\n        /* \"#utility.yul\":874:1155   */\n      pop\n      pop\n      jump\t// out\n        /* \"#utility.yul\":1161:1290   */\n    tag_67:\n        /* \"#utility.yul\":1195:1201   */\n      0x00\n        /* \"#utility.yul\":1222:1242   */\n      tag_110\n      tag_59\n      jump\t// in\n    tag_110:\n        /* \"#utility.yul\":1212:1242   */\n      swap1\n      pop\n        /* \"#utility.yul\":1251:1284   */\n      tag_111\n        /* \"#utility.yul\":1279:1283   */\n      dup3\n        /* \"#utility.yul\":1271:1277   */\n      dup3\n        /* \"#utility.yul\":1251:1284   */\n      tag_66\n      jump\t// in\n    tag_111:\n        /* \"#utility.yul\":1161:1290   */\n      swap2\n      swap1\n      pop\n      jump\t// out\n        /* \"#utility.yul\":1296:1604   */\n    tag_68:\n        /* \"#utility.yul\":1358:1362   */\n      0x00\n        /* \"#utility.yul\":1448:1466   */\n      0xffffffffffffffff\n        /* \"#utility.yul\":1440:1446   */\n      dup3\n        /* \"#utility.yul\":1437:1467   */\n      gt\n        /* \"#utility.yul\":1434:1490   */\n      iszero\n      tag_113\n      jumpi\n        /* \"#utility.yul\":1470:1488   */\n      tag_114\n      tag_65\n      jump\t// in\n    tag_114:\n        /* \"#utility.yul\":1434:1490   */\n    tag_113:\n        /* \"#utility.yul\":1508:1537   */\n      tag_115\n        /* \"#utility.yul\":1530:1536   */\n      dup3\n        /* \"#utility.yul\":1508:1537   */\n      tag_64\n      jump\t// in\n    tag_115:\n        /* \"#utility.yul\":1500:1537   */\n      swap1\n      pop\n        /* \"#utility.yul\":1592:1596   */\n      0x20\n        /* \"#utility.yul\":1586:1590   */\n      dup2\n        /* \"#utility.yul\":1582:1597   */\n      add\n        /* \"#utility.yul\":1574:1597   */\n      swap1\n      pop\n        /* \"#utility.yul\":1296:1604   */\n      swap2\n      swap1\n      pop\n      jump\t// out\n        /* \"#utility.yul\":1610:1756   */\n    tag_69:\n        /* \"#utility.yul\":1707:1713   */\n      dup3\n        /* \"#utility.yul\":1702:1705   */\n      dup2\n        /* \"#utility.yul\":1697:1700   */\n      dup4\n        /* \"#utility.yul\":1684:1714   */\n      calldatacopy\n        /* \"#utility.yul\":1748:1749   */\n      0x00\n        /* \"#utility.yul\":1739:1745   */\n      dup4\n        /* \"#utility.yul\":1734:1737   */\n      dup4\n        /* \"#utility.yul\":1730:1746   */\n      add\n        /* \"#utility.yul\":1723:1750   */\n      mstore\n        /* \"#utility.yul\":1610:1756   */\n      pop\n      pop\n      pop\n      jump\t// out\n        /* \"#utility.yul\":1762:2187   */\n    tag_70:\n        /* \"#utility.yul\":1840:1845   */\n      0x00\n        /* \"#utility.yul\":1865:1931   */\n      tag_118\n        /* \"#utility.yul\":1881:1930   */\n      tag_119\n        /* \"#utility.yul\":1923:1929   */\n      dup5\n        /* \"#utility.yul\":1881:1930   */\n      tag_68\n      jump\t// in\n    tag_119:\n        /* \"#utility.yul\":1865:1931   */\n      tag_67\n      jump\t// in\n    tag_118:\n        /* \"#utility.yul\":1856:1931   */\n      swap1\n      pop\n        /* \"#utility.yul\":1954:1960   */\n      dup3\n        /* \"#utility.yul\":1947:1952   */\n      dup2\n        /* \"#utility.yul\":1940:1961   */\n      mstore\n        /* \"#utility.yul\":1992:1996   */\n      0x20\n        /* \"#utility.yul\":1985:1990   */\n      dup2\n        /* \"#utility.yul\":1981:1997   */\n      add\n        /* \"#utility.yul\":2030:2033   */\n      dup5\n        /* \"#utility.yul\":2021:2027   */\n      dup5\n        /* \"#utility.yul\":2016:2019   */\n      dup5\n        /* \"#utility.yul\":2012:2028   */\n      add\n        /* \"#utility.yul\":2009:2034   */\n      gt\n        /* \"#utility.yul\":2006:2118   */\n      iszero\n      tag_120\n      jumpi\n        /* \"#utility.yul\":2037:2116   */\n      tag_121\n      tag_63\n      jump\t// in\n    tag_121:\n        /* \"#utility.yul\":2006:2118   */\n    tag_120:\n        /* \"#utility.yul\":2127:2181   */\n      tag_122\n        /* \"#utility.yul\":2174:2180   */\n      dup5\n        /* \"#utility.yul\":2169:2172   */\n      dup3\n        /* \"#utility.yul\":2164:2167   */\n      dup6\n        /* \"#utility.yul\":2127:2181   */\n      tag_69\n      jump\t// in\n    tag_122:\n        /* \"#utility.yul\":1846:2187   */\n      pop\n        /* \"#utility.yul\":1762:2187   */\n      swap4\n      swap3\n      pop\n      pop\n      pop\n      jump\t// out\n        /* \"#utility.yul\":2207:2547   */\n    tag_71:\n        /* \"#utility.yul\":2263:2268   */\n      0x00\n        /* \"#utility.yul\":2312:2315   */\n      dup3\n        /* \"#utility.yul\":2305:2309   */\n      0x1f\n        /* \"#utility.yul\":2297:2303   */\n      dup4\n        /* \"#utility.yul\":2293:2310   */\n      add\n        /* \"#utility.yul\":2289:2316   */\n      slt\n        /* \"#utility.yul\":2279:2401   */\n      tag_124\n      jumpi\n        /* \"#utility.yul\":2320:2399   */\n      tag_125\n      tag_62\n      jump\t// in\n    tag_125:\n        /* \"#utility.yul\":2279:2401   */\n    tag_124:\n        /* \"#utility.yul\":2437:2443   */\n      dup2\n        /* \"#utility.yul\":2424:2444   */\n      calldataload\n        /* \"#utility.yul\":2462:2541   */\n      tag_126\n        /* \"#utility.yul\":2537:2540   */\n      dup5\n        /* \"#utility.yul\":2529:2535   */\n      dup3\n        /* \"#utility.yul\":2522:2526   */\n      0x20\n        /* \"#utility.yul\":2514:2520   */\n      dup7\n        /* \"#utility.yul\":2510:2527   */\n      add\n        /* \"#utility.yul\":2462:2541   */\n      tag_70\n      jump\t// in\n    tag_126:\n        /* \"#utility.yul\":2453:2541   */\n      swap2\n      pop\n        /* \"#utility.yul\":2269:2547   */\n      pop\n        /* \"#utility.yul\":2207:2547   */\n      swap3\n      swap2\n      pop\n      pop\n      jump\t// out\n        /* \"#utility.yul\":2553:3062   */\n    tag_10:\n        /* \"#utility.yul\":2622:2628   */\n      0x00\n        /* \"#utility.yul\":2671:2673   */\n      0x20\n        /* \"#utility.yul\":2659:2668   */\n      dup3\n        /* \"#utility.yul\":2650:2657   */\n      dup5\n        /* \"#utility.yul\":2646:2669   */\n      sub\n        /* \"#utility.yul\":2642:2674   */\n      slt\n        /* \"#utility.yul\":2639:2758   */\n      iszero\n      tag_128\n      jumpi\n        /* \"#utility.yul\":2677:2756   */\n      tag_129\n      tag_60\n      jump\t// in\n    tag_129:\n        /* \"#utility.yul\":2639:2758   */\n    tag_128:\n        /* \"#utility.yul\":2825:2826   */\n      0x00\n        /* \"#utility.yul\":2814:2823   */\n      dup3\n        /* \"#utility.yul\":2810:2827   */\n      add\n        /* \"#utility.yul\":2797:2828   */\n      calldataload\n        /* \"#utility.yul\":2855:2873   */\n      0xffffffffffffffff\n        /* \"#utility.yul\":2847:2853   */\n      dup2\n        /* \"#utility.yul\":2844:2874   */\n      gt\n        /* \"#utility.yul\":2841:2958   */\n      iszero\n      tag_130\n      jumpi\n        /* \"#utility.yul\":2877:2956   */\n      tag_131\n      tag_61\n      jump\t// in\n    tag_131:\n        /* \"#utility.yul\":2841:2958   */\n    tag_130:\n        /* \"#utility.yul\":2982:3045   */\n      tag_132\n        /* \"#utility.yul\":3037:3044   */\n      dup5\n        /* \"#utility.yul\":3028:3034   */\n      dup3\n        /* \"#utility.yul\":3017:3026   */\n      dup6\n        /* \"#utility.yul\":3013:3035   */\n      add\n        /* \"#utility.yul\":2982:3045   */\n      tag_71\n      jump\t// in\n    tag_132:\n        /* \"#utility.yul\":2972:3045   */\n      swap2\n      pop\n        /* \"#utility.yul\":2768:3055   */\n      pop\n        /* \"#utility.yul\":2553:3062   */\n      swap3\n      swap2\n      pop\n      pop\n      jump\t// out\n        /* \"#utility.yul\":3068:3167   */\n    tag_72:\n        /* \"#utility.yul\":3120:3126   */\n      0x00\n        /* \"#utility.yul\":3154:3159   */\n      dup2\n        /* \"#utility.yul\":3148:3160   */\n      mload\n        /* \"#utility.yul\":3138:3160   */\n      swap1\n      pop\n        /* \"#utility.yul\":3068:3167   */\n      swap2\n      swap1\n      pop\n      jump\t// out\n        /* \"#utility.yul\":3173:3342   */\n    tag_73:\n        /* \"#utility.yul\":3257:3268   */\n      0x00\n        /* \"#utility.yul\":3291:3297   */\n      dup3\n        /* \"#utility.yul\":3286:3289   */\n      dup3\n        /* \"#utility.yul\":3279:3298   */\n      mstore\n        /* \"#utility.yul\":3331:3335   */\n      0x20\n        /* \"#utility.yul\":3326:3329   */\n      dup3\n        /* \"#utility.yul\":3322:3336   */\n      add\n        /* \"#utility.yul\":3307:3336   */\n      swap1\n      pop\n        /* \"#utility.yul\":3173:3342   */\n      swap3\n      swap2\n      pop\n      pop\n      jump\t// out\n        /* \"#utility.yul\":3348:3594   */\n    tag_74:\n        /* \"#utility.yul\":3429:3430   */\n      0x00\n        /* \"#utility.yul\":3439:3552   */\n    tag_136:\n        /* \"#utility.yul\":3453:3459   */\n      dup4\n        /* \"#utility.yul\":3450:3451   */\n      dup2\n        /* \"#utility.yul\":3447:3460   */\n      lt\n        /* \"#utility.yul\":3439:3552   */\n      iszero\n      tag_138\n      jumpi\n        /* \"#utility.yul\":3538:3539   */\n      dup1\n        /* \"#utility.yul\":3533:3536   */\n      dup3\n        /* \"#utility.yul\":3529:3540   */\n      add\n        /* \"#utility.yul\":3523:3541   */\n      mload\n        /* \"#utility.yul\":3519:3520   */\n      dup2\n        /* \"#utility.yul\":3514:3517   */\n      dup5\n        /* \"#utility.yul\":3510:3521   */\n      add\n        /* \"#utility.yul\":3503:3542   */\n      mstore\n        /* \"#utility.yul\":3475:3477   */\n      0x20\n        /* \"#utility.yul\":3472:3473   */\n      dup2\n        /* \"#utility.yul\":3468:3478   */\n      add\n        /* \"#utility.yul\":3463:3478   */\n      swap1\n      pop\n        /* \"#utility.yul\":3439:3552   */\n      jump(tag_136)\n    tag_138:\n        /* \"#utility.yul\":3586:3587   */\n      0x00\n        /* \"#utility.yul\":3577:3583   */\n      dup5\n        /* \"#utility.yul\":3572:3575   */\n      dup5\n        /* \"#utility.yul\":3568:3584   */\n      add\n        /* \"#utility.yul\":3561:3588   */\n      mstore\n        /* \"#utility.yul\":3410:3594   */\n      pop\n        /* \"#utility.yul\":3348:3594   */\n      pop\n      pop\n      pop\n      jump\t// out\n        /* \"#utility.yul\":3600:3977   */\n    tag_75:\n        /* \"#utility.yul\":3688:3691   */\n      0x00\n        /* \"#utility.yul\":3716:3755   */\n      tag_140\n        /* \"#utility.yul\":3749:3754   */\n      dup3\n        /* \"#utility.yul\":3716:3755   */\n      tag_72\n      jump\t// in\n    tag_140:\n        /* \"#utility.yul\":3771:3842   */\n      tag_141\n        /* \"#utility.yul\":3835:3841   */\n      dup2\n        /* \"#utility.yul\":3830:3833   */\n      dup6\n        /* \"#utility.yul\":3771:3842   */\n      tag_73\n      jump\t// in\n    tag_141:\n        /* \"#utility.yul\":3764:3842   */\n      swap4\n      pop\n        /* \"#utility.yul\":3851:3916   */\n      tag_142\n        /* \"#utility.yul\":3909:3915   */\n      dup2\n        /* \"#utility.yul\":3904:3907   */\n      dup6\n        /* \"#utility.yul\":3897:3901   */\n      0x20\n        /* \"#utility.yul\":3890:3895   */\n      dup7\n        /* \"#utility.yul\":3886:3902   */\n      add\n        /* \"#utility.yul\":3851:3916   */\n      tag_74\n      jump\t// in\n    tag_142:\n        /* \"#utility.yul\":3941:3970   */\n      tag_143\n        /* \"#utility.yul\":3963:3969   */\n      dup2\n        /* \"#utility.yul\":3941:3970   */\n      tag_64\n      jump\t// in\n    tag_143:\n        /* \"#utility.yul\":3936:3939   */\n      dup5\n        /* \"#utility.yul\":3932:3971   */\n      add\n        /* \"#utility.yul\":3925:3971   */\n      swap2\n      pop\n        /* \"#utility.yul\":3692:3977   */\n      pop\n        /* \"#utility.yul\":3600:3977   */\n      swap3\n      swap2\n      pop\n      pop\n      jump\t// out\n        /* \"#utility.yul\":3983:4296   */\n    tag_13:\n        /* \"#utility.yul\":4096:4100   */\n      0x00\n        /* \"#utility.yul\":4134:4136   */\n      0x20\n        /* \"#utility.yul\":4123:4132   */\n      dup3\n        /* \"#utility.yul\":4119:4137   */\n      add\n        /* \"#utility.yul\":4111:4137   */\n      swap1\n      pop\n        /* \"#utility.yul\":4183:4192   */\n      dup2\n        /* \"#utility.yul\":4177:4181   */\n      dup2\n        /* \"#utility.yul\":4173:4193   */\n      sub\n        /* \"#utility.yul\":4169:4170   */\n      0x00\n        /* \"#utility.yul\":4158:4167   */\n      dup4\n        /* \"#utility.yul\":4154:4171   */\n      add\n        /* \"#utility.yul\":4147:4194   */\n      mstore\n        /* \"#utility.yul\":4211:4289   */\n      tag_145\n        /* \"#utility.yul\":4284:4288   */\n      dup2\n        /* \"#utility.yul\":4275:4281   */\n      dup5\n        /* \"#utility.yul\":4211:4289   */\n      tag_75\n      jump\t// in\n    tag_145:\n        /* \"#utility.yul\":4203:4289   */\n      swap1\n      pop\n        /* \"#utility.yul\":3983:4296   */\n      swap3\n      swap2\n      pop\n      pop\n      jump\t// out\n        /* \"#utility.yul\":4302:5136   */\n    tag_16:\n        /* \"#utility.yul\":4390:4396   */\n      0x00\n        /* \"#utility.yul\":4398:4404   */\n      dup1\n        /* \"#utility.yul\":4447:4449   */\n      0x40\n        /* \"#utility.yul\":4435:4444   */\n      dup4\n        /* \"#utility.yul\":4426:4433   */\n      dup6\n        /* \"#utility.yul\":4422:4445   */\n      sub\n        /* \"#utility.yul\":4418:4450   */\n      slt\n        /* \"#utility.yul\":4415:4534   */\n      iszero\n      tag_147\n      jumpi\n        /* \"#utility.yul\":4453:4532   */\n      tag_148\n      tag_60\n      jump\t// in\n    tag_148:\n        /* \"#utility.yul\":4415:4534   */\n    tag_147:\n        /* \"#utility.yul\":4601:4602   */\n      0x00\n        /* \"#utility.yul\":4590:4599   */\n      dup4\n        /* \"#utility.yul\":4586:4603   */\n      add\n        /* \"#utility.yul\":4573:4604   */\n      calldataload\n        /* \"#utility.yul\":4631:4649   */\n      0xffffffffffffffff\n        /* \"#utility.yul\":4623:4629   */\n      dup2\n        /* \"#utility.yul\":4620:4650   */\n      gt\n        /* \"#utility.yul\":4617:4734   */\n      iszero\n      tag_149\n      jumpi\n        /* \"#utility.yul\":4653:4732   */\n      tag_150\n      tag_61\n      jump\t// in\n    tag_150:\n        /* \"#utility.yul\":4617:4734   */\n    tag_149:\n        /* \"#utility.yul\":4758:4821   */\n      tag_151\n        /* \"#utility.yul\":4813:4820   */\n      dup6\n        /* \"#utility.yul\":4804:4810   */\n      dup3\n        /* \"#utility.yul\":4793:4802   */\n      dup7\n        /* \"#utility.yul\":4789:4811   */\n      add\n        /* \"#utility.yul\":4758:4821   */\n      tag_71\n      jump\t// in\n    tag_151:\n        /* \"#utility.yul\":4748:4821   */\n      swap3\n      pop\n        /* \"#utility.yul\":4544:4831   */\n      pop\n        /* \"#utility.yul\":4898:4900   */\n      0x20\n        /* \"#utility.yul\":4887:4896   */\n      dup4\n        /* \"#utility.yul\":4883:4901   */\n      add\n        /* \"#utility.yul\":4870:4902   */\n      calldataload\n        /* \"#utility.yul\":4929:4947   */\n      0xffffffffffffffff\n        /* \"#utility.yul\":4921:4927   */\n      dup2\n        /* \"#utility.yul\":4918:4948   */\n      gt\n        /* \"#utility.yul\":4915:5032   */\n      iszero\n      tag_152\n      jumpi\n        /* \"#utility.yul\":4951:5030   */\n      tag_153\n      tag_61\n      jump\t// in\n    tag_153:\n        /* \"#utility.yul\":4915:5032   */\n    tag_152:\n        /* \"#utility.yul\":5056:5119   */\n      tag_154\n        /* \"#utility.yul\":5111:5118   */\n      dup6\n        /* \"#utility.yul\":5102:5108   */\n      dup3\n        /* \"#utility.yul\":5091:5100   */\n      dup7\n        /* \"#utility.yul\":5087:5109   */\n      add\n        /* \"#utility.yul\":5056:5119   */\n      tag_71\n      jump\t// in\n    tag_154:\n        /* \"#utility.yul\":5046:5119   */\n      swap2\n      pop\n        /* \"#utility.yul\":4841:5129   */\n      pop\n        /* \"#utility.yul\":4302:5136   */\n      swap3\n      pop\n      swap3\n      swap1\n      pop\n      jump\t// out\n        /* \"#utility.yul\":5142:5232   */\n    tag_76:\n        /* \"#utility.yul\":5176:5183   */\n      0x00\n        /* \"#utility.yul\":5219:5224   */\n      dup2\n        /* \"#utility.yul\":5212:5225   */\n      iszero\n        /* \"#utility.yul\":5205:5226   */\n      iszero\n        /* \"#utility.yul\":5194:5226   */\n      swap1\n      pop\n        /* \"#utility.yul\":5142:5232   */\n      swap2\n      swap1\n      pop\n      jump\t// out\n        /* \"#utility.yul\":5238:5347   */\n    tag_77:\n        /* \"#utility.yul\":5319:5340   */\n      tag_157\n        /* \"#utility.yul\":5334:5339   */\n      dup2\n        /* \"#utility.yul\":5319:5340   */\n      tag_76\n      jump\t// in\n    tag_157:\n        /* \"#utility.yul\":5314:5317   */\n      dup3\n        /* \"#utility.yul\":5307:5341   */\n      mstore\n        /* \"#utility.yul\":5238:5347   */\n      pop\n      pop\n      jump\t// out\n        /* \"#utility.yul\":5353:5563   */\n    tag_22:\n        /* \"#utility.yul\":5440:5444   */\n      0x00\n        /* \"#utility.yul\":5478:5480   */\n      0x20\n        /* \"#utility.yul\":5467:5476   */\n      dup3\n        /* \"#utility.yul\":5463:5481   */\n      add\n        /* \"#utility.yul\":5455:5481   */\n      swap1\n      pop\n        /* \"#utility.yul\":5491:5556   */\n      tag_159\n        /* \"#utility.yul\":5553:5554   */\n      0x00\n        /* \"#utility.yul\":5542:5551   */\n      dup4\n        /* \"#utility.yul\":5538:5555   */\n      add\n        /* \"#utility.yul\":5529:5535   */\n      dup5\n        /* \"#utility.yul\":5491:5556   */\n      tag_77\n      jump\t// in\n    tag_159:\n        /* \"#utility.yul\":5353:5563   */\n      swap3\n      swap2\n      pop\n      pop\n      jump\t// out\n        /* \"#utility.yul\":5569:5717   */\n    tag_78:\n        /* \"#utility.yul\":5671:5682   */\n      0x00\n        /* \"#utility.yul\":5708:5711   */\n      dup2\n        /* \"#utility.yul\":5693:5711   */\n      swap1\n      pop\n        /* \"#utility.yul\":5569:5717   */\n      swap3\n      swap2\n      pop\n      pop\n      jump\t// out\n        /* \"#utility.yul\":5723:6113   */\n    tag_79:\n        /* \"#utility.yul\":5829:5832   */\n      0x00\n        /* \"#utility.yul\":5857:5896   */\n      tag_162\n        /* \"#utility.yul\":5890:5895   */\n      dup3\n        /* \"#utility.yul\":5857:5896   */\n      tag_72\n      jump\t// in\n    tag_162:\n        /* \"#utility.yul\":5912:6001   */\n      tag_163\n        /* \"#utility.yul\":5994:6000   */\n      dup2\n        /* \"#utility.yul\":5989:5992   */\n      dup6\n        /* \"#utility.yul\":5912:6001   */\n      tag_78\n      jump\t// in\n    tag_163:\n        /* \"#utility.yul\":5905:6001   */\n      swap4\n      pop\n        /* \"#utility.yul\":6010:6075   */\n      tag_164\n        /* \"#utility.yul\":6068:6074   */\n      dup2\n        /* \"#utility.yul\":6063:6066   */\n      dup6\n        /* \"#utility.yul\":6056:6060   */\n      0x20\n        /* \"#utility.yul\":6049:6054   */\n      dup7\n        /* \"#utility.yul\":6045:6061   */\n      add\n        /* \"#utility.yul\":6010:6075   */\n      tag_74\n      jump\t// in\n    tag_164:\n        /* \"#utility.yul\":6100:6106   */\n      dup1\n        /* \"#utility.yul\":6095:6098   */\n      dup5\n        /* \"#utility.yul\":6091:6107   */\n      add\n        /* \"#utility.yul\":6084:6107   */\n      swap2\n      pop\n        /* \"#utility.yul\":5833:6113   */\n      pop\n        /* \"#utility.yul\":5723:6113   */\n      swap3\n      swap2\n      pop\n      pop\n      jump\t// out\n        /* \"#utility.yul\":6119:6394   */\n    tag_33:\n        /* \"#utility.yul\":6251:6254   */\n      0x00\n        /* \"#utility.yul\":6273:6368   */\n      tag_166\n        /* \"#utility.yul\":6364:6367   */\n      dup3\n        /* \"#utility.yul\":6355:6361   */\n      dup5\n        /* \"#utility.yul\":6273:6368   */\n      tag_79\n      jump\t// in\n    tag_166:\n        /* \"#utility.yul\":6266:6368   */\n      swap2\n      pop\n        /* \"#utility.yul\":6385:6388   */\n      dup2\n        /* \"#utility.yul\":6378:6388   */\n      swap1\n      pop\n        /* \"#utility.yul\":6119:6394   */\n      swap3\n      swap2\n      pop\n      pop\n      jump\t// out\n        /* \"#utility.yul\":6400:6580   */\n    tag_80:\n        /* \"#utility.yul\":6448:6525   */\n      0x4e487b7100000000000000000000000000000000000000000000000000000000\n        /* \"#utility.yul\":6445:6446   */\n      0x00\n        /* \"#utility.yul\":6438:6526   */\n      mstore\n        /* \"#utility.yul\":6545:6549   */\n      0x22\n        /* \"#utility.yul\":6542:6543   */\n      0x04\n        /* \"#utility.yul\":6535:6550   */\n      mstore\n        /* \"#utility.yul\":6569:6573   */\n      0x24\n        /* \"#utility.yul\":6566:6567   */\n      0x00\n        /* \"#utility.yul\":6559:6574   */\n      revert\n        /* \"#utility.yul\":6586:6906   */\n    tag_35:\n        /* \"#utility.yul\":6630:6636   */\n      0x00\n        /* \"#utility.yul\":6667:6668   */\n      0x02\n        /* \"#utility.yul\":6661:6665   */\n      dup3\n        /* \"#utility.yul\":6657:6669   */\n      div\n        /* \"#utility.yul\":6647:6669   */\n      swap1\n      pop\n        /* \"#utility.yul\":6714:6715   */\n      0x01\n        /* \"#utility.yul\":6708:6712   */\n      dup3\n        /* \"#utility.yul\":6704:6716   */\n      and\n        /* \"#utility.yul\":6735:6753   */\n      dup1\n        /* \"#utility.yul\":6725:6806   */\n      tag_169\n      jumpi\n        /* \"#utility.yul\":6791:6795   */\n      0x7f\n        /* \"#utility.yul\":6783:6789   */\n      dup3\n        /* \"#utility.yul\":6779:6796   */\n      and\n        /* \"#utility.yul\":6769:6796   */\n      swap2\n      pop\n        /* \"#utility.yul\":6725:6806   */\n    tag_169:\n        /* \"#utility.yul\":6853:6855   */\n      0x20\n        /* \"#utility.yul\":6845:6851   */\n      dup3\n        /* \"#utility.yul\":6842:6856   */\n      lt\n        /* \"#utility.yul\":6822:6840   */\n      dup2\n        /* \"#utility.yul\":6819:6857   */\n      sub\n        /* \"#utility.yul\":6816:6900   */\n      tag_170\n      jumpi\n        /* \"#utility.yul\":6872:6890   */\n      tag_171\n      tag_80\n      jump\t// in\n    tag_171:\n        /* \"#utility.yul\":6816:6900   */\n    tag_170:\n        /* \"#utility.yul\":6637:6906   */\n      pop\n        /* \"#utility.yul\":6586:6906   */\n      swap2\n      swap1\n      pop\n      jump\t// out\n        /* \"#utility.yul\":6912:7053   */\n    tag_81:\n        /* \"#utility.yul\":6961:6965   */\n      0x00\n        /* \"#utility.yul\":6984:6987   */\n      dup2\n        /* \"#utility.yul\":6976:6987   */\n      swap1\n      pop\n        /* \"#utility.yul\":7007:7010   */\n      dup2\n        /* \"#utility.yul\":7004:7005   */\n      0x00\n        /* \"#utility.yul\":6997:7011   */\n      mstore\n        /* \"#utility.yul\":7041:7045   */\n      0x20\n        /* \"#utility.yul\":7038:7039   */\n      0x00\n        /* \"#utility.yul\":7028:7046   */\n      keccak256\n        /* \"#utility.yul\":7020:7046   */\n      swap1\n      pop\n        /* \"#utility.yul\":6912:7053   */\n      swap2\n      swap1\n      pop\n      jump\t// out\n        /* \"#utility.yul\":7059:7152   */\n    tag_82:\n        /* \"#utility.yul\":7096:7102   */\n      0x00\n        /* \"#utility.yul\":7143:7145   */\n      0x20\n        /* \"#utility.yul\":7138:7140   */\n      0x1f\n        /* \"#utility.yul\":7131:7136   */\n      dup4\n        /* \"#utility.yul\":7127:7141   */\n      add\n        /* \"#utility.yul\":7123:7146   */\n      div\n        /* \"#utility.yul\":7113:7146   */\n      swap1\n      pop\n        /* \"#utility.yul\":7059:7152   */\n      swap2\n      swap1\n      pop\n      jump\t// out\n        /* \"#utility.yul\":7158:7265   */\n    tag_83:\n        /* \"#utility.yul\":7202:7210   */\n      0x00\n        /* \"#utility.yul\":7252:7257   */\n      dup3\n        /* \"#utility.yul\":7246:7250   */\n      dup3\n        /* \"#utility.yul\":7242:7258   */\n      shl\n        /* \"#utility.yul\":7221:7258   */\n      swap1\n      pop\n        /* \"#utility.yul\":7158:7265   */\n      swap3\n      swap2\n      pop\n      pop\n      jump\t// out\n        /* \"#utility.yul\":7271:7664   */\n    tag_84:\n        /* \"#utility.yul\":7340:7346   */\n      0x00\n        /* \"#utility.yul\":7390:7391   */\n      0x08\n        /* \"#utility.yul\":7378:7388   */\n      dup4\n        /* \"#utility.yul\":7374:7392   */\n      mul\n        /* \"#utility.yul\":7413:7510   */\n      tag_176\n        /* \"#utility.yul\":7443:7509   */\n      0xffffffffffffffffffffffffffffffffffffffffffffffffffffffffffffffff\n        /* \"#utility.yul\":7432:7441   */\n      dup3\n        /* \"#utility.yul\":7413:7510   */\n      tag_83\n      jump\t// in\n    tag_176:\n        /* \"#utility.yul\":7531:7570   */\n      tag_177\n        /* \"#utility.yul\":7561:7569   */\n      dup7\n        /* \"#utility.yul\":7550:7559   */\n      dup4\n        /* \"#utility.yul\":7531:7570   */\n      tag_83\n      jump\t// in\n    tag_177:\n        /* \"#utility.yul\":7519:7570   */\n      swap6\n      pop\n        /* \"#utility.yul\":7603:7607   */\n      dup1\n        /* \"#utility.yul\":7599:7608   */\n      not\n        /* \"#utility.yul\":7592:7597   */\n      dup5\n        /* \"#utility.yul\":7588:7609   */\n      and\n        /* \"#utility.yul\":7579:7609   */\n      swap4\n      pop\n        /* \"#utility.yul\":7652:7656   */\n      dup1\n        /* \"#utility.yul\":7642:7650   */\n      dup7\n        /* \"#utility.yul\":7638:7657   */\n      and\n        /* \"#utility.yul\":7631:7636   */\n      dup5\n        /* \"#utility.yul\":7628:7658   */\n      or\n        /* \"#utility.yul\":7618:7658   */\n      swap3\n      pop\n        /* \"#utility.yul\":7347:7664   */\n      pop\n      pop\n        /* \"#utility.yul\":7271:7664   */\n      swap4\n      swap3\n      pop\n      pop\n      pop\n      jump\t// out\n        /* \"#utility.yul\":7670:7747   */\n    tag_85:\n        /* \"#utility.yul\":7707:7714   */\n      0x00\n        /* \"#utility.yul\":7736:7741   */\n      dup2\n        /* \"#utility.yul\":7725:7741   */\n      swap1\n      pop\n        /* \"#utility.yul\":7670:7747   */\n      swap2\n      swap1\n      pop\n      jump\t// out\n        /* \"#utility.yul\":7753:7813   */\n    tag_86:\n        /* \"#utility.yul\":7781:7784   */\n      0x00\n        /* \"#utility.yul\":7802:7807   */\n      dup2\n        /* \"#utility.yul\":7795:7807   */\n      swap1\n      pop\n        /* \"#utility.yul\":7753:7813   */\n      swap2\n      swap1\n      pop\n      jump\t// out\n        /* \"#utility.yul\":7819:7961   */\n    tag_87:\n        /* \"#utility.yul\":7869:7878   */\n      0x00\n        /* \"#utility.yul\":7902:7955   */\n      tag_181\n        /* \"#utility.yul\":7920:7954   */\n      tag_182\n        /* \"#utility.yul\":7929:7953   */\n      tag_183\n        /* \"#utility.yul\":7947:7952   */\n      dup5\n        /* \"#utility.yul\":7929:7953   */\n      tag_85\n      jump\t// in\n    tag_183:\n        /* \"#utility.yul\":7920:7954   */\n      tag_86\n      jump\t// in\n    tag_182:\n        /* \"#utility.yul\":7902:7955   */\n      tag_85\n      jump\t// in\n    tag_181:\n        /* \"#utility.yul\":7889:7955   */\n      swap1\n      pop\n        /* \"#utility.yul\":7819:7961   */\n      swap2\n      swap1\n      pop\n      jump\t// out\n        /* \"#utility.yul\":7967:8042   */\n    tag_88:\n        /* \"#utility.yul\":8010:8013   */\n      0x00\n        /* \"#utility.yul\":8031:8036   */\n      dup2\n        /* \"#utility.yul\":8024:8036   */\n      swap1\n      pop\n        /* \"#utility.yul\":7967:8042   */\n      swap2\n      swap1\n      pop\n      jump\t// out\n        /* \"#utility.yul\":8048:8317   */\n    tag_89:\n        /* \"#utility.yul\":8158:8197   */\n      tag_186\n        /* \"#utility.yul\":8189:8196   */\n      dup4\n        /* \"#utility.yul\":8158:8197   */\n      tag_87\n      jump\t// in\n    tag_186:\n        /* \"#utility.yul\":8219:8310   */\n      tag_187\n        /* \"#utility.yul\":8268:8309   */\n      tag_188\n        /* \"#utility.yul\":8292:8308   */\n      dup3\n        /* \"#utility.yul\":8268:8309   */\n      tag_88\n      jump\t// in\n    tag_188:\n        /* \"#utility.yul\":8260:8266   */\n      dup5\n        /* \"#utility.yul\":8253:8257   */\n      dup5\n        /* \"#utility.yul\":8247:8258   */\n      sload\n        /* \"#utility.yul\":8219:8310   */\n      tag_84\n      jump\t// in\n    tag_187:\n        /* \"#utility.yul\":8213:8217   */\n      dup3\n        /* \"#utility.yul\":8206:8311   */\n      sstore\n        /* \"#utility.yul\":8124:8317   */\n      pop\n        /* \"#utility.yul\":8048:8317   */\n      pop\n      pop\n      pop\n      jump\t// out\n        /* \"#utility.yul\":8323:8396   */\n    tag_90:\n        /* \"#utility.yul\":8368:8371   */\n      0x00\n        /* \"#utility.yul\":8323:8396   */\n      swap1\n      jump\t// out\n        /* \"#utility.yul\":8402:8591   */\n    tag_91:\n        /* \"#utility.yul\":8479:8511   */\n      tag_191\n      tag_90\n      jump\t// in\n    tag_191:\n        /* \"#utility.yul\":8520:8585   */\n      tag_192\n        /* \"#utility.yul\":8578:8584   */\n      dup2\n        /* \"#utility.yul\":8570:8576   */\n      dup5\n        /* \"#utility.yul\":8564:8568   */\n      dup5\n        /* \"#utility.yul\":8520:8585   */\n      tag_89\n      jump\t// in\n    tag_192:\n        /* \"#utility.yul\":8455:8591   */\n      pop\n        /* \"#utility.yul\":8402:8591   */\n      pop\n      pop\n      jump\t// out\n        /* \"#utility.yul\":8597:8783   */\n    tag_92:\n        /* \"#utility.yul\":8657:8777   */\n    tag_194:\n        /* \"#utility.yul\":8674:8677   */\n      dup2\n        /* \"#utility.yul\":8667:8672   */\n      dup2\n        /* \"#utility.yul\":8664:8678   */\n      lt\n        /* \"#utility.yul\":8657:8777   */\n      iszero\n      tag_196\n      jumpi\n        /* \"#utility.yul\":8728:8767   */\n      tag_197\n        /* \"#utility.yul\":8765:8766   */\n      0x00\n        /* \"#utility.yul\":8758:8763   */\n      dup3\n        /* \"#utility.yul\":8728:8767   */\n      tag_91\n      jump\t// in\n    tag_197:\n        /* \"#utility.yul\":8701:8702   */\n      0x01\n        /* \"#utility.yul\":8694:8699   */\n      dup2\n        /* \"#utility.yul\":8690:8703   */\n      add\n        /* \"#utility.yul\":8681:8703   */\n      swap1\n      pop\n        /* \"#utility.yul\":8657:8777   */\n      jump(tag_194)\n    tag_196:\n        /* \"#utility.yul\":8597:8783   */\n      pop\n      pop\n      jump\t// out\n        /* \"#utility.yul\":8789:9332   */\n    tag_93:\n        /* \"#utility.yul\":8890:8892   */\n      0x1f\n        /* \"#utility.yul\":8885:8888   */\n      dup3\n        /* \"#utility.yul\":8882:8893   */\n      gt\n        /* \"#utility.yul\":8879:9325   */\n      iszero\n      tag_199\n      jumpi\n        /* \"#utility.yul\":8924:8962   */\n      tag_200\n        /* \"#utility.yul\":8956:8961   */\n      dup2\n        /* \"#utility.yul\":8924:8962   */\n      tag_81\n      jump\t// in\n    tag_200:\n        /* \"#utility.yul\":9008:9037   */\n      tag_201\n        /* \"#utility.yul\":9026:9036   */\n      dup5\n        /* \"#utility.yul\":9008:9037   */\n      tag_82\n      jump\t// in\n    tag_201:\n        /* \"#utility.yul\":8998:9006   */\n      dup2\n        /* \"#utility.yul\":8994:9038   */\n      add\n        /* \"#utility.yul\":9191:9193   */\n      0x20\n        /* \"#utility.yul\":9179:9189   */\n      dup6\n        /* \"#utility.yul\":9176:9194   */\n      lt\n        /* \"#utility.yul\":9173:9222   */\n      iszero\n      tag_202\n      jumpi\n        /* \"#utility.yul\":9212:9220   */\n      dup2\n        /* \"#utility.yul\":9197:9220   */\n      swap1\n      pop\n        /* \"#utility.yul\":9173:9222   */\n    tag_202:\n        /* \"#utility.yul\":9235:9315   */\n      tag_203\n        /* \"#utility.yul\":9291:9313   */\n      tag_204\n        /* \"#utility.yul\":9309:9312   */\n      dup6\n        /* \"#utility.yul\":9291:9313   */\n      tag_82\n      jump\t// in\n    tag_204:\n        /* \"#utility.yul\":9281:9289   */\n      dup4\n        /* \"#utility.yul\":9277:9314   */\n      add\n        /* \"#utility.yul\":9264:9275   */\n      dup3\n        /* \"#utility.yul\":9235:9315   */\n      tag_92\n      jump\t// in\n    tag_203:\n        /* \"#utility.yul\":8894:9325   */\n      pop\n      pop\n        /* \"#utility.yul\":8879:9325   */\n    tag_199:\n        /* \"#utility.yul\":8789:9332   */\n      pop\n      pop\n      pop\n      jump\t// out\n        /* \"#utility.yul\":9338:9455   */\n    tag_94:\n        /* \"#utility.yul\":9392:9400   */\n      0x00\n        /* \"#utility.yul\":9442:9447   */\n      dup3\n        /* \"#utility.yul\":9436:9440   */\n      dup3\n        /* \"#utility.yul\":9432:9448   */\n      shr\n        /* \"#utility.yul\":9411:9448   */\n      swap1\n      pop\n        /* \"#utility.yul\":9338:9455   */\n      swap3\n      swap2\n      pop\n      pop\n      jump\t// out\n        /* \"#utility.yul\":9461:9630   */\n    tag_95:\n        /* \"#utility.yul\":9505:9511   */\n      0x00\n        /* \"#utility.yul\":9538:9589   */\n      tag_207\n        /* \"#utility.yul\":9586:9587   */\n      0x00\n        /* \"#utility.yul\":9582:9588   */\n      not\n        /* \"#utility.yul\":9574:9579   */\n      dup5\n        /* \"#utility.yul\":9571:9572   */\n      0x08\n        /* \"#utility.yul\":9567:9580   */\n      mul\n        /* \"#utility.yul\":9538:9589   */\n      tag_94\n      jump\t// in\n    tag_207:\n        /* \"#utility.yul\":9534:9590   */\n      not\n        /* \"#utility.yul\":9619:9623   */\n      dup1\n        /* \"#utility.yul\":9613:9617   */\n      dup4\n        /* \"#utility.yul\":9609:9624   */\n      and\n        /* \"#utility.yul\":9599:9624   */\n      swap2\n      pop\n        /* \"#utility.yul\":9512:9630   */\n      pop\n        /* \"#utility.yul\":9461:9630   */\n      swap3\n      swap2\n      pop\n      pop\n      jump\t// out\n        /* \"#utility.yul\":9635:9930   */\n    tag_96:\n        /* \"#utility.yul\":9711:9715   */\n      0x00\n        /* \"#utility.yul\":9857:9886   */\n      tag_209\n        /* \"#utility.yul\":9882:9885   */\n      dup4\n        /* \"#utility.yul\":9876:9880   */\n      dup4\n        /* \"#utility.yul\":9857:9886   */\n      tag_95\n      jump\t// in\n    tag_209:\n        /* \"#utility.yul\":9849:9886   */\n      swap2\n      pop\n        /* \"#utility.yul\":9919:9922   */\n      dup3\n        /* \"#utility.yul\":9916:9917   */\n      0x02\n        /* \"#utility.yul\":9912:9923   */\n      mul\n        /* \"#utility.yul\":9906:9910   */\n      dup3\n        /* \"#utility.yul\":9903:9924   */\n      or\n        /* \"#utility.yul\":9895:9924   */\n      swap1\n      pop\n        /* \"#utility.yul\":9635:9930   */\n      swap3\n      swap2\n      pop\n      pop\n      jump\t// out\n        /* \"#utility.yul\":9935:11330   */\n    tag_43:\n        /* \"#utility.yul\":10052:10089   */\n      tag_211\n        /* \"#utility.yul\":10085:10088   */\n      dup3\n        /* \"#utility.yul\":10052:10089   */\n      tag_72\n      jump\t// in\n    tag_211:\n        /* \"#utility.yul\":10154:10172   */\n      0xffffffffffffffff\n        /* \"#utility.yul\":10146:10152   */\n      dup2\n        /* \"#utility.yul\":10143:10173   */\n      gt\n        /* \"#utility.yul\":10140:10196   */\n      iszero\n      tag_212\n      jumpi\n        /* \"#utility.yul\":10176:10194   */\n      tag_213\n      tag_65\n      jump\t// in\n    tag_213:\n        /* \"#utility.yul\":10140:10196   */\n    tag_212:\n        /* \"#utility.yul\":10220:10258   */\n      tag_214\n        /* \"#utility.yul\":10252:10256   */\n      dup3\n        /* \"#utility.yul\":10246:10257   */\n      sload\n        /* \"#utility.yul\":10220:10258   */\n      tag_35\n      jump\t// in\n    tag_214:\n        /* \"#utility.yul\":10305:10372   */\n      tag_215\n        /* \"#utility.yul\":10365:10371   */\n      dup3\n        /* \"#utility.yul\":10357:10363   */\n      dup3\n        /* \"#utility.yul\":10351:10355   */\n      dup6\n        /* \"#utility.yul\":10305:10372   */\n      tag_93\n      jump\t// in\n    tag_215:\n        /* \"#utility.yul\":10399:10400   */\n      0x00\n        /* \"#utility.yul\":10423:10427   */\n      0x20\n        /* \"#utility.yul\":10410:10427   */\n      swap1\n      pop\n        /* \"#utility.yul\":10455:10457   */\n      0x1f\n        /* \"#utility.yul\":10447:10453   */\n      dup4\n        /* \"#utility.yul\":10444:10458   */\n      gt\n        /* \"#utility.yul\":10472:10473   */\n      0x01\n        /* \"#utility.yul\":10467:11085   */\n      dup2\n      eq\n      tag_217\n      jumpi\n        /* \"#utility.yul\":11129:11130   */\n      0x00\n        /* \"#utility.yul\":11146:11152   */\n      dup5\n        /* \"#utility.yul\":11143:11220   */\n      iszero\n      tag_218\n      jumpi\n        /* \"#utility.yul\":11195:11204   */\n      dup3\n        /* \"#utility.yul\":11190:11193   */\n      dup8\n        /* \"#utility.yul\":11186:11205   */\n      add\n        /* \"#utility.yul\":11180:11206   */\n      mload\n        /* \"#utility.yul\":11171:11206   */\n      swap1\n      pop\n        /* \"#utility.yul\":11143:11220   */\n    tag_218:\n        /* \"#utility.yul\":11246:11313   */\n      tag_219\n        /* \"#utility.yul\":11306:11312   */\n      dup6\n        /* \"#utility.yul\":11299:11304   */\n      dup3\n        /* \"#utility.yul\":11246:11313   */\n      tag_96\n      jump\t// in\n    tag_219:\n        /* \"#utility.yul\":11240:11244   */\n      dup7\n        /* \"#utility.yul\":11233:11314   */\n      sstore\n        /* \"#utility.yul\":11102:11324   */\n      pop\n        /* \"#utility.yul\":10437:11324   */\n      jump(tag_216)\n        /* \"#utility.yul\":10467:11085   */\n    tag_217:\n        /* \"#utility.yul\":10519:10523   */\n      0x1f\n        /* \"#utility.yul\":10515:10524   */\n      not\n        /* \"#utility.yul\":10507:10513   */\n      dup5\n        /* \"#utility.yul\":10503:10525   */\n      and\n        /* \"#utility.yul\":10553:10590   */\n      tag_220\n        /* \"#utility.yul\":10585:10589   */\n      dup7\n        /* \"#utility.yul\":10553:10590   */\n      tag_81\n      jump\t// in\n    tag_220:\n        /* \"#utility.yul\":10612:10613   */\n      0x00\n        /* \"#utility.yul\":10626:10834   */\n    tag_221:\n        /* \"#utility.yul\":10640:10647   */\n      dup3\n        /* \"#utility.yul\":10637:10638   */\n      dup2\n        /* \"#utility.yul\":10634:10648   */\n      lt\n        /* \"#utility.yul\":10626:10834   */\n      iszero\n      tag_223\n      jumpi\n        /* \"#utility.yul\":10719:10728   */\n      dup5\n        /* \"#utility.yul\":10714:10717   */\n      dup10\n        /* \"#utility.yul\":10710:10729   */\n      add\n        /* \"#utility.yul\":10704:10730   */\n      mload\n        /* \"#utility.yul\":10696:10702   */\n      dup3\n        /* \"#utility.yul\":10689:10731   */\n      sstore\n        /* \"#utility.yul\":10770:10771   */\n      0x01\n        /* \"#utility.yul\":10762:10768   */\n      dup3\n        /* \"#utility.yul\":10758:10772   */\n      add\n        /* \"#utility.yul\":10748:10772   */\n      swap2\n      pop\n        /* \"#utility.yul\":10817:10819   */\n      0x20\n        /* \"#utility.yul\":10806:10815   */\n      dup6\n        /* \"#utility.yul\":10802:10820   */\n      add\n        /* \"#utility.yul\":10789:10820   */\n      swap5\n      pop\n        /* \"#utility.yul\":10663:10667   */\n      0x20\n        /* \"#utility.yul\":10660:10661   */\n      dup2\n        /* \"#utility.yul\":10656:10668   */\n      add\n        /* \"#utility.yul\":10651:10668   */\n      swap1\n      pop\n        /* \"#utility.yul\":10626:10834   */\n      jump(tag_221)\n    tag_223:\n        /* \"#utility.yul\":10862:10868   */\n      dup7\n        /* \"#utility.yul\":10853:10860   */\n      dup4\n        /* \"#utility.yul\":10850:10869   */\n      lt\n        /* \"#utility.yul\":10847:11026   */\n      iszero\n      tag_224\n      jumpi\n        /* \"#utility.yul\":10920:10929   */\n      dup5\n        /* \"#utility.yul\":10915:10918   */\n      dup10\n        /* \"#utility.yul\":10911:10930   */\n      add\n        /* \"#utility.yul\":10905:10931   */\n      mload\n        /* \"#utility.yul\":10963:11011   */\n      tag_225\n        /* \"#utility.yul\":11005:11009   */\n      0x1f\n        /* \"#utility.yul\":10997:11003   */\n      dup10\n        /* \"#utility.yul\":10993:11010   */\n      and\n        /* \"#utility.yul\":10982:10991   */\n      dup3\n        /* \"#utility.yul\":10963:11011   */\n      tag_95\n      jump\t// in\n    tag_225:\n        /* \"#utility.yul\":10955:10961   */\n      dup4\n        /* \"#utility.yul\":10948:11012   */\n      sstore\n        /* \"#utility.yul\":10870:11026   */\n      pop\n        /* \"#utility.yul\":10847:11026   */\n    tag_224:\n        /* \"#utility.yul\":11072:11073   */\n      0x01\n        /* \"#utility.yul\":11068:11069   */\n      0x02\n        /* \"#utility.yul\":11060:11066   */\n      dup9\n        /* \"#utility.yul\":11056:11070   */\n      mul\n        /* \"#utility.yul\":11052:11074   */\n      add\n        /* \"#utility.yul\":11046:11050   */\n      dup9\n        /* \"#utility.yul\":11039:11075   */\n      sstore\n        /* \"#utility.yul\":10474:11085   */\n      pop\n      pop\n      pop\n        /* \"#utility.yul\":10437:11324   */\n    tag_216:\n      pop\n        /* \"#utility.yul\":10027:11330   */\n      pop\n      pop\n      pop\n        /* \"#utility.yul\":9935:11330   */\n      pop\n      pop\n      jump\t// out\n\n    auxdata: 0xa2646970667358221220ccb723bbdc8d66119ff9d32114c84b667c9b3654ba840efbed7ce7039941e58c64736f6c63430008160033\n}\n",
				"bytecode": {
					"linkReferences": {},
					"object": "608060405234801561000f575f80fd5b50610a068061001d5f395ff3fe608060405234801561000f575f80fd5b5060043610610055575f3560e01c80630e52f48a146100595780630f9cc7b91461008957806346dd4bef146100a5578063b6d7bd37146100d5578063f8b7800f14610105575b5f80fd5b610073600480360381019061006e9190610524565b610135565b60405161008091906105e5565b60405180910390f35b6100a3600480360381019061009e9190610605565b6101e2565b005b6100bf60048036038101906100ba9190610524565b61023d565b6040516100cc9190610695565b60405180910390f35b6100ef60048036038101906100ea9190610524565b610272565b6040516100fc91906105e5565b60405180910390f35b61011f600480360381019061011a9190610524565b610324565b60405161012c91906105e5565b60405180910390f35b60605f8260405161014691906106e8565b9081526020016040518091039020805461015f9061072b565b80601f016020809104026020016040519081016040528092919081815260200182805461018b9061072b565b80156101d65780601f106101ad576101008083540402835291602001916101d6565b820191905f5260205f20905b8154815290600101906020018083116101b957829003601f168201915b50505050509050919050565b805f836040516101f291906106e8565b9081526020016040518091039020908161020c9190610901565b508160018260405161021e91906106e8565b908152602001604051809103902090816102389190610901565b505050565b5f8060018360405161024f91906106e8565b908152602001604051809103902080546102689061072b565b9050119050919050565b5f818051602081018201805184825260208301602085012081835280955050505050505f9150905080546102a59061072b565b80601f01602080910402602001604051908101604052809291908181526020018280546102d19061072b565b801561031c5780601f106102f35761010080835404028352916020019161031c565b820191905f5260205f20905b8154815290600101906020018083116102ff57829003601f168201915b505050505081565b6001818051602081018201805184825260208301602085012081835280955050505050505f9150905080546103589061072b565b80601f01602080910402602001604051908101604052809291908181526020018280546103849061072b565b80156103cf5780601f106103a6576101008083540402835291602001916103cf565b820191905f5260205f20905b8154815290600101906020018083116103b257829003601f168201915b505050505081565b5f604051905090565b5f80fd5b5f80fd5b5f80fd5b5f80fd5b5f601f19601f8301169050919050565b7f4e487b71000000000000000000000000000000000000000000000000000000005f52604160045260245ffd5b610436826103f0565b810181811067ffffffffffffffff8211171561045557610454610400565b5b80604052505050565b5f6104676103d7565b9050610473828261042d565b919050565b5f67ffffffffffffffff82111561049257610491610400565b5b61049b826103f0565b9050602081019050919050565b828183375f83830152505050565b5f6104c86104c384610478565b61045e565b9050828152602081018484840111156104e4576104e36103ec565b5b6104ef8482856104a8565b509392505050565b5f82601f83011261050b5761050a6103e8565b5b813561051b8482602086016104b6565b91505092915050565b5f60208284031215610539576105386103e0565b5b5f82013567ffffffffffffffff811115610556576105556103e4565b5b610562848285016104f7565b91505092915050565b5f81519050919050565b5f82825260208201905092915050565b5f5b838110156105a2578082015181840152602081019050610587565b5f8484015250505050565b5f6105b78261056b565b6105c18185610575565b93506105d1818560208601610585565b6105da816103f0565b840191505092915050565b5f6020820190508181035f8301526105fd81846105ad565b905092915050565b5f806040838503121561061b5761061a6103e0565b5b5f83013567ffffffffffffffff811115610638576106376103e4565b5b610644858286016104f7565b925050602083013567ffffffffffffffff811115610665576106646103e4565b5b610671858286016104f7565b9150509250929050565b5f8115159050919050565b61068f8161067b565b82525050565b5f6020820190506106a85f830184610686565b92915050565b5f81905092915050565b5f6106c28261056b565b6106cc81856106ae565b93506106dc818560208601610585565b80840191505092915050565b5f6106f382846106b8565b915081905092915050565b7f4e487b71000000000000000000000000000000000000000000000000000000005f52602260045260245ffd5b5f600282049050600182168061074257607f821691505b602082108103610755576107546106fe565b5b50919050565b5f819050815f5260205f209050919050565b5f6020601f8301049050919050565b5f82821b905092915050565b5f600883026107b77fffffffffffffffffffffffffffffffffffffffffffffffffffffffffffffffff8261077c565b6107c1868361077c565b95508019841693508086168417925050509392505050565b5f819050919050565b5f819050919050565b5f6108056108006107fb846107d9565b6107e2565b6107d9565b9050919050565b5f819050919050565b61081e836107eb565b61083261082a8261080c565b848454610788565b825550505050565b5f90565b61084661083a565b610851818484610815565b505050565b5b81811015610874576108695f8261083e565b600181019050610857565b5050565b601f8211156108b95761088a8161075b565b6108938461076d565b810160208510156108a2578190505b6108b66108ae8561076d565b830182610856565b50505b505050565b5f82821c905092915050565b5f6108d95f19846008026108be565b1980831691505092915050565b5f6108f183836108ca565b9150826002028217905092915050565b61090a8261056b565b67ffffffffffffffff81111561092357610922610400565b5b61092d825461072b565b610938828285610878565b5f60209050601f831160018114610969575f8415610957578287015190505b61096185826108e6565b8655506109c8565b601f1984166109778661075b565b5f5b8281101561099e57848901518255600182019150602085019450602081019050610979565b868310156109bb57848901516109b7601f8916826108ca565b8355505b6001600288020188555050505b50505050505056fea2646970667358221220ccb723bbdc8d66119ff9d32114c84b667c9b3654ba840efbed7ce7039941e58c64736f6c63430008160033",
					"opcodes": "PUSH1 0x80 PUSH1 0x40 MSTORE CALLVALUE DUP1 ISZERO PUSH2 0xF JUMPI PUSH0 DUP1 REVERT JUMPDEST POP PUSH2 0xA06 DUP1 PUSH2 0x1D PUSH0 CODECOPY PUSH0 RETURN INVALID PUSH1 0x80 PUSH1 0x40 MSTORE CALLVALUE DUP1 ISZERO PUSH2 0xF JUMPI PUSH0 DUP1 REVERT JUMPDEST POP PUSH1 0x4 CALLDATASIZE LT PUSH2 0x55 JUMPI PUSH0 CALLDATALOAD PUSH1 0xE0 SHR DUP1 PUSH4 0xE52F48A EQ PUSH2 0x59 JUMPI DUP1 PUSH4 0xF9CC7B9 EQ PUSH2 0x89 JUMPI DUP1 PUSH4 0x46DD4BEF EQ PUSH2 0xA5 JUMPI DUP1 PUSH4 0xB6D7BD37 EQ PUSH2 0xD5 JUMPI DUP1 PUSH4 0xF8B7800F EQ PUSH2 0x105 JUMPI JUMPDEST PUSH0 DUP1 REVERT JUMPDEST PUSH2 0x73 PUSH1 0x4 DUP1 CALLDATASIZE SUB DUP2 ADD SWAP1 PUSH2 0x6E SWAP2 SWAP1 PUSH2 0x524 JUMP JUMPDEST PUSH2 0x135 JUMP JUMPDEST PUSH1 0x40 MLOAD PUSH2 0x80 SWAP2 SWAP1 PUSH2 0x5E5 JUMP JUMPDEST PUSH1 0x40 MLOAD DUP1 SWAP2 SUB SWAP1 RETURN JUMPDEST PUSH2 0xA3 PUSH1 0x4 DUP1 CALLDATASIZE SUB DUP2 ADD SWAP1 PUSH2 0x9E SWAP2 SWAP1 PUSH2 0x605 JUMP JUMPDEST PUSH2 0x1E2 JUMP JUMPDEST STOP JUMPDEST PUSH2 0xBF PUSH1 0x4 DUP1 CALLDATASIZE SUB DUP2 ADD SWAP1 PUSH2 0xBA SWAP2 SWAP1 PUSH2 0x524 JUMP JUMPDEST PUSH2 0x23D JUMP JUMPDEST PUSH1 0x40 MLOAD PUSH2 0xCC SWAP2 SWAP1 PUSH2 0x695 JUMP JUMPDEST PUSH1 0x40 MLOAD DUP1 SWAP2 SUB SWAP1 RETURN JUMPDEST PUSH2 0xEF PUSH1 0x4 DUP1 CALLDATASIZE SUB DUP2 ADD SWAP1 PUSH2 0xEA SWAP2 SWAP1 PUSH2 0x524 JUMP JUMPDEST PUSH2 0x272 JUMP JUMPDEST PUSH1 0x40 MLOAD PUSH2 0xFC SWAP2 SWAP1 PUSH2 0x5E5 JUMP JUMPDEST PUSH1 0x40 MLOAD DUP1 SWAP2 SUB SWAP1 RETURN JUMPDEST PUSH2 0x11F PUSH1 0x4 DUP1 CALLDATASIZE SUB DUP2 ADD SWAP1 PUSH2 0x11A SWAP2 SWAP1 PUSH2 0x524 JUMP JUMPDEST PUSH2 0x324 JUMP JUMPDEST PUSH1 0x40 MLOAD PUSH2 0x12C SWAP2 SWAP1 PUSH2 0x5E5 JUMP JUMPDEST PUSH1 0x40 MLOAD DUP1 SWAP2 SUB SWAP1 RETURN JUMPDEST PUSH1 0x60 PUSH0 DUP3 PUSH1 0x40 MLOAD PUSH2 0x146 SWAP2 SWAP1 PUSH2 0x6E8 JUMP JUMPDEST SWAP1 DUP2 MSTORE PUSH1 0x20 ADD PUSH1 0x40 MLOAD DUP1 SWAP2 SUB SWAP1 KECCAK256 DUP1 SLOAD PUSH2 0x15F SWAP1 PUSH2 0x72B JUMP JUMPDEST DUP1 PUSH1 0x1F ADD PUSH1 0x20 DUP1 SWAP2 DIV MUL PUSH1 0x20 ADD PUSH1 0x40 MLOAD SWAP1 DUP2 ADD PUSH1 0x40 MSTORE DUP1 SWAP3 SWAP2 SWAP1 DUP2 DUP2 MSTORE PUSH1 0x20 ADD DUP3 DUP1 SLOAD PUSH2 0x18B SWAP1 PUSH2 0x72B JUMP JUMPDEST DUP1 ISZERO PUSH2 0x1D6 JUMPI DUP1 PUSH1 0x1F LT PUSH2 0x1AD JUMPI PUSH2 0x100 DUP1 DUP4 SLOAD DIV MUL DUP4 MSTORE SWAP2 PUSH1 0x20 ADD SWAP2 PUSH2 0x1D6 JUMP JUMPDEST DUP3 ADD SWAP2 SWAP1 PUSH0 MSTORE PUSH1 0x20 PUSH0 KECCAK256 SWAP1 JUMPDEST DUP2 SLOAD DUP2 MSTORE SWAP1 PUSH1 0x1 ADD SWAP1 PUSH1 0x20 ADD DUP1 DUP4 GT PUSH2 0x1B9 JUMPI DUP3 SWAP1 SUB PUSH1 0x1F AND DUP3 ADD SWAP2 JUMPDEST POP POP POP POP POP SWAP1 POP SWAP2 SWAP1 POP JUMP JUMPDEST DUP1 PUSH0 DUP4 PUSH1 0x40 MLOAD PUSH2 0x1F2 SWAP2 SWAP1 PUSH2 0x6E8 JUMP JUMPDEST SWAP1 DUP2 MSTORE PUSH1 0x20 ADD PUSH1 0x40 MLOAD DUP1 SWAP2 SUB SWAP1 KECCAK256 SWAP1 DUP2 PUSH2 0x20C SWAP2 SWAP1 PUSH2 0x901 JUMP JUMPDEST POP DUP2 PUSH1 0x1 DUP3 PUSH1 0x40 MLOAD PUSH2 0x21E SWAP2 SWAP1 PUSH2 0x6E8 JUMP JUMPDEST SWAP1 DUP2 MSTORE PUSH1 0x20 ADD PUSH1 0x40 MLOAD DUP1 SWAP2 SUB SWAP1 KECCAK256 SWAP1 DUP2 PUSH2 0x238 SWAP2 SWAP1 PUSH2 0x901 JUMP JUMPDEST POP POP POP JUMP JUMPDEST PUSH0 DUP1 PUSH1 0x1 DUP4 PUSH1 0x40 MLOAD PUSH2 0x24F SWAP2 SWAP1 PUSH2 0x6E8 JUMP JUMPDEST SWAP1 DUP2 MSTORE PUSH1 0x20 ADD PUSH1 0x40 MLOAD DUP1 SWAP2 SUB SWAP1 KECCAK256 DUP1 SLOAD PUSH2 0x268 SWAP1 PUSH2 0x72B JUMP JUMPDEST SWAP1 POP GT SWAP1 POP SWAP2 SWAP1 POP JUMP JUMPDEST PUSH0 DUP2 DUP1 MLOAD PUSH1 0x20 DUP2 ADD DUP3 ADD DUP1 MLOAD DUP5 DUP3 MSTORE PUSH1 0x20 DUP4 ADD PUSH1 0x20 DUP6 ADD KECCAK256 DUP2 DUP4 MSTORE DUP1 SWAP6 POP POP POP POP POP POP PUSH0 SWAP2 POP SWAP1 POP DUP1 SLOAD PUSH2 0x2A5 SWAP1 PUSH2 0x72B JUMP JUMPDEST DUP1 PUSH1 0x1F ADD PUSH1 0x20 DUP1 SWAP2 DIV MUL PUSH1 0x20 ADD PUSH1 0x40 MLOAD SWAP1 DUP2 ADD PUSH1 0x40 MSTORE DUP1 SWAP3 SWAP2 SWAP1 DUP2 DUP2 MSTORE PUSH1 0x20 ADD DUP3 DUP1 SLOAD PUSH2 0x2D1 SWAP1 PUSH2 0x72B JUMP JUMPDEST DUP1 ISZERO PUSH2 0x31C JUMPI DUP1 PUSH1 0x1F LT PUSH2 0x2F3 JUMPI PUSH2 0x100 DUP1 DUP4 SLOAD DIV MUL DUP4 MSTORE SWAP2 PUSH1 0x20 ADD SWAP2 PUSH2 0x31C JUMP JUMPDEST DUP3 ADD SWAP2 SWAP1 PUSH0 MSTORE PUSH1 0x20 PUSH0 KECCAK256 SWAP1 JUMPDEST DUP2 SLOAD DUP2 MSTORE SWAP1 PUSH1 0x1 ADD SWAP1 PUSH1 0x20 ADD DUP1 DUP4 GT PUSH2 0x2FF JUMPI DUP3 SWAP1 SUB PUSH1 0x1F AND DUP3 ADD SWAP2 JUMPDEST POP POP POP POP POP DUP2 JUMP JUMPDEST PUSH1 0x1 DUP2 DUP1 MLOAD PUSH1 0x20 DUP2 ADD DUP3 ADD DUP1 MLOAD DUP5 DUP3 MSTORE PUSH1 0x20 DUP4 ADD PUSH1 0x20 DUP6 ADD KECCAK256 DUP2 DUP4 MSTORE DUP1 SWAP6 POP POP POP POP POP POP PUSH0 SWAP2 POP SWAP1 POP DUP1 SLOAD PUSH2 0x358 SWAP1 PUSH2 0x72B JUMP JUMPDEST DUP1 PUSH1 0x1F ADD PUSH1 0x20 DUP1 SWAP2 DIV MUL PUSH1 0x20 ADD PUSH1 0x40 MLOAD SWAP1 DUP2 ADD PUSH1 0x40 MSTORE DUP1 SWAP3 SWAP2 SWAP1 DUP2 DUP2 MSTORE PUSH1 0x20 ADD DUP3 DUP1 SLOAD PUSH2 0x384 SWAP1 PUSH2 0x72B JUMP JUMPDEST DUP1 ISZERO PUSH2 0x3CF JUMPI DUP1 PUSH1 0x1F LT PUSH2 0x3A6 JUMPI PUSH2 0x100 DUP1 DUP4 SLOAD DIV MUL DUP4 MSTORE SWAP2 PUSH1 0x20 ADD SWAP2 PUSH2 0x3CF JUMP JUMPDEST DUP3 ADD SWAP2 SWAP1 PUSH0 MSTORE PUSH1 0x20 PUSH0 KECCAK256 SWAP1 JUMPDEST DUP2 SLOAD DUP2 MSTORE SWAP1 PUSH1 0x1 ADD SWAP1 PUSH1 0x20 ADD DUP1 DUP4 GT PUSH2 0x3B2 JUMPI DUP3 SWAP1 SUB PUSH1 0x1F AND DUP3 ADD SWAP2 JUMPDEST POP POP POP POP POP DUP2 JUMP JUMPDEST PUSH0 PUSH1 0x40 MLOAD SWAP1 POP SWAP1 JUMP JUMPDEST PUSH0 DUP1 REVERT JUMPDEST PUSH0 DUP1 REVERT JUMPDEST PUSH0 DUP1 REVERT JUMPDEST PUSH0 DUP1 REVERT JUMPDEST PUSH0 PUSH1 0x1F NOT PUSH1 0x1F DUP4 ADD AND SWAP1 POP SWAP2 SWAP1 POP JUMP JUMPDEST PUSH32 0x4E487B7100000000000000000000000000000000000000000000000000000000 PUSH0 MSTORE PUSH1 0x41 PUSH1 0x4 MSTORE PUSH1 0x24 PUSH0 REVERT JUMPDEST PUSH2 0x436 DUP3 PUSH2 0x3F0 JUMP JUMPDEST DUP2 ADD DUP2 DUP2 LT PUSH8 0xFFFFFFFFFFFFFFFF DUP3 GT OR ISZERO PUSH2 0x455 JUMPI PUSH2 0x454 PUSH2 0x400 JUMP JUMPDEST JUMPDEST DUP1 PUSH1 0x40 MSTORE POP POP POP JUMP JUMPDEST PUSH0 PUSH2 0x467 PUSH2 0x3D7 JUMP JUMPDEST SWAP1 POP PUSH2 0x473 DUP3 DUP3 PUSH2 0x42D JUMP JUMPDEST SWAP2 SWAP1 POP JUMP JUMPDEST PUSH0 PUSH8 0xFFFFFFFFFFFFFFFF DUP3 GT ISZERO PUSH2 0x492 JUMPI PUSH2 0x491 PUSH2 0x400 JUMP JUMPDEST JUMPDEST PUSH2 0x49B DUP3 PUSH2 0x3F0 JUMP JUMPDEST SWAP1 POP PUSH1 0x20 DUP2 ADD SWAP1 POP SWAP2 SWAP1 POP JUMP JUMPDEST DUP3 DUP2 DUP4 CALLDATACOPY PUSH0 DUP4 DUP4 ADD MSTORE POP POP POP JUMP JUMPDEST PUSH0 PUSH2 0x4C8 PUSH2 0x4C3 DUP5 PUSH2 0x478 JUMP JUMPDEST PUSH2 0x45E JUMP JUMPDEST SWAP1 POP DUP3 DUP2 MSTORE PUSH1 0x20 DUP2 ADD DUP5 DUP5 DUP5 ADD GT ISZERO PUSH2 0x4E4 JUMPI PUSH2 0x4E3 PUSH2 0x3EC JUMP JUMPDEST JUMPDEST PUSH2 0x4EF DUP5 DUP3 DUP6 PUSH2 0x4A8 JUMP JUMPDEST POP SWAP4 SWAP3 POP POP POP JUMP JUMPDEST PUSH0 DUP3 PUSH1 0x1F DUP4 ADD SLT PUSH2 0x50B JUMPI PUSH2 0x50A PUSH2 0x3E8 JUMP JUMPDEST JUMPDEST DUP2 CALLDATALOAD PUSH2 0x51B DUP5 DUP3 PUSH1 0x20 DUP7 ADD PUSH2 0x4B6 JUMP JUMPDEST SWAP2 POP POP SWAP3 SWAP2 POP POP JUMP JUMPDEST PUSH0 PUSH1 0x20 DUP3 DUP5 SUB SLT ISZERO PUSH2 0x539 JUMPI PUSH2 0x538 PUSH2 0x3E0 JUMP JUMPDEST JUMPDEST PUSH0 DUP3 ADD CALLDATALOAD PUSH8 0xFFFFFFFFFFFFFFFF DUP2 GT ISZERO PUSH2 0x556 JUMPI PUSH2 0x555 PUSH2 0x3E4 JUMP JUMPDEST JUMPDEST PUSH2 0x562 DUP5 DUP3 DUP6 ADD PUSH2 0x4F7 JUMP JUMPDEST SWAP2 POP POP SWAP3 SWAP2 POP POP JUMP JUMPDEST PUSH0 DUP2 MLOAD SWAP1 POP SWAP2 SWAP1 POP JUMP JUMPDEST PUSH0 DUP3 DUP3 MSTORE PUSH1 0x20 DUP3 ADD SWAP1 POP SWAP3 SWAP2 POP POP JUMP JUMPDEST PUSH0 JUMPDEST DUP4 DUP2 LT ISZERO PUSH2 0x5A2 JUMPI DUP1 DUP3 ADD MLOAD DUP2 DUP5 ADD MSTORE PUSH1 0x20 DUP2 ADD SWAP1 POP PUSH2 0x587 JUMP JUMPDEST PUSH0 DUP5 DUP5 ADD MSTORE POP POP POP POP JUMP JUMPDEST PUSH0 PUSH2 0x5B7 DUP3 PUSH2 0x56B JUMP JUMPDEST PUSH2 0x5C1 DUP2 DUP6 PUSH2 0x575 JUMP JUMPDEST SWAP4 POP PUSH2 0x5D1 DUP2 DUP6 PUSH1 0x20 DUP7 ADD PUSH2 0x585 JUMP JUMPDEST PUSH2 0x5DA DUP2 PUSH2 0x3F0 JUMP JUMPDEST DUP5 ADD SWAP2 POP POP SWAP3 SWAP2 POP POP JUMP JUMPDEST PUSH0 PUSH1 0x20 DUP3 ADD SWAP1 POP DUP2 DUP2 SUB PUSH0 DUP4 ADD MSTORE PUSH2 0x5FD DUP2 DUP5 PUSH2 0x5AD JUMP JUMPDEST SWAP1 POP SWAP3 SWAP2 POP POP JUMP JUMPDEST PUSH0 DUP1 PUSH1 0x40 DUP4 DUP6 SUB SLT ISZERO PUSH2 0x61B JUMPI PUSH2 0x61A PUSH2 0x3E0 JUMP JUMPDEST JUMPDEST PUSH0 DUP4 ADD CALLDATALOAD PUSH8 0xFFFFFFFFFFFFFFFF DUP2 GT ISZERO PUSH2 0x638 JUMPI PUSH2 0x637 PUSH2 0x3E4 JUMP JUMPDEST JUMPDEST PUSH2 0x644 DUP6 DUP3 DUP7 ADD PUSH2 0x4F7 JUMP JUMPDEST SWAP3 POP POP PUSH1 0x20 DUP4 ADD CALLDATALOAD PUSH8 0xFFFFFFFFFFFFFFFF DUP2 GT ISZERO PUSH2 0x665 JUMPI PUSH2 0x664 PUSH2 0x3E4 JUMP JUMPDEST JUMPDEST PUSH2 0x671 DUP6 DUP3 DUP7 ADD PUSH2 0x4F7 JUMP JUMPDEST SWAP2 POP POP SWAP3 POP SWAP3 SWAP1 POP JUMP JUMPDEST PUSH0 DUP2 ISZERO ISZERO SWAP1 POP SWAP2 SWAP1 POP JUMP JUMPDEST PUSH2 0x68F DUP2 PUSH2 0x67B JUMP JUMPDEST DUP3 MSTORE POP POP JUMP JUMPDEST PUSH0 PUSH1 0x20 DUP3 ADD SWAP1 POP PUSH2 0x6A8 PUSH0 DUP4 ADD DUP5 PUSH2 0x686 JUMP JUMPDEST SWAP3 SWAP2 POP POP JUMP JUMPDEST PUSH0 DUP2 SWAP1 POP SWAP3 SWAP2 POP POP JUMP JUMPDEST PUSH0 PUSH2 0x6C2 DUP3 PUSH2 0x56B JUMP JUMPDEST PUSH2 0x6CC DUP2 DUP6 PUSH2 0x6AE JUMP JUMPDEST SWAP4 POP PUSH2 0x6DC DUP2 DUP6 PUSH1 0x20 DUP7 ADD PUSH2 0x585 JUMP JUMPDEST DUP1 DUP5 ADD SWAP2 POP POP SWAP3 SWAP2 POP POP JUMP JUMPDEST PUSH0 PUSH2 0x6F3 DUP3 DUP5 PUSH2 0x6B8 JUMP JUMPDEST SWAP2 POP DUP2 SWAP1 POP SWAP3 SWAP2 POP POP JUMP JUMPDEST PUSH32 0x4E487B7100000000000000000000000000000000000000000000000000000000 PUSH0 MSTORE PUSH1 0x22 PUSH1 0x4 MSTORE PUSH1 0x24 PUSH0 REVERT JUMPDEST PUSH0 PUSH1 0x2 DUP3 DIV SWAP1 POP PUSH1 0x1 DUP3 AND DUP1 PUSH2 0x742 JUMPI PUSH1 0x7F DUP3 AND SWAP2 POP JUMPDEST PUSH1 0x20 DUP3 LT DUP2 SUB PUSH2 0x755 JUMPI PUSH2 0x754 PUSH2 0x6FE JUMP JUMPDEST JUMPDEST POP SWAP2 SWAP1 POP JUMP JUMPDEST PUSH0 DUP2 SWAP1 POP DUP2 PUSH0 MSTORE PUSH1 0x20 PUSH0 KECCAK256 SWAP1 POP SWAP2 SWAP1 POP JUMP JUMPDEST PUSH0 PUSH1 0x20 PUSH1 0x1F DUP4 ADD DIV SWAP1 POP SWAP2 SWAP1 POP JUMP JUMPDEST PUSH0 DUP3 DUP3 SHL SWAP1 POP SWAP3 SWAP2 POP POP JUMP JUMPDEST PUSH0 PUSH1 0x8 DUP4 MUL PUSH2 0x7B7 PUSH32 0xFFFFFFFFFFFFFFFFFFFFFFFFFFFFFFFFFFFFFFFFFFFFFFFFFFFFFFFFFFFFFFFF DUP3 PUSH2 0x77C JUMP JUMPDEST PUSH2 0x7C1 DUP7 DUP4 PUSH2 0x77C JUMP JUMPDEST SWAP6 POP DUP1 NOT DUP5 AND SWAP4 POP DUP1 DUP7 AND DUP5 OR SWAP3 POP POP POP SWAP4 SWAP3 POP POP POP JUMP JUMPDEST PUSH0 DUP2 SWAP1 POP SWAP2 SWAP1 POP JUMP JUMPDEST PUSH0 DUP2 SWAP1 POP SWAP2 SWAP1 POP JUMP JUMPDEST PUSH0 PUSH2 0x805 PUSH2 0x800 PUSH2 0x7FB DUP5 PUSH2 0x7D9 JUMP JUMPDEST PUSH2 0x7E2 JUMP JUMPDEST PUSH2 0x7D9 JUMP JUMPDEST SWAP1 POP SWAP2 SWAP1 POP JUMP JUMPDEST PUSH0 DUP2 SWAP1 POP SWAP2 SWAP1 POP JUMP JUMPDEST PUSH2 0x81E DUP4 PUSH2 0x7EB JUMP JUMPDEST PUSH2 0x832 PUSH2 0x82A DUP3 PUSH2 0x80C JUMP JUMPDEST DUP5 DUP5 SLOAD PUSH2 0x788 JUMP JUMPDEST DUP3 SSTORE POP POP POP POP JUMP JUMPDEST PUSH0 SWAP1 JUMP JUMPDEST PUSH2 0x846 PUSH2 0x83A JUMP JUMPDEST PUSH2 0x851 DUP2 DUP5 DUP5 PUSH2 0x815 JUMP JUMPDEST POP POP POP JUMP JUMPDEST JUMPDEST DUP2 DUP2 LT ISZERO PUSH2 0x874 JUMPI PUSH2 0x869 PUSH0 DUP3 PUSH2 0x83E JUMP JUMPDEST PUSH1 0x1 DUP2 ADD SWAP1 POP PUSH2 0x857 JUMP JUMPDEST POP POP JUMP JUMPDEST PUSH1 0x1F DUP3 GT ISZERO PUSH2 0x8B9 JUMPI PUSH2 0x88A DUP2 PUSH2 0x75B JUMP JUMPDEST PUSH2 0x893 DUP5 PUSH2 0x76D JUMP JUMPDEST DUP2 ADD PUSH1 0x20 DUP6 LT ISZERO PUSH2 0x8A2 JUMPI DUP2 SWAP1 POP JUMPDEST PUSH2 0x8B6 PUSH2 0x8AE DUP6 PUSH2 0x76D JUMP JUMPDEST DUP4 ADD DUP3 PUSH2 0x856 JUMP JUMPDEST POP POP JUMPDEST POP POP POP JUMP JUMPDEST PUSH0 DUP3 DUP3 SHR SWAP1 POP SWAP3 SWAP2 POP POP JUMP JUMPDEST PUSH0 PUSH2 0x8D9 PUSH0 NOT DUP5 PUSH1 0x8 MUL PUSH2 0x8BE JUMP JUMPDEST NOT DUP1 DUP4 AND SWAP2 POP POP SWAP3 SWAP2 POP POP JUMP JUMPDEST PUSH0 PUSH2 0x8F1 DUP4 DUP4 PUSH2 0x8CA JUMP JUMPDEST SWAP2 POP DUP3 PUSH1 0x2 MUL DUP3 OR SWAP1 POP SWAP3 SWAP2 POP POP JUMP JUMPDEST PUSH2 0x90A DUP3 PUSH2 0x56B JUMP JUMPDEST PUSH8 0xFFFFFFFFFFFFFFFF DUP2 GT ISZERO PUSH2 0x923 JUMPI PUSH2 0x922 PUSH2 0x400 JUMP JUMPDEST JUMPDEST PUSH2 0x92D DUP3 SLOAD PUSH2 0x72B JUMP JUMPDEST PUSH2 0x938 DUP3 DUP3 DUP6 PUSH2 0x878 JUMP JUMPDEST PUSH0 PUSH1 0x20 SWAP1 POP PUSH1 0x1F DUP4 GT PUSH1 0x1 DUP2 EQ PUSH2 0x969 JUMPI PUSH0 DUP5 ISZERO PUSH2 0x957 JUMPI DUP3 DUP8 ADD MLOAD SWAP1 POP JUMPDEST PUSH2 0x961 DUP6 DUP3 PUSH2 0x8E6 JUMP JUMPDEST DUP7 SSTORE POP PUSH2 0x9C8 JUMP JUMPDEST PUSH1 0x1F NOT DUP5 AND PUSH2 0x977 DUP7 PUSH2 0x75B JUMP JUMPDEST PUSH0 JUMPDEST DUP3 DUP2 LT ISZERO PUSH2 0x99E JUMPI DUP5 DUP10 ADD MLOAD DUP3 SSTORE PUSH1 0x1 DUP3 ADD SWAP2 POP PUSH1 0x20 DUP6 ADD SWAP5 POP PUSH1 0x20 DUP2 ADD SWAP1 POP PUSH2 0x979 JUMP JUMPDEST DUP7 DUP4 LT ISZERO PUSH2 0x9BB JUMPI DUP5 DUP10 ADD MLOAD PUSH2 0x9B7 PUSH1 0x1F DUP10 AND DUP3 PUSH2 0x8CA JUMP JUMPDEST DUP4 SSTORE POP JUMPDEST PUSH1 0x1 PUSH1 0x2 DUP9 MUL ADD DUP9 SSTORE POP POP POP JUMPDEST POP POP POP POP POP POP JUMP INVALID LOG2 PUSH5 0x6970667358 0x22 SLT KECCAK256 0xCC 0xB7 0x23 0xBB 0xDC DUP14 PUSH7 0x119FF9D32114C8 0x4B PUSH7 0x7C9B3654BA840E 0xFB 0xED PUSH29 0xE7039941E58C64736F6C63430008160033000000000000000000000000 "
				},
				"gasEstimates": {
					"creation": {
						"codeDepositCost": "513200",
						"executionCost": "547",
						"totalCost": "513747"
					},
					"external": {
						"CheckEmail(string)": "infinite",
						"FinalCheckEmailMapping(string)": "infinite",
						"InitialCheckEmailMapping(string)": "infinite",
						"SaveEmail(string)": "infinite",
						"SaveEmailMapping(string,string)": "infinite"
					}
				},
				"methodIdentifiers": {
					"CheckEmail(string)": "f8b7800f",
					"FinalCheckEmailMapping(string)": "0e52f48a",
					"InitialCheckEmailMapping(string)": "46dd4bef",
					"SaveEmail(string)": "b6d7bd37",
					"SaveEmailMapping(string,string)": "0f9cc7b9"
				}
			},
			"storageLayout": {
				"storage": [
					{
						"astId": 5,
						"contract": "Email.sol:EmailVerification",
						"label": "SaveEmail",
						"offset": 0,
						"slot": "0",
						"type": "t_mapping(t_string_memory_ptr,t_string_storage)"
					},
					{
						"astId": 9,
						"contract": "Email.sol:EmailVerification",
						"label": "CheckEmail",
						"offset": 0,
						"slot": "1",
						"type": "t_mapping(t_string_memory_ptr,t_string_storage)"
					}
				],
				"types": {
					"t_mapping(t_string_memory_ptr,t_string_storage)": {
						"encoding": "mapping",
						"key": "t_string_memory_ptr",
						"label": "mapping(string => string)",
						"numberOfBytes": "32",
						"value": "t_string_storage"
					},
					"t_string_memory_ptr": {
						"encoding": "bytes",
						"label": "string",
						"numberOfBytes": "32"
					},
					"t_string_storage": {
						"encoding": "bytes",
						"label": "string",
						"numberOfBytes": "32"
					}
				}
			},
			"userdoc": {
				"kind": "user",
				"methods": {},
				"version": 1
			}
		}
	}
}