{
	"User.sol": {
		"Users": {
			"abi": [
				{
					"inputs": [
						{
							"internalType": "string",
							"name": "gmail",
							"type": "string"
						},
						{
							"internalType": "string",
							"name": "name",
							"type": "string"
						},
						{
							"internalType": "string",
							"name": "phoneNumber",
							"type": "string"
						},
						{
							"internalType": "string",
							"name": "age",
							"type": "string"
						}
					],
					"name": "addUser",
					"outputs": [
						{
							"internalType": "string",
							"name": "",
							"type": "string"
						}
					],
					"stateMutability": "nonpayable",
					"type": "function"
				},
				{
					"inputs": [
						{
							"internalType": "string",
							"name": "gmail",
							"type": "string"
						}
					],
					"name": "getUser",
					"outputs": [
						{
							"internalType": "string",
							"name": "",
							"type": "string"
						},
						{
							"internalType": "string",
							"name": "",
							"type": "string"
						},
						{
							"internalType": "string",
							"name": "",
							"type": "string"
						}
					],
					"stateMutability": "view",
					"type": "function"
				},
				{
					"inputs": [
						{
							"internalType": "string",
							"name": "",
							"type": "string"
						}
					],
					"name": "usersMapping",
					"outputs": [
						{
							"internalType": "string",
							"name": "name",
							"type": "string"
						},
						{
							"internalType": "string",
							"name": "phoneNumber",
							"type": "string"
						},
						{
							"internalType": "string",
							"name": "age",
							"type": "string"
						}
					],
					"stateMutability": "view",
					"type": "function"
				}
			],
			"devdoc": {
				"kind": "dev",
				"methods": {},
				"version": 1
			},
			"evm": {
				"assembly": "    /* \"User.sol\":69:1152  contract Users {... */\n  mstore(0x40, 0x80)\n  callvalue\n  dup1\n  iszero\n  tag_1\n  jumpi\n  0x00\n  dup1\n  revert\ntag_1:\n  pop\n  dataSize(sub_0)\n  dup1\n  dataOffset(sub_0)\n  0x00\n  codecopy\n  0x00\n  return\nstop\n\nsub_0: assembly {\n        /* \"User.sol\":69:1152  contract Users {... */\n      mstore(0x40, 0x80)\n      callvalue\n      dup1\n      iszero\n      tag_1\n      jumpi\n      0x00\n      dup1\n      revert\n    tag_1:\n      pop\n      jumpi(tag_2, lt(calldatasize, 0x04))\n      shr(0xe0, calldataload(0x00))\n      dup1\n      0x01cda3ac\n      eq\n      tag_3\n      jumpi\n      dup1\n      0x061e7f98\n      eq\n      tag_4\n      jumpi\n      dup1\n      0x31feb671\n      eq\n      tag_5\n      jumpi\n    tag_2:\n      0x00\n      dup1\n      revert\n        /* \"User.sol\":248:836  function addUser(string calldata gmail, string calldata name, string calldata phoneNumber, string calldata age) public returns (string memory) {... */\n    tag_3:\n      tag_6\n      0x04\n      dup1\n      calldatasize\n      sub\n      dup2\n      add\n      swap1\n      tag_7\n      swap2\n      swap1\n      tag_8\n      jump\t// in\n    tag_7:\n      tag_9\n      jump\t// in\n    tag_6:\n      mload(0x40)\n      tag_10\n      swap2\n      swap1\n      tag_11\n      jump\t// in\n    tag_10:\n      mload(0x40)\n      dup1\n      swap2\n      sub\n      swap1\n      return\n        /* \"User.sol\":195:239  mapping (string => User) public usersMapping */\n    tag_4:\n      tag_12\n      0x04\n      dup1\n      calldatasize\n      sub\n      dup2\n      add\n      swap1\n      tag_13\n      swap2\n      swap1\n      tag_14\n      jump\t// in\n    tag_13:\n      tag_15\n      jump\t// in\n    tag_12:\n      mload(0x40)\n      tag_16\n      swap4\n      swap3\n      swap2\n      swap1\n      tag_17\n      jump\t// in\n    tag_16:\n      mload(0x40)\n      dup1\n      swap2\n      sub\n      swap1\n      return\n        /* \"User.sol\":847:1149  function getUser(string calldata gmail) public view returns (string memory, string memory, string memory) {... */\n    tag_5:\n      tag_18\n      0x04\n      dup1\n      calldatasize\n      sub\n      dup2\n      add\n      swap1\n      tag_19\n      swap2\n      swap1\n      tag_20\n      jump\t// in\n    tag_19:\n      tag_21\n      jump\t// in\n    tag_18:\n      mload(0x40)\n      tag_22\n      swap4\n      swap3\n      swap2\n      swap1\n      tag_17\n      jump\t// in\n    tag_22:\n      mload(0x40)\n      dup1\n      swap2\n      sub\n      swap1\n      return\n        /* \"User.sol\":248:836  function addUser(string calldata gmail, string calldata name, string calldata phoneNumber, string calldata age) public returns (string memory) {... */\n    tag_9:\n        /* \"User.sol\":376:389  string memory */\n      0x60\n        /* \"User.sol\":493:494  0 */\n      0x00\n        /* \"User.sol\":457:469  usersMapping */\n      dup1\n        /* \"User.sol\":470:475  gmail */\n      dup11\n      dup11\n        /* \"User.sol\":457:476  usersMapping[gmail] */\n      mload(0x40)\n      tag_24\n      swap3\n      swap2\n      swap1\n      tag_25\n      jump\t// in\n    tag_24:\n      swap1\n      dup2\n      mstore\n      0x20\n      add\n      mload(0x40)\n      dup1\n      swap2\n      sub\n      swap1\n      keccak256\n        /* \"User.sol\":457:481  usersMapping[gmail].name */\n      0x00\n      add\n        /* \"User.sol\":451:489  bytes(usersMapping[gmail].name).length */\n      dup1\n      sload\n      tag_26\n      swap1\n      tag_27\n      jump\t// in\n    tag_26:\n      swap1\n      pop\n        /* \"User.sol\":451:494  bytes(usersMapping[gmail].name).length != 0 */\n      eq\n        /* \"User.sol\":447:609  if (bytes(usersMapping[gmail].name).length != 0) {... */\n      tag_28\n      jumpi\n        /* \"User.sol\":569:597  return \"User already exists\" */\n      mload(0x40)\n      dup1\n      0x40\n      add\n      0x40\n      mstore\n      dup1\n      0x13\n      dup2\n      mstore\n      0x20\n      add\n      0x5573657220616c72656164792065786973747300000000000000000000000000\n      dup2\n      mstore\n      pop\n      swap1\n      pop\n      jump(tag_23)\n        /* \"User.sol\":447:609  if (bytes(usersMapping[gmail].name).length != 0) {... */\n    tag_28:\n        /* \"User.sol\":712:740  User(name, phoneNumber, age) */\n      mload(0x40)\n      dup1\n      0x60\n      add\n      0x40\n      mstore\n      dup1\n        /* \"User.sol\":717:721  name */\n      dup9\n      dup9\n        /* \"User.sol\":712:740  User(name, phoneNumber, age) */\n      dup1\n      dup1\n      0x1f\n      add\n      0x20\n      dup1\n      swap2\n      div\n      mul\n      0x20\n      add\n      mload(0x40)\n      swap1\n      dup2\n      add\n      0x40\n      mstore\n      dup1\n      swap4\n      swap3\n      swap2\n      swap1\n      dup2\n      dup2\n      mstore\n      0x20\n      add\n      dup4\n      dup4\n      dup1\n      dup3\n      dup5\n      calldatacopy\n      0x00\n      dup2\n      dup5\n      add\n      mstore\n      not(0x1f)\n      0x1f\n      dup3\n      add\n      and\n      swap1\n      pop\n      dup1\n      dup4\n      add\n      swap3\n      pop\n      pop\n      pop\n      pop\n      pop\n      pop\n      pop\n      dup2\n      mstore\n      0x20\n      add\n        /* \"User.sol\":723:734  phoneNumber */\n      dup7\n      dup7\n        /* \"User.sol\":712:740  User(name, phoneNumber, age) */\n      dup1\n      dup1\n      0x1f\n      add\n      0x20\n      dup1\n      swap2\n      div\n      mul\n      0x20\n      add\n      mload(0x40)\n      swap1\n      dup2\n      add\n      0x40\n      mstore\n      dup1\n      swap4\n      swap3\n      swap2\n      swap1\n      dup2\n      dup2\n      mstore\n      0x20\n      add\n      dup4\n      dup4\n      dup1\n      dup3\n      dup5\n      calldatacopy\n      0x00\n      dup2\n      dup5\n      add\n      mstore\n      not(0x1f)\n      0x1f\n      dup3\n      add\n      and\n      swap1\n      pop\n      dup1\n      dup4\n      add\n      swap3\n      pop\n      pop\n      pop\n      pop\n      pop\n      pop\n      pop\n      dup2\n      mstore\n      0x20\n      add\n        /* \"User.sol\":736:739  age */\n      dup5\n      dup5\n        /* \"User.sol\":712:740  User(name, phoneNumber, age) */\n      dup1\n      dup1\n      0x1f\n      add\n      0x20\n      dup1\n      swap2\n      div\n      mul\n      0x20\n      add\n      mload(0x40)\n      swap1\n      dup2\n      add\n      0x40\n      mstore\n      dup1\n      swap4\n      swap3\n      swap2\n      swap1\n      dup2\n      dup2\n      mstore\n      0x20\n      add\n      dup4\n      dup4\n      dup1\n      dup3\n      dup5\n      calldatacopy\n      0x00\n      dup2\n      dup5\n      add\n      mstore\n      not(0x1f)\n      0x1f\n      dup3\n      add\n      and\n      swap1\n      pop\n      dup1\n      dup4\n      add\n      swap3\n      pop\n      pop\n      pop\n      pop\n      pop\n      pop\n      pop\n      dup2\n      mstore\n      pop\n        /* \"User.sol\":690:702  usersMapping */\n      0x00\n        /* \"User.sol\":703:708  gmail */\n      dup11\n      dup11\n        /* \"User.sol\":690:709  usersMapping[gmail] */\n      mload(0x40)\n      tag_29\n      swap3\n      swap2\n      swap1\n      tag_25\n      jump\t// in\n    tag_29:\n      swap1\n      dup2\n      mstore\n      0x20\n      add\n      mload(0x40)\n      dup1\n      swap2\n      sub\n      swap1\n      keccak256\n        /* \"User.sol\":690:740  usersMapping[gmail] = User(name, phoneNumber, age) */\n      0x00\n      dup3\n      add\n      mload\n      dup2\n      0x00\n      add\n      swap1\n      dup2\n      tag_30\n      swap2\n      swap1\n      tag_31\n      jump\t// in\n    tag_30:\n      pop\n      0x20\n      dup3\n      add\n      mload\n      dup2\n      0x01\n      add\n      swap1\n      dup2\n      tag_32\n      swap2\n      swap1\n      tag_31\n      jump\t// in\n    tag_32:\n      pop\n      0x40\n      dup3\n      add\n      mload\n      dup2\n      0x02\n      add\n      swap1\n      dup2\n      tag_33\n      swap2\n      swap1\n      tag_31\n      jump\t// in\n    tag_33:\n      pop\n      swap1\n      pop\n      pop\n        /* \"User.sol\":796:828  return \"User added successfully\" */\n      mload(0x40)\n      dup1\n      0x40\n      add\n      0x40\n      mstore\n      dup1\n      0x17\n      dup2\n      mstore\n      0x20\n      add\n      0x55736572206164646564207375636365737366756c6c79000000000000000000\n      dup2\n      mstore\n      pop\n      swap1\n      pop\n        /* \"User.sol\":248:836  function addUser(string calldata gmail, string calldata name, string calldata phoneNumber, string calldata age) public returns (string memory) {... */\n    tag_23:\n      swap9\n      swap8\n      pop\n      pop\n      pop\n      pop\n      pop\n      pop\n      pop\n      pop\n      jump\t// out\n        /* \"User.sol\":195:239  mapping (string => User) public usersMapping */\n    tag_15:\n      0x00\n      dup2\n      dup1\n      mload\n      0x20\n      dup2\n      add\n      dup3\n      add\n      dup1\n      mload\n      dup5\n      dup3\n      mstore\n      0x20\n      dup4\n      add\n      0x20\n      dup6\n      add\n      keccak256\n      dup2\n      dup4\n      mstore\n      dup1\n      swap6\n      pop\n      pop\n      pop\n      pop\n      pop\n      pop\n      0x00\n      swap2\n      pop\n      swap1\n      pop\n      dup1\n      0x00\n      add\n      dup1\n      sload\n      tag_34\n      swap1\n      tag_27\n      jump\t// in\n    tag_34:\n      dup1\n      0x1f\n      add\n      0x20\n      dup1\n      swap2\n      div\n      mul\n      0x20\n      add\n      mload(0x40)\n      swap1\n      dup2\n      add\n      0x40\n      mstore\n      dup1\n      swap3\n      swap2\n      swap1\n      dup2\n      dup2\n      mstore\n      0x20\n      add\n      dup3\n      dup1\n      sload\n      tag_35\n      swap1\n      tag_27\n      jump\t// in\n    tag_35:\n      dup1\n      iszero\n      tag_36\n      jumpi\n      dup1\n      0x1f\n      lt\n      tag_37\n      jumpi\n      0x0100\n      dup1\n      dup4\n      sload\n      div\n      mul\n      dup4\n      mstore\n      swap2\n      0x20\n      add\n      swap2\n      jump(tag_36)\n    tag_37:\n      dup3\n      add\n      swap2\n      swap1\n      0x00\n      mstore\n      keccak256(0x00, 0x20)\n      swap1\n    tag_38:\n      dup2\n      sload\n      dup2\n      mstore\n      swap1\n      0x01\n      add\n      swap1\n      0x20\n      add\n      dup1\n      dup4\n      gt\n      tag_38\n      jumpi\n      dup3\n      swap1\n      sub\n      0x1f\n      and\n      dup3\n      add\n      swap2\n    tag_36:\n      pop\n      pop\n      pop\n      pop\n      pop\n      swap1\n      dup1\n      0x01\n      add\n      dup1\n      sload\n      tag_39\n      swap1\n      tag_27\n      jump\t// in\n    tag_39:\n      dup1\n      0x1f\n      add\n      0x20\n      dup1\n      swap2\n      div\n      mul\n      0x20\n      add\n      mload(0x40)\n      swap1\n      dup2\n      add\n      0x40\n      mstore\n      dup1\n      swap3\n      swap2\n      swap1\n      dup2\n      dup2\n      mstore\n      0x20\n      add\n      dup3\n      dup1\n      sload\n      tag_40\n      swap1\n      tag_27\n      jump\t// in\n    tag_40:\n      dup1\n      iszero\n      tag_41\n      jumpi\n      dup1\n      0x1f\n      lt\n      tag_42\n      jumpi\n      0x0100\n      dup1\n      dup4\n      sload\n      div\n      mul\n      dup4\n      mstore\n      swap2\n      0x20\n      add\n      swap2\n      jump(tag_41)\n    tag_42:\n      dup3\n      add\n      swap2\n      swap1\n      0x00\n      mstore\n      keccak256(0x00, 0x20)\n      swap1\n    tag_43:\n      dup2\n      sload\n      dup2\n      mstore\n      swap1\n      0x01\n      add\n      swap1\n      0x20\n      add\n      dup1\n      dup4\n      gt\n      tag_43\n      jumpi\n      dup3\n      swap1\n      sub\n      0x1f\n      and\n      dup3\n      add\n      swap2\n    tag_41:\n      pop\n      pop\n      pop\n      pop\n      pop\n      swap1\n      dup1\n      0x02\n      add\n      dup1\n      sload\n      tag_44\n      swap1\n      tag_27\n      jump\t// in\n    tag_44:\n      dup1\n      0x1f\n      add\n      0x20\n      dup1\n      swap2\n      div\n      mul\n      0x20\n      add\n      mload(0x40)\n      swap1\n      dup2\n      add\n      0x40\n      mstore\n      dup1\n      swap3\n      swap2\n      swap1\n      dup2\n      dup2\n      mstore\n      0x20\n      add\n      dup3\n      dup1\n      sload\n      tag_45\n      swap1\n      tag_27\n      jump\t// in\n    tag_45:\n      dup1\n      iszero\n      tag_46\n      jumpi\n      dup1\n      0x1f\n      lt\n      tag_47\n      jumpi\n      0x0100\n      dup1\n      dup4\n      sload\n      div\n      mul\n      dup4\n      mstore\n      swap2\n      0x20\n      add\n      swap2\n      jump(tag_46)\n    tag_47:\n      dup3\n      add\n      swap2\n      swap1\n      0x00\n      mstore\n      keccak256(0x00, 0x20)\n      swap1\n    tag_48:\n      dup2\n      sload\n      dup2\n      mstore\n      swap1\n      0x01\n      add\n      swap1\n      0x20\n      add\n      dup1\n      dup4\n      gt\n      tag_48\n      jumpi\n      dup3\n      swap1\n      sub\n      0x1f\n      and\n      dup3\n      add\n      swap2\n    tag_46:\n      pop\n      pop\n      pop\n      pop\n      pop\n      swap1\n      pop\n      dup4\n      jump\t// out\n        /* \"User.sol\":847:1149  function getUser(string calldata gmail) public view returns (string memory, string memory, string memory) {... */\n    tag_21:\n        /* \"User.sol\":908:921  string memory */\n      0x60\n        /* \"User.sol\":923:936  string memory */\n      dup1\n        /* \"User.sol\":938:951  string memory */\n      0x60\n        /* \"User.sol\":1007:1023  User memory user */\n      0x00\n        /* \"User.sol\":1026:1038  usersMapping */\n      dup1\n        /* \"User.sol\":1039:1044  gmail */\n      dup7\n      dup7\n        /* \"User.sol\":1026:1045  usersMapping[gmail] */\n      mload(0x40)\n      tag_50\n      swap3\n      swap2\n      swap1\n      tag_25\n      jump\t// in\n    tag_50:\n      swap1\n      dup2\n      mstore\n      0x20\n      add\n      mload(0x40)\n      dup1\n      swap2\n      sub\n      swap1\n      keccak256\n        /* \"User.sol\":1007:1045  User memory user = usersMapping[gmail] */\n      mload(0x40)\n      dup1\n      0x60\n      add\n      0x40\n      mstore\n      swap1\n      dup2\n      0x00\n      dup3\n      add\n      dup1\n      sload\n      tag_51\n      swap1\n      tag_27\n      jump\t// in\n    tag_51:\n      dup1\n      0x1f\n      add\n      0x20\n      dup1\n      swap2\n      div\n      mul\n      0x20\n      add\n      mload(0x40)\n      swap1\n      dup2\n      add\n      0x40\n      mstore\n      dup1\n      swap3\n      swap2\n      swap1\n      dup2\n      dup2\n      mstore\n      0x20\n      add\n      dup3\n      dup1\n      sload\n      tag_52\n      swap1\n      tag_27\n      jump\t// in\n    tag_52:\n      dup1\n      iszero\n      tag_53\n      jumpi\n      dup1\n      0x1f\n      lt\n      tag_54\n      jumpi\n      0x0100\n      dup1\n      dup4\n      sload\n      div\n      mul\n      dup4\n      mstore\n      swap2\n      0x20\n      add\n      swap2\n      jump(tag_53)\n    tag_54:\n      dup3\n      add\n      swap2\n      swap1\n      0x00\n      mstore\n      keccak256(0x00, 0x20)\n      swap1\n    tag_55:\n      dup2\n      sload\n      dup2\n      mstore\n      swap1\n      0x01\n      add\n      swap1\n      0x20\n      add\n      dup1\n      dup4\n      gt\n      tag_55\n      jumpi\n      dup3\n      swap1\n      sub\n      0x1f\n      and\n      dup3\n      add\n      swap2\n    tag_53:\n      pop\n      pop\n      pop\n      pop\n      pop\n      dup2\n      mstore\n      0x20\n      add\n      0x01\n      dup3\n      add\n      dup1\n      sload\n      tag_56\n      swap1\n      tag_27\n      jump\t// in\n    tag_56:\n      dup1\n      0x1f\n      add\n      0x20\n      dup1\n      swap2\n      div\n      mul\n      0x20\n      add\n      mload(0x40)\n      swap1\n      dup2\n      add\n      0x40\n      mstore\n      dup1\n      swap3\n      swap2\n      swap1\n      dup2\n      dup2\n      mstore\n      0x20\n      add\n      dup3\n      dup1\n      sload\n      tag_57\n      swap1\n      tag_27\n      jump\t// in\n    tag_57:\n      dup1\n      iszero\n      tag_58\n      jumpi\n      dup1\n      0x1f\n      lt\n      tag_59\n      jumpi\n      0x0100\n      dup1\n      dup4\n      sload\n      div\n      mul\n      dup4\n      mstore\n      swap2\n      0x20\n      add\n      swap2\n      jump(tag_58)\n    tag_59:\n      dup3\n      add\n      swap2\n      swap1\n      0x00\n      mstore\n      keccak256(0x00, 0x20)\n      swap1\n    tag_60:\n      dup2\n      sload\n      dup2\n      mstore\n      swap1\n      0x01\n      add\n      swap1\n      0x20\n      add\n      dup1\n      dup4\n      gt\n      tag_60\n      jumpi\n      dup3\n      swap1\n      sub\n      0x1f\n      and\n      dup3\n      add\n      swap2\n    tag_58:\n      pop\n      pop\n      pop\n      pop\n      pop\n      dup2\n      mstore\n      0x20\n      add\n      0x02\n      dup3\n      add\n      dup1\n      sload\n      tag_61\n      swap1\n      tag_27\n      jump\t// in\n    tag_61:\n      dup1\n      0x1f\n      add\n      0x20\n      dup1\n      swap2\n      div\n      mul\n      0x20\n      add\n      mload(0x40)\n      swap1\n      dup2\n      add\n      0x40\n      mstore\n      dup1\n      swap3\n      swap2\n      swap1\n      dup2\n      dup2\n      mstore\n      0x20\n      add\n      dup3\n      dup1\n      sload\n      tag_62\n      swap1\n      tag_27\n      jump\t// in\n    tag_62:\n      dup1\n      iszero\n      tag_63\n      jumpi\n      dup1\n      0x1f\n      lt\n      tag_64\n      jumpi\n      0x0100\n      dup1\n      dup4\n      sload\n      div\n      mul\n      dup4\n      mstore\n      swap2\n      0x20\n      add\n      swap2\n      jump(tag_63)\n    tag_64:\n      dup3\n      add\n      swap2\n      swap1\n      0x00\n      mstore\n      keccak256(0x00, 0x20)\n      swap1\n    tag_65:\n      dup2\n      sload\n      dup2\n      mstore\n      swap1\n      0x01\n      add\n      swap1\n      0x20\n      add\n      dup1\n      dup4\n      gt\n      tag_65\n      jumpi\n      dup3\n      swap1\n      sub\n      0x1f\n      and\n      dup3\n      add\n      swap2\n    tag_63:\n      pop\n      pop\n      pop\n      pop\n      pop\n      dup2\n      mstore\n      pop\n      pop\n      swap1\n      pop\n        /* \"User.sol\":1103:1107  user */\n      dup1\n        /* \"User.sol\":1103:1112  user.name */\n      0x00\n      add\n      mload\n        /* \"User.sol\":1114:1118  user */\n      dup2\n        /* \"User.sol\":1114:1130  user.phoneNumber */\n      0x20\n      add\n      mload\n        /* \"User.sol\":1132:1136  user */\n      dup3\n        /* \"User.sol\":1132:1140  user.age */\n      0x40\n      add\n      mload\n        /* \"User.sol\":1095:1141  return (user.name, user.phoneNumber, user.age) */\n      swap4\n      pop\n      swap4\n      pop\n      swap4\n      pop\n      pop\n        /* \"User.sol\":847:1149  function getUser(string calldata gmail) public view returns (string memory, string memory, string memory) {... */\n      swap3\n      pop\n      swap3\n      pop\n      swap3\n      jump\t// out\n        /* \"#utility.yul\":7:82   */\n    tag_66:\n        /* \"#utility.yul\":40:46   */\n      0x00\n        /* \"#utility.yul\":73:75   */\n      0x40\n        /* \"#utility.yul\":67:76   */\n      mload\n        /* \"#utility.yul\":57:76   */\n      swap1\n      pop\n        /* \"#utility.yul\":7:82   */\n      swap1\n      jump\t// out\n        /* \"#utility.yul\":88:205   */\n    tag_67:\n        /* \"#utility.yul\":197:198   */\n      0x00\n        /* \"#utility.yul\":194:195   */\n      dup1\n        /* \"#utility.yul\":187:199   */\n      revert\n        /* \"#utility.yul\":211:328   */\n    tag_68:\n        /* \"#utility.yul\":320:321   */\n      0x00\n        /* \"#utility.yul\":317:318   */\n      dup1\n        /* \"#utility.yul\":310:322   */\n      revert\n        /* \"#utility.yul\":334:451   */\n    tag_69:\n        /* \"#utility.yul\":443:444   */\n      0x00\n        /* \"#utility.yul\":440:441   */\n      dup1\n        /* \"#utility.yul\":433:445   */\n      revert\n        /* \"#utility.yul\":457:574   */\n    tag_70:\n        /* \"#utility.yul\":566:567   */\n      0x00\n        /* \"#utility.yul\":563:564   */\n      dup1\n        /* \"#utility.yul\":556:568   */\n      revert\n        /* \"#utility.yul\":580:697   */\n    tag_71:\n        /* \"#utility.yul\":689:690   */\n      0x00\n        /* \"#utility.yul\":686:687   */\n      dup1\n        /* \"#utility.yul\":679:691   */\n      revert\n        /* \"#utility.yul\":717:1270   */\n    tag_72:\n        /* \"#utility.yul\":775:783   */\n      0x00\n        /* \"#utility.yul\":785:791   */\n      dup1\n        /* \"#utility.yul\":835:838   */\n      dup4\n        /* \"#utility.yul\":828:832   */\n      0x1f\n        /* \"#utility.yul\":820:826   */\n      dup5\n        /* \"#utility.yul\":816:833   */\n      add\n        /* \"#utility.yul\":812:839   */\n      slt\n        /* \"#utility.yul\":802:924   */\n      tag_113\n      jumpi\n        /* \"#utility.yul\":843:922   */\n      tag_114\n      tag_69\n      jump\t// in\n    tag_114:\n        /* \"#utility.yul\":802:924   */\n    tag_113:\n        /* \"#utility.yul\":956:962   */\n      dup3\n        /* \"#utility.yul\":943:963   */\n      calldataload\n        /* \"#utility.yul\":933:963   */\n      swap1\n      pop\n        /* \"#utility.yul\":986:1004   */\n      0xffffffffffffffff\n        /* \"#utility.yul\":978:984   */\n      dup2\n        /* \"#utility.yul\":975:1005   */\n      gt\n        /* \"#utility.yul\":972:1089   */\n      iszero\n      tag_115\n      jumpi\n        /* \"#utility.yul\":1008:1087   */\n      tag_116\n      tag_70\n      jump\t// in\n    tag_116:\n        /* \"#utility.yul\":972:1089   */\n    tag_115:\n        /* \"#utility.yul\":1122:1126   */\n      0x20\n        /* \"#utility.yul\":1114:1120   */\n      dup4\n        /* \"#utility.yul\":1110:1127   */\n      add\n        /* \"#utility.yul\":1098:1127   */\n      swap2\n      pop\n        /* \"#utility.yul\":1176:1179   */\n      dup4\n        /* \"#utility.yul\":1168:1172   */\n      0x01\n        /* \"#utility.yul\":1160:1166   */\n      dup3\n        /* \"#utility.yul\":1156:1173   */\n      mul\n        /* \"#utility.yul\":1146:1154   */\n      dup4\n        /* \"#utility.yul\":1142:1174   */\n      add\n        /* \"#utility.yul\":1139:1180   */\n      gt\n        /* \"#utility.yul\":1136:1264   */\n      iszero\n      tag_117\n      jumpi\n        /* \"#utility.yul\":1183:1262   */\n      tag_118\n      tag_71\n      jump\t// in\n    tag_118:\n        /* \"#utility.yul\":1136:1264   */\n    tag_117:\n        /* \"#utility.yul\":717:1270   */\n      swap3\n      pop\n      swap3\n      swap1\n      pop\n      jump\t// out\n        /* \"#utility.yul\":1276:2841   */\n    tag_8:\n        /* \"#utility.yul\":1410:1416   */\n      0x00\n        /* \"#utility.yul\":1418:1424   */\n      dup1\n        /* \"#utility.yul\":1426:1432   */\n      0x00\n        /* \"#utility.yul\":1434:1440   */\n      dup1\n        /* \"#utility.yul\":1442:1448   */\n      0x00\n        /* \"#utility.yul\":1450:1456   */\n      dup1\n        /* \"#utility.yul\":1458:1464   */\n      0x00\n        /* \"#utility.yul\":1466:1472   */\n      dup1\n        /* \"#utility.yul\":1515:1518   */\n      0x80\n        /* \"#utility.yul\":1503:1512   */\n      dup10\n        /* \"#utility.yul\":1494:1501   */\n      dup12\n        /* \"#utility.yul\":1490:1513   */\n      sub\n        /* \"#utility.yul\":1486:1519   */\n      slt\n        /* \"#utility.yul\":1483:1603   */\n      iszero\n      tag_120\n      jumpi\n        /* \"#utility.yul\":1522:1601   */\n      tag_121\n      tag_67\n      jump\t// in\n    tag_121:\n        /* \"#utility.yul\":1483:1603   */\n    tag_120:\n        /* \"#utility.yul\":1670:1671   */\n      0x00\n        /* \"#utility.yul\":1659:1668   */\n      dup10\n        /* \"#utility.yul\":1655:1672   */\n      add\n        /* \"#utility.yul\":1642:1673   */\n      calldataload\n        /* \"#utility.yul\":1700:1718   */\n      0xffffffffffffffff\n        /* \"#utility.yul\":1692:1698   */\n      dup2\n        /* \"#utility.yul\":1689:1719   */\n      gt\n        /* \"#utility.yul\":1686:1803   */\n      iszero\n      tag_122\n      jumpi\n        /* \"#utility.yul\":1722:1801   */\n      tag_123\n      tag_68\n      jump\t// in\n    tag_123:\n        /* \"#utility.yul\":1686:1803   */\n    tag_122:\n        /* \"#utility.yul\":1835:1900   */\n      tag_124\n        /* \"#utility.yul\":1892:1899   */\n      dup12\n        /* \"#utility.yul\":1883:1889   */\n      dup3\n        /* \"#utility.yul\":1872:1881   */\n      dup13\n        /* \"#utility.yul\":1868:1890   */\n      add\n        /* \"#utility.yul\":1835:1900   */\n      tag_72\n      jump\t// in\n    tag_124:\n        /* \"#utility.yul\":1817:1900   */\n      swap9\n      pop\n      swap9\n      pop\n        /* \"#utility.yul\":1613:1910   */\n      pop\n        /* \"#utility.yul\":1977:1979   */\n      0x20\n        /* \"#utility.yul\":1966:1975   */\n      dup10\n        /* \"#utility.yul\":1962:1980   */\n      add\n        /* \"#utility.yul\":1949:1981   */\n      calldataload\n        /* \"#utility.yul\":2008:2026   */\n      0xffffffffffffffff\n        /* \"#utility.yul\":2000:2006   */\n      dup2\n        /* \"#utility.yul\":1997:2027   */\n      gt\n        /* \"#utility.yul\":1994:2111   */\n      iszero\n      tag_125\n      jumpi\n        /* \"#utility.yul\":2030:2109   */\n      tag_126\n      tag_68\n      jump\t// in\n    tag_126:\n        /* \"#utility.yul\":1994:2111   */\n    tag_125:\n        /* \"#utility.yul\":2143:2208   */\n      tag_127\n        /* \"#utility.yul\":2200:2207   */\n      dup12\n        /* \"#utility.yul\":2191:2197   */\n      dup3\n        /* \"#utility.yul\":2180:2189   */\n      dup13\n        /* \"#utility.yul\":2176:2198   */\n      add\n        /* \"#utility.yul\":2143:2208   */\n      tag_72\n      jump\t// in\n    tag_127:\n        /* \"#utility.yul\":2125:2208   */\n      swap7\n      pop\n      swap7\n      pop\n        /* \"#utility.yul\":1920:2218   */\n      pop\n        /* \"#utility.yul\":2285:2287   */\n      0x40\n        /* \"#utility.yul\":2274:2283   */\n      dup10\n        /* \"#utility.yul\":2270:2288   */\n      add\n        /* \"#utility.yul\":2257:2289   */\n      calldataload\n        /* \"#utility.yul\":2316:2334   */\n      0xffffffffffffffff\n        /* \"#utility.yul\":2308:2314   */\n      dup2\n        /* \"#utility.yul\":2305:2335   */\n      gt\n        /* \"#utility.yul\":2302:2419   */\n      iszero\n      tag_128\n      jumpi\n        /* \"#utility.yul\":2338:2417   */\n      tag_129\n      tag_68\n      jump\t// in\n    tag_129:\n        /* \"#utility.yul\":2302:2419   */\n    tag_128:\n        /* \"#utility.yul\":2451:2516   */\n      tag_130\n        /* \"#utility.yul\":2508:2515   */\n      dup12\n        /* \"#utility.yul\":2499:2505   */\n      dup3\n        /* \"#utility.yul\":2488:2497   */\n      dup13\n        /* \"#utility.yul\":2484:2506   */\n      add\n        /* \"#utility.yul\":2451:2516   */\n      tag_72\n      jump\t// in\n    tag_130:\n        /* \"#utility.yul\":2433:2516   */\n      swap5\n      pop\n      swap5\n      pop\n        /* \"#utility.yul\":2228:2526   */\n      pop\n        /* \"#utility.yul\":2593:2595   */\n      0x60\n        /* \"#utility.yul\":2582:2591   */\n      dup10\n        /* \"#utility.yul\":2578:2596   */\n      add\n        /* \"#utility.yul\":2565:2597   */\n      calldataload\n        /* \"#utility.yul\":2624:2642   */\n      0xffffffffffffffff\n        /* \"#utility.yul\":2616:2622   */\n      dup2\n        /* \"#utility.yul\":2613:2643   */\n      gt\n        /* \"#utility.yul\":2610:2727   */\n      iszero\n      tag_131\n      jumpi\n        /* \"#utility.yul\":2646:2725   */\n      tag_132\n      tag_68\n      jump\t// in\n    tag_132:\n        /* \"#utility.yul\":2610:2727   */\n    tag_131:\n        /* \"#utility.yul\":2759:2824   */\n      tag_133\n        /* \"#utility.yul\":2816:2823   */\n      dup12\n        /* \"#utility.yul\":2807:2813   */\n      dup3\n        /* \"#utility.yul\":2796:2805   */\n      dup13\n        /* \"#utility.yul\":2792:2814   */\n      add\n        /* \"#utility.yul\":2759:2824   */\n      tag_72\n      jump\t// in\n    tag_133:\n        /* \"#utility.yul\":2741:2824   */\n      swap3\n      pop\n      swap3\n      pop\n        /* \"#utility.yul\":2536:2834   */\n      pop\n        /* \"#utility.yul\":1276:2841   */\n      swap3\n      swap6\n      swap9\n      pop\n      swap3\n      swap6\n      swap9\n      swap1\n      swap4\n      swap7\n      pop\n      jump\t// out\n        /* \"#utility.yul\":2847:2946   */\n    tag_73:\n        /* \"#utility.yul\":2899:2905   */\n      0x00\n        /* \"#utility.yul\":2933:2938   */\n      dup2\n        /* \"#utility.yul\":2927:2939   */\n      mload\n        /* \"#utility.yul\":2917:2939   */\n      swap1\n      pop\n        /* \"#utility.yul\":2847:2946   */\n      swap2\n      swap1\n      pop\n      jump\t// out\n        /* \"#utility.yul\":2952:3121   */\n    tag_74:\n        /* \"#utility.yul\":3036:3047   */\n      0x00\n        /* \"#utility.yul\":3070:3076   */\n      dup3\n        /* \"#utility.yul\":3065:3068   */\n      dup3\n        /* \"#utility.yul\":3058:3077   */\n      mstore\n        /* \"#utility.yul\":3110:3114   */\n      0x20\n        /* \"#utility.yul\":3105:3108   */\n      dup3\n        /* \"#utility.yul\":3101:3115   */\n      add\n        /* \"#utility.yul\":3086:3115   */\n      swap1\n      pop\n        /* \"#utility.yul\":2952:3121   */\n      swap3\n      swap2\n      pop\n      pop\n      jump\t// out\n        /* \"#utility.yul\":3127:3373   */\n    tag_75:\n        /* \"#utility.yul\":3208:3209   */\n      0x00\n        /* \"#utility.yul\":3218:3331   */\n    tag_137:\n        /* \"#utility.yul\":3232:3238   */\n      dup4\n        /* \"#utility.yul\":3229:3230   */\n      dup2\n        /* \"#utility.yul\":3226:3239   */\n      lt\n        /* \"#utility.yul\":3218:3331   */\n      iszero\n      tag_139\n      jumpi\n        /* \"#utility.yul\":3317:3318   */\n      dup1\n        /* \"#utility.yul\":3312:3315   */\n      dup3\n        /* \"#utility.yul\":3308:3319   */\n      add\n        /* \"#utility.yul\":3302:3320   */\n      mload\n        /* \"#utility.yul\":3298:3299   */\n      dup2\n        /* \"#utility.yul\":3293:3296   */\n      dup5\n        /* \"#utility.yul\":3289:3300   */\n      add\n        /* \"#utility.yul\":3282:3321   */\n      mstore\n        /* \"#utility.yul\":3254:3256   */\n      0x20\n        /* \"#utility.yul\":3251:3252   */\n      dup2\n        /* \"#utility.yul\":3247:3257   */\n      add\n        /* \"#utility.yul\":3242:3257   */\n      swap1\n      pop\n        /* \"#utility.yul\":3218:3331   */\n      jump(tag_137)\n    tag_139:\n        /* \"#utility.yul\":3365:3366   */\n      0x00\n        /* \"#utility.yul\":3356:3362   */\n      dup5\n        /* \"#utility.yul\":3351:3354   */\n      dup5\n        /* \"#utility.yul\":3347:3363   */\n      add\n        /* \"#utility.yul\":3340:3367   */\n      mstore\n        /* \"#utility.yul\":3189:3373   */\n      pop\n        /* \"#utility.yul\":3127:3373   */\n      pop\n      pop\n      pop\n      jump\t// out\n        /* \"#utility.yul\":3379:3481   */\n    tag_76:\n        /* \"#utility.yul\":3420:3426   */\n      0x00\n        /* \"#utility.yul\":3471:3473   */\n      0x1f\n        /* \"#utility.yul\":3467:3474   */\n      not\n        /* \"#utility.yul\":3462:3464   */\n      0x1f\n        /* \"#utility.yul\":3455:3460   */\n      dup4\n        /* \"#utility.yul\":3451:3465   */\n      add\n        /* \"#utility.yul\":3447:3475   */\n      and\n        /* \"#utility.yul\":3437:3475   */\n      swap1\n      pop\n        /* \"#utility.yul\":3379:3481   */\n      swap2\n      swap1\n      pop\n      jump\t// out\n        /* \"#utility.yul\":3487:3864   */\n    tag_77:\n        /* \"#utility.yul\":3575:3578   */\n      0x00\n        /* \"#utility.yul\":3603:3642   */\n      tag_142\n        /* \"#utility.yul\":3636:3641   */\n      dup3\n        /* \"#utility.yul\":3603:3642   */\n      tag_73\n      jump\t// in\n    tag_142:\n        /* \"#utility.yul\":3658:3729   */\n      tag_143\n        /* \"#utility.yul\":3722:3728   */\n      dup2\n        /* \"#utility.yul\":3717:3720   */\n      dup6\n        /* \"#utility.yul\":3658:3729   */\n      tag_74\n      jump\t// in\n    tag_143:\n        /* \"#utility.yul\":3651:3729   */\n      swap4\n      pop\n        /* \"#utility.yul\":3738:3803   */\n      tag_144\n        /* \"#utility.yul\":3796:3802   */\n      dup2\n        /* \"#utility.yul\":3791:3794   */\n      dup6\n        /* \"#utility.yul\":3784:3788   */\n      0x20\n        /* \"#utility.yul\":3777:3782   */\n      dup7\n        /* \"#utility.yul\":3773:3789   */\n      add\n        /* \"#utility.yul\":3738:3803   */\n      tag_75\n      jump\t// in\n    tag_144:\n        /* \"#utility.yul\":3828:3857   */\n      tag_145\n        /* \"#utility.yul\":3850:3856   */\n      dup2\n        /* \"#utility.yul\":3828:3857   */\n      tag_76\n      jump\t// in\n    tag_145:\n        /* \"#utility.yul\":3823:3826   */\n      dup5\n        /* \"#utility.yul\":3819:3858   */\n      add\n        /* \"#utility.yul\":3812:3858   */\n      swap2\n      pop\n        /* \"#utility.yul\":3579:3864   */\n      pop\n        /* \"#utility.yul\":3487:3864   */\n      swap3\n      swap2\n      pop\n      pop\n      jump\t// out\n        /* \"#utility.yul\":3870:4183   */\n    tag_11:\n        /* \"#utility.yul\":3983:3987   */\n      0x00\n        /* \"#utility.yul\":4021:4023   */\n      0x20\n        /* \"#utility.yul\":4010:4019   */\n      dup3\n        /* \"#utility.yul\":4006:4024   */\n      add\n        /* \"#utility.yul\":3998:4024   */\n      swap1\n      pop\n        /* \"#utility.yul\":4070:4079   */\n      dup2\n        /* \"#utility.yul\":4064:4068   */\n      dup2\n        /* \"#utility.yul\":4060:4080   */\n      sub\n        /* \"#utility.yul\":4056:4057   */\n      0x00\n        /* \"#utility.yul\":4045:4054   */\n      dup4\n        /* \"#utility.yul\":4041:4058   */\n      add\n        /* \"#utility.yul\":4034:4081   */\n      mstore\n        /* \"#utility.yul\":4098:4176   */\n      tag_147\n        /* \"#utility.yul\":4171:4175   */\n      dup2\n        /* \"#utility.yul\":4162:4168   */\n      dup5\n        /* \"#utility.yul\":4098:4176   */\n      tag_77\n      jump\t// in\n    tag_147:\n        /* \"#utility.yul\":4090:4176   */\n      swap1\n      pop\n        /* \"#utility.yul\":3870:4183   */\n      swap3\n      swap2\n      pop\n      pop\n      jump\t// out\n        /* \"#utility.yul\":4189:4306   */\n    tag_78:\n        /* \"#utility.yul\":4298:4299   */\n      0x00\n        /* \"#utility.yul\":4295:4296   */\n      dup1\n        /* \"#utility.yul\":4288:4300   */\n      revert\n        /* \"#utility.yul\":4312:4492   */\n    tag_79:\n        /* \"#utility.yul\":4360:4437   */\n      0x4e487b7100000000000000000000000000000000000000000000000000000000\n        /* \"#utility.yul\":4357:4358   */\n      0x00\n        /* \"#utility.yul\":4350:4438   */\n      mstore\n        /* \"#utility.yul\":4457:4461   */\n      0x41\n        /* \"#utility.yul\":4454:4455   */\n      0x04\n        /* \"#utility.yul\":4447:4462   */\n      mstore\n        /* \"#utility.yul\":4481:4485   */\n      0x24\n        /* \"#utility.yul\":4478:4479   */\n      0x00\n        /* \"#utility.yul\":4471:4486   */\n      revert\n        /* \"#utility.yul\":4498:4779   */\n    tag_80:\n        /* \"#utility.yul\":4581:4608   */\n      tag_151\n        /* \"#utility.yul\":4603:4607   */\n      dup3\n        /* \"#utility.yul\":4581:4608   */\n      tag_76\n      jump\t// in\n    tag_151:\n        /* \"#utility.yul\":4573:4579   */\n      dup2\n        /* \"#utility.yul\":4569:4609   */\n      add\n        /* \"#utility.yul\":4711:4717   */\n      dup2\n        /* \"#utility.yul\":4699:4709   */\n      dup2\n        /* \"#utility.yul\":4696:4718   */\n      lt\n        /* \"#utility.yul\":4675:4693   */\n      0xffffffffffffffff\n        /* \"#utility.yul\":4663:4673   */\n      dup3\n        /* \"#utility.yul\":4660:4694   */\n      gt\n        /* \"#utility.yul\":4657:4719   */\n      or\n        /* \"#utility.yul\":4654:4742   */\n      iszero\n      tag_152\n      jumpi\n        /* \"#utility.yul\":4722:4740   */\n      tag_153\n      tag_79\n      jump\t// in\n    tag_153:\n        /* \"#utility.yul\":4654:4742   */\n    tag_152:\n        /* \"#utility.yul\":4762:4772   */\n      dup1\n        /* \"#utility.yul\":4758:4760   */\n      0x40\n        /* \"#utility.yul\":4751:4773   */\n      mstore\n        /* \"#utility.yul\":4541:4779   */\n      pop\n        /* \"#utility.yul\":4498:4779   */\n      pop\n      pop\n      jump\t// out\n        /* \"#utility.yul\":4785:4914   */\n    tag_81:\n        /* \"#utility.yul\":4819:4825   */\n      0x00\n        /* \"#utility.yul\":4846:4866   */\n      tag_155\n      tag_66\n      jump\t// in\n    tag_155:\n        /* \"#utility.yul\":4836:4866   */\n      swap1\n      pop\n        /* \"#utility.yul\":4875:4908   */\n      tag_156\n        /* \"#utility.yul\":4903:4907   */\n      dup3\n        /* \"#utility.yul\":4895:4901   */\n      dup3\n        /* \"#utility.yul\":4875:4908   */\n      tag_80\n      jump\t// in\n    tag_156:\n        /* \"#utility.yul\":4785:4914   */\n      swap2\n      swap1\n      pop\n      jump\t// out\n        /* \"#utility.yul\":4920:5228   */\n    tag_82:\n        /* \"#utility.yul\":4982:4986   */\n      0x00\n        /* \"#utility.yul\":5072:5090   */\n      0xffffffffffffffff\n        /* \"#utility.yul\":5064:5070   */\n      dup3\n        /* \"#utility.yul\":5061:5091   */\n      gt\n        /* \"#utility.yul\":5058:5114   */\n      iszero\n      tag_158\n      jumpi\n        /* \"#utility.yul\":5094:5112   */\n      tag_159\n      tag_79\n      jump\t// in\n    tag_159:\n        /* \"#utility.yul\":5058:5114   */\n    tag_158:\n        /* \"#utility.yul\":5132:5161   */\n      tag_160\n        /* \"#utility.yul\":5154:5160   */\n      dup3\n        /* \"#utility.yul\":5132:5161   */\n      tag_76\n      jump\t// in\n    tag_160:\n        /* \"#utility.yul\":5124:5161   */\n      swap1\n      pop\n        /* \"#utility.yul\":5216:5220   */\n      0x20\n        /* \"#utility.yul\":5210:5214   */\n      dup2\n        /* \"#utility.yul\":5206:5221   */\n      add\n        /* \"#utility.yul\":5198:5221   */\n      swap1\n      pop\n        /* \"#utility.yul\":4920:5228   */\n      swap2\n      swap1\n      pop\n      jump\t// out\n        /* \"#utility.yul\":5234:5380   */\n    tag_83:\n        /* \"#utility.yul\":5331:5337   */\n      dup3\n        /* \"#utility.yul\":5326:5329   */\n      dup2\n        /* \"#utility.yul\":5321:5324   */\n      dup4\n        /* \"#utility.yul\":5308:5338   */\n      calldatacopy\n        /* \"#utility.yul\":5372:5373   */\n      0x00\n        /* \"#utility.yul\":5363:5369   */\n      dup4\n        /* \"#utility.yul\":5358:5361   */\n      dup4\n        /* \"#utility.yul\":5354:5370   */\n      add\n        /* \"#utility.yul\":5347:5374   */\n      mstore\n        /* \"#utility.yul\":5234:5380   */\n      pop\n      pop\n      pop\n      jump\t// out\n        /* \"#utility.yul\":5386:5811   */\n    tag_84:\n        /* \"#utility.yul\":5464:5469   */\n      0x00\n        /* \"#utility.yul\":5489:5555   */\n      tag_163\n        /* \"#utility.yul\":5505:5554   */\n      tag_164\n        /* \"#utility.yul\":5547:5553   */\n      dup5\n        /* \"#utility.yul\":5505:5554   */\n      tag_82\n      jump\t// in\n    tag_164:\n        /* \"#utility.yul\":5489:5555   */\n      tag_81\n      jump\t// in\n    tag_163:\n        /* \"#utility.yul\":5480:5555   */\n      swap1\n      pop\n        /* \"#utility.yul\":5578:5584   */\n      dup3\n        /* \"#utility.yul\":5571:5576   */\n      dup2\n        /* \"#utility.yul\":5564:5585   */\n      mstore\n        /* \"#utility.yul\":5616:5620   */\n      0x20\n        /* \"#utility.yul\":5609:5614   */\n      dup2\n        /* \"#utility.yul\":5605:5621   */\n      add\n        /* \"#utility.yul\":5654:5657   */\n      dup5\n        /* \"#utility.yul\":5645:5651   */\n      dup5\n        /* \"#utility.yul\":5640:5643   */\n      dup5\n        /* \"#utility.yul\":5636:5652   */\n      add\n        /* \"#utility.yul\":5633:5658   */\n      gt\n        /* \"#utility.yul\":5630:5742   */\n      iszero\n      tag_165\n      jumpi\n        /* \"#utility.yul\":5661:5740   */\n      tag_166\n      tag_78\n      jump\t// in\n    tag_166:\n        /* \"#utility.yul\":5630:5742   */\n    tag_165:\n        /* \"#utility.yul\":5751:5805   */\n      tag_167\n        /* \"#utility.yul\":5798:5804   */\n      dup5\n        /* \"#utility.yul\":5793:5796   */\n      dup3\n        /* \"#utility.yul\":5788:5791   */\n      dup6\n        /* \"#utility.yul\":5751:5805   */\n      tag_83\n      jump\t// in\n    tag_167:\n        /* \"#utility.yul\":5470:5811   */\n      pop\n        /* \"#utility.yul\":5386:5811   */\n      swap4\n      swap3\n      pop\n      pop\n      pop\n      jump\t// out\n        /* \"#utility.yul\":5831:6171   */\n    tag_85:\n        /* \"#utility.yul\":5887:5892   */\n      0x00\n        /* \"#utility.yul\":5936:5939   */\n      dup3\n        /* \"#utility.yul\":5929:5933   */\n      0x1f\n        /* \"#utility.yul\":5921:5927   */\n      dup4\n        /* \"#utility.yul\":5917:5934   */\n      add\n        /* \"#utility.yul\":5913:5940   */\n      slt\n        /* \"#utility.yul\":5903:6025   */\n      tag_169\n      jumpi\n        /* \"#utility.yul\":5944:6023   */\n      tag_170\n      tag_69\n      jump\t// in\n    tag_170:\n        /* \"#utility.yul\":5903:6025   */\n    tag_169:\n        /* \"#utility.yul\":6061:6067   */\n      dup2\n        /* \"#utility.yul\":6048:6068   */\n      calldataload\n        /* \"#utility.yul\":6086:6165   */\n      tag_171\n        /* \"#utility.yul\":6161:6164   */\n      dup5\n        /* \"#utility.yul\":6153:6159   */\n      dup3\n        /* \"#utility.yul\":6146:6150   */\n      0x20\n        /* \"#utility.yul\":6138:6144   */\n      dup7\n        /* \"#utility.yul\":6134:6151   */\n      add\n        /* \"#utility.yul\":6086:6165   */\n      tag_84\n      jump\t// in\n    tag_171:\n        /* \"#utility.yul\":6077:6165   */\n      swap2\n      pop\n        /* \"#utility.yul\":5893:6171   */\n      pop\n        /* \"#utility.yul\":5831:6171   */\n      swap3\n      swap2\n      pop\n      pop\n      jump\t// out\n        /* \"#utility.yul\":6177:6686   */\n    tag_14:\n        /* \"#utility.yul\":6246:6252   */\n      0x00\n        /* \"#utility.yul\":6295:6297   */\n      0x20\n        /* \"#utility.yul\":6283:6292   */\n      dup3\n        /* \"#utility.yul\":6274:6281   */\n      dup5\n        /* \"#utility.yul\":6270:6293   */\n      sub\n        /* \"#utility.yul\":6266:6298   */\n      slt\n        /* \"#utility.yul\":6263:6382   */\n      iszero\n      tag_173\n      jumpi\n        /* \"#utility.yul\":6301:6380   */\n      tag_174\n      tag_67\n      jump\t// in\n    tag_174:\n        /* \"#utility.yul\":6263:6382   */\n    tag_173:\n        /* \"#utility.yul\":6449:6450   */\n      0x00\n        /* \"#utility.yul\":6438:6447   */\n      dup3\n        /* \"#utility.yul\":6434:6451   */\n      add\n        /* \"#utility.yul\":6421:6452   */\n      calldataload\n        /* \"#utility.yul\":6479:6497   */\n      0xffffffffffffffff\n        /* \"#utility.yul\":6471:6477   */\n      dup2\n        /* \"#utility.yul\":6468:6498   */\n      gt\n        /* \"#utility.yul\":6465:6582   */\n      iszero\n      tag_175\n      jumpi\n        /* \"#utility.yul\":6501:6580   */\n      tag_176\n      tag_68\n      jump\t// in\n    tag_176:\n        /* \"#utility.yul\":6465:6582   */\n    tag_175:\n        /* \"#utility.yul\":6606:6669   */\n      tag_177\n        /* \"#utility.yul\":6661:6668   */\n      dup5\n        /* \"#utility.yul\":6652:6658   */\n      dup3\n        /* \"#utility.yul\":6641:6650   */\n      dup6\n        /* \"#utility.yul\":6637:6659   */\n      add\n        /* \"#utility.yul\":6606:6669   */\n      tag_85\n      jump\t// in\n    tag_177:\n        /* \"#utility.yul\":6596:6669   */\n      swap2\n      pop\n        /* \"#utility.yul\":6392:6679   */\n      pop\n        /* \"#utility.yul\":6177:6686   */\n      swap3\n      swap2\n      pop\n      pop\n      jump\t// out\n        /* \"#utility.yul\":6692:7407   */\n    tag_17:\n        /* \"#utility.yul\":6901:6905   */\n      0x00\n        /* \"#utility.yul\":6939:6941   */\n      0x60\n        /* \"#utility.yul\":6928:6937   */\n      dup3\n        /* \"#utility.yul\":6924:6942   */\n      add\n        /* \"#utility.yul\":6916:6942   */\n      swap1\n      pop\n        /* \"#utility.yul\":6988:6997   */\n      dup2\n        /* \"#utility.yul\":6982:6986   */\n      dup2\n        /* \"#utility.yul\":6978:6998   */\n      sub\n        /* \"#utility.yul\":6974:6975   */\n      0x00\n        /* \"#utility.yul\":6963:6972   */\n      dup4\n        /* \"#utility.yul\":6959:6976   */\n      add\n        /* \"#utility.yul\":6952:6999   */\n      mstore\n        /* \"#utility.yul\":7016:7094   */\n      tag_179\n        /* \"#utility.yul\":7089:7093   */\n      dup2\n        /* \"#utility.yul\":7080:7086   */\n      dup7\n        /* \"#utility.yul\":7016:7094   */\n      tag_77\n      jump\t// in\n    tag_179:\n        /* \"#utility.yul\":7008:7094   */\n      swap1\n      pop\n        /* \"#utility.yul\":7141:7150   */\n      dup2\n        /* \"#utility.yul\":7135:7139   */\n      dup2\n        /* \"#utility.yul\":7131:7151   */\n      sub\n        /* \"#utility.yul\":7126:7128   */\n      0x20\n        /* \"#utility.yul\":7115:7124   */\n      dup4\n        /* \"#utility.yul\":7111:7129   */\n      add\n        /* \"#utility.yul\":7104:7152   */\n      mstore\n        /* \"#utility.yul\":7169:7247   */\n      tag_180\n        /* \"#utility.yul\":7242:7246   */\n      dup2\n        /* \"#utility.yul\":7233:7239   */\n      dup6\n        /* \"#utility.yul\":7169:7247   */\n      tag_77\n      jump\t// in\n    tag_180:\n        /* \"#utility.yul\":7161:7247   */\n      swap1\n      pop\n        /* \"#utility.yul\":7294:7303   */\n      dup2\n        /* \"#utility.yul\":7288:7292   */\n      dup2\n        /* \"#utility.yul\":7284:7304   */\n      sub\n        /* \"#utility.yul\":7279:7281   */\n      0x40\n        /* \"#utility.yul\":7268:7277   */\n      dup4\n        /* \"#utility.yul\":7264:7282   */\n      add\n        /* \"#utility.yul\":7257:7305   */\n      mstore\n        /* \"#utility.yul\":7322:7400   */\n      tag_181\n        /* \"#utility.yul\":7395:7399   */\n      dup2\n        /* \"#utility.yul\":7386:7392   */\n      dup5\n        /* \"#utility.yul\":7322:7400   */\n      tag_77\n      jump\t// in\n    tag_181:\n        /* \"#utility.yul\":7314:7400   */\n      swap1\n      pop\n        /* \"#utility.yul\":6692:7407   */\n      swap5\n      swap4\n      pop\n      pop\n      pop\n      pop\n      jump\t// out\n        /* \"#utility.yul\":7413:7942   */\n    tag_20:\n        /* \"#utility.yul\":7484:7490   */\n      0x00\n        /* \"#utility.yul\":7492:7498   */\n      dup1\n        /* \"#utility.yul\":7541:7543   */\n      0x20\n        /* \"#utility.yul\":7529:7538   */\n      dup4\n        /* \"#utility.yul\":7520:7527   */\n      dup6\n        /* \"#utility.yul\":7516:7539   */\n      sub\n        /* \"#utility.yul\":7512:7544   */\n      slt\n        /* \"#utility.yul\":7509:7628   */\n      iszero\n      tag_183\n      jumpi\n        /* \"#utility.yul\":7547:7626   */\n      tag_184\n      tag_67\n      jump\t// in\n    tag_184:\n        /* \"#utility.yul\":7509:7628   */\n    tag_183:\n        /* \"#utility.yul\":7695:7696   */\n      0x00\n        /* \"#utility.yul\":7684:7693   */\n      dup4\n        /* \"#utility.yul\":7680:7697   */\n      add\n        /* \"#utility.yul\":7667:7698   */\n      calldataload\n        /* \"#utility.yul\":7725:7743   */\n      0xffffffffffffffff\n        /* \"#utility.yul\":7717:7723   */\n      dup2\n        /* \"#utility.yul\":7714:7744   */\n      gt\n        /* \"#utility.yul\":7711:7828   */\n      iszero\n      tag_185\n      jumpi\n        /* \"#utility.yul\":7747:7826   */\n      tag_186\n      tag_68\n      jump\t// in\n    tag_186:\n        /* \"#utility.yul\":7711:7828   */\n    tag_185:\n        /* \"#utility.yul\":7860:7925   */\n      tag_187\n        /* \"#utility.yul\":7917:7924   */\n      dup6\n        /* \"#utility.yul\":7908:7914   */\n      dup3\n        /* \"#utility.yul\":7897:7906   */\n      dup7\n        /* \"#utility.yul\":7893:7915   */\n      add\n        /* \"#utility.yul\":7860:7925   */\n      tag_72\n      jump\t// in\n    tag_187:\n        /* \"#utility.yul\":7842:7925   */\n      swap3\n      pop\n      swap3\n      pop\n        /* \"#utility.yul\":7638:7935   */\n      pop\n        /* \"#utility.yul\":7413:7942   */\n      swap3\n      pop\n      swap3\n      swap1\n      pop\n      jump\t// out\n        /* \"#utility.yul\":7948:8096   */\n    tag_86:\n        /* \"#utility.yul\":8050:8061   */\n      0x00\n        /* \"#utility.yul\":8087:8090   */\n      dup2\n        /* \"#utility.yul\":8072:8090   */\n      swap1\n      pop\n        /* \"#utility.yul\":7948:8096   */\n      swap3\n      swap2\n      pop\n      pop\n      jump\t// out\n        /* \"#utility.yul\":8126:8456   */\n    tag_87:\n        /* \"#utility.yul\":8242:8245   */\n      0x00\n        /* \"#utility.yul\":8263:8352   */\n      tag_190\n        /* \"#utility.yul\":8345:8351   */\n      dup4\n        /* \"#utility.yul\":8340:8343   */\n      dup6\n        /* \"#utility.yul\":8263:8352   */\n      tag_86\n      jump\t// in\n    tag_190:\n        /* \"#utility.yul\":8256:8352   */\n      swap4\n      pop\n        /* \"#utility.yul\":8362:8418   */\n      tag_191\n        /* \"#utility.yul\":8411:8417   */\n      dup4\n        /* \"#utility.yul\":8406:8409   */\n      dup6\n        /* \"#utility.yul\":8399:8404   */\n      dup5\n        /* \"#utility.yul\":8362:8418   */\n      tag_83\n      jump\t// in\n    tag_191:\n        /* \"#utility.yul\":8443:8449   */\n      dup3\n        /* \"#utility.yul\":8438:8441   */\n      dup5\n        /* \"#utility.yul\":8434:8450   */\n      add\n        /* \"#utility.yul\":8427:8450   */\n      swap1\n      pop\n        /* \"#utility.yul\":8126:8456   */\n      swap4\n      swap3\n      pop\n      pop\n      pop\n      jump\t// out\n        /* \"#utility.yul\":8462:8757   */\n    tag_25:\n        /* \"#utility.yul\":8604:8607   */\n      0x00\n        /* \"#utility.yul\":8626:8731   */\n      tag_193\n        /* \"#utility.yul\":8727:8730   */\n      dup3\n        /* \"#utility.yul\":8718:8724   */\n      dup5\n        /* \"#utility.yul\":8710:8716   */\n      dup7\n        /* \"#utility.yul\":8626:8731   */\n      tag_87\n      jump\t// in\n    tag_193:\n        /* \"#utility.yul\":8619:8731   */\n      swap2\n      pop\n        /* \"#utility.yul\":8748:8751   */\n      dup2\n        /* \"#utility.yul\":8741:8751   */\n      swap1\n      pop\n        /* \"#utility.yul\":8462:8757   */\n      swap4\n      swap3\n      pop\n      pop\n      pop\n      jump\t// out\n        /* \"#utility.yul\":8763:8943   */\n    tag_88:\n        /* \"#utility.yul\":8811:8888   */\n      0x4e487b7100000000000000000000000000000000000000000000000000000000\n        /* \"#utility.yul\":8808:8809   */\n      0x00\n        /* \"#utility.yul\":8801:8889   */\n      mstore\n        /* \"#utility.yul\":8908:8912   */\n      0x22\n        /* \"#utility.yul\":8905:8906   */\n      0x04\n        /* \"#utility.yul\":8898:8913   */\n      mstore\n        /* \"#utility.yul\":8932:8936   */\n      0x24\n        /* \"#utility.yul\":8929:8930   */\n      0x00\n        /* \"#utility.yul\":8922:8937   */\n      revert\n        /* \"#utility.yul\":8949:9269   */\n    tag_27:\n        /* \"#utility.yul\":8993:8999   */\n      0x00\n        /* \"#utility.yul\":9030:9031   */\n      0x02\n        /* \"#utility.yul\":9024:9028   */\n      dup3\n        /* \"#utility.yul\":9020:9032   */\n      div\n        /* \"#utility.yul\":9010:9032   */\n      swap1\n      pop\n        /* \"#utility.yul\":9077:9078   */\n      0x01\n        /* \"#utility.yul\":9071:9075   */\n      dup3\n        /* \"#utility.yul\":9067:9079   */\n      and\n        /* \"#utility.yul\":9098:9116   */\n      dup1\n        /* \"#utility.yul\":9088:9169   */\n      tag_196\n      jumpi\n        /* \"#utility.yul\":9154:9158   */\n      0x7f\n        /* \"#utility.yul\":9146:9152   */\n      dup3\n        /* \"#utility.yul\":9142:9159   */\n      and\n        /* \"#utility.yul\":9132:9159   */\n      swap2\n      pop\n        /* \"#utility.yul\":9088:9169   */\n    tag_196:\n        /* \"#utility.yul\":9216:9218   */\n      0x20\n        /* \"#utility.yul\":9208:9214   */\n      dup3\n        /* \"#utility.yul\":9205:9219   */\n      lt\n        /* \"#utility.yul\":9185:9203   */\n      dup2\n        /* \"#utility.yul\":9182:9220   */\n      sub\n        /* \"#utility.yul\":9179:9263   */\n      tag_197\n      jumpi\n        /* \"#utility.yul\":9235:9253   */\n      tag_198\n      tag_88\n      jump\t// in\n    tag_198:\n        /* \"#utility.yul\":9179:9263   */\n    tag_197:\n        /* \"#utility.yul\":9000:9269   */\n      pop\n        /* \"#utility.yul\":8949:9269   */\n      swap2\n      swap1\n      pop\n      jump\t// out\n        /* \"#utility.yul\":9275:9416   */\n    tag_89:\n        /* \"#utility.yul\":9324:9328   */\n      0x00\n        /* \"#utility.yul\":9347:9350   */\n      dup2\n        /* \"#utility.yul\":9339:9350   */\n      swap1\n      pop\n        /* \"#utility.yul\":9370:9373   */\n      dup2\n        /* \"#utility.yul\":9367:9368   */\n      0x00\n        /* \"#utility.yul\":9360:9374   */\n      mstore\n        /* \"#utility.yul\":9404:9408   */\n      0x20\n        /* \"#utility.yul\":9401:9402   */\n      0x00\n        /* \"#utility.yul\":9391:9409   */\n      keccak256\n        /* \"#utility.yul\":9383:9409   */\n      swap1\n      pop\n        /* \"#utility.yul\":9275:9416   */\n      swap2\n      swap1\n      pop\n      jump\t// out\n        /* \"#utility.yul\":9422:9515   */\n    tag_90:\n        /* \"#utility.yul\":9459:9465   */\n      0x00\n        /* \"#utility.yul\":9506:9508   */\n      0x20\n        /* \"#utility.yul\":9501:9503   */\n      0x1f\n        /* \"#utility.yul\":9494:9499   */\n      dup4\n        /* \"#utility.yul\":9490:9504   */\n      add\n        /* \"#utility.yul\":9486:9509   */\n      div\n        /* \"#utility.yul\":9476:9509   */\n      swap1\n      pop\n        /* \"#utility.yul\":9422:9515   */\n      swap2\n      swap1\n      pop\n      jump\t// out\n        /* \"#utility.yul\":9521:9628   */\n    tag_91:\n        /* \"#utility.yul\":9565:9573   */\n      0x00\n        /* \"#utility.yul\":9615:9620   */\n      dup3\n        /* \"#utility.yul\":9609:9613   */\n      dup3\n        /* \"#utility.yul\":9605:9621   */\n      shl\n        /* \"#utility.yul\":9584:9621   */\n      swap1\n      pop\n        /* \"#utility.yul\":9521:9628   */\n      swap3\n      swap2\n      pop\n      pop\n      jump\t// out\n        /* \"#utility.yul\":9634:10027   */\n    tag_92:\n        /* \"#utility.yul\":9703:9709   */\n      0x00\n        /* \"#utility.yul\":9753:9754   */\n      0x08\n        /* \"#utility.yul\":9741:9751   */\n      dup4\n        /* \"#utility.yul\":9737:9755   */\n      mul\n        /* \"#utility.yul\":9776:9873   */\n      tag_203\n        /* \"#utility.yul\":9806:9872   */\n      0xffffffffffffffffffffffffffffffffffffffffffffffffffffffffffffffff\n        /* \"#utility.yul\":9795:9804   */\n      dup3\n        /* \"#utility.yul\":9776:9873   */\n      tag_91\n      jump\t// in\n    tag_203:\n        /* \"#utility.yul\":9894:9933   */\n      tag_204\n        /* \"#utility.yul\":9924:9932   */\n      dup7\n        /* \"#utility.yul\":9913:9922   */\n      dup4\n        /* \"#utility.yul\":9894:9933   */\n      tag_91\n      jump\t// in\n    tag_204:\n        /* \"#utility.yul\":9882:9933   */\n      swap6\n      pop\n        /* \"#utility.yul\":9966:9970   */\n      dup1\n        /* \"#utility.yul\":9962:9971   */\n      not\n        /* \"#utility.yul\":9955:9960   */\n      dup5\n        /* \"#utility.yul\":9951:9972   */\n      and\n        /* \"#utility.yul\":9942:9972   */\n      swap4\n      pop\n        /* \"#utility.yul\":10015:10019   */\n      dup1\n        /* \"#utility.yul\":10005:10013   */\n      dup7\n        /* \"#utility.yul\":10001:10020   */\n      and\n        /* \"#utility.yul\":9994:9999   */\n      dup5\n        /* \"#utility.yul\":9991:10021   */\n      or\n        /* \"#utility.yul\":9981:10021   */\n      swap3\n      pop\n        /* \"#utility.yul\":9710:10027   */\n      pop\n      pop\n        /* \"#utility.yul\":9634:10027   */\n      swap4\n      swap3\n      pop\n      pop\n      pop\n      jump\t// out\n        /* \"#utility.yul\":10033:10110   */\n    tag_93:\n        /* \"#utility.yul\":10070:10077   */\n      0x00\n        /* \"#utility.yul\":10099:10104   */\n      dup2\n        /* \"#utility.yul\":10088:10104   */\n      swap1\n      pop\n        /* \"#utility.yul\":10033:10110   */\n      swap2\n      swap1\n      pop\n      jump\t// out\n        /* \"#utility.yul\":10116:10176   */\n    tag_94:\n        /* \"#utility.yul\":10144:10147   */\n      0x00\n        /* \"#utility.yul\":10165:10170   */\n      dup2\n        /* \"#utility.yul\":10158:10170   */\n      swap1\n      pop\n        /* \"#utility.yul\":10116:10176   */\n      swap2\n      swap1\n      pop\n      jump\t// out\n        /* \"#utility.yul\":10182:10324   */\n    tag_95:\n        /* \"#utility.yul\":10232:10241   */\n      0x00\n        /* \"#utility.yul\":10265:10318   */\n      tag_208\n        /* \"#utility.yul\":10283:10317   */\n      tag_209\n        /* \"#utility.yul\":10292:10316   */\n      tag_210\n        /* \"#utility.yul\":10310:10315   */\n      dup5\n        /* \"#utility.yul\":10292:10316   */\n      tag_93\n      jump\t// in\n    tag_210:\n        /* \"#utility.yul\":10283:10317   */\n      tag_94\n      jump\t// in\n    tag_209:\n        /* \"#utility.yul\":10265:10318   */\n      tag_93\n      jump\t// in\n    tag_208:\n        /* \"#utility.yul\":10252:10318   */\n      swap1\n      pop\n        /* \"#utility.yul\":10182:10324   */\n      swap2\n      swap1\n      pop\n      jump\t// out\n        /* \"#utility.yul\":10330:10405   */\n    tag_96:\n        /* \"#utility.yul\":10373:10376   */\n      0x00\n        /* \"#utility.yul\":10394:10399   */\n      dup2\n        /* \"#utility.yul\":10387:10399   */\n      swap1\n      pop\n        /* \"#utility.yul\":10330:10405   */\n      swap2\n      swap1\n      pop\n      jump\t// out\n        /* \"#utility.yul\":10411:10680   */\n    tag_97:\n        /* \"#utility.yul\":10521:10560   */\n      tag_213\n        /* \"#utility.yul\":10552:10559   */\n      dup4\n        /* \"#utility.yul\":10521:10560   */\n      tag_95\n      jump\t// in\n    tag_213:\n        /* \"#utility.yul\":10582:10673   */\n      tag_214\n        /* \"#utility.yul\":10631:10672   */\n      tag_215\n        /* \"#utility.yul\":10655:10671   */\n      dup3\n        /* \"#utility.yul\":10631:10672   */\n      tag_96\n      jump\t// in\n    tag_215:\n        /* \"#utility.yul\":10623:10629   */\n      dup5\n        /* \"#utility.yul\":10616:10620   */\n      dup5\n        /* \"#utility.yul\":10610:10621   */\n      sload\n        /* \"#utility.yul\":10582:10673   */\n      tag_92\n      jump\t// in\n    tag_214:\n        /* \"#utility.yul\":10576:10580   */\n      dup3\n        /* \"#utility.yul\":10569:10674   */\n      sstore\n        /* \"#utility.yul\":10487:10680   */\n      pop\n        /* \"#utility.yul\":10411:10680   */\n      pop\n      pop\n      pop\n      jump\t// out\n        /* \"#utility.yul\":10686:10759   */\n    tag_98:\n        /* \"#utility.yul\":10731:10734   */\n      0x00\n        /* \"#utility.yul\":10686:10759   */\n      swap1\n      jump\t// out\n        /* \"#utility.yul\":10765:10954   */\n    tag_99:\n        /* \"#utility.yul\":10842:10874   */\n      tag_218\n      tag_98\n      jump\t// in\n    tag_218:\n        /* \"#utility.yul\":10883:10948   */\n      tag_219\n        /* \"#utility.yul\":10941:10947   */\n      dup2\n        /* \"#utility.yul\":10933:10939   */\n      dup5\n        /* \"#utility.yul\":10927:10931   */\n      dup5\n        /* \"#utility.yul\":10883:10948   */\n      tag_97\n      jump\t// in\n    tag_219:\n        /* \"#utility.yul\":10818:10954   */\n      pop\n        /* \"#utility.yul\":10765:10954   */\n      pop\n      pop\n      jump\t// out\n        /* \"#utility.yul\":10960:11146   */\n    tag_100:\n        /* \"#utility.yul\":11020:11140   */\n    tag_221:\n        /* \"#utility.yul\":11037:11040   */\n      dup2\n        /* \"#utility.yul\":11030:11035   */\n      dup2\n        /* \"#utility.yul\":11027:11041   */\n      lt\n        /* \"#utility.yul\":11020:11140   */\n      iszero\n      tag_223\n      jumpi\n        /* \"#utility.yul\":11091:11130   */\n      tag_224\n        /* \"#utility.yul\":11128:11129   */\n      0x00\n        /* \"#utility.yul\":11121:11126   */\n      dup3\n        /* \"#utility.yul\":11091:11130   */\n      tag_99\n      jump\t// in\n    tag_224:\n        /* \"#utility.yul\":11064:11065   */\n      0x01\n        /* \"#utility.yul\":11057:11062   */\n      dup2\n        /* \"#utility.yul\":11053:11066   */\n      add\n        /* \"#utility.yul\":11044:11066   */\n      swap1\n      pop\n        /* \"#utility.yul\":11020:11140   */\n      jump(tag_221)\n    tag_223:\n        /* \"#utility.yul\":10960:11146   */\n      pop\n      pop\n      jump\t// out\n        /* \"#utility.yul\":11152:11695   */\n    tag_101:\n        /* \"#utility.yul\":11253:11255   */\n      0x1f\n        /* \"#utility.yul\":11248:11251   */\n      dup3\n        /* \"#utility.yul\":11245:11256   */\n      gt\n        /* \"#utility.yul\":11242:11688   */\n      iszero\n      tag_226\n      jumpi\n        /* \"#utility.yul\":11287:11325   */\n      tag_227\n        /* \"#utility.yul\":11319:11324   */\n      dup2\n        /* \"#utility.yul\":11287:11325   */\n      tag_89\n      jump\t// in\n    tag_227:\n        /* \"#utility.yul\":11371:11400   */\n      tag_228\n        /* \"#utility.yul\":11389:11399   */\n      dup5\n        /* \"#utility.yul\":11371:11400   */\n      tag_90\n      jump\t// in\n    tag_228:\n        /* \"#utility.yul\":11361:11369   */\n      dup2\n        /* \"#utility.yul\":11357:11401   */\n      add\n        /* \"#utility.yul\":11554:11556   */\n      0x20\n        /* \"#utility.yul\":11542:11552   */\n      dup6\n        /* \"#utility.yul\":11539:11557   */\n      lt\n        /* \"#utility.yul\":11536:11585   */\n      iszero\n      tag_229\n      jumpi\n        /* \"#utility.yul\":11575:11583   */\n      dup2\n        /* \"#utility.yul\":11560:11583   */\n      swap1\n      pop\n        /* \"#utility.yul\":11536:11585   */\n    tag_229:\n        /* \"#utility.yul\":11598:11678   */\n      tag_230\n        /* \"#utility.yul\":11654:11676   */\n      tag_231\n        /* \"#utility.yul\":11672:11675   */\n      dup6\n        /* \"#utility.yul\":11654:11676   */\n      tag_90\n      jump\t// in\n    tag_231:\n        /* \"#utility.yul\":11644:11652   */\n      dup4\n        /* \"#utility.yul\":11640:11677   */\n      add\n        /* \"#utility.yul\":11627:11638   */\n      dup3\n        /* \"#utility.yul\":11598:11678   */\n      tag_100\n      jump\t// in\n    tag_230:\n        /* \"#utility.yul\":11257:11688   */\n      pop\n      pop\n        /* \"#utility.yul\":11242:11688   */\n    tag_226:\n        /* \"#utility.yul\":11152:11695   */\n      pop\n      pop\n      pop\n      jump\t// out\n        /* \"#utility.yul\":11701:11818   */\n    tag_102:\n        /* \"#utility.yul\":11755:11763   */\n      0x00\n        /* \"#utility.yul\":11805:11810   */\n      dup3\n        /* \"#utility.yul\":11799:11803   */\n      dup3\n        /* \"#utility.yul\":11795:11811   */\n      shr\n        /* \"#utility.yul\":11774:11811   */\n      swap1\n      pop\n        /* \"#utility.yul\":11701:11818   */\n      swap3\n      swap2\n      pop\n      pop\n      jump\t// out\n        /* \"#utility.yul\":11824:11993   */\n    tag_103:\n        /* \"#utility.yul\":11868:11874   */\n      0x00\n        /* \"#utility.yul\":11901:11952   */\n      tag_234\n        /* \"#utility.yul\":11949:11950   */\n      0x00\n        /* \"#utility.yul\":11945:11951   */\n      not\n        /* \"#utility.yul\":11937:11942   */\n      dup5\n        /* \"#utility.yul\":11934:11935   */\n      0x08\n        /* \"#utility.yul\":11930:11943   */\n      mul\n        /* \"#utility.yul\":11901:11952   */\n      tag_102\n      jump\t// in\n    tag_234:\n        /* \"#utility.yul\":11897:11953   */\n      not\n        /* \"#utility.yul\":11982:11986   */\n      dup1\n        /* \"#utility.yul\":11976:11980   */\n      dup4\n        /* \"#utility.yul\":11972:11987   */\n      and\n        /* \"#utility.yul\":11962:11987   */\n      swap2\n      pop\n        /* \"#utility.yul\":11875:11993   */\n      pop\n        /* \"#utility.yul\":11824:11993   */\n      swap3\n      swap2\n      pop\n      pop\n      jump\t// out\n        /* \"#utility.yul\":11998:12293   */\n    tag_104:\n        /* \"#utility.yul\":12074:12078   */\n      0x00\n        /* \"#utility.yul\":12220:12249   */\n      tag_236\n        /* \"#utility.yul\":12245:12248   */\n      dup4\n        /* \"#utility.yul\":12239:12243   */\n      dup4\n        /* \"#utility.yul\":12220:12249   */\n      tag_103\n      jump\t// in\n    tag_236:\n        /* \"#utility.yul\":12212:12249   */\n      swap2\n      pop\n        /* \"#utility.yul\":12282:12285   */\n      dup3\n        /* \"#utility.yul\":12279:12280   */\n      0x02\n        /* \"#utility.yul\":12275:12286   */\n      mul\n        /* \"#utility.yul\":12269:12273   */\n      dup3\n        /* \"#utility.yul\":12266:12287   */\n      or\n        /* \"#utility.yul\":12258:12287   */\n      swap1\n      pop\n        /* \"#utility.yul\":11998:12293   */\n      swap3\n      swap2\n      pop\n      pop\n      jump\t// out\n        /* \"#utility.yul\":12298:13693   */\n    tag_31:\n        /* \"#utility.yul\":12415:12452   */\n      tag_238\n        /* \"#utility.yul\":12448:12451   */\n      dup3\n        /* \"#utility.yul\":12415:12452   */\n      tag_73\n      jump\t// in\n    tag_238:\n        /* \"#utility.yul\":12517:12535   */\n      0xffffffffffffffff\n        /* \"#utility.yul\":12509:12515   */\n      dup2\n        /* \"#utility.yul\":12506:12536   */\n      gt\n        /* \"#utility.yul\":12503:12559   */\n      iszero\n      tag_239\n      jumpi\n        /* \"#utility.yul\":12539:12557   */\n      tag_240\n      tag_79\n      jump\t// in\n    tag_240:\n        /* \"#utility.yul\":12503:12559   */\n    tag_239:\n        /* \"#utility.yul\":12583:12621   */\n      tag_241\n        /* \"#utility.yul\":12615:12619   */\n      dup3\n        /* \"#utility.yul\":12609:12620   */\n      sload\n        /* \"#utility.yul\":12583:12621   */\n      tag_27\n      jump\t// in\n    tag_241:\n        /* \"#utility.yul\":12668:12735   */\n      tag_242\n        /* \"#utility.yul\":12728:12734   */\n      dup3\n        /* \"#utility.yul\":12720:12726   */\n      dup3\n        /* \"#utility.yul\":12714:12718   */\n      dup6\n        /* \"#utility.yul\":12668:12735   */\n      tag_101\n      jump\t// in\n    tag_242:\n        /* \"#utility.yul\":12762:12763   */\n      0x00\n        /* \"#utility.yul\":12786:12790   */\n      0x20\n        /* \"#utility.yul\":12773:12790   */\n      swap1\n      pop\n        /* \"#utility.yul\":12818:12820   */\n      0x1f\n        /* \"#utility.yul\":12810:12816   */\n      dup4\n        /* \"#utility.yul\":12807:12821   */\n      gt\n        /* \"#utility.yul\":12835:12836   */\n      0x01\n        /* \"#utility.yul\":12830:13448   */\n      dup2\n      eq\n      tag_244\n      jumpi\n        /* \"#utility.yul\":13492:13493   */\n      0x00\n        /* \"#utility.yul\":13509:13515   */\n      dup5\n        /* \"#utility.yul\":13506:13583   */\n      iszero\n      tag_245\n      jumpi\n        /* \"#utility.yul\":13558:13567   */\n      dup3\n        /* \"#utility.yul\":13553:13556   */\n      dup8\n        /* \"#utility.yul\":13549:13568   */\n      add\n        /* \"#utility.yul\":13543:13569   */\n      mload\n        /* \"#utility.yul\":13534:13569   */\n      swap1\n      pop\n        /* \"#utility.yul\":13506:13583   */\n    tag_245:\n        /* \"#utility.yul\":13609:13676   */\n      tag_246\n        /* \"#utility.yul\":13669:13675   */\n      dup6\n        /* \"#utility.yul\":13662:13667   */\n      dup3\n        /* \"#utility.yul\":13609:13676   */\n      tag_104\n      jump\t// in\n    tag_246:\n        /* \"#utility.yul\":13603:13607   */\n      dup7\n        /* \"#utility.yul\":13596:13677   */\n      sstore\n        /* \"#utility.yul\":13465:13687   */\n      pop\n        /* \"#utility.yul\":12800:13687   */\n      jump(tag_243)\n        /* \"#utility.yul\":12830:13448   */\n    tag_244:\n        /* \"#utility.yul\":12882:12886   */\n      0x1f\n        /* \"#utility.yul\":12878:12887   */\n      not\n        /* \"#utility.yul\":12870:12876   */\n      dup5\n        /* \"#utility.yul\":12866:12888   */\n      and\n        /* \"#utility.yul\":12916:12953   */\n      tag_247\n        /* \"#utility.yul\":12948:12952   */\n      dup7\n        /* \"#utility.yul\":12916:12953   */\n      tag_89\n      jump\t// in\n    tag_247:\n        /* \"#utility.yul\":12975:12976   */\n      0x00\n        /* \"#utility.yul\":12989:13197   */\n    tag_248:\n        /* \"#utility.yul\":13003:13010   */\n      dup3\n        /* \"#utility.yul\":13000:13001   */\n      dup2\n        /* \"#utility.yul\":12997:13011   */\n      lt\n        /* \"#utility.yul\":12989:13197   */\n      iszero\n      tag_250\n      jumpi\n        /* \"#utility.yul\":13082:13091   */\n      dup5\n        /* \"#utility.yul\":13077:13080   */\n      dup10\n        /* \"#utility.yul\":13073:13092   */\n      add\n        /* \"#utility.yul\":13067:13093   */\n      mload\n        /* \"#utility.yul\":13059:13065   */\n      dup3\n        /* \"#utility.yul\":13052:13094   */\n      sstore\n        /* \"#utility.yul\":13133:13134   */\n      0x01\n        /* \"#utility.yul\":13125:13131   */\n      dup3\n        /* \"#utility.yul\":13121:13135   */\n      add\n        /* \"#utility.yul\":13111:13135   */\n      swap2\n      pop\n        /* \"#utility.yul\":13180:13182   */\n      0x20\n        /* \"#utility.yul\":13169:13178   */\n      dup6\n        /* \"#utility.yul\":13165:13183   */\n      add\n        /* \"#utility.yul\":13152:13183   */\n      swap5\n      pop\n        /* \"#utility.yul\":13026:13030   */\n      0x20\n        /* \"#utility.yul\":13023:13024   */\n      dup2\n        /* \"#utility.yul\":13019:13031   */\n      add\n        /* \"#utility.yul\":13014:13031   */\n      swap1\n      pop\n        /* \"#utility.yul\":12989:13197   */\n      jump(tag_248)\n    tag_250:\n        /* \"#utility.yul\":13225:13231   */\n      dup7\n        /* \"#utility.yul\":13216:13223   */\n      dup4\n        /* \"#utility.yul\":13213:13232   */\n      lt\n        /* \"#utility.yul\":13210:13389   */\n      iszero\n      tag_251\n      jumpi\n        /* \"#utility.yul\":13283:13292   */\n      dup5\n        /* \"#utility.yul\":13278:13281   */\n      dup10\n        /* \"#utility.yul\":13274:13293   */\n      add\n        /* \"#utility.yul\":13268:13294   */\n      mload\n        /* \"#utility.yul\":13326:13374   */\n      tag_252\n        /* \"#utility.yul\":13368:13372   */\n      0x1f\n        /* \"#utility.yul\":13360:13366   */\n      dup10\n        /* \"#utility.yul\":13356:13373   */\n      and\n        /* \"#utility.yul\":13345:13354   */\n      dup3\n        /* \"#utility.yul\":13326:13374   */\n      tag_103\n      jump\t// in\n    tag_252:\n        /* \"#utility.yul\":13318:13324   */\n      dup4\n        /* \"#utility.yul\":13311:13375   */\n      sstore\n        /* \"#utility.yul\":13233:13389   */\n      pop\n        /* \"#utility.yul\":13210:13389   */\n    tag_251:\n        /* \"#utility.yul\":13435:13436   */\n      0x01\n        /* \"#utility.yul\":13431:13432   */\n      0x02\n        /* \"#utility.yul\":13423:13429   */\n      dup9\n        /* \"#utility.yul\":13419:13433   */\n      mul\n        /* \"#utility.yul\":13415:13437   */\n      add\n        /* \"#utility.yul\":13409:13413   */\n      dup9\n        /* \"#utility.yul\":13402:13438   */\n      sstore\n        /* \"#utility.yul\":12837:13448   */\n      pop\n      pop\n      pop\n        /* \"#utility.yul\":12800:13687   */\n    tag_243:\n      pop\n        /* \"#utility.yul\":12390:13693   */\n      pop\n      pop\n      pop\n        /* \"#utility.yul\":12298:13693   */\n      pop\n      pop\n      jump\t// out\n\n    auxdata: 0xa264697066735822122055586c3d0d1d18d8c9e6b7d31d61b0d3202546a178761d8d7122273a1477887764736f6c63430008160033\n}\n",
				"bytecode": {
					"linkReferences": {},
					"object": "608060405234801561000f575f80fd5b50610df38061001d5f395ff3fe608060405234801561000f575f80fd5b506004361061003f575f3560e01c806301cda3ac14610043578063061e7f981461007357806331feb671146100a5575b5f80fd5b61005d60048036038101906100589190610713565b6100d7565b60405161006a9190610881565b60405180910390f35b61008d600480360381019061008891906109c9565b6102d5565b60405161009c93929190610a10565b60405180910390f35b6100bf60048036038101906100ba9190610a5a565b6104a4565b6040516100ce93929190610a10565b60405180910390f35b60605f808a8a6040516100eb929190610ad3565b90815260200160405180910390205f01805461010690610b18565b90501461014a576040518060400160405280601381526020017f5573657220616c7265616479206578697374730000000000000000000000000081525090506102c9565b604051806060016040528088888080601f0160208091040260200160405190810160405280939291908181526020018383808284375f81840152601f19601f82011690508083019250505050505050815260200186868080601f0160208091040260200160405190810160405280939291908181526020018383808284375f81840152601f19601f82011690508083019250505050505050815260200184848080601f0160208091040260200160405190810160405280939291908181526020018383808284375f81840152601f19601f820116905080830192505050505050508152505f8a8a60405161023f929190610ad3565b90815260200160405180910390205f820151815f0190816102609190610cee565b5060208201518160010190816102769190610cee565b50604082015181600201908161028c9190610cee565b509050506040518060400160405280601781526020017f55736572206164646564207375636365737366756c6c7900000000000000000081525090505b98975050505050505050565b5f818051602081018201805184825260208301602085012081835280955050505050505f91509050805f01805461030b90610b18565b80601f016020809104026020016040519081016040528092919081815260200182805461033790610b18565b80156103825780601f1061035957610100808354040283529160200191610382565b820191905f5260205f20905b81548152906001019060200180831161036557829003601f168201915b50505050509080600101805461039790610b18565b80601f01602080910402602001604051908101604052809291908181526020018280546103c390610b18565b801561040e5780601f106103e55761010080835404028352916020019161040e565b820191905f5260205f20905b8154815290600101906020018083116103f157829003601f168201915b50505050509080600201805461042390610b18565b80601f016020809104026020016040519081016040528092919081815260200182805461044f90610b18565b801561049a5780601f106104715761010080835404028352916020019161049a565b820191905f5260205f20905b81548152906001019060200180831161047d57829003601f168201915b5050505050905083565b60608060605f8086866040516104bb929190610ad3565b90815260200160405180910390206040518060600160405290815f820180546104e390610b18565b80601f016020809104026020016040519081016040528092919081815260200182805461050f90610b18565b801561055a5780601f106105315761010080835404028352916020019161055a565b820191905f5260205f20905b81548152906001019060200180831161053d57829003601f168201915b5050505050815260200160018201805461057390610b18565b80601f016020809104026020016040519081016040528092919081815260200182805461059f90610b18565b80156105ea5780601f106105c1576101008083540402835291602001916105ea565b820191905f5260205f20905b8154815290600101906020018083116105cd57829003601f168201915b5050505050815260200160028201805461060390610b18565b80601f016020809104026020016040519081016040528092919081815260200182805461062f90610b18565b801561067a5780601f106106515761010080835404028352916020019161067a565b820191905f5260205f20905b81548152906001019060200180831161065d57829003601f168201915b5050505050815250509050805f015181602001518260400151935093509350509250925092565b5f604051905090565b5f80fd5b5f80fd5b5f80fd5b5f80fd5b5f80fd5b5f8083601f8401126106d3576106d26106b2565b5b8235905067ffffffffffffffff8111156106f0576106ef6106b6565b5b60208301915083600182028301111561070c5761070b6106ba565b5b9250929050565b5f805f805f805f806080898b03121561072f5761072e6106aa565b5b5f89013567ffffffffffffffff81111561074c5761074b6106ae565b5b6107588b828c016106be565b9850985050602089013567ffffffffffffffff81111561077b5761077a6106ae565b5b6107878b828c016106be565b9650965050604089013567ffffffffffffffff8111156107aa576107a96106ae565b5b6107b68b828c016106be565b9450945050606089013567ffffffffffffffff8111156107d9576107d86106ae565b5b6107e58b828c016106be565b92509250509295985092959890939650565b5f81519050919050565b5f82825260208201905092915050565b5f5b8381101561082e578082015181840152602081019050610813565b5f8484015250505050565b5f601f19601f8301169050919050565b5f610853826107f7565b61085d8185610801565b935061086d818560208601610811565b61087681610839565b840191505092915050565b5f6020820190508181035f8301526108998184610849565b905092915050565b5f80fd5b7f4e487b71000000000000000000000000000000000000000000000000000000005f52604160045260245ffd5b6108db82610839565b810181811067ffffffffffffffff821117156108fa576108f96108a5565b5b80604052505050565b5f61090c6106a1565b905061091882826108d2565b919050565b5f67ffffffffffffffff821115610937576109366108a5565b5b61094082610839565b9050602081019050919050565b828183375f83830152505050565b5f61096d6109688461091d565b610903565b905082815260208101848484011115610989576109886108a1565b5b61099484828561094d565b509392505050565b5f82601f8301126109b0576109af6106b2565b5b81356109c084826020860161095b565b91505092915050565b5f602082840312156109de576109dd6106aa565b5b5f82013567ffffffffffffffff8111156109fb576109fa6106ae565b5b610a078482850161099c565b91505092915050565b5f6060820190508181035f830152610a288186610849565b90508181036020830152610a3c8185610849565b90508181036040830152610a508184610849565b9050949350505050565b5f8060208385031215610a7057610a6f6106aa565b5b5f83013567ffffffffffffffff811115610a8d57610a8c6106ae565b5b610a99858286016106be565b92509250509250929050565b5f81905092915050565b5f610aba8385610aa5565b9350610ac783858461094d565b82840190509392505050565b5f610adf828486610aaf565b91508190509392505050565b7f4e487b71000000000000000000000000000000000000000000000000000000005f52602260045260245ffd5b5f6002820490506001821680610b2f57607f821691505b602082108103610b4257610b41610aeb565b5b50919050565b5f819050815f5260205f209050919050565b5f6020601f8301049050919050565b5f82821b905092915050565b5f60088302610ba47fffffffffffffffffffffffffffffffffffffffffffffffffffffffffffffffff82610b69565b610bae8683610b69565b95508019841693508086168417925050509392505050565b5f819050919050565b5f819050919050565b5f610bf2610bed610be884610bc6565b610bcf565b610bc6565b9050919050565b5f819050919050565b610c0b83610bd8565b610c1f610c1782610bf9565b848454610b75565b825550505050565b5f90565b610c33610c27565b610c3e818484610c02565b505050565b5b81811015610c6157610c565f82610c2b565b600181019050610c44565b5050565b601f821115610ca657610c7781610b48565b610c8084610b5a565b81016020851015610c8f578190505b610ca3610c9b85610b5a565b830182610c43565b50505b505050565b5f82821c905092915050565b5f610cc65f1984600802610cab565b1980831691505092915050565b5f610cde8383610cb7565b9150826002028217905092915050565b610cf7826107f7565b67ffffffffffffffff811115610d1057610d0f6108a5565b5b610d1a8254610b18565b610d25828285610c65565b5f60209050601f831160018114610d56575f8415610d44578287015190505b610d4e8582610cd3565b865550610db5565b601f198416610d6486610b48565b5f5b82811015610d8b57848901518255600182019150602085019450602081019050610d66565b86831015610da85784890151610da4601f891682610cb7565b8355505b6001600288020188555050505b50505050505056fea264697066735822122055586c3d0d1d18d8c9e6b7d31d61b0d3202546a178761d8d7122273a1477887764736f6c63430008160033",
					"opcodes": "PUSH1 0x80 PUSH1 0x40 MSTORE CALLVALUE DUP1 ISZERO PUSH2 0xF JUMPI PUSH0 DUP1 REVERT JUMPDEST POP PUSH2 0xDF3 DUP1 PUSH2 0x1D PUSH0 CODECOPY PUSH0 RETURN INVALID PUSH1 0x80 PUSH1 0x40 MSTORE CALLVALUE DUP1 ISZERO PUSH2 0xF JUMPI PUSH0 DUP1 REVERT JUMPDEST POP PUSH1 0x4 CALLDATASIZE LT PUSH2 0x3F JUMPI PUSH0 CALLDATALOAD PUSH1 0xE0 SHR DUP1 PUSH4 0x1CDA3AC EQ PUSH2 0x43 JUMPI DUP1 PUSH4 0x61E7F98 EQ PUSH2 0x73 JUMPI DUP1 PUSH4 0x31FEB671 EQ PUSH2 0xA5 JUMPI JUMPDEST PUSH0 DUP1 REVERT JUMPDEST PUSH2 0x5D PUSH1 0x4 DUP1 CALLDATASIZE SUB DUP2 ADD SWAP1 PUSH2 0x58 SWAP2 SWAP1 PUSH2 0x713 JUMP JUMPDEST PUSH2 0xD7 JUMP JUMPDEST PUSH1 0x40 MLOAD PUSH2 0x6A SWAP2 SWAP1 PUSH2 0x881 JUMP JUMPDEST PUSH1 0x40 MLOAD DUP1 SWAP2 SUB SWAP1 RETURN JUMPDEST PUSH2 0x8D PUSH1 0x4 DUP1 CALLDATASIZE SUB DUP2 ADD SWAP1 PUSH2 0x88 SWAP2 SWAP1 PUSH2 0x9C9 JUMP JUMPDEST PUSH2 0x2D5 JUMP JUMPDEST PUSH1 0x40 MLOAD PUSH2 0x9C SWAP4 SWAP3 SWAP2 SWAP1 PUSH2 0xA10 JUMP JUMPDEST PUSH1 0x40 MLOAD DUP1 SWAP2 SUB SWAP1 RETURN JUMPDEST PUSH2 0xBF PUSH1 0x4 DUP1 CALLDATASIZE SUB DUP2 ADD SWAP1 PUSH2 0xBA SWAP2 SWAP1 PUSH2 0xA5A JUMP JUMPDEST PUSH2 0x4A4 JUMP JUMPDEST PUSH1 0x40 MLOAD PUSH2 0xCE SWAP4 SWAP3 SWAP2 SWAP1 PUSH2 0xA10 JUMP JUMPDEST PUSH1 0x40 MLOAD DUP1 SWAP2 SUB SWAP1 RETURN JUMPDEST PUSH1 0x60 PUSH0 DUP1 DUP11 DUP11 PUSH1 0x40 MLOAD PUSH2 0xEB SWAP3 SWAP2 SWAP1 PUSH2 0xAD3 JUMP JUMPDEST SWAP1 DUP2 MSTORE PUSH1 0x20 ADD PUSH1 0x40 MLOAD DUP1 SWAP2 SUB SWAP1 KECCAK256 PUSH0 ADD DUP1 SLOAD PUSH2 0x106 SWAP1 PUSH2 0xB18 JUMP JUMPDEST SWAP1 POP EQ PUSH2 0x14A JUMPI PUSH1 0x40 MLOAD DUP1 PUSH1 0x40 ADD PUSH1 0x40 MSTORE DUP1 PUSH1 0x13 DUP2 MSTORE PUSH1 0x20 ADD PUSH32 0x5573657220616C72656164792065786973747300000000000000000000000000 DUP2 MSTORE POP SWAP1 POP PUSH2 0x2C9 JUMP JUMPDEST PUSH1 0x40 MLOAD DUP1 PUSH1 0x60 ADD PUSH1 0x40 MSTORE DUP1 DUP9 DUP9 DUP1 DUP1 PUSH1 0x1F ADD PUSH1 0x20 DUP1 SWAP2 DIV MUL PUSH1 0x20 ADD PUSH1 0x40 MLOAD SWAP1 DUP2 ADD PUSH1 0x40 MSTORE DUP1 SWAP4 SWAP3 SWAP2 SWAP1 DUP2 DUP2 MSTORE PUSH1 0x20 ADD DUP4 DUP4 DUP1 DUP3 DUP5 CALLDATACOPY PUSH0 DUP2 DUP5 ADD MSTORE PUSH1 0x1F NOT PUSH1 0x1F DUP3 ADD AND SWAP1 POP DUP1 DUP4 ADD SWAP3 POP POP POP POP POP POP POP DUP2 MSTORE PUSH1 0x20 ADD DUP7 DUP7 DUP1 DUP1 PUSH1 0x1F ADD PUSH1 0x20 DUP1 SWAP2 DIV MUL PUSH1 0x20 ADD PUSH1 0x40 MLOAD SWAP1 DUP2 ADD PUSH1 0x40 MSTORE DUP1 SWAP4 SWAP3 SWAP2 SWAP1 DUP2 DUP2 MSTORE PUSH1 0x20 ADD DUP4 DUP4 DUP1 DUP3 DUP5 CALLDATACOPY PUSH0 DUP2 DUP5 ADD MSTORE PUSH1 0x1F NOT PUSH1 0x1F DUP3 ADD AND SWAP1 POP DUP1 DUP4 ADD SWAP3 POP POP POP POP POP POP POP DUP2 MSTORE PUSH1 0x20 ADD DUP5 DUP5 DUP1 DUP1 PUSH1 0x1F ADD PUSH1 0x20 DUP1 SWAP2 DIV MUL PUSH1 0x20 ADD PUSH1 0x40 MLOAD SWAP1 DUP2 ADD PUSH1 0x40 MSTORE DUP1 SWAP4 SWAP3 SWAP2 SWAP1 DUP2 DUP2 MSTORE PUSH1 0x20 ADD DUP4 DUP4 DUP1 DUP3 DUP5 CALLDATACOPY PUSH0 DUP2 DUP5 ADD MSTORE PUSH1 0x1F NOT PUSH1 0x1F DUP3 ADD AND SWAP1 POP DUP1 DUP4 ADD SWAP3 POP POP POP POP POP POP POP DUP2 MSTORE POP PUSH0 DUP11 DUP11 PUSH1 0x40 MLOAD PUSH2 0x23F SWAP3 SWAP2 SWAP1 PUSH2 0xAD3 JUMP JUMPDEST SWAP1 DUP2 MSTORE PUSH1 0x20 ADD PUSH1 0x40 MLOAD DUP1 SWAP2 SUB SWAP1 KECCAK256 PUSH0 DUP3 ADD MLOAD DUP2 PUSH0 ADD SWAP1 DUP2 PUSH2 0x260 SWAP2 SWAP1 PUSH2 0xCEE JUMP JUMPDEST POP PUSH1 0x20 DUP3 ADD MLOAD DUP2 PUSH1 0x1 ADD SWAP1 DUP2 PUSH2 0x276 SWAP2 SWAP1 PUSH2 0xCEE JUMP JUMPDEST POP PUSH1 0x40 DUP3 ADD MLOAD DUP2 PUSH1 0x2 ADD SWAP1 DUP2 PUSH2 0x28C SWAP2 SWAP1 PUSH2 0xCEE JUMP JUMPDEST POP SWAP1 POP POP PUSH1 0x40 MLOAD DUP1 PUSH1 0x40 ADD PUSH1 0x40 MSTORE DUP1 PUSH1 0x17 DUP2 MSTORE PUSH1 0x20 ADD PUSH32 0x55736572206164646564207375636365737366756C6C79000000000000000000 DUP2 MSTORE POP SWAP1 POP JUMPDEST SWAP9 SWAP8 POP POP POP POP POP POP POP POP JUMP JUMPDEST PUSH0 DUP2 DUP1 MLOAD PUSH1 0x20 DUP2 ADD DUP3 ADD DUP1 MLOAD DUP5 DUP3 MSTORE PUSH1 0x20 DUP4 ADD PUSH1 0x20 DUP6 ADD KECCAK256 DUP2 DUP4 MSTORE DUP1 SWAP6 POP POP POP POP POP POP PUSH0 SWAP2 POP SWAP1 POP DUP1 PUSH0 ADD DUP1 SLOAD PUSH2 0x30B SWAP1 PUSH2 0xB18 JUMP JUMPDEST DUP1 PUSH1 0x1F ADD PUSH1 0x20 DUP1 SWAP2 DIV MUL PUSH1 0x20 ADD PUSH1 0x40 MLOAD SWAP1 DUP2 ADD PUSH1 0x40 MSTORE DUP1 SWAP3 SWAP2 SWAP1 DUP2 DUP2 MSTORE PUSH1 0x20 ADD DUP3 DUP1 SLOAD PUSH2 0x337 SWAP1 PUSH2 0xB18 JUMP JUMPDEST DUP1 ISZERO PUSH2 0x382 JUMPI DUP1 PUSH1 0x1F LT PUSH2 0x359 JUMPI PUSH2 0x100 DUP1 DUP4 SLOAD DIV MUL DUP4 MSTORE SWAP2 PUSH1 0x20 ADD SWAP2 PUSH2 0x382 JUMP JUMPDEST DUP3 ADD SWAP2 SWAP1 PUSH0 MSTORE PUSH1 0x20 PUSH0 KECCAK256 SWAP1 JUMPDEST DUP2 SLOAD DUP2 MSTORE SWAP1 PUSH1 0x1 ADD SWAP1 PUSH1 0x20 ADD DUP1 DUP4 GT PUSH2 0x365 JUMPI DUP3 SWAP1 SUB PUSH1 0x1F AND DUP3 ADD SWAP2 JUMPDEST POP POP POP POP POP SWAP1 DUP1 PUSH1 0x1 ADD DUP1 SLOAD PUSH2 0x397 SWAP1 PUSH2 0xB18 JUMP JUMPDEST DUP1 PUSH1 0x1F ADD PUSH1 0x20 DUP1 SWAP2 DIV MUL PUSH1 0x20 ADD PUSH1 0x40 MLOAD SWAP1 DUP2 ADD PUSH1 0x40 MSTORE DUP1 SWAP3 SWAP2 SWAP1 DUP2 DUP2 MSTORE PUSH1 0x20 ADD DUP3 DUP1 SLOAD PUSH2 0x3C3 SWAP1 PUSH2 0xB18 JUMP JUMPDEST DUP1 ISZERO PUSH2 0x40E JUMPI DUP1 PUSH1 0x1F LT PUSH2 0x3E5 JUMPI PUSH2 0x100 DUP1 DUP4 SLOAD DIV MUL DUP4 MSTORE SWAP2 PUSH1 0x20 ADD SWAP2 PUSH2 0x40E JUMP JUMPDEST DUP3 ADD SWAP2 SWAP1 PUSH0 MSTORE PUSH1 0x20 PUSH0 KECCAK256 SWAP1 JUMPDEST DUP2 SLOAD DUP2 MSTORE SWAP1 PUSH1 0x1 ADD SWAP1 PUSH1 0x20 ADD DUP1 DUP4 GT PUSH2 0x3F1 JUMPI DUP3 SWAP1 SUB PUSH1 0x1F AND DUP3 ADD SWAP2 JUMPDEST POP POP POP POP POP SWAP1 DUP1 PUSH1 0x2 ADD DUP1 SLOAD PUSH2 0x423 SWAP1 PUSH2 0xB18 JUMP JUMPDEST DUP1 PUSH1 0x1F ADD PUSH1 0x20 DUP1 SWAP2 DIV MUL PUSH1 0x20 ADD PUSH1 0x40 MLOAD SWAP1 DUP2 ADD PUSH1 0x40 MSTORE DUP1 SWAP3 SWAP2 SWAP1 DUP2 DUP2 MSTORE PUSH1 0x20 ADD DUP3 DUP1 SLOAD PUSH2 0x44F SWAP1 PUSH2 0xB18 JUMP JUMPDEST DUP1 ISZERO PUSH2 0x49A JUMPI DUP1 PUSH1 0x1F LT PUSH2 0x471 JUMPI PUSH2 0x100 DUP1 DUP4 SLOAD DIV MUL DUP4 MSTORE SWAP2 PUSH1 0x20 ADD SWAP2 PUSH2 0x49A JUMP JUMPDEST DUP3 ADD SWAP2 SWAP1 PUSH0 MSTORE PUSH1 0x20 PUSH0 KECCAK256 SWAP1 JUMPDEST DUP2 SLOAD DUP2 MSTORE SWAP1 PUSH1 0x1 ADD SWAP1 PUSH1 0x20 ADD DUP1 DUP4 GT PUSH2 0x47D JUMPI DUP3 SWAP1 SUB PUSH1 0x1F AND DUP3 ADD SWAP2 JUMPDEST POP POP POP POP POP SWAP1 POP DUP4 JUMP JUMPDEST PUSH1 0x60 DUP1 PUSH1 0x60 PUSH0 DUP1 DUP7 DUP7 PUSH1 0x40 MLOAD PUSH2 0x4BB SWAP3 SWAP2 SWAP1 PUSH2 0xAD3 JUMP JUMPDEST SWAP1 DUP2 MSTORE PUSH1 0x20 ADD PUSH1 0x40 MLOAD DUP1 SWAP2 SUB SWAP1 KECCAK256 PUSH1 0x40 MLOAD DUP1 PUSH1 0x60 ADD PUSH1 0x40 MSTORE SWAP1 DUP2 PUSH0 DUP3 ADD DUP1 SLOAD PUSH2 0x4E3 SWAP1 PUSH2 0xB18 JUMP JUMPDEST DUP1 PUSH1 0x1F ADD PUSH1 0x20 DUP1 SWAP2 DIV MUL PUSH1 0x20 ADD PUSH1 0x40 MLOAD SWAP1 DUP2 ADD PUSH1 0x40 MSTORE DUP1 SWAP3 SWAP2 SWAP1 DUP2 DUP2 MSTORE PUSH1 0x20 ADD DUP3 DUP1 SLOAD PUSH2 0x50F SWAP1 PUSH2 0xB18 JUMP JUMPDEST DUP1 ISZERO PUSH2 0x55A JUMPI DUP1 PUSH1 0x1F LT PUSH2 0x531 JUMPI PUSH2 0x100 DUP1 DUP4 SLOAD DIV MUL DUP4 MSTORE SWAP2 PUSH1 0x20 ADD SWAP2 PUSH2 0x55A JUMP JUMPDEST DUP3 ADD SWAP2 SWAP1 PUSH0 MSTORE PUSH1 0x20 PUSH0 KECCAK256 SWAP1 JUMPDEST DUP2 SLOAD DUP2 MSTORE SWAP1 PUSH1 0x1 ADD SWAP1 PUSH1 0x20 ADD DUP1 DUP4 GT PUSH2 0x53D JUMPI DUP3 SWAP1 SUB PUSH1 0x1F AND DUP3 ADD SWAP2 JUMPDEST POP POP POP POP POP DUP2 MSTORE PUSH1 0x20 ADD PUSH1 0x1 DUP3 ADD DUP1 SLOAD PUSH2 0x573 SWAP1 PUSH2 0xB18 JUMP JUMPDEST DUP1 PUSH1 0x1F ADD PUSH1 0x20 DUP1 SWAP2 DIV MUL PUSH1 0x20 ADD PUSH1 0x40 MLOAD SWAP1 DUP2 ADD PUSH1 0x40 MSTORE DUP1 SWAP3 SWAP2 SWAP1 DUP2 DUP2 MSTORE PUSH1 0x20 ADD DUP3 DUP1 SLOAD PUSH2 0x59F SWAP1 PUSH2 0xB18 JUMP JUMPDEST DUP1 ISZERO PUSH2 0x5EA JUMPI DUP1 PUSH1 0x1F LT PUSH2 0x5C1 JUMPI PUSH2 0x100 DUP1 DUP4 SLOAD DIV MUL DUP4 MSTORE SWAP2 PUSH1 0x20 ADD SWAP2 PUSH2 0x5EA JUMP JUMPDEST DUP3 ADD SWAP2 SWAP1 PUSH0 MSTORE PUSH1 0x20 PUSH0 KECCAK256 SWAP1 JUMPDEST DUP2 SLOAD DUP2 MSTORE SWAP1 PUSH1 0x1 ADD SWAP1 PUSH1 0x20 ADD DUP1 DUP4 GT PUSH2 0x5CD JUMPI DUP3 SWAP1 SUB PUSH1 0x1F AND DUP3 ADD SWAP2 JUMPDEST POP POP POP POP POP DUP2 MSTORE PUSH1 0x20 ADD PUSH1 0x2 DUP3 ADD DUP1 SLOAD PUSH2 0x603 SWAP1 PUSH2 0xB18 JUMP JUMPDEST DUP1 PUSH1 0x1F ADD PUSH1 0x20 DUP1 SWAP2 DIV MUL PUSH1 0x20 ADD PUSH1 0x40 MLOAD SWAP1 DUP2 ADD PUSH1 0x40 MSTORE DUP1 SWAP3 SWAP2 SWAP1 DUP2 DUP2 MSTORE PUSH1 0x20 ADD DUP3 DUP1 SLOAD PUSH2 0x62F SWAP1 PUSH2 0xB18 JUMP JUMPDEST DUP1 ISZERO PUSH2 0x67A JUMPI DUP1 PUSH1 0x1F LT PUSH2 0x651 JUMPI PUSH2 0x100 DUP1 DUP4 SLOAD DIV MUL DUP4 MSTORE SWAP2 PUSH1 0x20 ADD SWAP2 PUSH2 0x67A JUMP JUMPDEST DUP3 ADD SWAP2 SWAP1 PUSH0 MSTORE PUSH1 0x20 PUSH0 KECCAK256 SWAP1 JUMPDEST DUP2 SLOAD DUP2 MSTORE SWAP1 PUSH1 0x1 ADD SWAP1 PUSH1 0x20 ADD DUP1 DUP4 GT PUSH2 0x65D JUMPI DUP3 SWAP1 SUB PUSH1 0x1F AND DUP3 ADD SWAP2 JUMPDEST POP POP POP POP POP DUP2 MSTORE POP POP SWAP1 POP DUP1 PUSH0 ADD MLOAD DUP2 PUSH1 0x20 ADD MLOAD DUP3 PUSH1 0x40 ADD MLOAD SWAP4 POP SWAP4 POP SWAP4 POP POP SWAP3 POP SWAP3 POP SWAP3 JUMP JUMPDEST PUSH0 PUSH1 0x40 MLOAD SWAP1 POP SWAP1 JUMP JUMPDEST PUSH0 DUP1 REVERT JUMPDEST PUSH0 DUP1 REVERT JUMPDEST PUSH0 DUP1 REVERT JUMPDEST PUSH0 DUP1 REVERT JUMPDEST PUSH0 DUP1 REVERT JUMPDEST PUSH0 DUP1 DUP4 PUSH1 0x1F DUP5 ADD SLT PUSH2 0x6D3 JUMPI PUSH2 0x6D2 PUSH2 0x6B2 JUMP JUMPDEST JUMPDEST DUP3 CALLDATALOAD SWAP1 POP PUSH8 0xFFFFFFFFFFFFFFFF DUP2 GT ISZERO PUSH2 0x6F0 JUMPI PUSH2 0x6EF PUSH2 0x6B6 JUMP JUMPDEST JUMPDEST PUSH1 0x20 DUP4 ADD SWAP2 POP DUP4 PUSH1 0x1 DUP3 MUL DUP4 ADD GT ISZERO PUSH2 0x70C JUMPI PUSH2 0x70B PUSH2 0x6BA JUMP JUMPDEST JUMPDEST SWAP3 POP SWAP3 SWAP1 POP JUMP JUMPDEST PUSH0 DUP1 PUSH0 DUP1 PUSH0 DUP1 PUSH0 DUP1 PUSH1 0x80 DUP10 DUP12 SUB SLT ISZERO PUSH2 0x72F JUMPI PUSH2 0x72E PUSH2 0x6AA JUMP JUMPDEST JUMPDEST PUSH0 DUP10 ADD CALLDATALOAD PUSH8 0xFFFFFFFFFFFFFFFF DUP2 GT ISZERO PUSH2 0x74C JUMPI PUSH2 0x74B PUSH2 0x6AE JUMP JUMPDEST JUMPDEST PUSH2 0x758 DUP12 DUP3 DUP13 ADD PUSH2 0x6BE JUMP JUMPDEST SWAP9 POP SWAP9 POP POP PUSH1 0x20 DUP10 ADD CALLDATALOAD PUSH8 0xFFFFFFFFFFFFFFFF DUP2 GT ISZERO PUSH2 0x77B JUMPI PUSH2 0x77A PUSH2 0x6AE JUMP JUMPDEST JUMPDEST PUSH2 0x787 DUP12 DUP3 DUP13 ADD PUSH2 0x6BE JUMP JUMPDEST SWAP7 POP SWAP7 POP POP PUSH1 0x40 DUP10 ADD CALLDATALOAD PUSH8 0xFFFFFFFFFFFFFFFF DUP2 GT ISZERO PUSH2 0x7AA JUMPI PUSH2 0x7A9 PUSH2 0x6AE JUMP JUMPDEST JUMPDEST PUSH2 0x7B6 DUP12 DUP3 DUP13 ADD PUSH2 0x6BE JUMP JUMPDEST SWAP5 POP SWAP5 POP POP PUSH1 0x60 DUP10 ADD CALLDATALOAD PUSH8 0xFFFFFFFFFFFFFFFF DUP2 GT ISZERO PUSH2 0x7D9 JUMPI PUSH2 0x7D8 PUSH2 0x6AE JUMP JUMPDEST JUMPDEST PUSH2 0x7E5 DUP12 DUP3 DUP13 ADD PUSH2 0x6BE JUMP JUMPDEST SWAP3 POP SWAP3 POP POP SWAP3 SWAP6 SWAP9 POP SWAP3 SWAP6 SWAP9 SWAP1 SWAP4 SWAP7 POP JUMP JUMPDEST PUSH0 DUP2 MLOAD SWAP1 POP SWAP2 SWAP1 POP JUMP JUMPDEST PUSH0 DUP3 DUP3 MSTORE PUSH1 0x20 DUP3 ADD SWAP1 POP SWAP3 SWAP2 POP POP JUMP JUMPDEST PUSH0 JUMPDEST DUP4 DUP2 LT ISZERO PUSH2 0x82E JUMPI DUP1 DUP3 ADD MLOAD DUP2 DUP5 ADD MSTORE PUSH1 0x20 DUP2 ADD SWAP1 POP PUSH2 0x813 JUMP JUMPDEST PUSH0 DUP5 DUP5 ADD MSTORE POP POP POP POP JUMP JUMPDEST PUSH0 PUSH1 0x1F NOT PUSH1 0x1F DUP4 ADD AND SWAP1 POP SWAP2 SWAP1 POP JUMP JUMPDEST PUSH0 PUSH2 0x853 DUP3 PUSH2 0x7F7 JUMP JUMPDEST PUSH2 0x85D DUP2 DUP6 PUSH2 0x801 JUMP JUMPDEST SWAP4 POP PUSH2 0x86D DUP2 DUP6 PUSH1 0x20 DUP7 ADD PUSH2 0x811 JUMP JUMPDEST PUSH2 0x876 DUP2 PUSH2 0x839 JUMP JUMPDEST DUP5 ADD SWAP2 POP POP SWAP3 SWAP2 POP POP JUMP JUMPDEST PUSH0 PUSH1 0x20 DUP3 ADD SWAP1 POP DUP2 DUP2 SUB PUSH0 DUP4 ADD MSTORE PUSH2 0x899 DUP2 DUP5 PUSH2 0x849 JUMP JUMPDEST SWAP1 POP SWAP3 SWAP2 POP POP JUMP JUMPDEST PUSH0 DUP1 REVERT JUMPDEST PUSH32 0x4E487B7100000000000000000000000000000000000000000000000000000000 PUSH0 MSTORE PUSH1 0x41 PUSH1 0x4 MSTORE PUSH1 0x24 PUSH0 REVERT JUMPDEST PUSH2 0x8DB DUP3 PUSH2 0x839 JUMP JUMPDEST DUP2 ADD DUP2 DUP2 LT PUSH8 0xFFFFFFFFFFFFFFFF DUP3 GT OR ISZERO PUSH2 0x8FA JUMPI PUSH2 0x8F9 PUSH2 0x8A5 JUMP JUMPDEST JUMPDEST DUP1 PUSH1 0x40 MSTORE POP POP POP JUMP JUMPDEST PUSH0 PUSH2 0x90C PUSH2 0x6A1 JUMP JUMPDEST SWAP1 POP PUSH2 0x918 DUP3 DUP3 PUSH2 0x8D2 JUMP JUMPDEST SWAP2 SWAP1 POP JUMP JUMPDEST PUSH0 PUSH8 0xFFFFFFFFFFFFFFFF DUP3 GT ISZERO PUSH2 0x937 JUMPI PUSH2 0x936 PUSH2 0x8A5 JUMP JUMPDEST JUMPDEST PUSH2 0x940 DUP3 PUSH2 0x839 JUMP JUMPDEST SWAP1 POP PUSH1 0x20 DUP2 ADD SWAP1 POP SWAP2 SWAP1 POP JUMP JUMPDEST DUP3 DUP2 DUP4 CALLDATACOPY PUSH0 DUP4 DUP4 ADD MSTORE POP POP POP JUMP JUMPDEST PUSH0 PUSH2 0x96D PUSH2 0x968 DUP5 PUSH2 0x91D JUMP JUMPDEST PUSH2 0x903 JUMP JUMPDEST SWAP1 POP DUP3 DUP2 MSTORE PUSH1 0x20 DUP2 ADD DUP5 DUP5 DUP5 ADD GT ISZERO PUSH2 0x989 JUMPI PUSH2 0x988 PUSH2 0x8A1 JUMP JUMPDEST JUMPDEST PUSH2 0x994 DUP5 DUP3 DUP6 PUSH2 0x94D JUMP JUMPDEST POP SWAP4 SWAP3 POP POP POP JUMP JUMPDEST PUSH0 DUP3 PUSH1 0x1F DUP4 ADD SLT PUSH2 0x9B0 JUMPI PUSH2 0x9AF PUSH2 0x6B2 JUMP JUMPDEST JUMPDEST DUP2 CALLDATALOAD PUSH2 0x9C0 DUP5 DUP3 PUSH1 0x20 DUP7 ADD PUSH2 0x95B JUMP JUMPDEST SWAP2 POP POP SWAP3 SWAP2 POP POP JUMP JUMPDEST PUSH0 PUSH1 0x20 DUP3 DUP5 SUB SLT ISZERO PUSH2 0x9DE JUMPI PUSH2 0x9DD PUSH2 0x6AA JUMP JUMPDEST JUMPDEST PUSH0 DUP3 ADD CALLDATALOAD PUSH8 0xFFFFFFFFFFFFFFFF DUP2 GT ISZERO PUSH2 0x9FB JUMPI PUSH2 0x9FA PUSH2 0x6AE JUMP JUMPDEST JUMPDEST PUSH2 0xA07 DUP5 DUP3 DUP6 ADD PUSH2 0x99C JUMP JUMPDEST SWAP2 POP POP SWAP3 SWAP2 POP POP JUMP JUMPDEST PUSH0 PUSH1 0x60 DUP3 ADD SWAP1 POP DUP2 DUP2 SUB PUSH0 DUP4 ADD MSTORE PUSH2 0xA28 DUP2 DUP7 PUSH2 0x849 JUMP JUMPDEST SWAP1 POP DUP2 DUP2 SUB PUSH1 0x20 DUP4 ADD MSTORE PUSH2 0xA3C DUP2 DUP6 PUSH2 0x849 JUMP JUMPDEST SWAP1 POP DUP2 DUP2 SUB PUSH1 0x40 DUP4 ADD MSTORE PUSH2 0xA50 DUP2 DUP5 PUSH2 0x849 JUMP JUMPDEST SWAP1 POP SWAP5 SWAP4 POP POP POP POP JUMP JUMPDEST PUSH0 DUP1 PUSH1 0x20 DUP4 DUP6 SUB SLT ISZERO PUSH2 0xA70 JUMPI PUSH2 0xA6F PUSH2 0x6AA JUMP JUMPDEST JUMPDEST PUSH0 DUP4 ADD CALLDATALOAD PUSH8 0xFFFFFFFFFFFFFFFF DUP2 GT ISZERO PUSH2 0xA8D JUMPI PUSH2 0xA8C PUSH2 0x6AE JUMP JUMPDEST JUMPDEST PUSH2 0xA99 DUP6 DUP3 DUP7 ADD PUSH2 0x6BE JUMP JUMPDEST SWAP3 POP SWAP3 POP POP SWAP3 POP SWAP3 SWAP1 POP JUMP JUMPDEST PUSH0 DUP2 SWAP1 POP SWAP3 SWAP2 POP POP JUMP JUMPDEST PUSH0 PUSH2 0xABA DUP4 DUP6 PUSH2 0xAA5 JUMP JUMPDEST SWAP4 POP PUSH2 0xAC7 DUP4 DUP6 DUP5 PUSH2 0x94D JUMP JUMPDEST DUP3 DUP5 ADD SWAP1 POP SWAP4 SWAP3 POP POP POP JUMP JUMPDEST PUSH0 PUSH2 0xADF DUP3 DUP5 DUP7 PUSH2 0xAAF JUMP JUMPDEST SWAP2 POP DUP2 SWAP1 POP SWAP4 SWAP3 POP POP POP JUMP JUMPDEST PUSH32 0x4E487B7100000000000000000000000000000000000000000000000000000000 PUSH0 MSTORE PUSH1 0x22 PUSH1 0x4 MSTORE PUSH1 0x24 PUSH0 REVERT JUMPDEST PUSH0 PUSH1 0x2 DUP3 DIV SWAP1 POP PUSH1 0x1 DUP3 AND DUP1 PUSH2 0xB2F JUMPI PUSH1 0x7F DUP3 AND SWAP2 POP JUMPDEST PUSH1 0x20 DUP3 LT DUP2 SUB PUSH2 0xB42 JUMPI PUSH2 0xB41 PUSH2 0xAEB JUMP JUMPDEST JUMPDEST POP SWAP2 SWAP1 POP JUMP JUMPDEST PUSH0 DUP2 SWAP1 POP DUP2 PUSH0 MSTORE PUSH1 0x20 PUSH0 KECCAK256 SWAP1 POP SWAP2 SWAP1 POP JUMP JUMPDEST PUSH0 PUSH1 0x20 PUSH1 0x1F DUP4 ADD DIV SWAP1 POP SWAP2 SWAP1 POP JUMP JUMPDEST PUSH0 DUP3 DUP3 SHL SWAP1 POP SWAP3 SWAP2 POP POP JUMP JUMPDEST PUSH0 PUSH1 0x8 DUP4 MUL PUSH2 0xBA4 PUSH32 0xFFFFFFFFFFFFFFFFFFFFFFFFFFFFFFFFFFFFFFFFFFFFFFFFFFFFFFFFFFFFFFFF DUP3 PUSH2 0xB69 JUMP JUMPDEST PUSH2 0xBAE DUP7 DUP4 PUSH2 0xB69 JUMP JUMPDEST SWAP6 POP DUP1 NOT DUP5 AND SWAP4 POP DUP1 DUP7 AND DUP5 OR SWAP3 POP POP POP SWAP4 SWAP3 POP POP POP JUMP JUMPDEST PUSH0 DUP2 SWAP1 POP SWAP2 SWAP1 POP JUMP JUMPDEST PUSH0 DUP2 SWAP1 POP SWAP2 SWAP1 POP JUMP JUMPDEST PUSH0 PUSH2 0xBF2 PUSH2 0xBED PUSH2 0xBE8 DUP5 PUSH2 0xBC6 JUMP JUMPDEST PUSH2 0xBCF JUMP JUMPDEST PUSH2 0xBC6 JUMP JUMPDEST SWAP1 POP SWAP2 SWAP1 POP JUMP JUMPDEST PUSH0 DUP2 SWAP1 POP SWAP2 SWAP1 POP JUMP JUMPDEST PUSH2 0xC0B DUP4 PUSH2 0xBD8 JUMP JUMPDEST PUSH2 0xC1F PUSH2 0xC17 DUP3 PUSH2 0xBF9 JUMP JUMPDEST DUP5 DUP5 SLOAD PUSH2 0xB75 JUMP JUMPDEST DUP3 SSTORE POP POP POP POP JUMP JUMPDEST PUSH0 SWAP1 JUMP JUMPDEST PUSH2 0xC33 PUSH2 0xC27 JUMP JUMPDEST PUSH2 0xC3E DUP2 DUP5 DUP5 PUSH2 0xC02 JUMP JUMPDEST POP POP POP JUMP JUMPDEST JUMPDEST DUP2 DUP2 LT ISZERO PUSH2 0xC61 JUMPI PUSH2 0xC56 PUSH0 DUP3 PUSH2 0xC2B JUMP JUMPDEST PUSH1 0x1 DUP2 ADD SWAP1 POP PUSH2 0xC44 JUMP JUMPDEST POP POP JUMP JUMPDEST PUSH1 0x1F DUP3 GT ISZERO PUSH2 0xCA6 JUMPI PUSH2 0xC77 DUP2 PUSH2 0xB48 JUMP JUMPDEST PUSH2 0xC80 DUP5 PUSH2 0xB5A JUMP JUMPDEST DUP2 ADD PUSH1 0x20 DUP6 LT ISZERO PUSH2 0xC8F JUMPI DUP2 SWAP1 POP JUMPDEST PUSH2 0xCA3 PUSH2 0xC9B DUP6 PUSH2 0xB5A JUMP JUMPDEST DUP4 ADD DUP3 PUSH2 0xC43 JUMP JUMPDEST POP POP JUMPDEST POP POP POP JUMP JUMPDEST PUSH0 DUP3 DUP3 SHR SWAP1 POP SWAP3 SWAP2 POP POP JUMP JUMPDEST PUSH0 PUSH2 0xCC6 PUSH0 NOT DUP5 PUSH1 0x8 MUL PUSH2 0xCAB JUMP JUMPDEST NOT DUP1 DUP4 AND SWAP2 POP POP SWAP3 SWAP2 POP POP JUMP JUMPDEST PUSH0 PUSH2 0xCDE DUP4 DUP4 PUSH2 0xCB7 JUMP JUMPDEST SWAP2 POP DUP3 PUSH1 0x2 MUL DUP3 OR SWAP1 POP SWAP3 SWAP2 POP POP JUMP JUMPDEST PUSH2 0xCF7 DUP3 PUSH2 0x7F7 JUMP JUMPDEST PUSH8 0xFFFFFFFFFFFFFFFF DUP2 GT ISZERO PUSH2 0xD10 JUMPI PUSH2 0xD0F PUSH2 0x8A5 JUMP JUMPDEST JUMPDEST PUSH2 0xD1A DUP3 SLOAD PUSH2 0xB18 JUMP JUMPDEST PUSH2 0xD25 DUP3 DUP3 DUP6 PUSH2 0xC65 JUMP JUMPDEST PUSH0 PUSH1 0x20 SWAP1 POP PUSH1 0x1F DUP4 GT PUSH1 0x1 DUP2 EQ PUSH2 0xD56 JUMPI PUSH0 DUP5 ISZERO PUSH2 0xD44 JUMPI DUP3 DUP8 ADD MLOAD SWAP1 POP JUMPDEST PUSH2 0xD4E DUP6 DUP3 PUSH2 0xCD3 JUMP JUMPDEST DUP7 SSTORE POP PUSH2 0xDB5 JUMP JUMPDEST PUSH1 0x1F NOT DUP5 AND PUSH2 0xD64 DUP7 PUSH2 0xB48 JUMP JUMPDEST PUSH0 JUMPDEST DUP3 DUP2 LT ISZERO PUSH2 0xD8B JUMPI DUP5 DUP10 ADD MLOAD DUP3 SSTORE PUSH1 0x1 DUP3 ADD SWAP2 POP PUSH1 0x20 DUP6 ADD SWAP5 POP PUSH1 0x20 DUP2 ADD SWAP1 POP PUSH2 0xD66 JUMP JUMPDEST DUP7 DUP4 LT ISZERO PUSH2 0xDA8 JUMPI DUP5 DUP10 ADD MLOAD PUSH2 0xDA4 PUSH1 0x1F DUP10 AND DUP3 PUSH2 0xCB7 JUMP JUMPDEST DUP4 SSTORE POP JUMPDEST PUSH1 0x1 PUSH1 0x2 DUP9 MUL ADD DUP9 SSTORE POP POP POP JUMPDEST POP POP POP POP POP POP JUMP INVALID LOG2 PUSH5 0x6970667358 0x22 SLT KECCAK256 SSTORE PC PUSH13 0x3D0D1D18D8C9E6B7D31D61B0D3 KECCAK256 0x25 CHAINID LOG1 PUSH25 0x761D8D7122273A1477887764736F6C63430008160033000000 "
				},
				"gasEstimates": {
					"creation": {
						"codeDepositCost": "714200",
						"executionCost": "745",
						"totalCost": "714945"
					},
					"external": {
						"addUser(string,string,string,string)": "infinite",
						"getUser(string)": "infinite",
						"usersMapping(string)": "infinite"
					}
				},
				"methodIdentifiers": {
					"addUser(string,string,string,string)": "01cda3ac",
					"getUser(string)": "31feb671",
					"usersMapping(string)": "061e7f98"
				}
			},
			"storageLayout": {
				"storage": [
					{
						"astId": 13,
						"contract": "User.sol:Users",
						"label": "usersMapping",
						"offset": 0,
						"slot": "0",
						"type": "t_mapping(t_string_memory_ptr,t_struct(User)8_storage)"
					}
				],
				"types": {
					"t_mapping(t_string_memory_ptr,t_struct(User)8_storage)": {
						"encoding": "mapping",
						"key": "t_string_memory_ptr",
						"label": "mapping(string => struct Users.User)",
						"numberOfBytes": "32",
						"value": "t_struct(User)8_storage"
					},
					"t_string_memory_ptr": {
						"encoding": "bytes",
						"label": "string",
						"numberOfBytes": "32"
					},
					"t_string_storage": {
						"encoding": "bytes",
						"label": "string",
						"numberOfBytes": "32"
					},
					"t_struct(User)8_storage": {
						"encoding": "inplace",
						"label": "struct Users.User",
						"members": [
							{
								"astId": 3,
								"contract": "User.sol:Users",
								"label": "name",
								"offset": 0,
								"slot": "0",
								"type": "t_string_storage"
							},
							{
								"astId": 5,
								"contract": "User.sol:Users",
								"label": "phoneNumber",
								"offset": 0,
								"slot": "1",
								"type": "t_string_storage"
							},
							{
								"astId": 7,
								"contract": "User.sol:Users",
								"label": "age",
								"offset": 0,
								"slot": "2",
								"type": "t_string_storage"
							}
						],
						"numberOfBytes": "96"
					}
				}
			},
			"userdoc": {
				"kind": "user",
				"methods": {},
				"version": 1
			}
		}
	}
}