{
  "contractName": "EmailVerification",
  "abi": [
    {
      "inputs": [
        {
          "internalType": "string",
          "name": "",
          "type": "string"
        }
      ],
      "name": "CheckEmail",
      "outputs": [
        {
          "internalType": "string",
          "name": "",
          "type": "string"
        }
      ],
      "stateMutability": "view",
      "type": "function",
      "constant": true
    },
    {
      "inputs": [
        {
          "internalType": "string",
          "name": "",
          "type": "string"
        }
      ],
      "name": "SaveEmail",
      "outputs": [
        {
          "internalType": "string",
          "name": "",
          "type": "string"
        }
      ],
      "stateMutability": "view",
      "type": "function",
      "constant": true
    },
    {
      "inputs": [
        {
          "internalType": "string",
          "name": "email",
          "type": "string"
        }
      ],
      "name": "InitialCheckEmailMapping",
      "outputs": [
        {
          "internalType": "bool",
          "name": "",
          "type": "bool"
        }
      ],
      "stateMutability": "view",
      "type": "function",
      "constant": true
    },
    {
      "inputs": [
        {
          "internalType": "string",
          "name": "privateKey",
          "type": "string"
        }
      ],
      "name": "FinalCheckEmailMapping",
      "outputs": [
        {
          "internalType": "string",
          "name": "",
          "type": "string"
        }
      ],
      "stateMutability": "view",
      "type": "function",
      "constant": true
    },
    {
      "inputs": [
        {
          "internalType": "string",
          "name": "privateKey",
          "type": "string"
        },
        {
          "internalType": "string",
          "name": "email",
          "type": "string"
        }
      ],
      "name": "SaveEmailMapping",
      "outputs": [],
      "stateMutability": "nonpayable",
      "type": "function"
    }
  ],
  "bytecode": "0x608060405234801561001057600080fd5b50610a49806100206000396000f3fe608060405234801561001057600080fd5b50600436106100575760003560e01c80630e52f48a1461005c5780630f9cc7b91461008c57806346dd4bef146100a8578063b6d7bd37146100d8578063f8b7800f14610108575b600080fd5b61007660048036038101906100719190610540565b610138565b6040516100839190610608565b60405180910390f35b6100a660048036038101906100a1919061062a565b6101e8565b005b6100c260048036038101906100bd9190610540565b610244565b6040516100cf91906106bd565b60405180910390f35b6100f260048036038101906100ed9190610540565b61027a565b6040516100ff9190610608565b60405180910390f35b610122600480360381019061011d9190610540565b610330565b60405161012f9190610608565b60405180910390f35b606060008260405161014a9190610714565b908152602001604051809103902080546101639061075a565b80601f016020809104026020016040519081016040528092919081815260200182805461018f9061075a565b80156101dc5780601f106101b1576101008083540402835291602001916101dc565b820191906000526020600020905b8154815290600101906020018083116101bf57829003601f168201915b50505050509050919050565b806000836040516101f99190610714565b908152602001604051809103902090816102139190610941565b50816001826040516102259190610714565b9081526020016040518091039020908161023f9190610941565b505050565b6000806001836040516102579190610714565b908152602001604051809103902080546102709061075a565b9050119050919050565b60008180516020810182018051848252602083016020850120818352809550505050505060009150905080546102af9061075a565b80601f01602080910402602001604051908101604052809291908181526020018280546102db9061075a565b80156103285780601f106102fd57610100808354040283529160200191610328565b820191906000526020600020905b81548152906001019060200180831161030b57829003601f168201915b505050505081565b60018180516020810182018051848252602083016020850120818352809550505050505060009150905080546103659061075a565b80601f01602080910402602001604051908101604052809291908181526020018280546103919061075a565b80156103de5780601f106103b3576101008083540402835291602001916103de565b820191906000526020600020905b8154815290600101906020018083116103c157829003601f168201915b505050505081565b6000604051905090565b600080fd5b600080fd5b600080fd5b600080fd5b6000601f19601f8301169050919050565b7f4e487b7100000000000000000000000000000000000000000000000000000000600052604160045260246000fd5b61044d82610404565b810181811067ffffffffffffffff8211171561046c5761046b610415565b5b80604052505050565b600061047f6103e6565b905061048b8282610444565b919050565b600067ffffffffffffffff8211156104ab576104aa610415565b5b6104b482610404565b9050602081019050919050565b82818337600083830152505050565b60006104e36104de84610490565b610475565b9050828152602081018484840111156104ff576104fe6103ff565b5b61050a8482856104c1565b509392505050565b600082601f830112610527576105266103fa565b5b81356105378482602086016104d0565b91505092915050565b600060208284031215610556576105556103f0565b5b600082013567ffffffffffffffff811115610574576105736103f5565b5b61058084828501610512565b91505092915050565b600081519050919050565b600082825260208201905092915050565b60005b838110156105c35780820151818401526020810190506105a8565b60008484015250505050565b60006105da82610589565b6105e48185610594565b93506105f48185602086016105a5565b6105fd81610404565b840191505092915050565b6000602082019050818103600083015261062281846105cf565b905092915050565b60008060408385031215610641576106406103f0565b5b600083013567ffffffffffffffff81111561065f5761065e6103f5565b5b61066b85828601610512565b925050602083013567ffffffffffffffff81111561068c5761068b6103f5565b5b61069885828601610512565b9150509250929050565b60008115159050919050565b6106b7816106a2565b82525050565b60006020820190506106d260008301846106ae565b92915050565b600081905092915050565b60006106ee82610589565b6106f881856106d8565b93506107088185602086016105a5565b80840191505092915050565b600061072082846106e3565b915081905092915050565b7f4e487b7100000000000000000000000000000000000000000000000000000000600052602260045260246000fd5b6000600282049050600182168061077257607f821691505b6020821081036107855761078461072b565b5b50919050565b60008190508160005260206000209050919050565b60006020601f8301049050919050565b600082821b905092915050565b6000600883026107ed7fffffffffffffffffffffffffffffffffffffffffffffffffffffffffffffffff826107b0565b6107f786836107b0565b95508019841693508086168417925050509392505050565b6000819050919050565b6000819050919050565b600061083e6108396108348461080f565b610819565b61080f565b9050919050565b6000819050919050565b61085883610823565b61086c61086482610845565b8484546107bd565b825550505050565b600090565b610881610874565b61088c81848461084f565b505050565b5b818110156108b0576108a5600082610879565b600181019050610892565b5050565b601f8211156108f5576108c68161078b565b6108cf846107a0565b810160208510156108de578190505b6108f26108ea856107a0565b830182610891565b50505b505050565b600082821c905092915050565b6000610918600019846008026108fa565b1980831691505092915050565b60006109318383610907565b9150826002028217905092915050565b61094a82610589565b67ffffffffffffffff81111561096357610962610415565b5b61096d825461075a565b6109788282856108b4565b600060209050601f8311600181146109ab5760008415610999578287015190505b6109a38582610925565b865550610a0b565b601f1984166109b98661078b565b60005b828110156109e1578489015182556001820191506020850194506020810190506109bc565b868310156109fe57848901516109fa601f891682610907565b8355505b6001600288020188555050505b50505050505056fea2646970667358221220bcb0c99f676da1fefd5047b481c581597f50d4dd747b4e70c1fe7ad2b7c73d8264736f6c63430008110033",
  "immutableReferences": {},
  "source": "// SPDX-License-Identifier: MIT\r\npragma solidity ^0.8.0;\r\n\r\ncontract EmailVerification {\r\n    // Mapping to save the relationship between private key and email\r\n    mapping(string => string) public SaveEmail;\r\n\r\n    // Mapping to save the relationship between email and private key\r\n    mapping(string => string) public CheckEmail;\r\n\r\n    // Function to initialize the CheckEmail mapping\r\n    function InitialCheckEmailMapping(string memory email) public view returns (bool) {\r\n        // Check if the email exists in the CheckEmail mapping\r\n        return bytes(CheckEmail[email]).length > 0;\r\n    }\r\n\r\n    // Function to check if private key exists in SaveEmail mapping and return associated email\r\n    function FinalCheckEmailMapping(string memory privateKey) public view returns (string memory) {\r\n        // Check if the private key exists in the SaveEmail mapping\r\n        return SaveEmail[privateKey];\r\n    }\r\n\r\n    // Function to save the email and private key\r\n    function SaveEmailMapping(string memory privateKey, string memory email) public {\r\n        // Save the mapping in SaveEmail\r\n        SaveEmail[privateKey] = email;\r\n\r\n        // Save the mapping in CheckEmail\r\n        CheckEmail[email] = privateKey;\r\n    }\r\n}\r\n",
  "sourcePath": "C:\\Users\\abc\\Documents\\GitHub\\Web3\\DecentralizedIdentity\\contracts\\Email.sol",
  "compiler": {
    "name": "solc",
    "version": "0.8.17+commit.8df45f5f.Emscripten.clang"
  },
  "schemaVersion": "3.4.16",
  "updatedAt": "2024-03-25T12:13:12.412Z",
  "networkType": "ethereum",
  "devdoc": {
    "kind": "dev",
    "methods": {},
    "version": 1
  },
  "userdoc": {
    "kind": "user",
    "methods": {},
    "version": 1
  }
}