{
  "contractName": "UserRegistry",
  "abi": [
    {
      "anonymous": false,
      "inputs": [
        {
          "indexed": true,
          "internalType": "string",
          "name": "userAddress",
          "type": "string"
        },
        {
          "indexed": false,
          "internalType": "string",
          "name": "newCid",
          "type": "string"
        },
        {
          "indexed": false,
          "internalType": "bool",
          "name": "success",
          "type": "bool"
        }
      ],
      "name": "CidUpdated",
      "type": "event"
    },
    {
      "anonymous": false,
      "inputs": [
        {
          "indexed": true,
          "internalType": "string",
          "name": "userAddress",
          "type": "string"
        },
        {
          "indexed": false,
          "internalType": "string",
          "name": "newContact",
          "type": "string"
        },
        {
          "indexed": false,
          "internalType": "bool",
          "name": "success",
          "type": "bool"
        }
      ],
      "name": "ContactUpdated",
      "type": "event"
    },
    {
      "anonymous": false,
      "inputs": [
        {
          "indexed": true,
          "internalType": "string",
          "name": "userAddress",
          "type": "string"
        },
        {
          "indexed": false,
          "internalType": "string",
          "name": "newDOB",
          "type": "string"
        },
        {
          "indexed": false,
          "internalType": "bool",
          "name": "success",
          "type": "bool"
        }
      ],
      "name": "DOBUpdated",
      "type": "event"
    },
    {
      "anonymous": false,
      "inputs": [
        {
          "indexed": true,
          "internalType": "string",
          "name": "userAddress",
          "type": "string"
        },
        {
          "indexed": false,
          "internalType": "string",
          "name": "newEmail",
          "type": "string"
        },
        {
          "indexed": false,
          "internalType": "bool",
          "name": "success",
          "type": "bool"
        }
      ],
      "name": "EmailUpdated",
      "type": "event"
    },
    {
      "anonymous": false,
      "inputs": [
        {
          "indexed": true,
          "internalType": "string",
          "name": "userAddress",
          "type": "string"
        },
        {
          "indexed": false,
          "internalType": "string",
          "name": "newUsername",
          "type": "string"
        },
        {
          "indexed": false,
          "internalType": "bool",
          "name": "success",
          "type": "bool"
        }
      ],
      "name": "UsernameUpdated",
      "type": "event"
    },
    {
      "inputs": [
        {
          "internalType": "string",
          "name": "",
          "type": "string"
        }
      ],
      "name": "privateKeyToPublicKey",
      "outputs": [
        {
          "internalType": "string",
          "name": "",
          "type": "string"
        }
      ],
      "stateMutability": "view",
      "type": "function",
      "constant": true
    },
    {
      "inputs": [
        {
          "internalType": "string",
          "name": "",
          "type": "string"
        }
      ],
      "name": "users",
      "outputs": [
        {
          "internalType": "string",
          "name": "userAddress",
          "type": "string"
        },
        {
          "internalType": "string",
          "name": "email",
          "type": "string"
        },
        {
          "internalType": "string",
          "name": "username",
          "type": "string"
        },
        {
          "internalType": "string",
          "name": "contact",
          "type": "string"
        },
        {
          "internalType": "string",
          "name": "dob",
          "type": "string"
        },
        {
          "internalType": "string",
          "name": "cid",
          "type": "string"
        }
      ],
      "stateMutability": "view",
      "type": "function",
      "constant": true
    },
    {
      "inputs": [
        {
          "internalType": "string",
          "name": "_userAddress",
          "type": "string"
        },
        {
          "internalType": "string",
          "name": "_email",
          "type": "string"
        },
        {
          "internalType": "string",
          "name": "_username",
          "type": "string"
        },
        {
          "internalType": "string",
          "name": "_contact",
          "type": "string"
        },
        {
          "internalType": "string",
          "name": "_dob",
          "type": "string"
        },
        {
          "internalType": "string",
          "name": "_privateKey",
          "type": "string"
        },
        {
          "internalType": "string",
          "name": "_cid",
          "type": "string"
        }
      ],
      "name": "createUser",
      "outputs": [],
      "stateMutability": "nonpayable",
      "type": "function"
    },
    {
      "inputs": [
        {
          "internalType": "string",
          "name": "_privateKey",
          "type": "string"
        },
        {
          "internalType": "string",
          "name": "_userAddress",
          "type": "string"
        }
      ],
      "name": "mapPrivateKeyToPublicKey",
      "outputs": [],
      "stateMutability": "nonpayable",
      "type": "function"
    },
    {
      "inputs": [
        {
          "internalType": "string",
          "name": "_userAddress",
          "type": "string"
        }
      ],
      "name": "getUsernameByAddress",
      "outputs": [
        {
          "internalType": "string",
          "name": "",
          "type": "string"
        }
      ],
      "stateMutability": "view",
      "type": "function",
      "constant": true
    },
    {
      "inputs": [
        {
          "internalType": "string",
          "name": "_userAddress",
          "type": "string"
        },
        {
          "internalType": "string",
          "name": "_newUsername",
          "type": "string"
        }
      ],
      "name": "updateUsername",
      "outputs": [],
      "stateMutability": "nonpayable",
      "type": "function"
    },
    {
      "inputs": [
        {
          "internalType": "string",
          "name": "_userAddress",
          "type": "string"
        }
      ],
      "name": "getCidByAddress",
      "outputs": [
        {
          "internalType": "string",
          "name": "",
          "type": "string"
        }
      ],
      "stateMutability": "view",
      "type": "function",
      "constant": true
    },
    {
      "inputs": [
        {
          "internalType": "string",
          "name": "_userAddress",
          "type": "string"
        },
        {
          "internalType": "string",
          "name": "_newCid",
          "type": "string"
        }
      ],
      "name": "updateCid",
      "outputs": [],
      "stateMutability": "nonpayable",
      "type": "function"
    },
    {
      "inputs": [
        {
          "internalType": "string",
          "name": "_userAddress",
          "type": "string"
        }
      ],
      "name": "getEmailByAddress",
      "outputs": [
        {
          "internalType": "string",
          "name": "",
          "type": "string"
        }
      ],
      "stateMutability": "view",
      "type": "function",
      "constant": true
    },
    {
      "inputs": [
        {
          "internalType": "string",
          "name": "_userAddress",
          "type": "string"
        },
        {
          "internalType": "string",
          "name": "_newEmail",
          "type": "string"
        }
      ],
      "name": "updateEmail",
      "outputs": [],
      "stateMutability": "nonpayable",
      "type": "function"
    },
    {
      "inputs": [
        {
          "internalType": "string",
          "name": "_userAddress",
          "type": "string"
        }
      ],
      "name": "getDOBByAddress",
      "outputs": [
        {
          "internalType": "string",
          "name": "",
          "type": "string"
        }
      ],
      "stateMutability": "view",
      "type": "function",
      "constant": true
    },
    {
      "inputs": [
        {
          "internalType": "string",
          "name": "_userAddress",
          "type": "string"
        },
        {
          "internalType": "string",
          "name": "_newDOB",
          "type": "string"
        }
      ],
      "name": "updateDOB",
      "outputs": [],
      "stateMutability": "nonpayable",
      "type": "function"
    },
    {
      "inputs": [
        {
          "internalType": "string",
          "name": "_userAddress",
          "type": "string"
        }
      ],
      "name": "getContactByAddress",
      "outputs": [
        {
          "internalType": "string",
          "name": "",
          "type": "string"
        }
      ],
      "stateMutability": "view",
      "type": "function",
      "constant": true
    },
    {
      "inputs": [
        {
          "internalType": "string",
          "name": "_userAddress",
          "type": "string"
        },
        {
          "internalType": "string",
          "name": "_newContact",
          "type": "string"
        }
      ],
      "name": "updateContact",
      "outputs": [],
      "stateMutability": "nonpayable",
      "type": "function"
    }
  ],
  "bytecode": "0x608060405234801561001057600080fd5b5061195f806100206000396000f3fe608060405234801561001057600080fd5b50600436106100ea5760003560e01c8063a1d01bb11161008c578063c87203a111610066578063c87203a11461025c578063ccca8f221461028c578063ee7476d5146102bc578063f7ffd625146102d8576100ea565b8063a1d01bb1146101e0578063beb8727f146101fc578063bf5018441461022c576100ea565b80635abb69e1116100c85780635abb69e114610143578063689e1c031461015f578063892d069c146101945780638c9a2e92146101b0576100ea565b80630d60fafd146100ef578063278975571461010b5780635a7fb9d714610127575b600080fd5b6101096004803603810190610104919061110c565b610308565b005b6101256004803603810190610120919061110c565b61038b565b005b610141600480360381019061013c919061110c565b61040e565b005b61015d60048036038101906101589190611184565b6104ab565b005b610179600480360381019061017491906112ea565b610672565b60405161018b969594939291906113b2565b60405180910390f35b6101ae60048036038101906101a9919061110c565b6109f4565b005b6101ca60048036038101906101c591906112ea565b610a77565b6040516101d7919061143d565b60405180910390f35b6101fa60048036038101906101f5919061110c565b610b2a565b005b610216600480360381019061021191906112ea565b610bad565b604051610223919061143d565b60405180910390f35b610246600480360381019061024191906112ea565b610c60565b604051610253919061143d565b60405180910390f35b610276600480360381019061027191906112ea565b610d16565b604051610283919061143d565b60405180910390f35b6102a660048036038101906102a191906112ea565b610dc9565b6040516102b3919061143d565b60405180910390f35b6102d660048036038101906102d1919061110c565b610e7c565b005b6102f260048036038101906102ed91906112ea565b610eff565b6040516102ff919061143d565b60405180910390f35b80600083604051610319919061149b565b9081526020016040518091039020600301908161033691906116c8565b5081604051610345919061149b565b60405180910390207fa44feca31ca2b9cda9b6dec473fbbc131c350db90a2f95915bcd051cdc5e10ba82600160405161037f9291906117b5565b60405180910390a25050565b8060008360405161039c919061149b565b908152602001604051809103902060010190816103b991906116c8565b50816040516103c8919061149b565b60405180910390207fa76f1708714ecb5aed9ae4c006eafbf67941b726bb287f861c599f2286fdf7788260016040516104029291906117b5565b60405180910390a25050565b6000600183604051610420919061149b565b90815260200160405180910390208054610439906114e1565b90501461047b576040517f08c379a000000000000000000000000000000000000000000000000000000000815260040161047290611831565b60405180910390fd5b8060018360405161048c919061149b565b908152602001604051809103902090816104a691906116c8565b505050565b600080886040516104bc919061149b565b908152602001604051809103902060000180546104d8906114e1565b90501461051a576040517f08c379a00000000000000000000000000000000000000000000000000000000081526004016105119061189d565b60405180910390fd5b600060018360405161052c919061149b565b90815260200160405180910390208054610545906114e1565b905014610587576040517f08c379a000000000000000000000000000000000000000000000000000000000815260040161057e90611909565b60405180910390fd5b60006040518060c00160405280898152602001888152602001878152602001868152602001858152602001838152509050806000896040516105c9919061149b565b908152602001604051809103902060008201518160000190816105ec91906116c8565b50602082015181600101908161060291906116c8565b50604082015181600201908161061891906116c8565b50606082015181600301908161062e91906116c8565b50608082015181600401908161064491906116c8565b5060a082015181600501908161065a91906116c8565b50905050610668838961040e565b5050505050505050565b6000818051602081018201805184825260208301602085012081835280955050505050506000915090508060000180546106ab906114e1565b80601f01602080910402602001604051908101604052809291908181526020018280546106d7906114e1565b80156107245780601f106106f957610100808354040283529160200191610724565b820191906000526020600020905b81548152906001019060200180831161070757829003601f168201915b505050505090806001018054610739906114e1565b80601f0160208091040260200160405190810160405280929190818152602001828054610765906114e1565b80156107b25780601f10610787576101008083540402835291602001916107b2565b820191906000526020600020905b81548152906001019060200180831161079557829003601f168201915b5050505050908060020180546107c7906114e1565b80601f01602080910402602001604051908101604052809291908181526020018280546107f3906114e1565b80156108405780601f1061081557610100808354040283529160200191610840565b820191906000526020600020905b81548152906001019060200180831161082357829003601f168201915b505050505090806003018054610855906114e1565b80601f0160208091040260200160405190810160405280929190818152602001828054610881906114e1565b80156108ce5780601f106108a3576101008083540402835291602001916108ce565b820191906000526020600020905b8154815290600101906020018083116108b157829003601f168201915b5050505050908060040180546108e3906114e1565b80601f016020809104026020016040519081016040528092919081815260200182805461090f906114e1565b801561095c5780601f106109315761010080835404028352916020019161095c565b820191906000526020600020905b81548152906001019060200180831161093f57829003601f168201915b505050505090806005018054610971906114e1565b80601f016020809104026020016040519081016040528092919081815260200182805461099d906114e1565b80156109ea5780601f106109bf576101008083540402835291602001916109ea565b820191906000526020600020905b8154815290600101906020018083116109cd57829003601f168201915b5050505050905086565b80600083604051610a05919061149b565b90815260200160405180910390206002019081610a2291906116c8565b5081604051610a31919061149b565b60405180910390207f480bdec02bf73c6c075a8db62d725863401ec6d719a3ff0c25b87ac13569c5f2826001604051610a6b9291906117b5565b60405180910390a25050565b6060600082604051610a89919061149b565b90815260200160405180910390206001018054610aa5906114e1565b80601f0160208091040260200160405190810160405280929190818152602001828054610ad1906114e1565b8015610b1e5780601f10610af357610100808354040283529160200191610b1e565b820191906000526020600020905b815481529060010190602001808311610b0157829003601f168201915b50505050509050919050565b80600083604051610b3b919061149b565b90815260200160405180910390206005019081610b5891906116c8565b5081604051610b67919061149b565b60405180910390207f7bf8298c7d1e9fcf619723b05ebea1ce9c8496011bff291ae354a59b120374ba826001604051610ba19291906117b5565b60405180910390a25050565b6060600082604051610bbf919061149b565b90815260200160405180910390206004018054610bdb906114e1565b80601f0160208091040260200160405190810160405280929190818152602001828054610c07906114e1565b8015610c545780601f10610c2957610100808354040283529160200191610c54565b820191906000526020600020905b815481529060010190602001808311610c3757829003601f168201915b50505050509050919050565b6001818051602081018201805184825260208301602085012081835280955050505050506000915090508054610c95906114e1565b80601f0160208091040260200160405190810160405280929190818152602001828054610cc1906114e1565b8015610d0e5780601f10610ce357610100808354040283529160200191610d0e565b820191906000526020600020905b815481529060010190602001808311610cf157829003601f168201915b505050505081565b6060600082604051610d28919061149b565b90815260200160405180910390206005018054610d44906114e1565b80601f0160208091040260200160405190810160405280929190818152602001828054610d70906114e1565b8015610dbd5780601f10610d9257610100808354040283529160200191610dbd565b820191906000526020600020905b815481529060010190602001808311610da057829003601f168201915b50505050509050919050565b6060600082604051610ddb919061149b565b90815260200160405180910390206003018054610df7906114e1565b80601f0160208091040260200160405190810160405280929190818152602001828054610e23906114e1565b8015610e705780601f10610e4557610100808354040283529160200191610e70565b820191906000526020600020905b815481529060010190602001808311610e5357829003601f168201915b50505050509050919050565b80600083604051610e8d919061149b565b90815260200160405180910390206004019081610eaa91906116c8565b5081604051610eb9919061149b565b60405180910390207fae584fab5e8f7cfd659e7b4c2d09184ef8d88c791a136a070039ae4c135b8ec7826001604051610ef39291906117b5565b60405180910390a25050565b6060600082604051610f11919061149b565b90815260200160405180910390206002018054610f2d906114e1565b80601f0160208091040260200160405190810160405280929190818152602001828054610f59906114e1565b8015610fa65780601f10610f7b57610100808354040283529160200191610fa6565b820191906000526020600020905b815481529060010190602001808311610f8957829003601f168201915b50505050509050919050565b6000604051905090565b600080fd5b600080fd5b600080fd5b600080fd5b6000601f19601f8301169050919050565b7f4e487b7100000000000000000000000000000000000000000000000000000000600052604160045260246000fd5b61101982610fd0565b810181811067ffffffffffffffff8211171561103857611037610fe1565b5b80604052505050565b600061104b610fb2565b90506110578282611010565b919050565b600067ffffffffffffffff82111561107757611076610fe1565b5b61108082610fd0565b9050602081019050919050565b82818337600083830152505050565b60006110af6110aa8461105c565b611041565b9050828152602081018484840111156110cb576110ca610fcb565b5b6110d684828561108d565b509392505050565b600082601f8301126110f3576110f2610fc6565b5b813561110384826020860161109c565b91505092915050565b6000806040838503121561112357611122610fbc565b5b600083013567ffffffffffffffff81111561114157611140610fc1565b5b61114d858286016110de565b925050602083013567ffffffffffffffff81111561116e5761116d610fc1565b5b61117a858286016110de565b9150509250929050565b600080600080600080600060e0888a0312156111a3576111a2610fbc565b5b600088013567ffffffffffffffff8111156111c1576111c0610fc1565b5b6111cd8a828b016110de565b975050602088013567ffffffffffffffff8111156111ee576111ed610fc1565b5b6111fa8a828b016110de565b965050604088013567ffffffffffffffff81111561121b5761121a610fc1565b5b6112278a828b016110de565b955050606088013567ffffffffffffffff81111561124857611247610fc1565b5b6112548a828b016110de565b945050608088013567ffffffffffffffff81111561127557611274610fc1565b5b6112818a828b016110de565b93505060a088013567ffffffffffffffff8111156112a2576112a1610fc1565b5b6112ae8a828b016110de565b92505060c088013567ffffffffffffffff8111156112cf576112ce610fc1565b5b6112db8a828b016110de565b91505092959891949750929550565b600060208284031215611300576112ff610fbc565b5b600082013567ffffffffffffffff81111561131e5761131d610fc1565b5b61132a848285016110de565b91505092915050565b600081519050919050565b600082825260208201905092915050565b60005b8381101561136d578082015181840152602081019050611352565b60008484015250505050565b600061138482611333565b61138e818561133e565b935061139e81856020860161134f565b6113a781610fd0565b840191505092915050565b600060c08201905081810360008301526113cc8189611379565b905081810360208301526113e08188611379565b905081810360408301526113f48187611379565b905081810360608301526114088186611379565b9050818103608083015261141c8185611379565b905081810360a08301526114308184611379565b9050979650505050505050565b600060208201905081810360008301526114578184611379565b905092915050565b600081905092915050565b600061147582611333565b61147f818561145f565b935061148f81856020860161134f565b80840191505092915050565b60006114a7828461146a565b915081905092915050565b7f4e487b7100000000000000000000000000000000000000000000000000000000600052602260045260246000fd5b600060028204905060018216806114f957607f821691505b60208210810361150c5761150b6114b2565b5b50919050565b60008190508160005260206000209050919050565b60006020601f8301049050919050565b600082821b905092915050565b6000600883026115747fffffffffffffffffffffffffffffffffffffffffffffffffffffffffffffffff82611537565b61157e8683611537565b95508019841693508086168417925050509392505050565b6000819050919050565b6000819050919050565b60006115c56115c06115bb84611596565b6115a0565b611596565b9050919050565b6000819050919050565b6115df836115aa565b6115f36115eb826115cc565b848454611544565b825550505050565b600090565b6116086115fb565b6116138184846115d6565b505050565b5b818110156116375761162c600082611600565b600181019050611619565b5050565b601f82111561167c5761164d81611512565b61165684611527565b81016020851015611665578190505b61167961167185611527565b830182611618565b50505b505050565b600082821c905092915050565b600061169f60001984600802611681565b1980831691505092915050565b60006116b8838361168e565b9150826002028217905092915050565b6116d182611333565b67ffffffffffffffff8111156116ea576116e9610fe1565b5b6116f482546114e1565b6116ff82828561163b565b600060209050601f8311600181146117325760008415611720578287015190505b61172a85826116ac565b865550611792565b601f19841661174086611512565b60005b8281101561176857848901518255600182019150602085019450602081019050611743565b868310156117855784890151611781601f89168261168e565b8355505b6001600288020188555050505b505050505050565b60008115159050919050565b6117af8161179a565b82525050565b600060408201905081810360008301526117cf8185611379565b90506117de60208301846117a6565b9392505050565b7f50726976617465206b657920616c7265616479206d6170706564000000000000600082015250565b600061181b601a8361133e565b9150611826826117e5565b602082019050919050565b6000602082019050818103600083015261184a8161180e565b9050919050565b7f5573657220616c72656164792065786973747300000000000000000000000000600082015250565b600061188760138361133e565b915061189282611851565b602082019050919050565b600060208201905081810360008301526118b68161187a565b9050919050565b7f50726976617465206b657920616c726561647920696e20757365000000000000600082015250565b60006118f3601a8361133e565b91506118fe826118bd565b602082019050919050565b60006020820190508181036000830152611922816118e6565b905091905056fea26469706673582212205fab39e13ee6da70f124bfa36f9a683f46adf0afe2560fbe04c4547b5b9c277564736f6c63430008110033",
  "immutableReferences": {},
  "source": "// SPDX-License-Identifier: MIT\r\npragma solidity ^0.8.0;\r\n\r\ncontract UserRegistry {\r\n    struct User {\r\n        string userAddress; // Change the data type from address to string\r\n        string email;\r\n        string username;\r\n        string contact;\r\n        string dob;\r\n        string cid;\r\n    }\r\n\r\n    mapping(string => User) public users; // Change the mapping key to string\r\n    mapping(string => string) public privateKeyToPublicKey;\r\n\r\n    event UsernameUpdated(string indexed userAddress, string newUsername, bool success);\r\n    event EmailUpdated(string indexed userAddress, string newEmail, bool success);\r\n    event DOBUpdated(string indexed userAddress, string newDOB, bool success);\r\n    event ContactUpdated(string indexed userAddress, string newContact, bool success);\r\n    event CidUpdated(string indexed userAddress, string newCid, bool success);\r\n    \r\n    \r\n    function createUser(\r\n        string memory _userAddress,\r\n        string memory _email,\r\n        string memory _username,\r\n        string memory _contact,\r\n        string memory _dob,\r\n        string memory _privateKey,\r\n        string memory _cid\r\n    ) public {\r\n        require(bytes(users[_userAddress].userAddress).length == 0, \"User already exists\");\r\n        require(bytes(privateKeyToPublicKey[_privateKey]).length == 0, \"Private key already in use\");\r\n\r\n        User memory newUser = User({\r\n            userAddress: _userAddress,\r\n            email: _email,\r\n            username: _username,\r\n            contact: _contact,\r\n            dob: _dob,\r\n            cid: _cid\r\n        });\r\n\r\n        users[_userAddress] = newUser;\r\n        mapPrivateKeyToPublicKey(_privateKey, _userAddress);\r\n    }\r\n\r\n    function mapPrivateKeyToPublicKey(\r\n        string memory _privateKey,\r\n        string memory _userAddress\r\n    ) public {\r\n        require(bytes(privateKeyToPublicKey[_privateKey]).length == 0, \"Private key already mapped\");\r\n        privateKeyToPublicKey[_privateKey] = _userAddress;\r\n    }\r\n\r\n    function getUsernameByAddress(\r\n        string memory _userAddress\r\n    ) public view returns (string memory) {\r\n        return users[_userAddress].username;\r\n    }\r\n\r\n    function updateUsername(\r\n        string memory _userAddress,\r\n        string memory _newUsername\r\n    ) public {\r\n        users[_userAddress].username = _newUsername;\r\n        emit UsernameUpdated(_userAddress, _newUsername, true);\r\n    }\r\n\r\n    // get the cid for the user\r\n    function getCidByAddress(string memory _userAddress) public view returns (string memory) {\r\n        return users[_userAddress].cid;\r\n    }\r\n\r\n    // function to update the cid of the user with new cid\r\n    function updateCid(string memory _userAddress, string memory _newCid) public {\r\n        users[_userAddress].cid = _newCid;\r\n        // emit a event to retify the correction of the update of the cid\r\n        emit CidUpdated(_userAddress, _newCid, true);\r\n    }\r\n\r\n    function getEmailByAddress(\r\n        string memory _userAddress\r\n    ) public view returns (string memory) {\r\n        return users[_userAddress].email;\r\n    }\r\n\r\n    function updateEmail(string memory _userAddress, string memory _newEmail) public {\r\n        users[_userAddress].email = _newEmail;\r\n        emit EmailUpdated(_userAddress, _newEmail, true);\r\n    }\r\n\r\n    function getDOBByAddress(\r\n        string memory _userAddress\r\n    ) public view returns (string memory) {\r\n        return users[_userAddress].dob;\r\n    }\r\n\r\n    function updateDOB(string memory _userAddress, string memory _newDOB) public {\r\n        users[_userAddress].dob = _newDOB;\r\n        emit DOBUpdated(_userAddress, _newDOB, true);\r\n    }\r\n\r\n    function getContactByAddress(\r\n        string memory _userAddress\r\n    ) public view returns (string memory) {\r\n        return users[_userAddress].contact;\r\n    }\r\n\r\n    function updateContact(\r\n        string memory _userAddress,\r\n        string memory _newContact\r\n    ) public {\r\n        users[_userAddress].contact = _newContact;\r\n        emit ContactUpdated(_userAddress, _newContact, true);\r\n    }\r\n}\r\n",
  "sourcePath": "C:\\Users\\abc\\Documents\\GitHub\\Web3\\DecentralizedIdentity\\contracts\\Interface.sol",
  "compiler": {
    "name": "solc",
    "version": "0.8.17+commit.8df45f5f.Emscripten.clang"
  },
  "schemaVersion": "3.4.16",
  "updatedAt": "2024-04-03T04:44:43.550Z",
  "networkType": "ethereum",
  "devdoc": {
    "kind": "dev",
    "methods": {},
    "version": 1
  },
  "userdoc": {
    "kind": "user",
    "methods": {},
    "version": 1
  }
}