{
  "contractName": "UserRegistry",
  "abi": [
    {
      "anonymous": false,
      "inputs": [
        {
          "indexed": true,
          "internalType": "string",
          "name": "userAddress",
          "type": "string"
        },
        {
          "indexed": false,
          "internalType": "string",
          "name": "newContact",
          "type": "string"
        },
        {
          "indexed": false,
          "internalType": "bool",
          "name": "success",
          "type": "bool"
        }
      ],
      "name": "ContactUpdated",
      "type": "event"
    },
    {
      "anonymous": false,
      "inputs": [
        {
          "indexed": true,
          "internalType": "string",
          "name": "userAddress",
          "type": "string"
        },
        {
          "indexed": false,
          "internalType": "string",
          "name": "newDOB",
          "type": "string"
        },
        {
          "indexed": false,
          "internalType": "bool",
          "name": "success",
          "type": "bool"
        }
      ],
      "name": "DOBUpdated",
      "type": "event"
    },
    {
      "anonymous": false,
      "inputs": [
        {
          "indexed": true,
          "internalType": "string",
          "name": "userAddress",
          "type": "string"
        },
        {
          "indexed": false,
          "internalType": "string",
          "name": "newEmail",
          "type": "string"
        },
        {
          "indexed": false,
          "internalType": "bool",
          "name": "success",
          "type": "bool"
        }
      ],
      "name": "EmailUpdated",
      "type": "event"
    },
    {
      "anonymous": false,
      "inputs": [
        {
          "indexed": true,
          "internalType": "string",
          "name": "userAddress",
          "type": "string"
        },
        {
          "indexed": false,
          "internalType": "string",
          "name": "newUsername",
          "type": "string"
        },
        {
          "indexed": false,
          "internalType": "bool",
          "name": "success",
          "type": "bool"
        }
      ],
      "name": "UsernameUpdated",
      "type": "event"
    },
    {
      "inputs": [
        {
          "internalType": "string",
          "name": "",
          "type": "string"
        }
      ],
      "name": "privateKeyToPublicKey",
      "outputs": [
        {
          "internalType": "string",
          "name": "",
          "type": "string"
        }
      ],
      "stateMutability": "view",
      "type": "function",
      "constant": true
    },
    {
      "inputs": [
        {
          "internalType": "string",
          "name": "",
          "type": "string"
        }
      ],
      "name": "users",
      "outputs": [
        {
          "internalType": "string",
          "name": "userAddress",
          "type": "string"
        },
        {
          "internalType": "string",
          "name": "email",
          "type": "string"
        },
        {
          "internalType": "string",
          "name": "username",
          "type": "string"
        },
        {
          "internalType": "string",
          "name": "contact",
          "type": "string"
        },
        {
          "internalType": "string",
          "name": "dob",
          "type": "string"
        }
      ],
      "stateMutability": "view",
      "type": "function",
      "constant": true
    },
    {
      "inputs": [
        {
          "internalType": "string",
          "name": "_userAddress",
          "type": "string"
        },
        {
          "internalType": "string",
          "name": "_email",
          "type": "string"
        },
        {
          "internalType": "string",
          "name": "_username",
          "type": "string"
        },
        {
          "internalType": "string",
          "name": "_contact",
          "type": "string"
        },
        {
          "internalType": "string",
          "name": "_dob",
          "type": "string"
        },
        {
          "internalType": "string",
          "name": "_privateKey",
          "type": "string"
        }
      ],
      "name": "createUser",
      "outputs": [],
      "stateMutability": "nonpayable",
      "type": "function"
    },
    {
      "inputs": [
        {
          "internalType": "string",
          "name": "_privateKey",
          "type": "string"
        },
        {
          "internalType": "string",
          "name": "_userAddress",
          "type": "string"
        }
      ],
      "name": "mapPrivateKeyToPublicKey",
      "outputs": [],
      "stateMutability": "nonpayable",
      "type": "function"
    },
    {
      "inputs": [
        {
          "internalType": "string",
          "name": "_userAddress",
          "type": "string"
        }
      ],
      "name": "getUsernameByAddress",
      "outputs": [
        {
          "internalType": "string",
          "name": "",
          "type": "string"
        }
      ],
      "stateMutability": "view",
      "type": "function",
      "constant": true
    },
    {
      "inputs": [
        {
          "internalType": "string",
          "name": "_userAddress",
          "type": "string"
        },
        {
          "internalType": "string",
          "name": "_newUsername",
          "type": "string"
        }
      ],
      "name": "updateUsername",
      "outputs": [],
      "stateMutability": "nonpayable",
      "type": "function"
    },
    {
      "inputs": [
        {
          "internalType": "string",
          "name": "_userAddress",
          "type": "string"
        }
      ],
      "name": "getEmailByAddress",
      "outputs": [
        {
          "internalType": "string",
          "name": "",
          "type": "string"
        }
      ],
      "stateMutability": "view",
      "type": "function",
      "constant": true
    },
    {
      "inputs": [
        {
          "internalType": "string",
          "name": "_userAddress",
          "type": "string"
        },
        {
          "internalType": "string",
          "name": "_newEmail",
          "type": "string"
        }
      ],
      "name": "updateEmail",
      "outputs": [],
      "stateMutability": "nonpayable",
      "type": "function"
    },
    {
      "inputs": [
        {
          "internalType": "string",
          "name": "_userAddress",
          "type": "string"
        }
      ],
      "name": "getDOBByAddress",
      "outputs": [
        {
          "internalType": "string",
          "name": "",
          "type": "string"
        }
      ],
      "stateMutability": "view",
      "type": "function",
      "constant": true
    },
    {
      "inputs": [
        {
          "internalType": "string",
          "name": "_userAddress",
          "type": "string"
        },
        {
          "internalType": "string",
          "name": "_newDOB",
          "type": "string"
        }
      ],
      "name": "updateDOB",
      "outputs": [],
      "stateMutability": "nonpayable",
      "type": "function"
    },
    {
      "inputs": [
        {
          "internalType": "string",
          "name": "_userAddress",
          "type": "string"
        }
      ],
      "name": "getContactByAddress",
      "outputs": [
        {
          "internalType": "string",
          "name": "",
          "type": "string"
        }
      ],
      "stateMutability": "view",
      "type": "function",
      "constant": true
    },
    {
      "inputs": [
        {
          "internalType": "string",
          "name": "_userAddress",
          "type": "string"
        },
        {
          "internalType": "string",
          "name": "_newContact",
          "type": "string"
        }
      ],
      "name": "updateContact",
      "outputs": [],
      "stateMutability": "nonpayable",
      "type": "function"
    }
  ],
  "bytecode": "0x608060405234801561001057600080fd5b506116b5806100206000396000f3fe608060405234801561001057600080fd5b50600436106100b45760003560e01c80638c9a2e92116100715780638c9a2e9214610179578063beb8727f146101a9578063bf501844146101d9578063ccca8f2214610209578063ee7476d514610239578063f7ffd62514610255576100b4565b806301dadb2b146100b95780630d60fafd146100d557806327897557146100f15780635a7fb9d71461010d578063689e1c0314610129578063892d069c1461015d575b600080fd5b6100d360048036038101906100ce9190610ea8565b610285565b005b6100ef60048036038101906100ea9190610fdd565b61042f565b005b61010b60048036038101906101069190610fdd565b6104b2565b005b61012760048036038101906101229190610fdd565b610535565b005b610143600480360381019061013e9190611055565b6105d2565b60405161015495949392919061111d565b60405180910390f35b61017760048036038101906101729190610fdd565b6108c6565b005b610193600480360381019061018e9190611055565b610949565b6040516101a09190611193565b60405180910390f35b6101c360048036038101906101be9190611055565b6109fc565b6040516101d09190611193565b60405180910390f35b6101f360048036038101906101ee9190611055565b610aaf565b6040516102009190611193565b60405180910390f35b610223600480360381019061021e9190611055565b610b65565b6040516102309190611193565b60405180910390f35b610253600480360381019061024e9190610fdd565b610c18565b005b61026f600480360381019061026a9190611055565b610c9b565b60405161027c9190611193565b60405180910390f35b6000808760405161029691906111f1565b908152602001604051809103902060000180546102b290611237565b9050146102f4576040517f08c379a00000000000000000000000000000000000000000000000000000000081526004016102eb906112b4565b60405180910390fd5b600060018260405161030691906111f1565b9081526020016040518091039020805461031f90611237565b905014610361576040517f08c379a000000000000000000000000000000000000000000000000000000000815260040161035890611320565b60405180910390fd5b60006040518060a001604052808881526020018781526020018681526020018581526020018481525090508060008860405161039d91906111f1565b908152602001604051809103902060008201518160000190816103c091906114f6565b5060208201518160010190816103d691906114f6565b5060408201518160020190816103ec91906114f6565b50606082015181600301908161040291906114f6565b50608082015181600401908161041891906114f6565b509050506104268288610535565b50505050505050565b8060008360405161044091906111f1565b9081526020016040518091039020600301908161045d91906114f6565b508160405161046c91906111f1565b60405180910390207fa44feca31ca2b9cda9b6dec473fbbc131c350db90a2f95915bcd051cdc5e10ba8260016040516104a69291906115e3565b60405180910390a25050565b806000836040516104c391906111f1565b908152602001604051809103902060010190816104e091906114f6565b50816040516104ef91906111f1565b60405180910390207fa76f1708714ecb5aed9ae4c006eafbf67941b726bb287f861c599f2286fdf7788260016040516105299291906115e3565b60405180910390a25050565b600060018360405161054791906111f1565b9081526020016040518091039020805461056090611237565b9050146105a2576040517f08c379a00000000000000000000000000000000000000000000000000000000081526004016105999061165f565b60405180910390fd5b806001836040516105b391906111f1565b908152602001604051809103902090816105cd91906114f6565b505050565b60008180516020810182018051848252602083016020850120818352809550505050505060009150905080600001805461060b90611237565b80601f016020809104026020016040519081016040528092919081815260200182805461063790611237565b80156106845780601f1061065957610100808354040283529160200191610684565b820191906000526020600020905b81548152906001019060200180831161066757829003601f168201915b50505050509080600101805461069990611237565b80601f01602080910402602001604051908101604052809291908181526020018280546106c590611237565b80156107125780601f106106e757610100808354040283529160200191610712565b820191906000526020600020905b8154815290600101906020018083116106f557829003601f168201915b50505050509080600201805461072790611237565b80601f016020809104026020016040519081016040528092919081815260200182805461075390611237565b80156107a05780601f10610775576101008083540402835291602001916107a0565b820191906000526020600020905b81548152906001019060200180831161078357829003601f168201915b5050505050908060030180546107b590611237565b80601f01602080910402602001604051908101604052809291908181526020018280546107e190611237565b801561082e5780601f106108035761010080835404028352916020019161082e565b820191906000526020600020905b81548152906001019060200180831161081157829003601f168201915b50505050509080600401805461084390611237565b80601f016020809104026020016040519081016040528092919081815260200182805461086f90611237565b80156108bc5780601f10610891576101008083540402835291602001916108bc565b820191906000526020600020905b81548152906001019060200180831161089f57829003601f168201915b5050505050905085565b806000836040516108d791906111f1565b908152602001604051809103902060020190816108f491906114f6565b508160405161090391906111f1565b60405180910390207f480bdec02bf73c6c075a8db62d725863401ec6d719a3ff0c25b87ac13569c5f282600160405161093d9291906115e3565b60405180910390a25050565b606060008260405161095b91906111f1565b9081526020016040518091039020600101805461097790611237565b80601f01602080910402602001604051908101604052809291908181526020018280546109a390611237565b80156109f05780601f106109c5576101008083540402835291602001916109f0565b820191906000526020600020905b8154815290600101906020018083116109d357829003601f168201915b50505050509050919050565b6060600082604051610a0e91906111f1565b90815260200160405180910390206004018054610a2a90611237565b80601f0160208091040260200160405190810160405280929190818152602001828054610a5690611237565b8015610aa35780601f10610a7857610100808354040283529160200191610aa3565b820191906000526020600020905b815481529060010190602001808311610a8657829003601f168201915b50505050509050919050565b6001818051602081018201805184825260208301602085012081835280955050505050506000915090508054610ae490611237565b80601f0160208091040260200160405190810160405280929190818152602001828054610b1090611237565b8015610b5d5780601f10610b3257610100808354040283529160200191610b5d565b820191906000526020600020905b815481529060010190602001808311610b4057829003601f168201915b505050505081565b6060600082604051610b7791906111f1565b90815260200160405180910390206003018054610b9390611237565b80601f0160208091040260200160405190810160405280929190818152602001828054610bbf90611237565b8015610c0c5780601f10610be157610100808354040283529160200191610c0c565b820191906000526020600020905b815481529060010190602001808311610bef57829003601f168201915b50505050509050919050565b80600083604051610c2991906111f1565b90815260200160405180910390206004019081610c4691906114f6565b5081604051610c5591906111f1565b60405180910390207fae584fab5e8f7cfd659e7b4c2d09184ef8d88c791a136a070039ae4c135b8ec7826001604051610c8f9291906115e3565b60405180910390a25050565b6060600082604051610cad91906111f1565b90815260200160405180910390206002018054610cc990611237565b80601f0160208091040260200160405190810160405280929190818152602001828054610cf590611237565b8015610d425780601f10610d1757610100808354040283529160200191610d42565b820191906000526020600020905b815481529060010190602001808311610d2557829003601f168201915b50505050509050919050565b6000604051905090565b600080fd5b600080fd5b600080fd5b600080fd5b6000601f19601f8301169050919050565b7f4e487b7100000000000000000000000000000000000000000000000000000000600052604160045260246000fd5b610db582610d6c565b810181811067ffffffffffffffff82111715610dd457610dd3610d7d565b5b80604052505050565b6000610de7610d4e565b9050610df38282610dac565b919050565b600067ffffffffffffffff821115610e1357610e12610d7d565b5b610e1c82610d6c565b9050602081019050919050565b82818337600083830152505050565b6000610e4b610e4684610df8565b610ddd565b905082815260208101848484011115610e6757610e66610d67565b5b610e72848285610e29565b509392505050565b600082601f830112610e8f57610e8e610d62565b5b8135610e9f848260208601610e38565b91505092915050565b60008060008060008060c08789031215610ec557610ec4610d58565b5b600087013567ffffffffffffffff811115610ee357610ee2610d5d565b5b610eef89828a01610e7a565b965050602087013567ffffffffffffffff811115610f1057610f0f610d5d565b5b610f1c89828a01610e7a565b955050604087013567ffffffffffffffff811115610f3d57610f3c610d5d565b5b610f4989828a01610e7a565b945050606087013567ffffffffffffffff811115610f6a57610f69610d5d565b5b610f7689828a01610e7a565b935050608087013567ffffffffffffffff811115610f9757610f96610d5d565b5b610fa389828a01610e7a565b92505060a087013567ffffffffffffffff811115610fc457610fc3610d5d565b5b610fd089828a01610e7a565b9150509295509295509295565b60008060408385031215610ff457610ff3610d58565b5b600083013567ffffffffffffffff81111561101257611011610d5d565b5b61101e85828601610e7a565b925050602083013567ffffffffffffffff81111561103f5761103e610d5d565b5b61104b85828601610e7a565b9150509250929050565b60006020828403121561106b5761106a610d58565b5b600082013567ffffffffffffffff81111561108957611088610d5d565b5b61109584828501610e7a565b91505092915050565b600081519050919050565b600082825260208201905092915050565b60005b838110156110d85780820151818401526020810190506110bd565b60008484015250505050565b60006110ef8261109e565b6110f981856110a9565b93506111098185602086016110ba565b61111281610d6c565b840191505092915050565b600060a082019050818103600083015261113781886110e4565b9050818103602083015261114b81876110e4565b9050818103604083015261115f81866110e4565b9050818103606083015261117381856110e4565b9050818103608083015261118781846110e4565b90509695505050505050565b600060208201905081810360008301526111ad81846110e4565b905092915050565b600081905092915050565b60006111cb8261109e565b6111d581856111b5565b93506111e58185602086016110ba565b80840191505092915050565b60006111fd82846111c0565b915081905092915050565b7f4e487b7100000000000000000000000000000000000000000000000000000000600052602260045260246000fd5b6000600282049050600182168061124f57607f821691505b60208210810361126257611261611208565b5b50919050565b7f5573657220616c72656164792065786973747300000000000000000000000000600082015250565b600061129e6013836110a9565b91506112a982611268565b602082019050919050565b600060208201905081810360008301526112cd81611291565b9050919050565b7f50726976617465206b657920616c726561647920696e20757365000000000000600082015250565b600061130a601a836110a9565b9150611315826112d4565b602082019050919050565b60006020820190508181036000830152611339816112fd565b9050919050565b60008190508160005260206000209050919050565b60006020601f8301049050919050565b600082821b905092915050565b6000600883026113a27fffffffffffffffffffffffffffffffffffffffffffffffffffffffffffffffff82611365565b6113ac8683611365565b95508019841693508086168417925050509392505050565b6000819050919050565b6000819050919050565b60006113f36113ee6113e9846113c4565b6113ce565b6113c4565b9050919050565b6000819050919050565b61140d836113d8565b611421611419826113fa565b848454611372565b825550505050565b600090565b611436611429565b611441818484611404565b505050565b5b818110156114655761145a60008261142e565b600181019050611447565b5050565b601f8211156114aa5761147b81611340565b61148484611355565b81016020851015611493578190505b6114a761149f85611355565b830182611446565b50505b505050565b600082821c905092915050565b60006114cd600019846008026114af565b1980831691505092915050565b60006114e683836114bc565b9150826002028217905092915050565b6114ff8261109e565b67ffffffffffffffff81111561151857611517610d7d565b5b6115228254611237565b61152d828285611469565b600060209050601f831160018114611560576000841561154e578287015190505b61155885826114da565b8655506115c0565b601f19841661156e86611340565b60005b8281101561159657848901518255600182019150602085019450602081019050611571565b868310156115b357848901516115af601f8916826114bc565b8355505b6001600288020188555050505b505050505050565b60008115159050919050565b6115dd816115c8565b82525050565b600060408201905081810360008301526115fd81856110e4565b905061160c60208301846115d4565b9392505050565b7f50726976617465206b657920616c7265616479206d6170706564000000000000600082015250565b6000611649601a836110a9565b915061165482611613565b602082019050919050565b600060208201905081810360008301526116788161163c565b905091905056fea2646970667358221220fb04ff04aee9b47d8d3392ef4915c3b54c3e6da9dfbaf1d5219067034632d7fd64736f6c63430008110033",
  "immutableReferences": {},
  "source": "// SPDX-License-Identifier: MIT\r\npragma solidity ^0.8.0;\r\n\r\ncontract UserRegistry {\r\n    struct User {\r\n        string userAddress; // Change the data type from address to string\r\n        string email;\r\n        string username;\r\n        string contact;\r\n        string dob;\r\n    }\r\n\r\n    mapping(string => User) public users; // Change the mapping key to string\r\n    mapping(string => string) public privateKeyToPublicKey;\r\n\r\n    event UsernameUpdated(string indexed userAddress, string newUsername, bool success);\r\n    event EmailUpdated(string indexed userAddress, string newEmail, bool success);\r\n    event DOBUpdated(string indexed userAddress, string newDOB, bool success);\r\n    event ContactUpdated(string indexed userAddress, string newContact, bool success);\r\n\r\n    function createUser(\r\n        string memory _userAddress,\r\n        string memory _email,\r\n        string memory _username,\r\n        string memory _contact,\r\n        string memory _dob,\r\n        string memory _privateKey\r\n    ) public {\r\n        require(bytes(users[_userAddress].userAddress).length == 0, \"User already exists\");\r\n        require(bytes(privateKeyToPublicKey[_privateKey]).length == 0, \"Private key already in use\");\r\n\r\n        User memory newUser = User({\r\n            userAddress: _userAddress,\r\n            email: _email,\r\n            username: _username,\r\n            contact: _contact,\r\n            dob: _dob\r\n        });\r\n\r\n        users[_userAddress] = newUser;\r\n        mapPrivateKeyToPublicKey(_privateKey, _userAddress);\r\n    }\r\n\r\n    function mapPrivateKeyToPublicKey(\r\n        string memory _privateKey,\r\n        string memory _userAddress\r\n    ) public {\r\n        require(bytes(privateKeyToPublicKey[_privateKey]).length == 0, \"Private key already mapped\");\r\n        privateKeyToPublicKey[_privateKey] = _userAddress;\r\n    }\r\n\r\n    function getUsernameByAddress(\r\n        string memory _userAddress\r\n    ) public view returns (string memory) {\r\n        return users[_userAddress].username;\r\n    }\r\n\r\n    function updateUsername(\r\n        string memory _userAddress,\r\n        string memory _newUsername\r\n    ) public {\r\n        users[_userAddress].username = _newUsername;\r\n        emit UsernameUpdated(_userAddress, _newUsername, true);\r\n    }\r\n\r\n    function getEmailByAddress(\r\n        string memory _userAddress\r\n    ) public view returns (string memory) {\r\n        return users[_userAddress].email;\r\n    }\r\n\r\n    function updateEmail(string memory _userAddress, string memory _newEmail) public {\r\n        users[_userAddress].email = _newEmail;\r\n        emit EmailUpdated(_userAddress, _newEmail, true);\r\n    }\r\n\r\n    function getDOBByAddress(\r\n        string memory _userAddress\r\n    ) public view returns (string memory) {\r\n        return users[_userAddress].dob;\r\n    }\r\n\r\n    function updateDOB(string memory _userAddress, string memory _newDOB) public {\r\n        users[_userAddress].dob = _newDOB;\r\n        emit DOBUpdated(_userAddress, _newDOB, true);\r\n    }\r\n\r\n    function getContactByAddress(\r\n        string memory _userAddress\r\n    ) public view returns (string memory) {\r\n        return users[_userAddress].contact;\r\n    }\r\n\r\n    function updateContact(\r\n        string memory _userAddress,\r\n        string memory _newContact\r\n    ) public {\r\n        users[_userAddress].contact = _newContact;\r\n        emit ContactUpdated(_userAddress, _newContact, true);\r\n    }\r\n}\r\n",
  "sourcePath": "C:\\Users\\abc\\Documents\\GitHub\\Web3\\DecentralizedIdentity\\contracts\\Interface.sol",
  "compiler": {
    "name": "solc",
    "version": "0.8.17+commit.8df45f5f.Emscripten.clang"
  },
  "schemaVersion": "3.4.16",
  "updatedAt": "2024-03-25T12:13:12.876Z",
  "networkType": "ethereum",
  "devdoc": {
    "kind": "dev",
    "methods": {},
    "version": 1
  },
  "userdoc": {
    "kind": "user",
    "methods": {},
    "version": 1
  }
}