{
	"Python/Contracts/VotingRegistration.sol": {
		"Voting": {
			"abi": [
				{
					"anonymous": false,
					"inputs": [
						{
							"indexed": true,
							"internalType": "address",
							"name": "userAddress",
							"type": "address"
						},
						{
							"indexed": false,
							"internalType": "bool",
							"name": "isRegistered",
							"type": "bool"
						}
					],
					"name": "RegistrationStatusFinalStatus",
					"type": "event"
				},
				{
					"anonymous": false,
					"inputs": [
						{
							"indexed": true,
							"internalType": "address",
							"name": "userAddress",
							"type": "address"
						},
						{
							"indexed": false,
							"internalType": "bool",
							"name": "isRegistered",
							"type": "bool"
						}
					],
					"name": "RegistrationStatusInitialStatus",
					"type": "event"
				},
				{
					"anonymous": false,
					"inputs": [
						{
							"indexed": true,
							"internalType": "address",
							"name": "userAddress",
							"type": "address"
						},
						{
							"indexed": false,
							"internalType": "string",
							"name": "name",
							"type": "string"
						},
						{
							"indexed": false,
							"internalType": "string",
							"name": "email",
							"type": "string"
						},
						{
							"indexed": false,
							"internalType": "string",
							"name": "phoneNumber",
							"type": "string"
						},
						{
							"indexed": false,
							"internalType": "string",
							"name": "dob",
							"type": "string"
						}
					],
					"name": "SuccessfulLogin",
					"type": "event"
				},
				{
					"anonymous": false,
					"inputs": [
						{
							"indexed": true,
							"internalType": "address",
							"name": "userAddress",
							"type": "address"
						},
						{
							"indexed": false,
							"internalType": "bool",
							"name": "loginSuccess",
							"type": "bool"
						}
					],
					"name": "UserLoginAttempt",
					"type": "event"
				},
				{
					"anonymous": false,
					"inputs": [
						{
							"indexed": true,
							"internalType": "string",
							"name": "username",
							"type": "string"
						}
					],
					"name": "UserPasswordSet",
					"type": "event"
				},
				{
					"anonymous": false,
					"inputs": [
						{
							"indexed": true,
							"internalType": "address",
							"name": "userAddress",
							"type": "address"
						},
						{
							"indexed": false,
							"internalType": "string",
							"name": "name",
							"type": "string"
						},
						{
							"indexed": false,
							"internalType": "string",
							"name": "email",
							"type": "string"
						}
					],
					"name": "UserRegistered",
					"type": "event"
				},
				{
					"inputs": [
						{
							"internalType": "string",
							"name": "_username",
							"type": "string"
						}
					],
					"name": "getUserPassword",
					"outputs": [
						{
							"internalType": "bytes32",
							"name": "",
							"type": "bytes32"
						}
					],
					"stateMutability": "view",
					"type": "function"
				},
				{
					"inputs": [
						{
							"internalType": "string",
							"name": "_password",
							"type": "string"
						}
					],
					"name": "loginUser",
					"outputs": [
						{
							"internalType": "string",
							"name": "",
							"type": "string"
						}
					],
					"stateMutability": "nonpayable",
					"type": "function"
				},
				{
					"inputs": [
						{
							"internalType": "string",
							"name": "_name",
							"type": "string"
						},
						{
							"internalType": "string",
							"name": "_email",
							"type": "string"
						},
						{
							"internalType": "string",
							"name": "_phoneNumber",
							"type": "string"
						},
						{
							"internalType": "string",
							"name": "_dob",
							"type": "string"
						}
					],
					"name": "registerUser",
					"outputs": [],
					"stateMutability": "nonpayable",
					"type": "function"
				},
				{
					"inputs": [
						{
							"internalType": "string",
							"name": "_password",
							"type": "string"
						}
					],
					"name": "setUserPassword",
					"outputs": [],
					"stateMutability": "nonpayable",
					"type": "function"
				},
				{
					"inputs": [
						{
							"internalType": "string",
							"name": "",
							"type": "string"
						}
					],
					"name": "userPasswords",
					"outputs": [
						{
							"internalType": "bytes32",
							"name": "",
							"type": "bytes32"
						}
					],
					"stateMutability": "view",
					"type": "function"
				},
				{
					"inputs": [
						{
							"internalType": "address",
							"name": "",
							"type": "address"
						}
					],
					"name": "users",
					"outputs": [
						{
							"internalType": "string",
							"name": "name",
							"type": "string"
						},
						{
							"internalType": "string",
							"name": "email",
							"type": "string"
						},
						{
							"internalType": "string",
							"name": "phoneNumber",
							"type": "string"
						},
						{
							"internalType": "string",
							"name": "dob",
							"type": "string"
						}
					],
					"stateMutability": "view",
					"type": "function"
				}
			],
			"devdoc": {
				"kind": "dev",
				"methods": {},
				"version": 1
			},
			"evm": {
				"assembly": "    /* \"Python/Contracts/VotingRegistration.sol\":58:3568  contract Voting {... */\n  mstore(0x40, 0x80)\n  callvalue\n  dup1\n  iszero\n  tag_1\n  jumpi\n  0x00\n  dup1\n  revert\ntag_1:\n  pop\n  dataSize(sub_0)\n  dup1\n  dataOffset(sub_0)\n  0x00\n  codecopy\n  0x00\n  return\nstop\n\nsub_0: assembly {\n        /* \"Python/Contracts/VotingRegistration.sol\":58:3568  contract Voting {... */\n      mstore(0x40, 0x80)\n      callvalue\n      dup1\n      iszero\n      tag_1\n      jumpi\n      0x00\n      dup1\n      revert\n    tag_1:\n      pop\n      jumpi(tag_2, lt(calldatasize, 0x04))\n      shr(0xe0, calldataload(0x00))\n      dup1\n      0x1c14ce5e\n      eq\n      tag_3\n      jumpi\n      dup1\n      0x93e54a56\n      eq\n      tag_4\n      jumpi\n      dup1\n      0xa87430ba\n      eq\n      tag_5\n      jumpi\n      dup1\n      0xbcf26770\n      eq\n      tag_6\n      jumpi\n      dup1\n      0xc9ae6b01\n      eq\n      tag_7\n      jumpi\n      dup1\n      0xd6098ed6\n      eq\n      tag_8\n      jumpi\n    tag_2:\n      0x00\n      dup1\n      revert\n        /* \"Python/Contracts/VotingRegistration.sol\":2567:3565  function loginUser(string memory _password) public returns (string memory) {... */\n    tag_3:\n      tag_9\n      0x04\n      dup1\n      calldatasize\n      sub\n      dup2\n      add\n      swap1\n      tag_10\n      swap2\n      swap1\n      tag_11\n      jump\t// in\n    tag_10:\n      tag_12\n      jump\t// in\n    tag_9:\n      mload(0x40)\n      tag_13\n      swap2\n      swap1\n      tag_14\n      jump\t// in\n    tag_13:\n      mload(0x40)\n      dup1\n      swap2\n      sub\n      swap1\n      return\n        /* \"Python/Contracts/VotingRegistration.sol\":1059:1709  function registerUser(... */\n    tag_4:\n      tag_15\n      0x04\n      dup1\n      calldatasize\n      sub\n      dup2\n      add\n      swap1\n      tag_16\n      swap2\n      swap1\n      tag_17\n      jump\t// in\n    tag_16:\n      tag_18\n      jump\t// in\n    tag_15:\n      stop\n        /* \"Python/Contracts/VotingRegistration.sol\":204:241  mapping(address => User) public users */\n    tag_5:\n      tag_19\n      0x04\n      dup1\n      calldatasize\n      sub\n      dup2\n      add\n      swap1\n      tag_20\n      swap2\n      swap1\n      tag_21\n      jump\t// in\n    tag_20:\n      tag_22\n      jump\t// in\n    tag_19:\n      mload(0x40)\n      tag_23\n      swap5\n      swap4\n      swap3\n      swap2\n      swap1\n      tag_24\n      jump\t// in\n    tag_23:\n      mload(0x40)\n      dup1\n      swap2\n      sub\n      swap1\n      return\n        /* \"Python/Contracts/VotingRegistration.sol\":306:353  mapping(string => bytes32) public userPasswords */\n    tag_6:\n      tag_25\n      0x04\n      dup1\n      calldatasize\n      sub\n      dup2\n      add\n      swap1\n      tag_26\n      swap2\n      swap1\n      tag_11\n      jump\t// in\n    tag_26:\n      tag_27\n      jump\t// in\n    tag_25:\n      mload(0x40)\n      tag_28\n      swap2\n      swap1\n      tag_29\n      jump\t// in\n    tag_28:\n      mload(0x40)\n      dup1\n      swap2\n      sub\n      swap1\n      return\n        /* \"Python/Contracts/VotingRegistration.sol\":2429:2559  function getUserPassword(string memory _username) public view returns (bytes32) {... */\n    tag_7:\n      tag_30\n      0x04\n      dup1\n      calldatasize\n      sub\n      dup2\n      add\n      swap1\n      tag_31\n      swap2\n      swap1\n      tag_11\n      jump\t// in\n    tag_31:\n      tag_32\n      jump\t// in\n    tag_30:\n      mload(0x40)\n      tag_33\n      swap2\n      swap1\n      tag_29\n      jump\t// in\n    tag_33:\n      mload(0x40)\n      dup1\n      swap2\n      sub\n      swap1\n      return\n        /* \"Python/Contracts/VotingRegistration.sol\":1717:2419  function setUserPassword(string memory _password) public {... */\n    tag_8:\n      tag_34\n      0x04\n      dup1\n      calldatasize\n      sub\n      dup2\n      add\n      swap1\n      tag_35\n      swap2\n      swap1\n      tag_11\n      jump\t// in\n    tag_35:\n      tag_36\n      jump\t// in\n    tag_34:\n      stop\n        /* \"Python/Contracts/VotingRegistration.sol\":2567:3565  function loginUser(string memory _password) public returns (string memory) {... */\n    tag_12:\n        /* \"Python/Contracts/VotingRegistration.sol\":2627:2640  string memory */\n      0x60\n        /* \"Python/Contracts/VotingRegistration.sol\":2729:2751  bytes32 storedPassword */\n      0x00\n        /* \"Python/Contracts/VotingRegistration.sol\":2754:2793  getUserPassword(users[msg.sender].name) */\n      tag_38\n        /* \"Python/Contracts/VotingRegistration.sol\":2770:2775  users */\n      0x00\n        /* \"Python/Contracts/VotingRegistration.sol\":2770:2787  users[msg.sender] */\n      dup1\n        /* \"Python/Contracts/VotingRegistration.sol\":2776:2786  msg.sender */\n      caller\n        /* \"Python/Contracts/VotingRegistration.sol\":2770:2787  users[msg.sender] */\n      0xffffffffffffffffffffffffffffffffffffffff\n      and\n      0xffffffffffffffffffffffffffffffffffffffff\n      and\n      dup2\n      mstore\n      0x20\n      add\n      swap1\n      dup2\n      mstore\n      0x20\n      add\n      0x00\n      keccak256\n        /* \"Python/Contracts/VotingRegistration.sol\":2770:2792  users[msg.sender].name */\n      0x00\n      add\n        /* \"Python/Contracts/VotingRegistration.sol\":2754:2793  getUserPassword(users[msg.sender].name) */\n      dup1\n      sload\n      tag_39\n      swap1\n      tag_40\n      jump\t// in\n    tag_39:\n      dup1\n      0x1f\n      add\n      0x20\n      dup1\n      swap2\n      div\n      mul\n      0x20\n      add\n      mload(0x40)\n      swap1\n      dup2\n      add\n      0x40\n      mstore\n      dup1\n      swap3\n      swap2\n      swap1\n      dup2\n      dup2\n      mstore\n      0x20\n      add\n      dup3\n      dup1\n      sload\n      tag_41\n      swap1\n      tag_40\n      jump\t// in\n    tag_41:\n      dup1\n      iszero\n      tag_42\n      jumpi\n      dup1\n      0x1f\n      lt\n      tag_43\n      jumpi\n      0x0100\n      dup1\n      dup4\n      sload\n      div\n      mul\n      dup4\n      mstore\n      swap2\n      0x20\n      add\n      swap2\n      jump(tag_42)\n    tag_43:\n      dup3\n      add\n      swap2\n      swap1\n      0x00\n      mstore\n      keccak256(0x00, 0x20)\n      swap1\n    tag_44:\n      dup2\n      sload\n      dup2\n      mstore\n      swap1\n      0x01\n      add\n      swap1\n      0x20\n      add\n      dup1\n      dup4\n      gt\n      tag_44\n      jumpi\n      dup3\n      swap1\n      sub\n      0x1f\n      and\n      dup3\n      add\n      swap2\n    tag_42:\n      pop\n      pop\n      pop\n      pop\n      pop\n        /* \"Python/Contracts/VotingRegistration.sol\":2754:2769  getUserPassword */\n      tag_32\n        /* \"Python/Contracts/VotingRegistration.sol\":2754:2793  getUserPassword(users[msg.sender].name) */\n      jump\t// in\n    tag_38:\n        /* \"Python/Contracts/VotingRegistration.sol\":2729:2793  bytes32 storedPassword = getUserPassword(users[msg.sender].name) */\n      swap1\n      pop\n        /* \"Python/Contracts/VotingRegistration.sol\":2875:2892  bool loginSuccess */\n      0x00\n        /* \"Python/Contracts/VotingRegistration.sol\":2940:2949  _password */\n      dup4\n        /* \"Python/Contracts/VotingRegistration.sol\":2923:2950  abi.encodePacked(_password) */\n      add(0x20, mload(0x40))\n      tag_45\n      swap2\n      swap1\n      tag_46\n      jump\t// in\n    tag_45:\n      mload(0x40)\n      0x20\n      dup2\n      dup4\n      sub\n      sub\n      dup2\n      mstore\n      swap1\n      0x40\n      mstore\n        /* \"Python/Contracts/VotingRegistration.sol\":2913:2951  keccak256(abi.encodePacked(_password)) */\n      dup1\n      mload\n      swap1\n      0x20\n      add\n      keccak256\n        /* \"Python/Contracts/VotingRegistration.sol\":2895:2909  storedPassword */\n      dup3\n        /* \"Python/Contracts/VotingRegistration.sol\":2895:2951  storedPassword == keccak256(abi.encodePacked(_password)) */\n      eq\n        /* \"Python/Contracts/VotingRegistration.sol\":2875:2951  bool loginSuccess = storedPassword == keccak256(abi.encodePacked(_password)) */\n      swap1\n      pop\n        /* \"Python/Contracts/VotingRegistration.sol\":3039:3049  msg.sender */\n      caller\n        /* \"Python/Contracts/VotingRegistration.sol\":3022:3064  UserLoginAttempt(msg.sender, loginSuccess) */\n      0xffffffffffffffffffffffffffffffffffffffff\n      and\n      0x7775ed67e23c2440b6947417630709bf46d168bf49cb78497dba7961774d18a1\n        /* \"Python/Contracts/VotingRegistration.sol\":3051:3063  loginSuccess */\n      dup3\n        /* \"Python/Contracts/VotingRegistration.sol\":3022:3064  UserLoginAttempt(msg.sender, loginSuccess) */\n      mload(0x40)\n      tag_47\n      swap2\n      swap1\n      tag_48\n      jump\t// in\n    tag_47:\n      mload(0x40)\n      dup1\n      swap2\n      sub\n      swap1\n      log2\n        /* \"Python/Contracts/VotingRegistration.sol\":3141:3153  loginSuccess */\n      dup1\n        /* \"Python/Contracts/VotingRegistration.sol\":3137:3558  if (loginSuccess) {... */\n      iszero\n      tag_49\n      jumpi\n        /* \"Python/Contracts/VotingRegistration.sol\":3209:3219  msg.sender */\n      caller\n        /* \"Python/Contracts/VotingRegistration.sol\":3175:3404  SuccessfulLogin(... */\n      0xffffffffffffffffffffffffffffffffffffffff\n      and\n      0xd87f1d46f5aa247eccbd017a5e41772691ba364325463500a4c021126d33c708\n        /* \"Python/Contracts/VotingRegistration.sol\":3238:3243  users */\n      0x00\n        /* \"Python/Contracts/VotingRegistration.sol\":3238:3255  users[msg.sender] */\n      dup1\n        /* \"Python/Contracts/VotingRegistration.sol\":3244:3254  msg.sender */\n      caller\n        /* \"Python/Contracts/VotingRegistration.sol\":3238:3255  users[msg.sender] */\n      0xffffffffffffffffffffffffffffffffffffffff\n      and\n      0xffffffffffffffffffffffffffffffffffffffff\n      and\n      dup2\n      mstore\n      0x20\n      add\n      swap1\n      dup2\n      mstore\n      0x20\n      add\n      0x00\n      keccak256\n        /* \"Python/Contracts/VotingRegistration.sol\":3238:3260  users[msg.sender].name */\n      0x00\n      add\n        /* \"Python/Contracts/VotingRegistration.sol\":3279:3284  users */\n      0x00\n        /* \"Python/Contracts/VotingRegistration.sol\":3279:3296  users[msg.sender] */\n      dup1\n        /* \"Python/Contracts/VotingRegistration.sol\":3285:3295  msg.sender */\n      caller\n        /* \"Python/Contracts/VotingRegistration.sol\":3279:3296  users[msg.sender] */\n      0xffffffffffffffffffffffffffffffffffffffff\n      and\n      0xffffffffffffffffffffffffffffffffffffffff\n      and\n      dup2\n      mstore\n      0x20\n      add\n      swap1\n      dup2\n      mstore\n      0x20\n      add\n      0x00\n      keccak256\n        /* \"Python/Contracts/VotingRegistration.sol\":3279:3302  users[msg.sender].email */\n      0x01\n      add\n        /* \"Python/Contracts/VotingRegistration.sol\":3321:3326  users */\n      0x00\n        /* \"Python/Contracts/VotingRegistration.sol\":3321:3338  users[msg.sender] */\n      dup1\n        /* \"Python/Contracts/VotingRegistration.sol\":3327:3337  msg.sender */\n      caller\n        /* \"Python/Contracts/VotingRegistration.sol\":3321:3338  users[msg.sender] */\n      0xffffffffffffffffffffffffffffffffffffffff\n      and\n      0xffffffffffffffffffffffffffffffffffffffff\n      and\n      dup2\n      mstore\n      0x20\n      add\n      swap1\n      dup2\n      mstore\n      0x20\n      add\n      0x00\n      keccak256\n        /* \"Python/Contracts/VotingRegistration.sol\":3321:3350  users[msg.sender].phoneNumber */\n      0x02\n      add\n        /* \"Python/Contracts/VotingRegistration.sol\":3368:3373  users */\n      0x00\n        /* \"Python/Contracts/VotingRegistration.sol\":3368:3385  users[msg.sender] */\n      dup1\n        /* \"Python/Contracts/VotingRegistration.sol\":3374:3384  msg.sender */\n      caller\n        /* \"Python/Contracts/VotingRegistration.sol\":3368:3385  users[msg.sender] */\n      0xffffffffffffffffffffffffffffffffffffffff\n      and\n      0xffffffffffffffffffffffffffffffffffffffff\n      and\n      dup2\n      mstore\n      0x20\n      add\n      swap1\n      dup2\n      mstore\n      0x20\n      add\n      0x00\n      keccak256\n        /* \"Python/Contracts/VotingRegistration.sol\":3368:3389  users[msg.sender].dob */\n      0x03\n      add\n        /* \"Python/Contracts/VotingRegistration.sol\":3175:3404  SuccessfulLogin(... */\n      mload(0x40)\n      tag_50\n      swap5\n      swap4\n      swap3\n      swap2\n      swap1\n      tag_51\n      jump\t// in\n    tag_50:\n      mload(0x40)\n      dup1\n      swap2\n      sub\n      swap1\n      log2\n        /* \"Python/Contracts/VotingRegistration.sol\":3419:3444  return \"Login successful\" */\n      mload(0x40)\n      dup1\n      0x40\n      add\n      0x40\n      mstore\n      dup1\n      0x10\n      dup2\n      mstore\n      0x20\n      add\n      0x4c6f67696e207375636365737366756c00000000000000000000000000000000\n      dup2\n      mstore\n      pop\n      swap3\n      pop\n      pop\n      pop\n      jump(tag_37)\n        /* \"Python/Contracts/VotingRegistration.sol\":3137:3558  if (loginSuccess) {... */\n    tag_49:\n        /* \"Python/Contracts/VotingRegistration.sol\":3477:3488  return \"{}\" */\n      mload(0x40)\n      dup1\n      0x40\n      add\n      0x40\n      mstore\n      dup1\n      0x02\n      dup2\n      mstore\n      0x20\n      add\n      0x7b7d000000000000000000000000000000000000000000000000000000000000\n      dup2\n      mstore\n      pop\n      swap3\n      pop\n      pop\n      pop\n        /* \"Python/Contracts/VotingRegistration.sol\":2567:3565  function loginUser(string memory _password) public returns (string memory) {... */\n    tag_37:\n      swap2\n      swap1\n      pop\n      jump\t// out\n        /* \"Python/Contracts/VotingRegistration.sol\":1059:1709  function registerUser(... */\n    tag_18:\n        /* \"Python/Contracts/VotingRegistration.sol\":1232:1251  User memory newUser */\n      0x00\n        /* \"Python/Contracts/VotingRegistration.sol\":1254:1389  User({... */\n      mload(0x40)\n      dup1\n      0x80\n      add\n      0x40\n      mstore\n      dup1\n        /* \"Python/Contracts/VotingRegistration.sol\":1280:1285  _name */\n      dup7\n        /* \"Python/Contracts/VotingRegistration.sol\":1254:1389  User({... */\n      dup2\n      mstore\n      0x20\n      add\n        /* \"Python/Contracts/VotingRegistration.sol\":1307:1313  _email */\n      dup6\n        /* \"Python/Contracts/VotingRegistration.sol\":1254:1389  User({... */\n      dup2\n      mstore\n      0x20\n      add\n        /* \"Python/Contracts/VotingRegistration.sol\":1341:1353  _phoneNumber */\n      dup5\n        /* \"Python/Contracts/VotingRegistration.sol\":1254:1389  User({... */\n      dup2\n      mstore\n      0x20\n      add\n        /* \"Python/Contracts/VotingRegistration.sol\":1373:1377  _dob */\n      dup4\n        /* \"Python/Contracts/VotingRegistration.sol\":1254:1389  User({... */\n      dup2\n      mstore\n      pop\n        /* \"Python/Contracts/VotingRegistration.sol\":1232:1389  User memory newUser = User({... */\n      swap1\n      pop\n        /* \"Python/Contracts/VotingRegistration.sol\":1476:1483  newUser */\n      dup1\n        /* \"Python/Contracts/VotingRegistration.sol\":1456:1461  users */\n      0x00\n        /* \"Python/Contracts/VotingRegistration.sol\":1456:1473  users[msg.sender] */\n      dup1\n        /* \"Python/Contracts/VotingRegistration.sol\":1462:1472  msg.sender */\n      caller\n        /* \"Python/Contracts/VotingRegistration.sol\":1456:1473  users[msg.sender] */\n      0xffffffffffffffffffffffffffffffffffffffff\n      and\n      0xffffffffffffffffffffffffffffffffffffffff\n      and\n      dup2\n      mstore\n      0x20\n      add\n      swap1\n      dup2\n      mstore\n      0x20\n      add\n      0x00\n      keccak256\n        /* \"Python/Contracts/VotingRegistration.sol\":1456:1483  users[msg.sender] = newUser */\n      0x00\n      dup3\n      add\n      mload\n      dup2\n      0x00\n      add\n      swap1\n      dup2\n      tag_54\n      swap2\n      swap1\n      tag_55\n      jump\t// in\n    tag_54:\n      pop\n      0x20\n      dup3\n      add\n      mload\n      dup2\n      0x01\n      add\n      swap1\n      dup2\n      tag_56\n      swap2\n      swap1\n      tag_55\n      jump\t// in\n    tag_56:\n      pop\n      0x40\n      dup3\n      add\n      mload\n      dup2\n      0x02\n      add\n      swap1\n      dup2\n      tag_57\n      swap2\n      swap1\n      tag_55\n      jump\t// in\n    tag_57:\n      pop\n      0x60\n      dup3\n      add\n      mload\n      dup2\n      0x03\n      add\n      swap1\n      dup2\n      tag_58\n      swap2\n      swap1\n      tag_55\n      jump\t// in\n    tag_58:\n      pop\n      swap1\n      pop\n      pop\n        /* \"Python/Contracts/VotingRegistration.sol\":1564:1574  msg.sender */\n      caller\n        /* \"Python/Contracts/VotingRegistration.sol\":1549:1590  UserRegistered(msg.sender, _name, _email) */\n      0xffffffffffffffffffffffffffffffffffffffff\n      and\n      0x92822564bab8864c3a47b34e8d23fbce5c46234eb5da261f94087b995ac0f33b\n        /* \"Python/Contracts/VotingRegistration.sol\":1576:1581  _name */\n      dup7\n        /* \"Python/Contracts/VotingRegistration.sol\":1583:1589  _email */\n      dup7\n        /* \"Python/Contracts/VotingRegistration.sol\":1549:1590  UserRegistered(msg.sender, _name, _email) */\n      mload(0x40)\n      tag_59\n      swap3\n      swap2\n      swap1\n      tag_60\n      jump\t// in\n    tag_59:\n      mload(0x40)\n      dup1\n      swap2\n      sub\n      swap1\n      log2\n        /* \"Python/Contracts/VotingRegistration.sol\":1684:1694  msg.sender */\n      caller\n        /* \"Python/Contracts/VotingRegistration.sol\":1652:1701  RegistrationStatusInitialStatus(msg.sender, true) */\n      0xffffffffffffffffffffffffffffffffffffffff\n      and\n      0x5bb6eac17d92b21e44c63082807c8b53294b5358da84eabdae451ab0923ea62a\n        /* \"Python/Contracts/VotingRegistration.sol\":1696:1700  true */\n      0x01\n        /* \"Python/Contracts/VotingRegistration.sol\":1652:1701  RegistrationStatusInitialStatus(msg.sender, true) */\n      mload(0x40)\n      tag_61\n      swap2\n      swap1\n      tag_48\n      jump\t// in\n    tag_61:\n      mload(0x40)\n      dup1\n      swap2\n      sub\n      swap1\n      log2\n        /* \"Python/Contracts/VotingRegistration.sol\":1221:1709  {... */\n      pop\n        /* \"Python/Contracts/VotingRegistration.sol\":1059:1709  function registerUser(... */\n      pop\n      pop\n      pop\n      pop\n      jump\t// out\n        /* \"Python/Contracts/VotingRegistration.sol\":204:241  mapping(address => User) public users */\n    tag_22:\n      mstore(0x20, 0x00)\n      dup1\n      0x00\n      mstore\n      keccak256(0x00, 0x40)\n      0x00\n      swap2\n      pop\n      swap1\n      pop\n      dup1\n      0x00\n      add\n      dup1\n      sload\n      tag_62\n      swap1\n      tag_40\n      jump\t// in\n    tag_62:\n      dup1\n      0x1f\n      add\n      0x20\n      dup1\n      swap2\n      div\n      mul\n      0x20\n      add\n      mload(0x40)\n      swap1\n      dup2\n      add\n      0x40\n      mstore\n      dup1\n      swap3\n      swap2\n      swap1\n      dup2\n      dup2\n      mstore\n      0x20\n      add\n      dup3\n      dup1\n      sload\n      tag_63\n      swap1\n      tag_40\n      jump\t// in\n    tag_63:\n      dup1\n      iszero\n      tag_64\n      jumpi\n      dup1\n      0x1f\n      lt\n      tag_65\n      jumpi\n      0x0100\n      dup1\n      dup4\n      sload\n      div\n      mul\n      dup4\n      mstore\n      swap2\n      0x20\n      add\n      swap2\n      jump(tag_64)\n    tag_65:\n      dup3\n      add\n      swap2\n      swap1\n      0x00\n      mstore\n      keccak256(0x00, 0x20)\n      swap1\n    tag_66:\n      dup2\n      sload\n      dup2\n      mstore\n      swap1\n      0x01\n      add\n      swap1\n      0x20\n      add\n      dup1\n      dup4\n      gt\n      tag_66\n      jumpi\n      dup3\n      swap1\n      sub\n      0x1f\n      and\n      dup3\n      add\n      swap2\n    tag_64:\n      pop\n      pop\n      pop\n      pop\n      pop\n      swap1\n      dup1\n      0x01\n      add\n      dup1\n      sload\n      tag_67\n      swap1\n      tag_40\n      jump\t// in\n    tag_67:\n      dup1\n      0x1f\n      add\n      0x20\n      dup1\n      swap2\n      div\n      mul\n      0x20\n      add\n      mload(0x40)\n      swap1\n      dup2\n      add\n      0x40\n      mstore\n      dup1\n      swap3\n      swap2\n      swap1\n      dup2\n      dup2\n      mstore\n      0x20\n      add\n      dup3\n      dup1\n      sload\n      tag_68\n      swap1\n      tag_40\n      jump\t// in\n    tag_68:\n      dup1\n      iszero\n      tag_69\n      jumpi\n      dup1\n      0x1f\n      lt\n      tag_70\n      jumpi\n      0x0100\n      dup1\n      dup4\n      sload\n      div\n      mul\n      dup4\n      mstore\n      swap2\n      0x20\n      add\n      swap2\n      jump(tag_69)\n    tag_70:\n      dup3\n      add\n      swap2\n      swap1\n      0x00\n      mstore\n      keccak256(0x00, 0x20)\n      swap1\n    tag_71:\n      dup2\n      sload\n      dup2\n      mstore\n      swap1\n      0x01\n      add\n      swap1\n      0x20\n      add\n      dup1\n      dup4\n      gt\n      tag_71\n      jumpi\n      dup3\n      swap1\n      sub\n      0x1f\n      and\n      dup3\n      add\n      swap2\n    tag_69:\n      pop\n      pop\n      pop\n      pop\n      pop\n      swap1\n      dup1\n      0x02\n      add\n      dup1\n      sload\n      tag_72\n      swap1\n      tag_40\n      jump\t// in\n    tag_72:\n      dup1\n      0x1f\n      add\n      0x20\n      dup1\n      swap2\n      div\n      mul\n      0x20\n      add\n      mload(0x40)\n      swap1\n      dup2\n      add\n      0x40\n      mstore\n      dup1\n      swap3\n      swap2\n      swap1\n      dup2\n      dup2\n      mstore\n      0x20\n      add\n      dup3\n      dup1\n      sload\n      tag_73\n      swap1\n      tag_40\n      jump\t// in\n    tag_73:\n      dup1\n      iszero\n      tag_74\n      jumpi\n      dup1\n      0x1f\n      lt\n      tag_75\n      jumpi\n      0x0100\n      dup1\n      dup4\n      sload\n      div\n      mul\n      dup4\n      mstore\n      swap2\n      0x20\n      add\n      swap2\n      jump(tag_74)\n    tag_75:\n      dup3\n      add\n      swap2\n      swap1\n      0x00\n      mstore\n      keccak256(0x00, 0x20)\n      swap1\n    tag_76:\n      dup2\n      sload\n      dup2\n      mstore\n      swap1\n      0x01\n      add\n      swap1\n      0x20\n      add\n      dup1\n      dup4\n      gt\n      tag_76\n      jumpi\n      dup3\n      swap1\n      sub\n      0x1f\n      and\n      dup3\n      add\n      swap2\n    tag_74:\n      pop\n      pop\n      pop\n      pop\n      pop\n      swap1\n      dup1\n      0x03\n      add\n      dup1\n      sload\n      tag_77\n      swap1\n      tag_40\n      jump\t// in\n    tag_77:\n      dup1\n      0x1f\n      add\n      0x20\n      dup1\n      swap2\n      div\n      mul\n      0x20\n      add\n      mload(0x40)\n      swap1\n      dup2\n      add\n      0x40\n      mstore\n      dup1\n      swap3\n      swap2\n      swap1\n      dup2\n      dup2\n      mstore\n      0x20\n      add\n      dup3\n      dup1\n      sload\n      tag_78\n      swap1\n      tag_40\n      jump\t// in\n    tag_78:\n      dup1\n      iszero\n      tag_79\n      jumpi\n      dup1\n      0x1f\n      lt\n      tag_80\n      jumpi\n      0x0100\n      dup1\n      dup4\n      sload\n      div\n      mul\n      dup4\n      mstore\n      swap2\n      0x20\n      add\n      swap2\n      jump(tag_79)\n    tag_80:\n      dup3\n      add\n      swap2\n      swap1\n      0x00\n      mstore\n      keccak256(0x00, 0x20)\n      swap1\n    tag_81:\n      dup2\n      sload\n      dup2\n      mstore\n      swap1\n      0x01\n      add\n      swap1\n      0x20\n      add\n      dup1\n      dup4\n      gt\n      tag_81\n      jumpi\n      dup3\n      swap1\n      sub\n      0x1f\n      and\n      dup3\n      add\n      swap2\n    tag_79:\n      pop\n      pop\n      pop\n      pop\n      pop\n      swap1\n      pop\n      dup5\n      jump\t// out\n        /* \"Python/Contracts/VotingRegistration.sol\":306:353  mapping(string => bytes32) public userPasswords */\n    tag_27:\n      0x01\n      dup2\n      dup1\n      mload\n      0x20\n      dup2\n      add\n      dup3\n      add\n      dup1\n      mload\n      dup5\n      dup3\n      mstore\n      0x20\n      dup4\n      add\n      0x20\n      dup6\n      add\n      keccak256\n      dup2\n      dup4\n      mstore\n      dup1\n      swap6\n      pop\n      pop\n      pop\n      pop\n      pop\n      pop\n      0x00\n      swap2\n      pop\n      swap1\n      pop\n      sload\n      dup2\n      jump\t// out\n        /* \"Python/Contracts/VotingRegistration.sol\":2429:2559  function getUserPassword(string memory _username) public view returns (bytes32) {... */\n    tag_32:\n        /* \"Python/Contracts/VotingRegistration.sol\":2500:2507  bytes32 */\n      0x00\n        /* \"Python/Contracts/VotingRegistration.sol\":2527:2540  userPasswords */\n      0x01\n        /* \"Python/Contracts/VotingRegistration.sol\":2541:2550  _username */\n      dup3\n        /* \"Python/Contracts/VotingRegistration.sol\":2527:2551  userPasswords[_username] */\n      mload(0x40)\n      tag_83\n      swap2\n      swap1\n      tag_46\n      jump\t// in\n    tag_83:\n      swap1\n      dup2\n      mstore\n      0x20\n      add\n      mload(0x40)\n      dup1\n      swap2\n      sub\n      swap1\n      keccak256\n      sload\n        /* \"Python/Contracts/VotingRegistration.sol\":2520:2551  return userPasswords[_username] */\n      swap1\n      pop\n        /* \"Python/Contracts/VotingRegistration.sol\":2429:2559  function getUserPassword(string memory _username) public view returns (bytes32) {... */\n      swap2\n      swap1\n      pop\n      jump\t// out\n        /* \"Python/Contracts/VotingRegistration.sol\":1717:2419  function setUserPassword(string memory _password) public {... */\n    tag_36:\n        /* \"Python/Contracts/VotingRegistration.sol\":1854:1876  string memory username */\n      0x00\n        /* \"Python/Contracts/VotingRegistration.sol\":1879:1884  users */\n      dup1\n        /* \"Python/Contracts/VotingRegistration.sol\":1879:1896  users[msg.sender] */\n      0x00\n        /* \"Python/Contracts/VotingRegistration.sol\":1885:1895  msg.sender */\n      caller\n        /* \"Python/Contracts/VotingRegistration.sol\":1879:1896  users[msg.sender] */\n      0xffffffffffffffffffffffffffffffffffffffff\n      and\n      0xffffffffffffffffffffffffffffffffffffffff\n      and\n      dup2\n      mstore\n      0x20\n      add\n      swap1\n      dup2\n      mstore\n      0x20\n      add\n      0x00\n      keccak256\n        /* \"Python/Contracts/VotingRegistration.sol\":1879:1901  users[msg.sender].name */\n      0x00\n      add\n        /* \"Python/Contracts/VotingRegistration.sol\":1854:1901  string memory username = users[msg.sender].name */\n      dup1\n      sload\n      tag_85\n      swap1\n      tag_40\n      jump\t// in\n    tag_85:\n      dup1\n      0x1f\n      add\n      0x20\n      dup1\n      swap2\n      div\n      mul\n      0x20\n      add\n      mload(0x40)\n      swap1\n      dup2\n      add\n      0x40\n      mstore\n      dup1\n      swap3\n      swap2\n      swap1\n      dup2\n      dup2\n      mstore\n      0x20\n      add\n      dup3\n      dup1\n      sload\n      tag_86\n      swap1\n      tag_40\n      jump\t// in\n    tag_86:\n      dup1\n      iszero\n      tag_87\n      jumpi\n      dup1\n      0x1f\n      lt\n      tag_88\n      jumpi\n      0x0100\n      dup1\n      dup4\n      sload\n      div\n      mul\n      dup4\n      mstore\n      swap2\n      0x20\n      add\n      swap2\n      jump(tag_87)\n    tag_88:\n      dup3\n      add\n      swap2\n      swap1\n      0x00\n      mstore\n      keccak256(0x00, 0x20)\n      swap1\n    tag_89:\n      dup2\n      sload\n      dup2\n      mstore\n      swap1\n      0x01\n      add\n      swap1\n      0x20\n      add\n      dup1\n      dup4\n      gt\n      tag_89\n      jumpi\n      dup3\n      swap1\n      sub\n      0x1f\n      and\n      dup3\n      add\n      swap2\n    tag_87:\n      pop\n      pop\n      pop\n      pop\n      pop\n      swap1\n      pop\n        /* \"Python/Contracts/VotingRegistration.sol\":1961:1983  bytes32 hashedPassword */\n      0x00\n        /* \"Python/Contracts/VotingRegistration.sol\":2013:2022  _password */\n      dup3\n        /* \"Python/Contracts/VotingRegistration.sol\":1996:2023  abi.encodePacked(_password) */\n      add(0x20, mload(0x40))\n      tag_90\n      swap2\n      swap1\n      tag_46\n      jump\t// in\n    tag_90:\n      mload(0x40)\n      0x20\n      dup2\n      dup4\n      sub\n      sub\n      dup2\n      mstore\n      swap1\n      0x40\n      mstore\n        /* \"Python/Contracts/VotingRegistration.sol\":1986:2024  keccak256(abi.encodePacked(_password)) */\n      dup1\n      mload\n      swap1\n      0x20\n      add\n      keccak256\n        /* \"Python/Contracts/VotingRegistration.sol\":1961:2024  bytes32 hashedPassword = keccak256(abi.encodePacked(_password)) */\n      swap1\n      pop\n        /* \"Python/Contracts/VotingRegistration.sol\":2125:2139  hashedPassword */\n      dup1\n        /* \"Python/Contracts/VotingRegistration.sol\":2099:2112  userPasswords */\n      0x01\n        /* \"Python/Contracts/VotingRegistration.sol\":2113:2121  username */\n      dup4\n        /* \"Python/Contracts/VotingRegistration.sol\":2099:2122  userPasswords[username] */\n      mload(0x40)\n      tag_91\n      swap2\n      swap1\n      tag_46\n      jump\t// in\n    tag_91:\n      swap1\n      dup2\n      mstore\n      0x20\n      add\n      mload(0x40)\n      dup1\n      swap2\n      sub\n      swap1\n      keccak256\n        /* \"Python/Contracts/VotingRegistration.sol\":2099:2139  userPasswords[username] = hashedPassword */\n      dup2\n      swap1\n      sstore\n      pop\n        /* \"Python/Contracts/VotingRegistration.sol\":2221:2229  username */\n      dup2\n        /* \"Python/Contracts/VotingRegistration.sol\":2205:2230  UserPasswordSet(username) */\n      mload(0x40)\n      tag_92\n      swap2\n      swap1\n      tag_46\n      jump\t// in\n    tag_92:\n      mload(0x40)\n      dup1\n      swap2\n      sub\n      swap1\n      keccak256\n      0x2cc085e35e68b4c2aa9d58cba4abde3977efbe55e84fdf4c8589c563686accd4\n      mload(0x40)\n      mload(0x40)\n      dup1\n      swap2\n      sub\n      swap1\n      log2\n        /* \"Python/Contracts/VotingRegistration.sol\":2352:2362  msg.sender */\n      caller\n        /* \"Python/Contracts/VotingRegistration.sol\":2312:2415  RegistrationStatusFinalStatus(... */\n      0xffffffffffffffffffffffffffffffffffffffff\n      and\n      0x9a75b332e5bf551ac57b2603829f37de6b1ac04ca6cf00645896c9fb19c51571\n        /* \"Python/Contracts/VotingRegistration.sol\":2407:2408  0 */\n      0x00\n        /* \"Python/Contracts/VotingRegistration.sol\":2373:2386  userPasswords */\n      0x01\n        /* \"Python/Contracts/VotingRegistration.sol\":2387:2395  username */\n      dup6\n        /* \"Python/Contracts/VotingRegistration.sol\":2373:2396  userPasswords[username] */\n      mload(0x40)\n      tag_93\n      swap2\n      swap1\n      tag_46\n      jump\t// in\n    tag_93:\n      swap1\n      dup2\n      mstore\n      0x20\n      add\n      mload(0x40)\n      dup1\n      swap2\n      sub\n      swap1\n      keccak256\n      pop\n        /* \"Python/Contracts/VotingRegistration.sol\":2373:2403  userPasswords[username].length */\n      0x20\n        /* \"Python/Contracts/VotingRegistration.sol\":2373:2408  userPasswords[username].length != 0 */\n      0xff\n      and\n      eq\n      iszero\n        /* \"Python/Contracts/VotingRegistration.sol\":2312:2415  RegistrationStatusFinalStatus(... */\n      mload(0x40)\n      tag_94\n      swap2\n      swap1\n      tag_48\n      jump\t// in\n    tag_94:\n      mload(0x40)\n      dup1\n      swap2\n      sub\n      swap1\n      log2\n        /* \"Python/Contracts/VotingRegistration.sol\":1774:2419  {... */\n      pop\n      pop\n        /* \"Python/Contracts/VotingRegistration.sol\":1717:2419  function setUserPassword(string memory _password) public {... */\n      pop\n      jump\t// out\n        /* \"#utility.yul\":7:82   */\n    tag_95:\n        /* \"#utility.yul\":40:46   */\n      0x00\n        /* \"#utility.yul\":73:75   */\n      0x40\n        /* \"#utility.yul\":67:76   */\n      mload\n        /* \"#utility.yul\":57:76   */\n      swap1\n      pop\n        /* \"#utility.yul\":7:82   */\n      swap1\n      jump\t// out\n        /* \"#utility.yul\":88:205   */\n    tag_96:\n        /* \"#utility.yul\":197:198   */\n      0x00\n        /* \"#utility.yul\":194:195   */\n      dup1\n        /* \"#utility.yul\":187:199   */\n      revert\n        /* \"#utility.yul\":211:328   */\n    tag_97:\n        /* \"#utility.yul\":320:321   */\n      0x00\n        /* \"#utility.yul\":317:318   */\n      dup1\n        /* \"#utility.yul\":310:322   */\n      revert\n        /* \"#utility.yul\":334:451   */\n    tag_98:\n        /* \"#utility.yul\":443:444   */\n      0x00\n        /* \"#utility.yul\":440:441   */\n      dup1\n        /* \"#utility.yul\":433:445   */\n      revert\n        /* \"#utility.yul\":457:574   */\n    tag_99:\n        /* \"#utility.yul\":566:567   */\n      0x00\n        /* \"#utility.yul\":563:564   */\n      dup1\n        /* \"#utility.yul\":556:568   */\n      revert\n        /* \"#utility.yul\":580:682   */\n    tag_100:\n        /* \"#utility.yul\":621:627   */\n      0x00\n        /* \"#utility.yul\":672:674   */\n      0x1f\n        /* \"#utility.yul\":668:675   */\n      not\n        /* \"#utility.yul\":663:665   */\n      0x1f\n        /* \"#utility.yul\":656:661   */\n      dup4\n        /* \"#utility.yul\":652:666   */\n      add\n        /* \"#utility.yul\":648:676   */\n      and\n        /* \"#utility.yul\":638:676   */\n      swap1\n      pop\n        /* \"#utility.yul\":580:682   */\n      swap2\n      swap1\n      pop\n      jump\t// out\n        /* \"#utility.yul\":688:868   */\n    tag_101:\n        /* \"#utility.yul\":736:813   */\n      0x4e487b7100000000000000000000000000000000000000000000000000000000\n        /* \"#utility.yul\":733:734   */\n      0x00\n        /* \"#utility.yul\":726:814   */\n      mstore\n        /* \"#utility.yul\":833:837   */\n      0x41\n        /* \"#utility.yul\":830:831   */\n      0x04\n        /* \"#utility.yul\":823:838   */\n      mstore\n        /* \"#utility.yul\":857:861   */\n      0x24\n        /* \"#utility.yul\":854:855   */\n      0x00\n        /* \"#utility.yul\":847:862   */\n      revert\n        /* \"#utility.yul\":874:1155   */\n    tag_102:\n        /* \"#utility.yul\":957:984   */\n      tag_149\n        /* \"#utility.yul\":979:983   */\n      dup3\n        /* \"#utility.yul\":957:984   */\n      tag_100\n      jump\t// in\n    tag_149:\n        /* \"#utility.yul\":949:955   */\n      dup2\n        /* \"#utility.yul\":945:985   */\n      add\n        /* \"#utility.yul\":1087:1093   */\n      dup2\n        /* \"#utility.yul\":1075:1085   */\n      dup2\n        /* \"#utility.yul\":1072:1094   */\n      lt\n        /* \"#utility.yul\":1051:1069   */\n      0xffffffffffffffff\n        /* \"#utility.yul\":1039:1049   */\n      dup3\n        /* \"#utility.yul\":1036:1070   */\n      gt\n        /* \"#utility.yul\":1033:1095   */\n      or\n        /* \"#utility.yul\":1030:1118   */\n      iszero\n      tag_150\n      jumpi\n        /* \"#utility.yul\":1098:1116   */\n      tag_151\n      tag_101\n      jump\t// in\n    tag_151:\n        /* \"#utility.yul\":1030:1118   */\n    tag_150:\n        /* \"#utility.yul\":1138:1148   */\n      dup1\n        /* \"#utility.yul\":1134:1136   */\n      0x40\n        /* \"#utility.yul\":1127:1149   */\n      mstore\n        /* \"#utility.yul\":917:1155   */\n      pop\n        /* \"#utility.yul\":874:1155   */\n      pop\n      pop\n      jump\t// out\n        /* \"#utility.yul\":1161:1290   */\n    tag_103:\n        /* \"#utility.yul\":1195:1201   */\n      0x00\n        /* \"#utility.yul\":1222:1242   */\n      tag_153\n      tag_95\n      jump\t// in\n    tag_153:\n        /* \"#utility.yul\":1212:1242   */\n      swap1\n      pop\n        /* \"#utility.yul\":1251:1284   */\n      tag_154\n        /* \"#utility.yul\":1279:1283   */\n      dup3\n        /* \"#utility.yul\":1271:1277   */\n      dup3\n        /* \"#utility.yul\":1251:1284   */\n      tag_102\n      jump\t// in\n    tag_154:\n        /* \"#utility.yul\":1161:1290   */\n      swap2\n      swap1\n      pop\n      jump\t// out\n        /* \"#utility.yul\":1296:1604   */\n    tag_104:\n        /* \"#utility.yul\":1358:1362   */\n      0x00\n        /* \"#utility.yul\":1448:1466   */\n      0xffffffffffffffff\n        /* \"#utility.yul\":1440:1446   */\n      dup3\n        /* \"#utility.yul\":1437:1467   */\n      gt\n        /* \"#utility.yul\":1434:1490   */\n      iszero\n      tag_156\n      jumpi\n        /* \"#utility.yul\":1470:1488   */\n      tag_157\n      tag_101\n      jump\t// in\n    tag_157:\n        /* \"#utility.yul\":1434:1490   */\n    tag_156:\n        /* \"#utility.yul\":1508:1537   */\n      tag_158\n        /* \"#utility.yul\":1530:1536   */\n      dup3\n        /* \"#utility.yul\":1508:1537   */\n      tag_100\n      jump\t// in\n    tag_158:\n        /* \"#utility.yul\":1500:1537   */\n      swap1\n      pop\n        /* \"#utility.yul\":1592:1596   */\n      0x20\n        /* \"#utility.yul\":1586:1590   */\n      dup2\n        /* \"#utility.yul\":1582:1597   */\n      add\n        /* \"#utility.yul\":1574:1597   */\n      swap1\n      pop\n        /* \"#utility.yul\":1296:1604   */\n      swap2\n      swap1\n      pop\n      jump\t// out\n        /* \"#utility.yul\":1610:1756   */\n    tag_105:\n        /* \"#utility.yul\":1707:1713   */\n      dup3\n        /* \"#utility.yul\":1702:1705   */\n      dup2\n        /* \"#utility.yul\":1697:1700   */\n      dup4\n        /* \"#utility.yul\":1684:1714   */\n      calldatacopy\n        /* \"#utility.yul\":1748:1749   */\n      0x00\n        /* \"#utility.yul\":1739:1745   */\n      dup4\n        /* \"#utility.yul\":1734:1737   */\n      dup4\n        /* \"#utility.yul\":1730:1746   */\n      add\n        /* \"#utility.yul\":1723:1750   */\n      mstore\n        /* \"#utility.yul\":1610:1756   */\n      pop\n      pop\n      pop\n      jump\t// out\n        /* \"#utility.yul\":1762:2187   */\n    tag_106:\n        /* \"#utility.yul\":1840:1845   */\n      0x00\n        /* \"#utility.yul\":1865:1931   */\n      tag_161\n        /* \"#utility.yul\":1881:1930   */\n      tag_162\n        /* \"#utility.yul\":1923:1929   */\n      dup5\n        /* \"#utility.yul\":1881:1930   */\n      tag_104\n      jump\t// in\n    tag_162:\n        /* \"#utility.yul\":1865:1931   */\n      tag_103\n      jump\t// in\n    tag_161:\n        /* \"#utility.yul\":1856:1931   */\n      swap1\n      pop\n        /* \"#utility.yul\":1954:1960   */\n      dup3\n        /* \"#utility.yul\":1947:1952   */\n      dup2\n        /* \"#utility.yul\":1940:1961   */\n      mstore\n        /* \"#utility.yul\":1992:1996   */\n      0x20\n        /* \"#utility.yul\":1985:1990   */\n      dup2\n        /* \"#utility.yul\":1981:1997   */\n      add\n        /* \"#utility.yul\":2030:2033   */\n      dup5\n        /* \"#utility.yul\":2021:2027   */\n      dup5\n        /* \"#utility.yul\":2016:2019   */\n      dup5\n        /* \"#utility.yul\":2012:2028   */\n      add\n        /* \"#utility.yul\":2009:2034   */\n      gt\n        /* \"#utility.yul\":2006:2118   */\n      iszero\n      tag_163\n      jumpi\n        /* \"#utility.yul\":2037:2116   */\n      tag_164\n      tag_99\n      jump\t// in\n    tag_164:\n        /* \"#utility.yul\":2006:2118   */\n    tag_163:\n        /* \"#utility.yul\":2127:2181   */\n      tag_165\n        /* \"#utility.yul\":2174:2180   */\n      dup5\n        /* \"#utility.yul\":2169:2172   */\n      dup3\n        /* \"#utility.yul\":2164:2167   */\n      dup6\n        /* \"#utility.yul\":2127:2181   */\n      tag_105\n      jump\t// in\n    tag_165:\n        /* \"#utility.yul\":1846:2187   */\n      pop\n        /* \"#utility.yul\":1762:2187   */\n      swap4\n      swap3\n      pop\n      pop\n      pop\n      jump\t// out\n        /* \"#utility.yul\":2207:2547   */\n    tag_107:\n        /* \"#utility.yul\":2263:2268   */\n      0x00\n        /* \"#utility.yul\":2312:2315   */\n      dup3\n        /* \"#utility.yul\":2305:2309   */\n      0x1f\n        /* \"#utility.yul\":2297:2303   */\n      dup4\n        /* \"#utility.yul\":2293:2310   */\n      add\n        /* \"#utility.yul\":2289:2316   */\n      slt\n        /* \"#utility.yul\":2279:2401   */\n      tag_167\n      jumpi\n        /* \"#utility.yul\":2320:2399   */\n      tag_168\n      tag_98\n      jump\t// in\n    tag_168:\n        /* \"#utility.yul\":2279:2401   */\n    tag_167:\n        /* \"#utility.yul\":2437:2443   */\n      dup2\n        /* \"#utility.yul\":2424:2444   */\n      calldataload\n        /* \"#utility.yul\":2462:2541   */\n      tag_169\n        /* \"#utility.yul\":2537:2540   */\n      dup5\n        /* \"#utility.yul\":2529:2535   */\n      dup3\n        /* \"#utility.yul\":2522:2526   */\n      0x20\n        /* \"#utility.yul\":2514:2520   */\n      dup7\n        /* \"#utility.yul\":2510:2527   */\n      add\n        /* \"#utility.yul\":2462:2541   */\n      tag_106\n      jump\t// in\n    tag_169:\n        /* \"#utility.yul\":2453:2541   */\n      swap2\n      pop\n        /* \"#utility.yul\":2269:2547   */\n      pop\n        /* \"#utility.yul\":2207:2547   */\n      swap3\n      swap2\n      pop\n      pop\n      jump\t// out\n        /* \"#utility.yul\":2553:3062   */\n    tag_11:\n        /* \"#utility.yul\":2622:2628   */\n      0x00\n        /* \"#utility.yul\":2671:2673   */\n      0x20\n        /* \"#utility.yul\":2659:2668   */\n      dup3\n        /* \"#utility.yul\":2650:2657   */\n      dup5\n        /* \"#utility.yul\":2646:2669   */\n      sub\n        /* \"#utility.yul\":2642:2674   */\n      slt\n        /* \"#utility.yul\":2639:2758   */\n      iszero\n      tag_171\n      jumpi\n        /* \"#utility.yul\":2677:2756   */\n      tag_172\n      tag_96\n      jump\t// in\n    tag_172:\n        /* \"#utility.yul\":2639:2758   */\n    tag_171:\n        /* \"#utility.yul\":2825:2826   */\n      0x00\n        /* \"#utility.yul\":2814:2823   */\n      dup3\n        /* \"#utility.yul\":2810:2827   */\n      add\n        /* \"#utility.yul\":2797:2828   */\n      calldataload\n        /* \"#utility.yul\":2855:2873   */\n      0xffffffffffffffff\n        /* \"#utility.yul\":2847:2853   */\n      dup2\n        /* \"#utility.yul\":2844:2874   */\n      gt\n        /* \"#utility.yul\":2841:2958   */\n      iszero\n      tag_173\n      jumpi\n        /* \"#utility.yul\":2877:2956   */\n      tag_174\n      tag_97\n      jump\t// in\n    tag_174:\n        /* \"#utility.yul\":2841:2958   */\n    tag_173:\n        /* \"#utility.yul\":2982:3045   */\n      tag_175\n        /* \"#utility.yul\":3037:3044   */\n      dup5\n        /* \"#utility.yul\":3028:3034   */\n      dup3\n        /* \"#utility.yul\":3017:3026   */\n      dup6\n        /* \"#utility.yul\":3013:3035   */\n      add\n        /* \"#utility.yul\":2982:3045   */\n      tag_107\n      jump\t// in\n    tag_175:\n        /* \"#utility.yul\":2972:3045   */\n      swap2\n      pop\n        /* \"#utility.yul\":2768:3055   */\n      pop\n        /* \"#utility.yul\":2553:3062   */\n      swap3\n      swap2\n      pop\n      pop\n      jump\t// out\n        /* \"#utility.yul\":3068:3167   */\n    tag_108:\n        /* \"#utility.yul\":3120:3126   */\n      0x00\n        /* \"#utility.yul\":3154:3159   */\n      dup2\n        /* \"#utility.yul\":3148:3160   */\n      mload\n        /* \"#utility.yul\":3138:3160   */\n      swap1\n      pop\n        /* \"#utility.yul\":3068:3167   */\n      swap2\n      swap1\n      pop\n      jump\t// out\n        /* \"#utility.yul\":3173:3342   */\n    tag_109:\n        /* \"#utility.yul\":3257:3268   */\n      0x00\n        /* \"#utility.yul\":3291:3297   */\n      dup3\n        /* \"#utility.yul\":3286:3289   */\n      dup3\n        /* \"#utility.yul\":3279:3298   */\n      mstore\n        /* \"#utility.yul\":3331:3335   */\n      0x20\n        /* \"#utility.yul\":3326:3329   */\n      dup3\n        /* \"#utility.yul\":3322:3336   */\n      add\n        /* \"#utility.yul\":3307:3336   */\n      swap1\n      pop\n        /* \"#utility.yul\":3173:3342   */\n      swap3\n      swap2\n      pop\n      pop\n      jump\t// out\n        /* \"#utility.yul\":3348:3594   */\n    tag_110:\n        /* \"#utility.yul\":3429:3430   */\n      0x00\n        /* \"#utility.yul\":3439:3552   */\n    tag_179:\n        /* \"#utility.yul\":3453:3459   */\n      dup4\n        /* \"#utility.yul\":3450:3451   */\n      dup2\n        /* \"#utility.yul\":3447:3460   */\n      lt\n        /* \"#utility.yul\":3439:3552   */\n      iszero\n      tag_181\n      jumpi\n        /* \"#utility.yul\":3538:3539   */\n      dup1\n        /* \"#utility.yul\":3533:3536   */\n      dup3\n        /* \"#utility.yul\":3529:3540   */\n      add\n        /* \"#utility.yul\":3523:3541   */\n      mload\n        /* \"#utility.yul\":3519:3520   */\n      dup2\n        /* \"#utility.yul\":3514:3517   */\n      dup5\n        /* \"#utility.yul\":3510:3521   */\n      add\n        /* \"#utility.yul\":3503:3542   */\n      mstore\n        /* \"#utility.yul\":3475:3477   */\n      0x20\n        /* \"#utility.yul\":3472:3473   */\n      dup2\n        /* \"#utility.yul\":3468:3478   */\n      add\n        /* \"#utility.yul\":3463:3478   */\n      swap1\n      pop\n        /* \"#utility.yul\":3439:3552   */\n      jump(tag_179)\n    tag_181:\n        /* \"#utility.yul\":3586:3587   */\n      0x00\n        /* \"#utility.yul\":3577:3583   */\n      dup5\n        /* \"#utility.yul\":3572:3575   */\n      dup5\n        /* \"#utility.yul\":3568:3584   */\n      add\n        /* \"#utility.yul\":3561:3588   */\n      mstore\n        /* \"#utility.yul\":3410:3594   */\n      pop\n        /* \"#utility.yul\":3348:3594   */\n      pop\n      pop\n      pop\n      jump\t// out\n        /* \"#utility.yul\":3600:3977   */\n    tag_111:\n        /* \"#utility.yul\":3688:3691   */\n      0x00\n        /* \"#utility.yul\":3716:3755   */\n      tag_183\n        /* \"#utility.yul\":3749:3754   */\n      dup3\n        /* \"#utility.yul\":3716:3755   */\n      tag_108\n      jump\t// in\n    tag_183:\n        /* \"#utility.yul\":3771:3842   */\n      tag_184\n        /* \"#utility.yul\":3835:3841   */\n      dup2\n        /* \"#utility.yul\":3830:3833   */\n      dup6\n        /* \"#utility.yul\":3771:3842   */\n      tag_109\n      jump\t// in\n    tag_184:\n        /* \"#utility.yul\":3764:3842   */\n      swap4\n      pop\n        /* \"#utility.yul\":3851:3916   */\n      tag_185\n        /* \"#utility.yul\":3909:3915   */\n      dup2\n        /* \"#utility.yul\":3904:3907   */\n      dup6\n        /* \"#utility.yul\":3897:3901   */\n      0x20\n        /* \"#utility.yul\":3890:3895   */\n      dup7\n        /* \"#utility.yul\":3886:3902   */\n      add\n        /* \"#utility.yul\":3851:3916   */\n      tag_110\n      jump\t// in\n    tag_185:\n        /* \"#utility.yul\":3941:3970   */\n      tag_186\n        /* \"#utility.yul\":3963:3969   */\n      dup2\n        /* \"#utility.yul\":3941:3970   */\n      tag_100\n      jump\t// in\n    tag_186:\n        /* \"#utility.yul\":3936:3939   */\n      dup5\n        /* \"#utility.yul\":3932:3971   */\n      add\n        /* \"#utility.yul\":3925:3971   */\n      swap2\n      pop\n        /* \"#utility.yul\":3692:3977   */\n      pop\n        /* \"#utility.yul\":3600:3977   */\n      swap3\n      swap2\n      pop\n      pop\n      jump\t// out\n        /* \"#utility.yul\":3983:4296   */\n    tag_14:\n        /* \"#utility.yul\":4096:4100   */\n      0x00\n        /* \"#utility.yul\":4134:4136   */\n      0x20\n        /* \"#utility.yul\":4123:4132   */\n      dup3\n        /* \"#utility.yul\":4119:4137   */\n      add\n        /* \"#utility.yul\":4111:4137   */\n      swap1\n      pop\n        /* \"#utility.yul\":4183:4192   */\n      dup2\n        /* \"#utility.yul\":4177:4181   */\n      dup2\n        /* \"#utility.yul\":4173:4193   */\n      sub\n        /* \"#utility.yul\":4169:4170   */\n      0x00\n        /* \"#utility.yul\":4158:4167   */\n      dup4\n        /* \"#utility.yul\":4154:4171   */\n      add\n        /* \"#utility.yul\":4147:4194   */\n      mstore\n        /* \"#utility.yul\":4211:4289   */\n      tag_188\n        /* \"#utility.yul\":4284:4288   */\n      dup2\n        /* \"#utility.yul\":4275:4281   */\n      dup5\n        /* \"#utility.yul\":4211:4289   */\n      tag_111\n      jump\t// in\n    tag_188:\n        /* \"#utility.yul\":4203:4289   */\n      swap1\n      pop\n        /* \"#utility.yul\":3983:4296   */\n      swap3\n      swap2\n      pop\n      pop\n      jump\t// out\n        /* \"#utility.yul\":4302:5787   */\n    tag_17:\n        /* \"#utility.yul\":4428:4434   */\n      0x00\n        /* \"#utility.yul\":4436:4442   */\n      dup1\n        /* \"#utility.yul\":4444:4450   */\n      0x00\n        /* \"#utility.yul\":4452:4458   */\n      dup1\n        /* \"#utility.yul\":4501:4504   */\n      0x80\n        /* \"#utility.yul\":4489:4498   */\n      dup6\n        /* \"#utility.yul\":4480:4487   */\n      dup8\n        /* \"#utility.yul\":4476:4499   */\n      sub\n        /* \"#utility.yul\":4472:4505   */\n      slt\n        /* \"#utility.yul\":4469:4589   */\n      iszero\n      tag_190\n      jumpi\n        /* \"#utility.yul\":4508:4587   */\n      tag_191\n      tag_96\n      jump\t// in\n    tag_191:\n        /* \"#utility.yul\":4469:4589   */\n    tag_190:\n        /* \"#utility.yul\":4656:4657   */\n      0x00\n        /* \"#utility.yul\":4645:4654   */\n      dup6\n        /* \"#utility.yul\":4641:4658   */\n      add\n        /* \"#utility.yul\":4628:4659   */\n      calldataload\n        /* \"#utility.yul\":4686:4704   */\n      0xffffffffffffffff\n        /* \"#utility.yul\":4678:4684   */\n      dup2\n        /* \"#utility.yul\":4675:4705   */\n      gt\n        /* \"#utility.yul\":4672:4789   */\n      iszero\n      tag_192\n      jumpi\n        /* \"#utility.yul\":4708:4787   */\n      tag_193\n      tag_97\n      jump\t// in\n    tag_193:\n        /* \"#utility.yul\":4672:4789   */\n    tag_192:\n        /* \"#utility.yul\":4813:4876   */\n      tag_194\n        /* \"#utility.yul\":4868:4875   */\n      dup8\n        /* \"#utility.yul\":4859:4865   */\n      dup3\n        /* \"#utility.yul\":4848:4857   */\n      dup9\n        /* \"#utility.yul\":4844:4866   */\n      add\n        /* \"#utility.yul\":4813:4876   */\n      tag_107\n      jump\t// in\n    tag_194:\n        /* \"#utility.yul\":4803:4876   */\n      swap5\n      pop\n        /* \"#utility.yul\":4599:4886   */\n      pop\n        /* \"#utility.yul\":4953:4955   */\n      0x20\n        /* \"#utility.yul\":4942:4951   */\n      dup6\n        /* \"#utility.yul\":4938:4956   */\n      add\n        /* \"#utility.yul\":4925:4957   */\n      calldataload\n        /* \"#utility.yul\":4984:5002   */\n      0xffffffffffffffff\n        /* \"#utility.yul\":4976:4982   */\n      dup2\n        /* \"#utility.yul\":4973:5003   */\n      gt\n        /* \"#utility.yul\":4970:5087   */\n      iszero\n      tag_195\n      jumpi\n        /* \"#utility.yul\":5006:5085   */\n      tag_196\n      tag_97\n      jump\t// in\n    tag_196:\n        /* \"#utility.yul\":4970:5087   */\n    tag_195:\n        /* \"#utility.yul\":5111:5174   */\n      tag_197\n        /* \"#utility.yul\":5166:5173   */\n      dup8\n        /* \"#utility.yul\":5157:5163   */\n      dup3\n        /* \"#utility.yul\":5146:5155   */\n      dup9\n        /* \"#utility.yul\":5142:5164   */\n      add\n        /* \"#utility.yul\":5111:5174   */\n      tag_107\n      jump\t// in\n    tag_197:\n        /* \"#utility.yul\":5101:5174   */\n      swap4\n      pop\n        /* \"#utility.yul\":4896:5184   */\n      pop\n        /* \"#utility.yul\":5251:5253   */\n      0x40\n        /* \"#utility.yul\":5240:5249   */\n      dup6\n        /* \"#utility.yul\":5236:5254   */\n      add\n        /* \"#utility.yul\":5223:5255   */\n      calldataload\n        /* \"#utility.yul\":5282:5300   */\n      0xffffffffffffffff\n        /* \"#utility.yul\":5274:5280   */\n      dup2\n        /* \"#utility.yul\":5271:5301   */\n      gt\n        /* \"#utility.yul\":5268:5385   */\n      iszero\n      tag_198\n      jumpi\n        /* \"#utility.yul\":5304:5383   */\n      tag_199\n      tag_97\n      jump\t// in\n    tag_199:\n        /* \"#utility.yul\":5268:5385   */\n    tag_198:\n        /* \"#utility.yul\":5409:5472   */\n      tag_200\n        /* \"#utility.yul\":5464:5471   */\n      dup8\n        /* \"#utility.yul\":5455:5461   */\n      dup3\n        /* \"#utility.yul\":5444:5453   */\n      dup9\n        /* \"#utility.yul\":5440:5462   */\n      add\n        /* \"#utility.yul\":5409:5472   */\n      tag_107\n      jump\t// in\n    tag_200:\n        /* \"#utility.yul\":5399:5472   */\n      swap3\n      pop\n        /* \"#utility.yul\":5194:5482   */\n      pop\n        /* \"#utility.yul\":5549:5551   */\n      0x60\n        /* \"#utility.yul\":5538:5547   */\n      dup6\n        /* \"#utility.yul\":5534:5552   */\n      add\n        /* \"#utility.yul\":5521:5553   */\n      calldataload\n        /* \"#utility.yul\":5580:5598   */\n      0xffffffffffffffff\n        /* \"#utility.yul\":5572:5578   */\n      dup2\n        /* \"#utility.yul\":5569:5599   */\n      gt\n        /* \"#utility.yul\":5566:5683   */\n      iszero\n      tag_201\n      jumpi\n        /* \"#utility.yul\":5602:5681   */\n      tag_202\n      tag_97\n      jump\t// in\n    tag_202:\n        /* \"#utility.yul\":5566:5683   */\n    tag_201:\n        /* \"#utility.yul\":5707:5770   */\n      tag_203\n        /* \"#utility.yul\":5762:5769   */\n      dup8\n        /* \"#utility.yul\":5753:5759   */\n      dup3\n        /* \"#utility.yul\":5742:5751   */\n      dup9\n        /* \"#utility.yul\":5738:5760   */\n      add\n        /* \"#utility.yul\":5707:5770   */\n      tag_107\n      jump\t// in\n    tag_203:\n        /* \"#utility.yul\":5697:5770   */\n      swap2\n      pop\n        /* \"#utility.yul\":5492:5780   */\n      pop\n        /* \"#utility.yul\":4302:5787   */\n      swap3\n      swap6\n      swap2\n      swap5\n      pop\n      swap3\n      pop\n      jump\t// out\n        /* \"#utility.yul\":5793:5919   */\n    tag_112:\n        /* \"#utility.yul\":5830:5837   */\n      0x00\n        /* \"#utility.yul\":5870:5912   */\n      0xffffffffffffffffffffffffffffffffffffffff\n        /* \"#utility.yul\":5863:5868   */\n      dup3\n        /* \"#utility.yul\":5859:5913   */\n      and\n        /* \"#utility.yul\":5848:5913   */\n      swap1\n      pop\n        /* \"#utility.yul\":5793:5919   */\n      swap2\n      swap1\n      pop\n      jump\t// out\n        /* \"#utility.yul\":5925:6021   */\n    tag_113:\n        /* \"#utility.yul\":5962:5969   */\n      0x00\n        /* \"#utility.yul\":5991:6015   */\n      tag_206\n        /* \"#utility.yul\":6009:6014   */\n      dup3\n        /* \"#utility.yul\":5991:6015   */\n      tag_112\n      jump\t// in\n    tag_206:\n        /* \"#utility.yul\":5980:6015   */\n      swap1\n      pop\n        /* \"#utility.yul\":5925:6021   */\n      swap2\n      swap1\n      pop\n      jump\t// out\n        /* \"#utility.yul\":6027:6149   */\n    tag_114:\n        /* \"#utility.yul\":6100:6124   */\n      tag_208\n        /* \"#utility.yul\":6118:6123   */\n      dup2\n        /* \"#utility.yul\":6100:6124   */\n      tag_113\n      jump\t// in\n    tag_208:\n        /* \"#utility.yul\":6093:6098   */\n      dup2\n        /* \"#utility.yul\":6090:6125   */\n      eq\n        /* \"#utility.yul\":6080:6143   */\n      tag_209\n      jumpi\n        /* \"#utility.yul\":6139:6140   */\n      0x00\n        /* \"#utility.yul\":6136:6137   */\n      dup1\n        /* \"#utility.yul\":6129:6141   */\n      revert\n        /* \"#utility.yul\":6080:6143   */\n    tag_209:\n        /* \"#utility.yul\":6027:6149   */\n      pop\n      jump\t// out\n        /* \"#utility.yul\":6155:6294   */\n    tag_115:\n        /* \"#utility.yul\":6201:6206   */\n      0x00\n        /* \"#utility.yul\":6239:6245   */\n      dup2\n        /* \"#utility.yul\":6226:6246   */\n      calldataload\n        /* \"#utility.yul\":6217:6246   */\n      swap1\n      pop\n        /* \"#utility.yul\":6255:6288   */\n      tag_211\n        /* \"#utility.yul\":6282:6287   */\n      dup2\n        /* \"#utility.yul\":6255:6288   */\n      tag_114\n      jump\t// in\n    tag_211:\n        /* \"#utility.yul\":6155:6294   */\n      swap3\n      swap2\n      pop\n      pop\n      jump\t// out\n        /* \"#utility.yul\":6300:6629   */\n    tag_21:\n        /* \"#utility.yul\":6359:6365   */\n      0x00\n        /* \"#utility.yul\":6408:6410   */\n      0x20\n        /* \"#utility.yul\":6396:6405   */\n      dup3\n        /* \"#utility.yul\":6387:6394   */\n      dup5\n        /* \"#utility.yul\":6383:6406   */\n      sub\n        /* \"#utility.yul\":6379:6411   */\n      slt\n        /* \"#utility.yul\":6376:6495   */\n      iszero\n      tag_213\n      jumpi\n        /* \"#utility.yul\":6414:6493   */\n      tag_214\n      tag_96\n      jump\t// in\n    tag_214:\n        /* \"#utility.yul\":6376:6495   */\n    tag_213:\n        /* \"#utility.yul\":6534:6535   */\n      0x00\n        /* \"#utility.yul\":6559:6612   */\n      tag_215\n        /* \"#utility.yul\":6604:6611   */\n      dup5\n        /* \"#utility.yul\":6595:6601   */\n      dup3\n        /* \"#utility.yul\":6584:6593   */\n      dup6\n        /* \"#utility.yul\":6580:6602   */\n      add\n        /* \"#utility.yul\":6559:6612   */\n      tag_115\n      jump\t// in\n    tag_215:\n        /* \"#utility.yul\":6549:6612   */\n      swap2\n      pop\n        /* \"#utility.yul\":6505:6622   */\n      pop\n        /* \"#utility.yul\":6300:6629   */\n      swap3\n      swap2\n      pop\n      pop\n      jump\t// out\n        /* \"#utility.yul\":6635:7552   */\n    tag_24:\n        /* \"#utility.yul\":6892:6896   */\n      0x00\n        /* \"#utility.yul\":6930:6933   */\n      0x80\n        /* \"#utility.yul\":6919:6928   */\n      dup3\n        /* \"#utility.yul\":6915:6934   */\n      add\n        /* \"#utility.yul\":6907:6934   */\n      swap1\n      pop\n        /* \"#utility.yul\":6980:6989   */\n      dup2\n        /* \"#utility.yul\":6974:6978   */\n      dup2\n        /* \"#utility.yul\":6970:6990   */\n      sub\n        /* \"#utility.yul\":6966:6967   */\n      0x00\n        /* \"#utility.yul\":6955:6964   */\n      dup4\n        /* \"#utility.yul\":6951:6968   */\n      add\n        /* \"#utility.yul\":6944:6991   */\n      mstore\n        /* \"#utility.yul\":7008:7086   */\n      tag_217\n        /* \"#utility.yul\":7081:7085   */\n      dup2\n        /* \"#utility.yul\":7072:7078   */\n      dup8\n        /* \"#utility.yul\":7008:7086   */\n      tag_111\n      jump\t// in\n    tag_217:\n        /* \"#utility.yul\":7000:7086   */\n      swap1\n      pop\n        /* \"#utility.yul\":7133:7142   */\n      dup2\n        /* \"#utility.yul\":7127:7131   */\n      dup2\n        /* \"#utility.yul\":7123:7143   */\n      sub\n        /* \"#utility.yul\":7118:7120   */\n      0x20\n        /* \"#utility.yul\":7107:7116   */\n      dup4\n        /* \"#utility.yul\":7103:7121   */\n      add\n        /* \"#utility.yul\":7096:7144   */\n      mstore\n        /* \"#utility.yul\":7161:7239   */\n      tag_218\n        /* \"#utility.yul\":7234:7238   */\n      dup2\n        /* \"#utility.yul\":7225:7231   */\n      dup7\n        /* \"#utility.yul\":7161:7239   */\n      tag_111\n      jump\t// in\n    tag_218:\n        /* \"#utility.yul\":7153:7239   */\n      swap1\n      pop\n        /* \"#utility.yul\":7286:7295   */\n      dup2\n        /* \"#utility.yul\":7280:7284   */\n      dup2\n        /* \"#utility.yul\":7276:7296   */\n      sub\n        /* \"#utility.yul\":7271:7273   */\n      0x40\n        /* \"#utility.yul\":7260:7269   */\n      dup4\n        /* \"#utility.yul\":7256:7274   */\n      add\n        /* \"#utility.yul\":7249:7297   */\n      mstore\n        /* \"#utility.yul\":7314:7392   */\n      tag_219\n        /* \"#utility.yul\":7387:7391   */\n      dup2\n        /* \"#utility.yul\":7378:7384   */\n      dup6\n        /* \"#utility.yul\":7314:7392   */\n      tag_111\n      jump\t// in\n    tag_219:\n        /* \"#utility.yul\":7306:7392   */\n      swap1\n      pop\n        /* \"#utility.yul\":7439:7448   */\n      dup2\n        /* \"#utility.yul\":7433:7437   */\n      dup2\n        /* \"#utility.yul\":7429:7449   */\n      sub\n        /* \"#utility.yul\":7424:7426   */\n      0x60\n        /* \"#utility.yul\":7413:7422   */\n      dup4\n        /* \"#utility.yul\":7409:7427   */\n      add\n        /* \"#utility.yul\":7402:7450   */\n      mstore\n        /* \"#utility.yul\":7467:7545   */\n      tag_220\n        /* \"#utility.yul\":7540:7544   */\n      dup2\n        /* \"#utility.yul\":7531:7537   */\n      dup5\n        /* \"#utility.yul\":7467:7545   */\n      tag_111\n      jump\t// in\n    tag_220:\n        /* \"#utility.yul\":7459:7545   */\n      swap1\n      pop\n        /* \"#utility.yul\":6635:7552   */\n      swap6\n      swap5\n      pop\n      pop\n      pop\n      pop\n      pop\n      jump\t// out\n        /* \"#utility.yul\":7558:7635   */\n    tag_116:\n        /* \"#utility.yul\":7595:7602   */\n      0x00\n        /* \"#utility.yul\":7624:7629   */\n      dup2\n        /* \"#utility.yul\":7613:7629   */\n      swap1\n      pop\n        /* \"#utility.yul\":7558:7635   */\n      swap2\n      swap1\n      pop\n      jump\t// out\n        /* \"#utility.yul\":7641:7759   */\n    tag_117:\n        /* \"#utility.yul\":7728:7752   */\n      tag_223\n        /* \"#utility.yul\":7746:7751   */\n      dup2\n        /* \"#utility.yul\":7728:7752   */\n      tag_116\n      jump\t// in\n    tag_223:\n        /* \"#utility.yul\":7723:7726   */\n      dup3\n        /* \"#utility.yul\":7716:7753   */\n      mstore\n        /* \"#utility.yul\":7641:7759   */\n      pop\n      pop\n      jump\t// out\n        /* \"#utility.yul\":7765:7987   */\n    tag_29:\n        /* \"#utility.yul\":7858:7862   */\n      0x00\n        /* \"#utility.yul\":7896:7898   */\n      0x20\n        /* \"#utility.yul\":7885:7894   */\n      dup3\n        /* \"#utility.yul\":7881:7899   */\n      add\n        /* \"#utility.yul\":7873:7899   */\n      swap1\n      pop\n        /* \"#utility.yul\":7909:7980   */\n      tag_225\n        /* \"#utility.yul\":7977:7978   */\n      0x00\n        /* \"#utility.yul\":7966:7975   */\n      dup4\n        /* \"#utility.yul\":7962:7979   */\n      add\n        /* \"#utility.yul\":7953:7959   */\n      dup5\n        /* \"#utility.yul\":7909:7980   */\n      tag_117\n      jump\t// in\n    tag_225:\n        /* \"#utility.yul\":7765:7987   */\n      swap3\n      swap2\n      pop\n      pop\n      jump\t// out\n        /* \"#utility.yul\":7993:8173   */\n    tag_118:\n        /* \"#utility.yul\":8041:8118   */\n      0x4e487b7100000000000000000000000000000000000000000000000000000000\n        /* \"#utility.yul\":8038:8039   */\n      0x00\n        /* \"#utility.yul\":8031:8119   */\n      mstore\n        /* \"#utility.yul\":8138:8142   */\n      0x22\n        /* \"#utility.yul\":8135:8136   */\n      0x04\n        /* \"#utility.yul\":8128:8143   */\n      mstore\n        /* \"#utility.yul\":8162:8166   */\n      0x24\n        /* \"#utility.yul\":8159:8160   */\n      0x00\n        /* \"#utility.yul\":8152:8167   */\n      revert\n        /* \"#utility.yul\":8179:8499   */\n    tag_40:\n        /* \"#utility.yul\":8223:8229   */\n      0x00\n        /* \"#utility.yul\":8260:8261   */\n      0x02\n        /* \"#utility.yul\":8254:8258   */\n      dup3\n        /* \"#utility.yul\":8250:8262   */\n      div\n        /* \"#utility.yul\":8240:8262   */\n      swap1\n      pop\n        /* \"#utility.yul\":8307:8308   */\n      0x01\n        /* \"#utility.yul\":8301:8305   */\n      dup3\n        /* \"#utility.yul\":8297:8309   */\n      and\n        /* \"#utility.yul\":8328:8346   */\n      dup1\n        /* \"#utility.yul\":8318:8399   */\n      tag_228\n      jumpi\n        /* \"#utility.yul\":8384:8388   */\n      0x7f\n        /* \"#utility.yul\":8376:8382   */\n      dup3\n        /* \"#utility.yul\":8372:8389   */\n      and\n        /* \"#utility.yul\":8362:8389   */\n      swap2\n      pop\n        /* \"#utility.yul\":8318:8399   */\n    tag_228:\n        /* \"#utility.yul\":8446:8448   */\n      0x20\n        /* \"#utility.yul\":8438:8444   */\n      dup3\n        /* \"#utility.yul\":8435:8449   */\n      lt\n        /* \"#utility.yul\":8415:8433   */\n      dup2\n        /* \"#utility.yul\":8412:8450   */\n      sub\n        /* \"#utility.yul\":8409:8493   */\n      tag_229\n      jumpi\n        /* \"#utility.yul\":8465:8483   */\n      tag_230\n      tag_118\n      jump\t// in\n    tag_230:\n        /* \"#utility.yul\":8409:8493   */\n    tag_229:\n        /* \"#utility.yul\":8230:8499   */\n      pop\n        /* \"#utility.yul\":8179:8499   */\n      swap2\n      swap1\n      pop\n      jump\t// out\n        /* \"#utility.yul\":8505:8653   */\n    tag_119:\n        /* \"#utility.yul\":8607:8618   */\n      0x00\n        /* \"#utility.yul\":8644:8647   */\n      dup2\n        /* \"#utility.yul\":8629:8647   */\n      swap1\n      pop\n        /* \"#utility.yul\":8505:8653   */\n      swap3\n      swap2\n      pop\n      pop\n      jump\t// out\n        /* \"#utility.yul\":8659:9049   */\n    tag_120:\n        /* \"#utility.yul\":8765:8768   */\n      0x00\n        /* \"#utility.yul\":8793:8832   */\n      tag_233\n        /* \"#utility.yul\":8826:8831   */\n      dup3\n        /* \"#utility.yul\":8793:8832   */\n      tag_108\n      jump\t// in\n    tag_233:\n        /* \"#utility.yul\":8848:8937   */\n      tag_234\n        /* \"#utility.yul\":8930:8936   */\n      dup2\n        /* \"#utility.yul\":8925:8928   */\n      dup6\n        /* \"#utility.yul\":8848:8937   */\n      tag_119\n      jump\t// in\n    tag_234:\n        /* \"#utility.yul\":8841:8937   */\n      swap4\n      pop\n        /* \"#utility.yul\":8946:9011   */\n      tag_235\n        /* \"#utility.yul\":9004:9010   */\n      dup2\n        /* \"#utility.yul\":8999:9002   */\n      dup6\n        /* \"#utility.yul\":8992:8996   */\n      0x20\n        /* \"#utility.yul\":8985:8990   */\n      dup7\n        /* \"#utility.yul\":8981:8997   */\n      add\n        /* \"#utility.yul\":8946:9011   */\n      tag_110\n      jump\t// in\n    tag_235:\n        /* \"#utility.yul\":9036:9042   */\n      dup1\n        /* \"#utility.yul\":9031:9034   */\n      dup5\n        /* \"#utility.yul\":9027:9043   */\n      add\n        /* \"#utility.yul\":9020:9043   */\n      swap2\n      pop\n        /* \"#utility.yul\":8769:9049   */\n      pop\n        /* \"#utility.yul\":8659:9049   */\n      swap3\n      swap2\n      pop\n      pop\n      jump\t// out\n        /* \"#utility.yul\":9055:9330   */\n    tag_46:\n        /* \"#utility.yul\":9187:9190   */\n      0x00\n        /* \"#utility.yul\":9209:9304   */\n      tag_237\n        /* \"#utility.yul\":9300:9303   */\n      dup3\n        /* \"#utility.yul\":9291:9297   */\n      dup5\n        /* \"#utility.yul\":9209:9304   */\n      tag_120\n      jump\t// in\n    tag_237:\n        /* \"#utility.yul\":9202:9304   */\n      swap2\n      pop\n        /* \"#utility.yul\":9321:9324   */\n      dup2\n        /* \"#utility.yul\":9314:9324   */\n      swap1\n      pop\n        /* \"#utility.yul\":9055:9330   */\n      swap3\n      swap2\n      pop\n      pop\n      jump\t// out\n        /* \"#utility.yul\":9336:9426   */\n    tag_121:\n        /* \"#utility.yul\":9370:9377   */\n      0x00\n        /* \"#utility.yul\":9413:9418   */\n      dup2\n        /* \"#utility.yul\":9406:9419   */\n      iszero\n        /* \"#utility.yul\":9399:9420   */\n      iszero\n        /* \"#utility.yul\":9388:9420   */\n      swap1\n      pop\n        /* \"#utility.yul\":9336:9426   */\n      swap2\n      swap1\n      pop\n      jump\t// out\n        /* \"#utility.yul\":9432:9541   */\n    tag_122:\n        /* \"#utility.yul\":9513:9534   */\n      tag_240\n        /* \"#utility.yul\":9528:9533   */\n      dup2\n        /* \"#utility.yul\":9513:9534   */\n      tag_121\n      jump\t// in\n    tag_240:\n        /* \"#utility.yul\":9508:9511   */\n      dup3\n        /* \"#utility.yul\":9501:9535   */\n      mstore\n        /* \"#utility.yul\":9432:9541   */\n      pop\n      pop\n      jump\t// out\n        /* \"#utility.yul\":9547:9757   */\n    tag_48:\n        /* \"#utility.yul\":9634:9638   */\n      0x00\n        /* \"#utility.yul\":9672:9674   */\n      0x20\n        /* \"#utility.yul\":9661:9670   */\n      dup3\n        /* \"#utility.yul\":9657:9675   */\n      add\n        /* \"#utility.yul\":9649:9675   */\n      swap1\n      pop\n        /* \"#utility.yul\":9685:9750   */\n      tag_242\n        /* \"#utility.yul\":9747:9748   */\n      0x00\n        /* \"#utility.yul\":9736:9745   */\n      dup4\n        /* \"#utility.yul\":9732:9749   */\n      add\n        /* \"#utility.yul\":9723:9729   */\n      dup5\n        /* \"#utility.yul\":9685:9750   */\n      tag_122\n      jump\t// in\n    tag_242:\n        /* \"#utility.yul\":9547:9757   */\n      swap3\n      swap2\n      pop\n      pop\n      jump\t// out\n        /* \"#utility.yul\":9763:9904   */\n    tag_123:\n        /* \"#utility.yul\":9812:9816   */\n      0x00\n        /* \"#utility.yul\":9835:9838   */\n      dup2\n        /* \"#utility.yul\":9827:9838   */\n      swap1\n      pop\n        /* \"#utility.yul\":9858:9861   */\n      dup2\n        /* \"#utility.yul\":9855:9856   */\n      0x00\n        /* \"#utility.yul\":9848:9862   */\n      mstore\n        /* \"#utility.yul\":9892:9896   */\n      0x20\n        /* \"#utility.yul\":9889:9890   */\n      0x00\n        /* \"#utility.yul\":9879:9897   */\n      keccak256\n        /* \"#utility.yul\":9871:9897   */\n      swap1\n      pop\n        /* \"#utility.yul\":9763:9904   */\n      swap2\n      swap1\n      pop\n      jump\t// out\n        /* \"#utility.yul\":9934:10765   */\n    tag_124:\n        /* \"#utility.yul\":10019:10022   */\n      0x00\n        /* \"#utility.yul\":10056:10061   */\n      dup2\n        /* \"#utility.yul\":10050:10062   */\n      sload\n        /* \"#utility.yul\":10085:10121   */\n      tag_245\n        /* \"#utility.yul\":10111:10120   */\n      dup2\n        /* \"#utility.yul\":10085:10121   */\n      tag_40\n      jump\t// in\n    tag_245:\n        /* \"#utility.yul\":10137:10208   */\n      tag_246\n        /* \"#utility.yul\":10201:10207   */\n      dup2\n        /* \"#utility.yul\":10196:10199   */\n      dup7\n        /* \"#utility.yul\":10137:10208   */\n      tag_109\n      jump\t// in\n    tag_246:\n        /* \"#utility.yul\":10130:10208   */\n      swap5\n      pop\n        /* \"#utility.yul\":10239:10240   */\n      0x01\n        /* \"#utility.yul\":10228:10237   */\n      dup3\n        /* \"#utility.yul\":10224:10241   */\n      and\n        /* \"#utility.yul\":10255:10256   */\n      0x00\n        /* \"#utility.yul\":10250:10414   */\n      dup2\n      eq\n      tag_248\n      jumpi\n        /* \"#utility.yul\":10428:10429   */\n      0x01\n        /* \"#utility.yul\":10423:10759   */\n      dup2\n      eq\n      tag_249\n      jumpi\n        /* \"#utility.yul\":10217:10759   */\n      jump(tag_247)\n        /* \"#utility.yul\":10250:10414   */\n    tag_248:\n        /* \"#utility.yul\":10334:10338   */\n      0xff\n        /* \"#utility.yul\":10330:10339   */\n      not\n        /* \"#utility.yul\":10319:10328   */\n      dup4\n        /* \"#utility.yul\":10315:10340   */\n      and\n        /* \"#utility.yul\":10310:10313   */\n      dup7\n        /* \"#utility.yul\":10303:10341   */\n      mstore\n        /* \"#utility.yul\":10394:10400   */\n      dup2\n        /* \"#utility.yul\":10387:10401   */\n      iszero\n        /* \"#utility.yul\":10380:10402   */\n      iszero\n        /* \"#utility.yul\":10374:10378   */\n      0x20\n        /* \"#utility.yul\":10370:10403   */\n      mul\n        /* \"#utility.yul\":10365:10368   */\n      dup7\n        /* \"#utility.yul\":10361:10404   */\n      add\n        /* \"#utility.yul\":10354:10404   */\n      swap4\n      pop\n        /* \"#utility.yul\":10250:10414   */\n      jump(tag_247)\n        /* \"#utility.yul\":10423:10759   */\n    tag_249:\n        /* \"#utility.yul\":10490:10528   */\n      tag_250\n        /* \"#utility.yul\":10522:10527   */\n      dup6\n        /* \"#utility.yul\":10490:10528   */\n      tag_123\n      jump\t// in\n    tag_250:\n        /* \"#utility.yul\":10550:10551   */\n      0x00\n        /* \"#utility.yul\":10564:10718   */\n    tag_251:\n        /* \"#utility.yul\":10578:10584   */\n      dup4\n        /* \"#utility.yul\":10575:10576   */\n      dup2\n        /* \"#utility.yul\":10572:10585   */\n      lt\n        /* \"#utility.yul\":10564:10718   */\n      iszero\n      tag_253\n      jumpi\n        /* \"#utility.yul\":10652:10659   */\n      dup2\n        /* \"#utility.yul\":10646:10660   */\n      sload\n        /* \"#utility.yul\":10642:10643   */\n      dup2\n        /* \"#utility.yul\":10637:10640   */\n      dup10\n        /* \"#utility.yul\":10633:10644   */\n      add\n        /* \"#utility.yul\":10626:10661   */\n      mstore\n        /* \"#utility.yul\":10702:10703   */\n      0x01\n        /* \"#utility.yul\":10693:10700   */\n      dup3\n        /* \"#utility.yul\":10689:10704   */\n      add\n        /* \"#utility.yul\":10678:10704   */\n      swap2\n      pop\n        /* \"#utility.yul\":10600:10604   */\n      0x20\n        /* \"#utility.yul\":10597:10598   */\n      dup2\n        /* \"#utility.yul\":10593:10605   */\n      add\n        /* \"#utility.yul\":10588:10605   */\n      swap1\n      pop\n        /* \"#utility.yul\":10564:10718   */\n      jump(tag_251)\n    tag_253:\n        /* \"#utility.yul\":10747:10748   */\n      dup1\n        /* \"#utility.yul\":10742:10745   */\n      dup9\n        /* \"#utility.yul\":10738:10749   */\n      add\n        /* \"#utility.yul\":10731:10749   */\n      swap6\n      pop\n        /* \"#utility.yul\":10430:10759   */\n      pop\n      pop\n        /* \"#utility.yul\":10217:10759   */\n    tag_247:\n      pop\n        /* \"#utility.yul\":10023:10765   */\n      pop\n      pop\n        /* \"#utility.yul\":9934:10765   */\n      swap3\n      swap2\n      pop\n      pop\n      jump\t// out\n        /* \"#utility.yul\":10771:11664   */\n    tag_51:\n        /* \"#utility.yul\":11016:11020   */\n      0x00\n        /* \"#utility.yul\":11054:11057   */\n      0x80\n        /* \"#utility.yul\":11043:11052   */\n      dup3\n        /* \"#utility.yul\":11039:11058   */\n      add\n        /* \"#utility.yul\":11031:11058   */\n      swap1\n      pop\n        /* \"#utility.yul\":11104:11113   */\n      dup2\n        /* \"#utility.yul\":11098:11102   */\n      dup2\n        /* \"#utility.yul\":11094:11114   */\n      sub\n        /* \"#utility.yul\":11090:11091   */\n      0x00\n        /* \"#utility.yul\":11079:11088   */\n      dup4\n        /* \"#utility.yul\":11075:11092   */\n      add\n        /* \"#utility.yul\":11068:11115   */\n      mstore\n        /* \"#utility.yul\":11132:11207   */\n      tag_255\n        /* \"#utility.yul\":11202:11206   */\n      dup2\n        /* \"#utility.yul\":11193:11199   */\n      dup8\n        /* \"#utility.yul\":11132:11207   */\n      tag_124\n      jump\t// in\n    tag_255:\n        /* \"#utility.yul\":11124:11207   */\n      swap1\n      pop\n        /* \"#utility.yul\":11254:11263   */\n      dup2\n        /* \"#utility.yul\":11248:11252   */\n      dup2\n        /* \"#utility.yul\":11244:11264   */\n      sub\n        /* \"#utility.yul\":11239:11241   */\n      0x20\n        /* \"#utility.yul\":11228:11237   */\n      dup4\n        /* \"#utility.yul\":11224:11242   */\n      add\n        /* \"#utility.yul\":11217:11265   */\n      mstore\n        /* \"#utility.yul\":11282:11357   */\n      tag_256\n        /* \"#utility.yul\":11352:11356   */\n      dup2\n        /* \"#utility.yul\":11343:11349   */\n      dup7\n        /* \"#utility.yul\":11282:11357   */\n      tag_124\n      jump\t// in\n    tag_256:\n        /* \"#utility.yul\":11274:11357   */\n      swap1\n      pop\n        /* \"#utility.yul\":11404:11413   */\n      dup2\n        /* \"#utility.yul\":11398:11402   */\n      dup2\n        /* \"#utility.yul\":11394:11414   */\n      sub\n        /* \"#utility.yul\":11389:11391   */\n      0x40\n        /* \"#utility.yul\":11378:11387   */\n      dup4\n        /* \"#utility.yul\":11374:11392   */\n      add\n        /* \"#utility.yul\":11367:11415   */\n      mstore\n        /* \"#utility.yul\":11432:11507   */\n      tag_257\n        /* \"#utility.yul\":11502:11506   */\n      dup2\n        /* \"#utility.yul\":11493:11499   */\n      dup6\n        /* \"#utility.yul\":11432:11507   */\n      tag_124\n      jump\t// in\n    tag_257:\n        /* \"#utility.yul\":11424:11507   */\n      swap1\n      pop\n        /* \"#utility.yul\":11554:11563   */\n      dup2\n        /* \"#utility.yul\":11548:11552   */\n      dup2\n        /* \"#utility.yul\":11544:11564   */\n      sub\n        /* \"#utility.yul\":11539:11541   */\n      0x60\n        /* \"#utility.yul\":11528:11537   */\n      dup4\n        /* \"#utility.yul\":11524:11542   */\n      add\n        /* \"#utility.yul\":11517:11565   */\n      mstore\n        /* \"#utility.yul\":11582:11657   */\n      tag_258\n        /* \"#utility.yul\":11652:11656   */\n      dup2\n        /* \"#utility.yul\":11643:11649   */\n      dup5\n        /* \"#utility.yul\":11582:11657   */\n      tag_124\n      jump\t// in\n    tag_258:\n        /* \"#utility.yul\":11574:11657   */\n      swap1\n      pop\n        /* \"#utility.yul\":10771:11664   */\n      swap6\n      swap5\n      pop\n      pop\n      pop\n      pop\n      pop\n      jump\t// out\n        /* \"#utility.yul\":11670:11763   */\n    tag_125:\n        /* \"#utility.yul\":11707:11713   */\n      0x00\n        /* \"#utility.yul\":11754:11756   */\n      0x20\n        /* \"#utility.yul\":11749:11751   */\n      0x1f\n        /* \"#utility.yul\":11742:11747   */\n      dup4\n        /* \"#utility.yul\":11738:11752   */\n      add\n        /* \"#utility.yul\":11734:11757   */\n      div\n        /* \"#utility.yul\":11724:11757   */\n      swap1\n      pop\n        /* \"#utility.yul\":11670:11763   */\n      swap2\n      swap1\n      pop\n      jump\t// out\n        /* \"#utility.yul\":11769:11876   */\n    tag_126:\n        /* \"#utility.yul\":11813:11821   */\n      0x00\n        /* \"#utility.yul\":11863:11868   */\n      dup3\n        /* \"#utility.yul\":11857:11861   */\n      dup3\n        /* \"#utility.yul\":11853:11869   */\n      shl\n        /* \"#utility.yul\":11832:11869   */\n      swap1\n      pop\n        /* \"#utility.yul\":11769:11876   */\n      swap3\n      swap2\n      pop\n      pop\n      jump\t// out\n        /* \"#utility.yul\":11882:12275   */\n    tag_127:\n        /* \"#utility.yul\":11951:11957   */\n      0x00\n        /* \"#utility.yul\":12001:12002   */\n      0x08\n        /* \"#utility.yul\":11989:11999   */\n      dup4\n        /* \"#utility.yul\":11985:12003   */\n      mul\n        /* \"#utility.yul\":12024:12121   */\n      tag_262\n        /* \"#utility.yul\":12054:12120   */\n      0xffffffffffffffffffffffffffffffffffffffffffffffffffffffffffffffff\n        /* \"#utility.yul\":12043:12052   */\n      dup3\n        /* \"#utility.yul\":12024:12121   */\n      tag_126\n      jump\t// in\n    tag_262:\n        /* \"#utility.yul\":12142:12181   */\n      tag_263\n        /* \"#utility.yul\":12172:12180   */\n      dup7\n        /* \"#utility.yul\":12161:12170   */\n      dup4\n        /* \"#utility.yul\":12142:12181   */\n      tag_126\n      jump\t// in\n    tag_263:\n        /* \"#utility.yul\":12130:12181   */\n      swap6\n      pop\n        /* \"#utility.yul\":12214:12218   */\n      dup1\n        /* \"#utility.yul\":12210:12219   */\n      not\n        /* \"#utility.yul\":12203:12208   */\n      dup5\n        /* \"#utility.yul\":12199:12220   */\n      and\n        /* \"#utility.yul\":12190:12220   */\n      swap4\n      pop\n        /* \"#utility.yul\":12263:12267   */\n      dup1\n        /* \"#utility.yul\":12253:12261   */\n      dup7\n        /* \"#utility.yul\":12249:12268   */\n      and\n        /* \"#utility.yul\":12242:12247   */\n      dup5\n        /* \"#utility.yul\":12239:12269   */\n      or\n        /* \"#utility.yul\":12229:12269   */\n      swap3\n      pop\n        /* \"#utility.yul\":11958:12275   */\n      pop\n      pop\n        /* \"#utility.yul\":11882:12275   */\n      swap4\n      swap3\n      pop\n      pop\n      pop\n      jump\t// out\n        /* \"#utility.yul\":12281:12358   */\n    tag_128:\n        /* \"#utility.yul\":12318:12325   */\n      0x00\n        /* \"#utility.yul\":12347:12352   */\n      dup2\n        /* \"#utility.yul\":12336:12352   */\n      swap1\n      pop\n        /* \"#utility.yul\":12281:12358   */\n      swap2\n      swap1\n      pop\n      jump\t// out\n        /* \"#utility.yul\":12364:12424   */\n    tag_129:\n        /* \"#utility.yul\":12392:12395   */\n      0x00\n        /* \"#utility.yul\":12413:12418   */\n      dup2\n        /* \"#utility.yul\":12406:12418   */\n      swap1\n      pop\n        /* \"#utility.yul\":12364:12424   */\n      swap2\n      swap1\n      pop\n      jump\t// out\n        /* \"#utility.yul\":12430:12572   */\n    tag_130:\n        /* \"#utility.yul\":12480:12489   */\n      0x00\n        /* \"#utility.yul\":12513:12566   */\n      tag_267\n        /* \"#utility.yul\":12531:12565   */\n      tag_268\n        /* \"#utility.yul\":12540:12564   */\n      tag_269\n        /* \"#utility.yul\":12558:12563   */\n      dup5\n        /* \"#utility.yul\":12540:12564   */\n      tag_128\n      jump\t// in\n    tag_269:\n        /* \"#utility.yul\":12531:12565   */\n      tag_129\n      jump\t// in\n    tag_268:\n        /* \"#utility.yul\":12513:12566   */\n      tag_128\n      jump\t// in\n    tag_267:\n        /* \"#utility.yul\":12500:12566   */\n      swap1\n      pop\n        /* \"#utility.yul\":12430:12572   */\n      swap2\n      swap1\n      pop\n      jump\t// out\n        /* \"#utility.yul\":12578:12653   */\n    tag_131:\n        /* \"#utility.yul\":12621:12624   */\n      0x00\n        /* \"#utility.yul\":12642:12647   */\n      dup2\n        /* \"#utility.yul\":12635:12647   */\n      swap1\n      pop\n        /* \"#utility.yul\":12578:12653   */\n      swap2\n      swap1\n      pop\n      jump\t// out\n        /* \"#utility.yul\":12659:12928   */\n    tag_132:\n        /* \"#utility.yul\":12769:12808   */\n      tag_272\n        /* \"#utility.yul\":12800:12807   */\n      dup4\n        /* \"#utility.yul\":12769:12808   */\n      tag_130\n      jump\t// in\n    tag_272:\n        /* \"#utility.yul\":12830:12921   */\n      tag_273\n        /* \"#utility.yul\":12879:12920   */\n      tag_274\n        /* \"#utility.yul\":12903:12919   */\n      dup3\n        /* \"#utility.yul\":12879:12920   */\n      tag_131\n      jump\t// in\n    tag_274:\n        /* \"#utility.yul\":12871:12877   */\n      dup5\n        /* \"#utility.yul\":12864:12868   */\n      dup5\n        /* \"#utility.yul\":12858:12869   */\n      sload\n        /* \"#utility.yul\":12830:12921   */\n      tag_127\n      jump\t// in\n    tag_273:\n        /* \"#utility.yul\":12824:12828   */\n      dup3\n        /* \"#utility.yul\":12817:12922   */\n      sstore\n        /* \"#utility.yul\":12735:12928   */\n      pop\n        /* \"#utility.yul\":12659:12928   */\n      pop\n      pop\n      pop\n      jump\t// out\n        /* \"#utility.yul\":12934:13007   */\n    tag_133:\n        /* \"#utility.yul\":12979:12982   */\n      0x00\n        /* \"#utility.yul\":12934:13007   */\n      swap1\n      jump\t// out\n        /* \"#utility.yul\":13013:13202   */\n    tag_134:\n        /* \"#utility.yul\":13090:13122   */\n      tag_277\n      tag_133\n      jump\t// in\n    tag_277:\n        /* \"#utility.yul\":13131:13196   */\n      tag_278\n        /* \"#utility.yul\":13189:13195   */\n      dup2\n        /* \"#utility.yul\":13181:13187   */\n      dup5\n        /* \"#utility.yul\":13175:13179   */\n      dup5\n        /* \"#utility.yul\":13131:13196   */\n      tag_132\n      jump\t// in\n    tag_278:\n        /* \"#utility.yul\":13066:13202   */\n      pop\n        /* \"#utility.yul\":13013:13202   */\n      pop\n      pop\n      jump\t// out\n        /* \"#utility.yul\":13208:13394   */\n    tag_135:\n        /* \"#utility.yul\":13268:13388   */\n    tag_280:\n        /* \"#utility.yul\":13285:13288   */\n      dup2\n        /* \"#utility.yul\":13278:13283   */\n      dup2\n        /* \"#utility.yul\":13275:13289   */\n      lt\n        /* \"#utility.yul\":13268:13388   */\n      iszero\n      tag_282\n      jumpi\n        /* \"#utility.yul\":13339:13378   */\n      tag_283\n        /* \"#utility.yul\":13376:13377   */\n      0x00\n        /* \"#utility.yul\":13369:13374   */\n      dup3\n        /* \"#utility.yul\":13339:13378   */\n      tag_134\n      jump\t// in\n    tag_283:\n        /* \"#utility.yul\":13312:13313   */\n      0x01\n        /* \"#utility.yul\":13305:13310   */\n      dup2\n        /* \"#utility.yul\":13301:13314   */\n      add\n        /* \"#utility.yul\":13292:13314   */\n      swap1\n      pop\n        /* \"#utility.yul\":13268:13388   */\n      jump(tag_280)\n    tag_282:\n        /* \"#utility.yul\":13208:13394   */\n      pop\n      pop\n      jump\t// out\n        /* \"#utility.yul\":13400:13943   */\n    tag_136:\n        /* \"#utility.yul\":13501:13503   */\n      0x1f\n        /* \"#utility.yul\":13496:13499   */\n      dup3\n        /* \"#utility.yul\":13493:13504   */\n      gt\n        /* \"#utility.yul\":13490:13936   */\n      iszero\n      tag_285\n      jumpi\n        /* \"#utility.yul\":13535:13573   */\n      tag_286\n        /* \"#utility.yul\":13567:13572   */\n      dup2\n        /* \"#utility.yul\":13535:13573   */\n      tag_123\n      jump\t// in\n    tag_286:\n        /* \"#utility.yul\":13619:13648   */\n      tag_287\n        /* \"#utility.yul\":13637:13647   */\n      dup5\n        /* \"#utility.yul\":13619:13648   */\n      tag_125\n      jump\t// in\n    tag_287:\n        /* \"#utility.yul\":13609:13617   */\n      dup2\n        /* \"#utility.yul\":13605:13649   */\n      add\n        /* \"#utility.yul\":13802:13804   */\n      0x20\n        /* \"#utility.yul\":13790:13800   */\n      dup6\n        /* \"#utility.yul\":13787:13805   */\n      lt\n        /* \"#utility.yul\":13784:13833   */\n      iszero\n      tag_288\n      jumpi\n        /* \"#utility.yul\":13823:13831   */\n      dup2\n        /* \"#utility.yul\":13808:13831   */\n      swap1\n      pop\n        /* \"#utility.yul\":13784:13833   */\n    tag_288:\n        /* \"#utility.yul\":13846:13926   */\n      tag_289\n        /* \"#utility.yul\":13902:13924   */\n      tag_290\n        /* \"#utility.yul\":13920:13923   */\n      dup6\n        /* \"#utility.yul\":13902:13924   */\n      tag_125\n      jump\t// in\n    tag_290:\n        /* \"#utility.yul\":13892:13900   */\n      dup4\n        /* \"#utility.yul\":13888:13925   */\n      add\n        /* \"#utility.yul\":13875:13886   */\n      dup3\n        /* \"#utility.yul\":13846:13926   */\n      tag_135\n      jump\t// in\n    tag_289:\n        /* \"#utility.yul\":13505:13936   */\n      pop\n      pop\n        /* \"#utility.yul\":13490:13936   */\n    tag_285:\n        /* \"#utility.yul\":13400:13943   */\n      pop\n      pop\n      pop\n      jump\t// out\n        /* \"#utility.yul\":13949:14066   */\n    tag_137:\n        /* \"#utility.yul\":14003:14011   */\n      0x00\n        /* \"#utility.yul\":14053:14058   */\n      dup3\n        /* \"#utility.yul\":14047:14051   */\n      dup3\n        /* \"#utility.yul\":14043:14059   */\n      shr\n        /* \"#utility.yul\":14022:14059   */\n      swap1\n      pop\n        /* \"#utility.yul\":13949:14066   */\n      swap3\n      swap2\n      pop\n      pop\n      jump\t// out\n        /* \"#utility.yul\":14072:14241   */\n    tag_138:\n        /* \"#utility.yul\":14116:14122   */\n      0x00\n        /* \"#utility.yul\":14149:14200   */\n      tag_293\n        /* \"#utility.yul\":14197:14198   */\n      0x00\n        /* \"#utility.yul\":14193:14199   */\n      not\n        /* \"#utility.yul\":14185:14190   */\n      dup5\n        /* \"#utility.yul\":14182:14183   */\n      0x08\n        /* \"#utility.yul\":14178:14191   */\n      mul\n        /* \"#utility.yul\":14149:14200   */\n      tag_137\n      jump\t// in\n    tag_293:\n        /* \"#utility.yul\":14145:14201   */\n      not\n        /* \"#utility.yul\":14230:14234   */\n      dup1\n        /* \"#utility.yul\":14224:14228   */\n      dup4\n        /* \"#utility.yul\":14220:14235   */\n      and\n        /* \"#utility.yul\":14210:14235   */\n      swap2\n      pop\n        /* \"#utility.yul\":14123:14241   */\n      pop\n        /* \"#utility.yul\":14072:14241   */\n      swap3\n      swap2\n      pop\n      pop\n      jump\t// out\n        /* \"#utility.yul\":14246:14541   */\n    tag_139:\n        /* \"#utility.yul\":14322:14326   */\n      0x00\n        /* \"#utility.yul\":14468:14497   */\n      tag_295\n        /* \"#utility.yul\":14493:14496   */\n      dup4\n        /* \"#utility.yul\":14487:14491   */\n      dup4\n        /* \"#utility.yul\":14468:14497   */\n      tag_138\n      jump\t// in\n    tag_295:\n        /* \"#utility.yul\":14460:14497   */\n      swap2\n      pop\n        /* \"#utility.yul\":14530:14533   */\n      dup3\n        /* \"#utility.yul\":14527:14528   */\n      0x02\n        /* \"#utility.yul\":14523:14534   */\n      mul\n        /* \"#utility.yul\":14517:14521   */\n      dup3\n        /* \"#utility.yul\":14514:14535   */\n      or\n        /* \"#utility.yul\":14506:14535   */\n      swap1\n      pop\n        /* \"#utility.yul\":14246:14541   */\n      swap3\n      swap2\n      pop\n      pop\n      jump\t// out\n        /* \"#utility.yul\":14546:15941   */\n    tag_55:\n        /* \"#utility.yul\":14663:14700   */\n      tag_297\n        /* \"#utility.yul\":14696:14699   */\n      dup3\n        /* \"#utility.yul\":14663:14700   */\n      tag_108\n      jump\t// in\n    tag_297:\n        /* \"#utility.yul\":14765:14783   */\n      0xffffffffffffffff\n        /* \"#utility.yul\":14757:14763   */\n      dup2\n        /* \"#utility.yul\":14754:14784   */\n      gt\n        /* \"#utility.yul\":14751:14807   */\n      iszero\n      tag_298\n      jumpi\n        /* \"#utility.yul\":14787:14805   */\n      tag_299\n      tag_101\n      jump\t// in\n    tag_299:\n        /* \"#utility.yul\":14751:14807   */\n    tag_298:\n        /* \"#utility.yul\":14831:14869   */\n      tag_300\n        /* \"#utility.yul\":14863:14867   */\n      dup3\n        /* \"#utility.yul\":14857:14868   */\n      sload\n        /* \"#utility.yul\":14831:14869   */\n      tag_40\n      jump\t// in\n    tag_300:\n        /* \"#utility.yul\":14916:14983   */\n      tag_301\n        /* \"#utility.yul\":14976:14982   */\n      dup3\n        /* \"#utility.yul\":14968:14974   */\n      dup3\n        /* \"#utility.yul\":14962:14966   */\n      dup6\n        /* \"#utility.yul\":14916:14983   */\n      tag_136\n      jump\t// in\n    tag_301:\n        /* \"#utility.yul\":15010:15011   */\n      0x00\n        /* \"#utility.yul\":15034:15038   */\n      0x20\n        /* \"#utility.yul\":15021:15038   */\n      swap1\n      pop\n        /* \"#utility.yul\":15066:15068   */\n      0x1f\n        /* \"#utility.yul\":15058:15064   */\n      dup4\n        /* \"#utility.yul\":15055:15069   */\n      gt\n        /* \"#utility.yul\":15083:15084   */\n      0x01\n        /* \"#utility.yul\":15078:15696   */\n      dup2\n      eq\n      tag_303\n      jumpi\n        /* \"#utility.yul\":15740:15741   */\n      0x00\n        /* \"#utility.yul\":15757:15763   */\n      dup5\n        /* \"#utility.yul\":15754:15831   */\n      iszero\n      tag_304\n      jumpi\n        /* \"#utility.yul\":15806:15815   */\n      dup3\n        /* \"#utility.yul\":15801:15804   */\n      dup8\n        /* \"#utility.yul\":15797:15816   */\n      add\n        /* \"#utility.yul\":15791:15817   */\n      mload\n        /* \"#utility.yul\":15782:15817   */\n      swap1\n      pop\n        /* \"#utility.yul\":15754:15831   */\n    tag_304:\n        /* \"#utility.yul\":15857:15924   */\n      tag_305\n        /* \"#utility.yul\":15917:15923   */\n      dup6\n        /* \"#utility.yul\":15910:15915   */\n      dup3\n        /* \"#utility.yul\":15857:15924   */\n      tag_139\n      jump\t// in\n    tag_305:\n        /* \"#utility.yul\":15851:15855   */\n      dup7\n        /* \"#utility.yul\":15844:15925   */\n      sstore\n        /* \"#utility.yul\":15713:15935   */\n      pop\n        /* \"#utility.yul\":15048:15935   */\n      jump(tag_302)\n        /* \"#utility.yul\":15078:15696   */\n    tag_303:\n        /* \"#utility.yul\":15130:15134   */\n      0x1f\n        /* \"#utility.yul\":15126:15135   */\n      not\n        /* \"#utility.yul\":15118:15124   */\n      dup5\n        /* \"#utility.yul\":15114:15136   */\n      and\n        /* \"#utility.yul\":15164:15201   */\n      tag_306\n        /* \"#utility.yul\":15196:15200   */\n      dup7\n        /* \"#utility.yul\":15164:15201   */\n      tag_123\n      jump\t// in\n    tag_306:\n        /* \"#utility.yul\":15223:15224   */\n      0x00\n        /* \"#utility.yul\":15237:15445   */\n    tag_307:\n        /* \"#utility.yul\":15251:15258   */\n      dup3\n        /* \"#utility.yul\":15248:15249   */\n      dup2\n        /* \"#utility.yul\":15245:15259   */\n      lt\n        /* \"#utility.yul\":15237:15445   */\n      iszero\n      tag_309\n      jumpi\n        /* \"#utility.yul\":15330:15339   */\n      dup5\n        /* \"#utility.yul\":15325:15328   */\n      dup10\n        /* \"#utility.yul\":15321:15340   */\n      add\n        /* \"#utility.yul\":15315:15341   */\n      mload\n        /* \"#utility.yul\":15307:15313   */\n      dup3\n        /* \"#utility.yul\":15300:15342   */\n      sstore\n        /* \"#utility.yul\":15381:15382   */\n      0x01\n        /* \"#utility.yul\":15373:15379   */\n      dup3\n        /* \"#utility.yul\":15369:15383   */\n      add\n        /* \"#utility.yul\":15359:15383   */\n      swap2\n      pop\n        /* \"#utility.yul\":15428:15430   */\n      0x20\n        /* \"#utility.yul\":15417:15426   */\n      dup6\n        /* \"#utility.yul\":15413:15431   */\n      add\n        /* \"#utility.yul\":15400:15431   */\n      swap5\n      pop\n        /* \"#utility.yul\":15274:15278   */\n      0x20\n        /* \"#utility.yul\":15271:15272   */\n      dup2\n        /* \"#utility.yul\":15267:15279   */\n      add\n        /* \"#utility.yul\":15262:15279   */\n      swap1\n      pop\n        /* \"#utility.yul\":15237:15445   */\n      jump(tag_307)\n    tag_309:\n        /* \"#utility.yul\":15473:15479   */\n      dup7\n        /* \"#utility.yul\":15464:15471   */\n      dup4\n        /* \"#utility.yul\":15461:15480   */\n      lt\n        /* \"#utility.yul\":15458:15637   */\n      iszero\n      tag_310\n      jumpi\n        /* \"#utility.yul\":15531:15540   */\n      dup5\n        /* \"#utility.yul\":15526:15529   */\n      dup10\n        /* \"#utility.yul\":15522:15541   */\n      add\n        /* \"#utility.yul\":15516:15542   */\n      mload\n        /* \"#utility.yul\":15574:15622   */\n      tag_311\n        /* \"#utility.yul\":15616:15620   */\n      0x1f\n        /* \"#utility.yul\":15608:15614   */\n      dup10\n        /* \"#utility.yul\":15604:15621   */\n      and\n        /* \"#utility.yul\":15593:15602   */\n      dup3\n        /* \"#utility.yul\":15574:15622   */\n      tag_138\n      jump\t// in\n    tag_311:\n        /* \"#utility.yul\":15566:15572   */\n      dup4\n        /* \"#utility.yul\":15559:15623   */\n      sstore\n        /* \"#utility.yul\":15481:15637   */\n      pop\n        /* \"#utility.yul\":15458:15637   */\n    tag_310:\n        /* \"#utility.yul\":15683:15684   */\n      0x01\n        /* \"#utility.yul\":15679:15680   */\n      0x02\n        /* \"#utility.yul\":15671:15677   */\n      dup9\n        /* \"#utility.yul\":15667:15681   */\n      mul\n        /* \"#utility.yul\":15663:15685   */\n      add\n        /* \"#utility.yul\":15657:15661   */\n      dup9\n        /* \"#utility.yul\":15650:15686   */\n      sstore\n        /* \"#utility.yul\":15085:15696   */\n      pop\n      pop\n      pop\n        /* \"#utility.yul\":15048:15935   */\n    tag_302:\n      pop\n        /* \"#utility.yul\":14638:15941   */\n      pop\n      pop\n      pop\n        /* \"#utility.yul\":14546:15941   */\n      pop\n      pop\n      jump\t// out\n        /* \"#utility.yul\":15947:16461   */\n    tag_60:\n        /* \"#utility.yul\":16108:16112   */\n      0x00\n        /* \"#utility.yul\":16146:16148   */\n      0x40\n        /* \"#utility.yul\":16135:16144   */\n      dup3\n        /* \"#utility.yul\":16131:16149   */\n      add\n        /* \"#utility.yul\":16123:16149   */\n      swap1\n      pop\n        /* \"#utility.yul\":16195:16204   */\n      dup2\n        /* \"#utility.yul\":16189:16193   */\n      dup2\n        /* \"#utility.yul\":16185:16205   */\n      sub\n        /* \"#utility.yul\":16181:16182   */\n      0x00\n        /* \"#utility.yul\":16170:16179   */\n      dup4\n        /* \"#utility.yul\":16166:16183   */\n      add\n        /* \"#utility.yul\":16159:16206   */\n      mstore\n        /* \"#utility.yul\":16223:16301   */\n      tag_313\n        /* \"#utility.yul\":16296:16300   */\n      dup2\n        /* \"#utility.yul\":16287:16293   */\n      dup6\n        /* \"#utility.yul\":16223:16301   */\n      tag_111\n      jump\t// in\n    tag_313:\n        /* \"#utility.yul\":16215:16301   */\n      swap1\n      pop\n        /* \"#utility.yul\":16348:16357   */\n      dup2\n        /* \"#utility.yul\":16342:16346   */\n      dup2\n        /* \"#utility.yul\":16338:16358   */\n      sub\n        /* \"#utility.yul\":16333:16335   */\n      0x20\n        /* \"#utility.yul\":16322:16331   */\n      dup4\n        /* \"#utility.yul\":16318:16336   */\n      add\n        /* \"#utility.yul\":16311:16359   */\n      mstore\n        /* \"#utility.yul\":16376:16454   */\n      tag_314\n        /* \"#utility.yul\":16449:16453   */\n      dup2\n        /* \"#utility.yul\":16440:16446   */\n      dup5\n        /* \"#utility.yul\":16376:16454   */\n      tag_111\n      jump\t// in\n    tag_314:\n        /* \"#utility.yul\":16368:16454   */\n      swap1\n      pop\n        /* \"#utility.yul\":15947:16461   */\n      swap4\n      swap3\n      pop\n      pop\n      pop\n      jump\t// out\n\n    auxdata: 0xa26469706673582212206cfbb160ef6f4029a2a94c5f967cc9d64caa43bb97af4a15ae4df782a8c23e8d64736f6c63430008160033\n}\n",
				"bytecode": {
					"linkReferences": {},
					"object": "608060405234801561000f575f80fd5b506112f98061001d5f395ff3fe608060405234801561000f575f80fd5b5060043610610060575f3560e01c80631c14ce5e1461006457806393e54a5614610094578063a87430ba146100b0578063bcf26770146100e3578063c9ae6b0114610113578063d6098ed614610143575b5f80fd5b61007e60048036038101906100799190610b8f565b61015f565b60405161008b9190610c50565b60405180910390f35b6100ae60048036038101906100a99190610c70565b61047b565b005b6100ca60048036038101906100c59190610d9e565b6105db565b6040516100da9493929190610dc9565b60405180910390f35b6100fd60048036038101906100f89190610b8f565b61081e565b60405161010a9190610e40565b60405180910390f35b61012d60048036038101906101289190610b8f565b61084b565b60405161013a9190610e40565b60405180910390f35b61015d60048036038101906101589190610b8f565b610872565b005b60605f61022f5f803373ffffffffffffffffffffffffffffffffffffffff1673ffffffffffffffffffffffffffffffffffffffff1681526020019081526020015f205f0180546101ae90610e86565b80601f01602080910402602001604051908101604052809291908181526020018280546101da90610e86565b80156102255780601f106101fc57610100808354040283529160200191610225565b820191905f5260205f20905b81548152906001019060200180831161020857829003601f168201915b505050505061084b565b90505f836040516020016102439190610ef0565b60405160208183030381529060405280519060200120821490503373ffffffffffffffffffffffffffffffffffffffff167f7775ed67e23c2440b6947417630709bf46d168bf49cb78497dba7961774d18a1826040516102a39190610f20565b60405180910390a2801561043b573373ffffffffffffffffffffffffffffffffffffffff167fd87f1d46f5aa247eccbd017a5e41772691ba364325463500a4c021126d33c7085f803373ffffffffffffffffffffffffffffffffffffffff1673ffffffffffffffffffffffffffffffffffffffff1681526020019081526020015f205f015f803373ffffffffffffffffffffffffffffffffffffffff1673ffffffffffffffffffffffffffffffffffffffff1681526020019081526020015f206001015f803373ffffffffffffffffffffffffffffffffffffffff1673ffffffffffffffffffffffffffffffffffffffff1681526020019081526020015f206002015f803373ffffffffffffffffffffffffffffffffffffffff1673ffffffffffffffffffffffffffffffffffffffff1681526020019081526020015f206003016040516103f49493929190610fcc565b60405180910390a26040518060400160405280601081526020017f4c6f67696e207375636365737366756c0000000000000000000000000000000081525092505050610476565b6040518060400160405280600281526020017f7b7d000000000000000000000000000000000000000000000000000000000000815250925050505b919050565b5f6040518060800160405280868152602001858152602001848152602001838152509050805f803373ffffffffffffffffffffffffffffffffffffffff1673ffffffffffffffffffffffffffffffffffffffff1681526020019081526020015f205f820151815f0190816104ef91906111bf565b50602082015181600101908161050591906111bf565b50604082015181600201908161051b91906111bf565b50606082015181600301908161053191906111bf565b509050503373ffffffffffffffffffffffffffffffffffffffff167f92822564bab8864c3a47b34e8d23fbce5c46234eb5da261f94087b995ac0f33b868660405161057d92919061128e565b60405180910390a23373ffffffffffffffffffffffffffffffffffffffff167f5bb6eac17d92b21e44c63082807c8b53294b5358da84eabdae451ab0923ea62a60016040516105cc9190610f20565b60405180910390a25050505050565b5f602052805f5260405f205f91509050805f0180546105f990610e86565b80601f016020809104026020016040519081016040528092919081815260200182805461062590610e86565b80156106705780601f1061064757610100808354040283529160200191610670565b820191905f5260205f20905b81548152906001019060200180831161065357829003601f168201915b50505050509080600101805461068590610e86565b80601f01602080910402602001604051908101604052809291908181526020018280546106b190610e86565b80156106fc5780601f106106d3576101008083540402835291602001916106fc565b820191905f5260205f20905b8154815290600101906020018083116106df57829003601f168201915b50505050509080600201805461071190610e86565b80601f016020809104026020016040519081016040528092919081815260200182805461073d90610e86565b80156107885780601f1061075f57610100808354040283529160200191610788565b820191905f5260205f20905b81548152906001019060200180831161076b57829003601f168201915b50505050509080600301805461079d90610e86565b80601f01602080910402602001604051908101604052809291908181526020018280546107c990610e86565b80156108145780601f106107eb57610100808354040283529160200191610814565b820191905f5260205f20905b8154815290600101906020018083116107f757829003601f168201915b5050505050905084565b6001818051602081018201805184825260208301602085012081835280955050505050505f915090505481565b5f60018260405161085c9190610ef0565b9081526020016040518091039020549050919050565b5f805f3373ffffffffffffffffffffffffffffffffffffffff1673ffffffffffffffffffffffffffffffffffffffff1681526020019081526020015f205f0180546108bc90610e86565b80601f01602080910402602001604051908101604052809291908181526020018280546108e890610e86565b80156109335780601f1061090a57610100808354040283529160200191610933565b820191905f5260205f20905b81548152906001019060200180831161091657829003601f168201915b505050505090505f8260405160200161094c9190610ef0565b604051602081830303815290604052805190602001209050806001836040516109759190610ef0565b908152602001604051809103902081905550816040516109959190610ef0565b60405180910390207f2cc085e35e68b4c2aa9d58cba4abde3977efbe55e84fdf4c8589c563686accd460405160405180910390a23373ffffffffffffffffffffffffffffffffffffffff167f9a75b332e5bf551ac57b2603829f37de6b1ac04ca6cf00645896c9fb19c515715f600185604051610a129190610ef0565b908152602001604051809103902050602060ff161415604051610a359190610f20565b60405180910390a2505050565b5f604051905090565b5f80fd5b5f80fd5b5f80fd5b5f80fd5b5f601f19601f8301169050919050565b7f4e487b71000000000000000000000000000000000000000000000000000000005f52604160045260245ffd5b610aa182610a5b565b810181811067ffffffffffffffff82111715610ac057610abf610a6b565b5b80604052505050565b5f610ad2610a42565b9050610ade8282610a98565b919050565b5f67ffffffffffffffff821115610afd57610afc610a6b565b5b610b0682610a5b565b9050602081019050919050565b828183375f83830152505050565b5f610b33610b2e84610ae3565b610ac9565b905082815260208101848484011115610b4f57610b4e610a57565b5b610b5a848285610b13565b509392505050565b5f82601f830112610b7657610b75610a53565b5b8135610b86848260208601610b21565b91505092915050565b5f60208284031215610ba457610ba3610a4b565b5b5f82013567ffffffffffffffff811115610bc157610bc0610a4f565b5b610bcd84828501610b62565b91505092915050565b5f81519050919050565b5f82825260208201905092915050565b5f5b83811015610c0d578082015181840152602081019050610bf2565b5f8484015250505050565b5f610c2282610bd6565b610c2c8185610be0565b9350610c3c818560208601610bf0565b610c4581610a5b565b840191505092915050565b5f6020820190508181035f830152610c688184610c18565b905092915050565b5f805f8060808587031215610c8857610c87610a4b565b5b5f85013567ffffffffffffffff811115610ca557610ca4610a4f565b5b610cb187828801610b62565b945050602085013567ffffffffffffffff811115610cd257610cd1610a4f565b5b610cde87828801610b62565b935050604085013567ffffffffffffffff811115610cff57610cfe610a4f565b5b610d0b87828801610b62565b925050606085013567ffffffffffffffff811115610d2c57610d2b610a4f565b5b610d3887828801610b62565b91505092959194509250565b5f73ffffffffffffffffffffffffffffffffffffffff82169050919050565b5f610d6d82610d44565b9050919050565b610d7d81610d63565b8114610d87575f80fd5b50565b5f81359050610d9881610d74565b92915050565b5f60208284031215610db357610db2610a4b565b5b5f610dc084828501610d8a565b91505092915050565b5f6080820190508181035f830152610de18187610c18565b90508181036020830152610df58186610c18565b90508181036040830152610e098185610c18565b90508181036060830152610e1d8184610c18565b905095945050505050565b5f819050919050565b610e3a81610e28565b82525050565b5f602082019050610e535f830184610e31565b92915050565b7f4e487b71000000000000000000000000000000000000000000000000000000005f52602260045260245ffd5b5f6002820490506001821680610e9d57607f821691505b602082108103610eb057610eaf610e59565b5b50919050565b5f81905092915050565b5f610eca82610bd6565b610ed48185610eb6565b9350610ee4818560208601610bf0565b80840191505092915050565b5f610efb8284610ec0565b915081905092915050565b5f8115159050919050565b610f1a81610f06565b82525050565b5f602082019050610f335f830184610f11565b92915050565b5f819050815f5260205f209050919050565b5f8154610f5781610e86565b610f618186610be0565b9450600182165f8114610f7b5760018114610f9157610fc3565b60ff198316865281151560200286019350610fc3565b610f9a85610f39565b5f5b83811015610fbb57815481890152600182019150602081019050610f9c565b808801955050505b50505092915050565b5f6080820190508181035f830152610fe48187610f4b565b90508181036020830152610ff88186610f4b565b9050818103604083015261100c8185610f4b565b905081810360608301526110208184610f4b565b905095945050505050565b5f6020601f8301049050919050565b5f82821b905092915050565b5f600883026110757fffffffffffffffffffffffffffffffffffffffffffffffffffffffffffffffff8261103a565b61107f868361103a565b95508019841693508086168417925050509392505050565b5f819050919050565b5f819050919050565b5f6110c36110be6110b984611097565b6110a0565b611097565b9050919050565b5f819050919050565b6110dc836110a9565b6110f06110e8826110ca565b848454611046565b825550505050565b5f90565b6111046110f8565b61110f8184846110d3565b505050565b5b81811015611132576111275f826110fc565b600181019050611115565b5050565b601f8211156111775761114881610f39565b6111518461102b565b81016020851015611160578190505b61117461116c8561102b565b830182611114565b50505b505050565b5f82821c905092915050565b5f6111975f198460080261117c565b1980831691505092915050565b5f6111af8383611188565b9150826002028217905092915050565b6111c882610bd6565b67ffffffffffffffff8111156111e1576111e0610a6b565b5b6111eb8254610e86565b6111f6828285611136565b5f60209050601f831160018114611227575f8415611215578287015190505b61121f85826111a4565b865550611286565b601f19841661123586610f39565b5f5b8281101561125c57848901518255600182019150602085019450602081019050611237565b868310156112795784890151611275601f891682611188565b8355505b6001600288020188555050505b505050505050565b5f6040820190508181035f8301526112a68185610c18565b905081810360208301526112ba8184610c18565b9050939250505056fea26469706673582212206cfbb160ef6f4029a2a94c5f967cc9d64caa43bb97af4a15ae4df782a8c23e8d64736f6c63430008160033",
					"opcodes": "PUSH1 0x80 PUSH1 0x40 MSTORE CALLVALUE DUP1 ISZERO PUSH2 0xF JUMPI PUSH0 DUP1 REVERT JUMPDEST POP PUSH2 0x12F9 DUP1 PUSH2 0x1D PUSH0 CODECOPY PUSH0 RETURN INVALID PUSH1 0x80 PUSH1 0x40 MSTORE CALLVALUE DUP1 ISZERO PUSH2 0xF JUMPI PUSH0 DUP1 REVERT JUMPDEST POP PUSH1 0x4 CALLDATASIZE LT PUSH2 0x60 JUMPI PUSH0 CALLDATALOAD PUSH1 0xE0 SHR DUP1 PUSH4 0x1C14CE5E EQ PUSH2 0x64 JUMPI DUP1 PUSH4 0x93E54A56 EQ PUSH2 0x94 JUMPI DUP1 PUSH4 0xA87430BA EQ PUSH2 0xB0 JUMPI DUP1 PUSH4 0xBCF26770 EQ PUSH2 0xE3 JUMPI DUP1 PUSH4 0xC9AE6B01 EQ PUSH2 0x113 JUMPI DUP1 PUSH4 0xD6098ED6 EQ PUSH2 0x143 JUMPI JUMPDEST PUSH0 DUP1 REVERT JUMPDEST PUSH2 0x7E PUSH1 0x4 DUP1 CALLDATASIZE SUB DUP2 ADD SWAP1 PUSH2 0x79 SWAP2 SWAP1 PUSH2 0xB8F JUMP JUMPDEST PUSH2 0x15F JUMP JUMPDEST PUSH1 0x40 MLOAD PUSH2 0x8B SWAP2 SWAP1 PUSH2 0xC50 JUMP JUMPDEST PUSH1 0x40 MLOAD DUP1 SWAP2 SUB SWAP1 RETURN JUMPDEST PUSH2 0xAE PUSH1 0x4 DUP1 CALLDATASIZE SUB DUP2 ADD SWAP1 PUSH2 0xA9 SWAP2 SWAP1 PUSH2 0xC70 JUMP JUMPDEST PUSH2 0x47B JUMP JUMPDEST STOP JUMPDEST PUSH2 0xCA PUSH1 0x4 DUP1 CALLDATASIZE SUB DUP2 ADD SWAP1 PUSH2 0xC5 SWAP2 SWAP1 PUSH2 0xD9E JUMP JUMPDEST PUSH2 0x5DB JUMP JUMPDEST PUSH1 0x40 MLOAD PUSH2 0xDA SWAP5 SWAP4 SWAP3 SWAP2 SWAP1 PUSH2 0xDC9 JUMP JUMPDEST PUSH1 0x40 MLOAD DUP1 SWAP2 SUB SWAP1 RETURN JUMPDEST PUSH2 0xFD PUSH1 0x4 DUP1 CALLDATASIZE SUB DUP2 ADD SWAP1 PUSH2 0xF8 SWAP2 SWAP1 PUSH2 0xB8F JUMP JUMPDEST PUSH2 0x81E JUMP JUMPDEST PUSH1 0x40 MLOAD PUSH2 0x10A SWAP2 SWAP1 PUSH2 0xE40 JUMP JUMPDEST PUSH1 0x40 MLOAD DUP1 SWAP2 SUB SWAP1 RETURN JUMPDEST PUSH2 0x12D PUSH1 0x4 DUP1 CALLDATASIZE SUB DUP2 ADD SWAP1 PUSH2 0x128 SWAP2 SWAP1 PUSH2 0xB8F JUMP JUMPDEST PUSH2 0x84B JUMP JUMPDEST PUSH1 0x40 MLOAD PUSH2 0x13A SWAP2 SWAP1 PUSH2 0xE40 JUMP JUMPDEST PUSH1 0x40 MLOAD DUP1 SWAP2 SUB SWAP1 RETURN JUMPDEST PUSH2 0x15D PUSH1 0x4 DUP1 CALLDATASIZE SUB DUP2 ADD SWAP1 PUSH2 0x158 SWAP2 SWAP1 PUSH2 0xB8F JUMP JUMPDEST PUSH2 0x872 JUMP JUMPDEST STOP JUMPDEST PUSH1 0x60 PUSH0 PUSH2 0x22F PUSH0 DUP1 CALLER PUSH20 0xFFFFFFFFFFFFFFFFFFFFFFFFFFFFFFFFFFFFFFFF AND PUSH20 0xFFFFFFFFFFFFFFFFFFFFFFFFFFFFFFFFFFFFFFFF AND DUP2 MSTORE PUSH1 0x20 ADD SWAP1 DUP2 MSTORE PUSH1 0x20 ADD PUSH0 KECCAK256 PUSH0 ADD DUP1 SLOAD PUSH2 0x1AE SWAP1 PUSH2 0xE86 JUMP JUMPDEST DUP1 PUSH1 0x1F ADD PUSH1 0x20 DUP1 SWAP2 DIV MUL PUSH1 0x20 ADD PUSH1 0x40 MLOAD SWAP1 DUP2 ADD PUSH1 0x40 MSTORE DUP1 SWAP3 SWAP2 SWAP1 DUP2 DUP2 MSTORE PUSH1 0x20 ADD DUP3 DUP1 SLOAD PUSH2 0x1DA SWAP1 PUSH2 0xE86 JUMP JUMPDEST DUP1 ISZERO PUSH2 0x225 JUMPI DUP1 PUSH1 0x1F LT PUSH2 0x1FC JUMPI PUSH2 0x100 DUP1 DUP4 SLOAD DIV MUL DUP4 MSTORE SWAP2 PUSH1 0x20 ADD SWAP2 PUSH2 0x225 JUMP JUMPDEST DUP3 ADD SWAP2 SWAP1 PUSH0 MSTORE PUSH1 0x20 PUSH0 KECCAK256 SWAP1 JUMPDEST DUP2 SLOAD DUP2 MSTORE SWAP1 PUSH1 0x1 ADD SWAP1 PUSH1 0x20 ADD DUP1 DUP4 GT PUSH2 0x208 JUMPI DUP3 SWAP1 SUB PUSH1 0x1F AND DUP3 ADD SWAP2 JUMPDEST POP POP POP POP POP PUSH2 0x84B JUMP JUMPDEST SWAP1 POP PUSH0 DUP4 PUSH1 0x40 MLOAD PUSH1 0x20 ADD PUSH2 0x243 SWAP2 SWAP1 PUSH2 0xEF0 JUMP JUMPDEST PUSH1 0x40 MLOAD PUSH1 0x20 DUP2 DUP4 SUB SUB DUP2 MSTORE SWAP1 PUSH1 0x40 MSTORE DUP1 MLOAD SWAP1 PUSH1 0x20 ADD KECCAK256 DUP3 EQ SWAP1 POP CALLER PUSH20 0xFFFFFFFFFFFFFFFFFFFFFFFFFFFFFFFFFFFFFFFF AND PUSH32 0x7775ED67E23C2440B6947417630709BF46D168BF49CB78497DBA7961774D18A1 DUP3 PUSH1 0x40 MLOAD PUSH2 0x2A3 SWAP2 SWAP1 PUSH2 0xF20 JUMP JUMPDEST PUSH1 0x40 MLOAD DUP1 SWAP2 SUB SWAP1 LOG2 DUP1 ISZERO PUSH2 0x43B JUMPI CALLER PUSH20 0xFFFFFFFFFFFFFFFFFFFFFFFFFFFFFFFFFFFFFFFF AND PUSH32 0xD87F1D46F5AA247ECCBD017A5E41772691BA364325463500A4C021126D33C708 PUSH0 DUP1 CALLER PUSH20 0xFFFFFFFFFFFFFFFFFFFFFFFFFFFFFFFFFFFFFFFF AND PUSH20 0xFFFFFFFFFFFFFFFFFFFFFFFFFFFFFFFFFFFFFFFF AND DUP2 MSTORE PUSH1 0x20 ADD SWAP1 DUP2 MSTORE PUSH1 0x20 ADD PUSH0 KECCAK256 PUSH0 ADD PUSH0 DUP1 CALLER PUSH20 0xFFFFFFFFFFFFFFFFFFFFFFFFFFFFFFFFFFFFFFFF AND PUSH20 0xFFFFFFFFFFFFFFFFFFFFFFFFFFFFFFFFFFFFFFFF AND DUP2 MSTORE PUSH1 0x20 ADD SWAP1 DUP2 MSTORE PUSH1 0x20 ADD PUSH0 KECCAK256 PUSH1 0x1 ADD PUSH0 DUP1 CALLER PUSH20 0xFFFFFFFFFFFFFFFFFFFFFFFFFFFFFFFFFFFFFFFF AND PUSH20 0xFFFFFFFFFFFFFFFFFFFFFFFFFFFFFFFFFFFFFFFF AND DUP2 MSTORE PUSH1 0x20 ADD SWAP1 DUP2 MSTORE PUSH1 0x20 ADD PUSH0 KECCAK256 PUSH1 0x2 ADD PUSH0 DUP1 CALLER PUSH20 0xFFFFFFFFFFFFFFFFFFFFFFFFFFFFFFFFFFFFFFFF AND PUSH20 0xFFFFFFFFFFFFFFFFFFFFFFFFFFFFFFFFFFFFFFFF AND DUP2 MSTORE PUSH1 0x20 ADD SWAP1 DUP2 MSTORE PUSH1 0x20 ADD PUSH0 KECCAK256 PUSH1 0x3 ADD PUSH1 0x40 MLOAD PUSH2 0x3F4 SWAP5 SWAP4 SWAP3 SWAP2 SWAP1 PUSH2 0xFCC JUMP JUMPDEST PUSH1 0x40 MLOAD DUP1 SWAP2 SUB SWAP1 LOG2 PUSH1 0x40 MLOAD DUP1 PUSH1 0x40 ADD PUSH1 0x40 MSTORE DUP1 PUSH1 0x10 DUP2 MSTORE PUSH1 0x20 ADD PUSH32 0x4C6F67696E207375636365737366756C00000000000000000000000000000000 DUP2 MSTORE POP SWAP3 POP POP POP PUSH2 0x476 JUMP JUMPDEST PUSH1 0x40 MLOAD DUP1 PUSH1 0x40 ADD PUSH1 0x40 MSTORE DUP1 PUSH1 0x2 DUP2 MSTORE PUSH1 0x20 ADD PUSH32 0x7B7D000000000000000000000000000000000000000000000000000000000000 DUP2 MSTORE POP SWAP3 POP POP POP JUMPDEST SWAP2 SWAP1 POP JUMP JUMPDEST PUSH0 PUSH1 0x40 MLOAD DUP1 PUSH1 0x80 ADD PUSH1 0x40 MSTORE DUP1 DUP7 DUP2 MSTORE PUSH1 0x20 ADD DUP6 DUP2 MSTORE PUSH1 0x20 ADD DUP5 DUP2 MSTORE PUSH1 0x20 ADD DUP4 DUP2 MSTORE POP SWAP1 POP DUP1 PUSH0 DUP1 CALLER PUSH20 0xFFFFFFFFFFFFFFFFFFFFFFFFFFFFFFFFFFFFFFFF AND PUSH20 0xFFFFFFFFFFFFFFFFFFFFFFFFFFFFFFFFFFFFFFFF AND DUP2 MSTORE PUSH1 0x20 ADD SWAP1 DUP2 MSTORE PUSH1 0x20 ADD PUSH0 KECCAK256 PUSH0 DUP3 ADD MLOAD DUP2 PUSH0 ADD SWAP1 DUP2 PUSH2 0x4EF SWAP2 SWAP1 PUSH2 0x11BF JUMP JUMPDEST POP PUSH1 0x20 DUP3 ADD MLOAD DUP2 PUSH1 0x1 ADD SWAP1 DUP2 PUSH2 0x505 SWAP2 SWAP1 PUSH2 0x11BF JUMP JUMPDEST POP PUSH1 0x40 DUP3 ADD MLOAD DUP2 PUSH1 0x2 ADD SWAP1 DUP2 PUSH2 0x51B SWAP2 SWAP1 PUSH2 0x11BF JUMP JUMPDEST POP PUSH1 0x60 DUP3 ADD MLOAD DUP2 PUSH1 0x3 ADD SWAP1 DUP2 PUSH2 0x531 SWAP2 SWAP1 PUSH2 0x11BF JUMP JUMPDEST POP SWAP1 POP POP CALLER PUSH20 0xFFFFFFFFFFFFFFFFFFFFFFFFFFFFFFFFFFFFFFFF AND PUSH32 0x92822564BAB8864C3A47B34E8D23FBCE5C46234EB5DA261F94087B995AC0F33B DUP7 DUP7 PUSH1 0x40 MLOAD PUSH2 0x57D SWAP3 SWAP2 SWAP1 PUSH2 0x128E JUMP JUMPDEST PUSH1 0x40 MLOAD DUP1 SWAP2 SUB SWAP1 LOG2 CALLER PUSH20 0xFFFFFFFFFFFFFFFFFFFFFFFFFFFFFFFFFFFFFFFF AND PUSH32 0x5BB6EAC17D92B21E44C63082807C8B53294B5358DA84EABDAE451AB0923EA62A PUSH1 0x1 PUSH1 0x40 MLOAD PUSH2 0x5CC SWAP2 SWAP1 PUSH2 0xF20 JUMP JUMPDEST PUSH1 0x40 MLOAD DUP1 SWAP2 SUB SWAP1 LOG2 POP POP POP POP POP JUMP JUMPDEST PUSH0 PUSH1 0x20 MSTORE DUP1 PUSH0 MSTORE PUSH1 0x40 PUSH0 KECCAK256 PUSH0 SWAP2 POP SWAP1 POP DUP1 PUSH0 ADD DUP1 SLOAD PUSH2 0x5F9 SWAP1 PUSH2 0xE86 JUMP JUMPDEST DUP1 PUSH1 0x1F ADD PUSH1 0x20 DUP1 SWAP2 DIV MUL PUSH1 0x20 ADD PUSH1 0x40 MLOAD SWAP1 DUP2 ADD PUSH1 0x40 MSTORE DUP1 SWAP3 SWAP2 SWAP1 DUP2 DUP2 MSTORE PUSH1 0x20 ADD DUP3 DUP1 SLOAD PUSH2 0x625 SWAP1 PUSH2 0xE86 JUMP JUMPDEST DUP1 ISZERO PUSH2 0x670 JUMPI DUP1 PUSH1 0x1F LT PUSH2 0x647 JUMPI PUSH2 0x100 DUP1 DUP4 SLOAD DIV MUL DUP4 MSTORE SWAP2 PUSH1 0x20 ADD SWAP2 PUSH2 0x670 JUMP JUMPDEST DUP3 ADD SWAP2 SWAP1 PUSH0 MSTORE PUSH1 0x20 PUSH0 KECCAK256 SWAP1 JUMPDEST DUP2 SLOAD DUP2 MSTORE SWAP1 PUSH1 0x1 ADD SWAP1 PUSH1 0x20 ADD DUP1 DUP4 GT PUSH2 0x653 JUMPI DUP3 SWAP1 SUB PUSH1 0x1F AND DUP3 ADD SWAP2 JUMPDEST POP POP POP POP POP SWAP1 DUP1 PUSH1 0x1 ADD DUP1 SLOAD PUSH2 0x685 SWAP1 PUSH2 0xE86 JUMP JUMPDEST DUP1 PUSH1 0x1F ADD PUSH1 0x20 DUP1 SWAP2 DIV MUL PUSH1 0x20 ADD PUSH1 0x40 MLOAD SWAP1 DUP2 ADD PUSH1 0x40 MSTORE DUP1 SWAP3 SWAP2 SWAP1 DUP2 DUP2 MSTORE PUSH1 0x20 ADD DUP3 DUP1 SLOAD PUSH2 0x6B1 SWAP1 PUSH2 0xE86 JUMP JUMPDEST DUP1 ISZERO PUSH2 0x6FC JUMPI DUP1 PUSH1 0x1F LT PUSH2 0x6D3 JUMPI PUSH2 0x100 DUP1 DUP4 SLOAD DIV MUL DUP4 MSTORE SWAP2 PUSH1 0x20 ADD SWAP2 PUSH2 0x6FC JUMP JUMPDEST DUP3 ADD SWAP2 SWAP1 PUSH0 MSTORE PUSH1 0x20 PUSH0 KECCAK256 SWAP1 JUMPDEST DUP2 SLOAD DUP2 MSTORE SWAP1 PUSH1 0x1 ADD SWAP1 PUSH1 0x20 ADD DUP1 DUP4 GT PUSH2 0x6DF JUMPI DUP3 SWAP1 SUB PUSH1 0x1F AND DUP3 ADD SWAP2 JUMPDEST POP POP POP POP POP SWAP1 DUP1 PUSH1 0x2 ADD DUP1 SLOAD PUSH2 0x711 SWAP1 PUSH2 0xE86 JUMP JUMPDEST DUP1 PUSH1 0x1F ADD PUSH1 0x20 DUP1 SWAP2 DIV MUL PUSH1 0x20 ADD PUSH1 0x40 MLOAD SWAP1 DUP2 ADD PUSH1 0x40 MSTORE DUP1 SWAP3 SWAP2 SWAP1 DUP2 DUP2 MSTORE PUSH1 0x20 ADD DUP3 DUP1 SLOAD PUSH2 0x73D SWAP1 PUSH2 0xE86 JUMP JUMPDEST DUP1 ISZERO PUSH2 0x788 JUMPI DUP1 PUSH1 0x1F LT PUSH2 0x75F JUMPI PUSH2 0x100 DUP1 DUP4 SLOAD DIV MUL DUP4 MSTORE SWAP2 PUSH1 0x20 ADD SWAP2 PUSH2 0x788 JUMP JUMPDEST DUP3 ADD SWAP2 SWAP1 PUSH0 MSTORE PUSH1 0x20 PUSH0 KECCAK256 SWAP1 JUMPDEST DUP2 SLOAD DUP2 MSTORE SWAP1 PUSH1 0x1 ADD SWAP1 PUSH1 0x20 ADD DUP1 DUP4 GT PUSH2 0x76B JUMPI DUP3 SWAP1 SUB PUSH1 0x1F AND DUP3 ADD SWAP2 JUMPDEST POP POP POP POP POP SWAP1 DUP1 PUSH1 0x3 ADD DUP1 SLOAD PUSH2 0x79D SWAP1 PUSH2 0xE86 JUMP JUMPDEST DUP1 PUSH1 0x1F ADD PUSH1 0x20 DUP1 SWAP2 DIV MUL PUSH1 0x20 ADD PUSH1 0x40 MLOAD SWAP1 DUP2 ADD PUSH1 0x40 MSTORE DUP1 SWAP3 SWAP2 SWAP1 DUP2 DUP2 MSTORE PUSH1 0x20 ADD DUP3 DUP1 SLOAD PUSH2 0x7C9 SWAP1 PUSH2 0xE86 JUMP JUMPDEST DUP1 ISZERO PUSH2 0x814 JUMPI DUP1 PUSH1 0x1F LT PUSH2 0x7EB JUMPI PUSH2 0x100 DUP1 DUP4 SLOAD DIV MUL DUP4 MSTORE SWAP2 PUSH1 0x20 ADD SWAP2 PUSH2 0x814 JUMP JUMPDEST DUP3 ADD SWAP2 SWAP1 PUSH0 MSTORE PUSH1 0x20 PUSH0 KECCAK256 SWAP1 JUMPDEST DUP2 SLOAD DUP2 MSTORE SWAP1 PUSH1 0x1 ADD SWAP1 PUSH1 0x20 ADD DUP1 DUP4 GT PUSH2 0x7F7 JUMPI DUP3 SWAP1 SUB PUSH1 0x1F AND DUP3 ADD SWAP2 JUMPDEST POP POP POP POP POP SWAP1 POP DUP5 JUMP JUMPDEST PUSH1 0x1 DUP2 DUP1 MLOAD PUSH1 0x20 DUP2 ADD DUP3 ADD DUP1 MLOAD DUP5 DUP3 MSTORE PUSH1 0x20 DUP4 ADD PUSH1 0x20 DUP6 ADD KECCAK256 DUP2 DUP4 MSTORE DUP1 SWAP6 POP POP POP POP POP POP PUSH0 SWAP2 POP SWAP1 POP SLOAD DUP2 JUMP JUMPDEST PUSH0 PUSH1 0x1 DUP3 PUSH1 0x40 MLOAD PUSH2 0x85C SWAP2 SWAP1 PUSH2 0xEF0 JUMP JUMPDEST SWAP1 DUP2 MSTORE PUSH1 0x20 ADD PUSH1 0x40 MLOAD DUP1 SWAP2 SUB SWAP1 KECCAK256 SLOAD SWAP1 POP SWAP2 SWAP1 POP JUMP JUMPDEST PUSH0 DUP1 PUSH0 CALLER PUSH20 0xFFFFFFFFFFFFFFFFFFFFFFFFFFFFFFFFFFFFFFFF AND PUSH20 0xFFFFFFFFFFFFFFFFFFFFFFFFFFFFFFFFFFFFFFFF AND DUP2 MSTORE PUSH1 0x20 ADD SWAP1 DUP2 MSTORE PUSH1 0x20 ADD PUSH0 KECCAK256 PUSH0 ADD DUP1 SLOAD PUSH2 0x8BC SWAP1 PUSH2 0xE86 JUMP JUMPDEST DUP1 PUSH1 0x1F ADD PUSH1 0x20 DUP1 SWAP2 DIV MUL PUSH1 0x20 ADD PUSH1 0x40 MLOAD SWAP1 DUP2 ADD PUSH1 0x40 MSTORE DUP1 SWAP3 SWAP2 SWAP1 DUP2 DUP2 MSTORE PUSH1 0x20 ADD DUP3 DUP1 SLOAD PUSH2 0x8E8 SWAP1 PUSH2 0xE86 JUMP JUMPDEST DUP1 ISZERO PUSH2 0x933 JUMPI DUP1 PUSH1 0x1F LT PUSH2 0x90A JUMPI PUSH2 0x100 DUP1 DUP4 SLOAD DIV MUL DUP4 MSTORE SWAP2 PUSH1 0x20 ADD SWAP2 PUSH2 0x933 JUMP JUMPDEST DUP3 ADD SWAP2 SWAP1 PUSH0 MSTORE PUSH1 0x20 PUSH0 KECCAK256 SWAP1 JUMPDEST DUP2 SLOAD DUP2 MSTORE SWAP1 PUSH1 0x1 ADD SWAP1 PUSH1 0x20 ADD DUP1 DUP4 GT PUSH2 0x916 JUMPI DUP3 SWAP1 SUB PUSH1 0x1F AND DUP3 ADD SWAP2 JUMPDEST POP POP POP POP POP SWAP1 POP PUSH0 DUP3 PUSH1 0x40 MLOAD PUSH1 0x20 ADD PUSH2 0x94C SWAP2 SWAP1 PUSH2 0xEF0 JUMP JUMPDEST PUSH1 0x40 MLOAD PUSH1 0x20 DUP2 DUP4 SUB SUB DUP2 MSTORE SWAP1 PUSH1 0x40 MSTORE DUP1 MLOAD SWAP1 PUSH1 0x20 ADD KECCAK256 SWAP1 POP DUP1 PUSH1 0x1 DUP4 PUSH1 0x40 MLOAD PUSH2 0x975 SWAP2 SWAP1 PUSH2 0xEF0 JUMP JUMPDEST SWAP1 DUP2 MSTORE PUSH1 0x20 ADD PUSH1 0x40 MLOAD DUP1 SWAP2 SUB SWAP1 KECCAK256 DUP2 SWAP1 SSTORE POP DUP2 PUSH1 0x40 MLOAD PUSH2 0x995 SWAP2 SWAP1 PUSH2 0xEF0 JUMP JUMPDEST PUSH1 0x40 MLOAD DUP1 SWAP2 SUB SWAP1 KECCAK256 PUSH32 0x2CC085E35E68B4C2AA9D58CBA4ABDE3977EFBE55E84FDF4C8589C563686ACCD4 PUSH1 0x40 MLOAD PUSH1 0x40 MLOAD DUP1 SWAP2 SUB SWAP1 LOG2 CALLER PUSH20 0xFFFFFFFFFFFFFFFFFFFFFFFFFFFFFFFFFFFFFFFF AND PUSH32 0x9A75B332E5BF551AC57B2603829F37DE6B1AC04CA6CF00645896C9FB19C51571 PUSH0 PUSH1 0x1 DUP6 PUSH1 0x40 MLOAD PUSH2 0xA12 SWAP2 SWAP1 PUSH2 0xEF0 JUMP JUMPDEST SWAP1 DUP2 MSTORE PUSH1 0x20 ADD PUSH1 0x40 MLOAD DUP1 SWAP2 SUB SWAP1 KECCAK256 POP PUSH1 0x20 PUSH1 0xFF AND EQ ISZERO PUSH1 0x40 MLOAD PUSH2 0xA35 SWAP2 SWAP1 PUSH2 0xF20 JUMP JUMPDEST PUSH1 0x40 MLOAD DUP1 SWAP2 SUB SWAP1 LOG2 POP POP POP JUMP JUMPDEST PUSH0 PUSH1 0x40 MLOAD SWAP1 POP SWAP1 JUMP JUMPDEST PUSH0 DUP1 REVERT JUMPDEST PUSH0 DUP1 REVERT JUMPDEST PUSH0 DUP1 REVERT JUMPDEST PUSH0 DUP1 REVERT JUMPDEST PUSH0 PUSH1 0x1F NOT PUSH1 0x1F DUP4 ADD AND SWAP1 POP SWAP2 SWAP1 POP JUMP JUMPDEST PUSH32 0x4E487B7100000000000000000000000000000000000000000000000000000000 PUSH0 MSTORE PUSH1 0x41 PUSH1 0x4 MSTORE PUSH1 0x24 PUSH0 REVERT JUMPDEST PUSH2 0xAA1 DUP3 PUSH2 0xA5B JUMP JUMPDEST DUP2 ADD DUP2 DUP2 LT PUSH8 0xFFFFFFFFFFFFFFFF DUP3 GT OR ISZERO PUSH2 0xAC0 JUMPI PUSH2 0xABF PUSH2 0xA6B JUMP JUMPDEST JUMPDEST DUP1 PUSH1 0x40 MSTORE POP POP POP JUMP JUMPDEST PUSH0 PUSH2 0xAD2 PUSH2 0xA42 JUMP JUMPDEST SWAP1 POP PUSH2 0xADE DUP3 DUP3 PUSH2 0xA98 JUMP JUMPDEST SWAP2 SWAP1 POP JUMP JUMPDEST PUSH0 PUSH8 0xFFFFFFFFFFFFFFFF DUP3 GT ISZERO PUSH2 0xAFD JUMPI PUSH2 0xAFC PUSH2 0xA6B JUMP JUMPDEST JUMPDEST PUSH2 0xB06 DUP3 PUSH2 0xA5B JUMP JUMPDEST SWAP1 POP PUSH1 0x20 DUP2 ADD SWAP1 POP SWAP2 SWAP1 POP JUMP JUMPDEST DUP3 DUP2 DUP4 CALLDATACOPY PUSH0 DUP4 DUP4 ADD MSTORE POP POP POP JUMP JUMPDEST PUSH0 PUSH2 0xB33 PUSH2 0xB2E DUP5 PUSH2 0xAE3 JUMP JUMPDEST PUSH2 0xAC9 JUMP JUMPDEST SWAP1 POP DUP3 DUP2 MSTORE PUSH1 0x20 DUP2 ADD DUP5 DUP5 DUP5 ADD GT ISZERO PUSH2 0xB4F JUMPI PUSH2 0xB4E PUSH2 0xA57 JUMP JUMPDEST JUMPDEST PUSH2 0xB5A DUP5 DUP3 DUP6 PUSH2 0xB13 JUMP JUMPDEST POP SWAP4 SWAP3 POP POP POP JUMP JUMPDEST PUSH0 DUP3 PUSH1 0x1F DUP4 ADD SLT PUSH2 0xB76 JUMPI PUSH2 0xB75 PUSH2 0xA53 JUMP JUMPDEST JUMPDEST DUP2 CALLDATALOAD PUSH2 0xB86 DUP5 DUP3 PUSH1 0x20 DUP7 ADD PUSH2 0xB21 JUMP JUMPDEST SWAP2 POP POP SWAP3 SWAP2 POP POP JUMP JUMPDEST PUSH0 PUSH1 0x20 DUP3 DUP5 SUB SLT ISZERO PUSH2 0xBA4 JUMPI PUSH2 0xBA3 PUSH2 0xA4B JUMP JUMPDEST JUMPDEST PUSH0 DUP3 ADD CALLDATALOAD PUSH8 0xFFFFFFFFFFFFFFFF DUP2 GT ISZERO PUSH2 0xBC1 JUMPI PUSH2 0xBC0 PUSH2 0xA4F JUMP JUMPDEST JUMPDEST PUSH2 0xBCD DUP5 DUP3 DUP6 ADD PUSH2 0xB62 JUMP JUMPDEST SWAP2 POP POP SWAP3 SWAP2 POP POP JUMP JUMPDEST PUSH0 DUP2 MLOAD SWAP1 POP SWAP2 SWAP1 POP JUMP JUMPDEST PUSH0 DUP3 DUP3 MSTORE PUSH1 0x20 DUP3 ADD SWAP1 POP SWAP3 SWAP2 POP POP JUMP JUMPDEST PUSH0 JUMPDEST DUP4 DUP2 LT ISZERO PUSH2 0xC0D JUMPI DUP1 DUP3 ADD MLOAD DUP2 DUP5 ADD MSTORE PUSH1 0x20 DUP2 ADD SWAP1 POP PUSH2 0xBF2 JUMP JUMPDEST PUSH0 DUP5 DUP5 ADD MSTORE POP POP POP POP JUMP JUMPDEST PUSH0 PUSH2 0xC22 DUP3 PUSH2 0xBD6 JUMP JUMPDEST PUSH2 0xC2C DUP2 DUP6 PUSH2 0xBE0 JUMP JUMPDEST SWAP4 POP PUSH2 0xC3C DUP2 DUP6 PUSH1 0x20 DUP7 ADD PUSH2 0xBF0 JUMP JUMPDEST PUSH2 0xC45 DUP2 PUSH2 0xA5B JUMP JUMPDEST DUP5 ADD SWAP2 POP POP SWAP3 SWAP2 POP POP JUMP JUMPDEST PUSH0 PUSH1 0x20 DUP3 ADD SWAP1 POP DUP2 DUP2 SUB PUSH0 DUP4 ADD MSTORE PUSH2 0xC68 DUP2 DUP5 PUSH2 0xC18 JUMP JUMPDEST SWAP1 POP SWAP3 SWAP2 POP POP JUMP JUMPDEST PUSH0 DUP1 PUSH0 DUP1 PUSH1 0x80 DUP6 DUP8 SUB SLT ISZERO PUSH2 0xC88 JUMPI PUSH2 0xC87 PUSH2 0xA4B JUMP JUMPDEST JUMPDEST PUSH0 DUP6 ADD CALLDATALOAD PUSH8 0xFFFFFFFFFFFFFFFF DUP2 GT ISZERO PUSH2 0xCA5 JUMPI PUSH2 0xCA4 PUSH2 0xA4F JUMP JUMPDEST JUMPDEST PUSH2 0xCB1 DUP8 DUP3 DUP9 ADD PUSH2 0xB62 JUMP JUMPDEST SWAP5 POP POP PUSH1 0x20 DUP6 ADD CALLDATALOAD PUSH8 0xFFFFFFFFFFFFFFFF DUP2 GT ISZERO PUSH2 0xCD2 JUMPI PUSH2 0xCD1 PUSH2 0xA4F JUMP JUMPDEST JUMPDEST PUSH2 0xCDE DUP8 DUP3 DUP9 ADD PUSH2 0xB62 JUMP JUMPDEST SWAP4 POP POP PUSH1 0x40 DUP6 ADD CALLDATALOAD PUSH8 0xFFFFFFFFFFFFFFFF DUP2 GT ISZERO PUSH2 0xCFF JUMPI PUSH2 0xCFE PUSH2 0xA4F JUMP JUMPDEST JUMPDEST PUSH2 0xD0B DUP8 DUP3 DUP9 ADD PUSH2 0xB62 JUMP JUMPDEST SWAP3 POP POP PUSH1 0x60 DUP6 ADD CALLDATALOAD PUSH8 0xFFFFFFFFFFFFFFFF DUP2 GT ISZERO PUSH2 0xD2C JUMPI PUSH2 0xD2B PUSH2 0xA4F JUMP JUMPDEST JUMPDEST PUSH2 0xD38 DUP8 DUP3 DUP9 ADD PUSH2 0xB62 JUMP JUMPDEST SWAP2 POP POP SWAP3 SWAP6 SWAP2 SWAP5 POP SWAP3 POP JUMP JUMPDEST PUSH0 PUSH20 0xFFFFFFFFFFFFFFFFFFFFFFFFFFFFFFFFFFFFFFFF DUP3 AND SWAP1 POP SWAP2 SWAP1 POP JUMP JUMPDEST PUSH0 PUSH2 0xD6D DUP3 PUSH2 0xD44 JUMP JUMPDEST SWAP1 POP SWAP2 SWAP1 POP JUMP JUMPDEST PUSH2 0xD7D DUP2 PUSH2 0xD63 JUMP JUMPDEST DUP2 EQ PUSH2 0xD87 JUMPI PUSH0 DUP1 REVERT JUMPDEST POP JUMP JUMPDEST PUSH0 DUP2 CALLDATALOAD SWAP1 POP PUSH2 0xD98 DUP2 PUSH2 0xD74 JUMP JUMPDEST SWAP3 SWAP2 POP POP JUMP JUMPDEST PUSH0 PUSH1 0x20 DUP3 DUP5 SUB SLT ISZERO PUSH2 0xDB3 JUMPI PUSH2 0xDB2 PUSH2 0xA4B JUMP JUMPDEST JUMPDEST PUSH0 PUSH2 0xDC0 DUP5 DUP3 DUP6 ADD PUSH2 0xD8A JUMP JUMPDEST SWAP2 POP POP SWAP3 SWAP2 POP POP JUMP JUMPDEST PUSH0 PUSH1 0x80 DUP3 ADD SWAP1 POP DUP2 DUP2 SUB PUSH0 DUP4 ADD MSTORE PUSH2 0xDE1 DUP2 DUP8 PUSH2 0xC18 JUMP JUMPDEST SWAP1 POP DUP2 DUP2 SUB PUSH1 0x20 DUP4 ADD MSTORE PUSH2 0xDF5 DUP2 DUP7 PUSH2 0xC18 JUMP JUMPDEST SWAP1 POP DUP2 DUP2 SUB PUSH1 0x40 DUP4 ADD MSTORE PUSH2 0xE09 DUP2 DUP6 PUSH2 0xC18 JUMP JUMPDEST SWAP1 POP DUP2 DUP2 SUB PUSH1 0x60 DUP4 ADD MSTORE PUSH2 0xE1D DUP2 DUP5 PUSH2 0xC18 JUMP JUMPDEST SWAP1 POP SWAP6 SWAP5 POP POP POP POP POP JUMP JUMPDEST PUSH0 DUP2 SWAP1 POP SWAP2 SWAP1 POP JUMP JUMPDEST PUSH2 0xE3A DUP2 PUSH2 0xE28 JUMP JUMPDEST DUP3 MSTORE POP POP JUMP JUMPDEST PUSH0 PUSH1 0x20 DUP3 ADD SWAP1 POP PUSH2 0xE53 PUSH0 DUP4 ADD DUP5 PUSH2 0xE31 JUMP JUMPDEST SWAP3 SWAP2 POP POP JUMP JUMPDEST PUSH32 0x4E487B7100000000000000000000000000000000000000000000000000000000 PUSH0 MSTORE PUSH1 0x22 PUSH1 0x4 MSTORE PUSH1 0x24 PUSH0 REVERT JUMPDEST PUSH0 PUSH1 0x2 DUP3 DIV SWAP1 POP PUSH1 0x1 DUP3 AND DUP1 PUSH2 0xE9D JUMPI PUSH1 0x7F DUP3 AND SWAP2 POP JUMPDEST PUSH1 0x20 DUP3 LT DUP2 SUB PUSH2 0xEB0 JUMPI PUSH2 0xEAF PUSH2 0xE59 JUMP JUMPDEST JUMPDEST POP SWAP2 SWAP1 POP JUMP JUMPDEST PUSH0 DUP2 SWAP1 POP SWAP3 SWAP2 POP POP JUMP JUMPDEST PUSH0 PUSH2 0xECA DUP3 PUSH2 0xBD6 JUMP JUMPDEST PUSH2 0xED4 DUP2 DUP6 PUSH2 0xEB6 JUMP JUMPDEST SWAP4 POP PUSH2 0xEE4 DUP2 DUP6 PUSH1 0x20 DUP7 ADD PUSH2 0xBF0 JUMP JUMPDEST DUP1 DUP5 ADD SWAP2 POP POP SWAP3 SWAP2 POP POP JUMP JUMPDEST PUSH0 PUSH2 0xEFB DUP3 DUP5 PUSH2 0xEC0 JUMP JUMPDEST SWAP2 POP DUP2 SWAP1 POP SWAP3 SWAP2 POP POP JUMP JUMPDEST PUSH0 DUP2 ISZERO ISZERO SWAP1 POP SWAP2 SWAP1 POP JUMP JUMPDEST PUSH2 0xF1A DUP2 PUSH2 0xF06 JUMP JUMPDEST DUP3 MSTORE POP POP JUMP JUMPDEST PUSH0 PUSH1 0x20 DUP3 ADD SWAP1 POP PUSH2 0xF33 PUSH0 DUP4 ADD DUP5 PUSH2 0xF11 JUMP JUMPDEST SWAP3 SWAP2 POP POP JUMP JUMPDEST PUSH0 DUP2 SWAP1 POP DUP2 PUSH0 MSTORE PUSH1 0x20 PUSH0 KECCAK256 SWAP1 POP SWAP2 SWAP1 POP JUMP JUMPDEST PUSH0 DUP2 SLOAD PUSH2 0xF57 DUP2 PUSH2 0xE86 JUMP JUMPDEST PUSH2 0xF61 DUP2 DUP7 PUSH2 0xBE0 JUMP JUMPDEST SWAP5 POP PUSH1 0x1 DUP3 AND PUSH0 DUP2 EQ PUSH2 0xF7B JUMPI PUSH1 0x1 DUP2 EQ PUSH2 0xF91 JUMPI PUSH2 0xFC3 JUMP JUMPDEST PUSH1 0xFF NOT DUP4 AND DUP7 MSTORE DUP2 ISZERO ISZERO PUSH1 0x20 MUL DUP7 ADD SWAP4 POP PUSH2 0xFC3 JUMP JUMPDEST PUSH2 0xF9A DUP6 PUSH2 0xF39 JUMP JUMPDEST PUSH0 JUMPDEST DUP4 DUP2 LT ISZERO PUSH2 0xFBB JUMPI DUP2 SLOAD DUP2 DUP10 ADD MSTORE PUSH1 0x1 DUP3 ADD SWAP2 POP PUSH1 0x20 DUP2 ADD SWAP1 POP PUSH2 0xF9C JUMP JUMPDEST DUP1 DUP9 ADD SWAP6 POP POP POP JUMPDEST POP POP POP SWAP3 SWAP2 POP POP JUMP JUMPDEST PUSH0 PUSH1 0x80 DUP3 ADD SWAP1 POP DUP2 DUP2 SUB PUSH0 DUP4 ADD MSTORE PUSH2 0xFE4 DUP2 DUP8 PUSH2 0xF4B JUMP JUMPDEST SWAP1 POP DUP2 DUP2 SUB PUSH1 0x20 DUP4 ADD MSTORE PUSH2 0xFF8 DUP2 DUP7 PUSH2 0xF4B JUMP JUMPDEST SWAP1 POP DUP2 DUP2 SUB PUSH1 0x40 DUP4 ADD MSTORE PUSH2 0x100C DUP2 DUP6 PUSH2 0xF4B JUMP JUMPDEST SWAP1 POP DUP2 DUP2 SUB PUSH1 0x60 DUP4 ADD MSTORE PUSH2 0x1020 DUP2 DUP5 PUSH2 0xF4B JUMP JUMPDEST SWAP1 POP SWAP6 SWAP5 POP POP POP POP POP JUMP JUMPDEST PUSH0 PUSH1 0x20 PUSH1 0x1F DUP4 ADD DIV SWAP1 POP SWAP2 SWAP1 POP JUMP JUMPDEST PUSH0 DUP3 DUP3 SHL SWAP1 POP SWAP3 SWAP2 POP POP JUMP JUMPDEST PUSH0 PUSH1 0x8 DUP4 MUL PUSH2 0x1075 PUSH32 0xFFFFFFFFFFFFFFFFFFFFFFFFFFFFFFFFFFFFFFFFFFFFFFFFFFFFFFFFFFFFFFFF DUP3 PUSH2 0x103A JUMP JUMPDEST PUSH2 0x107F DUP7 DUP4 PUSH2 0x103A JUMP JUMPDEST SWAP6 POP DUP1 NOT DUP5 AND SWAP4 POP DUP1 DUP7 AND DUP5 OR SWAP3 POP POP POP SWAP4 SWAP3 POP POP POP JUMP JUMPDEST PUSH0 DUP2 SWAP1 POP SWAP2 SWAP1 POP JUMP JUMPDEST PUSH0 DUP2 SWAP1 POP SWAP2 SWAP1 POP JUMP JUMPDEST PUSH0 PUSH2 0x10C3 PUSH2 0x10BE PUSH2 0x10B9 DUP5 PUSH2 0x1097 JUMP JUMPDEST PUSH2 0x10A0 JUMP JUMPDEST PUSH2 0x1097 JUMP JUMPDEST SWAP1 POP SWAP2 SWAP1 POP JUMP JUMPDEST PUSH0 DUP2 SWAP1 POP SWAP2 SWAP1 POP JUMP JUMPDEST PUSH2 0x10DC DUP4 PUSH2 0x10A9 JUMP JUMPDEST PUSH2 0x10F0 PUSH2 0x10E8 DUP3 PUSH2 0x10CA JUMP JUMPDEST DUP5 DUP5 SLOAD PUSH2 0x1046 JUMP JUMPDEST DUP3 SSTORE POP POP POP POP JUMP JUMPDEST PUSH0 SWAP1 JUMP JUMPDEST PUSH2 0x1104 PUSH2 0x10F8 JUMP JUMPDEST PUSH2 0x110F DUP2 DUP5 DUP5 PUSH2 0x10D3 JUMP JUMPDEST POP POP POP JUMP JUMPDEST JUMPDEST DUP2 DUP2 LT ISZERO PUSH2 0x1132 JUMPI PUSH2 0x1127 PUSH0 DUP3 PUSH2 0x10FC JUMP JUMPDEST PUSH1 0x1 DUP2 ADD SWAP1 POP PUSH2 0x1115 JUMP JUMPDEST POP POP JUMP JUMPDEST PUSH1 0x1F DUP3 GT ISZERO PUSH2 0x1177 JUMPI PUSH2 0x1148 DUP2 PUSH2 0xF39 JUMP JUMPDEST PUSH2 0x1151 DUP5 PUSH2 0x102B JUMP JUMPDEST DUP2 ADD PUSH1 0x20 DUP6 LT ISZERO PUSH2 0x1160 JUMPI DUP2 SWAP1 POP JUMPDEST PUSH2 0x1174 PUSH2 0x116C DUP6 PUSH2 0x102B JUMP JUMPDEST DUP4 ADD DUP3 PUSH2 0x1114 JUMP JUMPDEST POP POP JUMPDEST POP POP POP JUMP JUMPDEST PUSH0 DUP3 DUP3 SHR SWAP1 POP SWAP3 SWAP2 POP POP JUMP JUMPDEST PUSH0 PUSH2 0x1197 PUSH0 NOT DUP5 PUSH1 0x8 MUL PUSH2 0x117C JUMP JUMPDEST NOT DUP1 DUP4 AND SWAP2 POP POP SWAP3 SWAP2 POP POP JUMP JUMPDEST PUSH0 PUSH2 0x11AF DUP4 DUP4 PUSH2 0x1188 JUMP JUMPDEST SWAP2 POP DUP3 PUSH1 0x2 MUL DUP3 OR SWAP1 POP SWAP3 SWAP2 POP POP JUMP JUMPDEST PUSH2 0x11C8 DUP3 PUSH2 0xBD6 JUMP JUMPDEST PUSH8 0xFFFFFFFFFFFFFFFF DUP2 GT ISZERO PUSH2 0x11E1 JUMPI PUSH2 0x11E0 PUSH2 0xA6B JUMP JUMPDEST JUMPDEST PUSH2 0x11EB DUP3 SLOAD PUSH2 0xE86 JUMP JUMPDEST PUSH2 0x11F6 DUP3 DUP3 DUP6 PUSH2 0x1136 JUMP JUMPDEST PUSH0 PUSH1 0x20 SWAP1 POP PUSH1 0x1F DUP4 GT PUSH1 0x1 DUP2 EQ PUSH2 0x1227 JUMPI PUSH0 DUP5 ISZERO PUSH2 0x1215 JUMPI DUP3 DUP8 ADD MLOAD SWAP1 POP JUMPDEST PUSH2 0x121F DUP6 DUP3 PUSH2 0x11A4 JUMP JUMPDEST DUP7 SSTORE POP PUSH2 0x1286 JUMP JUMPDEST PUSH1 0x1F NOT DUP5 AND PUSH2 0x1235 DUP7 PUSH2 0xF39 JUMP JUMPDEST PUSH0 JUMPDEST DUP3 DUP2 LT ISZERO PUSH2 0x125C JUMPI DUP5 DUP10 ADD MLOAD DUP3 SSTORE PUSH1 0x1 DUP3 ADD SWAP2 POP PUSH1 0x20 DUP6 ADD SWAP5 POP PUSH1 0x20 DUP2 ADD SWAP1 POP PUSH2 0x1237 JUMP JUMPDEST DUP7 DUP4 LT ISZERO PUSH2 0x1279 JUMPI DUP5 DUP10 ADD MLOAD PUSH2 0x1275 PUSH1 0x1F DUP10 AND DUP3 PUSH2 0x1188 JUMP JUMPDEST DUP4 SSTORE POP JUMPDEST PUSH1 0x1 PUSH1 0x2 DUP9 MUL ADD DUP9 SSTORE POP POP POP JUMPDEST POP POP POP POP POP POP JUMP JUMPDEST PUSH0 PUSH1 0x40 DUP3 ADD SWAP1 POP DUP2 DUP2 SUB PUSH0 DUP4 ADD MSTORE PUSH2 0x12A6 DUP2 DUP6 PUSH2 0xC18 JUMP JUMPDEST SWAP1 POP DUP2 DUP2 SUB PUSH1 0x20 DUP4 ADD MSTORE PUSH2 0x12BA DUP2 DUP5 PUSH2 0xC18 JUMP JUMPDEST SWAP1 POP SWAP4 SWAP3 POP POP POP JUMP INVALID LOG2 PUSH5 0x6970667358 0x22 SLT KECCAK256 PUSH13 0xFBB160EF6F4029A2A94C5F967C 0xC9 0xD6 0x4C 0xAA NUMBER 0xBB SWAP8 0xAF 0x4A ISZERO 0xAE 0x4D 0xF7 DUP3 0xA8 0xC2 RETURNDATACOPY DUP14 PUSH5 0x736F6C6343 STOP ADDMOD AND STOP CALLER "
				},
				"gasEstimates": {
					"creation": {
						"codeDepositCost": "971400",
						"executionCost": "1006",
						"totalCost": "972406"
					},
					"external": {
						"getUserPassword(string)": "infinite",
						"loginUser(string)": "infinite",
						"registerUser(string,string,string,string)": "infinite",
						"setUserPassword(string)": "infinite",
						"userPasswords(string)": "infinite",
						"users(address)": "infinite"
					}
				},
				"methodIdentifiers": {
					"getUserPassword(string)": "c9ae6b01",
					"loginUser(string)": "1c14ce5e",
					"registerUser(string,string,string,string)": "93e54a56",
					"setUserPassword(string)": "d6098ed6",
					"userPasswords(string)": "bcf26770",
					"users(address)": "a87430ba"
				}
			},
			"storageLayout": {
				"storage": [
					{
						"astId": 15,
						"contract": "Python/Contracts/VotingRegistration.sol:Voting",
						"label": "users",
						"offset": 0,
						"slot": "0",
						"type": "t_mapping(t_address,t_struct(User)10_storage)"
					},
					{
						"astId": 19,
						"contract": "Python/Contracts/VotingRegistration.sol:Voting",
						"label": "userPasswords",
						"offset": 0,
						"slot": "1",
						"type": "t_mapping(t_string_memory_ptr,t_bytes32)"
					}
				],
				"types": {
					"t_address": {
						"encoding": "inplace",
						"label": "address",
						"numberOfBytes": "20"
					},
					"t_bytes32": {
						"encoding": "inplace",
						"label": "bytes32",
						"numberOfBytes": "32"
					},
					"t_mapping(t_address,t_struct(User)10_storage)": {
						"encoding": "mapping",
						"key": "t_address",
						"label": "mapping(address => struct Voting.User)",
						"numberOfBytes": "32",
						"value": "t_struct(User)10_storage"
					},
					"t_mapping(t_string_memory_ptr,t_bytes32)": {
						"encoding": "mapping",
						"key": "t_string_memory_ptr",
						"label": "mapping(string => bytes32)",
						"numberOfBytes": "32",
						"value": "t_bytes32"
					},
					"t_string_memory_ptr": {
						"encoding": "bytes",
						"label": "string",
						"numberOfBytes": "32"
					},
					"t_string_storage": {
						"encoding": "bytes",
						"label": "string",
						"numberOfBytes": "32"
					},
					"t_struct(User)10_storage": {
						"encoding": "inplace",
						"label": "struct Voting.User",
						"members": [
							{
								"astId": 3,
								"contract": "Python/Contracts/VotingRegistration.sol:Voting",
								"label": "name",
								"offset": 0,
								"slot": "0",
								"type": "t_string_storage"
							},
							{
								"astId": 5,
								"contract": "Python/Contracts/VotingRegistration.sol:Voting",
								"label": "email",
								"offset": 0,
								"slot": "1",
								"type": "t_string_storage"
							},
							{
								"astId": 7,
								"contract": "Python/Contracts/VotingRegistration.sol:Voting",
								"label": "phoneNumber",
								"offset": 0,
								"slot": "2",
								"type": "t_string_storage"
							},
							{
								"astId": 9,
								"contract": "Python/Contracts/VotingRegistration.sol:Voting",
								"label": "dob",
								"offset": 0,
								"slot": "3",
								"type": "t_string_storage"
							}
						],
						"numberOfBytes": "128"
					}
				}
			},
			"userdoc": {
				"kind": "user",
				"methods": {},
				"version": 1
			}
		}
	}
}