{
	"data": {
		"bytecode": {
			"linkReferences": {},
			"object": "60806040525f8055600a6001557fffffffffffffffffffffffffffffffffffffffffffffffffffffffffffffffff60025534801561003b575f80fd5b5061036c806100495f395ff3fe608060405234801561000f575f80fd5b506004361061003f575f3560e01c806320ed8b8914610043578063648b7ce8146100615780638b8d56721461007f575b5f80fd5b61004b61009d565b6040516100589190610184565b60405180910390f35b610069610102565b6040516100769190610184565b60405180910390f35b610087610167565b6040516100949190610184565b60405180910390f35b5f6002545f54136100e3576040517f08c379a00000000000000000000000000000000000000000000000000000000081526004016100da9061021d565b60405180910390fd5b60015f808282546100f49190610268565b925050819055505f54905090565b5f6001545f5410610148576040517f08c379a000000000000000000000000000000000000000000000000000000000815260040161013f906102e5565b60405180910390fd5b60015f808282546101599190610303565b925050819055505f54905090565b5f5481565b5f819050919050565b61017e8161016c565b82525050565b5f6020820190506101975f830184610175565b92915050565b5f82825260208201905092915050565b7f56616c75652063616e206e6f74206265206c657373207468656e2063757272655f8201527f6e742076616c7565000000000000000000000000000000000000000000000000602082015250565b5f61020760288361019d565b9150610212826101ad565b604082019050919050565b5f6020820190508181035f830152610234816101fb565b9050919050565b7f4e487b71000000000000000000000000000000000000000000000000000000005f52601160045260245ffd5b5f6102728261016c565b915061027d8361016c565b92508282039050818111156102955761029461023b565b5b92915050565b7f4d6178696d756d2076616c7565207265616368656400000000000000000000005f82015250565b5f6102cf60158361019d565b91506102da8261029b565b602082019050919050565b5f6020820190508181035f8301526102fc816102c3565b9050919050565b5f61030d8261016c565b91506103188361016c565b92508282019050808211156103305761032f61023b565b5b9291505056fea2646970667358221220286a010d666ba2c3391464a920e4b19a6ecc649b400786b7062000e1a632744464736f6c63430008150033",
			"opcodes": "PUSH1 0x80 PUSH1 0x40 MSTORE PUSH0 DUP1 SSTORE PUSH1 0xA PUSH1 0x1 SSTORE PUSH32 0xFFFFFFFFFFFFFFFFFFFFFFFFFFFFFFFFFFFFFFFFFFFFFFFFFFFFFFFFFFFFFFFF PUSH1 0x2 SSTORE CALLVALUE DUP1 ISZERO PUSH2 0x3B JUMPI PUSH0 DUP1 REVERT JUMPDEST POP PUSH2 0x36C DUP1 PUSH2 0x49 PUSH0 CODECOPY PUSH0 RETURN INVALID PUSH1 0x80 PUSH1 0x40 MSTORE CALLVALUE DUP1 ISZERO PUSH2 0xF JUMPI PUSH0 DUP1 REVERT JUMPDEST POP PUSH1 0x4 CALLDATASIZE LT PUSH2 0x3F JUMPI PUSH0 CALLDATALOAD PUSH1 0xE0 SHR DUP1 PUSH4 0x20ED8B89 EQ PUSH2 0x43 JUMPI DUP1 PUSH4 0x648B7CE8 EQ PUSH2 0x61 JUMPI DUP1 PUSH4 0x8B8D5672 EQ PUSH2 0x7F JUMPI JUMPDEST PUSH0 DUP1 REVERT JUMPDEST PUSH2 0x4B PUSH2 0x9D JUMP JUMPDEST PUSH1 0x40 MLOAD PUSH2 0x58 SWAP2 SWAP1 PUSH2 0x184 JUMP JUMPDEST PUSH1 0x40 MLOAD DUP1 SWAP2 SUB SWAP1 RETURN JUMPDEST PUSH2 0x69 PUSH2 0x102 JUMP JUMPDEST PUSH1 0x40 MLOAD PUSH2 0x76 SWAP2 SWAP1 PUSH2 0x184 JUMP JUMPDEST PUSH1 0x40 MLOAD DUP1 SWAP2 SUB SWAP1 RETURN JUMPDEST PUSH2 0x87 PUSH2 0x167 JUMP JUMPDEST PUSH1 0x40 MLOAD PUSH2 0x94 SWAP2 SWAP1 PUSH2 0x184 JUMP JUMPDEST PUSH1 0x40 MLOAD DUP1 SWAP2 SUB SWAP1 RETURN JUMPDEST PUSH0 PUSH1 0x2 SLOAD PUSH0 SLOAD SGT PUSH2 0xE3 JUMPI PUSH1 0x40 MLOAD PUSH32 0x8C379A000000000000000000000000000000000000000000000000000000000 DUP2 MSTORE PUSH1 0x4 ADD PUSH2 0xDA SWAP1 PUSH2 0x21D JUMP JUMPDEST PUSH1 0x40 MLOAD DUP1 SWAP2 SUB SWAP1 REVERT JUMPDEST PUSH1 0x1 PUSH0 DUP1 DUP3 DUP3 SLOAD PUSH2 0xF4 SWAP2 SWAP1 PUSH2 0x268 JUMP JUMPDEST SWAP3 POP POP DUP2 SWAP1 SSTORE POP PUSH0 SLOAD SWAP1 POP SWAP1 JUMP JUMPDEST PUSH0 PUSH1 0x1 SLOAD PUSH0 SLOAD LT PUSH2 0x148 JUMPI PUSH1 0x40 MLOAD PUSH32 0x8C379A000000000000000000000000000000000000000000000000000000000 DUP2 MSTORE PUSH1 0x4 ADD PUSH2 0x13F SWAP1 PUSH2 0x2E5 JUMP JUMPDEST PUSH1 0x40 MLOAD DUP1 SWAP2 SUB SWAP1 REVERT JUMPDEST PUSH1 0x1 PUSH0 DUP1 DUP3 DUP3 SLOAD PUSH2 0x159 SWAP2 SWAP1 PUSH2 0x303 JUMP JUMPDEST SWAP3 POP POP DUP2 SWAP1 SSTORE POP PUSH0 SLOAD SWAP1 POP SWAP1 JUMP JUMPDEST PUSH0 SLOAD DUP2 JUMP JUMPDEST PUSH0 DUP2 SWAP1 POP SWAP2 SWAP1 POP JUMP JUMPDEST PUSH2 0x17E DUP2 PUSH2 0x16C JUMP JUMPDEST DUP3 MSTORE POP POP JUMP JUMPDEST PUSH0 PUSH1 0x20 DUP3 ADD SWAP1 POP PUSH2 0x197 PUSH0 DUP4 ADD DUP5 PUSH2 0x175 JUMP JUMPDEST SWAP3 SWAP2 POP POP JUMP JUMPDEST PUSH0 DUP3 DUP3 MSTORE PUSH1 0x20 DUP3 ADD SWAP1 POP SWAP3 SWAP2 POP POP JUMP JUMPDEST PUSH32 0x56616C75652063616E206E6F74206265206C657373207468656E206375727265 PUSH0 DUP3 ADD MSTORE PUSH32 0x6E742076616C7565000000000000000000000000000000000000000000000000 PUSH1 0x20 DUP3 ADD MSTORE POP JUMP JUMPDEST PUSH0 PUSH2 0x207 PUSH1 0x28 DUP4 PUSH2 0x19D JUMP JUMPDEST SWAP2 POP PUSH2 0x212 DUP3 PUSH2 0x1AD JUMP JUMPDEST PUSH1 0x40 DUP3 ADD SWAP1 POP SWAP2 SWAP1 POP JUMP JUMPDEST PUSH0 PUSH1 0x20 DUP3 ADD SWAP1 POP DUP2 DUP2 SUB PUSH0 DUP4 ADD MSTORE PUSH2 0x234 DUP2 PUSH2 0x1FB JUMP JUMPDEST SWAP1 POP SWAP2 SWAP1 POP JUMP JUMPDEST PUSH32 0x4E487B7100000000000000000000000000000000000000000000000000000000 PUSH0 MSTORE PUSH1 0x11 PUSH1 0x4 MSTORE PUSH1 0x24 PUSH0 REVERT JUMPDEST PUSH0 PUSH2 0x272 DUP3 PUSH2 0x16C JUMP JUMPDEST SWAP2 POP PUSH2 0x27D DUP4 PUSH2 0x16C JUMP JUMPDEST SWAP3 POP DUP3 DUP3 SUB SWAP1 POP DUP2 DUP2 GT ISZERO PUSH2 0x295 JUMPI PUSH2 0x294 PUSH2 0x23B JUMP JUMPDEST JUMPDEST SWAP3 SWAP2 POP POP JUMP JUMPDEST PUSH32 0x4D6178696D756D2076616C756520726561636865640000000000000000000000 PUSH0 DUP3 ADD MSTORE POP JUMP JUMPDEST PUSH0 PUSH2 0x2CF PUSH1 0x15 DUP4 PUSH2 0x19D JUMP JUMPDEST SWAP2 POP PUSH2 0x2DA DUP3 PUSH2 0x29B JUMP JUMPDEST PUSH1 0x20 DUP3 ADD SWAP1 POP SWAP2 SWAP1 POP JUMP JUMPDEST PUSH0 PUSH1 0x20 DUP3 ADD SWAP1 POP DUP2 DUP2 SUB PUSH0 DUP4 ADD MSTORE PUSH2 0x2FC DUP2 PUSH2 0x2C3 JUMP JUMPDEST SWAP1 POP SWAP2 SWAP1 POP JUMP JUMPDEST PUSH0 PUSH2 0x30D DUP3 PUSH2 0x16C JUMP JUMPDEST SWAP2 POP PUSH2 0x318 DUP4 PUSH2 0x16C JUMP JUMPDEST SWAP3 POP DUP3 DUP3 ADD SWAP1 POP DUP1 DUP3 GT ISZERO PUSH2 0x330 JUMPI PUSH2 0x32F PUSH2 0x23B JUMP JUMPDEST JUMPDEST SWAP3 SWAP2 POP POP JUMP INVALID LOG2 PUSH5 0x6970667358 0x22 SLT KECCAK256 0x28 PUSH11 0x10D666BA2C3391464A920 0xE4 0xB1 SWAP11 PUSH15 0xCC649B400786B7062000E1A6327444 PUSH5 0x736F6C6343 STOP ADDMOD ISZERO STOP CALLER "
		},
		"gasEstimates": {
			"creation": {
				"codeDepositCost": "175200",
				"executionCost": "49435",
				"totalCost": "224635"
			},
			"external": {
				"Decrement()": "infinite",
				"Increment()": "infinite",
				"InitialValue()": "2446"
			}
		},
		"methodIdentifiers": {
			"Decrement()": "20ed8b89",
			"Increment()": "648b7ce8",
			"InitialValue()": "8b8d5672"
		}
	},
	"abi": [
		{
			"inputs": [],
			"name": "Decrement",
			"outputs": [
				{
					"internalType": "uint256",
					"name": "",
					"type": "uint256"
				}
			],
			"stateMutability": "nonpayable",
			"type": "function"
		},
		{
			"inputs": [],
			"name": "Increment",
			"outputs": [
				{
					"internalType": "uint256",
					"name": "",
					"type": "uint256"
				}
			],
			"stateMutability": "nonpayable",
			"type": "function"
		},
		{
			"inputs": [],
			"name": "InitialValue",
			"outputs": [
				{
					"internalType": "uint256",
					"name": "",
					"type": "uint256"
				}
			],
			"stateMutability": "view",
			"type": "function"
		}
	]
}