{
  "contractName": "Calculator",
  "abi": [
    {
      "inputs": [],
      "name": "InitialValue",
      "outputs": [
        {
          "internalType": "uint256",
          "name": "",
          "type": "uint256"
        }
      ],
      "stateMutability": "view",
      "type": "function"
    },
    {
      "inputs": [],
      "name": "Increment",
      "outputs": [
        {
          "internalType": "uint256",
          "name": "",
          "type": "uint256"
        }
      ],
      "stateMutability": "nonpayable",
      "type": "function"
    },
    {
      "inputs": [],
      "name": "Decrement",
      "outputs": [
        {
          "internalType": "uint256",
          "name": "",
          "type": "uint256"
        }
      ],
      "stateMutability": "nonpayable",
      "type": "function"
    }
  ],
  "bytecode": "0x60806040525f8055600a6001557fffffffffffffffffffffffffffffffffffffffffffffffffffffffffffffffff60025534801561003b575f80fd5b5061036c806100495f395ff3fe608060405234801561000f575f80fd5b506004361061003f575f3560e01c806320ed8b8914610043578063648b7ce8146100615780638b8d56721461007f575b5f80fd5b61004b61009d565b6040516100589190610184565b60405180910390f35b610069610102565b6040516100769190610184565b60405180910390f35b610087610167565b6040516100949190610184565b60405180910390f35b5f6002545f54136100e3576040517f08c379a00000000000000000000000000000000000000000000000000000000081526004016100da9061021d565b60405180910390fd5b60015f808282546100f49190610268565b925050819055505f54905090565b5f6001545f5410610148576040517f08c379a000000000000000000000000000000000000000000000000000000000815260040161013f906102e5565b60405180910390fd5b60015f808282546101599190610303565b925050819055505f54905090565b5f5481565b5f819050919050565b61017e8161016c565b82525050565b5f6020820190506101975f830184610175565b92915050565b5f82825260208201905092915050565b7f56616c75652063616e206e6f74206265206c657373207468656e2063757272655f8201527f6e742076616c7565000000000000000000000000000000000000000000000000602082015250565b5f61020760288361019d565b9150610212826101ad565b604082019050919050565b5f6020820190508181035f830152610234816101fb565b9050919050565b7f4e487b71000000000000000000000000000000000000000000000000000000005f52601160045260245ffd5b5f6102728261016c565b915061027d8361016c565b92508282039050818111156102955761029461023b565b5b92915050565b7f4d6178696d756d2076616c7565207265616368656400000000000000000000005f82015250565b5f6102cf60158361019d565b91506102da8261029b565b602082019050919050565b5f6020820190508181035f8301526102fc816102c3565b9050919050565b5f61030d8261016c565b91506103188361016c565b92508282019050808211156103305761032f61023b565b5b9291505056fea2646970667358221220259d2edecbc0889fe9f795f6e54d9bf9a0be150efa2020d2318ff84b3dfaaa8b64736f6c63430008150033",
  "immutableReferences": {},
  "source": "// SPDX-License-Identifier: SEE LICENSE IN LICENSE\r\npragma solidity '0.8.21';\r\n\r\n/* test contract building for learning how truffle handles these projects */\r\n\r\ncontract Calculator {\r\n    uint public InitialValue = 0;\r\n    uint max_value = 10;\r\n    int min_value = -1;\r\n\r\n    function Increment() public returns (uint) {\r\n        require(InitialValue < max_value, \"Maximum value reached\");\r\n        InitialValue += 1;\r\n        return InitialValue;\r\n    }\r\n\r\n    function Decrement() public returns (uint) {\r\n        require(int(InitialValue) > min_value, \"Value can not be less then current value\");\r\n        InitialValue -= 1;\r\n        return InitialValue;\r\n    }\r\n}",
  "sourcePath": "C:\\Users\\abc\\Documents\\GitHub\\Web3\\Ganache Testing\\contracts\\calculator.sol",
  "compiler": {
    "name": "solc",
    "version": "0.8.21+commit.d9974bed.Emscripten.clang"
  },
  "schemaVersion": "3.4.16",
  "updatedAt": "2024-02-28T15:30:38.124Z",
  "devdoc": {
    "kind": "dev",
    "methods": {},
    "version": 1
  },
  "userdoc": {
    "kind": "user",
    "methods": {},
    "version": 1
  }
}