{
  "contractName": "Counter",
  "abi": [
    {
      "inputs": [],
      "name": "counter",
      "outputs": [
        {
          "internalType": "uint256",
          "name": "",
          "type": "uint256"
        }
      ],
      "stateMutability": "view",
      "type": "function"
    },
    {
      "inputs": [],
      "name": "increment",
      "outputs": [],
      "stateMutability": "nonpayable",
      "type": "function"
    },
    {
      "inputs": [],
      "name": "decrement",
      "outputs": [],
      "stateMutability": "nonpayable",
      "type": "function"
    },
    {
      "inputs": [],
      "name": "current_value",
      "outputs": [
        {
          "internalType": "uint256",
          "name": "",
          "type": "uint256"
        }
      ],
      "stateMutability": "view",
      "type": "function"
    }
  ],
  "bytecode": "0x60806040526000805534801561001457600080fd5b506101e7806100246000396000f3fe608060405234801561001057600080fd5b506004361061004c5760003560e01c80632baeceb714610051578063345f2ffc1461005b57806361bc221a14610079578063d09de08a14610097575b600080fd5b6100596100a1565b005b6100636100bc565b60405161007091906100ff565b60405180910390f35b6100816100c5565b60405161008e91906100ff565b60405180910390f35b61009f6100cb565b005b60016000808282546100b39190610149565b92505081905550565b60008054905090565b60005481565b60016000808282546100dd919061017d565b92505081905550565b6000819050919050565b6100f9816100e6565b82525050565b600060208201905061011460008301846100f0565b92915050565b7f4e487b7100000000000000000000000000000000000000000000000000000000600052601160045260246000fd5b6000610154826100e6565b915061015f836100e6565b92508282039050818111156101775761017661011a565b5b92915050565b6000610188826100e6565b9150610193836100e6565b92508282019050808211156101ab576101aa61011a565b5b9291505056fea26469706673582212206e2d43b432d7d29001dd8cfac8e8f6629b6316486042d356b95c2fdbc1faa2ee64736f6c63430008110033",
  "immutableReferences": {},
  "source": "// SPDX-License-Identifier: MIT\npragma solidity >=0.4.22 <0.9.0;\n\ncontract Counter {\n  uint public counter = 0;\n\n  function increment() public {\n    counter += 1;\n  }\n\n  function decrement() public {\n    counter -= 1;\n  }\n\n  function current_value() public view returns  (uint) {\n    return counter;\n  }\n\n}\n",
  "sourcePath": "C:\\Users\\abc\\Documents\\GitHub\\Web3\\Ganache Testing\\contracts\\Counter.sol",
  "compiler": {
    "name": "solc",
    "version": "0.8.17+commit.8df45f5f.Emscripten.clang"
  },
  "schemaVersion": "3.4.16",
  "updatedAt": "2024-03-14T08:56:49.399Z",
  "devdoc": {
    "kind": "dev",
    "methods": {},
    "version": 1
  },
  "userdoc": {
    "kind": "user",
    "methods": {},
    "version": 1
  }
}