{
  "contractName": "Users",
  "abi": [
    {
      "inputs": [
        {
          "internalType": "string",
          "name": "",
          "type": "string"
        }
      ],
      "name": "usersMapping",
      "outputs": [
        {
          "internalType": "string",
          "name": "name",
          "type": "string"
        },
        {
          "internalType": "string",
          "name": "phoneNumber",
          "type": "string"
        },
        {
          "internalType": "string",
          "name": "age",
          "type": "string"
        }
      ],
      "stateMutability": "view",
      "type": "function"
    },
    {
      "inputs": [
        {
          "internalType": "string",
          "name": "gmail",
          "type": "string"
        },
        {
          "internalType": "string",
          "name": "name",
          "type": "string"
        },
        {
          "internalType": "string",
          "name": "phoneNumber",
          "type": "string"
        },
        {
          "internalType": "string",
          "name": "age",
          "type": "string"
        }
      ],
      "name": "addUser",
      "outputs": [
        {
          "internalType": "string",
          "name": "",
          "type": "string"
        }
      ],
      "stateMutability": "nonpayable",
      "type": "function"
    },
    {
      "inputs": [
        {
          "internalType": "string",
          "name": "gmail",
          "type": "string"
        }
      ],
      "name": "getUser",
      "outputs": [
        {
          "internalType": "string",
          "name": "",
          "type": "string"
        },
        {
          "internalType": "string",
          "name": "",
          "type": "string"
        },
        {
          "internalType": "string",
          "name": "",
          "type": "string"
        }
      ],
      "stateMutability": "view",
      "type": "function"
    }
  ],
  "bytecode": "0x608060405234801561001057600080fd5b50610e4b806100206000396000f3fe608060405234801561001057600080fd5b50600436106100415760003560e01c806301cda3ac14610046578063061e7f981461007657806331feb671146100a8575b600080fd5b610060600480360381019061005b9190610737565b6100da565b60405161006d91906108b0565b60405180910390f35b610090600480360381019061008b9190610a02565b6102e0565b60405161009f93929190610a4b565b60405180910390f35b6100c260048036038101906100bd9190610a97565b6104b8565b6040516100d193929190610a4b565b60405180910390f35b60606000808a8a6040516100ef929190610b14565b9081526020016040518091039020600001805461010b90610b5c565b90501461014f576040518060400160405280601381526020017f5573657220616c7265616479206578697374730000000000000000000000000081525090506102d4565b604051806060016040528088888080601f016020809104026020016040519081016040528093929190818152602001838380828437600081840152601f19601f82011690508083019250505050505050815260200186868080601f016020809104026020016040519081016040528093929190818152602001838380828437600081840152601f19601f82011690508083019250505050505050815260200184848080601f016020809104026020016040519081016040528093929190818152602001838380828437600081840152601f19601f8201169050808301925050505050505081525060008a8a604051610248929190610b14565b9081526020016040518091039020600082015181600001908161026b9190610d43565b5060208201518160010190816102819190610d43565b5060408201518160020190816102979190610d43565b509050506040518060400160405280601781526020017f55736572206164646564207375636365737366756c6c7900000000000000000081525090505b98975050505050505050565b60008180516020810182018051848252602083016020850120818352809550505050505060009150905080600001805461031990610b5c565b80601f016020809104026020016040519081016040528092919081815260200182805461034590610b5c565b80156103925780601f1061036757610100808354040283529160200191610392565b820191906000526020600020905b81548152906001019060200180831161037557829003601f168201915b5050505050908060010180546103a790610b5c565b80601f01602080910402602001604051908101604052809291908181526020018280546103d390610b5c565b80156104205780601f106103f557610100808354040283529160200191610420565b820191906000526020600020905b81548152906001019060200180831161040357829003601f168201915b50505050509080600201805461043590610b5c565b80601f016020809104026020016040519081016040528092919081815260200182805461046190610b5c565b80156104ae5780601f10610483576101008083540402835291602001916104ae565b820191906000526020600020905b81548152906001019060200180831161049157829003601f168201915b5050505050905083565b606080606060008086866040516104d0929190610b14565b90815260200160405180910390206040518060600160405290816000820180546104f990610b5c565b80601f016020809104026020016040519081016040528092919081815260200182805461052590610b5c565b80156105725780601f1061054757610100808354040283529160200191610572565b820191906000526020600020905b81548152906001019060200180831161055557829003601f168201915b5050505050815260200160018201805461058b90610b5c565b80601f01602080910402602001604051908101604052809291908181526020018280546105b790610b5c565b80156106045780601f106105d957610100808354040283529160200191610604565b820191906000526020600020905b8154815290600101906020018083116105e757829003601f168201915b5050505050815260200160028201805461061d90610b5c565b80601f016020809104026020016040519081016040528092919081815260200182805461064990610b5c565b80156106965780601f1061066b57610100808354040283529160200191610696565b820191906000526020600020905b81548152906001019060200180831161067957829003601f168201915b5050505050815250509050806000015181602001518260400151935093509350509250925092565b6000604051905090565b600080fd5b600080fd5b600080fd5b600080fd5b600080fd5b60008083601f8401126106f7576106f66106d2565b5b8235905067ffffffffffffffff811115610714576107136106d7565b5b6020830191508360018202830111156107305761072f6106dc565b5b9250929050565b6000806000806000806000806080898b031215610757576107566106c8565b5b600089013567ffffffffffffffff811115610775576107746106cd565b5b6107818b828c016106e1565b9850985050602089013567ffffffffffffffff8111156107a4576107a36106cd565b5b6107b08b828c016106e1565b9650965050604089013567ffffffffffffffff8111156107d3576107d26106cd565b5b6107df8b828c016106e1565b9450945050606089013567ffffffffffffffff811115610802576108016106cd565b5b61080e8b828c016106e1565b92509250509295985092959890939650565b600081519050919050565b600082825260208201905092915050565b60005b8381101561085a57808201518184015260208101905061083f565b60008484015250505050565b6000601f19601f8301169050919050565b600061088282610820565b61088c818561082b565b935061089c81856020860161083c565b6108a581610866565b840191505092915050565b600060208201905081810360008301526108ca8184610877565b905092915050565b600080fd5b7f4e487b7100000000000000000000000000000000000000000000000000000000600052604160045260246000fd5b61090f82610866565b810181811067ffffffffffffffff8211171561092e5761092d6108d7565b5b80604052505050565b60006109416106be565b905061094d8282610906565b919050565b600067ffffffffffffffff82111561096d5761096c6108d7565b5b61097682610866565b9050602081019050919050565b82818337600083830152505050565b60006109a56109a084610952565b610937565b9050828152602081018484840111156109c1576109c06108d2565b5b6109cc848285610983565b509392505050565b600082601f8301126109e9576109e86106d2565b5b81356109f9848260208601610992565b91505092915050565b600060208284031215610a1857610a176106c8565b5b600082013567ffffffffffffffff811115610a3657610a356106cd565b5b610a42848285016109d4565b91505092915050565b60006060820190508181036000830152610a658186610877565b90508181036020830152610a798185610877565b90508181036040830152610a8d8184610877565b9050949350505050565b60008060208385031215610aae57610aad6106c8565b5b600083013567ffffffffffffffff811115610acc57610acb6106cd565b5b610ad8858286016106e1565b92509250509250929050565b600081905092915050565b6000610afb8385610ae4565b9350610b08838584610983565b82840190509392505050565b6000610b21828486610aef565b91508190509392505050565b7f4e487b7100000000000000000000000000000000000000000000000000000000600052602260045260246000fd5b60006002820490506001821680610b7457607f821691505b602082108103610b8757610b86610b2d565b5b50919050565b60008190508160005260206000209050919050565b60006020601f8301049050919050565b600082821b905092915050565b600060088302610bef7fffffffffffffffffffffffffffffffffffffffffffffffffffffffffffffffff82610bb2565b610bf98683610bb2565b95508019841693508086168417925050509392505050565b6000819050919050565b6000819050919050565b6000610c40610c3b610c3684610c11565b610c1b565b610c11565b9050919050565b6000819050919050565b610c5a83610c25565b610c6e610c6682610c47565b848454610bbf565b825550505050565b600090565b610c83610c76565b610c8e818484610c51565b505050565b5b81811015610cb257610ca7600082610c7b565b600181019050610c94565b5050565b601f821115610cf757610cc881610b8d565b610cd184610ba2565b81016020851015610ce0578190505b610cf4610cec85610ba2565b830182610c93565b50505b505050565b600082821c905092915050565b6000610d1a60001984600802610cfc565b1980831691505092915050565b6000610d338383610d09565b9150826002028217905092915050565b610d4c82610820565b67ffffffffffffffff811115610d6557610d646108d7565b5b610d6f8254610b5c565b610d7a828285610cb6565b600060209050601f831160018114610dad5760008415610d9b578287015190505b610da58582610d27565b865550610e0d565b601f198416610dbb86610b8d565b60005b82811015610de357848901518255600182019150602085019450602081019050610dbe565b86831015610e005784890151610dfc601f891682610d09565b8355505b6001600288020188555050505b50505050505056fea2646970667358221220b523d5853c55cf2daf86869c043c4bc1ebc8db2175c13abf5fcf82af427b800064736f6c63430008110033",
  "immutableReferences": {},
  "source": "// SPDX-License-Identifier: MIT\r\npragma solidity >=0.4.22 <0.9.0;\r\n\r\ncontract Users {\r\n    struct User {\r\n        string name;\r\n        string phoneNumber;\r\n        string age;\r\n    }\r\n    \r\n    mapping (string => User) public usersMapping;\r\n\r\n    function addUser(string calldata gmail, string calldata name, string calldata phoneNumber, string calldata age) public returns (string memory) {\r\n        // Check if the user already exists\r\n        if (bytes(usersMapping[gmail].name).length != 0) {\r\n            // User already exists, return error message\r\n            return \"User already exists\";\r\n        }\r\n        \r\n        // User does not exist, add the user to the mapping\r\n        usersMapping[gmail] = User(name, phoneNumber, age);\r\n        \r\n        // Return success message\r\n        return \"User added successfully\";\r\n    }\r\n\r\n\r\n     function getUser(string calldata gmail) public view returns (string memory, string memory, string memory) {\r\n        // Get user data from the mapping\r\n        User memory user = usersMapping[gmail];\r\n        \r\n        // Return user data\r\n        return (user.name, user.phoneNumber, user.age);\r\n    }\r\n}\r\n",
  "sourcePath": "C:\\Users\\abc\\Documents\\GitHub\\Web3\\Ganache Testing\\contracts\\User.sol",
  "compiler": {
    "name": "solc",
    "version": "0.8.17+commit.8df45f5f.Emscripten.clang"
  },
  "schemaVersion": "3.4.16",
  "updatedAt": "2024-03-14T08:56:49.407Z",
  "devdoc": {
    "kind": "dev",
    "methods": {},
    "version": 1
  },
  "userdoc": {
    "kind": "user",
    "methods": {},
    "version": 1
  }
}