{
	"data": {
		"bytecode": {
			"linkReferences": {},
			"object": "60806040525f60045f6101000a81548160ff021916908315150217905550348015610028575f80fd5b50335f806101000a81548173ffffffffffffffffffffffffffffffffffffffff021916908373ffffffffffffffffffffffffffffffffffffffff160217905550612617806100755f395ff3fe608060405234801561000f575f80fd5b5060043610610109575f3560e01c80633aa075f7116100a0578063ca3eb4431161006f578063ca3eb443146102d5578063cf9b64a1146102f3578063d3bf0ce614610326578063d867909a14610344578063efdee94f1461037457610109565b80633aa075f714610224578063604cb43414610257578063a02e1cbf14610275578063a17ca7f9146102a557610109565b8063249ea56e116100dc578063249ea56e146101ae57806325df8aef146101b857806333ee3131146101d6578063359fe946146101f457610109565b806309eef43e1461010d5780630dc960151461013d57806311636f581461015d57806323097f2d1461017b575b5f80fd5b61012760048036038101906101229190611b6f565b610392565b6040516101349190611bb4565b60405180910390f35b6101456103af565b60405161015493929190611d87565b60405180910390f35b610165610c11565b6040516101729190611de9565b60405180910390f35b61019560048036038101906101909190611e2c565b610c17565b6040516101a59493929190611e9f565b60405180910390f35b6101b6610e6a565b005b6101c0610f13565b6040516101cd9190611de9565b60405180910390f35b6101de610f19565b6040516101eb9190611bb4565b60405180910390f35b61020e6004803603810190610209919061202a565b610f2b565b60405161021b9190611bb4565b60405180910390f35b61023e60048036038101906102399190611e2c565b6110d4565b60405161024e9493929190611e9f565b60405180910390f35b61025f611327565b60405161026c919061210d565b60405180910390f35b61028f600480360381019061028a919061202a565b61134e565b60405161029c9190611bb4565b60405180910390f35b6102bf60048036038101906102ba919061202a565b6114f7565b6040516102cc9190611bb4565b60405180910390f35b6102dd6116a0565b6040516102ea9190612126565b60405180910390f35b61030d60048036038101906103089190611e2c565b611836565b60405161031d9493929190611e9f565b60405180910390f35b61032e611a89565b60405161033b9190611de9565b60405180910390f35b61035e60048036038101906103599190611b6f565b611a8f565b60405161036b9190611bb4565b60405180910390f35b61037c611ae1565b604051610389919061210d565b60405180910390f35b6005602052805f5260405f205f915054906101000a900460ff1681565b60608060605f8054906101000a900473ffffffffffffffffffffffffffffffffffffffff1673ffffffffffffffffffffffffffffffffffffffff163373ffffffffffffffffffffffffffffffffffffffff1614610441576040517f08c379a000000000000000000000000000000000000000000000000000000000815260040161043890612190565b60405180910390fd5b60066007600882805480602002602001604051908101604052809291908181526020015f905b828210156106d6578382905f5260205f2090600402016040518060800160405290815f82018054610497906121db565b80601f01602080910402602001604051908101604052809291908181526020018280546104c3906121db565b801561050e5780601f106104e55761010080835404028352916020019161050e565b820191905f5260205f20905b8154815290600101906020018083116104f157829003601f168201915b50505050508152602001600182018054610527906121db565b80601f0160208091040260200160405190810160405280929190818152602001828054610553906121db565b801561059e5780601f106105755761010080835404028352916020019161059e565b820191905f5260205f20905b81548152906001019060200180831161058157829003601f168201915b505050505081526020016002820180546105b7906121db565b80601f01602080910402602001604051908101604052809291908181526020018280546105e3906121db565b801561062e5780601f106106055761010080835404028352916020019161062e565b820191905f5260205f20905b81548152906001019060200180831161061157829003601f168201915b50505050508152602001600382018054610647906121db565b80601f0160208091040260200160405190810160405280929190818152602001828054610673906121db565b80156106be5780601f10610695576101008083540402835291602001916106be565b820191905f5260205f20905b8154815290600101906020018083116106a157829003601f168201915b50505050508152505081526020019060010190610467565b50505050925081805480602002602001604051908101604052809291908181526020015f905b8282101561096b578382905f5260205f2090600402016040518060800160405290815f8201805461072c906121db565b80601f0160208091040260200160405190810160405280929190818152602001828054610758906121db565b80156107a35780601f1061077a576101008083540402835291602001916107a3565b820191905f5260205f20905b81548152906001019060200180831161078657829003601f168201915b505050505081526020016001820180546107bc906121db565b80601f01602080910402602001604051908101604052809291908181526020018280546107e8906121db565b80156108335780601f1061080a57610100808354040283529160200191610833565b820191905f5260205f20905b81548152906001019060200180831161081657829003601f168201915b5050505050815260200160028201805461084c906121db565b80601f0160208091040260200160405190810160405280929190818152602001828054610878906121db565b80156108c35780601f1061089a576101008083540402835291602001916108c3565b820191905f5260205f20905b8154815290600101906020018083116108a657829003601f168201915b505050505081526020016003820180546108dc906121db565b80601f0160208091040260200160405190810160405280929190818152602001828054610908906121db565b80156109535780601f1061092a57610100808354040283529160200191610953565b820191905f5260205f20905b81548152906001019060200180831161093657829003601f168201915b505050505081525050815260200190600101906106fc565b50505050915080805480602002602001604051908101604052809291908181526020015f905b82821015610c00578382905f5260205f2090600402016040518060800160405290815f820180546109c1906121db565b80601f01602080910402602001604051908101604052809291908181526020018280546109ed906121db565b8015610a385780601f10610a0f57610100808354040283529160200191610a38565b820191905f5260205f20905b815481529060010190602001808311610a1b57829003601f168201915b50505050508152602001600182018054610a51906121db565b80601f0160208091040260200160405190810160405280929190818152602001828054610a7d906121db565b8015610ac85780601f10610a9f57610100808354040283529160200191610ac8565b820191905f5260205f20905b815481529060010190602001808311610aab57829003601f168201915b50505050508152602001600282018054610ae1906121db565b80601f0160208091040260200160405190810160405280929190818152602001828054610b0d906121db565b8015610b585780601f10610b2f57610100808354040283529160200191610b58565b820191905f5260205f20905b815481529060010190602001808311610b3b57829003601f168201915b50505050508152602001600382018054610b71906121db565b80601f0160208091040260200160405190810160405280929190818152602001828054610b9d906121db565b8015610be85780601f10610bbf57610100808354040283529160200191610be8565b820191905f5260205f20905b815481529060010190602001808311610bcb57829003601f168201915b50505050508152505081526020019060010190610991565b505050509050925092509250909192565b60025481565b60078181548110610c26575f80fd5b905f5260205f2090600402015f91509050805f018054610c45906121db565b80601f0160208091040260200160405190810160405280929190818152602001828054610c71906121db565b8015610cbc5780601f10610c9357610100808354040283529160200191610cbc565b820191905f5260205f20905b815481529060010190602001808311610c9f57829003601f168201915b505050505090806001018054610cd1906121db565b80601f0160208091040260200160405190810160405280929190818152602001828054610cfd906121db565b8015610d485780601f10610d1f57610100808354040283529160200191610d48565b820191905f5260205f20905b815481529060010190602001808311610d2b57829003601f168201915b505050505090806002018054610d5d906121db565b80601f0160208091040260200160405190810160405280929190818152602001828054610d89906121db565b8015610dd45780601f10610dab57610100808354040283529160200191610dd4565b820191905f5260205f20905b815481529060010190602001808311610db757829003601f168201915b505050505090806003018054610de9906121db565b80601f0160208091040260200160405190810160405280929190818152602001828054610e15906121db565b8015610e605780601f10610e3757610100808354040283529160200191610e60565b820191905f5260205f20905b815481529060010190602001808311610e4357829003601f168201915b5050505050905084565b5f8054906101000a900473ffffffffffffffffffffffffffffffffffffffff1673ffffffffffffffffffffffffffffffffffffffff163373ffffffffffffffffffffffffffffffffffffffff1614610ef7576040517f08c379a0000000000000000000000000000000000000000000000000000000008152600401610eee9061227b565b60405180910390fd5b600160045f6101000a81548160ff021916908315150217905550565b60035481565b60045f9054906101000a900460ff1681565b5f60055f3373ffffffffffffffffffffffffffffffffffffffff1673ffffffffffffffffffffffffffffffffffffffff1681526020019081526020015f205f9054906101000a900460ff1615610fb6576040517f08c379a0000000000000000000000000000000000000000000000000000000008152600401610fad906122e3565b60405180910390fd5b60035f815480929190610fc89061232e565b91905055505f6040518060800160405280878152602001868152602001858152602001848152509050600881908060018154018082558091505060019003905f5260205f2090600402015f909190919091505f820151815f01908161102d9190612512565b5060208201518160010190816110439190612512565b5060408201518160020190816110599190612512565b50606082015181600301908161106f9190612512565b505050600160055f3373ffffffffffffffffffffffffffffffffffffffff1673ffffffffffffffffffffffffffffffffffffffff1681526020019081526020015f205f6101000a81548160ff0219169083151502179055506001915050949350505050565b600881815481106110e3575f80fd5b905f5260205f2090600402015f91509050805f018054611102906121db565b80601f016020809104026020016040519081016040528092919081815260200182805461112e906121db565b80156111795780601f1061115057610100808354040283529160200191611179565b820191905f5260205f20905b81548152906001019060200180831161115c57829003601f168201915b50505050509080600101805461118e906121db565b80601f01602080910402602001604051908101604052809291908181526020018280546111ba906121db565b80156112055780601f106111dc57610100808354040283529160200191611205565b820191905f5260205f20905b8154815290600101906020018083116111e857829003601f168201915b50505050509080600201805461121a906121db565b80601f0160208091040260200160405190810160405280929190818152602001828054611246906121db565b80156112915780601f1061126857610100808354040283529160200191611291565b820191905f5260205f20905b81548152906001019060200180831161127457829003601f168201915b5050505050908060030180546112a6906121db565b80601f01602080910402602001604051908101604052809291908181526020018280546112d2906121db565b801561131d5780601f106112f45761010080835404028352916020019161131d565b820191905f5260205f20905b81548152906001019060200180831161130057829003601f168201915b5050505050905084565b5f805f9054906101000a900473ffffffffffffffffffffffffffffffffffffffff16905090565b5f60055f3373ffffffffffffffffffffffffffffffffffffffff1673ffffffffffffffffffffffffffffffffffffffff1681526020019081526020015f205f9054906101000a900460ff16156113d9576040517f08c379a00000000000000000000000000000000000000000000000000000000081526004016113d0906122e3565b60405180910390fd5b60025f8154809291906113eb9061232e565b91905055505f6040518060800160405280878152602001868152602001858152602001848152509050600781908060018154018082558091505060019003905f5260205f2090600402015f909190919091505f820151815f0190816114509190612512565b5060208201518160010190816114669190612512565b50604082015181600201908161147c9190612512565b5060608201518160030190816114929190612512565b505050600160055f3373ffffffffffffffffffffffffffffffffffffffff1673ffffffffffffffffffffffffffffffffffffffff1681526020019081526020015f205f6101000a81548160ff0219169083151502179055506001915050949350505050565b5f60055f3373ffffffffffffffffffffffffffffffffffffffff1673ffffffffffffffffffffffffffffffffffffffff1681526020019081526020015f205f9054906101000a900460ff1615611582576040517f08c379a0000000000000000000000000000000000000000000000000000000008152600401611579906122e3565b60405180910390fd5b60015f8154809291906115949061232e565b91905055505f6040518060800160405280878152602001868152602001858152602001848152509050600681908060018154018082558091505060019003905f5260205f2090600402015f909190919091505f820151815f0190816115f99190612512565b50602082015181600101908161160f9190612512565b5060408201518160020190816116259190612512565b50606082015181600301908161163b9190612512565b505050600160055f3373ffffffffffffffffffffffffffffffffffffffff1673ffffffffffffffffffffffffffffffffffffffff1681526020019081526020015f205f6101000a81548160ff0219169083151502179055506001915050949350505050565b606060045f9054906101000a900460ff166116f2576040518060400160405280601d81526020017f526573756c747320617265206e6f74206163636f756e746564207965740000008152509050611833565b6002546001541180156117085750600354600154115b1561174a576040518060400160405280600381526020017f41415000000000000000000000000000000000000000000000000000000000008152509050611833565b6001546002541180156117605750600354600254115b156117a2576040518060400160405280600381526020017f424a5000000000000000000000000000000000000000000000000000000000008152509050611833565b6001546003541180156117b85750600254600354115b156117fa576040518060400160405280600881526020017f434f4e47524553530000000000000000000000000000000000000000000000008152509050611833565b6040518060400160405280600f81526020017f4e6f20636c6561722077696e6e6572000000000000000000000000000000000081525090505b90565b60068181548110611845575f80fd5b905f5260205f2090600402015f91509050805f018054611864906121db565b80601f0160208091040260200160405190810160405280929190818152602001828054611890906121db565b80156118db5780601f106118b2576101008083540402835291602001916118db565b820191905f5260205f20905b8154815290600101906020018083116118be57829003601f168201915b5050505050908060010180546118f0906121db565b80601f016020809104026020016040519081016040528092919081815260200182805461191c906121db565b80156119675780601f1061193e57610100808354040283529160200191611967565b820191905f5260205f20905b81548152906001019060200180831161194a57829003601f168201915b50505050509080600201805461197c906121db565b80601f01602080910402602001604051908101604052809291908181526020018280546119a8906121db565b80156119f35780601f106119ca576101008083540402835291602001916119f3565b820191905f5260205f20905b8154815290600101906020018083116119d657829003601f168201915b505050505090806003018054611a08906121db565b80601f0160208091040260200160405190810160405280929190818152602001828054611a34906121db565b8015611a7f5780601f10611a5657610100808354040283529160200191611a7f565b820191905f5260205f20905b815481529060010190602001808311611a6257829003601f168201915b5050505050905084565b60015481565b5f60055f8373ffffffffffffffffffffffffffffffffffffffff1673ffffffffffffffffffffffffffffffffffffffff1681526020019081526020015f205f9054906101000a900460ff169050919050565b5f8054906101000a900473ffffffffffffffffffffffffffffffffffffffff1681565b5f604051905090565b5f80fd5b5f80fd5b5f73ffffffffffffffffffffffffffffffffffffffff82169050919050565b5f611b3e82611b15565b9050919050565b611b4e81611b34565b8114611b58575f80fd5b50565b5f81359050611b6981611b45565b92915050565b5f60208284031215611b8457611b83611b0d565b5b5f611b9184828501611b5b565b91505092915050565b5f8115159050919050565b611bae81611b9a565b82525050565b5f602082019050611bc75f830184611ba5565b92915050565b5f81519050919050565b5f82825260208201905092915050565b5f819050602082019050919050565b5f81519050919050565b5f82825260208201905092915050565b5f5b83811015611c2d578082015181840152602081019050611c12565b5f8484015250505050565b5f601f19601f8301169050919050565b5f611c5282611bf6565b611c5c8185611c00565b9350611c6c818560208601611c10565b611c7581611c38565b840191505092915050565b5f608083015f8301518482035f860152611c9a8282611c48565b91505060208301518482036020860152611cb48282611c48565b91505060408301518482036040860152611cce8282611c48565b91505060608301518482036060860152611ce88282611c48565b9150508091505092915050565b5f611d008383611c80565b905092915050565b5f602082019050919050565b5f611d1e82611bcd565b611d288185611bd7565b935083602082028501611d3a85611be7565b805f5b85811015611d755784840389528151611d568582611cf5565b9450611d6183611d08565b925060208a01995050600181019050611d3d565b50829750879550505050505092915050565b5f6060820190508181035f830152611d9f8186611d14565b90508181036020830152611db38185611d14565b90508181036040830152611dc78184611d14565b9050949350505050565b5f819050919050565b611de381611dd1565b82525050565b5f602082019050611dfc5f830184611dda565b92915050565b611e0b81611dd1565b8114611e15575f80fd5b50565b5f81359050611e2681611e02565b92915050565b5f60208284031215611e4157611e40611b0d565b5b5f611e4e84828501611e18565b91505092915050565b5f82825260208201905092915050565b5f611e7182611bf6565b611e7b8185611e57565b9350611e8b818560208601611c10565b611e9481611c38565b840191505092915050565b5f6080820190508181035f830152611eb78187611e67565b90508181036020830152611ecb8186611e67565b90508181036040830152611edf8185611e67565b90508181036060830152611ef38184611e67565b905095945050505050565b5f80fd5b5f80fd5b7f4e487b71000000000000000000000000000000000000000000000000000000005f52604160045260245ffd5b611f3c82611c38565b810181811067ffffffffffffffff82111715611f5b57611f5a611f06565b5b80604052505050565b5f611f6d611b04565b9050611f798282611f33565b919050565b5f67ffffffffffffffff821115611f9857611f97611f06565b5b611fa182611c38565b9050602081019050919050565b828183375f83830152505050565b5f611fce611fc984611f7e565b611f64565b905082815260208101848484011115611fea57611fe9611f02565b5b611ff5848285611fae565b509392505050565b5f82601f83011261201157612010611efe565b5b8135612021848260208601611fbc565b91505092915050565b5f805f806080858703121561204257612041611b0d565b5b5f85013567ffffffffffffffff81111561205f5761205e611b11565b5b61206b87828801611ffd565b945050602085013567ffffffffffffffff81111561208c5761208b611b11565b5b61209887828801611ffd565b935050604085013567ffffffffffffffff8111156120b9576120b8611b11565b5b6120c587828801611ffd565b925050606085013567ffffffffffffffff8111156120e6576120e5611b11565b5b6120f287828801611ffd565b91505092959194509250565b61210781611b34565b82525050565b5f6020820190506121205f8301846120fe565b92915050565b5f6020820190508181035f83015261213e8184611e67565b905092915050565b7f596f7520617265206e6f7420617574686f72697a6564000000000000000000005f82015250565b5f61217a601683611e57565b915061218582612146565b602082019050919050565b5f6020820190508181035f8301526121a78161216e565b9050919050565b7f4e487b71000000000000000000000000000000000000000000000000000000005f52602260045260245ffd5b5f60028204905060018216806121f257607f821691505b602082108103612205576122046121ae565b5b50919050565b7f456c656374696f6e20726573756c742063616e206f6e6c7920626520616374695f8201527f766174656420627920636f6d6d69747465650000000000000000000000000000602082015250565b5f612265603283611e57565b91506122708261220b565b604082019050919050565b5f6020820190508181035f83015261229281612259565b9050919050565b7f596f75206861766520616c726561647920766f746564000000000000000000005f82015250565b5f6122cd601683611e57565b91506122d882612299565b602082019050919050565b5f6020820190508181035f8301526122fa816122c1565b9050919050565b7f4e487b71000000000000000000000000000000000000000000000000000000005f52601160045260245ffd5b5f61233882611dd1565b91507fffffffffffffffffffffffffffffffffffffffffffffffffffffffffffffffff820361236a57612369612301565b5b600182019050919050565b5f819050815f5260205f209050919050565b5f6020601f8301049050919050565b5f82821b905092915050565b5f600883026123d17fffffffffffffffffffffffffffffffffffffffffffffffffffffffffffffffff82612396565b6123db8683612396565b95508019841693508086168417925050509392505050565b5f819050919050565b5f61241661241161240c84611dd1565b6123f3565b611dd1565b9050919050565b5f819050919050565b61242f836123fc565b61244361243b8261241d565b8484546123a2565b825550505050565b5f90565b61245761244b565b612462818484612426565b505050565b5b818110156124855761247a5f8261244f565b600181019050612468565b5050565b601f8211156124ca5761249b81612375565b6124a484612387565b810160208510156124b3578190505b6124c76124bf85612387565b830182612467565b50505b505050565b5f82821c905092915050565b5f6124ea5f19846008026124cf565b1980831691505092915050565b5f61250283836124db565b9150826002028217905092915050565b61251b82611bf6565b67ffffffffffffffff81111561253457612533611f06565b5b61253e82546121db565b612549828285612489565b5f60209050601f83116001811461257a575f8415612568578287015190505b61257285826124f7565b8655506125d9565b601f19841661258886612375565b5f5b828110156125af5784890151825560018201915060208501945060208101905061258a565b868310156125cc57848901516125c8601f8916826124db565b8355505b6001600288020188555050505b50505050505056fea2646970667358221220bb309ba48047c2d4ee5453e8c5081c6153ba8b9847ac2b1ae86c1f8c46083f7964736f6c63430008160033",
			"opcodes": "PUSH1 0x80 PUSH1 0x40 MSTORE PUSH0 PUSH1 0x4 PUSH0 PUSH2 0x100 EXP DUP2 SLOAD DUP2 PUSH1 0xFF MUL NOT AND SWAP1 DUP4 ISZERO ISZERO MUL OR SWAP1 SSTORE POP CALLVALUE DUP1 ISZERO PUSH2 0x28 JUMPI PUSH0 DUP1 REVERT JUMPDEST POP CALLER PUSH0 DUP1 PUSH2 0x100 EXP DUP2 SLOAD DUP2 PUSH20 0xFFFFFFFFFFFFFFFFFFFFFFFFFFFFFFFFFFFFFFFF MUL NOT AND SWAP1 DUP4 PUSH20 0xFFFFFFFFFFFFFFFFFFFFFFFFFFFFFFFFFFFFFFFF AND MUL OR SWAP1 SSTORE POP PUSH2 0x2617 DUP1 PUSH2 0x75 PUSH0 CODECOPY PUSH0 RETURN INVALID PUSH1 0x80 PUSH1 0x40 MSTORE CALLVALUE DUP1 ISZERO PUSH2 0xF JUMPI PUSH0 DUP1 REVERT JUMPDEST POP PUSH1 0x4 CALLDATASIZE LT PUSH2 0x109 JUMPI PUSH0 CALLDATALOAD PUSH1 0xE0 SHR DUP1 PUSH4 0x3AA075F7 GT PUSH2 0xA0 JUMPI DUP1 PUSH4 0xCA3EB443 GT PUSH2 0x6F JUMPI DUP1 PUSH4 0xCA3EB443 EQ PUSH2 0x2D5 JUMPI DUP1 PUSH4 0xCF9B64A1 EQ PUSH2 0x2F3 JUMPI DUP1 PUSH4 0xD3BF0CE6 EQ PUSH2 0x326 JUMPI DUP1 PUSH4 0xD867909A EQ PUSH2 0x344 JUMPI DUP1 PUSH4 0xEFDEE94F EQ PUSH2 0x374 JUMPI PUSH2 0x109 JUMP JUMPDEST DUP1 PUSH4 0x3AA075F7 EQ PUSH2 0x224 JUMPI DUP1 PUSH4 0x604CB434 EQ PUSH2 0x257 JUMPI DUP1 PUSH4 0xA02E1CBF EQ PUSH2 0x275 JUMPI DUP1 PUSH4 0xA17CA7F9 EQ PUSH2 0x2A5 JUMPI PUSH2 0x109 JUMP JUMPDEST DUP1 PUSH4 0x249EA56E GT PUSH2 0xDC JUMPI DUP1 PUSH4 0x249EA56E EQ PUSH2 0x1AE JUMPI DUP1 PUSH4 0x25DF8AEF EQ PUSH2 0x1B8 JUMPI DUP1 PUSH4 0x33EE3131 EQ PUSH2 0x1D6 JUMPI DUP1 PUSH4 0x359FE946 EQ PUSH2 0x1F4 JUMPI PUSH2 0x109 JUMP JUMPDEST DUP1 PUSH4 0x9EEF43E EQ PUSH2 0x10D JUMPI DUP1 PUSH4 0xDC96015 EQ PUSH2 0x13D JUMPI DUP1 PUSH4 0x11636F58 EQ PUSH2 0x15D JUMPI DUP1 PUSH4 0x23097F2D EQ PUSH2 0x17B JUMPI JUMPDEST PUSH0 DUP1 REVERT JUMPDEST PUSH2 0x127 PUSH1 0x4 DUP1 CALLDATASIZE SUB DUP2 ADD SWAP1 PUSH2 0x122 SWAP2 SWAP1 PUSH2 0x1B6F JUMP JUMPDEST PUSH2 0x392 JUMP JUMPDEST PUSH1 0x40 MLOAD PUSH2 0x134 SWAP2 SWAP1 PUSH2 0x1BB4 JUMP JUMPDEST PUSH1 0x40 MLOAD DUP1 SWAP2 SUB SWAP1 RETURN JUMPDEST PUSH2 0x145 PUSH2 0x3AF JUMP JUMPDEST PUSH1 0x40 MLOAD PUSH2 0x154 SWAP4 SWAP3 SWAP2 SWAP1 PUSH2 0x1D87 JUMP JUMPDEST PUSH1 0x40 MLOAD DUP1 SWAP2 SUB SWAP1 RETURN JUMPDEST PUSH2 0x165 PUSH2 0xC11 JUMP JUMPDEST PUSH1 0x40 MLOAD PUSH2 0x172 SWAP2 SWAP1 PUSH2 0x1DE9 JUMP JUMPDEST PUSH1 0x40 MLOAD DUP1 SWAP2 SUB SWAP1 RETURN JUMPDEST PUSH2 0x195 PUSH1 0x4 DUP1 CALLDATASIZE SUB DUP2 ADD SWAP1 PUSH2 0x190 SWAP2 SWAP1 PUSH2 0x1E2C JUMP JUMPDEST PUSH2 0xC17 JUMP JUMPDEST PUSH1 0x40 MLOAD PUSH2 0x1A5 SWAP5 SWAP4 SWAP3 SWAP2 SWAP1 PUSH2 0x1E9F JUMP JUMPDEST PUSH1 0x40 MLOAD DUP1 SWAP2 SUB SWAP1 RETURN JUMPDEST PUSH2 0x1B6 PUSH2 0xE6A JUMP JUMPDEST STOP JUMPDEST PUSH2 0x1C0 PUSH2 0xF13 JUMP JUMPDEST PUSH1 0x40 MLOAD PUSH2 0x1CD SWAP2 SWAP1 PUSH2 0x1DE9 JUMP JUMPDEST PUSH1 0x40 MLOAD DUP1 SWAP2 SUB SWAP1 RETURN JUMPDEST PUSH2 0x1DE PUSH2 0xF19 JUMP JUMPDEST PUSH1 0x40 MLOAD PUSH2 0x1EB SWAP2 SWAP1 PUSH2 0x1BB4 JUMP JUMPDEST PUSH1 0x40 MLOAD DUP1 SWAP2 SUB SWAP1 RETURN JUMPDEST PUSH2 0x20E PUSH1 0x4 DUP1 CALLDATASIZE SUB DUP2 ADD SWAP1 PUSH2 0x209 SWAP2 SWAP1 PUSH2 0x202A JUMP JUMPDEST PUSH2 0xF2B JUMP JUMPDEST PUSH1 0x40 MLOAD PUSH2 0x21B SWAP2 SWAP1 PUSH2 0x1BB4 JUMP JUMPDEST PUSH1 0x40 MLOAD DUP1 SWAP2 SUB SWAP1 RETURN JUMPDEST PUSH2 0x23E PUSH1 0x4 DUP1 CALLDATASIZE SUB DUP2 ADD SWAP1 PUSH2 0x239 SWAP2 SWAP1 PUSH2 0x1E2C JUMP JUMPDEST PUSH2 0x10D4 JUMP JUMPDEST PUSH1 0x40 MLOAD PUSH2 0x24E SWAP5 SWAP4 SWAP3 SWAP2 SWAP1 PUSH2 0x1E9F JUMP JUMPDEST PUSH1 0x40 MLOAD DUP1 SWAP2 SUB SWAP1 RETURN JUMPDEST PUSH2 0x25F PUSH2 0x1327 JUMP JUMPDEST PUSH1 0x40 MLOAD PUSH2 0x26C SWAP2 SWAP1 PUSH2 0x210D JUMP JUMPDEST PUSH1 0x40 MLOAD DUP1 SWAP2 SUB SWAP1 RETURN JUMPDEST PUSH2 0x28F PUSH1 0x4 DUP1 CALLDATASIZE SUB DUP2 ADD SWAP1 PUSH2 0x28A SWAP2 SWAP1 PUSH2 0x202A JUMP JUMPDEST PUSH2 0x134E JUMP JUMPDEST PUSH1 0x40 MLOAD PUSH2 0x29C SWAP2 SWAP1 PUSH2 0x1BB4 JUMP JUMPDEST PUSH1 0x40 MLOAD DUP1 SWAP2 SUB SWAP1 RETURN JUMPDEST PUSH2 0x2BF PUSH1 0x4 DUP1 CALLDATASIZE SUB DUP2 ADD SWAP1 PUSH2 0x2BA SWAP2 SWAP1 PUSH2 0x202A JUMP JUMPDEST PUSH2 0x14F7 JUMP JUMPDEST PUSH1 0x40 MLOAD PUSH2 0x2CC SWAP2 SWAP1 PUSH2 0x1BB4 JUMP JUMPDEST PUSH1 0x40 MLOAD DUP1 SWAP2 SUB SWAP1 RETURN JUMPDEST PUSH2 0x2DD PUSH2 0x16A0 JUMP JUMPDEST PUSH1 0x40 MLOAD PUSH2 0x2EA SWAP2 SWAP1 PUSH2 0x2126 JUMP JUMPDEST PUSH1 0x40 MLOAD DUP1 SWAP2 SUB SWAP1 RETURN JUMPDEST PUSH2 0x30D PUSH1 0x4 DUP1 CALLDATASIZE SUB DUP2 ADD SWAP1 PUSH2 0x308 SWAP2 SWAP1 PUSH2 0x1E2C JUMP JUMPDEST PUSH2 0x1836 JUMP JUMPDEST PUSH1 0x40 MLOAD PUSH2 0x31D SWAP5 SWAP4 SWAP3 SWAP2 SWAP1 PUSH2 0x1E9F JUMP JUMPDEST PUSH1 0x40 MLOAD DUP1 SWAP2 SUB SWAP1 RETURN JUMPDEST PUSH2 0x32E PUSH2 0x1A89 JUMP JUMPDEST PUSH1 0x40 MLOAD PUSH2 0x33B SWAP2 SWAP1 PUSH2 0x1DE9 JUMP JUMPDEST PUSH1 0x40 MLOAD DUP1 SWAP2 SUB SWAP1 RETURN JUMPDEST PUSH2 0x35E PUSH1 0x4 DUP1 CALLDATASIZE SUB DUP2 ADD SWAP1 PUSH2 0x359 SWAP2 SWAP1 PUSH2 0x1B6F JUMP JUMPDEST PUSH2 0x1A8F JUMP JUMPDEST PUSH1 0x40 MLOAD PUSH2 0x36B SWAP2 SWAP1 PUSH2 0x1BB4 JUMP JUMPDEST PUSH1 0x40 MLOAD DUP1 SWAP2 SUB SWAP1 RETURN JUMPDEST PUSH2 0x37C PUSH2 0x1AE1 JUMP JUMPDEST PUSH1 0x40 MLOAD PUSH2 0x389 SWAP2 SWAP1 PUSH2 0x210D JUMP JUMPDEST PUSH1 0x40 MLOAD DUP1 SWAP2 SUB SWAP1 RETURN JUMPDEST PUSH1 0x5 PUSH1 0x20 MSTORE DUP1 PUSH0 MSTORE PUSH1 0x40 PUSH0 KECCAK256 PUSH0 SWAP2 POP SLOAD SWAP1 PUSH2 0x100 EXP SWAP1 DIV PUSH1 0xFF AND DUP2 JUMP JUMPDEST PUSH1 0x60 DUP1 PUSH1 0x60 PUSH0 DUP1 SLOAD SWAP1 PUSH2 0x100 EXP SWAP1 DIV PUSH20 0xFFFFFFFFFFFFFFFFFFFFFFFFFFFFFFFFFFFFFFFF AND PUSH20 0xFFFFFFFFFFFFFFFFFFFFFFFFFFFFFFFFFFFFFFFF AND CALLER PUSH20 0xFFFFFFFFFFFFFFFFFFFFFFFFFFFFFFFFFFFFFFFF AND EQ PUSH2 0x441 JUMPI PUSH1 0x40 MLOAD PUSH32 0x8C379A000000000000000000000000000000000000000000000000000000000 DUP2 MSTORE PUSH1 0x4 ADD PUSH2 0x438 SWAP1 PUSH2 0x2190 JUMP JUMPDEST PUSH1 0x40 MLOAD DUP1 SWAP2 SUB SWAP1 REVERT JUMPDEST PUSH1 0x6 PUSH1 0x7 PUSH1 0x8 DUP3 DUP1 SLOAD DUP1 PUSH1 0x20 MUL PUSH1 0x20 ADD PUSH1 0x40 MLOAD SWAP1 DUP2 ADD PUSH1 0x40 MSTORE DUP1 SWAP3 SWAP2 SWAP1 DUP2 DUP2 MSTORE PUSH1 0x20 ADD PUSH0 SWAP1 JUMPDEST DUP3 DUP3 LT ISZERO PUSH2 0x6D6 JUMPI DUP4 DUP3 SWAP1 PUSH0 MSTORE PUSH1 0x20 PUSH0 KECCAK256 SWAP1 PUSH1 0x4 MUL ADD PUSH1 0x40 MLOAD DUP1 PUSH1 0x80 ADD PUSH1 0x40 MSTORE SWAP1 DUP2 PUSH0 DUP3 ADD DUP1 SLOAD PUSH2 0x497 SWAP1 PUSH2 0x21DB JUMP JUMPDEST DUP1 PUSH1 0x1F ADD PUSH1 0x20 DUP1 SWAP2 DIV MUL PUSH1 0x20 ADD PUSH1 0x40 MLOAD SWAP1 DUP2 ADD PUSH1 0x40 MSTORE DUP1 SWAP3 SWAP2 SWAP1 DUP2 DUP2 MSTORE PUSH1 0x20 ADD DUP3 DUP1 SLOAD PUSH2 0x4C3 SWAP1 PUSH2 0x21DB JUMP JUMPDEST DUP1 ISZERO PUSH2 0x50E JUMPI DUP1 PUSH1 0x1F LT PUSH2 0x4E5 JUMPI PUSH2 0x100 DUP1 DUP4 SLOAD DIV MUL DUP4 MSTORE SWAP2 PUSH1 0x20 ADD SWAP2 PUSH2 0x50E JUMP JUMPDEST DUP3 ADD SWAP2 SWAP1 PUSH0 MSTORE PUSH1 0x20 PUSH0 KECCAK256 SWAP1 JUMPDEST DUP2 SLOAD DUP2 MSTORE SWAP1 PUSH1 0x1 ADD SWAP1 PUSH1 0x20 ADD DUP1 DUP4 GT PUSH2 0x4F1 JUMPI DUP3 SWAP1 SUB PUSH1 0x1F AND DUP3 ADD SWAP2 JUMPDEST POP POP POP POP POP DUP2 MSTORE PUSH1 0x20 ADD PUSH1 0x1 DUP3 ADD DUP1 SLOAD PUSH2 0x527 SWAP1 PUSH2 0x21DB JUMP JUMPDEST DUP1 PUSH1 0x1F ADD PUSH1 0x20 DUP1 SWAP2 DIV MUL PUSH1 0x20 ADD PUSH1 0x40 MLOAD SWAP1 DUP2 ADD PUSH1 0x40 MSTORE DUP1 SWAP3 SWAP2 SWAP1 DUP2 DUP2 MSTORE PUSH1 0x20 ADD DUP3 DUP1 SLOAD PUSH2 0x553 SWAP1 PUSH2 0x21DB JUMP JUMPDEST DUP1 ISZERO PUSH2 0x59E JUMPI DUP1 PUSH1 0x1F LT PUSH2 0x575 JUMPI PUSH2 0x100 DUP1 DUP4 SLOAD DIV MUL DUP4 MSTORE SWAP2 PUSH1 0x20 ADD SWAP2 PUSH2 0x59E JUMP JUMPDEST DUP3 ADD SWAP2 SWAP1 PUSH0 MSTORE PUSH1 0x20 PUSH0 KECCAK256 SWAP1 JUMPDEST DUP2 SLOAD DUP2 MSTORE SWAP1 PUSH1 0x1 ADD SWAP1 PUSH1 0x20 ADD DUP1 DUP4 GT PUSH2 0x581 JUMPI DUP3 SWAP1 SUB PUSH1 0x1F AND DUP3 ADD SWAP2 JUMPDEST POP POP POP POP POP DUP2 MSTORE PUSH1 0x20 ADD PUSH1 0x2 DUP3 ADD DUP1 SLOAD PUSH2 0x5B7 SWAP1 PUSH2 0x21DB JUMP JUMPDEST DUP1 PUSH1 0x1F ADD PUSH1 0x20 DUP1 SWAP2 DIV MUL PUSH1 0x20 ADD PUSH1 0x40 MLOAD SWAP1 DUP2 ADD PUSH1 0x40 MSTORE DUP1 SWAP3 SWAP2 SWAP1 DUP2 DUP2 MSTORE PUSH1 0x20 ADD DUP3 DUP1 SLOAD PUSH2 0x5E3 SWAP1 PUSH2 0x21DB JUMP JUMPDEST DUP1 ISZERO PUSH2 0x62E JUMPI DUP1 PUSH1 0x1F LT PUSH2 0x605 JUMPI PUSH2 0x100 DUP1 DUP4 SLOAD DIV MUL DUP4 MSTORE SWAP2 PUSH1 0x20 ADD SWAP2 PUSH2 0x62E JUMP JUMPDEST DUP3 ADD SWAP2 SWAP1 PUSH0 MSTORE PUSH1 0x20 PUSH0 KECCAK256 SWAP1 JUMPDEST DUP2 SLOAD DUP2 MSTORE SWAP1 PUSH1 0x1 ADD SWAP1 PUSH1 0x20 ADD DUP1 DUP4 GT PUSH2 0x611 JUMPI DUP3 SWAP1 SUB PUSH1 0x1F AND DUP3 ADD SWAP2 JUMPDEST POP POP POP POP POP DUP2 MSTORE PUSH1 0x20 ADD PUSH1 0x3 DUP3 ADD DUP1 SLOAD PUSH2 0x647 SWAP1 PUSH2 0x21DB JUMP JUMPDEST DUP1 PUSH1 0x1F ADD PUSH1 0x20 DUP1 SWAP2 DIV MUL PUSH1 0x20 ADD PUSH1 0x40 MLOAD SWAP1 DUP2 ADD PUSH1 0x40 MSTORE DUP1 SWAP3 SWAP2 SWAP1 DUP2 DUP2 MSTORE PUSH1 0x20 ADD DUP3 DUP1 SLOAD PUSH2 0x673 SWAP1 PUSH2 0x21DB JUMP JUMPDEST DUP1 ISZERO PUSH2 0x6BE JUMPI DUP1 PUSH1 0x1F LT PUSH2 0x695 JUMPI PUSH2 0x100 DUP1 DUP4 SLOAD DIV MUL DUP4 MSTORE SWAP2 PUSH1 0x20 ADD SWAP2 PUSH2 0x6BE JUMP JUMPDEST DUP3 ADD SWAP2 SWAP1 PUSH0 MSTORE PUSH1 0x20 PUSH0 KECCAK256 SWAP1 JUMPDEST DUP2 SLOAD DUP2 MSTORE SWAP1 PUSH1 0x1 ADD SWAP1 PUSH1 0x20 ADD DUP1 DUP4 GT PUSH2 0x6A1 JUMPI DUP3 SWAP1 SUB PUSH1 0x1F AND DUP3 ADD SWAP2 JUMPDEST POP POP POP POP POP DUP2 MSTORE POP POP DUP2 MSTORE PUSH1 0x20 ADD SWAP1 PUSH1 0x1 ADD SWAP1 PUSH2 0x467 JUMP JUMPDEST POP POP POP POP SWAP3 POP DUP2 DUP1 SLOAD DUP1 PUSH1 0x20 MUL PUSH1 0x20 ADD PUSH1 0x40 MLOAD SWAP1 DUP2 ADD PUSH1 0x40 MSTORE DUP1 SWAP3 SWAP2 SWAP1 DUP2 DUP2 MSTORE PUSH1 0x20 ADD PUSH0 SWAP1 JUMPDEST DUP3 DUP3 LT ISZERO PUSH2 0x96B JUMPI DUP4 DUP3 SWAP1 PUSH0 MSTORE PUSH1 0x20 PUSH0 KECCAK256 SWAP1 PUSH1 0x4 MUL ADD PUSH1 0x40 MLOAD DUP1 PUSH1 0x80 ADD PUSH1 0x40 MSTORE SWAP1 DUP2 PUSH0 DUP3 ADD DUP1 SLOAD PUSH2 0x72C SWAP1 PUSH2 0x21DB JUMP JUMPDEST DUP1 PUSH1 0x1F ADD PUSH1 0x20 DUP1 SWAP2 DIV MUL PUSH1 0x20 ADD PUSH1 0x40 MLOAD SWAP1 DUP2 ADD PUSH1 0x40 MSTORE DUP1 SWAP3 SWAP2 SWAP1 DUP2 DUP2 MSTORE PUSH1 0x20 ADD DUP3 DUP1 SLOAD PUSH2 0x758 SWAP1 PUSH2 0x21DB JUMP JUMPDEST DUP1 ISZERO PUSH2 0x7A3 JUMPI DUP1 PUSH1 0x1F LT PUSH2 0x77A JUMPI PUSH2 0x100 DUP1 DUP4 SLOAD DIV MUL DUP4 MSTORE SWAP2 PUSH1 0x20 ADD SWAP2 PUSH2 0x7A3 JUMP JUMPDEST DUP3 ADD SWAP2 SWAP1 PUSH0 MSTORE PUSH1 0x20 PUSH0 KECCAK256 SWAP1 JUMPDEST DUP2 SLOAD DUP2 MSTORE SWAP1 PUSH1 0x1 ADD SWAP1 PUSH1 0x20 ADD DUP1 DUP4 GT PUSH2 0x786 JUMPI DUP3 SWAP1 SUB PUSH1 0x1F AND DUP3 ADD SWAP2 JUMPDEST POP POP POP POP POP DUP2 MSTORE PUSH1 0x20 ADD PUSH1 0x1 DUP3 ADD DUP1 SLOAD PUSH2 0x7BC SWAP1 PUSH2 0x21DB JUMP JUMPDEST DUP1 PUSH1 0x1F ADD PUSH1 0x20 DUP1 SWAP2 DIV MUL PUSH1 0x20 ADD PUSH1 0x40 MLOAD SWAP1 DUP2 ADD PUSH1 0x40 MSTORE DUP1 SWAP3 SWAP2 SWAP1 DUP2 DUP2 MSTORE PUSH1 0x20 ADD DUP3 DUP1 SLOAD PUSH2 0x7E8 SWAP1 PUSH2 0x21DB JUMP JUMPDEST DUP1 ISZERO PUSH2 0x833 JUMPI DUP1 PUSH1 0x1F LT PUSH2 0x80A JUMPI PUSH2 0x100 DUP1 DUP4 SLOAD DIV MUL DUP4 MSTORE SWAP2 PUSH1 0x20 ADD SWAP2 PUSH2 0x833 JUMP JUMPDEST DUP3 ADD SWAP2 SWAP1 PUSH0 MSTORE PUSH1 0x20 PUSH0 KECCAK256 SWAP1 JUMPDEST DUP2 SLOAD DUP2 MSTORE SWAP1 PUSH1 0x1 ADD SWAP1 PUSH1 0x20 ADD DUP1 DUP4 GT PUSH2 0x816 JUMPI DUP3 SWAP1 SUB PUSH1 0x1F AND DUP3 ADD SWAP2 JUMPDEST POP POP POP POP POP DUP2 MSTORE PUSH1 0x20 ADD PUSH1 0x2 DUP3 ADD DUP1 SLOAD PUSH2 0x84C SWAP1 PUSH2 0x21DB JUMP JUMPDEST DUP1 PUSH1 0x1F ADD PUSH1 0x20 DUP1 SWAP2 DIV MUL PUSH1 0x20 ADD PUSH1 0x40 MLOAD SWAP1 DUP2 ADD PUSH1 0x40 MSTORE DUP1 SWAP3 SWAP2 SWAP1 DUP2 DUP2 MSTORE PUSH1 0x20 ADD DUP3 DUP1 SLOAD PUSH2 0x878 SWAP1 PUSH2 0x21DB JUMP JUMPDEST DUP1 ISZERO PUSH2 0x8C3 JUMPI DUP1 PUSH1 0x1F LT PUSH2 0x89A JUMPI PUSH2 0x100 DUP1 DUP4 SLOAD DIV MUL DUP4 MSTORE SWAP2 PUSH1 0x20 ADD SWAP2 PUSH2 0x8C3 JUMP JUMPDEST DUP3 ADD SWAP2 SWAP1 PUSH0 MSTORE PUSH1 0x20 PUSH0 KECCAK256 SWAP1 JUMPDEST DUP2 SLOAD DUP2 MSTORE SWAP1 PUSH1 0x1 ADD SWAP1 PUSH1 0x20 ADD DUP1 DUP4 GT PUSH2 0x8A6 JUMPI DUP3 SWAP1 SUB PUSH1 0x1F AND DUP3 ADD SWAP2 JUMPDEST POP POP POP POP POP DUP2 MSTORE PUSH1 0x20 ADD PUSH1 0x3 DUP3 ADD DUP1 SLOAD PUSH2 0x8DC SWAP1 PUSH2 0x21DB JUMP JUMPDEST DUP1 PUSH1 0x1F ADD PUSH1 0x20 DUP1 SWAP2 DIV MUL PUSH1 0x20 ADD PUSH1 0x40 MLOAD SWAP1 DUP2 ADD PUSH1 0x40 MSTORE DUP1 SWAP3 SWAP2 SWAP1 DUP2 DUP2 MSTORE PUSH1 0x20 ADD DUP3 DUP1 SLOAD PUSH2 0x908 SWAP1 PUSH2 0x21DB JUMP JUMPDEST DUP1 ISZERO PUSH2 0x953 JUMPI DUP1 PUSH1 0x1F LT PUSH2 0x92A JUMPI PUSH2 0x100 DUP1 DUP4 SLOAD DIV MUL DUP4 MSTORE SWAP2 PUSH1 0x20 ADD SWAP2 PUSH2 0x953 JUMP JUMPDEST DUP3 ADD SWAP2 SWAP1 PUSH0 MSTORE PUSH1 0x20 PUSH0 KECCAK256 SWAP1 JUMPDEST DUP2 SLOAD DUP2 MSTORE SWAP1 PUSH1 0x1 ADD SWAP1 PUSH1 0x20 ADD DUP1 DUP4 GT PUSH2 0x936 JUMPI DUP3 SWAP1 SUB PUSH1 0x1F AND DUP3 ADD SWAP2 JUMPDEST POP POP POP POP POP DUP2 MSTORE POP POP DUP2 MSTORE PUSH1 0x20 ADD SWAP1 PUSH1 0x1 ADD SWAP1 PUSH2 0x6FC JUMP JUMPDEST POP POP POP POP SWAP2 POP DUP1 DUP1 SLOAD DUP1 PUSH1 0x20 MUL PUSH1 0x20 ADD PUSH1 0x40 MLOAD SWAP1 DUP2 ADD PUSH1 0x40 MSTORE DUP1 SWAP3 SWAP2 SWAP1 DUP2 DUP2 MSTORE PUSH1 0x20 ADD PUSH0 SWAP1 JUMPDEST DUP3 DUP3 LT ISZERO PUSH2 0xC00 JUMPI DUP4 DUP3 SWAP1 PUSH0 MSTORE PUSH1 0x20 PUSH0 KECCAK256 SWAP1 PUSH1 0x4 MUL ADD PUSH1 0x40 MLOAD DUP1 PUSH1 0x80 ADD PUSH1 0x40 MSTORE SWAP1 DUP2 PUSH0 DUP3 ADD DUP1 SLOAD PUSH2 0x9C1 SWAP1 PUSH2 0x21DB JUMP JUMPDEST DUP1 PUSH1 0x1F ADD PUSH1 0x20 DUP1 SWAP2 DIV MUL PUSH1 0x20 ADD PUSH1 0x40 MLOAD SWAP1 DUP2 ADD PUSH1 0x40 MSTORE DUP1 SWAP3 SWAP2 SWAP1 DUP2 DUP2 MSTORE PUSH1 0x20 ADD DUP3 DUP1 SLOAD PUSH2 0x9ED SWAP1 PUSH2 0x21DB JUMP JUMPDEST DUP1 ISZERO PUSH2 0xA38 JUMPI DUP1 PUSH1 0x1F LT PUSH2 0xA0F JUMPI PUSH2 0x100 DUP1 DUP4 SLOAD DIV MUL DUP4 MSTORE SWAP2 PUSH1 0x20 ADD SWAP2 PUSH2 0xA38 JUMP JUMPDEST DUP3 ADD SWAP2 SWAP1 PUSH0 MSTORE PUSH1 0x20 PUSH0 KECCAK256 SWAP1 JUMPDEST DUP2 SLOAD DUP2 MSTORE SWAP1 PUSH1 0x1 ADD SWAP1 PUSH1 0x20 ADD DUP1 DUP4 GT PUSH2 0xA1B JUMPI DUP3 SWAP1 SUB PUSH1 0x1F AND DUP3 ADD SWAP2 JUMPDEST POP POP POP POP POP DUP2 MSTORE PUSH1 0x20 ADD PUSH1 0x1 DUP3 ADD DUP1 SLOAD PUSH2 0xA51 SWAP1 PUSH2 0x21DB JUMP JUMPDEST DUP1 PUSH1 0x1F ADD PUSH1 0x20 DUP1 SWAP2 DIV MUL PUSH1 0x20 ADD PUSH1 0x40 MLOAD SWAP1 DUP2 ADD PUSH1 0x40 MSTORE DUP1 SWAP3 SWAP2 SWAP1 DUP2 DUP2 MSTORE PUSH1 0x20 ADD DUP3 DUP1 SLOAD PUSH2 0xA7D SWAP1 PUSH2 0x21DB JUMP JUMPDEST DUP1 ISZERO PUSH2 0xAC8 JUMPI DUP1 PUSH1 0x1F LT PUSH2 0xA9F JUMPI PUSH2 0x100 DUP1 DUP4 SLOAD DIV MUL DUP4 MSTORE SWAP2 PUSH1 0x20 ADD SWAP2 PUSH2 0xAC8 JUMP JUMPDEST DUP3 ADD SWAP2 SWAP1 PUSH0 MSTORE PUSH1 0x20 PUSH0 KECCAK256 SWAP1 JUMPDEST DUP2 SLOAD DUP2 MSTORE SWAP1 PUSH1 0x1 ADD SWAP1 PUSH1 0x20 ADD DUP1 DUP4 GT PUSH2 0xAAB JUMPI DUP3 SWAP1 SUB PUSH1 0x1F AND DUP3 ADD SWAP2 JUMPDEST POP POP POP POP POP DUP2 MSTORE PUSH1 0x20 ADD PUSH1 0x2 DUP3 ADD DUP1 SLOAD PUSH2 0xAE1 SWAP1 PUSH2 0x21DB JUMP JUMPDEST DUP1 PUSH1 0x1F ADD PUSH1 0x20 DUP1 SWAP2 DIV MUL PUSH1 0x20 ADD PUSH1 0x40 MLOAD SWAP1 DUP2 ADD PUSH1 0x40 MSTORE DUP1 SWAP3 SWAP2 SWAP1 DUP2 DUP2 MSTORE PUSH1 0x20 ADD DUP3 DUP1 SLOAD PUSH2 0xB0D SWAP1 PUSH2 0x21DB JUMP JUMPDEST DUP1 ISZERO PUSH2 0xB58 JUMPI DUP1 PUSH1 0x1F LT PUSH2 0xB2F JUMPI PUSH2 0x100 DUP1 DUP4 SLOAD DIV MUL DUP4 MSTORE SWAP2 PUSH1 0x20 ADD SWAP2 PUSH2 0xB58 JUMP JUMPDEST DUP3 ADD SWAP2 SWAP1 PUSH0 MSTORE PUSH1 0x20 PUSH0 KECCAK256 SWAP1 JUMPDEST DUP2 SLOAD DUP2 MSTORE SWAP1 PUSH1 0x1 ADD SWAP1 PUSH1 0x20 ADD DUP1 DUP4 GT PUSH2 0xB3B JUMPI DUP3 SWAP1 SUB PUSH1 0x1F AND DUP3 ADD SWAP2 JUMPDEST POP POP POP POP POP DUP2 MSTORE PUSH1 0x20 ADD PUSH1 0x3 DUP3 ADD DUP1 SLOAD PUSH2 0xB71 SWAP1 PUSH2 0x21DB JUMP JUMPDEST DUP1 PUSH1 0x1F ADD PUSH1 0x20 DUP1 SWAP2 DIV MUL PUSH1 0x20 ADD PUSH1 0x40 MLOAD SWAP1 DUP2 ADD PUSH1 0x40 MSTORE DUP1 SWAP3 SWAP2 SWAP1 DUP2 DUP2 MSTORE PUSH1 0x20 ADD DUP3 DUP1 SLOAD PUSH2 0xB9D SWAP1 PUSH2 0x21DB JUMP JUMPDEST DUP1 ISZERO PUSH2 0xBE8 JUMPI DUP1 PUSH1 0x1F LT PUSH2 0xBBF JUMPI PUSH2 0x100 DUP1 DUP4 SLOAD DIV MUL DUP4 MSTORE SWAP2 PUSH1 0x20 ADD SWAP2 PUSH2 0xBE8 JUMP JUMPDEST DUP3 ADD SWAP2 SWAP1 PUSH0 MSTORE PUSH1 0x20 PUSH0 KECCAK256 SWAP1 JUMPDEST DUP2 SLOAD DUP2 MSTORE SWAP1 PUSH1 0x1 ADD SWAP1 PUSH1 0x20 ADD DUP1 DUP4 GT PUSH2 0xBCB JUMPI DUP3 SWAP1 SUB PUSH1 0x1F AND DUP3 ADD SWAP2 JUMPDEST POP POP POP POP POP DUP2 MSTORE POP POP DUP2 MSTORE PUSH1 0x20 ADD SWAP1 PUSH1 0x1 ADD SWAP1 PUSH2 0x991 JUMP JUMPDEST POP POP POP POP SWAP1 POP SWAP3 POP SWAP3 POP SWAP3 POP SWAP1 SWAP2 SWAP3 JUMP JUMPDEST PUSH1 0x2 SLOAD DUP2 JUMP JUMPDEST PUSH1 0x7 DUP2 DUP2 SLOAD DUP2 LT PUSH2 0xC26 JUMPI PUSH0 DUP1 REVERT JUMPDEST SWAP1 PUSH0 MSTORE PUSH1 0x20 PUSH0 KECCAK256 SWAP1 PUSH1 0x4 MUL ADD PUSH0 SWAP2 POP SWAP1 POP DUP1 PUSH0 ADD DUP1 SLOAD PUSH2 0xC45 SWAP1 PUSH2 0x21DB JUMP JUMPDEST DUP1 PUSH1 0x1F ADD PUSH1 0x20 DUP1 SWAP2 DIV MUL PUSH1 0x20 ADD PUSH1 0x40 MLOAD SWAP1 DUP2 ADD PUSH1 0x40 MSTORE DUP1 SWAP3 SWAP2 SWAP1 DUP2 DUP2 MSTORE PUSH1 0x20 ADD DUP3 DUP1 SLOAD PUSH2 0xC71 SWAP1 PUSH2 0x21DB JUMP JUMPDEST DUP1 ISZERO PUSH2 0xCBC JUMPI DUP1 PUSH1 0x1F LT PUSH2 0xC93 JUMPI PUSH2 0x100 DUP1 DUP4 SLOAD DIV MUL DUP4 MSTORE SWAP2 PUSH1 0x20 ADD SWAP2 PUSH2 0xCBC JUMP JUMPDEST DUP3 ADD SWAP2 SWAP1 PUSH0 MSTORE PUSH1 0x20 PUSH0 KECCAK256 SWAP1 JUMPDEST DUP2 SLOAD DUP2 MSTORE SWAP1 PUSH1 0x1 ADD SWAP1 PUSH1 0x20 ADD DUP1 DUP4 GT PUSH2 0xC9F JUMPI DUP3 SWAP1 SUB PUSH1 0x1F AND DUP3 ADD SWAP2 JUMPDEST POP POP POP POP POP SWAP1 DUP1 PUSH1 0x1 ADD DUP1 SLOAD PUSH2 0xCD1 SWAP1 PUSH2 0x21DB JUMP JUMPDEST DUP1 PUSH1 0x1F ADD PUSH1 0x20 DUP1 SWAP2 DIV MUL PUSH1 0x20 ADD PUSH1 0x40 MLOAD SWAP1 DUP2 ADD PUSH1 0x40 MSTORE DUP1 SWAP3 SWAP2 SWAP1 DUP2 DUP2 MSTORE PUSH1 0x20 ADD DUP3 DUP1 SLOAD PUSH2 0xCFD SWAP1 PUSH2 0x21DB JUMP JUMPDEST DUP1 ISZERO PUSH2 0xD48 JUMPI DUP1 PUSH1 0x1F LT PUSH2 0xD1F JUMPI PUSH2 0x100 DUP1 DUP4 SLOAD DIV MUL DUP4 MSTORE SWAP2 PUSH1 0x20 ADD SWAP2 PUSH2 0xD48 JUMP JUMPDEST DUP3 ADD SWAP2 SWAP1 PUSH0 MSTORE PUSH1 0x20 PUSH0 KECCAK256 SWAP1 JUMPDEST DUP2 SLOAD DUP2 MSTORE SWAP1 PUSH1 0x1 ADD SWAP1 PUSH1 0x20 ADD DUP1 DUP4 GT PUSH2 0xD2B JUMPI DUP3 SWAP1 SUB PUSH1 0x1F AND DUP3 ADD SWAP2 JUMPDEST POP POP POP POP POP SWAP1 DUP1 PUSH1 0x2 ADD DUP1 SLOAD PUSH2 0xD5D SWAP1 PUSH2 0x21DB JUMP JUMPDEST DUP1 PUSH1 0x1F ADD PUSH1 0x20 DUP1 SWAP2 DIV MUL PUSH1 0x20 ADD PUSH1 0x40 MLOAD SWAP1 DUP2 ADD PUSH1 0x40 MSTORE DUP1 SWAP3 SWAP2 SWAP1 DUP2 DUP2 MSTORE PUSH1 0x20 ADD DUP3 DUP1 SLOAD PUSH2 0xD89 SWAP1 PUSH2 0x21DB JUMP JUMPDEST DUP1 ISZERO PUSH2 0xDD4 JUMPI DUP1 PUSH1 0x1F LT PUSH2 0xDAB JUMPI PUSH2 0x100 DUP1 DUP4 SLOAD DIV MUL DUP4 MSTORE SWAP2 PUSH1 0x20 ADD SWAP2 PUSH2 0xDD4 JUMP JUMPDEST DUP3 ADD SWAP2 SWAP1 PUSH0 MSTORE PUSH1 0x20 PUSH0 KECCAK256 SWAP1 JUMPDEST DUP2 SLOAD DUP2 MSTORE SWAP1 PUSH1 0x1 ADD SWAP1 PUSH1 0x20 ADD DUP1 DUP4 GT PUSH2 0xDB7 JUMPI DUP3 SWAP1 SUB PUSH1 0x1F AND DUP3 ADD SWAP2 JUMPDEST POP POP POP POP POP SWAP1 DUP1 PUSH1 0x3 ADD DUP1 SLOAD PUSH2 0xDE9 SWAP1 PUSH2 0x21DB JUMP JUMPDEST DUP1 PUSH1 0x1F ADD PUSH1 0x20 DUP1 SWAP2 DIV MUL PUSH1 0x20 ADD PUSH1 0x40 MLOAD SWAP1 DUP2 ADD PUSH1 0x40 MSTORE DUP1 SWAP3 SWAP2 SWAP1 DUP2 DUP2 MSTORE PUSH1 0x20 ADD DUP3 DUP1 SLOAD PUSH2 0xE15 SWAP1 PUSH2 0x21DB JUMP JUMPDEST DUP1 ISZERO PUSH2 0xE60 JUMPI DUP1 PUSH1 0x1F LT PUSH2 0xE37 JUMPI PUSH2 0x100 DUP1 DUP4 SLOAD DIV MUL DUP4 MSTORE SWAP2 PUSH1 0x20 ADD SWAP2 PUSH2 0xE60 JUMP JUMPDEST DUP3 ADD SWAP2 SWAP1 PUSH0 MSTORE PUSH1 0x20 PUSH0 KECCAK256 SWAP1 JUMPDEST DUP2 SLOAD DUP2 MSTORE SWAP1 PUSH1 0x1 ADD SWAP1 PUSH1 0x20 ADD DUP1 DUP4 GT PUSH2 0xE43 JUMPI DUP3 SWAP1 SUB PUSH1 0x1F AND DUP3 ADD SWAP2 JUMPDEST POP POP POP POP POP SWAP1 POP DUP5 JUMP JUMPDEST PUSH0 DUP1 SLOAD SWAP1 PUSH2 0x100 EXP SWAP1 DIV PUSH20 0xFFFFFFFFFFFFFFFFFFFFFFFFFFFFFFFFFFFFFFFF AND PUSH20 0xFFFFFFFFFFFFFFFFFFFFFFFFFFFFFFFFFFFFFFFF AND CALLER PUSH20 0xFFFFFFFFFFFFFFFFFFFFFFFFFFFFFFFFFFFFFFFF AND EQ PUSH2 0xEF7 JUMPI PUSH1 0x40 MLOAD PUSH32 0x8C379A000000000000000000000000000000000000000000000000000000000 DUP2 MSTORE PUSH1 0x4 ADD PUSH2 0xEEE SWAP1 PUSH2 0x227B JUMP JUMPDEST PUSH1 0x40 MLOAD DUP1 SWAP2 SUB SWAP1 REVERT JUMPDEST PUSH1 0x1 PUSH1 0x4 PUSH0 PUSH2 0x100 EXP DUP2 SLOAD DUP2 PUSH1 0xFF MUL NOT AND SWAP1 DUP4 ISZERO ISZERO MUL OR SWAP1 SSTORE POP JUMP JUMPDEST PUSH1 0x3 SLOAD DUP2 JUMP JUMPDEST PUSH1 0x4 PUSH0 SWAP1 SLOAD SWAP1 PUSH2 0x100 EXP SWAP1 DIV PUSH1 0xFF AND DUP2 JUMP JUMPDEST PUSH0 PUSH1 0x5 PUSH0 CALLER PUSH20 0xFFFFFFFFFFFFFFFFFFFFFFFFFFFFFFFFFFFFFFFF AND PUSH20 0xFFFFFFFFFFFFFFFFFFFFFFFFFFFFFFFFFFFFFFFF AND DUP2 MSTORE PUSH1 0x20 ADD SWAP1 DUP2 MSTORE PUSH1 0x20 ADD PUSH0 KECCAK256 PUSH0 SWAP1 SLOAD SWAP1 PUSH2 0x100 EXP SWAP1 DIV PUSH1 0xFF AND ISZERO PUSH2 0xFB6 JUMPI PUSH1 0x40 MLOAD PUSH32 0x8C379A000000000000000000000000000000000000000000000000000000000 DUP2 MSTORE PUSH1 0x4 ADD PUSH2 0xFAD SWAP1 PUSH2 0x22E3 JUMP JUMPDEST PUSH1 0x40 MLOAD DUP1 SWAP2 SUB SWAP1 REVERT JUMPDEST PUSH1 0x3 PUSH0 DUP2 SLOAD DUP1 SWAP3 SWAP2 SWAP1 PUSH2 0xFC8 SWAP1 PUSH2 0x232E JUMP JUMPDEST SWAP2 SWAP1 POP SSTORE POP PUSH0 PUSH1 0x40 MLOAD DUP1 PUSH1 0x80 ADD PUSH1 0x40 MSTORE DUP1 DUP8 DUP2 MSTORE PUSH1 0x20 ADD DUP7 DUP2 MSTORE PUSH1 0x20 ADD DUP6 DUP2 MSTORE PUSH1 0x20 ADD DUP5 DUP2 MSTORE POP SWAP1 POP PUSH1 0x8 DUP2 SWAP1 DUP1 PUSH1 0x1 DUP2 SLOAD ADD DUP1 DUP3 SSTORE DUP1 SWAP2 POP POP PUSH1 0x1 SWAP1 SUB SWAP1 PUSH0 MSTORE PUSH1 0x20 PUSH0 KECCAK256 SWAP1 PUSH1 0x4 MUL ADD PUSH0 SWAP1 SWAP2 SWAP1 SWAP2 SWAP1 SWAP2 POP PUSH0 DUP3 ADD MLOAD DUP2 PUSH0 ADD SWAP1 DUP2 PUSH2 0x102D SWAP2 SWAP1 PUSH2 0x2512 JUMP JUMPDEST POP PUSH1 0x20 DUP3 ADD MLOAD DUP2 PUSH1 0x1 ADD SWAP1 DUP2 PUSH2 0x1043 SWAP2 SWAP1 PUSH2 0x2512 JUMP JUMPDEST POP PUSH1 0x40 DUP3 ADD MLOAD DUP2 PUSH1 0x2 ADD SWAP1 DUP2 PUSH2 0x1059 SWAP2 SWAP1 PUSH2 0x2512 JUMP JUMPDEST POP PUSH1 0x60 DUP3 ADD MLOAD DUP2 PUSH1 0x3 ADD SWAP1 DUP2 PUSH2 0x106F SWAP2 SWAP1 PUSH2 0x2512 JUMP JUMPDEST POP POP POP PUSH1 0x1 PUSH1 0x5 PUSH0 CALLER PUSH20 0xFFFFFFFFFFFFFFFFFFFFFFFFFFFFFFFFFFFFFFFF AND PUSH20 0xFFFFFFFFFFFFFFFFFFFFFFFFFFFFFFFFFFFFFFFF AND DUP2 MSTORE PUSH1 0x20 ADD SWAP1 DUP2 MSTORE PUSH1 0x20 ADD PUSH0 KECCAK256 PUSH0 PUSH2 0x100 EXP DUP2 SLOAD DUP2 PUSH1 0xFF MUL NOT AND SWAP1 DUP4 ISZERO ISZERO MUL OR SWAP1 SSTORE POP PUSH1 0x1 SWAP2 POP POP SWAP5 SWAP4 POP POP POP POP JUMP JUMPDEST PUSH1 0x8 DUP2 DUP2 SLOAD DUP2 LT PUSH2 0x10E3 JUMPI PUSH0 DUP1 REVERT JUMPDEST SWAP1 PUSH0 MSTORE PUSH1 0x20 PUSH0 KECCAK256 SWAP1 PUSH1 0x4 MUL ADD PUSH0 SWAP2 POP SWAP1 POP DUP1 PUSH0 ADD DUP1 SLOAD PUSH2 0x1102 SWAP1 PUSH2 0x21DB JUMP JUMPDEST DUP1 PUSH1 0x1F ADD PUSH1 0x20 DUP1 SWAP2 DIV MUL PUSH1 0x20 ADD PUSH1 0x40 MLOAD SWAP1 DUP2 ADD PUSH1 0x40 MSTORE DUP1 SWAP3 SWAP2 SWAP1 DUP2 DUP2 MSTORE PUSH1 0x20 ADD DUP3 DUP1 SLOAD PUSH2 0x112E SWAP1 PUSH2 0x21DB JUMP JUMPDEST DUP1 ISZERO PUSH2 0x1179 JUMPI DUP1 PUSH1 0x1F LT PUSH2 0x1150 JUMPI PUSH2 0x100 DUP1 DUP4 SLOAD DIV MUL DUP4 MSTORE SWAP2 PUSH1 0x20 ADD SWAP2 PUSH2 0x1179 JUMP JUMPDEST DUP3 ADD SWAP2 SWAP1 PUSH0 MSTORE PUSH1 0x20 PUSH0 KECCAK256 SWAP1 JUMPDEST DUP2 SLOAD DUP2 MSTORE SWAP1 PUSH1 0x1 ADD SWAP1 PUSH1 0x20 ADD DUP1 DUP4 GT PUSH2 0x115C JUMPI DUP3 SWAP1 SUB PUSH1 0x1F AND DUP3 ADD SWAP2 JUMPDEST POP POP POP POP POP SWAP1 DUP1 PUSH1 0x1 ADD DUP1 SLOAD PUSH2 0x118E SWAP1 PUSH2 0x21DB JUMP JUMPDEST DUP1 PUSH1 0x1F ADD PUSH1 0x20 DUP1 SWAP2 DIV MUL PUSH1 0x20 ADD PUSH1 0x40 MLOAD SWAP1 DUP2 ADD PUSH1 0x40 MSTORE DUP1 SWAP3 SWAP2 SWAP1 DUP2 DUP2 MSTORE PUSH1 0x20 ADD DUP3 DUP1 SLOAD PUSH2 0x11BA SWAP1 PUSH2 0x21DB JUMP JUMPDEST DUP1 ISZERO PUSH2 0x1205 JUMPI DUP1 PUSH1 0x1F LT PUSH2 0x11DC JUMPI PUSH2 0x100 DUP1 DUP4 SLOAD DIV MUL DUP4 MSTORE SWAP2 PUSH1 0x20 ADD SWAP2 PUSH2 0x1205 JUMP JUMPDEST DUP3 ADD SWAP2 SWAP1 PUSH0 MSTORE PUSH1 0x20 PUSH0 KECCAK256 SWAP1 JUMPDEST DUP2 SLOAD DUP2 MSTORE SWAP1 PUSH1 0x1 ADD SWAP1 PUSH1 0x20 ADD DUP1 DUP4 GT PUSH2 0x11E8 JUMPI DUP3 SWAP1 SUB PUSH1 0x1F AND DUP3 ADD SWAP2 JUMPDEST POP POP POP POP POP SWAP1 DUP1 PUSH1 0x2 ADD DUP1 SLOAD PUSH2 0x121A SWAP1 PUSH2 0x21DB JUMP JUMPDEST DUP1 PUSH1 0x1F ADD PUSH1 0x20 DUP1 SWAP2 DIV MUL PUSH1 0x20 ADD PUSH1 0x40 MLOAD SWAP1 DUP2 ADD PUSH1 0x40 MSTORE DUP1 SWAP3 SWAP2 SWAP1 DUP2 DUP2 MSTORE PUSH1 0x20 ADD DUP3 DUP1 SLOAD PUSH2 0x1246 SWAP1 PUSH2 0x21DB JUMP JUMPDEST DUP1 ISZERO PUSH2 0x1291 JUMPI DUP1 PUSH1 0x1F LT PUSH2 0x1268 JUMPI PUSH2 0x100 DUP1 DUP4 SLOAD DIV MUL DUP4 MSTORE SWAP2 PUSH1 0x20 ADD SWAP2 PUSH2 0x1291 JUMP JUMPDEST DUP3 ADD SWAP2 SWAP1 PUSH0 MSTORE PUSH1 0x20 PUSH0 KECCAK256 SWAP1 JUMPDEST DUP2 SLOAD DUP2 MSTORE SWAP1 PUSH1 0x1 ADD SWAP1 PUSH1 0x20 ADD DUP1 DUP4 GT PUSH2 0x1274 JUMPI DUP3 SWAP1 SUB PUSH1 0x1F AND DUP3 ADD SWAP2 JUMPDEST POP POP POP POP POP SWAP1 DUP1 PUSH1 0x3 ADD DUP1 SLOAD PUSH2 0x12A6 SWAP1 PUSH2 0x21DB JUMP JUMPDEST DUP1 PUSH1 0x1F ADD PUSH1 0x20 DUP1 SWAP2 DIV MUL PUSH1 0x20 ADD PUSH1 0x40 MLOAD SWAP1 DUP2 ADD PUSH1 0x40 MSTORE DUP1 SWAP3 SWAP2 SWAP1 DUP2 DUP2 MSTORE PUSH1 0x20 ADD DUP3 DUP1 SLOAD PUSH2 0x12D2 SWAP1 PUSH2 0x21DB JUMP JUMPDEST DUP1 ISZERO PUSH2 0x131D JUMPI DUP1 PUSH1 0x1F LT PUSH2 0x12F4 JUMPI PUSH2 0x100 DUP1 DUP4 SLOAD DIV MUL DUP4 MSTORE SWAP2 PUSH1 0x20 ADD SWAP2 PUSH2 0x131D JUMP JUMPDEST DUP3 ADD SWAP2 SWAP1 PUSH0 MSTORE PUSH1 0x20 PUSH0 KECCAK256 SWAP1 JUMPDEST DUP2 SLOAD DUP2 MSTORE SWAP1 PUSH1 0x1 ADD SWAP1 PUSH1 0x20 ADD DUP1 DUP4 GT PUSH2 0x1300 JUMPI DUP3 SWAP1 SUB PUSH1 0x1F AND DUP3 ADD SWAP2 JUMPDEST POP POP POP POP POP SWAP1 POP DUP5 JUMP JUMPDEST PUSH0 DUP1 PUSH0 SWAP1 SLOAD SWAP1 PUSH2 0x100 EXP SWAP1 DIV PUSH20 0xFFFFFFFFFFFFFFFFFFFFFFFFFFFFFFFFFFFFFFFF AND SWAP1 POP SWAP1 JUMP JUMPDEST PUSH0 PUSH1 0x5 PUSH0 CALLER PUSH20 0xFFFFFFFFFFFFFFFFFFFFFFFFFFFFFFFFFFFFFFFF AND PUSH20 0xFFFFFFFFFFFFFFFFFFFFFFFFFFFFFFFFFFFFFFFF AND DUP2 MSTORE PUSH1 0x20 ADD SWAP1 DUP2 MSTORE PUSH1 0x20 ADD PUSH0 KECCAK256 PUSH0 SWAP1 SLOAD SWAP1 PUSH2 0x100 EXP SWAP1 DIV PUSH1 0xFF AND ISZERO PUSH2 0x13D9 JUMPI PUSH1 0x40 MLOAD PUSH32 0x8C379A000000000000000000000000000000000000000000000000000000000 DUP2 MSTORE PUSH1 0x4 ADD PUSH2 0x13D0 SWAP1 PUSH2 0x22E3 JUMP JUMPDEST PUSH1 0x40 MLOAD DUP1 SWAP2 SUB SWAP1 REVERT JUMPDEST PUSH1 0x2 PUSH0 DUP2 SLOAD DUP1 SWAP3 SWAP2 SWAP1 PUSH2 0x13EB SWAP1 PUSH2 0x232E JUMP JUMPDEST SWAP2 SWAP1 POP SSTORE POP PUSH0 PUSH1 0x40 MLOAD DUP1 PUSH1 0x80 ADD PUSH1 0x40 MSTORE DUP1 DUP8 DUP2 MSTORE PUSH1 0x20 ADD DUP7 DUP2 MSTORE PUSH1 0x20 ADD DUP6 DUP2 MSTORE PUSH1 0x20 ADD DUP5 DUP2 MSTORE POP SWAP1 POP PUSH1 0x7 DUP2 SWAP1 DUP1 PUSH1 0x1 DUP2 SLOAD ADD DUP1 DUP3 SSTORE DUP1 SWAP2 POP POP PUSH1 0x1 SWAP1 SUB SWAP1 PUSH0 MSTORE PUSH1 0x20 PUSH0 KECCAK256 SWAP1 PUSH1 0x4 MUL ADD PUSH0 SWAP1 SWAP2 SWAP1 SWAP2 SWAP1 SWAP2 POP PUSH0 DUP3 ADD MLOAD DUP2 PUSH0 ADD SWAP1 DUP2 PUSH2 0x1450 SWAP2 SWAP1 PUSH2 0x2512 JUMP JUMPDEST POP PUSH1 0x20 DUP3 ADD MLOAD DUP2 PUSH1 0x1 ADD SWAP1 DUP2 PUSH2 0x1466 SWAP2 SWAP1 PUSH2 0x2512 JUMP JUMPDEST POP PUSH1 0x40 DUP3 ADD MLOAD DUP2 PUSH1 0x2 ADD SWAP1 DUP2 PUSH2 0x147C SWAP2 SWAP1 PUSH2 0x2512 JUMP JUMPDEST POP PUSH1 0x60 DUP3 ADD MLOAD DUP2 PUSH1 0x3 ADD SWAP1 DUP2 PUSH2 0x1492 SWAP2 SWAP1 PUSH2 0x2512 JUMP JUMPDEST POP POP POP PUSH1 0x1 PUSH1 0x5 PUSH0 CALLER PUSH20 0xFFFFFFFFFFFFFFFFFFFFFFFFFFFFFFFFFFFFFFFF AND PUSH20 0xFFFFFFFFFFFFFFFFFFFFFFFFFFFFFFFFFFFFFFFF AND DUP2 MSTORE PUSH1 0x20 ADD SWAP1 DUP2 MSTORE PUSH1 0x20 ADD PUSH0 KECCAK256 PUSH0 PUSH2 0x100 EXP DUP2 SLOAD DUP2 PUSH1 0xFF MUL NOT AND SWAP1 DUP4 ISZERO ISZERO MUL OR SWAP1 SSTORE POP PUSH1 0x1 SWAP2 POP POP SWAP5 SWAP4 POP POP POP POP JUMP JUMPDEST PUSH0 PUSH1 0x5 PUSH0 CALLER PUSH20 0xFFFFFFFFFFFFFFFFFFFFFFFFFFFFFFFFFFFFFFFF AND PUSH20 0xFFFFFFFFFFFFFFFFFFFFFFFFFFFFFFFFFFFFFFFF AND DUP2 MSTORE PUSH1 0x20 ADD SWAP1 DUP2 MSTORE PUSH1 0x20 ADD PUSH0 KECCAK256 PUSH0 SWAP1 SLOAD SWAP1 PUSH2 0x100 EXP SWAP1 DIV PUSH1 0xFF AND ISZERO PUSH2 0x1582 JUMPI PUSH1 0x40 MLOAD PUSH32 0x8C379A000000000000000000000000000000000000000000000000000000000 DUP2 MSTORE PUSH1 0x4 ADD PUSH2 0x1579 SWAP1 PUSH2 0x22E3 JUMP JUMPDEST PUSH1 0x40 MLOAD DUP1 SWAP2 SUB SWAP1 REVERT JUMPDEST PUSH1 0x1 PUSH0 DUP2 SLOAD DUP1 SWAP3 SWAP2 SWAP1 PUSH2 0x1594 SWAP1 PUSH2 0x232E JUMP JUMPDEST SWAP2 SWAP1 POP SSTORE POP PUSH0 PUSH1 0x40 MLOAD DUP1 PUSH1 0x80 ADD PUSH1 0x40 MSTORE DUP1 DUP8 DUP2 MSTORE PUSH1 0x20 ADD DUP7 DUP2 MSTORE PUSH1 0x20 ADD DUP6 DUP2 MSTORE PUSH1 0x20 ADD DUP5 DUP2 MSTORE POP SWAP1 POP PUSH1 0x6 DUP2 SWAP1 DUP1 PUSH1 0x1 DUP2 SLOAD ADD DUP1 DUP3 SSTORE DUP1 SWAP2 POP POP PUSH1 0x1 SWAP1 SUB SWAP1 PUSH0 MSTORE PUSH1 0x20 PUSH0 KECCAK256 SWAP1 PUSH1 0x4 MUL ADD PUSH0 SWAP1 SWAP2 SWAP1 SWAP2 SWAP1 SWAP2 POP PUSH0 DUP3 ADD MLOAD DUP2 PUSH0 ADD SWAP1 DUP2 PUSH2 0x15F9 SWAP2 SWAP1 PUSH2 0x2512 JUMP JUMPDEST POP PUSH1 0x20 DUP3 ADD MLOAD DUP2 PUSH1 0x1 ADD SWAP1 DUP2 PUSH2 0x160F SWAP2 SWAP1 PUSH2 0x2512 JUMP JUMPDEST POP PUSH1 0x40 DUP3 ADD MLOAD DUP2 PUSH1 0x2 ADD SWAP1 DUP2 PUSH2 0x1625 SWAP2 SWAP1 PUSH2 0x2512 JUMP JUMPDEST POP PUSH1 0x60 DUP3 ADD MLOAD DUP2 PUSH1 0x3 ADD SWAP1 DUP2 PUSH2 0x163B SWAP2 SWAP1 PUSH2 0x2512 JUMP JUMPDEST POP POP POP PUSH1 0x1 PUSH1 0x5 PUSH0 CALLER PUSH20 0xFFFFFFFFFFFFFFFFFFFFFFFFFFFFFFFFFFFFFFFF AND PUSH20 0xFFFFFFFFFFFFFFFFFFFFFFFFFFFFFFFFFFFFFFFF AND DUP2 MSTORE PUSH1 0x20 ADD SWAP1 DUP2 MSTORE PUSH1 0x20 ADD PUSH0 KECCAK256 PUSH0 PUSH2 0x100 EXP DUP2 SLOAD DUP2 PUSH1 0xFF MUL NOT AND SWAP1 DUP4 ISZERO ISZERO MUL OR SWAP1 SSTORE POP PUSH1 0x1 SWAP2 POP POP SWAP5 SWAP4 POP POP POP POP JUMP JUMPDEST PUSH1 0x60 PUSH1 0x4 PUSH0 SWAP1 SLOAD SWAP1 PUSH2 0x100 EXP SWAP1 DIV PUSH1 0xFF AND PUSH2 0x16F2 JUMPI PUSH1 0x40 MLOAD DUP1 PUSH1 0x40 ADD PUSH1 0x40 MSTORE DUP1 PUSH1 0x1D DUP2 MSTORE PUSH1 0x20 ADD PUSH32 0x526573756C747320617265206E6F74206163636F756E74656420796574000000 DUP2 MSTORE POP SWAP1 POP PUSH2 0x1833 JUMP JUMPDEST PUSH1 0x2 SLOAD PUSH1 0x1 SLOAD GT DUP1 ISZERO PUSH2 0x1708 JUMPI POP PUSH1 0x3 SLOAD PUSH1 0x1 SLOAD GT JUMPDEST ISZERO PUSH2 0x174A JUMPI PUSH1 0x40 MLOAD DUP1 PUSH1 0x40 ADD PUSH1 0x40 MSTORE DUP1 PUSH1 0x3 DUP2 MSTORE PUSH1 0x20 ADD PUSH32 0x4141500000000000000000000000000000000000000000000000000000000000 DUP2 MSTORE POP SWAP1 POP PUSH2 0x1833 JUMP JUMPDEST PUSH1 0x1 SLOAD PUSH1 0x2 SLOAD GT DUP1 ISZERO PUSH2 0x1760 JUMPI POP PUSH1 0x3 SLOAD PUSH1 0x2 SLOAD GT JUMPDEST ISZERO PUSH2 0x17A2 JUMPI PUSH1 0x40 MLOAD DUP1 PUSH1 0x40 ADD PUSH1 0x40 MSTORE DUP1 PUSH1 0x3 DUP2 MSTORE PUSH1 0x20 ADD PUSH32 0x424A500000000000000000000000000000000000000000000000000000000000 DUP2 MSTORE POP SWAP1 POP PUSH2 0x1833 JUMP JUMPDEST PUSH1 0x1 SLOAD PUSH1 0x3 SLOAD GT DUP1 ISZERO PUSH2 0x17B8 JUMPI POP PUSH1 0x2 SLOAD PUSH1 0x3 SLOAD GT JUMPDEST ISZERO PUSH2 0x17FA JUMPI PUSH1 0x40 MLOAD DUP1 PUSH1 0x40 ADD PUSH1 0x40 MSTORE DUP1 PUSH1 0x8 DUP2 MSTORE PUSH1 0x20 ADD PUSH32 0x434F4E4752455353000000000000000000000000000000000000000000000000 DUP2 MSTORE POP SWAP1 POP PUSH2 0x1833 JUMP JUMPDEST PUSH1 0x40 MLOAD DUP1 PUSH1 0x40 ADD PUSH1 0x40 MSTORE DUP1 PUSH1 0xF DUP2 MSTORE PUSH1 0x20 ADD PUSH32 0x4E6F20636C6561722077696E6E65720000000000000000000000000000000000 DUP2 MSTORE POP SWAP1 POP JUMPDEST SWAP1 JUMP JUMPDEST PUSH1 0x6 DUP2 DUP2 SLOAD DUP2 LT PUSH2 0x1845 JUMPI PUSH0 DUP1 REVERT JUMPDEST SWAP1 PUSH0 MSTORE PUSH1 0x20 PUSH0 KECCAK256 SWAP1 PUSH1 0x4 MUL ADD PUSH0 SWAP2 POP SWAP1 POP DUP1 PUSH0 ADD DUP1 SLOAD PUSH2 0x1864 SWAP1 PUSH2 0x21DB JUMP JUMPDEST DUP1 PUSH1 0x1F ADD PUSH1 0x20 DUP1 SWAP2 DIV MUL PUSH1 0x20 ADD PUSH1 0x40 MLOAD SWAP1 DUP2 ADD PUSH1 0x40 MSTORE DUP1 SWAP3 SWAP2 SWAP1 DUP2 DUP2 MSTORE PUSH1 0x20 ADD DUP3 DUP1 SLOAD PUSH2 0x1890 SWAP1 PUSH2 0x21DB JUMP JUMPDEST DUP1 ISZERO PUSH2 0x18DB JUMPI DUP1 PUSH1 0x1F LT PUSH2 0x18B2 JUMPI PUSH2 0x100 DUP1 DUP4 SLOAD DIV MUL DUP4 MSTORE SWAP2 PUSH1 0x20 ADD SWAP2 PUSH2 0x18DB JUMP JUMPDEST DUP3 ADD SWAP2 SWAP1 PUSH0 MSTORE PUSH1 0x20 PUSH0 KECCAK256 SWAP1 JUMPDEST DUP2 SLOAD DUP2 MSTORE SWAP1 PUSH1 0x1 ADD SWAP1 PUSH1 0x20 ADD DUP1 DUP4 GT PUSH2 0x18BE JUMPI DUP3 SWAP1 SUB PUSH1 0x1F AND DUP3 ADD SWAP2 JUMPDEST POP POP POP POP POP SWAP1 DUP1 PUSH1 0x1 ADD DUP1 SLOAD PUSH2 0x18F0 SWAP1 PUSH2 0x21DB JUMP JUMPDEST DUP1 PUSH1 0x1F ADD PUSH1 0x20 DUP1 SWAP2 DIV MUL PUSH1 0x20 ADD PUSH1 0x40 MLOAD SWAP1 DUP2 ADD PUSH1 0x40 MSTORE DUP1 SWAP3 SWAP2 SWAP1 DUP2 DUP2 MSTORE PUSH1 0x20 ADD DUP3 DUP1 SLOAD PUSH2 0x191C SWAP1 PUSH2 0x21DB JUMP JUMPDEST DUP1 ISZERO PUSH2 0x1967 JUMPI DUP1 PUSH1 0x1F LT PUSH2 0x193E JUMPI PUSH2 0x100 DUP1 DUP4 SLOAD DIV MUL DUP4 MSTORE SWAP2 PUSH1 0x20 ADD SWAP2 PUSH2 0x1967 JUMP JUMPDEST DUP3 ADD SWAP2 SWAP1 PUSH0 MSTORE PUSH1 0x20 PUSH0 KECCAK256 SWAP1 JUMPDEST DUP2 SLOAD DUP2 MSTORE SWAP1 PUSH1 0x1 ADD SWAP1 PUSH1 0x20 ADD DUP1 DUP4 GT PUSH2 0x194A JUMPI DUP3 SWAP1 SUB PUSH1 0x1F AND DUP3 ADD SWAP2 JUMPDEST POP POP POP POP POP SWAP1 DUP1 PUSH1 0x2 ADD DUP1 SLOAD PUSH2 0x197C SWAP1 PUSH2 0x21DB JUMP JUMPDEST DUP1 PUSH1 0x1F ADD PUSH1 0x20 DUP1 SWAP2 DIV MUL PUSH1 0x20 ADD PUSH1 0x40 MLOAD SWAP1 DUP2 ADD PUSH1 0x40 MSTORE DUP1 SWAP3 SWAP2 SWAP1 DUP2 DUP2 MSTORE PUSH1 0x20 ADD DUP3 DUP1 SLOAD PUSH2 0x19A8 SWAP1 PUSH2 0x21DB JUMP JUMPDEST DUP1 ISZERO PUSH2 0x19F3 JUMPI DUP1 PUSH1 0x1F LT PUSH2 0x19CA JUMPI PUSH2 0x100 DUP1 DUP4 SLOAD DIV MUL DUP4 MSTORE SWAP2 PUSH1 0x20 ADD SWAP2 PUSH2 0x19F3 JUMP JUMPDEST DUP3 ADD SWAP2 SWAP1 PUSH0 MSTORE PUSH1 0x20 PUSH0 KECCAK256 SWAP1 JUMPDEST DUP2 SLOAD DUP2 MSTORE SWAP1 PUSH1 0x1 ADD SWAP1 PUSH1 0x20 ADD DUP1 DUP4 GT PUSH2 0x19D6 JUMPI DUP3 SWAP1 SUB PUSH1 0x1F AND DUP3 ADD SWAP2 JUMPDEST POP POP POP POP POP SWAP1 DUP1 PUSH1 0x3 ADD DUP1 SLOAD PUSH2 0x1A08 SWAP1 PUSH2 0x21DB JUMP JUMPDEST DUP1 PUSH1 0x1F ADD PUSH1 0x20 DUP1 SWAP2 DIV MUL PUSH1 0x20 ADD PUSH1 0x40 MLOAD SWAP1 DUP2 ADD PUSH1 0x40 MSTORE DUP1 SWAP3 SWAP2 SWAP1 DUP2 DUP2 MSTORE PUSH1 0x20 ADD DUP3 DUP1 SLOAD PUSH2 0x1A34 SWAP1 PUSH2 0x21DB JUMP JUMPDEST DUP1 ISZERO PUSH2 0x1A7F JUMPI DUP1 PUSH1 0x1F LT PUSH2 0x1A56 JUMPI PUSH2 0x100 DUP1 DUP4 SLOAD DIV MUL DUP4 MSTORE SWAP2 PUSH1 0x20 ADD SWAP2 PUSH2 0x1A7F JUMP JUMPDEST DUP3 ADD SWAP2 SWAP1 PUSH0 MSTORE PUSH1 0x20 PUSH0 KECCAK256 SWAP1 JUMPDEST DUP2 SLOAD DUP2 MSTORE SWAP1 PUSH1 0x1 ADD SWAP1 PUSH1 0x20 ADD DUP1 DUP4 GT PUSH2 0x1A62 JUMPI DUP3 SWAP1 SUB PUSH1 0x1F AND DUP3 ADD SWAP2 JUMPDEST POP POP POP POP POP SWAP1 POP DUP5 JUMP JUMPDEST PUSH1 0x1 SLOAD DUP2 JUMP JUMPDEST PUSH0 PUSH1 0x5 PUSH0 DUP4 PUSH20 0xFFFFFFFFFFFFFFFFFFFFFFFFFFFFFFFFFFFFFFFF AND PUSH20 0xFFFFFFFFFFFFFFFFFFFFFFFFFFFFFFFFFFFFFFFF AND DUP2 MSTORE PUSH1 0x20 ADD SWAP1 DUP2 MSTORE PUSH1 0x20 ADD PUSH0 KECCAK256 PUSH0 SWAP1 SLOAD SWAP1 PUSH2 0x100 EXP SWAP1 DIV PUSH1 0xFF AND SWAP1 POP SWAP2 SWAP1 POP JUMP JUMPDEST PUSH0 DUP1 SLOAD SWAP1 PUSH2 0x100 EXP SWAP1 DIV PUSH20 0xFFFFFFFFFFFFFFFFFFFFFFFFFFFFFFFFFFFFFFFF AND DUP2 JUMP JUMPDEST PUSH0 PUSH1 0x40 MLOAD SWAP1 POP SWAP1 JUMP JUMPDEST PUSH0 DUP1 REVERT JUMPDEST PUSH0 DUP1 REVERT JUMPDEST PUSH0 PUSH20 0xFFFFFFFFFFFFFFFFFFFFFFFFFFFFFFFFFFFFFFFF DUP3 AND SWAP1 POP SWAP2 SWAP1 POP JUMP JUMPDEST PUSH0 PUSH2 0x1B3E DUP3 PUSH2 0x1B15 JUMP JUMPDEST SWAP1 POP SWAP2 SWAP1 POP JUMP JUMPDEST PUSH2 0x1B4E DUP2 PUSH2 0x1B34 JUMP JUMPDEST DUP2 EQ PUSH2 0x1B58 JUMPI PUSH0 DUP1 REVERT JUMPDEST POP JUMP JUMPDEST PUSH0 DUP2 CALLDATALOAD SWAP1 POP PUSH2 0x1B69 DUP2 PUSH2 0x1B45 JUMP JUMPDEST SWAP3 SWAP2 POP POP JUMP JUMPDEST PUSH0 PUSH1 0x20 DUP3 DUP5 SUB SLT ISZERO PUSH2 0x1B84 JUMPI PUSH2 0x1B83 PUSH2 0x1B0D JUMP JUMPDEST JUMPDEST PUSH0 PUSH2 0x1B91 DUP5 DUP3 DUP6 ADD PUSH2 0x1B5B JUMP JUMPDEST SWAP2 POP POP SWAP3 SWAP2 POP POP JUMP JUMPDEST PUSH0 DUP2 ISZERO ISZERO SWAP1 POP SWAP2 SWAP1 POP JUMP JUMPDEST PUSH2 0x1BAE DUP2 PUSH2 0x1B9A JUMP JUMPDEST DUP3 MSTORE POP POP JUMP JUMPDEST PUSH0 PUSH1 0x20 DUP3 ADD SWAP1 POP PUSH2 0x1BC7 PUSH0 DUP4 ADD DUP5 PUSH2 0x1BA5 JUMP JUMPDEST SWAP3 SWAP2 POP POP JUMP JUMPDEST PUSH0 DUP2 MLOAD SWAP1 POP SWAP2 SWAP1 POP JUMP JUMPDEST PUSH0 DUP3 DUP3 MSTORE PUSH1 0x20 DUP3 ADD SWAP1 POP SWAP3 SWAP2 POP POP JUMP JUMPDEST PUSH0 DUP2 SWAP1 POP PUSH1 0x20 DUP3 ADD SWAP1 POP SWAP2 SWAP1 POP JUMP JUMPDEST PUSH0 DUP2 MLOAD SWAP1 POP SWAP2 SWAP1 POP JUMP JUMPDEST PUSH0 DUP3 DUP3 MSTORE PUSH1 0x20 DUP3 ADD SWAP1 POP SWAP3 SWAP2 POP POP JUMP JUMPDEST PUSH0 JUMPDEST DUP4 DUP2 LT ISZERO PUSH2 0x1C2D JUMPI DUP1 DUP3 ADD MLOAD DUP2 DUP5 ADD MSTORE PUSH1 0x20 DUP2 ADD SWAP1 POP PUSH2 0x1C12 JUMP JUMPDEST PUSH0 DUP5 DUP5 ADD MSTORE POP POP POP POP JUMP JUMPDEST PUSH0 PUSH1 0x1F NOT PUSH1 0x1F DUP4 ADD AND SWAP1 POP SWAP2 SWAP1 POP JUMP JUMPDEST PUSH0 PUSH2 0x1C52 DUP3 PUSH2 0x1BF6 JUMP JUMPDEST PUSH2 0x1C5C DUP2 DUP6 PUSH2 0x1C00 JUMP JUMPDEST SWAP4 POP PUSH2 0x1C6C DUP2 DUP6 PUSH1 0x20 DUP7 ADD PUSH2 0x1C10 JUMP JUMPDEST PUSH2 0x1C75 DUP2 PUSH2 0x1C38 JUMP JUMPDEST DUP5 ADD SWAP2 POP POP SWAP3 SWAP2 POP POP JUMP JUMPDEST PUSH0 PUSH1 0x80 DUP4 ADD PUSH0 DUP4 ADD MLOAD DUP5 DUP3 SUB PUSH0 DUP7 ADD MSTORE PUSH2 0x1C9A DUP3 DUP3 PUSH2 0x1C48 JUMP JUMPDEST SWAP2 POP POP PUSH1 0x20 DUP4 ADD MLOAD DUP5 DUP3 SUB PUSH1 0x20 DUP7 ADD MSTORE PUSH2 0x1CB4 DUP3 DUP3 PUSH2 0x1C48 JUMP JUMPDEST SWAP2 POP POP PUSH1 0x40 DUP4 ADD MLOAD DUP5 DUP3 SUB PUSH1 0x40 DUP7 ADD MSTORE PUSH2 0x1CCE DUP3 DUP3 PUSH2 0x1C48 JUMP JUMPDEST SWAP2 POP POP PUSH1 0x60 DUP4 ADD MLOAD DUP5 DUP3 SUB PUSH1 0x60 DUP7 ADD MSTORE PUSH2 0x1CE8 DUP3 DUP3 PUSH2 0x1C48 JUMP JUMPDEST SWAP2 POP POP DUP1 SWAP2 POP POP SWAP3 SWAP2 POP POP JUMP JUMPDEST PUSH0 PUSH2 0x1D00 DUP4 DUP4 PUSH2 0x1C80 JUMP JUMPDEST SWAP1 POP SWAP3 SWAP2 POP POP JUMP JUMPDEST PUSH0 PUSH1 0x20 DUP3 ADD SWAP1 POP SWAP2 SWAP1 POP JUMP JUMPDEST PUSH0 PUSH2 0x1D1E DUP3 PUSH2 0x1BCD JUMP JUMPDEST PUSH2 0x1D28 DUP2 DUP6 PUSH2 0x1BD7 JUMP JUMPDEST SWAP4 POP DUP4 PUSH1 0x20 DUP3 MUL DUP6 ADD PUSH2 0x1D3A DUP6 PUSH2 0x1BE7 JUMP JUMPDEST DUP1 PUSH0 JUMPDEST DUP6 DUP2 LT ISZERO PUSH2 0x1D75 JUMPI DUP5 DUP5 SUB DUP10 MSTORE DUP2 MLOAD PUSH2 0x1D56 DUP6 DUP3 PUSH2 0x1CF5 JUMP JUMPDEST SWAP5 POP PUSH2 0x1D61 DUP4 PUSH2 0x1D08 JUMP JUMPDEST SWAP3 POP PUSH1 0x20 DUP11 ADD SWAP10 POP POP PUSH1 0x1 DUP2 ADD SWAP1 POP PUSH2 0x1D3D JUMP JUMPDEST POP DUP3 SWAP8 POP DUP8 SWAP6 POP POP POP POP POP POP SWAP3 SWAP2 POP POP JUMP JUMPDEST PUSH0 PUSH1 0x60 DUP3 ADD SWAP1 POP DUP2 DUP2 SUB PUSH0 DUP4 ADD MSTORE PUSH2 0x1D9F DUP2 DUP7 PUSH2 0x1D14 JUMP JUMPDEST SWAP1 POP DUP2 DUP2 SUB PUSH1 0x20 DUP4 ADD MSTORE PUSH2 0x1DB3 DUP2 DUP6 PUSH2 0x1D14 JUMP JUMPDEST SWAP1 POP DUP2 DUP2 SUB PUSH1 0x40 DUP4 ADD MSTORE PUSH2 0x1DC7 DUP2 DUP5 PUSH2 0x1D14 JUMP JUMPDEST SWAP1 POP SWAP5 SWAP4 POP POP POP POP JUMP JUMPDEST PUSH0 DUP2 SWAP1 POP SWAP2 SWAP1 POP JUMP JUMPDEST PUSH2 0x1DE3 DUP2 PUSH2 0x1DD1 JUMP JUMPDEST DUP3 MSTORE POP POP JUMP JUMPDEST PUSH0 PUSH1 0x20 DUP3 ADD SWAP1 POP PUSH2 0x1DFC PUSH0 DUP4 ADD DUP5 PUSH2 0x1DDA JUMP JUMPDEST SWAP3 SWAP2 POP POP JUMP JUMPDEST PUSH2 0x1E0B DUP2 PUSH2 0x1DD1 JUMP JUMPDEST DUP2 EQ PUSH2 0x1E15 JUMPI PUSH0 DUP1 REVERT JUMPDEST POP JUMP JUMPDEST PUSH0 DUP2 CALLDATALOAD SWAP1 POP PUSH2 0x1E26 DUP2 PUSH2 0x1E02 JUMP JUMPDEST SWAP3 SWAP2 POP POP JUMP JUMPDEST PUSH0 PUSH1 0x20 DUP3 DUP5 SUB SLT ISZERO PUSH2 0x1E41 JUMPI PUSH2 0x1E40 PUSH2 0x1B0D JUMP JUMPDEST JUMPDEST PUSH0 PUSH2 0x1E4E DUP5 DUP3 DUP6 ADD PUSH2 0x1E18 JUMP JUMPDEST SWAP2 POP POP SWAP3 SWAP2 POP POP JUMP JUMPDEST PUSH0 DUP3 DUP3 MSTORE PUSH1 0x20 DUP3 ADD SWAP1 POP SWAP3 SWAP2 POP POP JUMP JUMPDEST PUSH0 PUSH2 0x1E71 DUP3 PUSH2 0x1BF6 JUMP JUMPDEST PUSH2 0x1E7B DUP2 DUP6 PUSH2 0x1E57 JUMP JUMPDEST SWAP4 POP PUSH2 0x1E8B DUP2 DUP6 PUSH1 0x20 DUP7 ADD PUSH2 0x1C10 JUMP JUMPDEST PUSH2 0x1E94 DUP2 PUSH2 0x1C38 JUMP JUMPDEST DUP5 ADD SWAP2 POP POP SWAP3 SWAP2 POP POP JUMP JUMPDEST PUSH0 PUSH1 0x80 DUP3 ADD SWAP1 POP DUP2 DUP2 SUB PUSH0 DUP4 ADD MSTORE PUSH2 0x1EB7 DUP2 DUP8 PUSH2 0x1E67 JUMP JUMPDEST SWAP1 POP DUP2 DUP2 SUB PUSH1 0x20 DUP4 ADD MSTORE PUSH2 0x1ECB DUP2 DUP7 PUSH2 0x1E67 JUMP JUMPDEST SWAP1 POP DUP2 DUP2 SUB PUSH1 0x40 DUP4 ADD MSTORE PUSH2 0x1EDF DUP2 DUP6 PUSH2 0x1E67 JUMP JUMPDEST SWAP1 POP DUP2 DUP2 SUB PUSH1 0x60 DUP4 ADD MSTORE PUSH2 0x1EF3 DUP2 DUP5 PUSH2 0x1E67 JUMP JUMPDEST SWAP1 POP SWAP6 SWAP5 POP POP POP POP POP JUMP JUMPDEST PUSH0 DUP1 REVERT JUMPDEST PUSH0 DUP1 REVERT JUMPDEST PUSH32 0x4E487B7100000000000000000000000000000000000000000000000000000000 PUSH0 MSTORE PUSH1 0x41 PUSH1 0x4 MSTORE PUSH1 0x24 PUSH0 REVERT JUMPDEST PUSH2 0x1F3C DUP3 PUSH2 0x1C38 JUMP JUMPDEST DUP2 ADD DUP2 DUP2 LT PUSH8 0xFFFFFFFFFFFFFFFF DUP3 GT OR ISZERO PUSH2 0x1F5B JUMPI PUSH2 0x1F5A PUSH2 0x1F06 JUMP JUMPDEST JUMPDEST DUP1 PUSH1 0x40 MSTORE POP POP POP JUMP JUMPDEST PUSH0 PUSH2 0x1F6D PUSH2 0x1B04 JUMP JUMPDEST SWAP1 POP PUSH2 0x1F79 DUP3 DUP3 PUSH2 0x1F33 JUMP JUMPDEST SWAP2 SWAP1 POP JUMP JUMPDEST PUSH0 PUSH8 0xFFFFFFFFFFFFFFFF DUP3 GT ISZERO PUSH2 0x1F98 JUMPI PUSH2 0x1F97 PUSH2 0x1F06 JUMP JUMPDEST JUMPDEST PUSH2 0x1FA1 DUP3 PUSH2 0x1C38 JUMP JUMPDEST SWAP1 POP PUSH1 0x20 DUP2 ADD SWAP1 POP SWAP2 SWAP1 POP JUMP JUMPDEST DUP3 DUP2 DUP4 CALLDATACOPY PUSH0 DUP4 DUP4 ADD MSTORE POP POP POP JUMP JUMPDEST PUSH0 PUSH2 0x1FCE PUSH2 0x1FC9 DUP5 PUSH2 0x1F7E JUMP JUMPDEST PUSH2 0x1F64 JUMP JUMPDEST SWAP1 POP DUP3 DUP2 MSTORE PUSH1 0x20 DUP2 ADD DUP5 DUP5 DUP5 ADD GT ISZERO PUSH2 0x1FEA JUMPI PUSH2 0x1FE9 PUSH2 0x1F02 JUMP JUMPDEST JUMPDEST PUSH2 0x1FF5 DUP5 DUP3 DUP6 PUSH2 0x1FAE JUMP JUMPDEST POP SWAP4 SWAP3 POP POP POP JUMP JUMPDEST PUSH0 DUP3 PUSH1 0x1F DUP4 ADD SLT PUSH2 0x2011 JUMPI PUSH2 0x2010 PUSH2 0x1EFE JUMP JUMPDEST JUMPDEST DUP2 CALLDATALOAD PUSH2 0x2021 DUP5 DUP3 PUSH1 0x20 DUP7 ADD PUSH2 0x1FBC JUMP JUMPDEST SWAP2 POP POP SWAP3 SWAP2 POP POP JUMP JUMPDEST PUSH0 DUP1 PUSH0 DUP1 PUSH1 0x80 DUP6 DUP8 SUB SLT ISZERO PUSH2 0x2042 JUMPI PUSH2 0x2041 PUSH2 0x1B0D JUMP JUMPDEST JUMPDEST PUSH0 DUP6 ADD CALLDATALOAD PUSH8 0xFFFFFFFFFFFFFFFF DUP2 GT ISZERO PUSH2 0x205F JUMPI PUSH2 0x205E PUSH2 0x1B11 JUMP JUMPDEST JUMPDEST PUSH2 0x206B DUP8 DUP3 DUP9 ADD PUSH2 0x1FFD JUMP JUMPDEST SWAP5 POP POP PUSH1 0x20 DUP6 ADD CALLDATALOAD PUSH8 0xFFFFFFFFFFFFFFFF DUP2 GT ISZERO PUSH2 0x208C JUMPI PUSH2 0x208B PUSH2 0x1B11 JUMP JUMPDEST JUMPDEST PUSH2 0x2098 DUP8 DUP3 DUP9 ADD PUSH2 0x1FFD JUMP JUMPDEST SWAP4 POP POP PUSH1 0x40 DUP6 ADD CALLDATALOAD PUSH8 0xFFFFFFFFFFFFFFFF DUP2 GT ISZERO PUSH2 0x20B9 JUMPI PUSH2 0x20B8 PUSH2 0x1B11 JUMP JUMPDEST JUMPDEST PUSH2 0x20C5 DUP8 DUP3 DUP9 ADD PUSH2 0x1FFD JUMP JUMPDEST SWAP3 POP POP PUSH1 0x60 DUP6 ADD CALLDATALOAD PUSH8 0xFFFFFFFFFFFFFFFF DUP2 GT ISZERO PUSH2 0x20E6 JUMPI PUSH2 0x20E5 PUSH2 0x1B11 JUMP JUMPDEST JUMPDEST PUSH2 0x20F2 DUP8 DUP3 DUP9 ADD PUSH2 0x1FFD JUMP JUMPDEST SWAP2 POP POP SWAP3 SWAP6 SWAP2 SWAP5 POP SWAP3 POP JUMP JUMPDEST PUSH2 0x2107 DUP2 PUSH2 0x1B34 JUMP JUMPDEST DUP3 MSTORE POP POP JUMP JUMPDEST PUSH0 PUSH1 0x20 DUP3 ADD SWAP1 POP PUSH2 0x2120 PUSH0 DUP4 ADD DUP5 PUSH2 0x20FE JUMP JUMPDEST SWAP3 SWAP2 POP POP JUMP JUMPDEST PUSH0 PUSH1 0x20 DUP3 ADD SWAP1 POP DUP2 DUP2 SUB PUSH0 DUP4 ADD MSTORE PUSH2 0x213E DUP2 DUP5 PUSH2 0x1E67 JUMP JUMPDEST SWAP1 POP SWAP3 SWAP2 POP POP JUMP JUMPDEST PUSH32 0x596F7520617265206E6F7420617574686F72697A656400000000000000000000 PUSH0 DUP3 ADD MSTORE POP JUMP JUMPDEST PUSH0 PUSH2 0x217A PUSH1 0x16 DUP4 PUSH2 0x1E57 JUMP JUMPDEST SWAP2 POP PUSH2 0x2185 DUP3 PUSH2 0x2146 JUMP JUMPDEST PUSH1 0x20 DUP3 ADD SWAP1 POP SWAP2 SWAP1 POP JUMP JUMPDEST PUSH0 PUSH1 0x20 DUP3 ADD SWAP1 POP DUP2 DUP2 SUB PUSH0 DUP4 ADD MSTORE PUSH2 0x21A7 DUP2 PUSH2 0x216E JUMP JUMPDEST SWAP1 POP SWAP2 SWAP1 POP JUMP JUMPDEST PUSH32 0x4E487B7100000000000000000000000000000000000000000000000000000000 PUSH0 MSTORE PUSH1 0x22 PUSH1 0x4 MSTORE PUSH1 0x24 PUSH0 REVERT JUMPDEST PUSH0 PUSH1 0x2 DUP3 DIV SWAP1 POP PUSH1 0x1 DUP3 AND DUP1 PUSH2 0x21F2 JUMPI PUSH1 0x7F DUP3 AND SWAP2 POP JUMPDEST PUSH1 0x20 DUP3 LT DUP2 SUB PUSH2 0x2205 JUMPI PUSH2 0x2204 PUSH2 0x21AE JUMP JUMPDEST JUMPDEST POP SWAP2 SWAP1 POP JUMP JUMPDEST PUSH32 0x456C656374696F6E20726573756C742063616E206F6E6C792062652061637469 PUSH0 DUP3 ADD MSTORE PUSH32 0x766174656420627920636F6D6D69747465650000000000000000000000000000 PUSH1 0x20 DUP3 ADD MSTORE POP JUMP JUMPDEST PUSH0 PUSH2 0x2265 PUSH1 0x32 DUP4 PUSH2 0x1E57 JUMP JUMPDEST SWAP2 POP PUSH2 0x2270 DUP3 PUSH2 0x220B JUMP JUMPDEST PUSH1 0x40 DUP3 ADD SWAP1 POP SWAP2 SWAP1 POP JUMP JUMPDEST PUSH0 PUSH1 0x20 DUP3 ADD SWAP1 POP DUP2 DUP2 SUB PUSH0 DUP4 ADD MSTORE PUSH2 0x2292 DUP2 PUSH2 0x2259 JUMP JUMPDEST SWAP1 POP SWAP2 SWAP1 POP JUMP JUMPDEST PUSH32 0x596F75206861766520616C726561647920766F74656400000000000000000000 PUSH0 DUP3 ADD MSTORE POP JUMP JUMPDEST PUSH0 PUSH2 0x22CD PUSH1 0x16 DUP4 PUSH2 0x1E57 JUMP JUMPDEST SWAP2 POP PUSH2 0x22D8 DUP3 PUSH2 0x2299 JUMP JUMPDEST PUSH1 0x20 DUP3 ADD SWAP1 POP SWAP2 SWAP1 POP JUMP JUMPDEST PUSH0 PUSH1 0x20 DUP3 ADD SWAP1 POP DUP2 DUP2 SUB PUSH0 DUP4 ADD MSTORE PUSH2 0x22FA DUP2 PUSH2 0x22C1 JUMP JUMPDEST SWAP1 POP SWAP2 SWAP1 POP JUMP JUMPDEST PUSH32 0x4E487B7100000000000000000000000000000000000000000000000000000000 PUSH0 MSTORE PUSH1 0x11 PUSH1 0x4 MSTORE PUSH1 0x24 PUSH0 REVERT JUMPDEST PUSH0 PUSH2 0x2338 DUP3 PUSH2 0x1DD1 JUMP JUMPDEST SWAP2 POP PUSH32 0xFFFFFFFFFFFFFFFFFFFFFFFFFFFFFFFFFFFFFFFFFFFFFFFFFFFFFFFFFFFFFFFF DUP3 SUB PUSH2 0x236A JUMPI PUSH2 0x2369 PUSH2 0x2301 JUMP JUMPDEST JUMPDEST PUSH1 0x1 DUP3 ADD SWAP1 POP SWAP2 SWAP1 POP JUMP JUMPDEST PUSH0 DUP2 SWAP1 POP DUP2 PUSH0 MSTORE PUSH1 0x20 PUSH0 KECCAK256 SWAP1 POP SWAP2 SWAP1 POP JUMP JUMPDEST PUSH0 PUSH1 0x20 PUSH1 0x1F DUP4 ADD DIV SWAP1 POP SWAP2 SWAP1 POP JUMP JUMPDEST PUSH0 DUP3 DUP3 SHL SWAP1 POP SWAP3 SWAP2 POP POP JUMP JUMPDEST PUSH0 PUSH1 0x8 DUP4 MUL PUSH2 0x23D1 PUSH32 0xFFFFFFFFFFFFFFFFFFFFFFFFFFFFFFFFFFFFFFFFFFFFFFFFFFFFFFFFFFFFFFFF DUP3 PUSH2 0x2396 JUMP JUMPDEST PUSH2 0x23DB DUP7 DUP4 PUSH2 0x2396 JUMP JUMPDEST SWAP6 POP DUP1 NOT DUP5 AND SWAP4 POP DUP1 DUP7 AND DUP5 OR SWAP3 POP POP POP SWAP4 SWAP3 POP POP POP JUMP JUMPDEST PUSH0 DUP2 SWAP1 POP SWAP2 SWAP1 POP JUMP JUMPDEST PUSH0 PUSH2 0x2416 PUSH2 0x2411 PUSH2 0x240C DUP5 PUSH2 0x1DD1 JUMP JUMPDEST PUSH2 0x23F3 JUMP JUMPDEST PUSH2 0x1DD1 JUMP JUMPDEST SWAP1 POP SWAP2 SWAP1 POP JUMP JUMPDEST PUSH0 DUP2 SWAP1 POP SWAP2 SWAP1 POP JUMP JUMPDEST PUSH2 0x242F DUP4 PUSH2 0x23FC JUMP JUMPDEST PUSH2 0x2443 PUSH2 0x243B DUP3 PUSH2 0x241D JUMP JUMPDEST DUP5 DUP5 SLOAD PUSH2 0x23A2 JUMP JUMPDEST DUP3 SSTORE POP POP POP POP JUMP JUMPDEST PUSH0 SWAP1 JUMP JUMPDEST PUSH2 0x2457 PUSH2 0x244B JUMP JUMPDEST PUSH2 0x2462 DUP2 DUP5 DUP5 PUSH2 0x2426 JUMP JUMPDEST POP POP POP JUMP JUMPDEST JUMPDEST DUP2 DUP2 LT ISZERO PUSH2 0x2485 JUMPI PUSH2 0x247A PUSH0 DUP3 PUSH2 0x244F JUMP JUMPDEST PUSH1 0x1 DUP2 ADD SWAP1 POP PUSH2 0x2468 JUMP JUMPDEST POP POP JUMP JUMPDEST PUSH1 0x1F DUP3 GT ISZERO PUSH2 0x24CA JUMPI PUSH2 0x249B DUP2 PUSH2 0x2375 JUMP JUMPDEST PUSH2 0x24A4 DUP5 PUSH2 0x2387 JUMP JUMPDEST DUP2 ADD PUSH1 0x20 DUP6 LT ISZERO PUSH2 0x24B3 JUMPI DUP2 SWAP1 POP JUMPDEST PUSH2 0x24C7 PUSH2 0x24BF DUP6 PUSH2 0x2387 JUMP JUMPDEST DUP4 ADD DUP3 PUSH2 0x2467 JUMP JUMPDEST POP POP JUMPDEST POP POP POP JUMP JUMPDEST PUSH0 DUP3 DUP3 SHR SWAP1 POP SWAP3 SWAP2 POP POP JUMP JUMPDEST PUSH0 PUSH2 0x24EA PUSH0 NOT DUP5 PUSH1 0x8 MUL PUSH2 0x24CF JUMP JUMPDEST NOT DUP1 DUP4 AND SWAP2 POP POP SWAP3 SWAP2 POP POP JUMP JUMPDEST PUSH0 PUSH2 0x2502 DUP4 DUP4 PUSH2 0x24DB JUMP JUMPDEST SWAP2 POP DUP3 PUSH1 0x2 MUL DUP3 OR SWAP1 POP SWAP3 SWAP2 POP POP JUMP JUMPDEST PUSH2 0x251B DUP3 PUSH2 0x1BF6 JUMP JUMPDEST PUSH8 0xFFFFFFFFFFFFFFFF DUP2 GT ISZERO PUSH2 0x2534 JUMPI PUSH2 0x2533 PUSH2 0x1F06 JUMP JUMPDEST JUMPDEST PUSH2 0x253E DUP3 SLOAD PUSH2 0x21DB JUMP JUMPDEST PUSH2 0x2549 DUP3 DUP3 DUP6 PUSH2 0x2489 JUMP JUMPDEST PUSH0 PUSH1 0x20 SWAP1 POP PUSH1 0x1F DUP4 GT PUSH1 0x1 DUP2 EQ PUSH2 0x257A JUMPI PUSH0 DUP5 ISZERO PUSH2 0x2568 JUMPI DUP3 DUP8 ADD MLOAD SWAP1 POP JUMPDEST PUSH2 0x2572 DUP6 DUP3 PUSH2 0x24F7 JUMP JUMPDEST DUP7 SSTORE POP PUSH2 0x25D9 JUMP JUMPDEST PUSH1 0x1F NOT DUP5 AND PUSH2 0x2588 DUP7 PUSH2 0x2375 JUMP JUMPDEST PUSH0 JUMPDEST DUP3 DUP2 LT ISZERO PUSH2 0x25AF JUMPI DUP5 DUP10 ADD MLOAD DUP3 SSTORE PUSH1 0x1 DUP3 ADD SWAP2 POP PUSH1 0x20 DUP6 ADD SWAP5 POP PUSH1 0x20 DUP2 ADD SWAP1 POP PUSH2 0x258A JUMP JUMPDEST DUP7 DUP4 LT ISZERO PUSH2 0x25CC JUMPI DUP5 DUP10 ADD MLOAD PUSH2 0x25C8 PUSH1 0x1F DUP10 AND DUP3 PUSH2 0x24DB JUMP JUMPDEST DUP4 SSTORE POP JUMPDEST PUSH1 0x1 PUSH1 0x2 DUP9 MUL ADD DUP9 SSTORE POP POP POP JUMPDEST POP POP POP POP POP POP JUMP INVALID LOG2 PUSH5 0x6970667358 0x22 SLT KECCAK256 0xBB ADDRESS SWAP12 LOG4 DUP1 SELFBALANCE 0xC2 0xD4 0xEE SLOAD MSTORE8 0xE8 0xC5 ADDMOD SHR PUSH2 0x53BA DUP12 SWAP9 SELFBALANCE 0xAC 0x2B BYTE 0xE8 PUSH13 0x1F8C46083F7964736F6C634300 ADDMOD AND STOP CALLER "
		},
		"gasEstimates": {
			"creation": {
				"codeDepositCost": "1950200",
				"executionCost": "50590",
				"totalCost": "2000790"
			},
			"external": {
				"AAP()": "2491",
				"BJP()": "2493",
				"CONGRESS()": "2470",
				"aapVotes(uint256)": "infinite",
				"activateResult()": "26598",
				"bjpVotes(uint256)": "infinite",
				"congressVotes(uint256)": "infinite",
				"deployerAddress()": "2615",
				"getDeployedContractAddress()": "2560",
				"getElectionResult()": "infinite",
				"getVotes()": "infinite",
				"getVotingStatus(address)": "2958",
				"hasVoted(address)": "2857",
				"showResult()": "2533",
				"voteAAP(string,string,string,string)": "infinite",
				"voteBJP(string,string,string,string)": "infinite",
				"voteCONGRESS(string,string,string,string)": "infinite"
			}
		},
		"methodIdentifiers": {
			"AAP()": "d3bf0ce6",
			"BJP()": "11636f58",
			"CONGRESS()": "25df8aef",
			"aapVotes(uint256)": "cf9b64a1",
			"activateResult()": "249ea56e",
			"bjpVotes(uint256)": "23097f2d",
			"congressVotes(uint256)": "3aa075f7",
			"deployerAddress()": "efdee94f",
			"getDeployedContractAddress()": "604cb434",
			"getElectionResult()": "ca3eb443",
			"getVotes()": "0dc96015",
			"getVotingStatus(address)": "d867909a",
			"hasVoted(address)": "09eef43e",
			"showResult()": "33ee3131",
			"voteAAP(string,string,string,string)": "a17ca7f9",
			"voteBJP(string,string,string,string)": "a02e1cbf",
			"voteCONGRESS(string,string,string,string)": "359fe946"
		}
	},
	"abi": [
		{
			"inputs": [],
			"stateMutability": "nonpayable",
			"type": "constructor"
		},
		{
			"inputs": [],
			"name": "AAP",
			"outputs": [
				{
					"internalType": "uint256",
					"name": "",
					"type": "uint256"
				}
			],
			"stateMutability": "view",
			"type": "function"
		},
		{
			"inputs": [],
			"name": "BJP",
			"outputs": [
				{
					"internalType": "uint256",
					"name": "",
					"type": "uint256"
				}
			],
			"stateMutability": "view",
			"type": "function"
		},
		{
			"inputs": [],
			"name": "CONGRESS",
			"outputs": [
				{
					"internalType": "uint256",
					"name": "",
					"type": "uint256"
				}
			],
			"stateMutability": "view",
			"type": "function"
		},
		{
			"inputs": [
				{
					"internalType": "uint256",
					"name": "",
					"type": "uint256"
				}
			],
			"name": "aapVotes",
			"outputs": [
				{
					"internalType": "string",
					"name": "name",
					"type": "string"
				},
				{
					"internalType": "string",
					"name": "email",
					"type": "string"
				},
				{
					"internalType": "string",
					"name": "phoneNumber",
					"type": "string"
				},
				{
					"internalType": "string",
					"name": "dob",
					"type": "string"
				}
			],
			"stateMutability": "view",
			"type": "function"
		},
		{
			"inputs": [],
			"name": "activateResult",
			"outputs": [],
			"stateMutability": "nonpayable",
			"type": "function"
		},
		{
			"inputs": [
				{
					"internalType": "uint256",
					"name": "",
					"type": "uint256"
				}
			],
			"name": "bjpVotes",
			"outputs": [
				{
					"internalType": "string",
					"name": "name",
					"type": "string"
				},
				{
					"internalType": "string",
					"name": "email",
					"type": "string"
				},
				{
					"internalType": "string",
					"name": "phoneNumber",
					"type": "string"
				},
				{
					"internalType": "string",
					"name": "dob",
					"type": "string"
				}
			],
			"stateMutability": "view",
			"type": "function"
		},
		{
			"inputs": [
				{
					"internalType": "uint256",
					"name": "",
					"type": "uint256"
				}
			],
			"name": "congressVotes",
			"outputs": [
				{
					"internalType": "string",
					"name": "name",
					"type": "string"
				},
				{
					"internalType": "string",
					"name": "email",
					"type": "string"
				},
				{
					"internalType": "string",
					"name": "phoneNumber",
					"type": "string"
				},
				{
					"internalType": "string",
					"name": "dob",
					"type": "string"
				}
			],
			"stateMutability": "view",
			"type": "function"
		},
		{
			"inputs": [],
			"name": "deployerAddress",
			"outputs": [
				{
					"internalType": "address",
					"name": "",
					"type": "address"
				}
			],
			"stateMutability": "view",
			"type": "function"
		},
		{
			"inputs": [],
			"name": "getDeployedContractAddress",
			"outputs": [
				{
					"internalType": "address",
					"name": "",
					"type": "address"
				}
			],
			"stateMutability": "view",
			"type": "function"
		},
		{
			"inputs": [],
			"name": "getElectionResult",
			"outputs": [
				{
					"internalType": "string",
					"name": "",
					"type": "string"
				}
			],
			"stateMutability": "view",
			"type": "function"
		},
		{
			"inputs": [],
			"name": "getVotes",
			"outputs": [
				{
					"components": [
						{
							"internalType": "string",
							"name": "name",
							"type": "string"
						},
						{
							"internalType": "string",
							"name": "email",
							"type": "string"
						},
						{
							"internalType": "string",
							"name": "phoneNumber",
							"type": "string"
						},
						{
							"internalType": "string",
							"name": "dob",
							"type": "string"
						}
					],
					"internalType": "struct Election.User[]",
					"name": "",
					"type": "tuple[]"
				},
				{
					"components": [
						{
							"internalType": "string",
							"name": "name",
							"type": "string"
						},
						{
							"internalType": "string",
							"name": "email",
							"type": "string"
						},
						{
							"internalType": "string",
							"name": "phoneNumber",
							"type": "string"
						},
						{
							"internalType": "string",
							"name": "dob",
							"type": "string"
						}
					],
					"internalType": "struct Election.User[]",
					"name": "",
					"type": "tuple[]"
				},
				{
					"components": [
						{
							"internalType": "string",
							"name": "name",
							"type": "string"
						},
						{
							"internalType": "string",
							"name": "email",
							"type": "string"
						},
						{
							"internalType": "string",
							"name": "phoneNumber",
							"type": "string"
						},
						{
							"internalType": "string",
							"name": "dob",
							"type": "string"
						}
					],
					"internalType": "struct Election.User[]",
					"name": "",
					"type": "tuple[]"
				}
			],
			"stateMutability": "view",
			"type": "function"
		},
		{
			"inputs": [
				{
					"internalType": "address",
					"name": "_voter",
					"type": "address"
				}
			],
			"name": "getVotingStatus",
			"outputs": [
				{
					"internalType": "bool",
					"name": "",
					"type": "bool"
				}
			],
			"stateMutability": "view",
			"type": "function"
		},
		{
			"inputs": [
				{
					"internalType": "address",
					"name": "",
					"type": "address"
				}
			],
			"name": "hasVoted",
			"outputs": [
				{
					"internalType": "bool",
					"name": "",
					"type": "bool"
				}
			],
			"stateMutability": "view",
			"type": "function"
		},
		{
			"inputs": [],
			"name": "showResult",
			"outputs": [
				{
					"internalType": "bool",
					"name": "",
					"type": "bool"
				}
			],
			"stateMutability": "view",
			"type": "function"
		},
		{
			"inputs": [
				{
					"internalType": "string",
					"name": "_name",
					"type": "string"
				},
				{
					"internalType": "string",
					"name": "_email",
					"type": "string"
				},
				{
					"internalType": "string",
					"name": "_phoneNumber",
					"type": "string"
				},
				{
					"internalType": "string",
					"name": "_dob",
					"type": "string"
				}
			],
			"name": "voteAAP",
			"outputs": [
				{
					"internalType": "bool",
					"name": "",
					"type": "bool"
				}
			],
			"stateMutability": "nonpayable",
			"type": "function"
		},
		{
			"inputs": [
				{
					"internalType": "string",
					"name": "_name",
					"type": "string"
				},
				{
					"internalType": "string",
					"name": "_email",
					"type": "string"
				},
				{
					"internalType": "string",
					"name": "_phoneNumber",
					"type": "string"
				},
				{
					"internalType": "string",
					"name": "_dob",
					"type": "string"
				}
			],
			"name": "voteBJP",
			"outputs": [
				{
					"internalType": "bool",
					"name": "",
					"type": "bool"
				}
			],
			"stateMutability": "nonpayable",
			"type": "function"
		},
		{
			"inputs": [
				{
					"internalType": "string",
					"name": "_name",
					"type": "string"
				},
				{
					"internalType": "string",
					"name": "_email",
					"type": "string"
				},
				{
					"internalType": "string",
					"name": "_phoneNumber",
					"type": "string"
				},
				{
					"internalType": "string",
					"name": "_dob",
					"type": "string"
				}
			],
			"name": "voteCONGRESS",
			"outputs": [
				{
					"internalType": "bool",
					"name": "",
					"type": "bool"
				}
			],
			"stateMutability": "nonpayable",
			"type": "function"
		}
	]
}