{
	"contracts/Interface.sol": {
		"UserRegistry": {
			"abi": [
				{
					"anonymous": false,
					"inputs": [
						{
							"indexed": true,
							"internalType": "string",
							"name": "userAddress",
							"type": "string"
						},
						{
							"indexed": false,
							"internalType": "string",
							"name": "newCid",
							"type": "string"
						},
						{
							"indexed": false,
							"internalType": "bool",
							"name": "success",
							"type": "bool"
						}
					],
					"name": "CidUpdated",
					"type": "event"
				},
				{
					"anonymous": false,
					"inputs": [
						{
							"indexed": true,
							"internalType": "string",
							"name": "userAddress",
							"type": "string"
						},
						{
							"indexed": false,
							"internalType": "string",
							"name": "newContact",
							"type": "string"
						},
						{
							"indexed": false,
							"internalType": "bool",
							"name": "success",
							"type": "bool"
						}
					],
					"name": "ContactUpdated",
					"type": "event"
				},
				{
					"anonymous": false,
					"inputs": [
						{
							"indexed": true,
							"internalType": "string",
							"name": "userAddress",
							"type": "string"
						},
						{
							"indexed": false,
							"internalType": "string",
							"name": "newDOB",
							"type": "string"
						},
						{
							"indexed": false,
							"internalType": "bool",
							"name": "success",
							"type": "bool"
						}
					],
					"name": "DOBUpdated",
					"type": "event"
				},
				{
					"anonymous": false,
					"inputs": [
						{
							"indexed": true,
							"internalType": "string",
							"name": "userAddress",
							"type": "string"
						},
						{
							"indexed": false,
							"internalType": "string",
							"name": "newEmail",
							"type": "string"
						},
						{
							"indexed": false,
							"internalType": "bool",
							"name": "success",
							"type": "bool"
						}
					],
					"name": "EmailUpdated",
					"type": "event"
				},
				{
					"anonymous": false,
					"inputs": [
						{
							"indexed": true,
							"internalType": "string",
							"name": "userAddress",
							"type": "string"
						},
						{
							"indexed": false,
							"internalType": "string",
							"name": "newUsername",
							"type": "string"
						},
						{
							"indexed": false,
							"internalType": "bool",
							"name": "success",
							"type": "bool"
						}
					],
					"name": "UsernameUpdated",
					"type": "event"
				},
				{
					"inputs": [
						{
							"internalType": "string",
							"name": "_userAddress",
							"type": "string"
						},
						{
							"internalType": "string",
							"name": "_email",
							"type": "string"
						},
						{
							"internalType": "string",
							"name": "_username",
							"type": "string"
						},
						{
							"internalType": "string",
							"name": "_contact",
							"type": "string"
						},
						{
							"internalType": "string",
							"name": "_dob",
							"type": "string"
						},
						{
							"internalType": "string",
							"name": "_privateKey",
							"type": "string"
						},
						{
							"internalType": "string",
							"name": "_cid",
							"type": "string"
						}
					],
					"name": "createUser",
					"outputs": [],
					"stateMutability": "nonpayable",
					"type": "function"
				},
				{
					"inputs": [
						{
							"internalType": "string",
							"name": "_userAddress",
							"type": "string"
						}
					],
					"name": "getCidByAddress",
					"outputs": [
						{
							"internalType": "string",
							"name": "",
							"type": "string"
						}
					],
					"stateMutability": "view",
					"type": "function"
				},
				{
					"inputs": [
						{
							"internalType": "string",
							"name": "_userAddress",
							"type": "string"
						}
					],
					"name": "getContactByAddress",
					"outputs": [
						{
							"internalType": "string",
							"name": "",
							"type": "string"
						}
					],
					"stateMutability": "view",
					"type": "function"
				},
				{
					"inputs": [
						{
							"internalType": "string",
							"name": "_userAddress",
							"type": "string"
						}
					],
					"name": "getDOBByAddress",
					"outputs": [
						{
							"internalType": "string",
							"name": "",
							"type": "string"
						}
					],
					"stateMutability": "view",
					"type": "function"
				},
				{
					"inputs": [
						{
							"internalType": "string",
							"name": "_userAddress",
							"type": "string"
						}
					],
					"name": "getEmailByAddress",
					"outputs": [
						{
							"internalType": "string",
							"name": "",
							"type": "string"
						}
					],
					"stateMutability": "view",
					"type": "function"
				},
				{
					"inputs": [
						{
							"internalType": "string",
							"name": "_userAddress",
							"type": "string"
						}
					],
					"name": "getUsernameByAddress",
					"outputs": [
						{
							"internalType": "string",
							"name": "",
							"type": "string"
						}
					],
					"stateMutability": "view",
					"type": "function"
				},
				{
					"inputs": [
						{
							"internalType": "string",
							"name": "_privateKey",
							"type": "string"
						},
						{
							"internalType": "string",
							"name": "_userAddress",
							"type": "string"
						}
					],
					"name": "mapPrivateKeyToPublicKey",
					"outputs": [],
					"stateMutability": "nonpayable",
					"type": "function"
				},
				{
					"inputs": [
						{
							"internalType": "string",
							"name": "",
							"type": "string"
						}
					],
					"name": "privateKeyToPublicKey",
					"outputs": [
						{
							"internalType": "string",
							"name": "",
							"type": "string"
						}
					],
					"stateMutability": "view",
					"type": "function"
				},
				{
					"inputs": [
						{
							"internalType": "string",
							"name": "_userAddress",
							"type": "string"
						},
						{
							"internalType": "string",
							"name": "_newCid",
							"type": "string"
						}
					],
					"name": "updateCid",
					"outputs": [],
					"stateMutability": "nonpayable",
					"type": "function"
				},
				{
					"inputs": [
						{
							"internalType": "string",
							"name": "_userAddress",
							"type": "string"
						},
						{
							"internalType": "string",
							"name": "_newContact",
							"type": "string"
						}
					],
					"name": "updateContact",
					"outputs": [],
					"stateMutability": "nonpayable",
					"type": "function"
				},
				{
					"inputs": [
						{
							"internalType": "string",
							"name": "_userAddress",
							"type": "string"
						},
						{
							"internalType": "string",
							"name": "_newDOB",
							"type": "string"
						}
					],
					"name": "updateDOB",
					"outputs": [],
					"stateMutability": "nonpayable",
					"type": "function"
				},
				{
					"inputs": [
						{
							"internalType": "string",
							"name": "_userAddress",
							"type": "string"
						},
						{
							"internalType": "string",
							"name": "_newEmail",
							"type": "string"
						}
					],
					"name": "updateEmail",
					"outputs": [],
					"stateMutability": "nonpayable",
					"type": "function"
				},
				{
					"inputs": [
						{
							"internalType": "string",
							"name": "_userAddress",
							"type": "string"
						},
						{
							"internalType": "string",
							"name": "_newUsername",
							"type": "string"
						}
					],
					"name": "updateUsername",
					"outputs": [],
					"stateMutability": "nonpayable",
					"type": "function"
				},
				{
					"inputs": [
						{
							"internalType": "string",
							"name": "",
							"type": "string"
						}
					],
					"name": "users",
					"outputs": [
						{
							"internalType": "string",
							"name": "userAddress",
							"type": "string"
						},
						{
							"internalType": "string",
							"name": "email",
							"type": "string"
						},
						{
							"internalType": "string",
							"name": "username",
							"type": "string"
						},
						{
							"internalType": "string",
							"name": "contact",
							"type": "string"
						},
						{
							"internalType": "string",
							"name": "dob",
							"type": "string"
						},
						{
							"internalType": "string",
							"name": "cid",
							"type": "string"
						}
					],
					"stateMutability": "view",
					"type": "function"
				}
			],
			"devdoc": {
				"kind": "dev",
				"methods": {},
				"version": 1
			},
			"evm": {
				"assembly": "    /* \"contracts/Interface.sol\":60:4041  contract UserRegistry {... */\n  mstore(0x40, 0x80)\n  callvalue\n  dup1\n  iszero\n  tag_1\n  jumpi\n  0x00\n  dup1\n  revert\ntag_1:\n  pop\n  dataSize(sub_0)\n  dup1\n  dataOffset(sub_0)\n  0x00\n  codecopy\n  0x00\n  return\nstop\n\nsub_0: assembly {\n        /* \"contracts/Interface.sol\":60:4041  contract UserRegistry {... */\n      mstore(0x40, 0x80)\n      callvalue\n      dup1\n      iszero\n      tag_1\n      jumpi\n      0x00\n      dup1\n      revert\n    tag_1:\n      pop\n      jumpi(tag_2, lt(calldatasize, 0x04))\n      shr(0xe0, calldataload(0x00))\n      dup1\n      0xa1d01bb1\n      gt\n      tag_17\n      jumpi\n      dup1\n      0xc87203a1\n      gt\n      tag_18\n      jumpi\n      dup1\n      0xc87203a1\n      eq\n      tag_13\n      jumpi\n      dup1\n      0xccca8f22\n      eq\n      tag_14\n      jumpi\n      dup1\n      0xee7476d5\n      eq\n      tag_15\n      jumpi\n      dup1\n      0xf7ffd625\n      eq\n      tag_16\n      jumpi\n      jump(tag_2)\n    tag_18:\n      dup1\n      0xa1d01bb1\n      eq\n      tag_10\n      jumpi\n      dup1\n      0xbeb8727f\n      eq\n      tag_11\n      jumpi\n      dup1\n      0xbf501844\n      eq\n      tag_12\n      jumpi\n      jump(tag_2)\n    tag_17:\n      dup1\n      0x5abb69e1\n      gt\n      tag_19\n      jumpi\n      dup1\n      0x5abb69e1\n      eq\n      tag_6\n      jumpi\n      dup1\n      0x689e1c03\n      eq\n      tag_7\n      jumpi\n      dup1\n      0x892d069c\n      eq\n      tag_8\n      jumpi\n      dup1\n      0x8c9a2e92\n      eq\n      tag_9\n      jumpi\n      jump(tag_2)\n    tag_19:\n      dup1\n      0x0d60fafd\n      eq\n      tag_3\n      jumpi\n      dup1\n      0x27897557\n      eq\n      tag_4\n      jumpi\n      dup1\n      0x5a7fb9d7\n      eq\n      tag_5\n      jumpi\n    tag_2:\n      0x00\n      dup1\n      revert\n        /* \"contracts/Interface.sol\":3805:4038  function updateContact(... */\n    tag_3:\n      tag_20\n      0x04\n      dup1\n      calldatasize\n      sub\n      dup2\n      add\n      swap1\n      tag_21\n      swap2\n      swap1\n      tag_22\n      jump\t// in\n    tag_21:\n      tag_23\n      jump\t// in\n    tag_20:\n      stop\n        /* \"contracts/Interface.sol\":3077:3273  function updateEmail(string memory _userAddress, string memory _newEmail) public {... */\n    tag_4:\n      tag_24\n      0x04\n      dup1\n      calldatasize\n      sub\n      dup2\n      add\n      swap1\n      tag_25\n      swap2\n      swap1\n      tag_22\n      jump\t// in\n    tag_25:\n      tag_26\n      jump\t// in\n    tag_24:\n      stop\n        /* \"contracts/Interface.sol\":1686:1978  function mapPrivateKeyToPublicKey(... */\n    tag_5:\n      tag_27\n      0x04\n      dup1\n      calldatasize\n      sub\n      dup2\n      add\n      swap1\n      tag_28\n      swap2\n      swap1\n      tag_22\n      jump\t// in\n    tag_28:\n      tag_29\n      jump\t// in\n    tag_27:\n      stop\n        /* \"contracts/Interface.sol\":873:1678  function createUser(... */\n    tag_6:\n      tag_30\n      0x04\n      dup1\n      calldatasize\n      sub\n      dup2\n      add\n      swap1\n      tag_31\n      swap2\n      swap1\n      tag_32\n      jump\t// in\n    tag_31:\n      tag_33\n      jump\t// in\n    tag_30:\n      stop\n        /* \"contracts/Interface.sol\":309:345  mapping(string => User) public users */\n    tag_7:\n      tag_34\n      0x04\n      dup1\n      calldatasize\n      sub\n      dup2\n      add\n      swap1\n      tag_35\n      swap2\n      swap1\n      tag_36\n      jump\t// in\n    tag_35:\n      tag_37\n      jump\t// in\n    tag_34:\n      mload(0x40)\n      tag_38\n      swap7\n      swap6\n      swap5\n      swap4\n      swap3\n      swap2\n      swap1\n      tag_39\n      jump\t// in\n    tag_38:\n      mload(0x40)\n      dup1\n      swap2\n      sub\n      swap1\n      return\n        /* \"contracts/Interface.sol\":2158:2397  function updateUsername(... */\n    tag_8:\n      tag_40\n      0x04\n      dup1\n      calldatasize\n      sub\n      dup2\n      add\n      swap1\n      tag_41\n      swap2\n      swap1\n      tag_22\n      jump\t// in\n    tag_41:\n      tag_42\n      jump\t// in\n    tag_40:\n      stop\n        /* \"contracts/Interface.sol\":2911:3069  function getEmailByAddress(... */\n    tag_9:\n      tag_43\n      0x04\n      dup1\n      calldatasize\n      sub\n      dup2\n      add\n      swap1\n      tag_44\n      swap2\n      swap1\n      tag_36\n      jump\t// in\n    tag_44:\n      tag_45\n      jump\t// in\n    tag_43:\n      mload(0x40)\n      tag_46\n      swap2\n      swap1\n      tag_47\n      jump\t// in\n    tag_46:\n      mload(0x40)\n      dup1\n      swap2\n      sub\n      swap1\n      return\n        /* \"contracts/Interface.sol\":2644:2903  function updateCid(string memory _userAddress, string memory _newCid) public {... */\n    tag_10:\n      tag_48\n      0x04\n      dup1\n      calldatasize\n      sub\n      dup2\n      add\n      swap1\n      tag_49\n      swap2\n      swap1\n      tag_22\n      jump\t// in\n    tag_49:\n      tag_50\n      jump\t// in\n    tag_48:\n      stop\n        /* \"contracts/Interface.sol\":3281:3435  function getDOBByAddress(... */\n    tag_11:\n      tag_51\n      0x04\n      dup1\n      calldatasize\n      sub\n      dup2\n      add\n      swap1\n      tag_52\n      swap2\n      swap1\n      tag_36\n      jump\t// in\n    tag_52:\n      tag_53\n      jump\t// in\n    tag_51:\n      mload(0x40)\n      tag_54\n      swap2\n      swap1\n      tag_47\n      jump\t// in\n    tag_54:\n      mload(0x40)\n      dup1\n      swap2\n      sub\n      swap1\n      return\n        /* \"contracts/Interface.sol\":388:442  mapping(string => string) public privateKeyToPublicKey */\n    tag_12:\n      tag_55\n      0x04\n      dup1\n      calldatasize\n      sub\n      dup2\n      add\n      swap1\n      tag_56\n      swap2\n      swap1\n      tag_36\n      jump\t// in\n    tag_56:\n      tag_57\n      jump\t// in\n    tag_55:\n      mload(0x40)\n      tag_58\n      swap2\n      swap1\n      tag_47\n      jump\t// in\n    tag_58:\n      mload(0x40)\n      dup1\n      swap2\n      sub\n      swap1\n      return\n        /* \"contracts/Interface.sol\":2438:2576  function getCidByAddress(string memory _userAddress) public view returns (string memory) {... */\n    tag_13:\n      tag_59\n      0x04\n      dup1\n      calldatasize\n      sub\n      dup2\n      add\n      swap1\n      tag_60\n      swap2\n      swap1\n      tag_36\n      jump\t// in\n    tag_60:\n      tag_61\n      jump\t// in\n    tag_59:\n      mload(0x40)\n      tag_62\n      swap2\n      swap1\n      tag_47\n      jump\t// in\n    tag_62:\n      mload(0x40)\n      dup1\n      swap2\n      sub\n      swap1\n      return\n        /* \"contracts/Interface.sol\":3635:3797  function getContactByAddress(... */\n    tag_14:\n      tag_63\n      0x04\n      dup1\n      calldatasize\n      sub\n      dup2\n      add\n      swap1\n      tag_64\n      swap2\n      swap1\n      tag_36\n      jump\t// in\n    tag_64:\n      tag_65\n      jump\t// in\n    tag_63:\n      mload(0x40)\n      tag_66\n      swap2\n      swap1\n      tag_47\n      jump\t// in\n    tag_66:\n      mload(0x40)\n      dup1\n      swap2\n      sub\n      swap1\n      return\n        /* \"contracts/Interface.sol\":3443:3627  function updateDOB(string memory _userAddress, string memory _newDOB) public {... */\n    tag_15:\n      tag_67\n      0x04\n      dup1\n      calldatasize\n      sub\n      dup2\n      add\n      swap1\n      tag_68\n      swap2\n      swap1\n      tag_22\n      jump\t// in\n    tag_68:\n      tag_69\n      jump\t// in\n    tag_67:\n      stop\n        /* \"contracts/Interface.sol\":1986:2150  function getUsernameByAddress(... */\n    tag_16:\n      tag_70\n      0x04\n      dup1\n      calldatasize\n      sub\n      dup2\n      add\n      swap1\n      tag_71\n      swap2\n      swap1\n      tag_36\n      jump\t// in\n    tag_71:\n      tag_72\n      jump\t// in\n    tag_70:\n      mload(0x40)\n      tag_73\n      swap2\n      swap1\n      tag_47\n      jump\t// in\n    tag_73:\n      mload(0x40)\n      dup1\n      swap2\n      sub\n      swap1\n      return\n        /* \"contracts/Interface.sol\":3805:4038  function updateContact(... */\n    tag_23:\n        /* \"contracts/Interface.sol\":3956:3967  _newContact */\n      dup1\n        /* \"contracts/Interface.sol\":3926:3931  users */\n      0x00\n        /* \"contracts/Interface.sol\":3932:3944  _userAddress */\n      dup4\n        /* \"contracts/Interface.sol\":3926:3945  users[_userAddress] */\n      mload(0x40)\n      tag_75\n      swap2\n      swap1\n      tag_76\n      jump\t// in\n    tag_75:\n      swap1\n      dup2\n      mstore\n      0x20\n      add\n      mload(0x40)\n      dup1\n      swap2\n      sub\n      swap1\n      keccak256\n        /* \"contracts/Interface.sol\":3926:3953  users[_userAddress].contact */\n      0x03\n      add\n        /* \"contracts/Interface.sol\":3926:3967  users[_userAddress].contact = _newContact */\n      swap1\n      dup2\n      tag_77\n      swap2\n      swap1\n      tag_78\n      jump\t// in\n    tag_77:\n      pop\n        /* \"contracts/Interface.sol\":3998:4010  _userAddress */\n      dup2\n        /* \"contracts/Interface.sol\":3983:4030  ContactUpdated(_userAddress, _newContact, true) */\n      mload(0x40)\n      tag_79\n      swap2\n      swap1\n      tag_76\n      jump\t// in\n    tag_79:\n      mload(0x40)\n      dup1\n      swap2\n      sub\n      swap1\n      keccak256\n      0xa44feca31ca2b9cda9b6dec473fbbc131c350db90a2f95915bcd051cdc5e10ba\n        /* \"contracts/Interface.sol\":4012:4023  _newContact */\n      dup3\n        /* \"contracts/Interface.sol\":4025:4029  true */\n      0x01\n        /* \"contracts/Interface.sol\":3983:4030  ContactUpdated(_userAddress, _newContact, true) */\n      mload(0x40)\n      tag_80\n      swap3\n      swap2\n      swap1\n      tag_81\n      jump\t// in\n    tag_80:\n      mload(0x40)\n      dup1\n      swap2\n      sub\n      swap1\n      log2\n        /* \"contracts/Interface.sol\":3805:4038  function updateContact(... */\n      pop\n      pop\n      jump\t// out\n        /* \"contracts/Interface.sol\":3077:3273  function updateEmail(string memory _userAddress, string memory _newEmail) public {... */\n    tag_26:\n        /* \"contracts/Interface.sol\":3197:3206  _newEmail */\n      dup1\n        /* \"contracts/Interface.sol\":3169:3174  users */\n      0x00\n        /* \"contracts/Interface.sol\":3175:3187  _userAddress */\n      dup4\n        /* \"contracts/Interface.sol\":3169:3188  users[_userAddress] */\n      mload(0x40)\n      tag_83\n      swap2\n      swap1\n      tag_76\n      jump\t// in\n    tag_83:\n      swap1\n      dup2\n      mstore\n      0x20\n      add\n      mload(0x40)\n      dup1\n      swap2\n      sub\n      swap1\n      keccak256\n        /* \"contracts/Interface.sol\":3169:3194  users[_userAddress].email */\n      0x01\n      add\n        /* \"contracts/Interface.sol\":3169:3206  users[_userAddress].email = _newEmail */\n      swap1\n      dup2\n      tag_84\n      swap2\n      swap1\n      tag_78\n      jump\t// in\n    tag_84:\n      pop\n        /* \"contracts/Interface.sol\":3235:3247  _userAddress */\n      dup2\n        /* \"contracts/Interface.sol\":3222:3265  EmailUpdated(_userAddress, _newEmail, true) */\n      mload(0x40)\n      tag_85\n      swap2\n      swap1\n      tag_76\n      jump\t// in\n    tag_85:\n      mload(0x40)\n      dup1\n      swap2\n      sub\n      swap1\n      keccak256\n      0xa76f1708714ecb5aed9ae4c006eafbf67941b726bb287f861c599f2286fdf778\n        /* \"contracts/Interface.sol\":3249:3258  _newEmail */\n      dup3\n        /* \"contracts/Interface.sol\":3260:3264  true */\n      0x01\n        /* \"contracts/Interface.sol\":3222:3265  EmailUpdated(_userAddress, _newEmail, true) */\n      mload(0x40)\n      tag_86\n      swap3\n      swap2\n      swap1\n      tag_81\n      jump\t// in\n    tag_86:\n      mload(0x40)\n      dup1\n      swap2\n      sub\n      swap1\n      log2\n        /* \"contracts/Interface.sol\":3077:3273  function updateEmail(string memory _userAddress, string memory _newEmail) public {... */\n      pop\n      pop\n      jump\t// out\n        /* \"contracts/Interface.sol\":1686:1978  function mapPrivateKeyToPublicKey(... */\n    tag_29:\n        /* \"contracts/Interface.sol\":1878:1879  0 */\n      0x00\n        /* \"contracts/Interface.sol\":1832:1853  privateKeyToPublicKey */\n      0x01\n        /* \"contracts/Interface.sol\":1854:1865  _privateKey */\n      dup4\n        /* \"contracts/Interface.sol\":1832:1866  privateKeyToPublicKey[_privateKey] */\n      mload(0x40)\n      tag_88\n      swap2\n      swap1\n      tag_76\n      jump\t// in\n    tag_88:\n      swap1\n      dup2\n      mstore\n      0x20\n      add\n      mload(0x40)\n      dup1\n      swap2\n      sub\n      swap1\n      keccak256\n        /* \"contracts/Interface.sol\":1826:1874  bytes(privateKeyToPublicKey[_privateKey]).length */\n      dup1\n      sload\n      tag_89\n      swap1\n      tag_90\n      jump\t// in\n    tag_89:\n      swap1\n      pop\n        /* \"contracts/Interface.sol\":1826:1879  bytes(privateKeyToPublicKey[_privateKey]).length == 0 */\n      eq\n        /* \"contracts/Interface.sol\":1818:1910  require(bytes(privateKeyToPublicKey[_privateKey]).length == 0, \"Private key already mapped\") */\n      tag_91\n      jumpi\n      mload(0x40)\n      0x08c379a000000000000000000000000000000000000000000000000000000000\n      dup2\n      mstore\n      0x04\n      add\n      tag_92\n      swap1\n      tag_93\n      jump\t// in\n    tag_92:\n      mload(0x40)\n      dup1\n      swap2\n      sub\n      swap1\n      revert\n    tag_91:\n        /* \"contracts/Interface.sol\":1958:1970  _userAddress */\n      dup1\n        /* \"contracts/Interface.sol\":1921:1942  privateKeyToPublicKey */\n      0x01\n        /* \"contracts/Interface.sol\":1943:1954  _privateKey */\n      dup4\n        /* \"contracts/Interface.sol\":1921:1955  privateKeyToPublicKey[_privateKey] */\n      mload(0x40)\n      tag_94\n      swap2\n      swap1\n      tag_76\n      jump\t// in\n    tag_94:\n      swap1\n      dup2\n      mstore\n      0x20\n      add\n      mload(0x40)\n      dup1\n      swap2\n      sub\n      swap1\n      keccak256\n        /* \"contracts/Interface.sol\":1921:1970  privateKeyToPublicKey[_privateKey] = _userAddress */\n      swap1\n      dup2\n      tag_95\n      swap2\n      swap1\n      tag_78\n      jump\t// in\n    tag_95:\n      pop\n        /* \"contracts/Interface.sol\":1686:1978  function mapPrivateKeyToPublicKey(... */\n      pop\n      pop\n      jump\t// out\n        /* \"contracts/Interface.sol\":873:1678  function createUser(... */\n    tag_33:\n        /* \"contracts/Interface.sol\":1204:1205  0 */\n      0x00\n        /* \"contracts/Interface.sol\":1161:1166  users */\n      dup1\n        /* \"contracts/Interface.sol\":1167:1179  _userAddress */\n      dup9\n        /* \"contracts/Interface.sol\":1161:1180  users[_userAddress] */\n      mload(0x40)\n      tag_97\n      swap2\n      swap1\n      tag_76\n      jump\t// in\n    tag_97:\n      swap1\n      dup2\n      mstore\n      0x20\n      add\n      mload(0x40)\n      dup1\n      swap2\n      sub\n      swap1\n      keccak256\n        /* \"contracts/Interface.sol\":1161:1192  users[_userAddress].userAddress */\n      0x00\n      add\n        /* \"contracts/Interface.sol\":1155:1200  bytes(users[_userAddress].userAddress).length */\n      dup1\n      sload\n      tag_98\n      swap1\n      tag_90\n      jump\t// in\n    tag_98:\n      swap1\n      pop\n        /* \"contracts/Interface.sol\":1155:1205  bytes(users[_userAddress].userAddress).length == 0 */\n      eq\n        /* \"contracts/Interface.sol\":1147:1229  require(bytes(users[_userAddress].userAddress).length == 0, \"User already exists\") */\n      tag_99\n      jumpi\n      mload(0x40)\n      0x08c379a000000000000000000000000000000000000000000000000000000000\n      dup2\n      mstore\n      0x04\n      add\n      tag_100\n      swap1\n      tag_101\n      jump\t// in\n    tag_100:\n      mload(0x40)\n      dup1\n      swap2\n      sub\n      swap1\n      revert\n    tag_99:\n        /* \"contracts/Interface.sol\":1300:1301  0 */\n      0x00\n        /* \"contracts/Interface.sol\":1254:1275  privateKeyToPublicKey */\n      0x01\n        /* \"contracts/Interface.sol\":1276:1287  _privateKey */\n      dup4\n        /* \"contracts/Interface.sol\":1254:1288  privateKeyToPublicKey[_privateKey] */\n      mload(0x40)\n      tag_102\n      swap2\n      swap1\n      tag_76\n      jump\t// in\n    tag_102:\n      swap1\n      dup2\n      mstore\n      0x20\n      add\n      mload(0x40)\n      dup1\n      swap2\n      sub\n      swap1\n      keccak256\n        /* \"contracts/Interface.sol\":1248:1296  bytes(privateKeyToPublicKey[_privateKey]).length */\n      dup1\n      sload\n      tag_103\n      swap1\n      tag_90\n      jump\t// in\n    tag_103:\n      swap1\n      pop\n        /* \"contracts/Interface.sol\":1248:1301  bytes(privateKeyToPublicKey[_privateKey]).length == 0 */\n      eq\n        /* \"contracts/Interface.sol\":1240:1332  require(bytes(privateKeyToPublicKey[_privateKey]).length == 0, \"Private key already in use\") */\n      tag_104\n      jumpi\n      mload(0x40)\n      0x08c379a000000000000000000000000000000000000000000000000000000000\n      dup2\n      mstore\n      0x04\n      add\n      tag_105\n      swap1\n      tag_106\n      jump\t// in\n    tag_105:\n      mload(0x40)\n      dup1\n      swap2\n      sub\n      swap1\n      revert\n    tag_104:\n        /* \"contracts/Interface.sol\":1345:1364  User memory newUser */\n      0x00\n        /* \"contracts/Interface.sol\":1367:1566  User({... */\n      mload(0x40)\n      dup1\n      0xc0\n      add\n      0x40\n      mstore\n      dup1\n        /* \"contracts/Interface.sol\":1400:1412  _userAddress */\n      dup10\n        /* \"contracts/Interface.sol\":1367:1566  User({... */\n      dup2\n      mstore\n      0x20\n      add\n        /* \"contracts/Interface.sol\":1434:1440  _email */\n      dup9\n        /* \"contracts/Interface.sol\":1367:1566  User({... */\n      dup2\n      mstore\n      0x20\n      add\n        /* \"contracts/Interface.sol\":1465:1474  _username */\n      dup8\n        /* \"contracts/Interface.sol\":1367:1566  User({... */\n      dup2\n      mstore\n      0x20\n      add\n        /* \"contracts/Interface.sol\":1498:1506  _contact */\n      dup7\n        /* \"contracts/Interface.sol\":1367:1566  User({... */\n      dup2\n      mstore\n      0x20\n      add\n        /* \"contracts/Interface.sol\":1526:1530  _dob */\n      dup6\n        /* \"contracts/Interface.sol\":1367:1566  User({... */\n      dup2\n      mstore\n      0x20\n      add\n        /* \"contracts/Interface.sol\":1550:1554  _cid */\n      dup4\n        /* \"contracts/Interface.sol\":1367:1566  User({... */\n      dup2\n      mstore\n      pop\n        /* \"contracts/Interface.sol\":1345:1566  User memory newUser = User({... */\n      swap1\n      pop\n        /* \"contracts/Interface.sol\":1601:1608  newUser */\n      dup1\n        /* \"contracts/Interface.sol\":1579:1584  users */\n      0x00\n        /* \"contracts/Interface.sol\":1585:1597  _userAddress */\n      dup10\n        /* \"contracts/Interface.sol\":1579:1598  users[_userAddress] */\n      mload(0x40)\n      tag_107\n      swap2\n      swap1\n      tag_76\n      jump\t// in\n    tag_107:\n      swap1\n      dup2\n      mstore\n      0x20\n      add\n      mload(0x40)\n      dup1\n      swap2\n      sub\n      swap1\n      keccak256\n        /* \"contracts/Interface.sol\":1579:1608  users[_userAddress] = newUser */\n      0x00\n      dup3\n      add\n      mload\n      dup2\n      0x00\n      add\n      swap1\n      dup2\n      tag_108\n      swap2\n      swap1\n      tag_78\n      jump\t// in\n    tag_108:\n      pop\n      0x20\n      dup3\n      add\n      mload\n      dup2\n      0x01\n      add\n      swap1\n      dup2\n      tag_109\n      swap2\n      swap1\n      tag_78\n      jump\t// in\n    tag_109:\n      pop\n      0x40\n      dup3\n      add\n      mload\n      dup2\n      0x02\n      add\n      swap1\n      dup2\n      tag_110\n      swap2\n      swap1\n      tag_78\n      jump\t// in\n    tag_110:\n      pop\n      0x60\n      dup3\n      add\n      mload\n      dup2\n      0x03\n      add\n      swap1\n      dup2\n      tag_111\n      swap2\n      swap1\n      tag_78\n      jump\t// in\n    tag_111:\n      pop\n      0x80\n      dup3\n      add\n      mload\n      dup2\n      0x04\n      add\n      swap1\n      dup2\n      tag_112\n      swap2\n      swap1\n      tag_78\n      jump\t// in\n    tag_112:\n      pop\n      0xa0\n      dup3\n      add\n      mload\n      dup2\n      0x05\n      add\n      swap1\n      dup2\n      tag_113\n      swap2\n      swap1\n      tag_78\n      jump\t// in\n    tag_113:\n      pop\n      swap1\n      pop\n      pop\n        /* \"contracts/Interface.sol\":1619:1670  mapPrivateKeyToPublicKey(_privateKey, _userAddress) */\n      tag_114\n        /* \"contracts/Interface.sol\":1644:1655  _privateKey */\n      dup4\n        /* \"contracts/Interface.sol\":1657:1669  _userAddress */\n      dup10\n        /* \"contracts/Interface.sol\":1619:1643  mapPrivateKeyToPublicKey */\n      tag_29\n        /* \"contracts/Interface.sol\":1619:1670  mapPrivateKeyToPublicKey(_privateKey, _userAddress) */\n      jump\t// in\n    tag_114:\n        /* \"contracts/Interface.sol\":1136:1678  {... */\n      pop\n        /* \"contracts/Interface.sol\":873:1678  function createUser(... */\n      pop\n      pop\n      pop\n      pop\n      pop\n      pop\n      pop\n      jump\t// out\n        /* \"contracts/Interface.sol\":309:345  mapping(string => User) public users */\n    tag_37:\n      0x00\n      dup2\n      dup1\n      mload\n      0x20\n      dup2\n      add\n      dup3\n      add\n      dup1\n      mload\n      dup5\n      dup3\n      mstore\n      0x20\n      dup4\n      add\n      0x20\n      dup6\n      add\n      keccak256\n      dup2\n      dup4\n      mstore\n      dup1\n      swap6\n      pop\n      pop\n      pop\n      pop\n      pop\n      pop\n      0x00\n      swap2\n      pop\n      swap1\n      pop\n      dup1\n      0x00\n      add\n      dup1\n      sload\n      tag_115\n      swap1\n      tag_90\n      jump\t// in\n    tag_115:\n      dup1\n      0x1f\n      add\n      0x20\n      dup1\n      swap2\n      div\n      mul\n      0x20\n      add\n      mload(0x40)\n      swap1\n      dup2\n      add\n      0x40\n      mstore\n      dup1\n      swap3\n      swap2\n      swap1\n      dup2\n      dup2\n      mstore\n      0x20\n      add\n      dup3\n      dup1\n      sload\n      tag_116\n      swap1\n      tag_90\n      jump\t// in\n    tag_116:\n      dup1\n      iszero\n      tag_117\n      jumpi\n      dup1\n      0x1f\n      lt\n      tag_118\n      jumpi\n      0x0100\n      dup1\n      dup4\n      sload\n      div\n      mul\n      dup4\n      mstore\n      swap2\n      0x20\n      add\n      swap2\n      jump(tag_117)\n    tag_118:\n      dup3\n      add\n      swap2\n      swap1\n      0x00\n      mstore\n      keccak256(0x00, 0x20)\n      swap1\n    tag_119:\n      dup2\n      sload\n      dup2\n      mstore\n      swap1\n      0x01\n      add\n      swap1\n      0x20\n      add\n      dup1\n      dup4\n      gt\n      tag_119\n      jumpi\n      dup3\n      swap1\n      sub\n      0x1f\n      and\n      dup3\n      add\n      swap2\n    tag_117:\n      pop\n      pop\n      pop\n      pop\n      pop\n      swap1\n      dup1\n      0x01\n      add\n      dup1\n      sload\n      tag_120\n      swap1\n      tag_90\n      jump\t// in\n    tag_120:\n      dup1\n      0x1f\n      add\n      0x20\n      dup1\n      swap2\n      div\n      mul\n      0x20\n      add\n      mload(0x40)\n      swap1\n      dup2\n      add\n      0x40\n      mstore\n      dup1\n      swap3\n      swap2\n      swap1\n      dup2\n      dup2\n      mstore\n      0x20\n      add\n      dup3\n      dup1\n      sload\n      tag_121\n      swap1\n      tag_90\n      jump\t// in\n    tag_121:\n      dup1\n      iszero\n      tag_122\n      jumpi\n      dup1\n      0x1f\n      lt\n      tag_123\n      jumpi\n      0x0100\n      dup1\n      dup4\n      sload\n      div\n      mul\n      dup4\n      mstore\n      swap2\n      0x20\n      add\n      swap2\n      jump(tag_122)\n    tag_123:\n      dup3\n      add\n      swap2\n      swap1\n      0x00\n      mstore\n      keccak256(0x00, 0x20)\n      swap1\n    tag_124:\n      dup2\n      sload\n      dup2\n      mstore\n      swap1\n      0x01\n      add\n      swap1\n      0x20\n      add\n      dup1\n      dup4\n      gt\n      tag_124\n      jumpi\n      dup3\n      swap1\n      sub\n      0x1f\n      and\n      dup3\n      add\n      swap2\n    tag_122:\n      pop\n      pop\n      pop\n      pop\n      pop\n      swap1\n      dup1\n      0x02\n      add\n      dup1\n      sload\n      tag_125\n      swap1\n      tag_90\n      jump\t// in\n    tag_125:\n      dup1\n      0x1f\n      add\n      0x20\n      dup1\n      swap2\n      div\n      mul\n      0x20\n      add\n      mload(0x40)\n      swap1\n      dup2\n      add\n      0x40\n      mstore\n      dup1\n      swap3\n      swap2\n      swap1\n      dup2\n      dup2\n      mstore\n      0x20\n      add\n      dup3\n      dup1\n      sload\n      tag_126\n      swap1\n      tag_90\n      jump\t// in\n    tag_126:\n      dup1\n      iszero\n      tag_127\n      jumpi\n      dup1\n      0x1f\n      lt\n      tag_128\n      jumpi\n      0x0100\n      dup1\n      dup4\n      sload\n      div\n      mul\n      dup4\n      mstore\n      swap2\n      0x20\n      add\n      swap2\n      jump(tag_127)\n    tag_128:\n      dup3\n      add\n      swap2\n      swap1\n      0x00\n      mstore\n      keccak256(0x00, 0x20)\n      swap1\n    tag_129:\n      dup2\n      sload\n      dup2\n      mstore\n      swap1\n      0x01\n      add\n      swap1\n      0x20\n      add\n      dup1\n      dup4\n      gt\n      tag_129\n      jumpi\n      dup3\n      swap1\n      sub\n      0x1f\n      and\n      dup3\n      add\n      swap2\n    tag_127:\n      pop\n      pop\n      pop\n      pop\n      pop\n      swap1\n      dup1\n      0x03\n      add\n      dup1\n      sload\n      tag_130\n      swap1\n      tag_90\n      jump\t// in\n    tag_130:\n      dup1\n      0x1f\n      add\n      0x20\n      dup1\n      swap2\n      div\n      mul\n      0x20\n      add\n      mload(0x40)\n      swap1\n      dup2\n      add\n      0x40\n      mstore\n      dup1\n      swap3\n      swap2\n      swap1\n      dup2\n      dup2\n      mstore\n      0x20\n      add\n      dup3\n      dup1\n      sload\n      tag_131\n      swap1\n      tag_90\n      jump\t// in\n    tag_131:\n      dup1\n      iszero\n      tag_132\n      jumpi\n      dup1\n      0x1f\n      lt\n      tag_133\n      jumpi\n      0x0100\n      dup1\n      dup4\n      sload\n      div\n      mul\n      dup4\n      mstore\n      swap2\n      0x20\n      add\n      swap2\n      jump(tag_132)\n    tag_133:\n      dup3\n      add\n      swap2\n      swap1\n      0x00\n      mstore\n      keccak256(0x00, 0x20)\n      swap1\n    tag_134:\n      dup2\n      sload\n      dup2\n      mstore\n      swap1\n      0x01\n      add\n      swap1\n      0x20\n      add\n      dup1\n      dup4\n      gt\n      tag_134\n      jumpi\n      dup3\n      swap1\n      sub\n      0x1f\n      and\n      dup3\n      add\n      swap2\n    tag_132:\n      pop\n      pop\n      pop\n      pop\n      pop\n      swap1\n      dup1\n      0x04\n      add\n      dup1\n      sload\n      tag_135\n      swap1\n      tag_90\n      jump\t// in\n    tag_135:\n      dup1\n      0x1f\n      add\n      0x20\n      dup1\n      swap2\n      div\n      mul\n      0x20\n      add\n      mload(0x40)\n      swap1\n      dup2\n      add\n      0x40\n      mstore\n      dup1\n      swap3\n      swap2\n      swap1\n      dup2\n      dup2\n      mstore\n      0x20\n      add\n      dup3\n      dup1\n      sload\n      tag_136\n      swap1\n      tag_90\n      jump\t// in\n    tag_136:\n      dup1\n      iszero\n      tag_137\n      jumpi\n      dup1\n      0x1f\n      lt\n      tag_138\n      jumpi\n      0x0100\n      dup1\n      dup4\n      sload\n      div\n      mul\n      dup4\n      mstore\n      swap2\n      0x20\n      add\n      swap2\n      jump(tag_137)\n    tag_138:\n      dup3\n      add\n      swap2\n      swap1\n      0x00\n      mstore\n      keccak256(0x00, 0x20)\n      swap1\n    tag_139:\n      dup2\n      sload\n      dup2\n      mstore\n      swap1\n      0x01\n      add\n      swap1\n      0x20\n      add\n      dup1\n      dup4\n      gt\n      tag_139\n      jumpi\n      dup3\n      swap1\n      sub\n      0x1f\n      and\n      dup3\n      add\n      swap2\n    tag_137:\n      pop\n      pop\n      pop\n      pop\n      pop\n      swap1\n      dup1\n      0x05\n      add\n      dup1\n      sload\n      tag_140\n      swap1\n      tag_90\n      jump\t// in\n    tag_140:\n      dup1\n      0x1f\n      add\n      0x20\n      dup1\n      swap2\n      div\n      mul\n      0x20\n      add\n      mload(0x40)\n      swap1\n      dup2\n      add\n      0x40\n      mstore\n      dup1\n      swap3\n      swap2\n      swap1\n      dup2\n      dup2\n      mstore\n      0x20\n      add\n      dup3\n      dup1\n      sload\n      tag_141\n      swap1\n      tag_90\n      jump\t// in\n    tag_141:\n      dup1\n      iszero\n      tag_142\n      jumpi\n      dup1\n      0x1f\n      lt\n      tag_143\n      jumpi\n      0x0100\n      dup1\n      dup4\n      sload\n      div\n      mul\n      dup4\n      mstore\n      swap2\n      0x20\n      add\n      swap2\n      jump(tag_142)\n    tag_143:\n      dup3\n      add\n      swap2\n      swap1\n      0x00\n      mstore\n      keccak256(0x00, 0x20)\n      swap1\n    tag_144:\n      dup2\n      sload\n      dup2\n      mstore\n      swap1\n      0x01\n      add\n      swap1\n      0x20\n      add\n      dup1\n      dup4\n      gt\n      tag_144\n      jumpi\n      dup3\n      swap1\n      sub\n      0x1f\n      and\n      dup3\n      add\n      swap2\n    tag_142:\n      pop\n      pop\n      pop\n      pop\n      pop\n      swap1\n      pop\n      dup7\n      jump\t// out\n        /* \"contracts/Interface.sol\":2158:2397  function updateUsername(... */\n    tag_42:\n        /* \"contracts/Interface.sol\":2312:2324  _newUsername */\n      dup1\n        /* \"contracts/Interface.sol\":2281:2286  users */\n      0x00\n        /* \"contracts/Interface.sol\":2287:2299  _userAddress */\n      dup4\n        /* \"contracts/Interface.sol\":2281:2300  users[_userAddress] */\n      mload(0x40)\n      tag_146\n      swap2\n      swap1\n      tag_76\n      jump\t// in\n    tag_146:\n      swap1\n      dup2\n      mstore\n      0x20\n      add\n      mload(0x40)\n      dup1\n      swap2\n      sub\n      swap1\n      keccak256\n        /* \"contracts/Interface.sol\":2281:2309  users[_userAddress].username */\n      0x02\n      add\n        /* \"contracts/Interface.sol\":2281:2324  users[_userAddress].username = _newUsername */\n      swap1\n      dup2\n      tag_147\n      swap2\n      swap1\n      tag_78\n      jump\t// in\n    tag_147:\n      pop\n        /* \"contracts/Interface.sol\":2356:2368  _userAddress */\n      dup2\n        /* \"contracts/Interface.sol\":2340:2389  UsernameUpdated(_userAddress, _newUsername, true) */\n      mload(0x40)\n      tag_148\n      swap2\n      swap1\n      tag_76\n      jump\t// in\n    tag_148:\n      mload(0x40)\n      dup1\n      swap2\n      sub\n      swap1\n      keccak256\n      0x480bdec02bf73c6c075a8db62d725863401ec6d719a3ff0c25b87ac13569c5f2\n        /* \"contracts/Interface.sol\":2370:2382  _newUsername */\n      dup3\n        /* \"contracts/Interface.sol\":2384:2388  true */\n      0x01\n        /* \"contracts/Interface.sol\":2340:2389  UsernameUpdated(_userAddress, _newUsername, true) */\n      mload(0x40)\n      tag_149\n      swap3\n      swap2\n      swap1\n      tag_81\n      jump\t// in\n    tag_149:\n      mload(0x40)\n      dup1\n      swap2\n      sub\n      swap1\n      log2\n        /* \"contracts/Interface.sol\":2158:2397  function updateUsername(... */\n      pop\n      pop\n      jump\t// out\n        /* \"contracts/Interface.sol\":2911:3069  function getEmailByAddress(... */\n    tag_45:\n        /* \"contracts/Interface.sol\":3003:3016  string memory */\n      0x60\n        /* \"contracts/Interface.sol\":3036:3041  users */\n      0x00\n        /* \"contracts/Interface.sol\":3042:3054  _userAddress */\n      dup3\n        /* \"contracts/Interface.sol\":3036:3055  users[_userAddress] */\n      mload(0x40)\n      tag_151\n      swap2\n      swap1\n      tag_76\n      jump\t// in\n    tag_151:\n      swap1\n      dup2\n      mstore\n      0x20\n      add\n      mload(0x40)\n      dup1\n      swap2\n      sub\n      swap1\n      keccak256\n        /* \"contracts/Interface.sol\":3036:3061  users[_userAddress].email */\n      0x01\n      add\n        /* \"contracts/Interface.sol\":3029:3061  return users[_userAddress].email */\n      dup1\n      sload\n      tag_152\n      swap1\n      tag_90\n      jump\t// in\n    tag_152:\n      dup1\n      0x1f\n      add\n      0x20\n      dup1\n      swap2\n      div\n      mul\n      0x20\n      add\n      mload(0x40)\n      swap1\n      dup2\n      add\n      0x40\n      mstore\n      dup1\n      swap3\n      swap2\n      swap1\n      dup2\n      dup2\n      mstore\n      0x20\n      add\n      dup3\n      dup1\n      sload\n      tag_153\n      swap1\n      tag_90\n      jump\t// in\n    tag_153:\n      dup1\n      iszero\n      tag_154\n      jumpi\n      dup1\n      0x1f\n      lt\n      tag_155\n      jumpi\n      0x0100\n      dup1\n      dup4\n      sload\n      div\n      mul\n      dup4\n      mstore\n      swap2\n      0x20\n      add\n      swap2\n      jump(tag_154)\n    tag_155:\n      dup3\n      add\n      swap2\n      swap1\n      0x00\n      mstore\n      keccak256(0x00, 0x20)\n      swap1\n    tag_156:\n      dup2\n      sload\n      dup2\n      mstore\n      swap1\n      0x01\n      add\n      swap1\n      0x20\n      add\n      dup1\n      dup4\n      gt\n      tag_156\n      jumpi\n      dup3\n      swap1\n      sub\n      0x1f\n      and\n      dup3\n      add\n      swap2\n    tag_154:\n      pop\n      pop\n      pop\n      pop\n      pop\n      swap1\n      pop\n        /* \"contracts/Interface.sol\":2911:3069  function getEmailByAddress(... */\n      swap2\n      swap1\n      pop\n      jump\t// out\n        /* \"contracts/Interface.sol\":2644:2903  function updateCid(string memory _userAddress, string memory _newCid) public {... */\n    tag_50:\n        /* \"contracts/Interface.sol\":2758:2765  _newCid */\n      dup1\n        /* \"contracts/Interface.sol\":2732:2737  users */\n      0x00\n        /* \"contracts/Interface.sol\":2738:2750  _userAddress */\n      dup4\n        /* \"contracts/Interface.sol\":2732:2751  users[_userAddress] */\n      mload(0x40)\n      tag_158\n      swap2\n      swap1\n      tag_76\n      jump\t// in\n    tag_158:\n      swap1\n      dup2\n      mstore\n      0x20\n      add\n      mload(0x40)\n      dup1\n      swap2\n      sub\n      swap1\n      keccak256\n        /* \"contracts/Interface.sol\":2732:2755  users[_userAddress].cid */\n      0x05\n      add\n        /* \"contracts/Interface.sol\":2732:2765  users[_userAddress].cid = _newCid */\n      swap1\n      dup2\n      tag_159\n      swap2\n      swap1\n      tag_78\n      jump\t// in\n    tag_159:\n      pop\n        /* \"contracts/Interface.sol\":2867:2879  _userAddress */\n      dup2\n        /* \"contracts/Interface.sol\":2856:2895  CidUpdated(_userAddress, _newCid, true) */\n      mload(0x40)\n      tag_160\n      swap2\n      swap1\n      tag_76\n      jump\t// in\n    tag_160:\n      mload(0x40)\n      dup1\n      swap2\n      sub\n      swap1\n      keccak256\n      0x7bf8298c7d1e9fcf619723b05ebea1ce9c8496011bff291ae354a59b120374ba\n        /* \"contracts/Interface.sol\":2881:2888  _newCid */\n      dup3\n        /* \"contracts/Interface.sol\":2890:2894  true */\n      0x01\n        /* \"contracts/Interface.sol\":2856:2895  CidUpdated(_userAddress, _newCid, true) */\n      mload(0x40)\n      tag_161\n      swap3\n      swap2\n      swap1\n      tag_81\n      jump\t// in\n    tag_161:\n      mload(0x40)\n      dup1\n      swap2\n      sub\n      swap1\n      log2\n        /* \"contracts/Interface.sol\":2644:2903  function updateCid(string memory _userAddress, string memory _newCid) public {... */\n      pop\n      pop\n      jump\t// out\n        /* \"contracts/Interface.sol\":3281:3435  function getDOBByAddress(... */\n    tag_53:\n        /* \"contracts/Interface.sol\":3371:3384  string memory */\n      0x60\n        /* \"contracts/Interface.sol\":3404:3409  users */\n      0x00\n        /* \"contracts/Interface.sol\":3410:3422  _userAddress */\n      dup3\n        /* \"contracts/Interface.sol\":3404:3423  users[_userAddress] */\n      mload(0x40)\n      tag_163\n      swap2\n      swap1\n      tag_76\n      jump\t// in\n    tag_163:\n      swap1\n      dup2\n      mstore\n      0x20\n      add\n      mload(0x40)\n      dup1\n      swap2\n      sub\n      swap1\n      keccak256\n        /* \"contracts/Interface.sol\":3404:3427  users[_userAddress].dob */\n      0x04\n      add\n        /* \"contracts/Interface.sol\":3397:3427  return users[_userAddress].dob */\n      dup1\n      sload\n      tag_164\n      swap1\n      tag_90\n      jump\t// in\n    tag_164:\n      dup1\n      0x1f\n      add\n      0x20\n      dup1\n      swap2\n      div\n      mul\n      0x20\n      add\n      mload(0x40)\n      swap1\n      dup2\n      add\n      0x40\n      mstore\n      dup1\n      swap3\n      swap2\n      swap1\n      dup2\n      dup2\n      mstore\n      0x20\n      add\n      dup3\n      dup1\n      sload\n      tag_165\n      swap1\n      tag_90\n      jump\t// in\n    tag_165:\n      dup1\n      iszero\n      tag_166\n      jumpi\n      dup1\n      0x1f\n      lt\n      tag_167\n      jumpi\n      0x0100\n      dup1\n      dup4\n      sload\n      div\n      mul\n      dup4\n      mstore\n      swap2\n      0x20\n      add\n      swap2\n      jump(tag_166)\n    tag_167:\n      dup3\n      add\n      swap2\n      swap1\n      0x00\n      mstore\n      keccak256(0x00, 0x20)\n      swap1\n    tag_168:\n      dup2\n      sload\n      dup2\n      mstore\n      swap1\n      0x01\n      add\n      swap1\n      0x20\n      add\n      dup1\n      dup4\n      gt\n      tag_168\n      jumpi\n      dup3\n      swap1\n      sub\n      0x1f\n      and\n      dup3\n      add\n      swap2\n    tag_166:\n      pop\n      pop\n      pop\n      pop\n      pop\n      swap1\n      pop\n        /* \"contracts/Interface.sol\":3281:3435  function getDOBByAddress(... */\n      swap2\n      swap1\n      pop\n      jump\t// out\n        /* \"contracts/Interface.sol\":388:442  mapping(string => string) public privateKeyToPublicKey */\n    tag_57:\n      0x01\n      dup2\n      dup1\n      mload\n      0x20\n      dup2\n      add\n      dup3\n      add\n      dup1\n      mload\n      dup5\n      dup3\n      mstore\n      0x20\n      dup4\n      add\n      0x20\n      dup6\n      add\n      keccak256\n      dup2\n      dup4\n      mstore\n      dup1\n      swap6\n      pop\n      pop\n      pop\n      pop\n      pop\n      pop\n      0x00\n      swap2\n      pop\n      swap1\n      pop\n      dup1\n      sload\n      tag_169\n      swap1\n      tag_90\n      jump\t// in\n    tag_169:\n      dup1\n      0x1f\n      add\n      0x20\n      dup1\n      swap2\n      div\n      mul\n      0x20\n      add\n      mload(0x40)\n      swap1\n      dup2\n      add\n      0x40\n      mstore\n      dup1\n      swap3\n      swap2\n      swap1\n      dup2\n      dup2\n      mstore\n      0x20\n      add\n      dup3\n      dup1\n      sload\n      tag_170\n      swap1\n      tag_90\n      jump\t// in\n    tag_170:\n      dup1\n      iszero\n      tag_171\n      jumpi\n      dup1\n      0x1f\n      lt\n      tag_172\n      jumpi\n      0x0100\n      dup1\n      dup4\n      sload\n      div\n      mul\n      dup4\n      mstore\n      swap2\n      0x20\n      add\n      swap2\n      jump(tag_171)\n    tag_172:\n      dup3\n      add\n      swap2\n      swap1\n      0x00\n      mstore\n      keccak256(0x00, 0x20)\n      swap1\n    tag_173:\n      dup2\n      sload\n      dup2\n      mstore\n      swap1\n      0x01\n      add\n      swap1\n      0x20\n      add\n      dup1\n      dup4\n      gt\n      tag_173\n      jumpi\n      dup3\n      swap1\n      sub\n      0x1f\n      and\n      dup3\n      add\n      swap2\n    tag_171:\n      pop\n      pop\n      pop\n      pop\n      pop\n      dup2\n      jump\t// out\n        /* \"contracts/Interface.sol\":2438:2576  function getCidByAddress(string memory _userAddress) public view returns (string memory) {... */\n    tag_61:\n        /* \"contracts/Interface.sol\":2512:2525  string memory */\n      0x60\n        /* \"contracts/Interface.sol\":2545:2550  users */\n      0x00\n        /* \"contracts/Interface.sol\":2551:2563  _userAddress */\n      dup3\n        /* \"contracts/Interface.sol\":2545:2564  users[_userAddress] */\n      mload(0x40)\n      tag_175\n      swap2\n      swap1\n      tag_76\n      jump\t// in\n    tag_175:\n      swap1\n      dup2\n      mstore\n      0x20\n      add\n      mload(0x40)\n      dup1\n      swap2\n      sub\n      swap1\n      keccak256\n        /* \"contracts/Interface.sol\":2545:2568  users[_userAddress].cid */\n      0x05\n      add\n        /* \"contracts/Interface.sol\":2538:2568  return users[_userAddress].cid */\n      dup1\n      sload\n      tag_176\n      swap1\n      tag_90\n      jump\t// in\n    tag_176:\n      dup1\n      0x1f\n      add\n      0x20\n      dup1\n      swap2\n      div\n      mul\n      0x20\n      add\n      mload(0x40)\n      swap1\n      dup2\n      add\n      0x40\n      mstore\n      dup1\n      swap3\n      swap2\n      swap1\n      dup2\n      dup2\n      mstore\n      0x20\n      add\n      dup3\n      dup1\n      sload\n      tag_177\n      swap1\n      tag_90\n      jump\t// in\n    tag_177:\n      dup1\n      iszero\n      tag_178\n      jumpi\n      dup1\n      0x1f\n      lt\n      tag_179\n      jumpi\n      0x0100\n      dup1\n      dup4\n      sload\n      div\n      mul\n      dup4\n      mstore\n      swap2\n      0x20\n      add\n      swap2\n      jump(tag_178)\n    tag_179:\n      dup3\n      add\n      swap2\n      swap1\n      0x00\n      mstore\n      keccak256(0x00, 0x20)\n      swap1\n    tag_180:\n      dup2\n      sload\n      dup2\n      mstore\n      swap1\n      0x01\n      add\n      swap1\n      0x20\n      add\n      dup1\n      dup4\n      gt\n      tag_180\n      jumpi\n      dup3\n      swap1\n      sub\n      0x1f\n      and\n      dup3\n      add\n      swap2\n    tag_178:\n      pop\n      pop\n      pop\n      pop\n      pop\n      swap1\n      pop\n        /* \"contracts/Interface.sol\":2438:2576  function getCidByAddress(string memory _userAddress) public view returns (string memory) {... */\n      swap2\n      swap1\n      pop\n      jump\t// out\n        /* \"contracts/Interface.sol\":3635:3797  function getContactByAddress(... */\n    tag_65:\n        /* \"contracts/Interface.sol\":3729:3742  string memory */\n      0x60\n        /* \"contracts/Interface.sol\":3762:3767  users */\n      0x00\n        /* \"contracts/Interface.sol\":3768:3780  _userAddress */\n      dup3\n        /* \"contracts/Interface.sol\":3762:3781  users[_userAddress] */\n      mload(0x40)\n      tag_182\n      swap2\n      swap1\n      tag_76\n      jump\t// in\n    tag_182:\n      swap1\n      dup2\n      mstore\n      0x20\n      add\n      mload(0x40)\n      dup1\n      swap2\n      sub\n      swap1\n      keccak256\n        /* \"contracts/Interface.sol\":3762:3789  users[_userAddress].contact */\n      0x03\n      add\n        /* \"contracts/Interface.sol\":3755:3789  return users[_userAddress].contact */\n      dup1\n      sload\n      tag_183\n      swap1\n      tag_90\n      jump\t// in\n    tag_183:\n      dup1\n      0x1f\n      add\n      0x20\n      dup1\n      swap2\n      div\n      mul\n      0x20\n      add\n      mload(0x40)\n      swap1\n      dup2\n      add\n      0x40\n      mstore\n      dup1\n      swap3\n      swap2\n      swap1\n      dup2\n      dup2\n      mstore\n      0x20\n      add\n      dup3\n      dup1\n      sload\n      tag_184\n      swap1\n      tag_90\n      jump\t// in\n    tag_184:\n      dup1\n      iszero\n      tag_185\n      jumpi\n      dup1\n      0x1f\n      lt\n      tag_186\n      jumpi\n      0x0100\n      dup1\n      dup4\n      sload\n      div\n      mul\n      dup4\n      mstore\n      swap2\n      0x20\n      add\n      swap2\n      jump(tag_185)\n    tag_186:\n      dup3\n      add\n      swap2\n      swap1\n      0x00\n      mstore\n      keccak256(0x00, 0x20)\n      swap1\n    tag_187:\n      dup2\n      sload\n      dup2\n      mstore\n      swap1\n      0x01\n      add\n      swap1\n      0x20\n      add\n      dup1\n      dup4\n      gt\n      tag_187\n      jumpi\n      dup3\n      swap1\n      sub\n      0x1f\n      and\n      dup3\n      add\n      swap2\n    tag_185:\n      pop\n      pop\n      pop\n      pop\n      pop\n      swap1\n      pop\n        /* \"contracts/Interface.sol\":3635:3797  function getContactByAddress(... */\n      swap2\n      swap1\n      pop\n      jump\t// out\n        /* \"contracts/Interface.sol\":3443:3627  function updateDOB(string memory _userAddress, string memory _newDOB) public {... */\n    tag_69:\n        /* \"contracts/Interface.sol\":3557:3564  _newDOB */\n      dup1\n        /* \"contracts/Interface.sol\":3531:3536  users */\n      0x00\n        /* \"contracts/Interface.sol\":3537:3549  _userAddress */\n      dup4\n        /* \"contracts/Interface.sol\":3531:3550  users[_userAddress] */\n      mload(0x40)\n      tag_189\n      swap2\n      swap1\n      tag_76\n      jump\t// in\n    tag_189:\n      swap1\n      dup2\n      mstore\n      0x20\n      add\n      mload(0x40)\n      dup1\n      swap2\n      sub\n      swap1\n      keccak256\n        /* \"contracts/Interface.sol\":3531:3554  users[_userAddress].dob */\n      0x04\n      add\n        /* \"contracts/Interface.sol\":3531:3564  users[_userAddress].dob = _newDOB */\n      swap1\n      dup2\n      tag_190\n      swap2\n      swap1\n      tag_78\n      jump\t// in\n    tag_190:\n      pop\n        /* \"contracts/Interface.sol\":3591:3603  _userAddress */\n      dup2\n        /* \"contracts/Interface.sol\":3580:3619  DOBUpdated(_userAddress, _newDOB, true) */\n      mload(0x40)\n      tag_191\n      swap2\n      swap1\n      tag_76\n      jump\t// in\n    tag_191:\n      mload(0x40)\n      dup1\n      swap2\n      sub\n      swap1\n      keccak256\n      0xae584fab5e8f7cfd659e7b4c2d09184ef8d88c791a136a070039ae4c135b8ec7\n        /* \"contracts/Interface.sol\":3605:3612  _newDOB */\n      dup3\n        /* \"contracts/Interface.sol\":3614:3618  true */\n      0x01\n        /* \"contracts/Interface.sol\":3580:3619  DOBUpdated(_userAddress, _newDOB, true) */\n      mload(0x40)\n      tag_192\n      swap3\n      swap2\n      swap1\n      tag_81\n      jump\t// in\n    tag_192:\n      mload(0x40)\n      dup1\n      swap2\n      sub\n      swap1\n      log2\n        /* \"contracts/Interface.sol\":3443:3627  function updateDOB(string memory _userAddress, string memory _newDOB) public {... */\n      pop\n      pop\n      jump\t// out\n        /* \"contracts/Interface.sol\":1986:2150  function getUsernameByAddress(... */\n    tag_72:\n        /* \"contracts/Interface.sol\":2081:2094  string memory */\n      0x60\n        /* \"contracts/Interface.sol\":2114:2119  users */\n      0x00\n        /* \"contracts/Interface.sol\":2120:2132  _userAddress */\n      dup3\n        /* \"contracts/Interface.sol\":2114:2133  users[_userAddress] */\n      mload(0x40)\n      tag_194\n      swap2\n      swap1\n      tag_76\n      jump\t// in\n    tag_194:\n      swap1\n      dup2\n      mstore\n      0x20\n      add\n      mload(0x40)\n      dup1\n      swap2\n      sub\n      swap1\n      keccak256\n        /* \"contracts/Interface.sol\":2114:2142  users[_userAddress].username */\n      0x02\n      add\n        /* \"contracts/Interface.sol\":2107:2142  return users[_userAddress].username */\n      dup1\n      sload\n      tag_195\n      swap1\n      tag_90\n      jump\t// in\n    tag_195:\n      dup1\n      0x1f\n      add\n      0x20\n      dup1\n      swap2\n      div\n      mul\n      0x20\n      add\n      mload(0x40)\n      swap1\n      dup2\n      add\n      0x40\n      mstore\n      dup1\n      swap3\n      swap2\n      swap1\n      dup2\n      dup2\n      mstore\n      0x20\n      add\n      dup3\n      dup1\n      sload\n      tag_196\n      swap1\n      tag_90\n      jump\t// in\n    tag_196:\n      dup1\n      iszero\n      tag_197\n      jumpi\n      dup1\n      0x1f\n      lt\n      tag_198\n      jumpi\n      0x0100\n      dup1\n      dup4\n      sload\n      div\n      mul\n      dup4\n      mstore\n      swap2\n      0x20\n      add\n      swap2\n      jump(tag_197)\n    tag_198:\n      dup3\n      add\n      swap2\n      swap1\n      0x00\n      mstore\n      keccak256(0x00, 0x20)\n      swap1\n    tag_199:\n      dup2\n      sload\n      dup2\n      mstore\n      swap1\n      0x01\n      add\n      swap1\n      0x20\n      add\n      dup1\n      dup4\n      gt\n      tag_199\n      jumpi\n      dup3\n      swap1\n      sub\n      0x1f\n      and\n      dup3\n      add\n      swap2\n    tag_197:\n      pop\n      pop\n      pop\n      pop\n      pop\n      swap1\n      pop\n        /* \"contracts/Interface.sol\":1986:2150  function getUsernameByAddress(... */\n      swap2\n      swap1\n      pop\n      jump\t// out\n        /* \"#utility.yul\":7:82   */\n    tag_200:\n        /* \"#utility.yul\":40:46   */\n      0x00\n        /* \"#utility.yul\":73:75   */\n      0x40\n        /* \"#utility.yul\":67:76   */\n      mload\n        /* \"#utility.yul\":57:76   */\n      swap1\n      pop\n        /* \"#utility.yul\":7:82   */\n      swap1\n      jump\t// out\n        /* \"#utility.yul\":88:205   */\n    tag_201:\n        /* \"#utility.yul\":197:198   */\n      0x00\n        /* \"#utility.yul\":194:195   */\n      dup1\n        /* \"#utility.yul\":187:199   */\n      revert\n        /* \"#utility.yul\":211:328   */\n    tag_202:\n        /* \"#utility.yul\":320:321   */\n      0x00\n        /* \"#utility.yul\":317:318   */\n      dup1\n        /* \"#utility.yul\":310:322   */\n      revert\n        /* \"#utility.yul\":334:451   */\n    tag_203:\n        /* \"#utility.yul\":443:444   */\n      0x00\n        /* \"#utility.yul\":440:441   */\n      dup1\n        /* \"#utility.yul\":433:445   */\n      revert\n        /* \"#utility.yul\":457:574   */\n    tag_204:\n        /* \"#utility.yul\":566:567   */\n      0x00\n        /* \"#utility.yul\":563:564   */\n      dup1\n        /* \"#utility.yul\":556:568   */\n      revert\n        /* \"#utility.yul\":580:682   */\n    tag_205:\n        /* \"#utility.yul\":621:627   */\n      0x00\n        /* \"#utility.yul\":672:674   */\n      0x1f\n        /* \"#utility.yul\":668:675   */\n      not\n        /* \"#utility.yul\":663:665   */\n      0x1f\n        /* \"#utility.yul\":656:661   */\n      dup4\n        /* \"#utility.yul\":652:666   */\n      add\n        /* \"#utility.yul\":648:676   */\n      and\n        /* \"#utility.yul\":638:676   */\n      swap1\n      pop\n        /* \"#utility.yul\":580:682   */\n      swap2\n      swap1\n      pop\n      jump\t// out\n        /* \"#utility.yul\":688:868   */\n    tag_206:\n        /* \"#utility.yul\":736:813   */\n      0x4e487b7100000000000000000000000000000000000000000000000000000000\n        /* \"#utility.yul\":733:734   */\n      0x00\n        /* \"#utility.yul\":726:814   */\n      mstore\n        /* \"#utility.yul\":833:837   */\n      0x41\n        /* \"#utility.yul\":830:831   */\n      0x04\n        /* \"#utility.yul\":823:838   */\n      mstore\n        /* \"#utility.yul\":857:861   */\n      0x24\n        /* \"#utility.yul\":854:855   */\n      0x00\n        /* \"#utility.yul\":847:862   */\n      revert\n        /* \"#utility.yul\":874:1155   */\n    tag_207:\n        /* \"#utility.yul\":957:984   */\n      tag_253\n        /* \"#utility.yul\":979:983   */\n      dup3\n        /* \"#utility.yul\":957:984   */\n      tag_205\n      jump\t// in\n    tag_253:\n        /* \"#utility.yul\":949:955   */\n      dup2\n        /* \"#utility.yul\":945:985   */\n      add\n        /* \"#utility.yul\":1087:1093   */\n      dup2\n        /* \"#utility.yul\":1075:1085   */\n      dup2\n        /* \"#utility.yul\":1072:1094   */\n      lt\n        /* \"#utility.yul\":1051:1069   */\n      0xffffffffffffffff\n        /* \"#utility.yul\":1039:1049   */\n      dup3\n        /* \"#utility.yul\":1036:1070   */\n      gt\n        /* \"#utility.yul\":1033:1095   */\n      or\n        /* \"#utility.yul\":1030:1118   */\n      iszero\n      tag_254\n      jumpi\n        /* \"#utility.yul\":1098:1116   */\n      tag_255\n      tag_206\n      jump\t// in\n    tag_255:\n        /* \"#utility.yul\":1030:1118   */\n    tag_254:\n        /* \"#utility.yul\":1138:1148   */\n      dup1\n        /* \"#utility.yul\":1134:1136   */\n      0x40\n        /* \"#utility.yul\":1127:1149   */\n      mstore\n        /* \"#utility.yul\":917:1155   */\n      pop\n        /* \"#utility.yul\":874:1155   */\n      pop\n      pop\n      jump\t// out\n        /* \"#utility.yul\":1161:1290   */\n    tag_208:\n        /* \"#utility.yul\":1195:1201   */\n      0x00\n        /* \"#utility.yul\":1222:1242   */\n      tag_257\n      tag_200\n      jump\t// in\n    tag_257:\n        /* \"#utility.yul\":1212:1242   */\n      swap1\n      pop\n        /* \"#utility.yul\":1251:1284   */\n      tag_258\n        /* \"#utility.yul\":1279:1283   */\n      dup3\n        /* \"#utility.yul\":1271:1277   */\n      dup3\n        /* \"#utility.yul\":1251:1284   */\n      tag_207\n      jump\t// in\n    tag_258:\n        /* \"#utility.yul\":1161:1290   */\n      swap2\n      swap1\n      pop\n      jump\t// out\n        /* \"#utility.yul\":1296:1604   */\n    tag_209:\n        /* \"#utility.yul\":1358:1362   */\n      0x00\n        /* \"#utility.yul\":1448:1466   */\n      0xffffffffffffffff\n        /* \"#utility.yul\":1440:1446   */\n      dup3\n        /* \"#utility.yul\":1437:1467   */\n      gt\n        /* \"#utility.yul\":1434:1490   */\n      iszero\n      tag_260\n      jumpi\n        /* \"#utility.yul\":1470:1488   */\n      tag_261\n      tag_206\n      jump\t// in\n    tag_261:\n        /* \"#utility.yul\":1434:1490   */\n    tag_260:\n        /* \"#utility.yul\":1508:1537   */\n      tag_262\n        /* \"#utility.yul\":1530:1536   */\n      dup3\n        /* \"#utility.yul\":1508:1537   */\n      tag_205\n      jump\t// in\n    tag_262:\n        /* \"#utility.yul\":1500:1537   */\n      swap1\n      pop\n        /* \"#utility.yul\":1592:1596   */\n      0x20\n        /* \"#utility.yul\":1586:1590   */\n      dup2\n        /* \"#utility.yul\":1582:1597   */\n      add\n        /* \"#utility.yul\":1574:1597   */\n      swap1\n      pop\n        /* \"#utility.yul\":1296:1604   */\n      swap2\n      swap1\n      pop\n      jump\t// out\n        /* \"#utility.yul\":1610:1756   */\n    tag_210:\n        /* \"#utility.yul\":1707:1713   */\n      dup3\n        /* \"#utility.yul\":1702:1705   */\n      dup2\n        /* \"#utility.yul\":1697:1700   */\n      dup4\n        /* \"#utility.yul\":1684:1714   */\n      calldatacopy\n        /* \"#utility.yul\":1748:1749   */\n      0x00\n        /* \"#utility.yul\":1739:1745   */\n      dup4\n        /* \"#utility.yul\":1734:1737   */\n      dup4\n        /* \"#utility.yul\":1730:1746   */\n      add\n        /* \"#utility.yul\":1723:1750   */\n      mstore\n        /* \"#utility.yul\":1610:1756   */\n      pop\n      pop\n      pop\n      jump\t// out\n        /* \"#utility.yul\":1762:2187   */\n    tag_211:\n        /* \"#utility.yul\":1840:1845   */\n      0x00\n        /* \"#utility.yul\":1865:1931   */\n      tag_265\n        /* \"#utility.yul\":1881:1930   */\n      tag_266\n        /* \"#utility.yul\":1923:1929   */\n      dup5\n        /* \"#utility.yul\":1881:1930   */\n      tag_209\n      jump\t// in\n    tag_266:\n        /* \"#utility.yul\":1865:1931   */\n      tag_208\n      jump\t// in\n    tag_265:\n        /* \"#utility.yul\":1856:1931   */\n      swap1\n      pop\n        /* \"#utility.yul\":1954:1960   */\n      dup3\n        /* \"#utility.yul\":1947:1952   */\n      dup2\n        /* \"#utility.yul\":1940:1961   */\n      mstore\n        /* \"#utility.yul\":1992:1996   */\n      0x20\n        /* \"#utility.yul\":1985:1990   */\n      dup2\n        /* \"#utility.yul\":1981:1997   */\n      add\n        /* \"#utility.yul\":2030:2033   */\n      dup5\n        /* \"#utility.yul\":2021:2027   */\n      dup5\n        /* \"#utility.yul\":2016:2019   */\n      dup5\n        /* \"#utility.yul\":2012:2028   */\n      add\n        /* \"#utility.yul\":2009:2034   */\n      gt\n        /* \"#utility.yul\":2006:2118   */\n      iszero\n      tag_267\n      jumpi\n        /* \"#utility.yul\":2037:2116   */\n      tag_268\n      tag_204\n      jump\t// in\n    tag_268:\n        /* \"#utility.yul\":2006:2118   */\n    tag_267:\n        /* \"#utility.yul\":2127:2181   */\n      tag_269\n        /* \"#utility.yul\":2174:2180   */\n      dup5\n        /* \"#utility.yul\":2169:2172   */\n      dup3\n        /* \"#utility.yul\":2164:2167   */\n      dup6\n        /* \"#utility.yul\":2127:2181   */\n      tag_210\n      jump\t// in\n    tag_269:\n        /* \"#utility.yul\":1846:2187   */\n      pop\n        /* \"#utility.yul\":1762:2187   */\n      swap4\n      swap3\n      pop\n      pop\n      pop\n      jump\t// out\n        /* \"#utility.yul\":2207:2547   */\n    tag_212:\n        /* \"#utility.yul\":2263:2268   */\n      0x00\n        /* \"#utility.yul\":2312:2315   */\n      dup3\n        /* \"#utility.yul\":2305:2309   */\n      0x1f\n        /* \"#utility.yul\":2297:2303   */\n      dup4\n        /* \"#utility.yul\":2293:2310   */\n      add\n        /* \"#utility.yul\":2289:2316   */\n      slt\n        /* \"#utility.yul\":2279:2401   */\n      tag_271\n      jumpi\n        /* \"#utility.yul\":2320:2399   */\n      tag_272\n      tag_203\n      jump\t// in\n    tag_272:\n        /* \"#utility.yul\":2279:2401   */\n    tag_271:\n        /* \"#utility.yul\":2437:2443   */\n      dup2\n        /* \"#utility.yul\":2424:2444   */\n      calldataload\n        /* \"#utility.yul\":2462:2541   */\n      tag_273\n        /* \"#utility.yul\":2537:2540   */\n      dup5\n        /* \"#utility.yul\":2529:2535   */\n      dup3\n        /* \"#utility.yul\":2522:2526   */\n      0x20\n        /* \"#utility.yul\":2514:2520   */\n      dup7\n        /* \"#utility.yul\":2510:2527   */\n      add\n        /* \"#utility.yul\":2462:2541   */\n      tag_211\n      jump\t// in\n    tag_273:\n        /* \"#utility.yul\":2453:2541   */\n      swap2\n      pop\n        /* \"#utility.yul\":2269:2547   */\n      pop\n        /* \"#utility.yul\":2207:2547   */\n      swap3\n      swap2\n      pop\n      pop\n      jump\t// out\n        /* \"#utility.yul\":2553:3387   */\n    tag_22:\n        /* \"#utility.yul\":2641:2647   */\n      0x00\n        /* \"#utility.yul\":2649:2655   */\n      dup1\n        /* \"#utility.yul\":2698:2700   */\n      0x40\n        /* \"#utility.yul\":2686:2695   */\n      dup4\n        /* \"#utility.yul\":2677:2684   */\n      dup6\n        /* \"#utility.yul\":2673:2696   */\n      sub\n        /* \"#utility.yul\":2669:2701   */\n      slt\n        /* \"#utility.yul\":2666:2785   */\n      iszero\n      tag_275\n      jumpi\n        /* \"#utility.yul\":2704:2783   */\n      tag_276\n      tag_201\n      jump\t// in\n    tag_276:\n        /* \"#utility.yul\":2666:2785   */\n    tag_275:\n        /* \"#utility.yul\":2852:2853   */\n      0x00\n        /* \"#utility.yul\":2841:2850   */\n      dup4\n        /* \"#utility.yul\":2837:2854   */\n      add\n        /* \"#utility.yul\":2824:2855   */\n      calldataload\n        /* \"#utility.yul\":2882:2900   */\n      0xffffffffffffffff\n        /* \"#utility.yul\":2874:2880   */\n      dup2\n        /* \"#utility.yul\":2871:2901   */\n      gt\n        /* \"#utility.yul\":2868:2985   */\n      iszero\n      tag_277\n      jumpi\n        /* \"#utility.yul\":2904:2983   */\n      tag_278\n      tag_202\n      jump\t// in\n    tag_278:\n        /* \"#utility.yul\":2868:2985   */\n    tag_277:\n        /* \"#utility.yul\":3009:3072   */\n      tag_279\n        /* \"#utility.yul\":3064:3071   */\n      dup6\n        /* \"#utility.yul\":3055:3061   */\n      dup3\n        /* \"#utility.yul\":3044:3053   */\n      dup7\n        /* \"#utility.yul\":3040:3062   */\n      add\n        /* \"#utility.yul\":3009:3072   */\n      tag_212\n      jump\t// in\n    tag_279:\n        /* \"#utility.yul\":2999:3072   */\n      swap3\n      pop\n        /* \"#utility.yul\":2795:3082   */\n      pop\n        /* \"#utility.yul\":3149:3151   */\n      0x20\n        /* \"#utility.yul\":3138:3147   */\n      dup4\n        /* \"#utility.yul\":3134:3152   */\n      add\n        /* \"#utility.yul\":3121:3153   */\n      calldataload\n        /* \"#utility.yul\":3180:3198   */\n      0xffffffffffffffff\n        /* \"#utility.yul\":3172:3178   */\n      dup2\n        /* \"#utility.yul\":3169:3199   */\n      gt\n        /* \"#utility.yul\":3166:3283   */\n      iszero\n      tag_280\n      jumpi\n        /* \"#utility.yul\":3202:3281   */\n      tag_281\n      tag_202\n      jump\t// in\n    tag_281:\n        /* \"#utility.yul\":3166:3283   */\n    tag_280:\n        /* \"#utility.yul\":3307:3370   */\n      tag_282\n        /* \"#utility.yul\":3362:3369   */\n      dup6\n        /* \"#utility.yul\":3353:3359   */\n      dup3\n        /* \"#utility.yul\":3342:3351   */\n      dup7\n        /* \"#utility.yul\":3338:3360   */\n      add\n        /* \"#utility.yul\":3307:3370   */\n      tag_212\n      jump\t// in\n    tag_282:\n        /* \"#utility.yul\":3297:3370   */\n      swap2\n      pop\n        /* \"#utility.yul\":3092:3380   */\n      pop\n        /* \"#utility.yul\":2553:3387   */\n      swap3\n      pop\n      swap3\n      swap1\n      pop\n      jump\t// out\n        /* \"#utility.yul\":3393:5856   */\n    tag_32:\n        /* \"#utility.yul\":3576:3582   */\n      0x00\n        /* \"#utility.yul\":3584:3590   */\n      dup1\n        /* \"#utility.yul\":3592:3598   */\n      0x00\n        /* \"#utility.yul\":3600:3606   */\n      dup1\n        /* \"#utility.yul\":3608:3614   */\n      0x00\n        /* \"#utility.yul\":3616:3622   */\n      dup1\n        /* \"#utility.yul\":3624:3630   */\n      0x00\n        /* \"#utility.yul\":3673:3676   */\n      0xe0\n        /* \"#utility.yul\":3661:3670   */\n      dup9\n        /* \"#utility.yul\":3652:3659   */\n      dup11\n        /* \"#utility.yul\":3648:3671   */\n      sub\n        /* \"#utility.yul\":3644:3677   */\n      slt\n        /* \"#utility.yul\":3641:3761   */\n      iszero\n      tag_284\n      jumpi\n        /* \"#utility.yul\":3680:3759   */\n      tag_285\n      tag_201\n      jump\t// in\n    tag_285:\n        /* \"#utility.yul\":3641:3761   */\n    tag_284:\n        /* \"#utility.yul\":3828:3829   */\n      0x00\n        /* \"#utility.yul\":3817:3826   */\n      dup9\n        /* \"#utility.yul\":3813:3830   */\n      add\n        /* \"#utility.yul\":3800:3831   */\n      calldataload\n        /* \"#utility.yul\":3858:3876   */\n      0xffffffffffffffff\n        /* \"#utility.yul\":3850:3856   */\n      dup2\n        /* \"#utility.yul\":3847:3877   */\n      gt\n        /* \"#utility.yul\":3844:3961   */\n      iszero\n      tag_286\n      jumpi\n        /* \"#utility.yul\":3880:3959   */\n      tag_287\n      tag_202\n      jump\t// in\n    tag_287:\n        /* \"#utility.yul\":3844:3961   */\n    tag_286:\n        /* \"#utility.yul\":3985:4048   */\n      tag_288\n        /* \"#utility.yul\":4040:4047   */\n      dup11\n        /* \"#utility.yul\":4031:4037   */\n      dup3\n        /* \"#utility.yul\":4020:4029   */\n      dup12\n        /* \"#utility.yul\":4016:4038   */\n      add\n        /* \"#utility.yul\":3985:4048   */\n      tag_212\n      jump\t// in\n    tag_288:\n        /* \"#utility.yul\":3975:4048   */\n      swap8\n      pop\n        /* \"#utility.yul\":3771:4058   */\n      pop\n        /* \"#utility.yul\":4125:4127   */\n      0x20\n        /* \"#utility.yul\":4114:4123   */\n      dup9\n        /* \"#utility.yul\":4110:4128   */\n      add\n        /* \"#utility.yul\":4097:4129   */\n      calldataload\n        /* \"#utility.yul\":4156:4174   */\n      0xffffffffffffffff\n        /* \"#utility.yul\":4148:4154   */\n      dup2\n        /* \"#utility.yul\":4145:4175   */\n      gt\n        /* \"#utility.yul\":4142:4259   */\n      iszero\n      tag_289\n      jumpi\n        /* \"#utility.yul\":4178:4257   */\n      tag_290\n      tag_202\n      jump\t// in\n    tag_290:\n        /* \"#utility.yul\":4142:4259   */\n    tag_289:\n        /* \"#utility.yul\":4283:4346   */\n      tag_291\n        /* \"#utility.yul\":4338:4345   */\n      dup11\n        /* \"#utility.yul\":4329:4335   */\n      dup3\n        /* \"#utility.yul\":4318:4327   */\n      dup12\n        /* \"#utility.yul\":4314:4336   */\n      add\n        /* \"#utility.yul\":4283:4346   */\n      tag_212\n      jump\t// in\n    tag_291:\n        /* \"#utility.yul\":4273:4346   */\n      swap7\n      pop\n        /* \"#utility.yul\":4068:4356   */\n      pop\n        /* \"#utility.yul\":4423:4425   */\n      0x40\n        /* \"#utility.yul\":4412:4421   */\n      dup9\n        /* \"#utility.yul\":4408:4426   */\n      add\n        /* \"#utility.yul\":4395:4427   */\n      calldataload\n        /* \"#utility.yul\":4454:4472   */\n      0xffffffffffffffff\n        /* \"#utility.yul\":4446:4452   */\n      dup2\n        /* \"#utility.yul\":4443:4473   */\n      gt\n        /* \"#utility.yul\":4440:4557   */\n      iszero\n      tag_292\n      jumpi\n        /* \"#utility.yul\":4476:4555   */\n      tag_293\n      tag_202\n      jump\t// in\n    tag_293:\n        /* \"#utility.yul\":4440:4557   */\n    tag_292:\n        /* \"#utility.yul\":4581:4644   */\n      tag_294\n        /* \"#utility.yul\":4636:4643   */\n      dup11\n        /* \"#utility.yul\":4627:4633   */\n      dup3\n        /* \"#utility.yul\":4616:4625   */\n      dup12\n        /* \"#utility.yul\":4612:4634   */\n      add\n        /* \"#utility.yul\":4581:4644   */\n      tag_212\n      jump\t// in\n    tag_294:\n        /* \"#utility.yul\":4571:4644   */\n      swap6\n      pop\n        /* \"#utility.yul\":4366:4654   */\n      pop\n        /* \"#utility.yul\":4721:4723   */\n      0x60\n        /* \"#utility.yul\":4710:4719   */\n      dup9\n        /* \"#utility.yul\":4706:4724   */\n      add\n        /* \"#utility.yul\":4693:4725   */\n      calldataload\n        /* \"#utility.yul\":4752:4770   */\n      0xffffffffffffffff\n        /* \"#utility.yul\":4744:4750   */\n      dup2\n        /* \"#utility.yul\":4741:4771   */\n      gt\n        /* \"#utility.yul\":4738:4855   */\n      iszero\n      tag_295\n      jumpi\n        /* \"#utility.yul\":4774:4853   */\n      tag_296\n      tag_202\n      jump\t// in\n    tag_296:\n        /* \"#utility.yul\":4738:4855   */\n    tag_295:\n        /* \"#utility.yul\":4879:4942   */\n      tag_297\n        /* \"#utility.yul\":4934:4941   */\n      dup11\n        /* \"#utility.yul\":4925:4931   */\n      dup3\n        /* \"#utility.yul\":4914:4923   */\n      dup12\n        /* \"#utility.yul\":4910:4932   */\n      add\n        /* \"#utility.yul\":4879:4942   */\n      tag_212\n      jump\t// in\n    tag_297:\n        /* \"#utility.yul\":4869:4942   */\n      swap5\n      pop\n        /* \"#utility.yul\":4664:4952   */\n      pop\n        /* \"#utility.yul\":5019:5022   */\n      0x80\n        /* \"#utility.yul\":5008:5017   */\n      dup9\n        /* \"#utility.yul\":5004:5023   */\n      add\n        /* \"#utility.yul\":4991:5024   */\n      calldataload\n        /* \"#utility.yul\":5051:5069   */\n      0xffffffffffffffff\n        /* \"#utility.yul\":5043:5049   */\n      dup2\n        /* \"#utility.yul\":5040:5070   */\n      gt\n        /* \"#utility.yul\":5037:5154   */\n      iszero\n      tag_298\n      jumpi\n        /* \"#utility.yul\":5073:5152   */\n      tag_299\n      tag_202\n      jump\t// in\n    tag_299:\n        /* \"#utility.yul\":5037:5154   */\n    tag_298:\n        /* \"#utility.yul\":5178:5241   */\n      tag_300\n        /* \"#utility.yul\":5233:5240   */\n      dup11\n        /* \"#utility.yul\":5224:5230   */\n      dup3\n        /* \"#utility.yul\":5213:5222   */\n      dup12\n        /* \"#utility.yul\":5209:5231   */\n      add\n        /* \"#utility.yul\":5178:5241   */\n      tag_212\n      jump\t// in\n    tag_300:\n        /* \"#utility.yul\":5168:5241   */\n      swap4\n      pop\n        /* \"#utility.yul\":4962:5251   */\n      pop\n        /* \"#utility.yul\":5318:5321   */\n      0xa0\n        /* \"#utility.yul\":5307:5316   */\n      dup9\n        /* \"#utility.yul\":5303:5322   */\n      add\n        /* \"#utility.yul\":5290:5323   */\n      calldataload\n        /* \"#utility.yul\":5350:5368   */\n      0xffffffffffffffff\n        /* \"#utility.yul\":5342:5348   */\n      dup2\n        /* \"#utility.yul\":5339:5369   */\n      gt\n        /* \"#utility.yul\":5336:5453   */\n      iszero\n      tag_301\n      jumpi\n        /* \"#utility.yul\":5372:5451   */\n      tag_302\n      tag_202\n      jump\t// in\n    tag_302:\n        /* \"#utility.yul\":5336:5453   */\n    tag_301:\n        /* \"#utility.yul\":5477:5540   */\n      tag_303\n        /* \"#utility.yul\":5532:5539   */\n      dup11\n        /* \"#utility.yul\":5523:5529   */\n      dup3\n        /* \"#utility.yul\":5512:5521   */\n      dup12\n        /* \"#utility.yul\":5508:5530   */\n      add\n        /* \"#utility.yul\":5477:5540   */\n      tag_212\n      jump\t// in\n    tag_303:\n        /* \"#utility.yul\":5467:5540   */\n      swap3\n      pop\n        /* \"#utility.yul\":5261:5550   */\n      pop\n        /* \"#utility.yul\":5617:5620   */\n      0xc0\n        /* \"#utility.yul\":5606:5615   */\n      dup9\n        /* \"#utility.yul\":5602:5621   */\n      add\n        /* \"#utility.yul\":5589:5622   */\n      calldataload\n        /* \"#utility.yul\":5649:5667   */\n      0xffffffffffffffff\n        /* \"#utility.yul\":5641:5647   */\n      dup2\n        /* \"#utility.yul\":5638:5668   */\n      gt\n        /* \"#utility.yul\":5635:5752   */\n      iszero\n      tag_304\n      jumpi\n        /* \"#utility.yul\":5671:5750   */\n      tag_305\n      tag_202\n      jump\t// in\n    tag_305:\n        /* \"#utility.yul\":5635:5752   */\n    tag_304:\n        /* \"#utility.yul\":5776:5839   */\n      tag_306\n        /* \"#utility.yul\":5831:5838   */\n      dup11\n        /* \"#utility.yul\":5822:5828   */\n      dup3\n        /* \"#utility.yul\":5811:5820   */\n      dup12\n        /* \"#utility.yul\":5807:5829   */\n      add\n        /* \"#utility.yul\":5776:5839   */\n      tag_212\n      jump\t// in\n    tag_306:\n        /* \"#utility.yul\":5766:5839   */\n      swap2\n      pop\n        /* \"#utility.yul\":5560:5849   */\n      pop\n        /* \"#utility.yul\":3393:5856   */\n      swap3\n      swap6\n      swap9\n      swap2\n      swap5\n      swap8\n      pop\n      swap3\n      swap6\n      pop\n      jump\t// out\n        /* \"#utility.yul\":5862:6371   */\n    tag_36:\n        /* \"#utility.yul\":5931:5937   */\n      0x00\n        /* \"#utility.yul\":5980:5982   */\n      0x20\n        /* \"#utility.yul\":5968:5977   */\n      dup3\n        /* \"#utility.yul\":5959:5966   */\n      dup5\n        /* \"#utility.yul\":5955:5978   */\n      sub\n        /* \"#utility.yul\":5951:5983   */\n      slt\n        /* \"#utility.yul\":5948:6067   */\n      iszero\n      tag_308\n      jumpi\n        /* \"#utility.yul\":5986:6065   */\n      tag_309\n      tag_201\n      jump\t// in\n    tag_309:\n        /* \"#utility.yul\":5948:6067   */\n    tag_308:\n        /* \"#utility.yul\":6134:6135   */\n      0x00\n        /* \"#utility.yul\":6123:6132   */\n      dup3\n        /* \"#utility.yul\":6119:6136   */\n      add\n        /* \"#utility.yul\":6106:6137   */\n      calldataload\n        /* \"#utility.yul\":6164:6182   */\n      0xffffffffffffffff\n        /* \"#utility.yul\":6156:6162   */\n      dup2\n        /* \"#utility.yul\":6153:6183   */\n      gt\n        /* \"#utility.yul\":6150:6267   */\n      iszero\n      tag_310\n      jumpi\n        /* \"#utility.yul\":6186:6265   */\n      tag_311\n      tag_202\n      jump\t// in\n    tag_311:\n        /* \"#utility.yul\":6150:6267   */\n    tag_310:\n        /* \"#utility.yul\":6291:6354   */\n      tag_312\n        /* \"#utility.yul\":6346:6353   */\n      dup5\n        /* \"#utility.yul\":6337:6343   */\n      dup3\n        /* \"#utility.yul\":6326:6335   */\n      dup6\n        /* \"#utility.yul\":6322:6344   */\n      add\n        /* \"#utility.yul\":6291:6354   */\n      tag_212\n      jump\t// in\n    tag_312:\n        /* \"#utility.yul\":6281:6354   */\n      swap2\n      pop\n        /* \"#utility.yul\":6077:6364   */\n      pop\n        /* \"#utility.yul\":5862:6371   */\n      swap3\n      swap2\n      pop\n      pop\n      jump\t// out\n        /* \"#utility.yul\":6377:6476   */\n    tag_213:\n        /* \"#utility.yul\":6429:6435   */\n      0x00\n        /* \"#utility.yul\":6463:6468   */\n      dup2\n        /* \"#utility.yul\":6457:6469   */\n      mload\n        /* \"#utility.yul\":6447:6469   */\n      swap1\n      pop\n        /* \"#utility.yul\":6377:6476   */\n      swap2\n      swap1\n      pop\n      jump\t// out\n        /* \"#utility.yul\":6482:6651   */\n    tag_214:\n        /* \"#utility.yul\":6566:6577   */\n      0x00\n        /* \"#utility.yul\":6600:6606   */\n      dup3\n        /* \"#utility.yul\":6595:6598   */\n      dup3\n        /* \"#utility.yul\":6588:6607   */\n      mstore\n        /* \"#utility.yul\":6640:6644   */\n      0x20\n        /* \"#utility.yul\":6635:6638   */\n      dup3\n        /* \"#utility.yul\":6631:6645   */\n      add\n        /* \"#utility.yul\":6616:6645   */\n      swap1\n      pop\n        /* \"#utility.yul\":6482:6651   */\n      swap3\n      swap2\n      pop\n      pop\n      jump\t// out\n        /* \"#utility.yul\":6657:6903   */\n    tag_215:\n        /* \"#utility.yul\":6738:6739   */\n      0x00\n        /* \"#utility.yul\":6748:6861   */\n    tag_316:\n        /* \"#utility.yul\":6762:6768   */\n      dup4\n        /* \"#utility.yul\":6759:6760   */\n      dup2\n        /* \"#utility.yul\":6756:6769   */\n      lt\n        /* \"#utility.yul\":6748:6861   */\n      iszero\n      tag_318\n      jumpi\n        /* \"#utility.yul\":6847:6848   */\n      dup1\n        /* \"#utility.yul\":6842:6845   */\n      dup3\n        /* \"#utility.yul\":6838:6849   */\n      add\n        /* \"#utility.yul\":6832:6850   */\n      mload\n        /* \"#utility.yul\":6828:6829   */\n      dup2\n        /* \"#utility.yul\":6823:6826   */\n      dup5\n        /* \"#utility.yul\":6819:6830   */\n      add\n        /* \"#utility.yul\":6812:6851   */\n      mstore\n        /* \"#utility.yul\":6784:6786   */\n      0x20\n        /* \"#utility.yul\":6781:6782   */\n      dup2\n        /* \"#utility.yul\":6777:6787   */\n      add\n        /* \"#utility.yul\":6772:6787   */\n      swap1\n      pop\n        /* \"#utility.yul\":6748:6861   */\n      jump(tag_316)\n    tag_318:\n        /* \"#utility.yul\":6895:6896   */\n      0x00\n        /* \"#utility.yul\":6886:6892   */\n      dup5\n        /* \"#utility.yul\":6881:6884   */\n      dup5\n        /* \"#utility.yul\":6877:6893   */\n      add\n        /* \"#utility.yul\":6870:6897   */\n      mstore\n        /* \"#utility.yul\":6719:6903   */\n      pop\n        /* \"#utility.yul\":6657:6903   */\n      pop\n      pop\n      pop\n      jump\t// out\n        /* \"#utility.yul\":6909:7286   */\n    tag_216:\n        /* \"#utility.yul\":6997:7000   */\n      0x00\n        /* \"#utility.yul\":7025:7064   */\n      tag_320\n        /* \"#utility.yul\":7058:7063   */\n      dup3\n        /* \"#utility.yul\":7025:7064   */\n      tag_213\n      jump\t// in\n    tag_320:\n        /* \"#utility.yul\":7080:7151   */\n      tag_321\n        /* \"#utility.yul\":7144:7150   */\n      dup2\n        /* \"#utility.yul\":7139:7142   */\n      dup6\n        /* \"#utility.yul\":7080:7151   */\n      tag_214\n      jump\t// in\n    tag_321:\n        /* \"#utility.yul\":7073:7151   */\n      swap4\n      pop\n        /* \"#utility.yul\":7160:7225   */\n      tag_322\n        /* \"#utility.yul\":7218:7224   */\n      dup2\n        /* \"#utility.yul\":7213:7216   */\n      dup6\n        /* \"#utility.yul\":7206:7210   */\n      0x20\n        /* \"#utility.yul\":7199:7204   */\n      dup7\n        /* \"#utility.yul\":7195:7211   */\n      add\n        /* \"#utility.yul\":7160:7225   */\n      tag_215\n      jump\t// in\n    tag_322:\n        /* \"#utility.yul\":7250:7279   */\n      tag_323\n        /* \"#utility.yul\":7272:7278   */\n      dup2\n        /* \"#utility.yul\":7250:7279   */\n      tag_205\n      jump\t// in\n    tag_323:\n        /* \"#utility.yul\":7245:7248   */\n      dup5\n        /* \"#utility.yul\":7241:7280   */\n      add\n        /* \"#utility.yul\":7234:7280   */\n      swap2\n      pop\n        /* \"#utility.yul\":7001:7286   */\n      pop\n        /* \"#utility.yul\":6909:7286   */\n      swap3\n      swap2\n      pop\n      pop\n      jump\t// out\n        /* \"#utility.yul\":7292:8613   */\n    tag_39:\n        /* \"#utility.yul\":7645:7649   */\n      0x00\n        /* \"#utility.yul\":7683:7686   */\n      0xc0\n        /* \"#utility.yul\":7672:7681   */\n      dup3\n        /* \"#utility.yul\":7668:7687   */\n      add\n        /* \"#utility.yul\":7660:7687   */\n      swap1\n      pop\n        /* \"#utility.yul\":7733:7742   */\n      dup2\n        /* \"#utility.yul\":7727:7731   */\n      dup2\n        /* \"#utility.yul\":7723:7743   */\n      sub\n        /* \"#utility.yul\":7719:7720   */\n      0x00\n        /* \"#utility.yul\":7708:7717   */\n      dup4\n        /* \"#utility.yul\":7704:7721   */\n      add\n        /* \"#utility.yul\":7697:7744   */\n      mstore\n        /* \"#utility.yul\":7761:7839   */\n      tag_325\n        /* \"#utility.yul\":7834:7838   */\n      dup2\n        /* \"#utility.yul\":7825:7831   */\n      dup10\n        /* \"#utility.yul\":7761:7839   */\n      tag_216\n      jump\t// in\n    tag_325:\n        /* \"#utility.yul\":7753:7839   */\n      swap1\n      pop\n        /* \"#utility.yul\":7886:7895   */\n      dup2\n        /* \"#utility.yul\":7880:7884   */\n      dup2\n        /* \"#utility.yul\":7876:7896   */\n      sub\n        /* \"#utility.yul\":7871:7873   */\n      0x20\n        /* \"#utility.yul\":7860:7869   */\n      dup4\n        /* \"#utility.yul\":7856:7874   */\n      add\n        /* \"#utility.yul\":7849:7897   */\n      mstore\n        /* \"#utility.yul\":7914:7992   */\n      tag_326\n        /* \"#utility.yul\":7987:7991   */\n      dup2\n        /* \"#utility.yul\":7978:7984   */\n      dup9\n        /* \"#utility.yul\":7914:7992   */\n      tag_216\n      jump\t// in\n    tag_326:\n        /* \"#utility.yul\":7906:7992   */\n      swap1\n      pop\n        /* \"#utility.yul\":8039:8048   */\n      dup2\n        /* \"#utility.yul\":8033:8037   */\n      dup2\n        /* \"#utility.yul\":8029:8049   */\n      sub\n        /* \"#utility.yul\":8024:8026   */\n      0x40\n        /* \"#utility.yul\":8013:8022   */\n      dup4\n        /* \"#utility.yul\":8009:8027   */\n      add\n        /* \"#utility.yul\":8002:8050   */\n      mstore\n        /* \"#utility.yul\":8067:8145   */\n      tag_327\n        /* \"#utility.yul\":8140:8144   */\n      dup2\n        /* \"#utility.yul\":8131:8137   */\n      dup8\n        /* \"#utility.yul\":8067:8145   */\n      tag_216\n      jump\t// in\n    tag_327:\n        /* \"#utility.yul\":8059:8145   */\n      swap1\n      pop\n        /* \"#utility.yul\":8192:8201   */\n      dup2\n        /* \"#utility.yul\":8186:8190   */\n      dup2\n        /* \"#utility.yul\":8182:8202   */\n      sub\n        /* \"#utility.yul\":8177:8179   */\n      0x60\n        /* \"#utility.yul\":8166:8175   */\n      dup4\n        /* \"#utility.yul\":8162:8180   */\n      add\n        /* \"#utility.yul\":8155:8203   */\n      mstore\n        /* \"#utility.yul\":8220:8298   */\n      tag_328\n        /* \"#utility.yul\":8293:8297   */\n      dup2\n        /* \"#utility.yul\":8284:8290   */\n      dup7\n        /* \"#utility.yul\":8220:8298   */\n      tag_216\n      jump\t// in\n    tag_328:\n        /* \"#utility.yul\":8212:8298   */\n      swap1\n      pop\n        /* \"#utility.yul\":8346:8355   */\n      dup2\n        /* \"#utility.yul\":8340:8344   */\n      dup2\n        /* \"#utility.yul\":8336:8356   */\n      sub\n        /* \"#utility.yul\":8330:8333   */\n      0x80\n        /* \"#utility.yul\":8319:8328   */\n      dup4\n        /* \"#utility.yul\":8315:8334   */\n      add\n        /* \"#utility.yul\":8308:8357   */\n      mstore\n        /* \"#utility.yul\":8374:8452   */\n      tag_329\n        /* \"#utility.yul\":8447:8451   */\n      dup2\n        /* \"#utility.yul\":8438:8444   */\n      dup6\n        /* \"#utility.yul\":8374:8452   */\n      tag_216\n      jump\t// in\n    tag_329:\n        /* \"#utility.yul\":8366:8452   */\n      swap1\n      pop\n        /* \"#utility.yul\":8500:8509   */\n      dup2\n        /* \"#utility.yul\":8494:8498   */\n      dup2\n        /* \"#utility.yul\":8490:8510   */\n      sub\n        /* \"#utility.yul\":8484:8487   */\n      0xa0\n        /* \"#utility.yul\":8473:8482   */\n      dup4\n        /* \"#utility.yul\":8469:8488   */\n      add\n        /* \"#utility.yul\":8462:8511   */\n      mstore\n        /* \"#utility.yul\":8528:8606   */\n      tag_330\n        /* \"#utility.yul\":8601:8605   */\n      dup2\n        /* \"#utility.yul\":8592:8598   */\n      dup5\n        /* \"#utility.yul\":8528:8606   */\n      tag_216\n      jump\t// in\n    tag_330:\n        /* \"#utility.yul\":8520:8606   */\n      swap1\n      pop\n        /* \"#utility.yul\":7292:8613   */\n      swap8\n      swap7\n      pop\n      pop\n      pop\n      pop\n      pop\n      pop\n      pop\n      jump\t// out\n        /* \"#utility.yul\":8619:8932   */\n    tag_47:\n        /* \"#utility.yul\":8732:8736   */\n      0x00\n        /* \"#utility.yul\":8770:8772   */\n      0x20\n        /* \"#utility.yul\":8759:8768   */\n      dup3\n        /* \"#utility.yul\":8755:8773   */\n      add\n        /* \"#utility.yul\":8747:8773   */\n      swap1\n      pop\n        /* \"#utility.yul\":8819:8828   */\n      dup2\n        /* \"#utility.yul\":8813:8817   */\n      dup2\n        /* \"#utility.yul\":8809:8829   */\n      sub\n        /* \"#utility.yul\":8805:8806   */\n      0x00\n        /* \"#utility.yul\":8794:8803   */\n      dup4\n        /* \"#utility.yul\":8790:8807   */\n      add\n        /* \"#utility.yul\":8783:8830   */\n      mstore\n        /* \"#utility.yul\":8847:8925   */\n      tag_332\n        /* \"#utility.yul\":8920:8924   */\n      dup2\n        /* \"#utility.yul\":8911:8917   */\n      dup5\n        /* \"#utility.yul\":8847:8925   */\n      tag_216\n      jump\t// in\n    tag_332:\n        /* \"#utility.yul\":8839:8925   */\n      swap1\n      pop\n        /* \"#utility.yul\":8619:8932   */\n      swap3\n      swap2\n      pop\n      pop\n      jump\t// out\n        /* \"#utility.yul\":8938:9086   */\n    tag_217:\n        /* \"#utility.yul\":9040:9051   */\n      0x00\n        /* \"#utility.yul\":9077:9080   */\n      dup2\n        /* \"#utility.yul\":9062:9080   */\n      swap1\n      pop\n        /* \"#utility.yul\":8938:9086   */\n      swap3\n      swap2\n      pop\n      pop\n      jump\t// out\n        /* \"#utility.yul\":9092:9482   */\n    tag_218:\n        /* \"#utility.yul\":9198:9201   */\n      0x00\n        /* \"#utility.yul\":9226:9265   */\n      tag_335\n        /* \"#utility.yul\":9259:9264   */\n      dup3\n        /* \"#utility.yul\":9226:9265   */\n      tag_213\n      jump\t// in\n    tag_335:\n        /* \"#utility.yul\":9281:9370   */\n      tag_336\n        /* \"#utility.yul\":9363:9369   */\n      dup2\n        /* \"#utility.yul\":9358:9361   */\n      dup6\n        /* \"#utility.yul\":9281:9370   */\n      tag_217\n      jump\t// in\n    tag_336:\n        /* \"#utility.yul\":9274:9370   */\n      swap4\n      pop\n        /* \"#utility.yul\":9379:9444   */\n      tag_337\n        /* \"#utility.yul\":9437:9443   */\n      dup2\n        /* \"#utility.yul\":9432:9435   */\n      dup6\n        /* \"#utility.yul\":9425:9429   */\n      0x20\n        /* \"#utility.yul\":9418:9423   */\n      dup7\n        /* \"#utility.yul\":9414:9430   */\n      add\n        /* \"#utility.yul\":9379:9444   */\n      tag_215\n      jump\t// in\n    tag_337:\n        /* \"#utility.yul\":9469:9475   */\n      dup1\n        /* \"#utility.yul\":9464:9467   */\n      dup5\n        /* \"#utility.yul\":9460:9476   */\n      add\n        /* \"#utility.yul\":9453:9476   */\n      swap2\n      pop\n        /* \"#utility.yul\":9202:9482   */\n      pop\n        /* \"#utility.yul\":9092:9482   */\n      swap3\n      swap2\n      pop\n      pop\n      jump\t// out\n        /* \"#utility.yul\":9488:9763   */\n    tag_76:\n        /* \"#utility.yul\":9620:9623   */\n      0x00\n        /* \"#utility.yul\":9642:9737   */\n      tag_339\n        /* \"#utility.yul\":9733:9736   */\n      dup3\n        /* \"#utility.yul\":9724:9730   */\n      dup5\n        /* \"#utility.yul\":9642:9737   */\n      tag_218\n      jump\t// in\n    tag_339:\n        /* \"#utility.yul\":9635:9737   */\n      swap2\n      pop\n        /* \"#utility.yul\":9754:9757   */\n      dup2\n        /* \"#utility.yul\":9747:9757   */\n      swap1\n      pop\n        /* \"#utility.yul\":9488:9763   */\n      swap3\n      swap2\n      pop\n      pop\n      jump\t// out\n        /* \"#utility.yul\":9769:9949   */\n    tag_219:\n        /* \"#utility.yul\":9817:9894   */\n      0x4e487b7100000000000000000000000000000000000000000000000000000000\n        /* \"#utility.yul\":9814:9815   */\n      0x00\n        /* \"#utility.yul\":9807:9895   */\n      mstore\n        /* \"#utility.yul\":9914:9918   */\n      0x22\n        /* \"#utility.yul\":9911:9912   */\n      0x04\n        /* \"#utility.yul\":9904:9919   */\n      mstore\n        /* \"#utility.yul\":9938:9942   */\n      0x24\n        /* \"#utility.yul\":9935:9936   */\n      0x00\n        /* \"#utility.yul\":9928:9943   */\n      revert\n        /* \"#utility.yul\":9955:10275   */\n    tag_90:\n        /* \"#utility.yul\":9999:10005   */\n      0x00\n        /* \"#utility.yul\":10036:10037   */\n      0x02\n        /* \"#utility.yul\":10030:10034   */\n      dup3\n        /* \"#utility.yul\":10026:10038   */\n      div\n        /* \"#utility.yul\":10016:10038   */\n      swap1\n      pop\n        /* \"#utility.yul\":10083:10084   */\n      0x01\n        /* \"#utility.yul\":10077:10081   */\n      dup3\n        /* \"#utility.yul\":10073:10085   */\n      and\n        /* \"#utility.yul\":10104:10122   */\n      dup1\n        /* \"#utility.yul\":10094:10175   */\n      tag_342\n      jumpi\n        /* \"#utility.yul\":10160:10164   */\n      0x7f\n        /* \"#utility.yul\":10152:10158   */\n      dup3\n        /* \"#utility.yul\":10148:10165   */\n      and\n        /* \"#utility.yul\":10138:10165   */\n      swap2\n      pop\n        /* \"#utility.yul\":10094:10175   */\n    tag_342:\n        /* \"#utility.yul\":10222:10224   */\n      0x20\n        /* \"#utility.yul\":10214:10220   */\n      dup3\n        /* \"#utility.yul\":10211:10225   */\n      lt\n        /* \"#utility.yul\":10191:10209   */\n      dup2\n        /* \"#utility.yul\":10188:10226   */\n      sub\n        /* \"#utility.yul\":10185:10269   */\n      tag_343\n      jumpi\n        /* \"#utility.yul\":10241:10259   */\n      tag_344\n      tag_219\n      jump\t// in\n    tag_344:\n        /* \"#utility.yul\":10185:10269   */\n    tag_343:\n        /* \"#utility.yul\":10006:10275   */\n      pop\n        /* \"#utility.yul\":9955:10275   */\n      swap2\n      swap1\n      pop\n      jump\t// out\n        /* \"#utility.yul\":10281:10422   */\n    tag_220:\n        /* \"#utility.yul\":10330:10334   */\n      0x00\n        /* \"#utility.yul\":10353:10356   */\n      dup2\n        /* \"#utility.yul\":10345:10356   */\n      swap1\n      pop\n        /* \"#utility.yul\":10376:10379   */\n      dup2\n        /* \"#utility.yul\":10373:10374   */\n      0x00\n        /* \"#utility.yul\":10366:10380   */\n      mstore\n        /* \"#utility.yul\":10410:10414   */\n      0x20\n        /* \"#utility.yul\":10407:10408   */\n      0x00\n        /* \"#utility.yul\":10397:10415   */\n      keccak256\n        /* \"#utility.yul\":10389:10415   */\n      swap1\n      pop\n        /* \"#utility.yul\":10281:10422   */\n      swap2\n      swap1\n      pop\n      jump\t// out\n        /* \"#utility.yul\":10428:10521   */\n    tag_221:\n        /* \"#utility.yul\":10465:10471   */\n      0x00\n        /* \"#utility.yul\":10512:10514   */\n      0x20\n        /* \"#utility.yul\":10507:10509   */\n      0x1f\n        /* \"#utility.yul\":10500:10505   */\n      dup4\n        /* \"#utility.yul\":10496:10510   */\n      add\n        /* \"#utility.yul\":10492:10515   */\n      div\n        /* \"#utility.yul\":10482:10515   */\n      swap1\n      pop\n        /* \"#utility.yul\":10428:10521   */\n      swap2\n      swap1\n      pop\n      jump\t// out\n        /* \"#utility.yul\":10527:10634   */\n    tag_222:\n        /* \"#utility.yul\":10571:10579   */\n      0x00\n        /* \"#utility.yul\":10621:10626   */\n      dup3\n        /* \"#utility.yul\":10615:10619   */\n      dup3\n        /* \"#utility.yul\":10611:10627   */\n      shl\n        /* \"#utility.yul\":10590:10627   */\n      swap1\n      pop\n        /* \"#utility.yul\":10527:10634   */\n      swap3\n      swap2\n      pop\n      pop\n      jump\t// out\n        /* \"#utility.yul\":10640:11033   */\n    tag_223:\n        /* \"#utility.yul\":10709:10715   */\n      0x00\n        /* \"#utility.yul\":10759:10760   */\n      0x08\n        /* \"#utility.yul\":10747:10757   */\n      dup4\n        /* \"#utility.yul\":10743:10761   */\n      mul\n        /* \"#utility.yul\":10782:10879   */\n      tag_349\n        /* \"#utility.yul\":10812:10878   */\n      0xffffffffffffffffffffffffffffffffffffffffffffffffffffffffffffffff\n        /* \"#utility.yul\":10801:10810   */\n      dup3\n        /* \"#utility.yul\":10782:10879   */\n      tag_222\n      jump\t// in\n    tag_349:\n        /* \"#utility.yul\":10900:10939   */\n      tag_350\n        /* \"#utility.yul\":10930:10938   */\n      dup7\n        /* \"#utility.yul\":10919:10928   */\n      dup4\n        /* \"#utility.yul\":10900:10939   */\n      tag_222\n      jump\t// in\n    tag_350:\n        /* \"#utility.yul\":10888:10939   */\n      swap6\n      pop\n        /* \"#utility.yul\":10972:10976   */\n      dup1\n        /* \"#utility.yul\":10968:10977   */\n      not\n        /* \"#utility.yul\":10961:10966   */\n      dup5\n        /* \"#utility.yul\":10957:10978   */\n      and\n        /* \"#utility.yul\":10948:10978   */\n      swap4\n      pop\n        /* \"#utility.yul\":11021:11025   */\n      dup1\n        /* \"#utility.yul\":11011:11019   */\n      dup7\n        /* \"#utility.yul\":11007:11026   */\n      and\n        /* \"#utility.yul\":11000:11005   */\n      dup5\n        /* \"#utility.yul\":10997:11027   */\n      or\n        /* \"#utility.yul\":10987:11027   */\n      swap3\n      pop\n        /* \"#utility.yul\":10716:11033   */\n      pop\n      pop\n        /* \"#utility.yul\":10640:11033   */\n      swap4\n      swap3\n      pop\n      pop\n      pop\n      jump\t// out\n        /* \"#utility.yul\":11039:11116   */\n    tag_224:\n        /* \"#utility.yul\":11076:11083   */\n      0x00\n        /* \"#utility.yul\":11105:11110   */\n      dup2\n        /* \"#utility.yul\":11094:11110   */\n      swap1\n      pop\n        /* \"#utility.yul\":11039:11116   */\n      swap2\n      swap1\n      pop\n      jump\t// out\n        /* \"#utility.yul\":11122:11182   */\n    tag_225:\n        /* \"#utility.yul\":11150:11153   */\n      0x00\n        /* \"#utility.yul\":11171:11176   */\n      dup2\n        /* \"#utility.yul\":11164:11176   */\n      swap1\n      pop\n        /* \"#utility.yul\":11122:11182   */\n      swap2\n      swap1\n      pop\n      jump\t// out\n        /* \"#utility.yul\":11188:11330   */\n    tag_226:\n        /* \"#utility.yul\":11238:11247   */\n      0x00\n        /* \"#utility.yul\":11271:11324   */\n      tag_354\n        /* \"#utility.yul\":11289:11323   */\n      tag_355\n        /* \"#utility.yul\":11298:11322   */\n      tag_356\n        /* \"#utility.yul\":11316:11321   */\n      dup5\n        /* \"#utility.yul\":11298:11322   */\n      tag_224\n      jump\t// in\n    tag_356:\n        /* \"#utility.yul\":11289:11323   */\n      tag_225\n      jump\t// in\n    tag_355:\n        /* \"#utility.yul\":11271:11324   */\n      tag_224\n      jump\t// in\n    tag_354:\n        /* \"#utility.yul\":11258:11324   */\n      swap1\n      pop\n        /* \"#utility.yul\":11188:11330   */\n      swap2\n      swap1\n      pop\n      jump\t// out\n        /* \"#utility.yul\":11336:11411   */\n    tag_227:\n        /* \"#utility.yul\":11379:11382   */\n      0x00\n        /* \"#utility.yul\":11400:11405   */\n      dup2\n        /* \"#utility.yul\":11393:11405   */\n      swap1\n      pop\n        /* \"#utility.yul\":11336:11411   */\n      swap2\n      swap1\n      pop\n      jump\t// out\n        /* \"#utility.yul\":11417:11686   */\n    tag_228:\n        /* \"#utility.yul\":11527:11566   */\n      tag_359\n        /* \"#utility.yul\":11558:11565   */\n      dup4\n        /* \"#utility.yul\":11527:11566   */\n      tag_226\n      jump\t// in\n    tag_359:\n        /* \"#utility.yul\":11588:11679   */\n      tag_360\n        /* \"#utility.yul\":11637:11678   */\n      tag_361\n        /* \"#utility.yul\":11661:11677   */\n      dup3\n        /* \"#utility.yul\":11637:11678   */\n      tag_227\n      jump\t// in\n    tag_361:\n        /* \"#utility.yul\":11629:11635   */\n      dup5\n        /* \"#utility.yul\":11622:11626   */\n      dup5\n        /* \"#utility.yul\":11616:11627   */\n      sload\n        /* \"#utility.yul\":11588:11679   */\n      tag_223\n      jump\t// in\n    tag_360:\n        /* \"#utility.yul\":11582:11586   */\n      dup3\n        /* \"#utility.yul\":11575:11680   */\n      sstore\n        /* \"#utility.yul\":11493:11686   */\n      pop\n        /* \"#utility.yul\":11417:11686   */\n      pop\n      pop\n      pop\n      jump\t// out\n        /* \"#utility.yul\":11692:11765   */\n    tag_229:\n        /* \"#utility.yul\":11737:11740   */\n      0x00\n        /* \"#utility.yul\":11692:11765   */\n      swap1\n      jump\t// out\n        /* \"#utility.yul\":11771:11960   */\n    tag_230:\n        /* \"#utility.yul\":11848:11880   */\n      tag_364\n      tag_229\n      jump\t// in\n    tag_364:\n        /* \"#utility.yul\":11889:11954   */\n      tag_365\n        /* \"#utility.yul\":11947:11953   */\n      dup2\n        /* \"#utility.yul\":11939:11945   */\n      dup5\n        /* \"#utility.yul\":11933:11937   */\n      dup5\n        /* \"#utility.yul\":11889:11954   */\n      tag_228\n      jump\t// in\n    tag_365:\n        /* \"#utility.yul\":11824:11960   */\n      pop\n        /* \"#utility.yul\":11771:11960   */\n      pop\n      pop\n      jump\t// out\n        /* \"#utility.yul\":11966:12152   */\n    tag_231:\n        /* \"#utility.yul\":12026:12146   */\n    tag_367:\n        /* \"#utility.yul\":12043:12046   */\n      dup2\n        /* \"#utility.yul\":12036:12041   */\n      dup2\n        /* \"#utility.yul\":12033:12047   */\n      lt\n        /* \"#utility.yul\":12026:12146   */\n      iszero\n      tag_369\n      jumpi\n        /* \"#utility.yul\":12097:12136   */\n      tag_370\n        /* \"#utility.yul\":12134:12135   */\n      0x00\n        /* \"#utility.yul\":12127:12132   */\n      dup3\n        /* \"#utility.yul\":12097:12136   */\n      tag_230\n      jump\t// in\n    tag_370:\n        /* \"#utility.yul\":12070:12071   */\n      0x01\n        /* \"#utility.yul\":12063:12068   */\n      dup2\n        /* \"#utility.yul\":12059:12072   */\n      add\n        /* \"#utility.yul\":12050:12072   */\n      swap1\n      pop\n        /* \"#utility.yul\":12026:12146   */\n      jump(tag_367)\n    tag_369:\n        /* \"#utility.yul\":11966:12152   */\n      pop\n      pop\n      jump\t// out\n        /* \"#utility.yul\":12158:12701   */\n    tag_232:\n        /* \"#utility.yul\":12259:12261   */\n      0x1f\n        /* \"#utility.yul\":12254:12257   */\n      dup3\n        /* \"#utility.yul\":12251:12262   */\n      gt\n        /* \"#utility.yul\":12248:12694   */\n      iszero\n      tag_372\n      jumpi\n        /* \"#utility.yul\":12293:12331   */\n      tag_373\n        /* \"#utility.yul\":12325:12330   */\n      dup2\n        /* \"#utility.yul\":12293:12331   */\n      tag_220\n      jump\t// in\n    tag_373:\n        /* \"#utility.yul\":12377:12406   */\n      tag_374\n        /* \"#utility.yul\":12395:12405   */\n      dup5\n        /* \"#utility.yul\":12377:12406   */\n      tag_221\n      jump\t// in\n    tag_374:\n        /* \"#utility.yul\":12367:12375   */\n      dup2\n        /* \"#utility.yul\":12363:12407   */\n      add\n        /* \"#utility.yul\":12560:12562   */\n      0x20\n        /* \"#utility.yul\":12548:12558   */\n      dup6\n        /* \"#utility.yul\":12545:12563   */\n      lt\n        /* \"#utility.yul\":12542:12591   */\n      iszero\n      tag_375\n      jumpi\n        /* \"#utility.yul\":12581:12589   */\n      dup2\n        /* \"#utility.yul\":12566:12589   */\n      swap1\n      pop\n        /* \"#utility.yul\":12542:12591   */\n    tag_375:\n        /* \"#utility.yul\":12604:12684   */\n      tag_376\n        /* \"#utility.yul\":12660:12682   */\n      tag_377\n        /* \"#utility.yul\":12678:12681   */\n      dup6\n        /* \"#utility.yul\":12660:12682   */\n      tag_221\n      jump\t// in\n    tag_377:\n        /* \"#utility.yul\":12650:12658   */\n      dup4\n        /* \"#utility.yul\":12646:12683   */\n      add\n        /* \"#utility.yul\":12633:12644   */\n      dup3\n        /* \"#utility.yul\":12604:12684   */\n      tag_231\n      jump\t// in\n    tag_376:\n        /* \"#utility.yul\":12263:12694   */\n      pop\n      pop\n        /* \"#utility.yul\":12248:12694   */\n    tag_372:\n        /* \"#utility.yul\":12158:12701   */\n      pop\n      pop\n      pop\n      jump\t// out\n        /* \"#utility.yul\":12707:12824   */\n    tag_233:\n        /* \"#utility.yul\":12761:12769   */\n      0x00\n        /* \"#utility.yul\":12811:12816   */\n      dup3\n        /* \"#utility.yul\":12805:12809   */\n      dup3\n        /* \"#utility.yul\":12801:12817   */\n      shr\n        /* \"#utility.yul\":12780:12817   */\n      swap1\n      pop\n        /* \"#utility.yul\":12707:12824   */\n      swap3\n      swap2\n      pop\n      pop\n      jump\t// out\n        /* \"#utility.yul\":12830:12999   */\n    tag_234:\n        /* \"#utility.yul\":12874:12880   */\n      0x00\n        /* \"#utility.yul\":12907:12958   */\n      tag_380\n        /* \"#utility.yul\":12955:12956   */\n      0x00\n        /* \"#utility.yul\":12951:12957   */\n      not\n        /* \"#utility.yul\":12943:12948   */\n      dup5\n        /* \"#utility.yul\":12940:12941   */\n      0x08\n        /* \"#utility.yul\":12936:12949   */\n      mul\n        /* \"#utility.yul\":12907:12958   */\n      tag_233\n      jump\t// in\n    tag_380:\n        /* \"#utility.yul\":12903:12959   */\n      not\n        /* \"#utility.yul\":12988:12992   */\n      dup1\n        /* \"#utility.yul\":12982:12986   */\n      dup4\n        /* \"#utility.yul\":12978:12993   */\n      and\n        /* \"#utility.yul\":12968:12993   */\n      swap2\n      pop\n        /* \"#utility.yul\":12881:12999   */\n      pop\n        /* \"#utility.yul\":12830:12999   */\n      swap3\n      swap2\n      pop\n      pop\n      jump\t// out\n        /* \"#utility.yul\":13004:13299   */\n    tag_235:\n        /* \"#utility.yul\":13080:13084   */\n      0x00\n        /* \"#utility.yul\":13226:13255   */\n      tag_382\n        /* \"#utility.yul\":13251:13254   */\n      dup4\n        /* \"#utility.yul\":13245:13249   */\n      dup4\n        /* \"#utility.yul\":13226:13255   */\n      tag_234\n      jump\t// in\n    tag_382:\n        /* \"#utility.yul\":13218:13255   */\n      swap2\n      pop\n        /* \"#utility.yul\":13288:13291   */\n      dup3\n        /* \"#utility.yul\":13285:13286   */\n      0x02\n        /* \"#utility.yul\":13281:13292   */\n      mul\n        /* \"#utility.yul\":13275:13279   */\n      dup3\n        /* \"#utility.yul\":13272:13293   */\n      or\n        /* \"#utility.yul\":13264:13293   */\n      swap1\n      pop\n        /* \"#utility.yul\":13004:13299   */\n      swap3\n      swap2\n      pop\n      pop\n      jump\t// out\n        /* \"#utility.yul\":13304:14699   */\n    tag_78:\n        /* \"#utility.yul\":13421:13458   */\n      tag_384\n        /* \"#utility.yul\":13454:13457   */\n      dup3\n        /* \"#utility.yul\":13421:13458   */\n      tag_213\n      jump\t// in\n    tag_384:\n        /* \"#utility.yul\":13523:13541   */\n      0xffffffffffffffff\n        /* \"#utility.yul\":13515:13521   */\n      dup2\n        /* \"#utility.yul\":13512:13542   */\n      gt\n        /* \"#utility.yul\":13509:13565   */\n      iszero\n      tag_385\n      jumpi\n        /* \"#utility.yul\":13545:13563   */\n      tag_386\n      tag_206\n      jump\t// in\n    tag_386:\n        /* \"#utility.yul\":13509:13565   */\n    tag_385:\n        /* \"#utility.yul\":13589:13627   */\n      tag_387\n        /* \"#utility.yul\":13621:13625   */\n      dup3\n        /* \"#utility.yul\":13615:13626   */\n      sload\n        /* \"#utility.yul\":13589:13627   */\n      tag_90\n      jump\t// in\n    tag_387:\n        /* \"#utility.yul\":13674:13741   */\n      tag_388\n        /* \"#utility.yul\":13734:13740   */\n      dup3\n        /* \"#utility.yul\":13726:13732   */\n      dup3\n        /* \"#utility.yul\":13720:13724   */\n      dup6\n        /* \"#utility.yul\":13674:13741   */\n      tag_232\n      jump\t// in\n    tag_388:\n        /* \"#utility.yul\":13768:13769   */\n      0x00\n        /* \"#utility.yul\":13792:13796   */\n      0x20\n        /* \"#utility.yul\":13779:13796   */\n      swap1\n      pop\n        /* \"#utility.yul\":13824:13826   */\n      0x1f\n        /* \"#utility.yul\":13816:13822   */\n      dup4\n        /* \"#utility.yul\":13813:13827   */\n      gt\n        /* \"#utility.yul\":13841:13842   */\n      0x01\n        /* \"#utility.yul\":13836:14454   */\n      dup2\n      eq\n      tag_390\n      jumpi\n        /* \"#utility.yul\":14498:14499   */\n      0x00\n        /* \"#utility.yul\":14515:14521   */\n      dup5\n        /* \"#utility.yul\":14512:14589   */\n      iszero\n      tag_391\n      jumpi\n        /* \"#utility.yul\":14564:14573   */\n      dup3\n        /* \"#utility.yul\":14559:14562   */\n      dup8\n        /* \"#utility.yul\":14555:14574   */\n      add\n        /* \"#utility.yul\":14549:14575   */\n      mload\n        /* \"#utility.yul\":14540:14575   */\n      swap1\n      pop\n        /* \"#utility.yul\":14512:14589   */\n    tag_391:\n        /* \"#utility.yul\":14615:14682   */\n      tag_392\n        /* \"#utility.yul\":14675:14681   */\n      dup6\n        /* \"#utility.yul\":14668:14673   */\n      dup3\n        /* \"#utility.yul\":14615:14682   */\n      tag_235\n      jump\t// in\n    tag_392:\n        /* \"#utility.yul\":14609:14613   */\n      dup7\n        /* \"#utility.yul\":14602:14683   */\n      sstore\n        /* \"#utility.yul\":14471:14693   */\n      pop\n        /* \"#utility.yul\":13806:14693   */\n      jump(tag_389)\n        /* \"#utility.yul\":13836:14454   */\n    tag_390:\n        /* \"#utility.yul\":13888:13892   */\n      0x1f\n        /* \"#utility.yul\":13884:13893   */\n      not\n        /* \"#utility.yul\":13876:13882   */\n      dup5\n        /* \"#utility.yul\":13872:13894   */\n      and\n        /* \"#utility.yul\":13922:13959   */\n      tag_393\n        /* \"#utility.yul\":13954:13958   */\n      dup7\n        /* \"#utility.yul\":13922:13959   */\n      tag_220\n      jump\t// in\n    tag_393:\n        /* \"#utility.yul\":13981:13982   */\n      0x00\n        /* \"#utility.yul\":13995:14203   */\n    tag_394:\n        /* \"#utility.yul\":14009:14016   */\n      dup3\n        /* \"#utility.yul\":14006:14007   */\n      dup2\n        /* \"#utility.yul\":14003:14017   */\n      lt\n        /* \"#utility.yul\":13995:14203   */\n      iszero\n      tag_396\n      jumpi\n        /* \"#utility.yul\":14088:14097   */\n      dup5\n        /* \"#utility.yul\":14083:14086   */\n      dup10\n        /* \"#utility.yul\":14079:14098   */\n      add\n        /* \"#utility.yul\":14073:14099   */\n      mload\n        /* \"#utility.yul\":14065:14071   */\n      dup3\n        /* \"#utility.yul\":14058:14100   */\n      sstore\n        /* \"#utility.yul\":14139:14140   */\n      0x01\n        /* \"#utility.yul\":14131:14137   */\n      dup3\n        /* \"#utility.yul\":14127:14141   */\n      add\n        /* \"#utility.yul\":14117:14141   */\n      swap2\n      pop\n        /* \"#utility.yul\":14186:14188   */\n      0x20\n        /* \"#utility.yul\":14175:14184   */\n      dup6\n        /* \"#utility.yul\":14171:14189   */\n      add\n        /* \"#utility.yul\":14158:14189   */\n      swap5\n      pop\n        /* \"#utility.yul\":14032:14036   */\n      0x20\n        /* \"#utility.yul\":14029:14030   */\n      dup2\n        /* \"#utility.yul\":14025:14037   */\n      add\n        /* \"#utility.yul\":14020:14037   */\n      swap1\n      pop\n        /* \"#utility.yul\":13995:14203   */\n      jump(tag_394)\n    tag_396:\n        /* \"#utility.yul\":14231:14237   */\n      dup7\n        /* \"#utility.yul\":14222:14229   */\n      dup4\n        /* \"#utility.yul\":14219:14238   */\n      lt\n        /* \"#utility.yul\":14216:14395   */\n      iszero\n      tag_397\n      jumpi\n        /* \"#utility.yul\":14289:14298   */\n      dup5\n        /* \"#utility.yul\":14284:14287   */\n      dup10\n        /* \"#utility.yul\":14280:14299   */\n      add\n        /* \"#utility.yul\":14274:14300   */\n      mload\n        /* \"#utility.yul\":14332:14380   */\n      tag_398\n        /* \"#utility.yul\":14374:14378   */\n      0x1f\n        /* \"#utility.yul\":14366:14372   */\n      dup10\n        /* \"#utility.yul\":14362:14379   */\n      and\n        /* \"#utility.yul\":14351:14360   */\n      dup3\n        /* \"#utility.yul\":14332:14380   */\n      tag_234\n      jump\t// in\n    tag_398:\n        /* \"#utility.yul\":14324:14330   */\n      dup4\n        /* \"#utility.yul\":14317:14381   */\n      sstore\n        /* \"#utility.yul\":14239:14395   */\n      pop\n        /* \"#utility.yul\":14216:14395   */\n    tag_397:\n        /* \"#utility.yul\":14441:14442   */\n      0x01\n        /* \"#utility.yul\":14437:14438   */\n      0x02\n        /* \"#utility.yul\":14429:14435   */\n      dup9\n        /* \"#utility.yul\":14425:14439   */\n      mul\n        /* \"#utility.yul\":14421:14443   */\n      add\n        /* \"#utility.yul\":14415:14419   */\n      dup9\n        /* \"#utility.yul\":14408:14444   */\n      sstore\n        /* \"#utility.yul\":13843:14454   */\n      pop\n      pop\n      pop\n        /* \"#utility.yul\":13806:14693   */\n    tag_389:\n      pop\n        /* \"#utility.yul\":13396:14699   */\n      pop\n      pop\n      pop\n        /* \"#utility.yul\":13304:14699   */\n      pop\n      pop\n      jump\t// out\n        /* \"#utility.yul\":14705:14795   */\n    tag_236:\n        /* \"#utility.yul\":14739:14746   */\n      0x00\n        /* \"#utility.yul\":14782:14787   */\n      dup2\n        /* \"#utility.yul\":14775:14788   */\n      iszero\n        /* \"#utility.yul\":14768:14789   */\n      iszero\n        /* \"#utility.yul\":14757:14789   */\n      swap1\n      pop\n        /* \"#utility.yul\":14705:14795   */\n      swap2\n      swap1\n      pop\n      jump\t// out\n        /* \"#utility.yul\":14801:14910   */\n    tag_237:\n        /* \"#utility.yul\":14882:14903   */\n      tag_401\n        /* \"#utility.yul\":14897:14902   */\n      dup2\n        /* \"#utility.yul\":14882:14903   */\n      tag_236\n      jump\t// in\n    tag_401:\n        /* \"#utility.yul\":14877:14880   */\n      dup3\n        /* \"#utility.yul\":14870:14904   */\n      mstore\n        /* \"#utility.yul\":14801:14910   */\n      pop\n      pop\n      jump\t// out\n        /* \"#utility.yul\":14916:15327   */\n    tag_81:\n        /* \"#utility.yul\":15051:15055   */\n      0x00\n        /* \"#utility.yul\":15089:15091   */\n      0x40\n        /* \"#utility.yul\":15078:15087   */\n      dup3\n        /* \"#utility.yul\":15074:15092   */\n      add\n        /* \"#utility.yul\":15066:15092   */\n      swap1\n      pop\n        /* \"#utility.yul\":15138:15147   */\n      dup2\n        /* \"#utility.yul\":15132:15136   */\n      dup2\n        /* \"#utility.yul\":15128:15148   */\n      sub\n        /* \"#utility.yul\":15124:15125   */\n      0x00\n        /* \"#utility.yul\":15113:15122   */\n      dup4\n        /* \"#utility.yul\":15109:15126   */\n      add\n        /* \"#utility.yul\":15102:15149   */\n      mstore\n        /* \"#utility.yul\":15166:15244   */\n      tag_403\n        /* \"#utility.yul\":15239:15243   */\n      dup2\n        /* \"#utility.yul\":15230:15236   */\n      dup6\n        /* \"#utility.yul\":15166:15244   */\n      tag_216\n      jump\t// in\n    tag_403:\n        /* \"#utility.yul\":15158:15244   */\n      swap1\n      pop\n        /* \"#utility.yul\":15254:15320   */\n      tag_404\n        /* \"#utility.yul\":15316:15318   */\n      0x20\n        /* \"#utility.yul\":15305:15314   */\n      dup4\n        /* \"#utility.yul\":15301:15319   */\n      add\n        /* \"#utility.yul\":15292:15298   */\n      dup5\n        /* \"#utility.yul\":15254:15320   */\n      tag_237\n      jump\t// in\n    tag_404:\n        /* \"#utility.yul\":14916:15327   */\n      swap4\n      swap3\n      pop\n      pop\n      pop\n      jump\t// out\n        /* \"#utility.yul\":15333:15509   */\n    tag_238:\n        /* \"#utility.yul\":15473:15501   */\n      0x50726976617465206b657920616c7265616479206d6170706564000000000000\n        /* \"#utility.yul\":15469:15470   */\n      0x00\n        /* \"#utility.yul\":15461:15467   */\n      dup3\n        /* \"#utility.yul\":15457:15471   */\n      add\n        /* \"#utility.yul\":15450:15502   */\n      mstore\n        /* \"#utility.yul\":15333:15509   */\n      pop\n      jump\t// out\n        /* \"#utility.yul\":15515:15881   */\n    tag_239:\n        /* \"#utility.yul\":15657:15660   */\n      0x00\n        /* \"#utility.yul\":15678:15745   */\n      tag_407\n        /* \"#utility.yul\":15742:15744   */\n      0x1a\n        /* \"#utility.yul\":15737:15740   */\n      dup4\n        /* \"#utility.yul\":15678:15745   */\n      tag_214\n      jump\t// in\n    tag_407:\n        /* \"#utility.yul\":15671:15745   */\n      swap2\n      pop\n        /* \"#utility.yul\":15754:15847   */\n      tag_408\n        /* \"#utility.yul\":15843:15846   */\n      dup3\n        /* \"#utility.yul\":15754:15847   */\n      tag_238\n      jump\t// in\n    tag_408:\n        /* \"#utility.yul\":15872:15874   */\n      0x20\n        /* \"#utility.yul\":15867:15870   */\n      dup3\n        /* \"#utility.yul\":15863:15875   */\n      add\n        /* \"#utility.yul\":15856:15875   */\n      swap1\n      pop\n        /* \"#utility.yul\":15515:15881   */\n      swap2\n      swap1\n      pop\n      jump\t// out\n        /* \"#utility.yul\":15887:16306   */\n    tag_93:\n        /* \"#utility.yul\":16053:16057   */\n      0x00\n        /* \"#utility.yul\":16091:16093   */\n      0x20\n        /* \"#utility.yul\":16080:16089   */\n      dup3\n        /* \"#utility.yul\":16076:16094   */\n      add\n        /* \"#utility.yul\":16068:16094   */\n      swap1\n      pop\n        /* \"#utility.yul\":16140:16149   */\n      dup2\n        /* \"#utility.yul\":16134:16138   */\n      dup2\n        /* \"#utility.yul\":16130:16150   */\n      sub\n        /* \"#utility.yul\":16126:16127   */\n      0x00\n        /* \"#utility.yul\":16115:16124   */\n      dup4\n        /* \"#utility.yul\":16111:16128   */\n      add\n        /* \"#utility.yul\":16104:16151   */\n      mstore\n        /* \"#utility.yul\":16168:16299   */\n      tag_410\n        /* \"#utility.yul\":16294:16298   */\n      dup2\n        /* \"#utility.yul\":16168:16299   */\n      tag_239\n      jump\t// in\n    tag_410:\n        /* \"#utility.yul\":16160:16299   */\n      swap1\n      pop\n        /* \"#utility.yul\":15887:16306   */\n      swap2\n      swap1\n      pop\n      jump\t// out\n        /* \"#utility.yul\":16312:16481   */\n    tag_240:\n        /* \"#utility.yul\":16452:16473   */\n      0x5573657220616c72656164792065786973747300000000000000000000000000\n        /* \"#utility.yul\":16448:16449   */\n      0x00\n        /* \"#utility.yul\":16440:16446   */\n      dup3\n        /* \"#utility.yul\":16436:16450   */\n      add\n        /* \"#utility.yul\":16429:16474   */\n      mstore\n        /* \"#utility.yul\":16312:16481   */\n      pop\n      jump\t// out\n        /* \"#utility.yul\":16487:16853   */\n    tag_241:\n        /* \"#utility.yul\":16629:16632   */\n      0x00\n        /* \"#utility.yul\":16650:16717   */\n      tag_413\n        /* \"#utility.yul\":16714:16716   */\n      0x13\n        /* \"#utility.yul\":16709:16712   */\n      dup4\n        /* \"#utility.yul\":16650:16717   */\n      tag_214\n      jump\t// in\n    tag_413:\n        /* \"#utility.yul\":16643:16717   */\n      swap2\n      pop\n        /* \"#utility.yul\":16726:16819   */\n      tag_414\n        /* \"#utility.yul\":16815:16818   */\n      dup3\n        /* \"#utility.yul\":16726:16819   */\n      tag_240\n      jump\t// in\n    tag_414:\n        /* \"#utility.yul\":16844:16846   */\n      0x20\n        /* \"#utility.yul\":16839:16842   */\n      dup3\n        /* \"#utility.yul\":16835:16847   */\n      add\n        /* \"#utility.yul\":16828:16847   */\n      swap1\n      pop\n        /* \"#utility.yul\":16487:16853   */\n      swap2\n      swap1\n      pop\n      jump\t// out\n        /* \"#utility.yul\":16859:17278   */\n    tag_101:\n        /* \"#utility.yul\":17025:17029   */\n      0x00\n        /* \"#utility.yul\":17063:17065   */\n      0x20\n        /* \"#utility.yul\":17052:17061   */\n      dup3\n        /* \"#utility.yul\":17048:17066   */\n      add\n        /* \"#utility.yul\":17040:17066   */\n      swap1\n      pop\n        /* \"#utility.yul\":17112:17121   */\n      dup2\n        /* \"#utility.yul\":17106:17110   */\n      dup2\n        /* \"#utility.yul\":17102:17122   */\n      sub\n        /* \"#utility.yul\":17098:17099   */\n      0x00\n        /* \"#utility.yul\":17087:17096   */\n      dup4\n        /* \"#utility.yul\":17083:17100   */\n      add\n        /* \"#utility.yul\":17076:17123   */\n      mstore\n        /* \"#utility.yul\":17140:17271   */\n      tag_416\n        /* \"#utility.yul\":17266:17270   */\n      dup2\n        /* \"#utility.yul\":17140:17271   */\n      tag_241\n      jump\t// in\n    tag_416:\n        /* \"#utility.yul\":17132:17271   */\n      swap1\n      pop\n        /* \"#utility.yul\":16859:17278   */\n      swap2\n      swap1\n      pop\n      jump\t// out\n        /* \"#utility.yul\":17284:17460   */\n    tag_242:\n        /* \"#utility.yul\":17424:17452   */\n      0x50726976617465206b657920616c726561647920696e20757365000000000000\n        /* \"#utility.yul\":17420:17421   */\n      0x00\n        /* \"#utility.yul\":17412:17418   */\n      dup3\n        /* \"#utility.yul\":17408:17422   */\n      add\n        /* \"#utility.yul\":17401:17453   */\n      mstore\n        /* \"#utility.yul\":17284:17460   */\n      pop\n      jump\t// out\n        /* \"#utility.yul\":17466:17832   */\n    tag_243:\n        /* \"#utility.yul\":17608:17611   */\n      0x00\n        /* \"#utility.yul\":17629:17696   */\n      tag_419\n        /* \"#utility.yul\":17693:17695   */\n      0x1a\n        /* \"#utility.yul\":17688:17691   */\n      dup4\n        /* \"#utility.yul\":17629:17696   */\n      tag_214\n      jump\t// in\n    tag_419:\n        /* \"#utility.yul\":17622:17696   */\n      swap2\n      pop\n        /* \"#utility.yul\":17705:17798   */\n      tag_420\n        /* \"#utility.yul\":17794:17797   */\n      dup3\n        /* \"#utility.yul\":17705:17798   */\n      tag_242\n      jump\t// in\n    tag_420:\n        /* \"#utility.yul\":17823:17825   */\n      0x20\n        /* \"#utility.yul\":17818:17821   */\n      dup3\n        /* \"#utility.yul\":17814:17826   */\n      add\n        /* \"#utility.yul\":17807:17826   */\n      swap1\n      pop\n        /* \"#utility.yul\":17466:17832   */\n      swap2\n      swap1\n      pop\n      jump\t// out\n        /* \"#utility.yul\":17838:18257   */\n    tag_106:\n        /* \"#utility.yul\":18004:18008   */\n      0x00\n        /* \"#utility.yul\":18042:18044   */\n      0x20\n        /* \"#utility.yul\":18031:18040   */\n      dup3\n        /* \"#utility.yul\":18027:18045   */\n      add\n        /* \"#utility.yul\":18019:18045   */\n      swap1\n      pop\n        /* \"#utility.yul\":18091:18100   */\n      dup2\n        /* \"#utility.yul\":18085:18089   */\n      dup2\n        /* \"#utility.yul\":18081:18101   */\n      sub\n        /* \"#utility.yul\":18077:18078   */\n      0x00\n        /* \"#utility.yul\":18066:18075   */\n      dup4\n        /* \"#utility.yul\":18062:18079   */\n      add\n        /* \"#utility.yul\":18055:18102   */\n      mstore\n        /* \"#utility.yul\":18119:18250   */\n      tag_422\n        /* \"#utility.yul\":18245:18249   */\n      dup2\n        /* \"#utility.yul\":18119:18250   */\n      tag_243\n      jump\t// in\n    tag_422:\n        /* \"#utility.yul\":18111:18250   */\n      swap1\n      pop\n        /* \"#utility.yul\":17838:18257   */\n      swap2\n      swap1\n      pop\n      jump\t// out\n\n    auxdata: 0xa26469706673582212208b38f079402f92494302c6ec6372634b9d347c22830eeebdfe4064fece4e540064736f6c63430008160033\n}\n",
				"bytecode": {
					"linkReferences": {},
					"object": "608060405234801561000f575f80fd5b506118e78061001d5f395ff3fe608060405234801561000f575f80fd5b50600436106100e8575f3560e01c8063a1d01bb11161008a578063c87203a111610064578063c87203a114610259578063ccca8f2214610289578063ee7476d5146102b9578063f7ffd625146102d5576100e8565b8063a1d01bb1146101dd578063beb8727f146101f9578063bf50184414610229576100e8565b80635abb69e1116100c65780635abb69e114610140578063689e1c031461015c578063892d069c146101915780638c9a2e92146101ad576100e8565b80630d60fafd146100ec57806327897557146101085780635a7fb9d714610124575b5f80fd5b610106600480360381019061010191906110ce565b610305565b005b610122600480360381019061011d91906110ce565b610387565b005b61013e600480360381019061013991906110ce565b610409565b005b61015a60048036038101906101559190611144565b6104a5565b005b610176600480360381019061017191906112a5565b610665565b60405161018896959493929190611366565b60405180910390f35b6101ab60048036038101906101a691906110ce565b6109d8565b005b6101c760048036038101906101c291906112a5565b610a5a565b6040516101d491906113ef565b60405180910390f35b6101f760048036038101906101f291906110ce565b610b0a565b005b610213600480360381019061020e91906112a5565b610b8c565b60405161022091906113ef565b60405180910390f35b610243600480360381019061023e91906112a5565b610c3c565b60405161025091906113ef565b60405180910390f35b610273600480360381019061026e91906112a5565b610cef565b60405161028091906113ef565b60405180910390f35b6102a3600480360381019061029e91906112a5565b610d9f565b6040516102b091906113ef565b60405180910390f35b6102d360048036038101906102ce91906110ce565b610e4f565b005b6102ef60048036038101906102ea91906112a5565b610ed1565b6040516102fc91906113ef565b60405180910390f35b805f836040516103159190611449565b908152602001604051809103902060030190816103329190611662565b50816040516103419190611449565b60405180910390207fa44feca31ca2b9cda9b6dec473fbbc131c350db90a2f95915bcd051cdc5e10ba82600160405161037b92919061174b565b60405180910390a25050565b805f836040516103979190611449565b908152602001604051809103902060010190816103b49190611662565b50816040516103c39190611449565b60405180910390207fa76f1708714ecb5aed9ae4c006eafbf67941b726bb287f861c599f2286fdf7788260016040516103fd92919061174b565b60405180910390a25050565b5f60018360405161041a9190611449565b908152602001604051809103902080546104339061148c565b905014610475576040517f08c379a000000000000000000000000000000000000000000000000000000000815260040161046c906117c3565b60405180910390fd5b806001836040516104869190611449565b908152602001604051809103902090816104a09190611662565b505050565b5f80886040516104b59190611449565b90815260200160405180910390205f0180546104d09061148c565b905014610512576040517f08c379a00000000000000000000000000000000000000000000000000000000081526004016105099061182b565b60405180910390fd5b5f6001836040516105239190611449565b9081526020016040518091039020805461053c9061148c565b90501461057e576040517f08c379a000000000000000000000000000000000000000000000000000000000815260040161057590611893565b60405180910390fd5b5f6040518060c00160405280898152602001888152602001878152602001868152602001858152602001838152509050805f896040516105be9190611449565b90815260200160405180910390205f820151815f0190816105df9190611662565b5060208201518160010190816105f59190611662565b50604082015181600201908161060b9190611662565b5060608201518160030190816106219190611662565b5060808201518160040190816106379190611662565b5060a082015181600501908161064d9190611662565b5090505061065b8389610409565b5050505050505050565b5f818051602081018201805184825260208301602085012081835280955050505050505f91509050805f01805461069b9061148c565b80601f01602080910402602001604051908101604052809291908181526020018280546106c79061148c565b80156107125780601f106106e957610100808354040283529160200191610712565b820191905f5260205f20905b8154815290600101906020018083116106f557829003601f168201915b5050505050908060010180546107279061148c565b80601f01602080910402602001604051908101604052809291908181526020018280546107539061148c565b801561079e5780601f106107755761010080835404028352916020019161079e565b820191905f5260205f20905b81548152906001019060200180831161078157829003601f168201915b5050505050908060020180546107b39061148c565b80601f01602080910402602001604051908101604052809291908181526020018280546107df9061148c565b801561082a5780601f106108015761010080835404028352916020019161082a565b820191905f5260205f20905b81548152906001019060200180831161080d57829003601f168201915b50505050509080600301805461083f9061148c565b80601f016020809104026020016040519081016040528092919081815260200182805461086b9061148c565b80156108b65780601f1061088d576101008083540402835291602001916108b6565b820191905f5260205f20905b81548152906001019060200180831161089957829003601f168201915b5050505050908060040180546108cb9061148c565b80601f01602080910402602001604051908101604052809291908181526020018280546108f79061148c565b80156109425780601f1061091957610100808354040283529160200191610942565b820191905f5260205f20905b81548152906001019060200180831161092557829003601f168201915b5050505050908060050180546109579061148c565b80601f01602080910402602001604051908101604052809291908181526020018280546109839061148c565b80156109ce5780601f106109a5576101008083540402835291602001916109ce565b820191905f5260205f20905b8154815290600101906020018083116109b157829003601f168201915b5050505050905086565b805f836040516109e89190611449565b90815260200160405180910390206002019081610a059190611662565b5081604051610a149190611449565b60405180910390207f480bdec02bf73c6c075a8db62d725863401ec6d719a3ff0c25b87ac13569c5f2826001604051610a4e92919061174b565b60405180910390a25050565b60605f82604051610a6b9190611449565b90815260200160405180910390206001018054610a879061148c565b80601f0160208091040260200160405190810160405280929190818152602001828054610ab39061148c565b8015610afe5780601f10610ad557610100808354040283529160200191610afe565b820191905f5260205f20905b815481529060010190602001808311610ae157829003601f168201915b50505050509050919050565b805f83604051610b1a9190611449565b90815260200160405180910390206005019081610b379190611662565b5081604051610b469190611449565b60405180910390207f7bf8298c7d1e9fcf619723b05ebea1ce9c8496011bff291ae354a59b120374ba826001604051610b8092919061174b565b60405180910390a25050565b60605f82604051610b9d9190611449565b90815260200160405180910390206004018054610bb99061148c565b80601f0160208091040260200160405190810160405280929190818152602001828054610be59061148c565b8015610c305780601f10610c0757610100808354040283529160200191610c30565b820191905f5260205f20905b815481529060010190602001808311610c1357829003601f168201915b50505050509050919050565b6001818051602081018201805184825260208301602085012081835280955050505050505f915090508054610c709061148c565b80601f0160208091040260200160405190810160405280929190818152602001828054610c9c9061148c565b8015610ce75780601f10610cbe57610100808354040283529160200191610ce7565b820191905f5260205f20905b815481529060010190602001808311610cca57829003601f168201915b505050505081565b60605f82604051610d009190611449565b90815260200160405180910390206005018054610d1c9061148c565b80601f0160208091040260200160405190810160405280929190818152602001828054610d489061148c565b8015610d935780601f10610d6a57610100808354040283529160200191610d93565b820191905f5260205f20905b815481529060010190602001808311610d7657829003601f168201915b50505050509050919050565b60605f82604051610db09190611449565b90815260200160405180910390206003018054610dcc9061148c565b80601f0160208091040260200160405190810160405280929190818152602001828054610df89061148c565b8015610e435780601f10610e1a57610100808354040283529160200191610e43565b820191905f5260205f20905b815481529060010190602001808311610e2657829003601f168201915b50505050509050919050565b805f83604051610e5f9190611449565b90815260200160405180910390206004019081610e7c9190611662565b5081604051610e8b9190611449565b60405180910390207fae584fab5e8f7cfd659e7b4c2d09184ef8d88c791a136a070039ae4c135b8ec7826001604051610ec592919061174b565b60405180910390a25050565b60605f82604051610ee29190611449565b90815260200160405180910390206002018054610efe9061148c565b80601f0160208091040260200160405190810160405280929190818152602001828054610f2a9061148c565b8015610f755780601f10610f4c57610100808354040283529160200191610f75565b820191905f5260205f20905b815481529060010190602001808311610f5857829003601f168201915b50505050509050919050565b5f604051905090565b5f80fd5b5f80fd5b5f80fd5b5f80fd5b5f601f19601f8301169050919050565b7f4e487b71000000000000000000000000000000000000000000000000000000005f52604160045260245ffd5b610fe082610f9a565b810181811067ffffffffffffffff82111715610fff57610ffe610faa565b5b80604052505050565b5f611011610f81565b905061101d8282610fd7565b919050565b5f67ffffffffffffffff82111561103c5761103b610faa565b5b61104582610f9a565b9050602081019050919050565b828183375f83830152505050565b5f61107261106d84611022565b611008565b90508281526020810184848401111561108e5761108d610f96565b5b611099848285611052565b509392505050565b5f82601f8301126110b5576110b4610f92565b5b81356110c5848260208601611060565b91505092915050565b5f80604083850312156110e4576110e3610f8a565b5b5f83013567ffffffffffffffff81111561110157611100610f8e565b5b61110d858286016110a1565b925050602083013567ffffffffffffffff81111561112e5761112d610f8e565b5b61113a858286016110a1565b9150509250929050565b5f805f805f805f60e0888a03121561115f5761115e610f8a565b5b5f88013567ffffffffffffffff81111561117c5761117b610f8e565b5b6111888a828b016110a1565b975050602088013567ffffffffffffffff8111156111a9576111a8610f8e565b5b6111b58a828b016110a1565b965050604088013567ffffffffffffffff8111156111d6576111d5610f8e565b5b6111e28a828b016110a1565b955050606088013567ffffffffffffffff81111561120357611202610f8e565b5b61120f8a828b016110a1565b945050608088013567ffffffffffffffff8111156112305761122f610f8e565b5b61123c8a828b016110a1565b93505060a088013567ffffffffffffffff81111561125d5761125c610f8e565b5b6112698a828b016110a1565b92505060c088013567ffffffffffffffff81111561128a57611289610f8e565b5b6112968a828b016110a1565b91505092959891949750929550565b5f602082840312156112ba576112b9610f8a565b5b5f82013567ffffffffffffffff8111156112d7576112d6610f8e565b5b6112e3848285016110a1565b91505092915050565b5f81519050919050565b5f82825260208201905092915050565b5f5b83811015611323578082015181840152602081019050611308565b5f8484015250505050565b5f611338826112ec565b61134281856112f6565b9350611352818560208601611306565b61135b81610f9a565b840191505092915050565b5f60c0820190508181035f83015261137e818961132e565b90508181036020830152611392818861132e565b905081810360408301526113a6818761132e565b905081810360608301526113ba818661132e565b905081810360808301526113ce818561132e565b905081810360a08301526113e2818461132e565b9050979650505050505050565b5f6020820190508181035f830152611407818461132e565b905092915050565b5f81905092915050565b5f611423826112ec565b61142d818561140f565b935061143d818560208601611306565b80840191505092915050565b5f6114548284611419565b915081905092915050565b7f4e487b71000000000000000000000000000000000000000000000000000000005f52602260045260245ffd5b5f60028204905060018216806114a357607f821691505b6020821081036114b6576114b561145f565b5b50919050565b5f819050815f5260205f209050919050565b5f6020601f8301049050919050565b5f82821b905092915050565b5f600883026115187fffffffffffffffffffffffffffffffffffffffffffffffffffffffffffffffff826114dd565b61152286836114dd565b95508019841693508086168417925050509392505050565b5f819050919050565b5f819050919050565b5f61156661156161155c8461153a565b611543565b61153a565b9050919050565b5f819050919050565b61157f8361154c565b61159361158b8261156d565b8484546114e9565b825550505050565b5f90565b6115a761159b565b6115b2818484611576565b505050565b5b818110156115d5576115ca5f8261159f565b6001810190506115b8565b5050565b601f82111561161a576115eb816114bc565b6115f4846114ce565b81016020851015611603578190505b61161761160f856114ce565b8301826115b7565b50505b505050565b5f82821c905092915050565b5f61163a5f198460080261161f565b1980831691505092915050565b5f611652838361162b565b9150826002028217905092915050565b61166b826112ec565b67ffffffffffffffff81111561168457611683610faa565b5b61168e825461148c565b6116998282856115d9565b5f60209050601f8311600181146116ca575f84156116b8578287015190505b6116c28582611647565b865550611729565b601f1984166116d8866114bc565b5f5b828110156116ff578489015182556001820191506020850194506020810190506116da565b8683101561171c5784890151611718601f89168261162b565b8355505b6001600288020188555050505b505050505050565b5f8115159050919050565b61174581611731565b82525050565b5f6040820190508181035f830152611763818561132e565b9050611772602083018461173c565b9392505050565b7f50726976617465206b657920616c7265616479206d61707065640000000000005f82015250565b5f6117ad601a836112f6565b91506117b882611779565b602082019050919050565b5f6020820190508181035f8301526117da816117a1565b9050919050565b7f5573657220616c726561647920657869737473000000000000000000000000005f82015250565b5f6118156013836112f6565b9150611820826117e1565b602082019050919050565b5f6020820190508181035f83015261184281611809565b9050919050565b7f50726976617465206b657920616c726561647920696e207573650000000000005f82015250565b5f61187d601a836112f6565b915061188882611849565b602082019050919050565b5f6020820190508181035f8301526118aa81611871565b905091905056fea26469706673582212208b38f079402f92494302c6ec6372634b9d347c22830eeebdfe4064fece4e540064736f6c63430008160033",
					"opcodes": "PUSH1 0x80 PUSH1 0x40 MSTORE CALLVALUE DUP1 ISZERO PUSH2 0xF JUMPI PUSH0 DUP1 REVERT JUMPDEST POP PUSH2 0x18E7 DUP1 PUSH2 0x1D PUSH0 CODECOPY PUSH0 RETURN INVALID PUSH1 0x80 PUSH1 0x40 MSTORE CALLVALUE DUP1 ISZERO PUSH2 0xF JUMPI PUSH0 DUP1 REVERT JUMPDEST POP PUSH1 0x4 CALLDATASIZE LT PUSH2 0xE8 JUMPI PUSH0 CALLDATALOAD PUSH1 0xE0 SHR DUP1 PUSH4 0xA1D01BB1 GT PUSH2 0x8A JUMPI DUP1 PUSH4 0xC87203A1 GT PUSH2 0x64 JUMPI DUP1 PUSH4 0xC87203A1 EQ PUSH2 0x259 JUMPI DUP1 PUSH4 0xCCCA8F22 EQ PUSH2 0x289 JUMPI DUP1 PUSH4 0xEE7476D5 EQ PUSH2 0x2B9 JUMPI DUP1 PUSH4 0xF7FFD625 EQ PUSH2 0x2D5 JUMPI PUSH2 0xE8 JUMP JUMPDEST DUP1 PUSH4 0xA1D01BB1 EQ PUSH2 0x1DD JUMPI DUP1 PUSH4 0xBEB8727F EQ PUSH2 0x1F9 JUMPI DUP1 PUSH4 0xBF501844 EQ PUSH2 0x229 JUMPI PUSH2 0xE8 JUMP JUMPDEST DUP1 PUSH4 0x5ABB69E1 GT PUSH2 0xC6 JUMPI DUP1 PUSH4 0x5ABB69E1 EQ PUSH2 0x140 JUMPI DUP1 PUSH4 0x689E1C03 EQ PUSH2 0x15C JUMPI DUP1 PUSH4 0x892D069C EQ PUSH2 0x191 JUMPI DUP1 PUSH4 0x8C9A2E92 EQ PUSH2 0x1AD JUMPI PUSH2 0xE8 JUMP JUMPDEST DUP1 PUSH4 0xD60FAFD EQ PUSH2 0xEC JUMPI DUP1 PUSH4 0x27897557 EQ PUSH2 0x108 JUMPI DUP1 PUSH4 0x5A7FB9D7 EQ PUSH2 0x124 JUMPI JUMPDEST PUSH0 DUP1 REVERT JUMPDEST PUSH2 0x106 PUSH1 0x4 DUP1 CALLDATASIZE SUB DUP2 ADD SWAP1 PUSH2 0x101 SWAP2 SWAP1 PUSH2 0x10CE JUMP JUMPDEST PUSH2 0x305 JUMP JUMPDEST STOP JUMPDEST PUSH2 0x122 PUSH1 0x4 DUP1 CALLDATASIZE SUB DUP2 ADD SWAP1 PUSH2 0x11D SWAP2 SWAP1 PUSH2 0x10CE JUMP JUMPDEST PUSH2 0x387 JUMP JUMPDEST STOP JUMPDEST PUSH2 0x13E PUSH1 0x4 DUP1 CALLDATASIZE SUB DUP2 ADD SWAP1 PUSH2 0x139 SWAP2 SWAP1 PUSH2 0x10CE JUMP JUMPDEST PUSH2 0x409 JUMP JUMPDEST STOP JUMPDEST PUSH2 0x15A PUSH1 0x4 DUP1 CALLDATASIZE SUB DUP2 ADD SWAP1 PUSH2 0x155 SWAP2 SWAP1 PUSH2 0x1144 JUMP JUMPDEST PUSH2 0x4A5 JUMP JUMPDEST STOP JUMPDEST PUSH2 0x176 PUSH1 0x4 DUP1 CALLDATASIZE SUB DUP2 ADD SWAP1 PUSH2 0x171 SWAP2 SWAP1 PUSH2 0x12A5 JUMP JUMPDEST PUSH2 0x665 JUMP JUMPDEST PUSH1 0x40 MLOAD PUSH2 0x188 SWAP7 SWAP6 SWAP5 SWAP4 SWAP3 SWAP2 SWAP1 PUSH2 0x1366 JUMP JUMPDEST PUSH1 0x40 MLOAD DUP1 SWAP2 SUB SWAP1 RETURN JUMPDEST PUSH2 0x1AB PUSH1 0x4 DUP1 CALLDATASIZE SUB DUP2 ADD SWAP1 PUSH2 0x1A6 SWAP2 SWAP1 PUSH2 0x10CE JUMP JUMPDEST PUSH2 0x9D8 JUMP JUMPDEST STOP JUMPDEST PUSH2 0x1C7 PUSH1 0x4 DUP1 CALLDATASIZE SUB DUP2 ADD SWAP1 PUSH2 0x1C2 SWAP2 SWAP1 PUSH2 0x12A5 JUMP JUMPDEST PUSH2 0xA5A JUMP JUMPDEST PUSH1 0x40 MLOAD PUSH2 0x1D4 SWAP2 SWAP1 PUSH2 0x13EF JUMP JUMPDEST PUSH1 0x40 MLOAD DUP1 SWAP2 SUB SWAP1 RETURN JUMPDEST PUSH2 0x1F7 PUSH1 0x4 DUP1 CALLDATASIZE SUB DUP2 ADD SWAP1 PUSH2 0x1F2 SWAP2 SWAP1 PUSH2 0x10CE JUMP JUMPDEST PUSH2 0xB0A JUMP JUMPDEST STOP JUMPDEST PUSH2 0x213 PUSH1 0x4 DUP1 CALLDATASIZE SUB DUP2 ADD SWAP1 PUSH2 0x20E SWAP2 SWAP1 PUSH2 0x12A5 JUMP JUMPDEST PUSH2 0xB8C JUMP JUMPDEST PUSH1 0x40 MLOAD PUSH2 0x220 SWAP2 SWAP1 PUSH2 0x13EF JUMP JUMPDEST PUSH1 0x40 MLOAD DUP1 SWAP2 SUB SWAP1 RETURN JUMPDEST PUSH2 0x243 PUSH1 0x4 DUP1 CALLDATASIZE SUB DUP2 ADD SWAP1 PUSH2 0x23E SWAP2 SWAP1 PUSH2 0x12A5 JUMP JUMPDEST PUSH2 0xC3C JUMP JUMPDEST PUSH1 0x40 MLOAD PUSH2 0x250 SWAP2 SWAP1 PUSH2 0x13EF JUMP JUMPDEST PUSH1 0x40 MLOAD DUP1 SWAP2 SUB SWAP1 RETURN JUMPDEST PUSH2 0x273 PUSH1 0x4 DUP1 CALLDATASIZE SUB DUP2 ADD SWAP1 PUSH2 0x26E SWAP2 SWAP1 PUSH2 0x12A5 JUMP JUMPDEST PUSH2 0xCEF JUMP JUMPDEST PUSH1 0x40 MLOAD PUSH2 0x280 SWAP2 SWAP1 PUSH2 0x13EF JUMP JUMPDEST PUSH1 0x40 MLOAD DUP1 SWAP2 SUB SWAP1 RETURN JUMPDEST PUSH2 0x2A3 PUSH1 0x4 DUP1 CALLDATASIZE SUB DUP2 ADD SWAP1 PUSH2 0x29E SWAP2 SWAP1 PUSH2 0x12A5 JUMP JUMPDEST PUSH2 0xD9F JUMP JUMPDEST PUSH1 0x40 MLOAD PUSH2 0x2B0 SWAP2 SWAP1 PUSH2 0x13EF JUMP JUMPDEST PUSH1 0x40 MLOAD DUP1 SWAP2 SUB SWAP1 RETURN JUMPDEST PUSH2 0x2D3 PUSH1 0x4 DUP1 CALLDATASIZE SUB DUP2 ADD SWAP1 PUSH2 0x2CE SWAP2 SWAP1 PUSH2 0x10CE JUMP JUMPDEST PUSH2 0xE4F JUMP JUMPDEST STOP JUMPDEST PUSH2 0x2EF PUSH1 0x4 DUP1 CALLDATASIZE SUB DUP2 ADD SWAP1 PUSH2 0x2EA SWAP2 SWAP1 PUSH2 0x12A5 JUMP JUMPDEST PUSH2 0xED1 JUMP JUMPDEST PUSH1 0x40 MLOAD PUSH2 0x2FC SWAP2 SWAP1 PUSH2 0x13EF JUMP JUMPDEST PUSH1 0x40 MLOAD DUP1 SWAP2 SUB SWAP1 RETURN JUMPDEST DUP1 PUSH0 DUP4 PUSH1 0x40 MLOAD PUSH2 0x315 SWAP2 SWAP1 PUSH2 0x1449 JUMP JUMPDEST SWAP1 DUP2 MSTORE PUSH1 0x20 ADD PUSH1 0x40 MLOAD DUP1 SWAP2 SUB SWAP1 KECCAK256 PUSH1 0x3 ADD SWAP1 DUP2 PUSH2 0x332 SWAP2 SWAP1 PUSH2 0x1662 JUMP JUMPDEST POP DUP2 PUSH1 0x40 MLOAD PUSH2 0x341 SWAP2 SWAP1 PUSH2 0x1449 JUMP JUMPDEST PUSH1 0x40 MLOAD DUP1 SWAP2 SUB SWAP1 KECCAK256 PUSH32 0xA44FECA31CA2B9CDA9B6DEC473FBBC131C350DB90A2F95915BCD051CDC5E10BA DUP3 PUSH1 0x1 PUSH1 0x40 MLOAD PUSH2 0x37B SWAP3 SWAP2 SWAP1 PUSH2 0x174B JUMP JUMPDEST PUSH1 0x40 MLOAD DUP1 SWAP2 SUB SWAP1 LOG2 POP POP JUMP JUMPDEST DUP1 PUSH0 DUP4 PUSH1 0x40 MLOAD PUSH2 0x397 SWAP2 SWAP1 PUSH2 0x1449 JUMP JUMPDEST SWAP1 DUP2 MSTORE PUSH1 0x20 ADD PUSH1 0x40 MLOAD DUP1 SWAP2 SUB SWAP1 KECCAK256 PUSH1 0x1 ADD SWAP1 DUP2 PUSH2 0x3B4 SWAP2 SWAP1 PUSH2 0x1662 JUMP JUMPDEST POP DUP2 PUSH1 0x40 MLOAD PUSH2 0x3C3 SWAP2 SWAP1 PUSH2 0x1449 JUMP JUMPDEST PUSH1 0x40 MLOAD DUP1 SWAP2 SUB SWAP1 KECCAK256 PUSH32 0xA76F1708714ECB5AED9AE4C006EAFBF67941B726BB287F861C599F2286FDF778 DUP3 PUSH1 0x1 PUSH1 0x40 MLOAD PUSH2 0x3FD SWAP3 SWAP2 SWAP1 PUSH2 0x174B JUMP JUMPDEST PUSH1 0x40 MLOAD DUP1 SWAP2 SUB SWAP1 LOG2 POP POP JUMP JUMPDEST PUSH0 PUSH1 0x1 DUP4 PUSH1 0x40 MLOAD PUSH2 0x41A SWAP2 SWAP1 PUSH2 0x1449 JUMP JUMPDEST SWAP1 DUP2 MSTORE PUSH1 0x20 ADD PUSH1 0x40 MLOAD DUP1 SWAP2 SUB SWAP1 KECCAK256 DUP1 SLOAD PUSH2 0x433 SWAP1 PUSH2 0x148C JUMP JUMPDEST SWAP1 POP EQ PUSH2 0x475 JUMPI PUSH1 0x40 MLOAD PUSH32 0x8C379A000000000000000000000000000000000000000000000000000000000 DUP2 MSTORE PUSH1 0x4 ADD PUSH2 0x46C SWAP1 PUSH2 0x17C3 JUMP JUMPDEST PUSH1 0x40 MLOAD DUP1 SWAP2 SUB SWAP1 REVERT JUMPDEST DUP1 PUSH1 0x1 DUP4 PUSH1 0x40 MLOAD PUSH2 0x486 SWAP2 SWAP1 PUSH2 0x1449 JUMP JUMPDEST SWAP1 DUP2 MSTORE PUSH1 0x20 ADD PUSH1 0x40 MLOAD DUP1 SWAP2 SUB SWAP1 KECCAK256 SWAP1 DUP2 PUSH2 0x4A0 SWAP2 SWAP1 PUSH2 0x1662 JUMP JUMPDEST POP POP POP JUMP JUMPDEST PUSH0 DUP1 DUP9 PUSH1 0x40 MLOAD PUSH2 0x4B5 SWAP2 SWAP1 PUSH2 0x1449 JUMP JUMPDEST SWAP1 DUP2 MSTORE PUSH1 0x20 ADD PUSH1 0x40 MLOAD DUP1 SWAP2 SUB SWAP1 KECCAK256 PUSH0 ADD DUP1 SLOAD PUSH2 0x4D0 SWAP1 PUSH2 0x148C JUMP JUMPDEST SWAP1 POP EQ PUSH2 0x512 JUMPI PUSH1 0x40 MLOAD PUSH32 0x8C379A000000000000000000000000000000000000000000000000000000000 DUP2 MSTORE PUSH1 0x4 ADD PUSH2 0x509 SWAP1 PUSH2 0x182B JUMP JUMPDEST PUSH1 0x40 MLOAD DUP1 SWAP2 SUB SWAP1 REVERT JUMPDEST PUSH0 PUSH1 0x1 DUP4 PUSH1 0x40 MLOAD PUSH2 0x523 SWAP2 SWAP1 PUSH2 0x1449 JUMP JUMPDEST SWAP1 DUP2 MSTORE PUSH1 0x20 ADD PUSH1 0x40 MLOAD DUP1 SWAP2 SUB SWAP1 KECCAK256 DUP1 SLOAD PUSH2 0x53C SWAP1 PUSH2 0x148C JUMP JUMPDEST SWAP1 POP EQ PUSH2 0x57E JUMPI PUSH1 0x40 MLOAD PUSH32 0x8C379A000000000000000000000000000000000000000000000000000000000 DUP2 MSTORE PUSH1 0x4 ADD PUSH2 0x575 SWAP1 PUSH2 0x1893 JUMP JUMPDEST PUSH1 0x40 MLOAD DUP1 SWAP2 SUB SWAP1 REVERT JUMPDEST PUSH0 PUSH1 0x40 MLOAD DUP1 PUSH1 0xC0 ADD PUSH1 0x40 MSTORE DUP1 DUP10 DUP2 MSTORE PUSH1 0x20 ADD DUP9 DUP2 MSTORE PUSH1 0x20 ADD DUP8 DUP2 MSTORE PUSH1 0x20 ADD DUP7 DUP2 MSTORE PUSH1 0x20 ADD DUP6 DUP2 MSTORE PUSH1 0x20 ADD DUP4 DUP2 MSTORE POP SWAP1 POP DUP1 PUSH0 DUP10 PUSH1 0x40 MLOAD PUSH2 0x5BE SWAP2 SWAP1 PUSH2 0x1449 JUMP JUMPDEST SWAP1 DUP2 MSTORE PUSH1 0x20 ADD PUSH1 0x40 MLOAD DUP1 SWAP2 SUB SWAP1 KECCAK256 PUSH0 DUP3 ADD MLOAD DUP2 PUSH0 ADD SWAP1 DUP2 PUSH2 0x5DF SWAP2 SWAP1 PUSH2 0x1662 JUMP JUMPDEST POP PUSH1 0x20 DUP3 ADD MLOAD DUP2 PUSH1 0x1 ADD SWAP1 DUP2 PUSH2 0x5F5 SWAP2 SWAP1 PUSH2 0x1662 JUMP JUMPDEST POP PUSH1 0x40 DUP3 ADD MLOAD DUP2 PUSH1 0x2 ADD SWAP1 DUP2 PUSH2 0x60B SWAP2 SWAP1 PUSH2 0x1662 JUMP JUMPDEST POP PUSH1 0x60 DUP3 ADD MLOAD DUP2 PUSH1 0x3 ADD SWAP1 DUP2 PUSH2 0x621 SWAP2 SWAP1 PUSH2 0x1662 JUMP JUMPDEST POP PUSH1 0x80 DUP3 ADD MLOAD DUP2 PUSH1 0x4 ADD SWAP1 DUP2 PUSH2 0x637 SWAP2 SWAP1 PUSH2 0x1662 JUMP JUMPDEST POP PUSH1 0xA0 DUP3 ADD MLOAD DUP2 PUSH1 0x5 ADD SWAP1 DUP2 PUSH2 0x64D SWAP2 SWAP1 PUSH2 0x1662 JUMP JUMPDEST POP SWAP1 POP POP PUSH2 0x65B DUP4 DUP10 PUSH2 0x409 JUMP JUMPDEST POP POP POP POP POP POP POP POP JUMP JUMPDEST PUSH0 DUP2 DUP1 MLOAD PUSH1 0x20 DUP2 ADD DUP3 ADD DUP1 MLOAD DUP5 DUP3 MSTORE PUSH1 0x20 DUP4 ADD PUSH1 0x20 DUP6 ADD KECCAK256 DUP2 DUP4 MSTORE DUP1 SWAP6 POP POP POP POP POP POP PUSH0 SWAP2 POP SWAP1 POP DUP1 PUSH0 ADD DUP1 SLOAD PUSH2 0x69B SWAP1 PUSH2 0x148C JUMP JUMPDEST DUP1 PUSH1 0x1F ADD PUSH1 0x20 DUP1 SWAP2 DIV MUL PUSH1 0x20 ADD PUSH1 0x40 MLOAD SWAP1 DUP2 ADD PUSH1 0x40 MSTORE DUP1 SWAP3 SWAP2 SWAP1 DUP2 DUP2 MSTORE PUSH1 0x20 ADD DUP3 DUP1 SLOAD PUSH2 0x6C7 SWAP1 PUSH2 0x148C JUMP JUMPDEST DUP1 ISZERO PUSH2 0x712 JUMPI DUP1 PUSH1 0x1F LT PUSH2 0x6E9 JUMPI PUSH2 0x100 DUP1 DUP4 SLOAD DIV MUL DUP4 MSTORE SWAP2 PUSH1 0x20 ADD SWAP2 PUSH2 0x712 JUMP JUMPDEST DUP3 ADD SWAP2 SWAP1 PUSH0 MSTORE PUSH1 0x20 PUSH0 KECCAK256 SWAP1 JUMPDEST DUP2 SLOAD DUP2 MSTORE SWAP1 PUSH1 0x1 ADD SWAP1 PUSH1 0x20 ADD DUP1 DUP4 GT PUSH2 0x6F5 JUMPI DUP3 SWAP1 SUB PUSH1 0x1F AND DUP3 ADD SWAP2 JUMPDEST POP POP POP POP POP SWAP1 DUP1 PUSH1 0x1 ADD DUP1 SLOAD PUSH2 0x727 SWAP1 PUSH2 0x148C JUMP JUMPDEST DUP1 PUSH1 0x1F ADD PUSH1 0x20 DUP1 SWAP2 DIV MUL PUSH1 0x20 ADD PUSH1 0x40 MLOAD SWAP1 DUP2 ADD PUSH1 0x40 MSTORE DUP1 SWAP3 SWAP2 SWAP1 DUP2 DUP2 MSTORE PUSH1 0x20 ADD DUP3 DUP1 SLOAD PUSH2 0x753 SWAP1 PUSH2 0x148C JUMP JUMPDEST DUP1 ISZERO PUSH2 0x79E JUMPI DUP1 PUSH1 0x1F LT PUSH2 0x775 JUMPI PUSH2 0x100 DUP1 DUP4 SLOAD DIV MUL DUP4 MSTORE SWAP2 PUSH1 0x20 ADD SWAP2 PUSH2 0x79E JUMP JUMPDEST DUP3 ADD SWAP2 SWAP1 PUSH0 MSTORE PUSH1 0x20 PUSH0 KECCAK256 SWAP1 JUMPDEST DUP2 SLOAD DUP2 MSTORE SWAP1 PUSH1 0x1 ADD SWAP1 PUSH1 0x20 ADD DUP1 DUP4 GT PUSH2 0x781 JUMPI DUP3 SWAP1 SUB PUSH1 0x1F AND DUP3 ADD SWAP2 JUMPDEST POP POP POP POP POP SWAP1 DUP1 PUSH1 0x2 ADD DUP1 SLOAD PUSH2 0x7B3 SWAP1 PUSH2 0x148C JUMP JUMPDEST DUP1 PUSH1 0x1F ADD PUSH1 0x20 DUP1 SWAP2 DIV MUL PUSH1 0x20 ADD PUSH1 0x40 MLOAD SWAP1 DUP2 ADD PUSH1 0x40 MSTORE DUP1 SWAP3 SWAP2 SWAP1 DUP2 DUP2 MSTORE PUSH1 0x20 ADD DUP3 DUP1 SLOAD PUSH2 0x7DF SWAP1 PUSH2 0x148C JUMP JUMPDEST DUP1 ISZERO PUSH2 0x82A JUMPI DUP1 PUSH1 0x1F LT PUSH2 0x801 JUMPI PUSH2 0x100 DUP1 DUP4 SLOAD DIV MUL DUP4 MSTORE SWAP2 PUSH1 0x20 ADD SWAP2 PUSH2 0x82A JUMP JUMPDEST DUP3 ADD SWAP2 SWAP1 PUSH0 MSTORE PUSH1 0x20 PUSH0 KECCAK256 SWAP1 JUMPDEST DUP2 SLOAD DUP2 MSTORE SWAP1 PUSH1 0x1 ADD SWAP1 PUSH1 0x20 ADD DUP1 DUP4 GT PUSH2 0x80D JUMPI DUP3 SWAP1 SUB PUSH1 0x1F AND DUP3 ADD SWAP2 JUMPDEST POP POP POP POP POP SWAP1 DUP1 PUSH1 0x3 ADD DUP1 SLOAD PUSH2 0x83F SWAP1 PUSH2 0x148C JUMP JUMPDEST DUP1 PUSH1 0x1F ADD PUSH1 0x20 DUP1 SWAP2 DIV MUL PUSH1 0x20 ADD PUSH1 0x40 MLOAD SWAP1 DUP2 ADD PUSH1 0x40 MSTORE DUP1 SWAP3 SWAP2 SWAP1 DUP2 DUP2 MSTORE PUSH1 0x20 ADD DUP3 DUP1 SLOAD PUSH2 0x86B SWAP1 PUSH2 0x148C JUMP JUMPDEST DUP1 ISZERO PUSH2 0x8B6 JUMPI DUP1 PUSH1 0x1F LT PUSH2 0x88D JUMPI PUSH2 0x100 DUP1 DUP4 SLOAD DIV MUL DUP4 MSTORE SWAP2 PUSH1 0x20 ADD SWAP2 PUSH2 0x8B6 JUMP JUMPDEST DUP3 ADD SWAP2 SWAP1 PUSH0 MSTORE PUSH1 0x20 PUSH0 KECCAK256 SWAP1 JUMPDEST DUP2 SLOAD DUP2 MSTORE SWAP1 PUSH1 0x1 ADD SWAP1 PUSH1 0x20 ADD DUP1 DUP4 GT PUSH2 0x899 JUMPI DUP3 SWAP1 SUB PUSH1 0x1F AND DUP3 ADD SWAP2 JUMPDEST POP POP POP POP POP SWAP1 DUP1 PUSH1 0x4 ADD DUP1 SLOAD PUSH2 0x8CB SWAP1 PUSH2 0x148C JUMP JUMPDEST DUP1 PUSH1 0x1F ADD PUSH1 0x20 DUP1 SWAP2 DIV MUL PUSH1 0x20 ADD PUSH1 0x40 MLOAD SWAP1 DUP2 ADD PUSH1 0x40 MSTORE DUP1 SWAP3 SWAP2 SWAP1 DUP2 DUP2 MSTORE PUSH1 0x20 ADD DUP3 DUP1 SLOAD PUSH2 0x8F7 SWAP1 PUSH2 0x148C JUMP JUMPDEST DUP1 ISZERO PUSH2 0x942 JUMPI DUP1 PUSH1 0x1F LT PUSH2 0x919 JUMPI PUSH2 0x100 DUP1 DUP4 SLOAD DIV MUL DUP4 MSTORE SWAP2 PUSH1 0x20 ADD SWAP2 PUSH2 0x942 JUMP JUMPDEST DUP3 ADD SWAP2 SWAP1 PUSH0 MSTORE PUSH1 0x20 PUSH0 KECCAK256 SWAP1 JUMPDEST DUP2 SLOAD DUP2 MSTORE SWAP1 PUSH1 0x1 ADD SWAP1 PUSH1 0x20 ADD DUP1 DUP4 GT PUSH2 0x925 JUMPI DUP3 SWAP1 SUB PUSH1 0x1F AND DUP3 ADD SWAP2 JUMPDEST POP POP POP POP POP SWAP1 DUP1 PUSH1 0x5 ADD DUP1 SLOAD PUSH2 0x957 SWAP1 PUSH2 0x148C JUMP JUMPDEST DUP1 PUSH1 0x1F ADD PUSH1 0x20 DUP1 SWAP2 DIV MUL PUSH1 0x20 ADD PUSH1 0x40 MLOAD SWAP1 DUP2 ADD PUSH1 0x40 MSTORE DUP1 SWAP3 SWAP2 SWAP1 DUP2 DUP2 MSTORE PUSH1 0x20 ADD DUP3 DUP1 SLOAD PUSH2 0x983 SWAP1 PUSH2 0x148C JUMP JUMPDEST DUP1 ISZERO PUSH2 0x9CE JUMPI DUP1 PUSH1 0x1F LT PUSH2 0x9A5 JUMPI PUSH2 0x100 DUP1 DUP4 SLOAD DIV MUL DUP4 MSTORE SWAP2 PUSH1 0x20 ADD SWAP2 PUSH2 0x9CE JUMP JUMPDEST DUP3 ADD SWAP2 SWAP1 PUSH0 MSTORE PUSH1 0x20 PUSH0 KECCAK256 SWAP1 JUMPDEST DUP2 SLOAD DUP2 MSTORE SWAP1 PUSH1 0x1 ADD SWAP1 PUSH1 0x20 ADD DUP1 DUP4 GT PUSH2 0x9B1 JUMPI DUP3 SWAP1 SUB PUSH1 0x1F AND DUP3 ADD SWAP2 JUMPDEST POP POP POP POP POP SWAP1 POP DUP7 JUMP JUMPDEST DUP1 PUSH0 DUP4 PUSH1 0x40 MLOAD PUSH2 0x9E8 SWAP2 SWAP1 PUSH2 0x1449 JUMP JUMPDEST SWAP1 DUP2 MSTORE PUSH1 0x20 ADD PUSH1 0x40 MLOAD DUP1 SWAP2 SUB SWAP1 KECCAK256 PUSH1 0x2 ADD SWAP1 DUP2 PUSH2 0xA05 SWAP2 SWAP1 PUSH2 0x1662 JUMP JUMPDEST POP DUP2 PUSH1 0x40 MLOAD PUSH2 0xA14 SWAP2 SWAP1 PUSH2 0x1449 JUMP JUMPDEST PUSH1 0x40 MLOAD DUP1 SWAP2 SUB SWAP1 KECCAK256 PUSH32 0x480BDEC02BF73C6C075A8DB62D725863401EC6D719A3FF0C25B87AC13569C5F2 DUP3 PUSH1 0x1 PUSH1 0x40 MLOAD PUSH2 0xA4E SWAP3 SWAP2 SWAP1 PUSH2 0x174B JUMP JUMPDEST PUSH1 0x40 MLOAD DUP1 SWAP2 SUB SWAP1 LOG2 POP POP JUMP JUMPDEST PUSH1 0x60 PUSH0 DUP3 PUSH1 0x40 MLOAD PUSH2 0xA6B SWAP2 SWAP1 PUSH2 0x1449 JUMP JUMPDEST SWAP1 DUP2 MSTORE PUSH1 0x20 ADD PUSH1 0x40 MLOAD DUP1 SWAP2 SUB SWAP1 KECCAK256 PUSH1 0x1 ADD DUP1 SLOAD PUSH2 0xA87 SWAP1 PUSH2 0x148C JUMP JUMPDEST DUP1 PUSH1 0x1F ADD PUSH1 0x20 DUP1 SWAP2 DIV MUL PUSH1 0x20 ADD PUSH1 0x40 MLOAD SWAP1 DUP2 ADD PUSH1 0x40 MSTORE DUP1 SWAP3 SWAP2 SWAP1 DUP2 DUP2 MSTORE PUSH1 0x20 ADD DUP3 DUP1 SLOAD PUSH2 0xAB3 SWAP1 PUSH2 0x148C JUMP JUMPDEST DUP1 ISZERO PUSH2 0xAFE JUMPI DUP1 PUSH1 0x1F LT PUSH2 0xAD5 JUMPI PUSH2 0x100 DUP1 DUP4 SLOAD DIV MUL DUP4 MSTORE SWAP2 PUSH1 0x20 ADD SWAP2 PUSH2 0xAFE JUMP JUMPDEST DUP3 ADD SWAP2 SWAP1 PUSH0 MSTORE PUSH1 0x20 PUSH0 KECCAK256 SWAP1 JUMPDEST DUP2 SLOAD DUP2 MSTORE SWAP1 PUSH1 0x1 ADD SWAP1 PUSH1 0x20 ADD DUP1 DUP4 GT PUSH2 0xAE1 JUMPI DUP3 SWAP1 SUB PUSH1 0x1F AND DUP3 ADD SWAP2 JUMPDEST POP POP POP POP POP SWAP1 POP SWAP2 SWAP1 POP JUMP JUMPDEST DUP1 PUSH0 DUP4 PUSH1 0x40 MLOAD PUSH2 0xB1A SWAP2 SWAP1 PUSH2 0x1449 JUMP JUMPDEST SWAP1 DUP2 MSTORE PUSH1 0x20 ADD PUSH1 0x40 MLOAD DUP1 SWAP2 SUB SWAP1 KECCAK256 PUSH1 0x5 ADD SWAP1 DUP2 PUSH2 0xB37 SWAP2 SWAP1 PUSH2 0x1662 JUMP JUMPDEST POP DUP2 PUSH1 0x40 MLOAD PUSH2 0xB46 SWAP2 SWAP1 PUSH2 0x1449 JUMP JUMPDEST PUSH1 0x40 MLOAD DUP1 SWAP2 SUB SWAP1 KECCAK256 PUSH32 0x7BF8298C7D1E9FCF619723B05EBEA1CE9C8496011BFF291AE354A59B120374BA DUP3 PUSH1 0x1 PUSH1 0x40 MLOAD PUSH2 0xB80 SWAP3 SWAP2 SWAP1 PUSH2 0x174B JUMP JUMPDEST PUSH1 0x40 MLOAD DUP1 SWAP2 SUB SWAP1 LOG2 POP POP JUMP JUMPDEST PUSH1 0x60 PUSH0 DUP3 PUSH1 0x40 MLOAD PUSH2 0xB9D SWAP2 SWAP1 PUSH2 0x1449 JUMP JUMPDEST SWAP1 DUP2 MSTORE PUSH1 0x20 ADD PUSH1 0x40 MLOAD DUP1 SWAP2 SUB SWAP1 KECCAK256 PUSH1 0x4 ADD DUP1 SLOAD PUSH2 0xBB9 SWAP1 PUSH2 0x148C JUMP JUMPDEST DUP1 PUSH1 0x1F ADD PUSH1 0x20 DUP1 SWAP2 DIV MUL PUSH1 0x20 ADD PUSH1 0x40 MLOAD SWAP1 DUP2 ADD PUSH1 0x40 MSTORE DUP1 SWAP3 SWAP2 SWAP1 DUP2 DUP2 MSTORE PUSH1 0x20 ADD DUP3 DUP1 SLOAD PUSH2 0xBE5 SWAP1 PUSH2 0x148C JUMP JUMPDEST DUP1 ISZERO PUSH2 0xC30 JUMPI DUP1 PUSH1 0x1F LT PUSH2 0xC07 JUMPI PUSH2 0x100 DUP1 DUP4 SLOAD DIV MUL DUP4 MSTORE SWAP2 PUSH1 0x20 ADD SWAP2 PUSH2 0xC30 JUMP JUMPDEST DUP3 ADD SWAP2 SWAP1 PUSH0 MSTORE PUSH1 0x20 PUSH0 KECCAK256 SWAP1 JUMPDEST DUP2 SLOAD DUP2 MSTORE SWAP1 PUSH1 0x1 ADD SWAP1 PUSH1 0x20 ADD DUP1 DUP4 GT PUSH2 0xC13 JUMPI DUP3 SWAP1 SUB PUSH1 0x1F AND DUP3 ADD SWAP2 JUMPDEST POP POP POP POP POP SWAP1 POP SWAP2 SWAP1 POP JUMP JUMPDEST PUSH1 0x1 DUP2 DUP1 MLOAD PUSH1 0x20 DUP2 ADD DUP3 ADD DUP1 MLOAD DUP5 DUP3 MSTORE PUSH1 0x20 DUP4 ADD PUSH1 0x20 DUP6 ADD KECCAK256 DUP2 DUP4 MSTORE DUP1 SWAP6 POP POP POP POP POP POP PUSH0 SWAP2 POP SWAP1 POP DUP1 SLOAD PUSH2 0xC70 SWAP1 PUSH2 0x148C JUMP JUMPDEST DUP1 PUSH1 0x1F ADD PUSH1 0x20 DUP1 SWAP2 DIV MUL PUSH1 0x20 ADD PUSH1 0x40 MLOAD SWAP1 DUP2 ADD PUSH1 0x40 MSTORE DUP1 SWAP3 SWAP2 SWAP1 DUP2 DUP2 MSTORE PUSH1 0x20 ADD DUP3 DUP1 SLOAD PUSH2 0xC9C SWAP1 PUSH2 0x148C JUMP JUMPDEST DUP1 ISZERO PUSH2 0xCE7 JUMPI DUP1 PUSH1 0x1F LT PUSH2 0xCBE JUMPI PUSH2 0x100 DUP1 DUP4 SLOAD DIV MUL DUP4 MSTORE SWAP2 PUSH1 0x20 ADD SWAP2 PUSH2 0xCE7 JUMP JUMPDEST DUP3 ADD SWAP2 SWAP1 PUSH0 MSTORE PUSH1 0x20 PUSH0 KECCAK256 SWAP1 JUMPDEST DUP2 SLOAD DUP2 MSTORE SWAP1 PUSH1 0x1 ADD SWAP1 PUSH1 0x20 ADD DUP1 DUP4 GT PUSH2 0xCCA JUMPI DUP3 SWAP1 SUB PUSH1 0x1F AND DUP3 ADD SWAP2 JUMPDEST POP POP POP POP POP DUP2 JUMP JUMPDEST PUSH1 0x60 PUSH0 DUP3 PUSH1 0x40 MLOAD PUSH2 0xD00 SWAP2 SWAP1 PUSH2 0x1449 JUMP JUMPDEST SWAP1 DUP2 MSTORE PUSH1 0x20 ADD PUSH1 0x40 MLOAD DUP1 SWAP2 SUB SWAP1 KECCAK256 PUSH1 0x5 ADD DUP1 SLOAD PUSH2 0xD1C SWAP1 PUSH2 0x148C JUMP JUMPDEST DUP1 PUSH1 0x1F ADD PUSH1 0x20 DUP1 SWAP2 DIV MUL PUSH1 0x20 ADD PUSH1 0x40 MLOAD SWAP1 DUP2 ADD PUSH1 0x40 MSTORE DUP1 SWAP3 SWAP2 SWAP1 DUP2 DUP2 MSTORE PUSH1 0x20 ADD DUP3 DUP1 SLOAD PUSH2 0xD48 SWAP1 PUSH2 0x148C JUMP JUMPDEST DUP1 ISZERO PUSH2 0xD93 JUMPI DUP1 PUSH1 0x1F LT PUSH2 0xD6A JUMPI PUSH2 0x100 DUP1 DUP4 SLOAD DIV MUL DUP4 MSTORE SWAP2 PUSH1 0x20 ADD SWAP2 PUSH2 0xD93 JUMP JUMPDEST DUP3 ADD SWAP2 SWAP1 PUSH0 MSTORE PUSH1 0x20 PUSH0 KECCAK256 SWAP1 JUMPDEST DUP2 SLOAD DUP2 MSTORE SWAP1 PUSH1 0x1 ADD SWAP1 PUSH1 0x20 ADD DUP1 DUP4 GT PUSH2 0xD76 JUMPI DUP3 SWAP1 SUB PUSH1 0x1F AND DUP3 ADD SWAP2 JUMPDEST POP POP POP POP POP SWAP1 POP SWAP2 SWAP1 POP JUMP JUMPDEST PUSH1 0x60 PUSH0 DUP3 PUSH1 0x40 MLOAD PUSH2 0xDB0 SWAP2 SWAP1 PUSH2 0x1449 JUMP JUMPDEST SWAP1 DUP2 MSTORE PUSH1 0x20 ADD PUSH1 0x40 MLOAD DUP1 SWAP2 SUB SWAP1 KECCAK256 PUSH1 0x3 ADD DUP1 SLOAD PUSH2 0xDCC SWAP1 PUSH2 0x148C JUMP JUMPDEST DUP1 PUSH1 0x1F ADD PUSH1 0x20 DUP1 SWAP2 DIV MUL PUSH1 0x20 ADD PUSH1 0x40 MLOAD SWAP1 DUP2 ADD PUSH1 0x40 MSTORE DUP1 SWAP3 SWAP2 SWAP1 DUP2 DUP2 MSTORE PUSH1 0x20 ADD DUP3 DUP1 SLOAD PUSH2 0xDF8 SWAP1 PUSH2 0x148C JUMP JUMPDEST DUP1 ISZERO PUSH2 0xE43 JUMPI DUP1 PUSH1 0x1F LT PUSH2 0xE1A JUMPI PUSH2 0x100 DUP1 DUP4 SLOAD DIV MUL DUP4 MSTORE SWAP2 PUSH1 0x20 ADD SWAP2 PUSH2 0xE43 JUMP JUMPDEST DUP3 ADD SWAP2 SWAP1 PUSH0 MSTORE PUSH1 0x20 PUSH0 KECCAK256 SWAP1 JUMPDEST DUP2 SLOAD DUP2 MSTORE SWAP1 PUSH1 0x1 ADD SWAP1 PUSH1 0x20 ADD DUP1 DUP4 GT PUSH2 0xE26 JUMPI DUP3 SWAP1 SUB PUSH1 0x1F AND DUP3 ADD SWAP2 JUMPDEST POP POP POP POP POP SWAP1 POP SWAP2 SWAP1 POP JUMP JUMPDEST DUP1 PUSH0 DUP4 PUSH1 0x40 MLOAD PUSH2 0xE5F SWAP2 SWAP1 PUSH2 0x1449 JUMP JUMPDEST SWAP1 DUP2 MSTORE PUSH1 0x20 ADD PUSH1 0x40 MLOAD DUP1 SWAP2 SUB SWAP1 KECCAK256 PUSH1 0x4 ADD SWAP1 DUP2 PUSH2 0xE7C SWAP2 SWAP1 PUSH2 0x1662 JUMP JUMPDEST POP DUP2 PUSH1 0x40 MLOAD PUSH2 0xE8B SWAP2 SWAP1 PUSH2 0x1449 JUMP JUMPDEST PUSH1 0x40 MLOAD DUP1 SWAP2 SUB SWAP1 KECCAK256 PUSH32 0xAE584FAB5E8F7CFD659E7B4C2D09184EF8D88C791A136A070039AE4C135B8EC7 DUP3 PUSH1 0x1 PUSH1 0x40 MLOAD PUSH2 0xEC5 SWAP3 SWAP2 SWAP1 PUSH2 0x174B JUMP JUMPDEST PUSH1 0x40 MLOAD DUP1 SWAP2 SUB SWAP1 LOG2 POP POP JUMP JUMPDEST PUSH1 0x60 PUSH0 DUP3 PUSH1 0x40 MLOAD PUSH2 0xEE2 SWAP2 SWAP1 PUSH2 0x1449 JUMP JUMPDEST SWAP1 DUP2 MSTORE PUSH1 0x20 ADD PUSH1 0x40 MLOAD DUP1 SWAP2 SUB SWAP1 KECCAK256 PUSH1 0x2 ADD DUP1 SLOAD PUSH2 0xEFE SWAP1 PUSH2 0x148C JUMP JUMPDEST DUP1 PUSH1 0x1F ADD PUSH1 0x20 DUP1 SWAP2 DIV MUL PUSH1 0x20 ADD PUSH1 0x40 MLOAD SWAP1 DUP2 ADD PUSH1 0x40 MSTORE DUP1 SWAP3 SWAP2 SWAP1 DUP2 DUP2 MSTORE PUSH1 0x20 ADD DUP3 DUP1 SLOAD PUSH2 0xF2A SWAP1 PUSH2 0x148C JUMP JUMPDEST DUP1 ISZERO PUSH2 0xF75 JUMPI DUP1 PUSH1 0x1F LT PUSH2 0xF4C JUMPI PUSH2 0x100 DUP1 DUP4 SLOAD DIV MUL DUP4 MSTORE SWAP2 PUSH1 0x20 ADD SWAP2 PUSH2 0xF75 JUMP JUMPDEST DUP3 ADD SWAP2 SWAP1 PUSH0 MSTORE PUSH1 0x20 PUSH0 KECCAK256 SWAP1 JUMPDEST DUP2 SLOAD DUP2 MSTORE SWAP1 PUSH1 0x1 ADD SWAP1 PUSH1 0x20 ADD DUP1 DUP4 GT PUSH2 0xF58 JUMPI DUP3 SWAP1 SUB PUSH1 0x1F AND DUP3 ADD SWAP2 JUMPDEST POP POP POP POP POP SWAP1 POP SWAP2 SWAP1 POP JUMP JUMPDEST PUSH0 PUSH1 0x40 MLOAD SWAP1 POP SWAP1 JUMP JUMPDEST PUSH0 DUP1 REVERT JUMPDEST PUSH0 DUP1 REVERT JUMPDEST PUSH0 DUP1 REVERT JUMPDEST PUSH0 DUP1 REVERT JUMPDEST PUSH0 PUSH1 0x1F NOT PUSH1 0x1F DUP4 ADD AND SWAP1 POP SWAP2 SWAP1 POP JUMP JUMPDEST PUSH32 0x4E487B7100000000000000000000000000000000000000000000000000000000 PUSH0 MSTORE PUSH1 0x41 PUSH1 0x4 MSTORE PUSH1 0x24 PUSH0 REVERT JUMPDEST PUSH2 0xFE0 DUP3 PUSH2 0xF9A JUMP JUMPDEST DUP2 ADD DUP2 DUP2 LT PUSH8 0xFFFFFFFFFFFFFFFF DUP3 GT OR ISZERO PUSH2 0xFFF JUMPI PUSH2 0xFFE PUSH2 0xFAA JUMP JUMPDEST JUMPDEST DUP1 PUSH1 0x40 MSTORE POP POP POP JUMP JUMPDEST PUSH0 PUSH2 0x1011 PUSH2 0xF81 JUMP JUMPDEST SWAP1 POP PUSH2 0x101D DUP3 DUP3 PUSH2 0xFD7 JUMP JUMPDEST SWAP2 SWAP1 POP JUMP JUMPDEST PUSH0 PUSH8 0xFFFFFFFFFFFFFFFF DUP3 GT ISZERO PUSH2 0x103C JUMPI PUSH2 0x103B PUSH2 0xFAA JUMP JUMPDEST JUMPDEST PUSH2 0x1045 DUP3 PUSH2 0xF9A JUMP JUMPDEST SWAP1 POP PUSH1 0x20 DUP2 ADD SWAP1 POP SWAP2 SWAP1 POP JUMP JUMPDEST DUP3 DUP2 DUP4 CALLDATACOPY PUSH0 DUP4 DUP4 ADD MSTORE POP POP POP JUMP JUMPDEST PUSH0 PUSH2 0x1072 PUSH2 0x106D DUP5 PUSH2 0x1022 JUMP JUMPDEST PUSH2 0x1008 JUMP JUMPDEST SWAP1 POP DUP3 DUP2 MSTORE PUSH1 0x20 DUP2 ADD DUP5 DUP5 DUP5 ADD GT ISZERO PUSH2 0x108E JUMPI PUSH2 0x108D PUSH2 0xF96 JUMP JUMPDEST JUMPDEST PUSH2 0x1099 DUP5 DUP3 DUP6 PUSH2 0x1052 JUMP JUMPDEST POP SWAP4 SWAP3 POP POP POP JUMP JUMPDEST PUSH0 DUP3 PUSH1 0x1F DUP4 ADD SLT PUSH2 0x10B5 JUMPI PUSH2 0x10B4 PUSH2 0xF92 JUMP JUMPDEST JUMPDEST DUP2 CALLDATALOAD PUSH2 0x10C5 DUP5 DUP3 PUSH1 0x20 DUP7 ADD PUSH2 0x1060 JUMP JUMPDEST SWAP2 POP POP SWAP3 SWAP2 POP POP JUMP JUMPDEST PUSH0 DUP1 PUSH1 0x40 DUP4 DUP6 SUB SLT ISZERO PUSH2 0x10E4 JUMPI PUSH2 0x10E3 PUSH2 0xF8A JUMP JUMPDEST JUMPDEST PUSH0 DUP4 ADD CALLDATALOAD PUSH8 0xFFFFFFFFFFFFFFFF DUP2 GT ISZERO PUSH2 0x1101 JUMPI PUSH2 0x1100 PUSH2 0xF8E JUMP JUMPDEST JUMPDEST PUSH2 0x110D DUP6 DUP3 DUP7 ADD PUSH2 0x10A1 JUMP JUMPDEST SWAP3 POP POP PUSH1 0x20 DUP4 ADD CALLDATALOAD PUSH8 0xFFFFFFFFFFFFFFFF DUP2 GT ISZERO PUSH2 0x112E JUMPI PUSH2 0x112D PUSH2 0xF8E JUMP JUMPDEST JUMPDEST PUSH2 0x113A DUP6 DUP3 DUP7 ADD PUSH2 0x10A1 JUMP JUMPDEST SWAP2 POP POP SWAP3 POP SWAP3 SWAP1 POP JUMP JUMPDEST PUSH0 DUP1 PUSH0 DUP1 PUSH0 DUP1 PUSH0 PUSH1 0xE0 DUP9 DUP11 SUB SLT ISZERO PUSH2 0x115F JUMPI PUSH2 0x115E PUSH2 0xF8A JUMP JUMPDEST JUMPDEST PUSH0 DUP9 ADD CALLDATALOAD PUSH8 0xFFFFFFFFFFFFFFFF DUP2 GT ISZERO PUSH2 0x117C JUMPI PUSH2 0x117B PUSH2 0xF8E JUMP JUMPDEST JUMPDEST PUSH2 0x1188 DUP11 DUP3 DUP12 ADD PUSH2 0x10A1 JUMP JUMPDEST SWAP8 POP POP PUSH1 0x20 DUP9 ADD CALLDATALOAD PUSH8 0xFFFFFFFFFFFFFFFF DUP2 GT ISZERO PUSH2 0x11A9 JUMPI PUSH2 0x11A8 PUSH2 0xF8E JUMP JUMPDEST JUMPDEST PUSH2 0x11B5 DUP11 DUP3 DUP12 ADD PUSH2 0x10A1 JUMP JUMPDEST SWAP7 POP POP PUSH1 0x40 DUP9 ADD CALLDATALOAD PUSH8 0xFFFFFFFFFFFFFFFF DUP2 GT ISZERO PUSH2 0x11D6 JUMPI PUSH2 0x11D5 PUSH2 0xF8E JUMP JUMPDEST JUMPDEST PUSH2 0x11E2 DUP11 DUP3 DUP12 ADD PUSH2 0x10A1 JUMP JUMPDEST SWAP6 POP POP PUSH1 0x60 DUP9 ADD CALLDATALOAD PUSH8 0xFFFFFFFFFFFFFFFF DUP2 GT ISZERO PUSH2 0x1203 JUMPI PUSH2 0x1202 PUSH2 0xF8E JUMP JUMPDEST JUMPDEST PUSH2 0x120F DUP11 DUP3 DUP12 ADD PUSH2 0x10A1 JUMP JUMPDEST SWAP5 POP POP PUSH1 0x80 DUP9 ADD CALLDATALOAD PUSH8 0xFFFFFFFFFFFFFFFF DUP2 GT ISZERO PUSH2 0x1230 JUMPI PUSH2 0x122F PUSH2 0xF8E JUMP JUMPDEST JUMPDEST PUSH2 0x123C DUP11 DUP3 DUP12 ADD PUSH2 0x10A1 JUMP JUMPDEST SWAP4 POP POP PUSH1 0xA0 DUP9 ADD CALLDATALOAD PUSH8 0xFFFFFFFFFFFFFFFF DUP2 GT ISZERO PUSH2 0x125D JUMPI PUSH2 0x125C PUSH2 0xF8E JUMP JUMPDEST JUMPDEST PUSH2 0x1269 DUP11 DUP3 DUP12 ADD PUSH2 0x10A1 JUMP JUMPDEST SWAP3 POP POP PUSH1 0xC0 DUP9 ADD CALLDATALOAD PUSH8 0xFFFFFFFFFFFFFFFF DUP2 GT ISZERO PUSH2 0x128A JUMPI PUSH2 0x1289 PUSH2 0xF8E JUMP JUMPDEST JUMPDEST PUSH2 0x1296 DUP11 DUP3 DUP12 ADD PUSH2 0x10A1 JUMP JUMPDEST SWAP2 POP POP SWAP3 SWAP6 SWAP9 SWAP2 SWAP5 SWAP8 POP SWAP3 SWAP6 POP JUMP JUMPDEST PUSH0 PUSH1 0x20 DUP3 DUP5 SUB SLT ISZERO PUSH2 0x12BA JUMPI PUSH2 0x12B9 PUSH2 0xF8A JUMP JUMPDEST JUMPDEST PUSH0 DUP3 ADD CALLDATALOAD PUSH8 0xFFFFFFFFFFFFFFFF DUP2 GT ISZERO PUSH2 0x12D7 JUMPI PUSH2 0x12D6 PUSH2 0xF8E JUMP JUMPDEST JUMPDEST PUSH2 0x12E3 DUP5 DUP3 DUP6 ADD PUSH2 0x10A1 JUMP JUMPDEST SWAP2 POP POP SWAP3 SWAP2 POP POP JUMP JUMPDEST PUSH0 DUP2 MLOAD SWAP1 POP SWAP2 SWAP1 POP JUMP JUMPDEST PUSH0 DUP3 DUP3 MSTORE PUSH1 0x20 DUP3 ADD SWAP1 POP SWAP3 SWAP2 POP POP JUMP JUMPDEST PUSH0 JUMPDEST DUP4 DUP2 LT ISZERO PUSH2 0x1323 JUMPI DUP1 DUP3 ADD MLOAD DUP2 DUP5 ADD MSTORE PUSH1 0x20 DUP2 ADD SWAP1 POP PUSH2 0x1308 JUMP JUMPDEST PUSH0 DUP5 DUP5 ADD MSTORE POP POP POP POP JUMP JUMPDEST PUSH0 PUSH2 0x1338 DUP3 PUSH2 0x12EC JUMP JUMPDEST PUSH2 0x1342 DUP2 DUP6 PUSH2 0x12F6 JUMP JUMPDEST SWAP4 POP PUSH2 0x1352 DUP2 DUP6 PUSH1 0x20 DUP7 ADD PUSH2 0x1306 JUMP JUMPDEST PUSH2 0x135B DUP2 PUSH2 0xF9A JUMP JUMPDEST DUP5 ADD SWAP2 POP POP SWAP3 SWAP2 POP POP JUMP JUMPDEST PUSH0 PUSH1 0xC0 DUP3 ADD SWAP1 POP DUP2 DUP2 SUB PUSH0 DUP4 ADD MSTORE PUSH2 0x137E DUP2 DUP10 PUSH2 0x132E JUMP JUMPDEST SWAP1 POP DUP2 DUP2 SUB PUSH1 0x20 DUP4 ADD MSTORE PUSH2 0x1392 DUP2 DUP9 PUSH2 0x132E JUMP JUMPDEST SWAP1 POP DUP2 DUP2 SUB PUSH1 0x40 DUP4 ADD MSTORE PUSH2 0x13A6 DUP2 DUP8 PUSH2 0x132E JUMP JUMPDEST SWAP1 POP DUP2 DUP2 SUB PUSH1 0x60 DUP4 ADD MSTORE PUSH2 0x13BA DUP2 DUP7 PUSH2 0x132E JUMP JUMPDEST SWAP1 POP DUP2 DUP2 SUB PUSH1 0x80 DUP4 ADD MSTORE PUSH2 0x13CE DUP2 DUP6 PUSH2 0x132E JUMP JUMPDEST SWAP1 POP DUP2 DUP2 SUB PUSH1 0xA0 DUP4 ADD MSTORE PUSH2 0x13E2 DUP2 DUP5 PUSH2 0x132E JUMP JUMPDEST SWAP1 POP SWAP8 SWAP7 POP POP POP POP POP POP POP JUMP JUMPDEST PUSH0 PUSH1 0x20 DUP3 ADD SWAP1 POP DUP2 DUP2 SUB PUSH0 DUP4 ADD MSTORE PUSH2 0x1407 DUP2 DUP5 PUSH2 0x132E JUMP JUMPDEST SWAP1 POP SWAP3 SWAP2 POP POP JUMP JUMPDEST PUSH0 DUP2 SWAP1 POP SWAP3 SWAP2 POP POP JUMP JUMPDEST PUSH0 PUSH2 0x1423 DUP3 PUSH2 0x12EC JUMP JUMPDEST PUSH2 0x142D DUP2 DUP6 PUSH2 0x140F JUMP JUMPDEST SWAP4 POP PUSH2 0x143D DUP2 DUP6 PUSH1 0x20 DUP7 ADD PUSH2 0x1306 JUMP JUMPDEST DUP1 DUP5 ADD SWAP2 POP POP SWAP3 SWAP2 POP POP JUMP JUMPDEST PUSH0 PUSH2 0x1454 DUP3 DUP5 PUSH2 0x1419 JUMP JUMPDEST SWAP2 POP DUP2 SWAP1 POP SWAP3 SWAP2 POP POP JUMP JUMPDEST PUSH32 0x4E487B7100000000000000000000000000000000000000000000000000000000 PUSH0 MSTORE PUSH1 0x22 PUSH1 0x4 MSTORE PUSH1 0x24 PUSH0 REVERT JUMPDEST PUSH0 PUSH1 0x2 DUP3 DIV SWAP1 POP PUSH1 0x1 DUP3 AND DUP1 PUSH2 0x14A3 JUMPI PUSH1 0x7F DUP3 AND SWAP2 POP JUMPDEST PUSH1 0x20 DUP3 LT DUP2 SUB PUSH2 0x14B6 JUMPI PUSH2 0x14B5 PUSH2 0x145F JUMP JUMPDEST JUMPDEST POP SWAP2 SWAP1 POP JUMP JUMPDEST PUSH0 DUP2 SWAP1 POP DUP2 PUSH0 MSTORE PUSH1 0x20 PUSH0 KECCAK256 SWAP1 POP SWAP2 SWAP1 POP JUMP JUMPDEST PUSH0 PUSH1 0x20 PUSH1 0x1F DUP4 ADD DIV SWAP1 POP SWAP2 SWAP1 POP JUMP JUMPDEST PUSH0 DUP3 DUP3 SHL SWAP1 POP SWAP3 SWAP2 POP POP JUMP JUMPDEST PUSH0 PUSH1 0x8 DUP4 MUL PUSH2 0x1518 PUSH32 0xFFFFFFFFFFFFFFFFFFFFFFFFFFFFFFFFFFFFFFFFFFFFFFFFFFFFFFFFFFFFFFFF DUP3 PUSH2 0x14DD JUMP JUMPDEST PUSH2 0x1522 DUP7 DUP4 PUSH2 0x14DD JUMP JUMPDEST SWAP6 POP DUP1 NOT DUP5 AND SWAP4 POP DUP1 DUP7 AND DUP5 OR SWAP3 POP POP POP SWAP4 SWAP3 POP POP POP JUMP JUMPDEST PUSH0 DUP2 SWAP1 POP SWAP2 SWAP1 POP JUMP JUMPDEST PUSH0 DUP2 SWAP1 POP SWAP2 SWAP1 POP JUMP JUMPDEST PUSH0 PUSH2 0x1566 PUSH2 0x1561 PUSH2 0x155C DUP5 PUSH2 0x153A JUMP JUMPDEST PUSH2 0x1543 JUMP JUMPDEST PUSH2 0x153A JUMP JUMPDEST SWAP1 POP SWAP2 SWAP1 POP JUMP JUMPDEST PUSH0 DUP2 SWAP1 POP SWAP2 SWAP1 POP JUMP JUMPDEST PUSH2 0x157F DUP4 PUSH2 0x154C JUMP JUMPDEST PUSH2 0x1593 PUSH2 0x158B DUP3 PUSH2 0x156D JUMP JUMPDEST DUP5 DUP5 SLOAD PUSH2 0x14E9 JUMP JUMPDEST DUP3 SSTORE POP POP POP POP JUMP JUMPDEST PUSH0 SWAP1 JUMP JUMPDEST PUSH2 0x15A7 PUSH2 0x159B JUMP JUMPDEST PUSH2 0x15B2 DUP2 DUP5 DUP5 PUSH2 0x1576 JUMP JUMPDEST POP POP POP JUMP JUMPDEST JUMPDEST DUP2 DUP2 LT ISZERO PUSH2 0x15D5 JUMPI PUSH2 0x15CA PUSH0 DUP3 PUSH2 0x159F JUMP JUMPDEST PUSH1 0x1 DUP2 ADD SWAP1 POP PUSH2 0x15B8 JUMP JUMPDEST POP POP JUMP JUMPDEST PUSH1 0x1F DUP3 GT ISZERO PUSH2 0x161A JUMPI PUSH2 0x15EB DUP2 PUSH2 0x14BC JUMP JUMPDEST PUSH2 0x15F4 DUP5 PUSH2 0x14CE JUMP JUMPDEST DUP2 ADD PUSH1 0x20 DUP6 LT ISZERO PUSH2 0x1603 JUMPI DUP2 SWAP1 POP JUMPDEST PUSH2 0x1617 PUSH2 0x160F DUP6 PUSH2 0x14CE JUMP JUMPDEST DUP4 ADD DUP3 PUSH2 0x15B7 JUMP JUMPDEST POP POP JUMPDEST POP POP POP JUMP JUMPDEST PUSH0 DUP3 DUP3 SHR SWAP1 POP SWAP3 SWAP2 POP POP JUMP JUMPDEST PUSH0 PUSH2 0x163A PUSH0 NOT DUP5 PUSH1 0x8 MUL PUSH2 0x161F JUMP JUMPDEST NOT DUP1 DUP4 AND SWAP2 POP POP SWAP3 SWAP2 POP POP JUMP JUMPDEST PUSH0 PUSH2 0x1652 DUP4 DUP4 PUSH2 0x162B JUMP JUMPDEST SWAP2 POP DUP3 PUSH1 0x2 MUL DUP3 OR SWAP1 POP SWAP3 SWAP2 POP POP JUMP JUMPDEST PUSH2 0x166B DUP3 PUSH2 0x12EC JUMP JUMPDEST PUSH8 0xFFFFFFFFFFFFFFFF DUP2 GT ISZERO PUSH2 0x1684 JUMPI PUSH2 0x1683 PUSH2 0xFAA JUMP JUMPDEST JUMPDEST PUSH2 0x168E DUP3 SLOAD PUSH2 0x148C JUMP JUMPDEST PUSH2 0x1699 DUP3 DUP3 DUP6 PUSH2 0x15D9 JUMP JUMPDEST PUSH0 PUSH1 0x20 SWAP1 POP PUSH1 0x1F DUP4 GT PUSH1 0x1 DUP2 EQ PUSH2 0x16CA JUMPI PUSH0 DUP5 ISZERO PUSH2 0x16B8 JUMPI DUP3 DUP8 ADD MLOAD SWAP1 POP JUMPDEST PUSH2 0x16C2 DUP6 DUP3 PUSH2 0x1647 JUMP JUMPDEST DUP7 SSTORE POP PUSH2 0x1729 JUMP JUMPDEST PUSH1 0x1F NOT DUP5 AND PUSH2 0x16D8 DUP7 PUSH2 0x14BC JUMP JUMPDEST PUSH0 JUMPDEST DUP3 DUP2 LT ISZERO PUSH2 0x16FF JUMPI DUP5 DUP10 ADD MLOAD DUP3 SSTORE PUSH1 0x1 DUP3 ADD SWAP2 POP PUSH1 0x20 DUP6 ADD SWAP5 POP PUSH1 0x20 DUP2 ADD SWAP1 POP PUSH2 0x16DA JUMP JUMPDEST DUP7 DUP4 LT ISZERO PUSH2 0x171C JUMPI DUP5 DUP10 ADD MLOAD PUSH2 0x1718 PUSH1 0x1F DUP10 AND DUP3 PUSH2 0x162B JUMP JUMPDEST DUP4 SSTORE POP JUMPDEST PUSH1 0x1 PUSH1 0x2 DUP9 MUL ADD DUP9 SSTORE POP POP POP JUMPDEST POP POP POP POP POP POP JUMP JUMPDEST PUSH0 DUP2 ISZERO ISZERO SWAP1 POP SWAP2 SWAP1 POP JUMP JUMPDEST PUSH2 0x1745 DUP2 PUSH2 0x1731 JUMP JUMPDEST DUP3 MSTORE POP POP JUMP JUMPDEST PUSH0 PUSH1 0x40 DUP3 ADD SWAP1 POP DUP2 DUP2 SUB PUSH0 DUP4 ADD MSTORE PUSH2 0x1763 DUP2 DUP6 PUSH2 0x132E JUMP JUMPDEST SWAP1 POP PUSH2 0x1772 PUSH1 0x20 DUP4 ADD DUP5 PUSH2 0x173C JUMP JUMPDEST SWAP4 SWAP3 POP POP POP JUMP JUMPDEST PUSH32 0x50726976617465206B657920616C7265616479206D6170706564000000000000 PUSH0 DUP3 ADD MSTORE POP JUMP JUMPDEST PUSH0 PUSH2 0x17AD PUSH1 0x1A DUP4 PUSH2 0x12F6 JUMP JUMPDEST SWAP2 POP PUSH2 0x17B8 DUP3 PUSH2 0x1779 JUMP JUMPDEST PUSH1 0x20 DUP3 ADD SWAP1 POP SWAP2 SWAP1 POP JUMP JUMPDEST PUSH0 PUSH1 0x20 DUP3 ADD SWAP1 POP DUP2 DUP2 SUB PUSH0 DUP4 ADD MSTORE PUSH2 0x17DA DUP2 PUSH2 0x17A1 JUMP JUMPDEST SWAP1 POP SWAP2 SWAP1 POP JUMP JUMPDEST PUSH32 0x5573657220616C72656164792065786973747300000000000000000000000000 PUSH0 DUP3 ADD MSTORE POP JUMP JUMPDEST PUSH0 PUSH2 0x1815 PUSH1 0x13 DUP4 PUSH2 0x12F6 JUMP JUMPDEST SWAP2 POP PUSH2 0x1820 DUP3 PUSH2 0x17E1 JUMP JUMPDEST PUSH1 0x20 DUP3 ADD SWAP1 POP SWAP2 SWAP1 POP JUMP JUMPDEST PUSH0 PUSH1 0x20 DUP3 ADD SWAP1 POP DUP2 DUP2 SUB PUSH0 DUP4 ADD MSTORE PUSH2 0x1842 DUP2 PUSH2 0x1809 JUMP JUMPDEST SWAP1 POP SWAP2 SWAP1 POP JUMP JUMPDEST PUSH32 0x50726976617465206B657920616C726561647920696E20757365000000000000 PUSH0 DUP3 ADD MSTORE POP JUMP JUMPDEST PUSH0 PUSH2 0x187D PUSH1 0x1A DUP4 PUSH2 0x12F6 JUMP JUMPDEST SWAP2 POP PUSH2 0x1888 DUP3 PUSH2 0x1849 JUMP JUMPDEST PUSH1 0x20 DUP3 ADD SWAP1 POP SWAP2 SWAP1 POP JUMP JUMPDEST PUSH0 PUSH1 0x20 DUP3 ADD SWAP1 POP DUP2 DUP2 SUB PUSH0 DUP4 ADD MSTORE PUSH2 0x18AA DUP2 PUSH2 0x1871 JUMP JUMPDEST SWAP1 POP SWAP2 SWAP1 POP JUMP INVALID LOG2 PUSH5 0x6970667358 0x22 SLT KECCAK256 DUP12 CODESIZE CREATE PUSH26 0x402F92494302C6EC6372634B9D347C22830EEEBDFE4064FECE4E SLOAD STOP PUSH5 0x736F6C6343 STOP ADDMOD AND STOP CALLER "
				},
				"gasEstimates": {
					"creation": {
						"codeDepositCost": "1275000",
						"executionCost": "1327",
						"totalCost": "1276327"
					},
					"external": {
						"createUser(string,string,string,string,string,string,string)": "infinite",
						"getCidByAddress(string)": "infinite",
						"getContactByAddress(string)": "infinite",
						"getDOBByAddress(string)": "infinite",
						"getEmailByAddress(string)": "infinite",
						"getUsernameByAddress(string)": "infinite",
						"mapPrivateKeyToPublicKey(string,string)": "infinite",
						"privateKeyToPublicKey(string)": "infinite",
						"updateCid(string,string)": "infinite",
						"updateContact(string,string)": "infinite",
						"updateDOB(string,string)": "infinite",
						"updateEmail(string,string)": "infinite",
						"updateUsername(string,string)": "infinite",
						"users(string)": "infinite"
					}
				},
				"methodIdentifiers": {
					"createUser(string,string,string,string,string,string,string)": "5abb69e1",
					"getCidByAddress(string)": "c87203a1",
					"getContactByAddress(string)": "ccca8f22",
					"getDOBByAddress(string)": "beb8727f",
					"getEmailByAddress(string)": "8c9a2e92",
					"getUsernameByAddress(string)": "f7ffd625",
					"mapPrivateKeyToPublicKey(string,string)": "5a7fb9d7",
					"privateKeyToPublicKey(string)": "bf501844",
					"updateCid(string,string)": "a1d01bb1",
					"updateContact(string,string)": "0d60fafd",
					"updateDOB(string,string)": "ee7476d5",
					"updateEmail(string,string)": "27897557",
					"updateUsername(string,string)": "892d069c",
					"users(string)": "689e1c03"
				}
			},
			"storageLayout": {
				"storage": [
					{
						"astId": 19,
						"contract": "contracts/Interface.sol:UserRegistry",
						"label": "users",
						"offset": 0,
						"slot": "0",
						"type": "t_mapping(t_string_memory_ptr,t_struct(User)14_storage)"
					},
					{
						"astId": 23,
						"contract": "contracts/Interface.sol:UserRegistry",
						"label": "privateKeyToPublicKey",
						"offset": 0,
						"slot": "1",
						"type": "t_mapping(t_string_memory_ptr,t_string_storage)"
					}
				],
				"types": {
					"t_mapping(t_string_memory_ptr,t_string_storage)": {
						"encoding": "mapping",
						"key": "t_string_memory_ptr",
						"label": "mapping(string => string)",
						"numberOfBytes": "32",
						"value": "t_string_storage"
					},
					"t_mapping(t_string_memory_ptr,t_struct(User)14_storage)": {
						"encoding": "mapping",
						"key": "t_string_memory_ptr",
						"label": "mapping(string => struct UserRegistry.User)",
						"numberOfBytes": "32",
						"value": "t_struct(User)14_storage"
					},
					"t_string_memory_ptr": {
						"encoding": "bytes",
						"label": "string",
						"numberOfBytes": "32"
					},
					"t_string_storage": {
						"encoding": "bytes",
						"label": "string",
						"numberOfBytes": "32"
					},
					"t_struct(User)14_storage": {
						"encoding": "inplace",
						"label": "struct UserRegistry.User",
						"members": [
							{
								"astId": 3,
								"contract": "contracts/Interface.sol:UserRegistry",
								"label": "userAddress",
								"offset": 0,
								"slot": "0",
								"type": "t_string_storage"
							},
							{
								"astId": 5,
								"contract": "contracts/Interface.sol:UserRegistry",
								"label": "email",
								"offset": 0,
								"slot": "1",
								"type": "t_string_storage"
							},
							{
								"astId": 7,
								"contract": "contracts/Interface.sol:UserRegistry",
								"label": "username",
								"offset": 0,
								"slot": "2",
								"type": "t_string_storage"
							},
							{
								"astId": 9,
								"contract": "contracts/Interface.sol:UserRegistry",
								"label": "contact",
								"offset": 0,
								"slot": "3",
								"type": "t_string_storage"
							},
							{
								"astId": 11,
								"contract": "contracts/Interface.sol:UserRegistry",
								"label": "dob",
								"offset": 0,
								"slot": "4",
								"type": "t_string_storage"
							},
							{
								"astId": 13,
								"contract": "contracts/Interface.sol:UserRegistry",
								"label": "cid",
								"offset": 0,
								"slot": "5",
								"type": "t_string_storage"
							}
						],
						"numberOfBytes": "192"
					}
				}
			},
			"userdoc": {
				"kind": "user",
				"methods": {},
				"version": 1
			}
		}
	}
}